{
	"contracts/Vote/VoterContract.sol": {
		"VoterContract": {
			"abi": [
				{
					"anonymous": false,
					"inputs": [
						{
							"indexed": true,
							"internalType": "address",
							"name": "previousOwner",
							"type": "address"
						},
						{
							"indexed": true,
							"internalType": "address",
							"name": "newOwner",
							"type": "address"
						}
					],
					"name": "OwnershipTransferred",
					"type": "event"
				},
				{
					"anonymous": false,
					"inputs": [
						{
							"indexed": true,
							"internalType": "uint16",
							"name": "voteId",
							"type": "uint16"
						},
						{
							"indexed": false,
							"internalType": "uint32",
							"name": "voted",
							"type": "uint32"
						},
						{
							"indexed": false,
							"internalType": "uint32",
							"name": "result",
							"type": "uint32"
						}
					],
					"name": "VotingEnded",
					"type": "event"
				},
				{
					"anonymous": false,
					"inputs": [
						{
							"indexed": true,
							"internalType": "uint16",
							"name": "voteId",
							"type": "uint16"
						}
					],
					"name": "VotingStarted",
					"type": "event"
				},
				{
					"inputs": [],
					"name": "amIVOTER",
					"outputs": [
						{
							"internalType": "bool",
							"name": "",
							"type": "bool"
						}
					],
					"stateMutability": "view",
					"type": "function"
				},
				{
					"inputs": [],
					"name": "closeProposal",
					"outputs": [],
					"stateMutability": "nonpayable",
					"type": "function"
				},
				{
					"inputs": [],
					"name": "closeVoting",
					"outputs": [],
					"stateMutability": "nonpayable",
					"type": "function"
				},
				{
					"inputs": [
						{
							"internalType": "uint8",
							"name": "limit",
							"type": "uint8"
						}
					],
					"name": "getLastVotings",
					"outputs": [
						{
							"components": [
								{
									"internalType": "uint16",
									"name": "id",
									"type": "uint16"
								},
								{
									"internalType": "string",
									"name": "topic",
									"type": "string"
								},
								{
									"internalType": "uint32",
									"name": "voted",
									"type": "uint32"
								},
								{
									"internalType": "uint32",
									"name": "result",
									"type": "uint32"
								},
								{
									"internalType": "address",
									"name": "proposer",
									"type": "address"
								},
								{
									"internalType": "uint256",
									"name": "blockNumberStarted",
									"type": "uint256"
								},
								{
									"internalType": "uint256",
									"name": "blockNumberWillNotEndBefore",
									"type": "uint256"
								},
								{
									"internalType": "uint256",
									"name": "blockNumberClosed",
									"type": "uint256"
								},
								{
									"internalType": "enum VoterContract.VotingType",
									"name": "votingType",
									"type": "uint8"
								}
							],
							"internalType": "struct VoterContract.Voting[]",
							"name": "",
							"type": "tuple[]"
						}
					],
					"stateMutability": "view",
					"type": "function"
				},
				{
					"inputs": [
						{
							"internalType": "address",
							"name": "voterAddress",
							"type": "address"
						}
					],
					"name": "giveVotingPower",
					"outputs": [],
					"stateMutability": "nonpayable",
					"type": "function"
				},
				{
					"inputs": [],
					"name": "keyHolder",
					"outputs": [
						{
							"internalType": "address",
							"name": "",
							"type": "address"
						}
					],
					"stateMutability": "view",
					"type": "function"
				},
				{
					"inputs": [
						{
							"internalType": "string",
							"name": "_topic",
							"type": "string"
						}
					],
					"name": "openProposal",
					"outputs": [],
					"stateMutability": "nonpayable",
					"type": "function"
				},
				{
					"inputs": [
						{
							"internalType": "enum VoterContract.VotingType",
							"name": "_votingType",
							"type": "uint8"
						},
						{
							"internalType": "uint256",
							"name": "_votingDurationBasedBlockNumber",
							"type": "uint256"
						},
						{
							"internalType": "string",
							"name": "_topic",
							"type": "string"
						}
					],
					"name": "openVoting",
					"outputs": [],
					"stateMutability": "nonpayable",
					"type": "function"
				},
				{
					"inputs": [],
					"name": "owner",
					"outputs": [
						{
							"internalType": "address",
							"name": "",
							"type": "address"
						}
					],
					"stateMutability": "view",
					"type": "function"
				},
				{
					"inputs": [],
					"name": "renounceOwnership",
					"outputs": [],
					"stateMutability": "nonpayable",
					"type": "function"
				},
				{
					"inputs": [
						{
							"internalType": "address",
							"name": "adr",
							"type": "address"
						}
					],
					"name": "setKeyHolderAddress",
					"outputs": [],
					"stateMutability": "nonpayable",
					"type": "function"
				},
				{
					"inputs": [],
					"name": "totalVoterCount",
					"outputs": [
						{
							"internalType": "uint16",
							"name": "",
							"type": "uint16"
						}
					],
					"stateMutability": "view",
					"type": "function"
				},
				{
					"inputs": [
						{
							"internalType": "address",
							"name": "newOwner",
							"type": "address"
						}
					],
					"name": "transferOwnership",
					"outputs": [],
					"stateMutability": "nonpayable",
					"type": "function"
				},
				{
					"inputs": [
						{
							"internalType": "uint8",
							"name": "vote",
							"type": "uint8"
						}
					],
					"name": "useVotePowerONE_TEN",
					"outputs": [],
					"stateMutability": "nonpayable",
					"type": "function"
				},
				{
					"inputs": [
						{
							"internalType": "enum VoterContract.NoYes",
							"name": "vote",
							"type": "uint8"
						}
					],
					"name": "useVotePowerProposal",
					"outputs": [],
					"stateMutability": "nonpayable",
					"type": "function"
				},
				{
					"inputs": [
						{
							"internalType": "enum VoterContract.NoYes",
							"name": "vote",
							"type": "uint8"
						}
					],
					"name": "useVotePowerYesNo",
					"outputs": [],
					"stateMutability": "nonpayable",
					"type": "function"
				},
				{
					"inputs": [],
					"name": "voteId",
					"outputs": [
						{
							"internalType": "uint16",
							"name": "",
							"type": "uint16"
						}
					],
					"stateMutability": "view",
					"type": "function"
				},
				{
					"inputs": [
						{
							"internalType": "uint16",
							"name": "",
							"type": "uint16"
						}
					],
					"name": "votings",
					"outputs": [
						{
							"internalType": "uint16",
							"name": "id",
							"type": "uint16"
						},
						{
							"internalType": "string",
							"name": "topic",
							"type": "string"
						},
						{
							"internalType": "uint32",
							"name": "voted",
							"type": "uint32"
						},
						{
							"internalType": "uint32",
							"name": "result",
							"type": "uint32"
						},
						{
							"internalType": "address",
							"name": "proposer",
							"type": "address"
						},
						{
							"internalType": "uint256",
							"name": "blockNumberStarted",
							"type": "uint256"
						},
						{
							"internalType": "uint256",
							"name": "blockNumberWillNotEndBefore",
							"type": "uint256"
						},
						{
							"internalType": "uint256",
							"name": "blockNumberClosed",
							"type": "uint256"
						},
						{
							"internalType": "enum VoterContract.VotingType",
							"name": "votingType",
							"type": "uint8"
						}
					],
					"stateMutability": "view",
					"type": "function"
				},
				{
					"inputs": [],
					"name": "whatDidIVote",
					"outputs": [
						{
							"internalType": "uint8",
							"name": "",
							"type": "uint8"
						}
					],
					"stateMutability": "view",
					"type": "function"
				}
			],
			"devdoc": {
				"kind": "dev",
				"methods": {
					"owner()": {
						"details": "Returns the address of the current owner."
					},
					"renounceOwnership()": {
						"details": "Leaves the contract without owner. It will not be possible to call `onlyOwner` functions. Can only be called by the current owner. NOTE: Renouncing ownership will leave the contract without an owner, thereby disabling any functionality that is only available to the owner."
					},
					"transferOwnership(address)": {
						"details": "Transfers ownership of the contract to a new account (`newOwner`). Can only be called by the current owner."
					}
				},
				"version": 1
			},
			"evm": {
				"assembly": "    /* \"contracts/Vote/VoterContract.sol\":120:8072  contract VoterContract is Ownable{\r... */\n  mstore(0x40, 0x80)\n    /* \"contracts/Vote/VoterContract.sol\":856:857  0 */\n  0x00\n    /* \"contracts/Vote/VoterContract.sol\":833:857  uint16 public voteId = 0 */\n  0x01\n  exp(0x0100, 0x14)\n  dup2\n  sload\n  dup2\n  0xffff\n  mul\n  not\n  and\n  swap1\n  dup4\n  0xffff\n  and\n  mul\n  or\n  swap1\n  sstore\n  pop\n    /* \"contracts/Vote/VoterContract.sol\":1067:1068  0 */\n  0x00\n    /* \"contracts/Vote/VoterContract.sol\":1034:1068  uint16 public  totalVoterCount = 0 */\n  0x05\n  exp(0x0100, 0x00)\n  dup2\n  sload\n  dup2\n  0xffff\n  mul\n  not\n  and\n  swap1\n  dup4\n  0xffff\n  and\n  mul\n  or\n  swap1\n  sstore\n  pop\n    /* \"contracts/Vote/VoterContract.sol\":120:8072  contract VoterContract is Ownable{\r... */\n  callvalue\n  dup1\n  iszero\n  tag_1\n  jumpi\n  0x00\n  dup1\n  revert\ntag_1:\n  pop\n    /* \"@openzeppelin/contracts/access/Ownable.sol\":936:968  _transferOwnership(_msgSender()) */\n  tag_4\n    /* \"@openzeppelin/contracts/access/Ownable.sol\":955:967  _msgSender() */\n  tag_5\n    /* \"@openzeppelin/contracts/access/Ownable.sol\":955:965  _msgSender */\n  shl(0x20, tag_6)\n    /* \"@openzeppelin/contracts/access/Ownable.sol\":955:967  _msgSender() */\n  0x20\n  shr\n  jump\t// in\ntag_5:\n    /* \"@openzeppelin/contracts/access/Ownable.sol\":936:954  _transferOwnership */\n  shl(0x20, tag_7)\n    /* \"@openzeppelin/contracts/access/Ownable.sol\":936:968  _transferOwnership(_msgSender()) */\n  0x20\n  shr\n  jump\t// in\ntag_4:\n    /* \"contracts/Vote/VoterContract.sol\":120:8072  contract VoterContract is Ownable{\r... */\n  jump(tag_8)\n    /* \"@openzeppelin/contracts/utils/Context.sol\":640:736  function _msgSender() internal view virtual returns (address) {... */\ntag_6:\n    /* \"@openzeppelin/contracts/utils/Context.sol\":693:700  address */\n  0x00\n    /* \"@openzeppelin/contracts/utils/Context.sol\":719:729  msg.sender */\n  caller\n    /* \"@openzeppelin/contracts/utils/Context.sol\":712:729  return msg.sender */\n  swap1\n  pop\n    /* \"@openzeppelin/contracts/utils/Context.sol\":640:736  function _msgSender() internal view virtual returns (address) {... */\n  swap1\n  jump\t// out\n    /* \"@openzeppelin/contracts/access/Ownable.sol\":2426:2613  function _transferOwnership(address newOwner) internal virtual {... */\ntag_7:\n    /* \"@openzeppelin/contracts/access/Ownable.sol\":2499:2515  address oldOwner */\n  0x00\n    /* \"@openzeppelin/contracts/access/Ownable.sol\":2518:2524  _owner */\n  dup1\n  0x00\n  swap1\n  sload\n  swap1\n  0x0100\n  exp\n  swap1\n  div\n  0xffffffffffffffffffffffffffffffffffffffff\n  and\n    /* \"@openzeppelin/contracts/access/Ownable.sol\":2499:2524  address oldOwner = _owner */\n  swap1\n  pop\n    /* \"@openzeppelin/contracts/access/Ownable.sol\":2543:2551  newOwner */\n  dup2\n    /* \"@openzeppelin/contracts/access/Ownable.sol\":2534:2540  _owner */\n  0x00\n  dup1\n    /* \"@openzeppelin/contracts/access/Ownable.sol\":2534:2551  _owner = newOwner */\n  0x0100\n  exp\n  dup2\n  sload\n  dup2\n  0xffffffffffffffffffffffffffffffffffffffff\n  mul\n  not\n  and\n  swap1\n  dup4\n  0xffffffffffffffffffffffffffffffffffffffff\n  and\n  mul\n  or\n  swap1\n  sstore\n  pop\n    /* \"@openzeppelin/contracts/access/Ownable.sol\":2597:2605  newOwner */\n  dup2\n    /* \"@openzeppelin/contracts/access/Ownable.sol\":2566:2606  OwnershipTransferred(oldOwner, newOwner) */\n  0xffffffffffffffffffffffffffffffffffffffff\n  and\n    /* \"@openzeppelin/contracts/access/Ownable.sol\":2587:2595  oldOwner */\n  dup2\n    /* \"@openzeppelin/contracts/access/Ownable.sol\":2566:2606  OwnershipTransferred(oldOwner, newOwner) */\n  0xffffffffffffffffffffffffffffffffffffffff\n  and\n  0x8be0079c531659141344cd1fd0a4f28419497f9722a3daafe3b4186f6b6457e0\n  mload(0x40)\n  mload(0x40)\n  dup1\n  swap2\n  sub\n  swap1\n  log3\n    /* \"@openzeppelin/contracts/access/Ownable.sol\":2489:2613  {... */\n  pop\n    /* \"@openzeppelin/contracts/access/Ownable.sol\":2426:2613  function _transferOwnership(address newOwner) internal virtual {... */\n  pop\n  jump\t// out\n    /* \"contracts/Vote/VoterContract.sol\":120:8072  contract VoterContract is Ownable{\r... */\ntag_8:\n  dataSize(sub_0)\n  dup1\n  dataOffset(sub_0)\n  0x00\n  codecopy\n  0x00\n  return\nstop\n\nsub_0: assembly {\n        /* \"contracts/Vote/VoterContract.sol\":120:8072  contract VoterContract is Ownable{\r... */\n      mstore(0x40, 0x80)\n      callvalue\n      dup1\n      iszero\n      tag_1\n      jumpi\n      0x00\n      dup1\n      revert\n    tag_1:\n      pop\n      jumpi(tag_2, lt(calldatasize, 0x04))\n      shr(0xe0, calldataload(0x00))\n      dup1\n      0x8da5cb5b\n      gt\n      tag_22\n      jumpi\n      dup1\n      0xddd2d1fd\n      gt\n      tag_23\n      jumpi\n      dup1\n      0xddd2d1fd\n      eq\n      tag_17\n      jumpi\n      dup1\n      0xea31a64c\n      eq\n      tag_18\n      jumpi\n      dup1\n      0xf2fde38b\n      eq\n      tag_19\n      jumpi\n      dup1\n      0xf546278d\n      eq\n      tag_20\n      jumpi\n      dup1\n      0xfbb39651\n      eq\n      tag_21\n      jumpi\n      jump(tag_2)\n    tag_23:\n      dup1\n      0x8da5cb5b\n      eq\n      tag_12\n      jumpi\n      dup1\n      0xb0b121fe\n      eq\n      tag_13\n      jumpi\n      dup1\n      0xbf2aba79\n      eq\n      tag_14\n      jumpi\n      dup1\n      0xc631b292\n      eq\n      tag_15\n      jumpi\n      dup1\n      0xda92d1d9\n      eq\n      tag_16\n      jumpi\n      jump(tag_2)\n    tag_22:\n      dup1\n      0x48f85451\n      gt\n      tag_24\n      jumpi\n      dup1\n      0x48f85451\n      eq\n      tag_7\n      jumpi\n      dup1\n      0x4ddb37e1\n      eq\n      tag_8\n      jumpi\n      dup1\n      0x6208ac9c\n      eq\n      tag_9\n      jumpi\n      dup1\n      0x6f71e065\n      eq\n      tag_10\n      jumpi\n      dup1\n      0x715018a6\n      eq\n      tag_11\n      jumpi\n      jump(tag_2)\n    tag_24:\n      dup1\n      0x04f397cf\n      eq\n      tag_3\n      jumpi\n      dup1\n      0x25bc7747\n      eq\n      tag_4\n      jumpi\n      dup1\n      0x41078167\n      eq\n      tag_5\n      jumpi\n      dup1\n      0x45e641d0\n      eq\n      tag_6\n      jumpi\n    tag_2:\n      0x00\n      dup1\n      revert\n        /* \"contracts/Vote/VoterContract.sol\":7974:8069  function amIVOTER() external view returns(bool){\r... */\n    tag_3:\n      tag_25\n      tag_26\n      jump\t// in\n    tag_25:\n      mload(0x40)\n      tag_27\n      swap2\n      swap1\n      tag_28\n      jump\t// in\n    tag_27:\n      mload(0x40)\n      dup1\n      swap2\n      sub\n      swap1\n      return\n        /* \"contracts/Vote/VoterContract.sol\":6344:6831  function useVotePowerProposal(NoYes vote) external isVotingStarted onlyNotVotedVoters{\r... */\n    tag_4:\n      tag_29\n      0x04\n      dup1\n      calldatasize\n      sub\n      dup2\n      add\n      swap1\n      tag_30\n      swap2\n      swap1\n      tag_31\n      jump\t// in\n    tag_30:\n      tag_32\n      jump\t// in\n    tag_29:\n      stop\n        /* \"contracts/Vote/VoterContract.sol\":6839:7853  function getLastVotings(uint8 limit) external view returns(Voting[] memory){\r... */\n    tag_5:\n      tag_33\n      0x04\n      dup1\n      calldatasize\n      sub\n      dup2\n      add\n      swap1\n      tag_34\n      swap2\n      swap1\n      tag_35\n      jump\t// in\n    tag_34:\n      tag_36\n      jump\t// in\n    tag_33:\n      mload(0x40)\n      tag_37\n      swap2\n      swap1\n      tag_38\n      jump\t// in\n    tag_37:\n      mload(0x40)\n      dup1\n      swap2\n      sub\n      swap1\n      return\n        /* \"contracts/Vote/VoterContract.sol\":162:186  address public keyHolder */\n    tag_6:\n      tag_39\n      tag_40\n      jump\t// in\n    tag_39:\n      mload(0x40)\n      tag_41\n      swap2\n      swap1\n      tag_42\n      jump\t// in\n    tag_41:\n      mload(0x40)\n      dup1\n      swap2\n      sub\n      swap1\n      return\n        /* \"contracts/Vote/VoterContract.sol\":3636:4871  function closeProposal() external onlyVoters(msg.sender){\r... */\n    tag_7:\n      tag_43\n      tag_44\n      jump\t// in\n    tag_43:\n      stop\n        /* \"contracts/Vote/VoterContract.sol\":5447:5924  function useVotePowerYesNo(NoYes vote) external isVotingStarted onlyNotVotedVoters{\r... */\n    tag_8:\n      tag_45\n      0x04\n      dup1\n      calldatasize\n      sub\n      dup2\n      add\n      swap1\n      tag_46\n      swap2\n      swap1\n      tag_31\n      jump\t// in\n    tag_46:\n      tag_47\n      jump\t// in\n    tag_45:\n      stop\n        /* \"contracts/Vote/VoterContract.sol\":5936:6336  function useVotePowerONE_TEN(uint8 vote) external isVotingStarted onlyNotVotedVoters{\r... */\n    tag_9:\n      tag_48\n      0x04\n      dup1\n      calldatasize\n      sub\n      dup2\n      add\n      swap1\n      tag_49\n      swap2\n      swap1\n      tag_35\n      jump\t// in\n    tag_49:\n      tag_50\n      jump\t// in\n    tag_48:\n      stop\n        /* \"contracts/Vote/VoterContract.sol\":1034:1068  uint16 public  totalVoterCount = 0 */\n    tag_10:\n      tag_51\n      tag_52\n      jump\t// in\n    tag_51:\n      mload(0x40)\n      tag_53\n      swap2\n      swap1\n      tag_54\n      jump\t// in\n    tag_53:\n      mload(0x40)\n      dup1\n      swap2\n      sub\n      swap1\n      return\n        /* \"@openzeppelin/contracts/access/Ownable.sol\":1824:1925  function renounceOwnership() public virtual onlyOwner {... */\n    tag_11:\n      tag_55\n      tag_56\n      jump\t// in\n    tag_55:\n      stop\n        /* \"@openzeppelin/contracts/access/Ownable.sol\":1201:1286  function owner() public view virtual returns (address) {... */\n    tag_12:\n      tag_57\n      tag_58\n      jump\t// in\n    tag_57:\n      mload(0x40)\n      tag_59\n      swap2\n      swap1\n      tag_42\n      jump\t// in\n    tag_59:\n      mload(0x40)\n      dup1\n      swap2\n      sub\n      swap1\n      return\n        /* \"contracts/Vote/VoterContract.sol\":2962:3624  function openProposal(string memory _topic) external  onlyVoters(msg.sender) isVotingEnded {\r... */\n    tag_13:\n      tag_60\n      0x04\n      dup1\n      calldatasize\n      sub\n      dup2\n      add\n      swap1\n      tag_61\n      swap2\n      swap1\n      tag_62\n      jump\t// in\n    tag_61:\n      tag_63\n      jump\t// in\n    tag_60:\n      stop\n        /* \"contracts/Vote/VoterContract.sol\":1925:2019  function setKeyHolderAddress(address adr) external onlyOwner{\r... */\n    tag_14:\n      tag_64\n      0x04\n      dup1\n      calldatasize\n      sub\n      dup2\n      add\n      swap1\n      tag_65\n      swap2\n      swap1\n      tag_66\n      jump\t// in\n    tag_65:\n      tag_67\n      jump\t// in\n    tag_64:\n      stop\n        /* \"contracts/Vote/VoterContract.sol\":4879:5218  function closeVoting() external onlyVoters(msg.sender) {\r... */\n    tag_15:\n      tag_68\n      tag_69\n      jump\t// in\n    tag_68:\n      stop\n        /* \"contracts/Vote/VoterContract.sol\":7861:7968  function whatDidIVote() external view returns(uint8){\r... */\n    tag_16:\n      tag_70\n      tag_71\n      jump\t// in\n    tag_70:\n      mload(0x40)\n      tag_72\n      swap2\n      swap1\n      tag_73\n      jump\t// in\n    tag_72:\n      mload(0x40)\n      dup1\n      swap2\n      sub\n      swap1\n      return\n        /* \"contracts/Vote/VoterContract.sol\":985:1025  mapping(uint16 => Voting) public votings */\n    tag_17:\n      tag_74\n      0x04\n      dup1\n      calldatasize\n      sub\n      dup2\n      add\n      swap1\n      tag_75\n      swap2\n      swap1\n      tag_76\n      jump\t// in\n    tag_75:\n      tag_77\n      jump\t// in\n    tag_74:\n      mload(0x40)\n      tag_78\n      swap10\n      swap9\n      swap8\n      swap7\n      swap6\n      swap5\n      swap4\n      swap3\n      swap2\n      swap1\n      tag_79\n      jump\t// in\n    tag_78:\n      mload(0x40)\n      dup1\n      swap2\n      sub\n      swap1\n      return\n        /* \"contracts/Vote/VoterContract.sol\":2027:2304  function giveVotingPower(address voterAddress) external onlyKeyHolder noZeroAddress(voterAddress) {\r... */\n    tag_18:\n      tag_80\n      0x04\n      dup1\n      calldatasize\n      sub\n      dup2\n      add\n      swap1\n      tag_81\n      swap2\n      swap1\n      tag_66\n      jump\t// in\n    tag_81:\n      tag_82\n      jump\t// in\n    tag_80:\n      stop\n        /* \"@openzeppelin/contracts/access/Ownable.sol\":2074:2272  function transferOwnership(address newOwner) public virtual onlyOwner {... */\n    tag_19:\n      tag_83\n      0x04\n      dup1\n      calldatasize\n      sub\n      dup2\n      add\n      swap1\n      tag_84\n      swap2\n      swap1\n      tag_66\n      jump\t// in\n    tag_84:\n      tag_85\n      jump\t// in\n    tag_83:\n      stop\n        /* \"contracts/Vote/VoterContract.sol\":2312:2950  function openVoting(VotingType _votingType,uint256 _votingDurationBasedBlockNumber,string calldata _topic) external onlyOwner isVotingEnded {\r... */\n    tag_20:\n      tag_86\n      0x04\n      dup1\n      calldatasize\n      sub\n      dup2\n      add\n      swap1\n      tag_87\n      swap2\n      swap1\n      tag_88\n      jump\t// in\n    tag_87:\n      tag_89\n      jump\t// in\n    tag_86:\n      stop\n        /* \"contracts/Vote/VoterContract.sol\":833:857  uint16 public voteId = 0 */\n    tag_21:\n      tag_90\n      tag_91\n      jump\t// in\n    tag_90:\n      mload(0x40)\n      tag_92\n      swap2\n      swap1\n      tag_54\n      jump\t// in\n    tag_92:\n      mload(0x40)\n      dup1\n      swap2\n      sub\n      swap1\n      return\n        /* \"contracts/Vote/VoterContract.sol\":7974:8069  function amIVOTER() external view returns(bool){\r... */\n    tag_26:\n        /* \"contracts/Vote/VoterContract.sol\":8016:8020  bool */\n      0x00\n        /* \"contracts/Vote/VoterContract.sol\":8039:8049  __VOTERS__ */\n      0x02\n        /* \"contracts/Vote/VoterContract.sol\":8039:8061  __VOTERS__[msg.sender] */\n      0x00\n        /* \"contracts/Vote/VoterContract.sol\":8050:8060  msg.sender */\n      caller\n        /* \"contracts/Vote/VoterContract.sol\":8039:8061  __VOTERS__[msg.sender] */\n      0xffffffffffffffffffffffffffffffffffffffff\n      and\n      0xffffffffffffffffffffffffffffffffffffffff\n      and\n      dup2\n      mstore\n      0x20\n      add\n      swap1\n      dup2\n      mstore\n      0x20\n      add\n      0x00\n      keccak256\n      0x00\n      swap1\n      sload\n      swap1\n      0x0100\n      exp\n      swap1\n      div\n      0xff\n      and\n        /* \"contracts/Vote/VoterContract.sol\":8032:8061  return __VOTERS__[msg.sender] */\n      swap1\n      pop\n        /* \"contracts/Vote/VoterContract.sol\":7974:8069  function amIVOTER() external view returns(bool){\r... */\n      swap1\n      jump\t// out\n        /* \"contracts/Vote/VoterContract.sol\":6344:6831  function useVotePowerProposal(NoYes vote) external isVotingStarted onlyNotVotedVoters{\r... */\n    tag_32:\n        /* \"contracts/Vote/VoterContract.sol\":1709:1726  VotingType.Closed */\n      0x00\n        /* \"contracts/Vote/VoterContract.sol\":1681:1726  votings[voteId].votingType!=VotingType.Closed */\n      0x03\n      dup2\n      gt\n      iszero\n      tag_95\n      jumpi\n      tag_96\n      tag_97\n      jump\t// in\n    tag_96:\n    tag_95:\n        /* \"contracts/Vote/VoterContract.sol\":1681:1688  votings */\n      0x04\n        /* \"contracts/Vote/VoterContract.sol\":1681:1696  votings[voteId] */\n      0x00\n        /* \"contracts/Vote/VoterContract.sol\":1689:1695  voteId */\n      0x01\n      0x14\n      swap1\n      sload\n      swap1\n      0x0100\n      exp\n      swap1\n      div\n      0xffff\n      and\n        /* \"contracts/Vote/VoterContract.sol\":1681:1696  votings[voteId] */\n      0xffff\n      and\n      0xffff\n      and\n      dup2\n      mstore\n      0x20\n      add\n      swap1\n      dup2\n      mstore\n      0x20\n      add\n      0x00\n      keccak256\n        /* \"contracts/Vote/VoterContract.sol\":1681:1707  votings[voteId].votingType */\n      0x06\n      add\n      0x00\n      swap1\n      sload\n      swap1\n      0x0100\n      exp\n      swap1\n      div\n      0xff\n      and\n        /* \"contracts/Vote/VoterContract.sol\":1681:1726  votings[voteId].votingType!=VotingType.Closed */\n      0x03\n      dup2\n      gt\n      iszero\n      tag_98\n      jumpi\n      tag_99\n      tag_97\n      jump\t// in\n    tag_99:\n    tag_98:\n      eq\n      iszero\n        /* \"contracts/Vote/VoterContract.sol\":1673:1748  require(votings[voteId].votingType!=VotingType.Closed,\"There is no voting\") */\n      tag_100\n      jumpi\n      mload(0x40)\n      0x08c379a000000000000000000000000000000000000000000000000000000000\n      dup2\n      mstore\n      0x04\n      add\n      tag_101\n      swap1\n      tag_102\n      jump\t// in\n    tag_101:\n      mload(0x40)\n      dup1\n      swap2\n      sub\n      swap1\n      revert\n    tag_100:\n        /* \"contracts/Vote/VoterContract.sol\":1488:1498  __VOTERS__ */\n      0x02\n        /* \"contracts/Vote/VoterContract.sol\":1488:1510  __VOTERS__[msg.sender] */\n      0x00\n        /* \"contracts/Vote/VoterContract.sol\":1499:1509  msg.sender */\n      caller\n        /* \"contracts/Vote/VoterContract.sol\":1488:1510  __VOTERS__[msg.sender] */\n      0xffffffffffffffffffffffffffffffffffffffff\n      and\n      0xffffffffffffffffffffffffffffffffffffffff\n      and\n      dup2\n      mstore\n      0x20\n      add\n      swap1\n      dup2\n      mstore\n      0x20\n      add\n      0x00\n      keccak256\n      0x00\n      swap1\n      sload\n      swap1\n      0x0100\n      exp\n      swap1\n      div\n      0xff\n      and\n        /* \"contracts/Vote/VoterContract.sol\":1480:1533  require(__VOTERS__[msg.sender],\"You are not a voter\") */\n      tag_104\n      jumpi\n      mload(0x40)\n      0x08c379a000000000000000000000000000000000000000000000000000000000\n      dup2\n      mstore\n      0x04\n      add\n      tag_105\n      swap1\n      tag_106\n      jump\t// in\n    tag_105:\n      mload(0x40)\n      dup1\n      swap2\n      sub\n      swap1\n      revert\n    tag_104:\n        /* \"contracts/Vote/VoterContract.sol\":1583:1584  0 */\n      0x00\n        /* \"contracts/Vote/VoterContract.sol\":1552:1561  votePower */\n      0x03\n        /* \"contracts/Vote/VoterContract.sol\":1552:1569  votePower[voteId] */\n      0x00\n        /* \"contracts/Vote/VoterContract.sol\":1562:1568  voteId */\n      0x01\n      0x14\n      swap1\n      sload\n      swap1\n      0x0100\n      exp\n      swap1\n      div\n      0xffff\n      and\n        /* \"contracts/Vote/VoterContract.sol\":1552:1569  votePower[voteId] */\n      0xffff\n      and\n      0xffff\n      and\n      dup2\n      mstore\n      0x20\n      add\n      swap1\n      dup2\n      mstore\n      0x20\n      add\n      0x00\n      keccak256\n        /* \"contracts/Vote/VoterContract.sol\":1552:1581  votePower[voteId][msg.sender] */\n      0x00\n        /* \"contracts/Vote/VoterContract.sol\":1570:1580  msg.sender */\n      caller\n        /* \"contracts/Vote/VoterContract.sol\":1552:1581  votePower[voteId][msg.sender] */\n      0xffffffffffffffffffffffffffffffffffffffff\n      and\n      0xffffffffffffffffffffffffffffffffffffffff\n      and\n      dup2\n      mstore\n      0x20\n      add\n      swap1\n      dup2\n      mstore\n      0x20\n      add\n      0x00\n      keccak256\n      0x00\n      swap1\n      sload\n      swap1\n      0x0100\n      exp\n      swap1\n      div\n      0xff\n      and\n        /* \"contracts/Vote/VoterContract.sol\":1552:1584  votePower[voteId][msg.sender]==0 */\n      0xff\n      and\n      eq\n        /* \"contracts/Vote/VoterContract.sol\":1544:1609  require(votePower[voteId][msg.sender]==0,\"You have voted before\") */\n      tag_107\n      jumpi\n      mload(0x40)\n      0x08c379a000000000000000000000000000000000000000000000000000000000\n      dup2\n      mstore\n      0x04\n      add\n      tag_108\n      swap1\n      tag_109\n      jump\t// in\n    tag_108:\n      mload(0x40)\n      dup1\n      swap2\n      sub\n      swap1\n      revert\n    tag_107:\n        /* \"contracts/Vote/VoterContract.sol\":6476:6495  VotingType.Proposal */\n      0x03\n        /* \"contracts/Vote/VoterContract.sol\":6448:6495  votings[voteId].votingType==VotingType.Proposal */\n      dup1\n      dup2\n      gt\n      iszero\n      tag_111\n      jumpi\n      tag_112\n      tag_97\n      jump\t// in\n    tag_112:\n    tag_111:\n        /* \"contracts/Vote/VoterContract.sol\":6448:6455  votings */\n      0x04\n        /* \"contracts/Vote/VoterContract.sol\":6448:6463  votings[voteId] */\n      0x00\n        /* \"contracts/Vote/VoterContract.sol\":6456:6462  voteId */\n      0x01\n      0x14\n      swap1\n      sload\n      swap1\n      0x0100\n      exp\n      swap1\n      div\n      0xffff\n      and\n        /* \"contracts/Vote/VoterContract.sol\":6448:6463  votings[voteId] */\n      0xffff\n      and\n      0xffff\n      and\n      dup2\n      mstore\n      0x20\n      add\n      swap1\n      dup2\n      mstore\n      0x20\n      add\n      0x00\n      keccak256\n        /* \"contracts/Vote/VoterContract.sol\":6448:6474  votings[voteId].votingType */\n      0x06\n      add\n      0x00\n      swap1\n      sload\n      swap1\n      0x0100\n      exp\n      swap1\n      div\n      0xff\n      and\n        /* \"contracts/Vote/VoterContract.sol\":6448:6495  votings[voteId].votingType==VotingType.Proposal */\n      0x03\n      dup2\n      gt\n      iszero\n      tag_113\n      jumpi\n      tag_114\n      tag_97\n      jump\t// in\n    tag_114:\n    tag_113:\n      eq\n        /* \"contracts/Vote/VoterContract.sol\":6440:6544  require(votings[voteId].votingType==VotingType.Proposal,\"Currently we are not voting on this function.\") */\n      tag_115\n      jumpi\n      mload(0x40)\n      0x08c379a000000000000000000000000000000000000000000000000000000000\n      dup2\n      mstore\n      0x04\n      add\n      tag_116\n      swap1\n      tag_117\n      jump\t// in\n    tag_116:\n      mload(0x40)\n      dup1\n      swap2\n      sub\n      swap1\n      revert\n    tag_115:\n        /* \"contracts/Vote/VoterContract.sol\":6566:6574  NoYes.No */\n      0x00\n        /* \"contracts/Vote/VoterContract.sol\":6560:6574  vote==NoYes.No */\n      0x01\n      dup2\n      gt\n      iszero\n      tag_118\n      jumpi\n      tag_119\n      tag_97\n      jump\t// in\n    tag_119:\n    tag_118:\n        /* \"contracts/Vote/VoterContract.sol\":6560:6564  vote */\n      dup2\n        /* \"contracts/Vote/VoterContract.sol\":6560:6574  vote==NoYes.No */\n      0x01\n      dup2\n      gt\n      iszero\n      tag_120\n      jumpi\n      tag_121\n      tag_97\n      jump\t// in\n    tag_121:\n    tag_120:\n      eq\n        /* \"contracts/Vote/VoterContract.sol\":6557:6785  if(vote==NoYes.No){\r... */\n      iszero\n      tag_122\n      jumpi\n        /* \"contracts/Vote/VoterContract.sol\":6622:6623  1 */\n      0x01\n        /* \"contracts/Vote/VoterContract.sol\":6590:6599  votePower */\n      0x03\n        /* \"contracts/Vote/VoterContract.sol\":6590:6607  votePower[voteId] */\n      0x00\n        /* \"contracts/Vote/VoterContract.sol\":6600:6606  voteId */\n      0x01\n      0x14\n      swap1\n      sload\n      swap1\n      0x0100\n      exp\n      swap1\n      div\n      0xffff\n      and\n        /* \"contracts/Vote/VoterContract.sol\":6590:6607  votePower[voteId] */\n      0xffff\n      and\n      0xffff\n      and\n      dup2\n      mstore\n      0x20\n      add\n      swap1\n      dup2\n      mstore\n      0x20\n      add\n      0x00\n      keccak256\n        /* \"contracts/Vote/VoterContract.sol\":6590:6619  votePower[voteId][msg.sender] */\n      0x00\n        /* \"contracts/Vote/VoterContract.sol\":6608:6618  msg.sender */\n      caller\n        /* \"contracts/Vote/VoterContract.sol\":6590:6619  votePower[voteId][msg.sender] */\n      0xffffffffffffffffffffffffffffffffffffffff\n      and\n      0xffffffffffffffffffffffffffffffffffffffff\n      and\n      dup2\n      mstore\n      0x20\n      add\n      swap1\n      dup2\n      mstore\n      0x20\n      add\n      0x00\n      keccak256\n      0x00\n        /* \"contracts/Vote/VoterContract.sol\":6590:6623  votePower[voteId][msg.sender] = 1 */\n      0x0100\n      exp\n      dup2\n      sload\n      dup2\n      0xff\n      mul\n      not\n      and\n      swap1\n      dup4\n      0xff\n      and\n      mul\n      or\n      swap1\n      sstore\n      pop\n        /* \"contracts/Vote/VoterContract.sol\":6664:6665  1 */\n      0x01\n        /* \"contracts/Vote/VoterContract.sol\":6638:6645  votings */\n      0x04\n        /* \"contracts/Vote/VoterContract.sol\":6638:6653  votings[voteId] */\n      0x00\n        /* \"contracts/Vote/VoterContract.sol\":6646:6652  voteId */\n      0x01\n      0x14\n      swap1\n      sload\n      swap1\n      0x0100\n      exp\n      swap1\n      div\n      0xffff\n      and\n        /* \"contracts/Vote/VoterContract.sol\":6638:6653  votings[voteId] */\n      0xffff\n      and\n      0xffff\n      and\n      dup2\n      mstore\n      0x20\n      add\n      swap1\n      dup2\n      mstore\n      0x20\n      add\n      0x00\n      keccak256\n        /* \"contracts/Vote/VoterContract.sol\":6638:6660  votings[voteId].result */\n      0x02\n      add\n      0x04\n        /* \"contracts/Vote/VoterContract.sol\":6638:6665  votings[voteId].result += 1 */\n      dup3\n      dup3\n      dup3\n      swap1\n      sload\n      swap1\n      0x0100\n      exp\n      swap1\n      div\n      0xffffffff\n      and\n      tag_123\n      swap2\n      swap1\n      tag_124\n      jump\t// in\n    tag_123:\n      swap3\n      pop\n      0x0100\n      exp\n      dup2\n      sload\n      dup2\n      0xffffffff\n      mul\n      not\n      and\n      swap1\n      dup4\n      0xffffffff\n      and\n      mul\n      or\n      swap1\n      sstore\n      pop\n        /* \"contracts/Vote/VoterContract.sol\":6557:6785  if(vote==NoYes.No){\r... */\n      jump(tag_125)\n    tag_122:\n        /* \"contracts/Vote/VoterContract.sol\":6728:6730  10 */\n      0x0a\n        /* \"contracts/Vote/VoterContract.sol\":6696:6705  votePower */\n      0x03\n        /* \"contracts/Vote/VoterContract.sol\":6696:6713  votePower[voteId] */\n      0x00\n        /* \"contracts/Vote/VoterContract.sol\":6706:6712  voteId */\n      0x01\n      0x14\n      swap1\n      sload\n      swap1\n      0x0100\n      exp\n      swap1\n      div\n      0xffff\n      and\n        /* \"contracts/Vote/VoterContract.sol\":6696:6713  votePower[voteId] */\n      0xffff\n      and\n      0xffff\n      and\n      dup2\n      mstore\n      0x20\n      add\n      swap1\n      dup2\n      mstore\n      0x20\n      add\n      0x00\n      keccak256\n        /* \"contracts/Vote/VoterContract.sol\":6696:6725  votePower[voteId][msg.sender] */\n      0x00\n        /* \"contracts/Vote/VoterContract.sol\":6714:6724  msg.sender */\n      caller\n        /* \"contracts/Vote/VoterContract.sol\":6696:6725  votePower[voteId][msg.sender] */\n      0xffffffffffffffffffffffffffffffffffffffff\n      and\n      0xffffffffffffffffffffffffffffffffffffffff\n      and\n      dup2\n      mstore\n      0x20\n      add\n      swap1\n      dup2\n      mstore\n      0x20\n      add\n      0x00\n      keccak256\n      0x00\n        /* \"contracts/Vote/VoterContract.sol\":6696:6730  votePower[voteId][msg.sender] = 10 */\n      0x0100\n      exp\n      dup2\n      sload\n      dup2\n      0xff\n      mul\n      not\n      and\n      swap1\n      dup4\n      0xff\n      and\n      mul\n      or\n      swap1\n      sstore\n      pop\n        /* \"contracts/Vote/VoterContract.sol\":6771:6773  10 */\n      0x0a\n        /* \"contracts/Vote/VoterContract.sol\":6745:6752  votings */\n      0x04\n        /* \"contracts/Vote/VoterContract.sol\":6745:6760  votings[voteId] */\n      0x00\n        /* \"contracts/Vote/VoterContract.sol\":6753:6759  voteId */\n      0x01\n      0x14\n      swap1\n      sload\n      swap1\n      0x0100\n      exp\n      swap1\n      div\n      0xffff\n      and\n        /* \"contracts/Vote/VoterContract.sol\":6745:6760  votings[voteId] */\n      0xffff\n      and\n      0xffff\n      and\n      dup2\n      mstore\n      0x20\n      add\n      swap1\n      dup2\n      mstore\n      0x20\n      add\n      0x00\n      keccak256\n        /* \"contracts/Vote/VoterContract.sol\":6745:6767  votings[voteId].result */\n      0x02\n      add\n      0x04\n        /* \"contracts/Vote/VoterContract.sol\":6745:6773  votings[voteId].result += 10 */\n      dup3\n      dup3\n      dup3\n      swap1\n      sload\n      swap1\n      0x0100\n      exp\n      swap1\n      div\n      0xffffffff\n      and\n      tag_126\n      swap2\n      swap1\n      tag_124\n      jump\t// in\n    tag_126:\n      swap3\n      pop\n      0x0100\n      exp\n      dup2\n      sload\n      dup2\n      0xffffffff\n      mul\n      not\n      and\n      swap1\n      dup4\n      0xffffffff\n      and\n      mul\n      or\n      swap1\n      sstore\n      pop\n        /* \"contracts/Vote/VoterContract.sol\":6557:6785  if(vote==NoYes.No){\r... */\n    tag_125:\n        /* \"contracts/Vote/VoterContract.sol\":6822:6823  1 */\n      0x01\n        /* \"contracts/Vote/VoterContract.sol\":6797:6804  votings */\n      0x04\n        /* \"contracts/Vote/VoterContract.sol\":6797:6812  votings[voteId] */\n      0x00\n        /* \"contracts/Vote/VoterContract.sol\":6805:6811  voteId */\n      0x01\n      0x14\n      swap1\n      sload\n      swap1\n      0x0100\n      exp\n      swap1\n      div\n      0xffff\n      and\n        /* \"contracts/Vote/VoterContract.sol\":6797:6812  votings[voteId] */\n      0xffff\n      and\n      0xffff\n      and\n      dup2\n      mstore\n      0x20\n      add\n      swap1\n      dup2\n      mstore\n      0x20\n      add\n      0x00\n      keccak256\n        /* \"contracts/Vote/VoterContract.sol\":6797:6818  votings[voteId].voted */\n      0x02\n      add\n      0x00\n        /* \"contracts/Vote/VoterContract.sol\":6797:6823  votings[voteId].voted += 1 */\n      dup3\n      dup3\n      dup3\n      swap1\n      sload\n      swap1\n      0x0100\n      exp\n      swap1\n      div\n      0xffffffff\n      and\n      tag_127\n      swap2\n      swap1\n      tag_124\n      jump\t// in\n    tag_127:\n      swap3\n      pop\n      0x0100\n      exp\n      dup2\n      sload\n      dup2\n      0xffffffff\n      mul\n      not\n      and\n      swap1\n      dup4\n      0xffffffff\n      and\n      mul\n      or\n      swap1\n      sstore\n      pop\n        /* \"contracts/Vote/VoterContract.sol\":6344:6831  function useVotePowerProposal(NoYes vote) external isVotingStarted onlyNotVotedVoters{\r... */\n      pop\n      jump\t// out\n        /* \"contracts/Vote/VoterContract.sol\":6839:7853  function getLastVotings(uint8 limit) external view returns(Voting[] memory){\r... */\n    tag_36:\n        /* \"contracts/Vote/VoterContract.sol\":6898:6913  Voting[] memory */\n      0x60\n        /* \"contracts/Vote/VoterContract.sol\":6925:6949  Voting[] memory _votings */\n      0x00\n        /* \"contracts/Vote/VoterContract.sol\":6965:6970  limit */\n      dup3\n        /* \"contracts/Vote/VoterContract.sol\":6952:6971  new Voting[](limit) */\n      0xff\n      and\n      0xffffffffffffffff\n      dup2\n      gt\n      iszero\n      tag_129\n      jumpi\n      tag_130\n      tag_131\n      jump\t// in\n    tag_130:\n    tag_129:\n      mload(0x40)\n      swap1\n      dup1\n      dup3\n      mstore\n      dup1\n      0x20\n      mul\n      0x20\n      add\n      dup3\n      add\n      0x40\n      mstore\n      dup1\n      iszero\n      tag_132\n      jumpi\n      dup2\n      0x20\n      add\n    tag_133:\n      tag_134\n      tag_135\n      jump\t// in\n    tag_134:\n      dup2\n      mstore\n      0x20\n      add\n      swap1\n      0x01\n      swap1\n      sub\n      swap1\n      dup2\n      tag_133\n      jumpi\n      swap1\n      pop\n    tag_132:\n      pop\n        /* \"contracts/Vote/VoterContract.sol\":6925:6971  Voting[] memory _votings = new Voting[](limit) */\n      swap1\n      pop\n        /* \"contracts/Vote/VoterContract.sol\":6982:6991  uint16 vi */\n      0x00\n        /* \"contracts/Vote/VoterContract.sol\":6994:7000  voteId */\n      0x01\n      0x14\n      swap1\n      sload\n      swap1\n      0x0100\n      exp\n      swap1\n      div\n      0xffff\n      and\n        /* \"contracts/Vote/VoterContract.sol\":6982:7000  uint16 vi = voteId */\n      swap1\n      pop\n        /* \"contracts/Vote/VoterContract.sol\":7034:7035  1 */\n      0x01\n        /* \"contracts/Vote/VoterContract.sol\":7028:7033  limit */\n      dup5\n        /* \"contracts/Vote/VoterContract.sol\":7028:7035  limit-1 */\n      tag_136\n      swap2\n      swap1\n      tag_137\n      jump\t// in\n    tag_136:\n        /* \"contracts/Vote/VoterContract.sol\":7024:7036  vi>(limit-1) */\n      0xff\n      and\n        /* \"contracts/Vote/VoterContract.sol\":7024:7026  vi */\n      dup2\n        /* \"contracts/Vote/VoterContract.sol\":7024:7036  vi>(limit-1) */\n      0xffff\n      and\n      gt\n        /* \"contracts/Vote/VoterContract.sol\":7021:7820  if(vi>(limit-1)){\r... */\n      iszero\n      tag_138\n      jumpi\n        /* \"contracts/Vote/VoterContract.sol\":7087:7088  0 */\n      0x00\n        /* \"contracts/Vote/VoterContract.sol\":7061:7068  votings */\n      0x04\n        /* \"contracts/Vote/VoterContract.sol\":7061:7072  votings[vi] */\n      0x00\n        /* \"contracts/Vote/VoterContract.sol\":7069:7071  vi */\n      dup4\n        /* \"contracts/Vote/VoterContract.sol\":7061:7072  votings[vi] */\n      0xffff\n      and\n      0xffff\n      and\n      dup2\n      mstore\n      0x20\n      add\n      swap1\n      dup2\n      mstore\n      0x20\n      add\n      0x00\n      keccak256\n        /* \"contracts/Vote/VoterContract.sol\":7061:7078  votings[vi].topic */\n      0x01\n      add\n        /* \"contracts/Vote/VoterContract.sol\":7055:7086  bytes(votings[vi].topic).length */\n      dup1\n      sload\n      tag_139\n      swap1\n      tag_140\n      jump\t// in\n    tag_139:\n      swap1\n      pop\n        /* \"contracts/Vote/VoterContract.sol\":7055:7088  bytes(votings[vi].topic).length>0 */\n      gt\n        /* \"contracts/Vote/VoterContract.sol\":7052:7407  if(bytes(votings[vi].topic).length>0){\r... */\n      iszero\n      tag_141\n      jumpi\n        /* \"contracts/Vote/VoterContract.sol\":7113:7120  uint8 i */\n      0x00\n        /* \"contracts/Vote/VoterContract.sol\":7108:7230  for (uint8 i = 0; i < limit; i++) \r... */\n    tag_142:\n        /* \"contracts/Vote/VoterContract.sol\":7130:7135  limit */\n      dup5\n        /* \"contracts/Vote/VoterContract.sol\":7126:7135  i < limit */\n      0xff\n      and\n        /* \"contracts/Vote/VoterContract.sol\":7126:7127  i */\n      dup2\n        /* \"contracts/Vote/VoterContract.sol\":7126:7135  i < limit */\n      0xff\n      and\n      lt\n        /* \"contracts/Vote/VoterContract.sol\":7108:7230  for (uint8 i = 0; i < limit; i++) \r... */\n      iszero\n      tag_143\n      jumpi\n        /* \"contracts/Vote/VoterContract.sol\":7197:7204  votings */\n      0x04\n        /* \"contracts/Vote/VoterContract.sol\":7197:7210  votings[vi-i] */\n      0x00\n        /* \"contracts/Vote/VoterContract.sol\":7208:7209  i */\n      dup3\n        /* \"contracts/Vote/VoterContract.sol\":7205:7209  vi-i */\n      0xff\n      and\n        /* \"contracts/Vote/VoterContract.sol\":7205:7207  vi */\n      dup5\n        /* \"contracts/Vote/VoterContract.sol\":7205:7209  vi-i */\n      tag_145\n      swap2\n      swap1\n      tag_146\n      jump\t// in\n    tag_145:\n        /* \"contracts/Vote/VoterContract.sol\":7197:7210  votings[vi-i] */\n      0xffff\n      and\n      0xffff\n      and\n      dup2\n      mstore\n      0x20\n      add\n      swap1\n      dup2\n      mstore\n      0x20\n      add\n      0x00\n      keccak256\n        /* \"contracts/Vote/VoterContract.sol\":7183:7210  _votings[i] = votings[vi-i] */\n      mload(0x40)\n      dup1\n      0x0120\n      add\n      0x40\n      mstore\n      swap1\n      dup2\n      0x00\n      dup3\n      add\n      0x00\n      swap1\n      sload\n      swap1\n      0x0100\n      exp\n      swap1\n      div\n      0xffff\n      and\n      0xffff\n      and\n      0xffff\n      and\n      dup2\n      mstore\n      0x20\n      add\n      0x01\n      dup3\n      add\n      dup1\n      sload\n      tag_147\n      swap1\n      tag_140\n      jump\t// in\n    tag_147:\n      dup1\n      0x1f\n      add\n      0x20\n      dup1\n      swap2\n      div\n      mul\n      0x20\n      add\n      mload(0x40)\n      swap1\n      dup2\n      add\n      0x40\n      mstore\n      dup1\n      swap3\n      swap2\n      swap1\n      dup2\n      dup2\n      mstore\n      0x20\n      add\n      dup3\n      dup1\n      sload\n      tag_148\n      swap1\n      tag_140\n      jump\t// in\n    tag_148:\n      dup1\n      iszero\n      tag_149\n      jumpi\n      dup1\n      0x1f\n      lt\n      tag_150\n      jumpi\n      0x0100\n      dup1\n      dup4\n      sload\n      div\n      mul\n      dup4\n      mstore\n      swap2\n      0x20\n      add\n      swap2\n      jump(tag_149)\n    tag_150:\n      dup3\n      add\n      swap2\n      swap1\n      0x00\n      mstore\n      keccak256(0x00, 0x20)\n      swap1\n    tag_151:\n      dup2\n      sload\n      dup2\n      mstore\n      swap1\n      0x01\n      add\n      swap1\n      0x20\n      add\n      dup1\n      dup4\n      gt\n      tag_151\n      jumpi\n      dup3\n      swap1\n      sub\n      0x1f\n      and\n      dup3\n      add\n      swap2\n    tag_149:\n      pop\n      pop\n      pop\n      pop\n      pop\n      dup2\n      mstore\n      0x20\n      add\n      0x02\n      dup3\n      add\n      0x00\n      swap1\n      sload\n      swap1\n      0x0100\n      exp\n      swap1\n      div\n      0xffffffff\n      and\n      0xffffffff\n      and\n      0xffffffff\n      and\n      dup2\n      mstore\n      0x20\n      add\n      0x02\n      dup3\n      add\n      0x04\n      swap1\n      sload\n      swap1\n      0x0100\n      exp\n      swap1\n      div\n      0xffffffff\n      and\n      0xffffffff\n      and\n      0xffffffff\n      and\n      dup2\n      mstore\n      0x20\n      add\n      0x02\n      dup3\n      add\n      0x08\n      swap1\n      sload\n      swap1\n      0x0100\n      exp\n      swap1\n      div\n      0xffffffffffffffffffffffffffffffffffffffff\n      and\n      0xffffffffffffffffffffffffffffffffffffffff\n      and\n      0xffffffffffffffffffffffffffffffffffffffff\n      and\n      dup2\n      mstore\n      0x20\n      add\n      0x03\n      dup3\n      add\n      sload\n      dup2\n      mstore\n      0x20\n      add\n      0x04\n      dup3\n      add\n      sload\n      dup2\n      mstore\n      0x20\n      add\n      0x05\n      dup3\n      add\n      sload\n      dup2\n      mstore\n      0x20\n      add\n      0x06\n      dup3\n      add\n      0x00\n      swap1\n      sload\n      swap1\n      0x0100\n      exp\n      swap1\n      div\n      0xff\n      and\n      0x03\n      dup2\n      gt\n      iszero\n      tag_152\n      jumpi\n      tag_153\n      tag_97\n      jump\t// in\n    tag_153:\n    tag_152:\n      0x03\n      dup2\n      gt\n      iszero\n      tag_154\n      jumpi\n      tag_155\n      tag_97\n      jump\t// in\n    tag_155:\n    tag_154:\n      dup2\n      mstore\n      pop\n      pop\n        /* \"contracts/Vote/VoterContract.sol\":7183:7191  _votings */\n      dup4\n        /* \"contracts/Vote/VoterContract.sol\":7192:7193  i */\n      dup3\n        /* \"contracts/Vote/VoterContract.sol\":7183:7194  _votings[i] */\n      0xff\n      and\n      dup2\n      mload\n      dup2\n      lt\n      tag_156\n      jumpi\n      tag_157\n      tag_158\n      jump\t// in\n    tag_157:\n    tag_156:\n      0x20\n      mul\n      0x20\n      add\n      add\n        /* \"contracts/Vote/VoterContract.sol\":7183:7210  _votings[i] = votings[vi-i] */\n      dup2\n      swap1\n      mstore\n      pop\n        /* \"contracts/Vote/VoterContract.sol\":7137:7140  i++ */\n      dup1\n      dup1\n      tag_159\n      swap1\n      tag_160\n      jump\t// in\n    tag_159:\n      swap2\n      pop\n      pop\n        /* \"contracts/Vote/VoterContract.sol\":7108:7230  for (uint8 i = 0; i < limit; i++) \r... */\n      jump(tag_142)\n    tag_143:\n      pop\n        /* \"contracts/Vote/VoterContract.sol\":7052:7407  if(bytes(votings[vi].topic).length>0){\r... */\n      jump(tag_161)\n    tag_141:\n        /* \"contracts/Vote/VoterContract.sol\":7273:7280  uint8 i */\n      0x00\n        /* \"contracts/Vote/VoterContract.sol\":7283:7284  1 */\n      0x01\n        /* \"contracts/Vote/VoterContract.sol\":7273:7284  uint8 i = 1 */\n      swap1\n      pop\n        /* \"contracts/Vote/VoterContract.sol\":7268:7392  for (uint8 i = 1; i < limit; i++) \r... */\n    tag_162:\n        /* \"contracts/Vote/VoterContract.sol\":7290:7295  limit */\n      dup5\n        /* \"contracts/Vote/VoterContract.sol\":7286:7295  i < limit */\n      0xff\n      and\n        /* \"contracts/Vote/VoterContract.sol\":7286:7287  i */\n      dup2\n        /* \"contracts/Vote/VoterContract.sol\":7286:7295  i < limit */\n      0xff\n      and\n      lt\n        /* \"contracts/Vote/VoterContract.sol\":7268:7392  for (uint8 i = 1; i < limit; i++) \r... */\n      iszero\n      tag_163\n      jumpi\n        /* \"contracts/Vote/VoterContract.sol\":7359:7366  votings */\n      0x04\n        /* \"contracts/Vote/VoterContract.sol\":7359:7372  votings[vi-i] */\n      0x00\n        /* \"contracts/Vote/VoterContract.sol\":7370:7371  i */\n      dup3\n        /* \"contracts/Vote/VoterContract.sol\":7367:7371  vi-i */\n      0xff\n      and\n        /* \"contracts/Vote/VoterContract.sol\":7367:7369  vi */\n      dup5\n        /* \"contracts/Vote/VoterContract.sol\":7367:7371  vi-i */\n      tag_165\n      swap2\n      swap1\n      tag_146\n      jump\t// in\n    tag_165:\n        /* \"contracts/Vote/VoterContract.sol\":7359:7372  votings[vi-i] */\n      0xffff\n      and\n      0xffff\n      and\n      dup2\n      mstore\n      0x20\n      add\n      swap1\n      dup2\n      mstore\n      0x20\n      add\n      0x00\n      keccak256\n        /* \"contracts/Vote/VoterContract.sol\":7343:7372  _votings[i-1] = votings[vi-i] */\n      mload(0x40)\n      dup1\n      0x0120\n      add\n      0x40\n      mstore\n      swap1\n      dup2\n      0x00\n      dup3\n      add\n      0x00\n      swap1\n      sload\n      swap1\n      0x0100\n      exp\n      swap1\n      div\n      0xffff\n      and\n      0xffff\n      and\n      0xffff\n      and\n      dup2\n      mstore\n      0x20\n      add\n      0x01\n      dup3\n      add\n      dup1\n      sload\n      tag_166\n      swap1\n      tag_140\n      jump\t// in\n    tag_166:\n      dup1\n      0x1f\n      add\n      0x20\n      dup1\n      swap2\n      div\n      mul\n      0x20\n      add\n      mload(0x40)\n      swap1\n      dup2\n      add\n      0x40\n      mstore\n      dup1\n      swap3\n      swap2\n      swap1\n      dup2\n      dup2\n      mstore\n      0x20\n      add\n      dup3\n      dup1\n      sload\n      tag_167\n      swap1\n      tag_140\n      jump\t// in\n    tag_167:\n      dup1\n      iszero\n      tag_168\n      jumpi\n      dup1\n      0x1f\n      lt\n      tag_169\n      jumpi\n      0x0100\n      dup1\n      dup4\n      sload\n      div\n      mul\n      dup4\n      mstore\n      swap2\n      0x20\n      add\n      swap2\n      jump(tag_168)\n    tag_169:\n      dup3\n      add\n      swap2\n      swap1\n      0x00\n      mstore\n      keccak256(0x00, 0x20)\n      swap1\n    tag_170:\n      dup2\n      sload\n      dup2\n      mstore\n      swap1\n      0x01\n      add\n      swap1\n      0x20\n      add\n      dup1\n      dup4\n      gt\n      tag_170\n      jumpi\n      dup3\n      swap1\n      sub\n      0x1f\n      and\n      dup3\n      add\n      swap2\n    tag_168:\n      pop\n      pop\n      pop\n      pop\n      pop\n      dup2\n      mstore\n      0x20\n      add\n      0x02\n      dup3\n      add\n      0x00\n      swap1\n      sload\n      swap1\n      0x0100\n      exp\n      swap1\n      div\n      0xffffffff\n      and\n      0xffffffff\n      and\n      0xffffffff\n      and\n      dup2\n      mstore\n      0x20\n      add\n      0x02\n      dup3\n      add\n      0x04\n      swap1\n      sload\n      swap1\n      0x0100\n      exp\n      swap1\n      div\n      0xffffffff\n      and\n      0xffffffff\n      and\n      0xffffffff\n      and\n      dup2\n      mstore\n      0x20\n      add\n      0x02\n      dup3\n      add\n      0x08\n      swap1\n      sload\n      swap1\n      0x0100\n      exp\n      swap1\n      div\n      0xffffffffffffffffffffffffffffffffffffffff\n      and\n      0xffffffffffffffffffffffffffffffffffffffff\n      and\n      0xffffffffffffffffffffffffffffffffffffffff\n      and\n      dup2\n      mstore\n      0x20\n      add\n      0x03\n      dup3\n      add\n      sload\n      dup2\n      mstore\n      0x20\n      add\n      0x04\n      dup3\n      add\n      sload\n      dup2\n      mstore\n      0x20\n      add\n      0x05\n      dup3\n      add\n      sload\n      dup2\n      mstore\n      0x20\n      add\n      0x06\n      dup3\n      add\n      0x00\n      swap1\n      sload\n      swap1\n      0x0100\n      exp\n      swap1\n      div\n      0xff\n      and\n      0x03\n      dup2\n      gt\n      iszero\n      tag_171\n      jumpi\n      tag_172\n      tag_97\n      jump\t// in\n    tag_172:\n    tag_171:\n      0x03\n      dup2\n      gt\n      iszero\n      tag_173\n      jumpi\n      tag_174\n      tag_97\n      jump\t// in\n    tag_174:\n    tag_173:\n      dup2\n      mstore\n      pop\n      pop\n        /* \"contracts/Vote/VoterContract.sol\":7343:7351  _votings */\n      dup4\n        /* \"contracts/Vote/VoterContract.sol\":7354:7355  1 */\n      0x01\n        /* \"contracts/Vote/VoterContract.sol\":7352:7353  i */\n      dup4\n        /* \"contracts/Vote/VoterContract.sol\":7352:7355  i-1 */\n      tag_175\n      swap2\n      swap1\n      tag_137\n      jump\t// in\n    tag_175:\n        /* \"contracts/Vote/VoterContract.sol\":7343:7356  _votings[i-1] */\n      0xff\n      and\n      dup2\n      mload\n      dup2\n      lt\n      tag_176\n      jumpi\n      tag_177\n      tag_158\n      jump\t// in\n    tag_177:\n    tag_176:\n      0x20\n      mul\n      0x20\n      add\n      add\n        /* \"contracts/Vote/VoterContract.sol\":7343:7372  _votings[i-1] = votings[vi-i] */\n      dup2\n      swap1\n      mstore\n      pop\n        /* \"contracts/Vote/VoterContract.sol\":7297:7300  i++ */\n      dup1\n      dup1\n      tag_178\n      swap1\n      tag_160\n      jump\t// in\n    tag_178:\n      swap2\n      pop\n      pop\n        /* \"contracts/Vote/VoterContract.sol\":7268:7392  for (uint8 i = 1; i < limit; i++) \r... */\n      jump(tag_162)\n    tag_163:\n      pop\n        /* \"contracts/Vote/VoterContract.sol\":7052:7407  if(bytes(votings[vi].topic).length>0){\r... */\n    tag_161:\n        /* \"contracts/Vote/VoterContract.sol\":7021:7820  if(vi>(limit-1)){\r... */\n      jump(tag_179)\n    tag_138:\n        /* \"contracts/Vote/VoterContract.sol\":7479:7480  0 */\n      0x00\n        /* \"contracts/Vote/VoterContract.sol\":7453:7460  votings */\n      0x04\n        /* \"contracts/Vote/VoterContract.sol\":7453:7464  votings[vi] */\n      0x00\n        /* \"contracts/Vote/VoterContract.sol\":7461:7463  vi */\n      dup4\n        /* \"contracts/Vote/VoterContract.sol\":7453:7464  votings[vi] */\n      0xffff\n      and\n      0xffff\n      and\n      dup2\n      mstore\n      0x20\n      add\n      swap1\n      dup2\n      mstore\n      0x20\n      add\n      0x00\n      keccak256\n        /* \"contracts/Vote/VoterContract.sol\":7453:7470  votings[vi].topic */\n      0x01\n      add\n        /* \"contracts/Vote/VoterContract.sol\":7447:7478  bytes(votings[vi].topic).length */\n      dup1\n      sload\n      tag_180\n      swap1\n      tag_140\n      jump\t// in\n    tag_180:\n      swap1\n      pop\n        /* \"contracts/Vote/VoterContract.sol\":7447:7480  bytes(votings[vi].topic).length>0 */\n      gt\n        /* \"contracts/Vote/VoterContract.sol\":7444:7795  if(bytes(votings[vi].topic).length>0){\r... */\n      iszero\n      tag_181\n      jumpi\n        /* \"contracts/Vote/VoterContract.sol\":7505:7512  uint8 i */\n      0x00\n        /* \"contracts/Vote/VoterContract.sol\":7500:7620  for (uint8 i = 0; i <= vi; i++) \r... */\n    tag_182:\n        /* \"contracts/Vote/VoterContract.sol\":7523:7525  vi */\n      dup2\n        /* \"contracts/Vote/VoterContract.sol\":7518:7525  i <= vi */\n      0xffff\n      and\n        /* \"contracts/Vote/VoterContract.sol\":7518:7519  i */\n      dup2\n        /* \"contracts/Vote/VoterContract.sol\":7518:7525  i <= vi */\n      0xff\n      and\n      gt\n        /* \"contracts/Vote/VoterContract.sol\":7500:7620  for (uint8 i = 0; i <= vi; i++) \r... */\n      tag_183\n      jumpi\n        /* \"contracts/Vote/VoterContract.sol\":7587:7594  votings */\n      0x04\n        /* \"contracts/Vote/VoterContract.sol\":7587:7600  votings[vi-i] */\n      0x00\n        /* \"contracts/Vote/VoterContract.sol\":7598:7599  i */\n      dup3\n        /* \"contracts/Vote/VoterContract.sol\":7595:7599  vi-i */\n      0xff\n      and\n        /* \"contracts/Vote/VoterContract.sol\":7595:7597  vi */\n      dup5\n        /* \"contracts/Vote/VoterContract.sol\":7595:7599  vi-i */\n      tag_185\n      swap2\n      swap1\n      tag_146\n      jump\t// in\n    tag_185:\n        /* \"contracts/Vote/VoterContract.sol\":7587:7600  votings[vi-i] */\n      0xffff\n      and\n      0xffff\n      and\n      dup2\n      mstore\n      0x20\n      add\n      swap1\n      dup2\n      mstore\n      0x20\n      add\n      0x00\n      keccak256\n        /* \"contracts/Vote/VoterContract.sol\":7573:7600  _votings[i] = votings[vi-i] */\n      mload(0x40)\n      dup1\n      0x0120\n      add\n      0x40\n      mstore\n      swap1\n      dup2\n      0x00\n      dup3\n      add\n      0x00\n      swap1\n      sload\n      swap1\n      0x0100\n      exp\n      swap1\n      div\n      0xffff\n      and\n      0xffff\n      and\n      0xffff\n      and\n      dup2\n      mstore\n      0x20\n      add\n      0x01\n      dup3\n      add\n      dup1\n      sload\n      tag_186\n      swap1\n      tag_140\n      jump\t// in\n    tag_186:\n      dup1\n      0x1f\n      add\n      0x20\n      dup1\n      swap2\n      div\n      mul\n      0x20\n      add\n      mload(0x40)\n      swap1\n      dup2\n      add\n      0x40\n      mstore\n      dup1\n      swap3\n      swap2\n      swap1\n      dup2\n      dup2\n      mstore\n      0x20\n      add\n      dup3\n      dup1\n      sload\n      tag_187\n      swap1\n      tag_140\n      jump\t// in\n    tag_187:\n      dup1\n      iszero\n      tag_188\n      jumpi\n      dup1\n      0x1f\n      lt\n      tag_189\n      jumpi\n      0x0100\n      dup1\n      dup4\n      sload\n      div\n      mul\n      dup4\n      mstore\n      swap2\n      0x20\n      add\n      swap2\n      jump(tag_188)\n    tag_189:\n      dup3\n      add\n      swap2\n      swap1\n      0x00\n      mstore\n      keccak256(0x00, 0x20)\n      swap1\n    tag_190:\n      dup2\n      sload\n      dup2\n      mstore\n      swap1\n      0x01\n      add\n      swap1\n      0x20\n      add\n      dup1\n      dup4\n      gt\n      tag_190\n      jumpi\n      dup3\n      swap1\n      sub\n      0x1f\n      and\n      dup3\n      add\n      swap2\n    tag_188:\n      pop\n      pop\n      pop\n      pop\n      pop\n      dup2\n      mstore\n      0x20\n      add\n      0x02\n      dup3\n      add\n      0x00\n      swap1\n      sload\n      swap1\n      0x0100\n      exp\n      swap1\n      div\n      0xffffffff\n      and\n      0xffffffff\n      and\n      0xffffffff\n      and\n      dup2\n      mstore\n      0x20\n      add\n      0x02\n      dup3\n      add\n      0x04\n      swap1\n      sload\n      swap1\n      0x0100\n      exp\n      swap1\n      div\n      0xffffffff\n      and\n      0xffffffff\n      and\n      0xffffffff\n      and\n      dup2\n      mstore\n      0x20\n      add\n      0x02\n      dup3\n      add\n      0x08\n      swap1\n      sload\n      swap1\n      0x0100\n      exp\n      swap1\n      div\n      0xffffffffffffffffffffffffffffffffffffffff\n      and\n      0xffffffffffffffffffffffffffffffffffffffff\n      and\n      0xffffffffffffffffffffffffffffffffffffffff\n      and\n      dup2\n      mstore\n      0x20\n      add\n      0x03\n      dup3\n      add\n      sload\n      dup2\n      mstore\n      0x20\n      add\n      0x04\n      dup3\n      add\n      sload\n      dup2\n      mstore\n      0x20\n      add\n      0x05\n      dup3\n      add\n      sload\n      dup2\n      mstore\n      0x20\n      add\n      0x06\n      dup3\n      add\n      0x00\n      swap1\n      sload\n      swap1\n      0x0100\n      exp\n      swap1\n      div\n      0xff\n      and\n      0x03\n      dup2\n      gt\n      iszero\n      tag_191\n      jumpi\n      tag_192\n      tag_97\n      jump\t// in\n    tag_192:\n    tag_191:\n      0x03\n      dup2\n      gt\n      iszero\n      tag_193\n      jumpi\n      tag_194\n      tag_97\n      jump\t// in\n    tag_194:\n    tag_193:\n      dup2\n      mstore\n      pop\n      pop\n        /* \"contracts/Vote/VoterContract.sol\":7573:7581  _votings */\n      dup4\n        /* \"contracts/Vote/VoterContract.sol\":7582:7583  i */\n      dup3\n        /* \"contracts/Vote/VoterContract.sol\":7573:7584  _votings[i] */\n      0xff\n      and\n      dup2\n      mload\n      dup2\n      lt\n      tag_195\n      jumpi\n      tag_196\n      tag_158\n      jump\t// in\n    tag_196:\n    tag_195:\n      0x20\n      mul\n      0x20\n      add\n      add\n        /* \"contracts/Vote/VoterContract.sol\":7573:7600  _votings[i] = votings[vi-i] */\n      dup2\n      swap1\n      mstore\n      pop\n        /* \"contracts/Vote/VoterContract.sol\":7527:7530  i++ */\n      dup1\n      dup1\n      tag_197\n      swap1\n      tag_160\n      jump\t// in\n    tag_197:\n      swap2\n      pop\n      pop\n        /* \"contracts/Vote/VoterContract.sol\":7500:7620  for (uint8 i = 0; i <= vi; i++) \r... */\n      jump(tag_182)\n    tag_183:\n      pop\n        /* \"contracts/Vote/VoterContract.sol\":7444:7795  if(bytes(votings[vi].topic).length>0){\r... */\n      jump(tag_198)\n    tag_181:\n        /* \"contracts/Vote/VoterContract.sol\":7663:7670  uint8 i */\n      0x00\n        /* \"contracts/Vote/VoterContract.sol\":7673:7674  1 */\n      0x01\n        /* \"contracts/Vote/VoterContract.sol\":7663:7674  uint8 i = 1 */\n      swap1\n      pop\n        /* \"contracts/Vote/VoterContract.sol\":7658:7780  for (uint8 i = 1; i <= vi; i++) \r... */\n    tag_199:\n        /* \"contracts/Vote/VoterContract.sol\":7681:7683  vi */\n      dup2\n        /* \"contracts/Vote/VoterContract.sol\":7676:7683  i <= vi */\n      0xffff\n      and\n        /* \"contracts/Vote/VoterContract.sol\":7676:7677  i */\n      dup2\n        /* \"contracts/Vote/VoterContract.sol\":7676:7683  i <= vi */\n      0xff\n      and\n      gt\n        /* \"contracts/Vote/VoterContract.sol\":7658:7780  for (uint8 i = 1; i <= vi; i++) \r... */\n      tag_200\n      jumpi\n        /* \"contracts/Vote/VoterContract.sol\":7747:7754  votings */\n      0x04\n        /* \"contracts/Vote/VoterContract.sol\":7747:7760  votings[vi-i] */\n      0x00\n        /* \"contracts/Vote/VoterContract.sol\":7758:7759  i */\n      dup3\n        /* \"contracts/Vote/VoterContract.sol\":7755:7759  vi-i */\n      0xff\n      and\n        /* \"contracts/Vote/VoterContract.sol\":7755:7757  vi */\n      dup5\n        /* \"contracts/Vote/VoterContract.sol\":7755:7759  vi-i */\n      tag_202\n      swap2\n      swap1\n      tag_146\n      jump\t// in\n    tag_202:\n        /* \"contracts/Vote/VoterContract.sol\":7747:7760  votings[vi-i] */\n      0xffff\n      and\n      0xffff\n      and\n      dup2\n      mstore\n      0x20\n      add\n      swap1\n      dup2\n      mstore\n      0x20\n      add\n      0x00\n      keccak256\n        /* \"contracts/Vote/VoterContract.sol\":7731:7760  _votings[i-1] = votings[vi-i] */\n      mload(0x40)\n      dup1\n      0x0120\n      add\n      0x40\n      mstore\n      swap1\n      dup2\n      0x00\n      dup3\n      add\n      0x00\n      swap1\n      sload\n      swap1\n      0x0100\n      exp\n      swap1\n      div\n      0xffff\n      and\n      0xffff\n      and\n      0xffff\n      and\n      dup2\n      mstore\n      0x20\n      add\n      0x01\n      dup3\n      add\n      dup1\n      sload\n      tag_203\n      swap1\n      tag_140\n      jump\t// in\n    tag_203:\n      dup1\n      0x1f\n      add\n      0x20\n      dup1\n      swap2\n      div\n      mul\n      0x20\n      add\n      mload(0x40)\n      swap1\n      dup2\n      add\n      0x40\n      mstore\n      dup1\n      swap3\n      swap2\n      swap1\n      dup2\n      dup2\n      mstore\n      0x20\n      add\n      dup3\n      dup1\n      sload\n      tag_204\n      swap1\n      tag_140\n      jump\t// in\n    tag_204:\n      dup1\n      iszero\n      tag_205\n      jumpi\n      dup1\n      0x1f\n      lt\n      tag_206\n      jumpi\n      0x0100\n      dup1\n      dup4\n      sload\n      div\n      mul\n      dup4\n      mstore\n      swap2\n      0x20\n      add\n      swap2\n      jump(tag_205)\n    tag_206:\n      dup3\n      add\n      swap2\n      swap1\n      0x00\n      mstore\n      keccak256(0x00, 0x20)\n      swap1\n    tag_207:\n      dup2\n      sload\n      dup2\n      mstore\n      swap1\n      0x01\n      add\n      swap1\n      0x20\n      add\n      dup1\n      dup4\n      gt\n      tag_207\n      jumpi\n      dup3\n      swap1\n      sub\n      0x1f\n      and\n      dup3\n      add\n      swap2\n    tag_205:\n      pop\n      pop\n      pop\n      pop\n      pop\n      dup2\n      mstore\n      0x20\n      add\n      0x02\n      dup3\n      add\n      0x00\n      swap1\n      sload\n      swap1\n      0x0100\n      exp\n      swap1\n      div\n      0xffffffff\n      and\n      0xffffffff\n      and\n      0xffffffff\n      and\n      dup2\n      mstore\n      0x20\n      add\n      0x02\n      dup3\n      add\n      0x04\n      swap1\n      sload\n      swap1\n      0x0100\n      exp\n      swap1\n      div\n      0xffffffff\n      and\n      0xffffffff\n      and\n      0xffffffff\n      and\n      dup2\n      mstore\n      0x20\n      add\n      0x02\n      dup3\n      add\n      0x08\n      swap1\n      sload\n      swap1\n      0x0100\n      exp\n      swap1\n      div\n      0xffffffffffffffffffffffffffffffffffffffff\n      and\n      0xffffffffffffffffffffffffffffffffffffffff\n      and\n      0xffffffffffffffffffffffffffffffffffffffff\n      and\n      dup2\n      mstore\n      0x20\n      add\n      0x03\n      dup3\n      add\n      sload\n      dup2\n      mstore\n      0x20\n      add\n      0x04\n      dup3\n      add\n      sload\n      dup2\n      mstore\n      0x20\n      add\n      0x05\n      dup3\n      add\n      sload\n      dup2\n      mstore\n      0x20\n      add\n      0x06\n      dup3\n      add\n      0x00\n      swap1\n      sload\n      swap1\n      0x0100\n      exp\n      swap1\n      div\n      0xff\n      and\n      0x03\n      dup2\n      gt\n      iszero\n      tag_208\n      jumpi\n      tag_209\n      tag_97\n      jump\t// in\n    tag_209:\n    tag_208:\n      0x03\n      dup2\n      gt\n      iszero\n      tag_210\n      jumpi\n      tag_211\n      tag_97\n      jump\t// in\n    tag_211:\n    tag_210:\n      dup2\n      mstore\n      pop\n      pop\n        /* \"contracts/Vote/VoterContract.sol\":7731:7739  _votings */\n      dup4\n        /* \"contracts/Vote/VoterContract.sol\":7742:7743  1 */\n      0x01\n        /* \"contracts/Vote/VoterContract.sol\":7740:7741  i */\n      dup4\n        /* \"contracts/Vote/VoterContract.sol\":7740:7743  i-1 */\n      tag_212\n      swap2\n      swap1\n      tag_137\n      jump\t// in\n    tag_212:\n        /* \"contracts/Vote/VoterContract.sol\":7731:7744  _votings[i-1] */\n      0xff\n      and\n      dup2\n      mload\n      dup2\n      lt\n      tag_213\n      jumpi\n      tag_214\n      tag_158\n      jump\t// in\n    tag_214:\n    tag_213:\n      0x20\n      mul\n      0x20\n      add\n      add\n        /* \"contracts/Vote/VoterContract.sol\":7731:7760  _votings[i-1] = votings[vi-i] */\n      dup2\n      swap1\n      mstore\n      pop\n        /* \"contracts/Vote/VoterContract.sol\":7685:7688  i++ */\n      dup1\n      dup1\n      tag_215\n      swap1\n      tag_160\n      jump\t// in\n    tag_215:\n      swap2\n      pop\n      pop\n        /* \"contracts/Vote/VoterContract.sol\":7658:7780  for (uint8 i = 1; i <= vi; i++) \r... */\n      jump(tag_199)\n    tag_200:\n      pop\n        /* \"contracts/Vote/VoterContract.sol\":7444:7795  if(bytes(votings[vi].topic).length>0){\r... */\n    tag_198:\n        /* \"contracts/Vote/VoterContract.sol\":7021:7820  if(vi>(limit-1)){\r... */\n    tag_179:\n        /* \"contracts/Vote/VoterContract.sol\":7837:7845  _votings */\n      dup2\n        /* \"contracts/Vote/VoterContract.sol\":7830:7845  return _votings */\n      swap3\n      pop\n      pop\n      pop\n        /* \"contracts/Vote/VoterContract.sol\":6839:7853  function getLastVotings(uint8 limit) external view returns(Voting[] memory){\r... */\n      swap2\n      swap1\n      pop\n      jump\t// out\n        /* \"contracts/Vote/VoterContract.sol\":162:186  address public keyHolder */\n    tag_40:\n      0x01\n      0x00\n      swap1\n      sload\n      swap1\n      0x0100\n      exp\n      swap1\n      div\n      0xffffffffffffffffffffffffffffffffffffffff\n      and\n      dup2\n      jump\t// out\n        /* \"contracts/Vote/VoterContract.sol\":3636:4871  function closeProposal() external onlyVoters(msg.sender){\r... */\n    tag_44:\n        /* \"contracts/Vote/VoterContract.sol\":3681:3691  msg.sender */\n      caller\n        /* \"contracts/Vote/VoterContract.sol\":1377:1387  __VOTERS__ */\n      0x02\n        /* \"contracts/Vote/VoterContract.sol\":1377:1392  __VOTERS__[adr] */\n      0x00\n        /* \"contracts/Vote/VoterContract.sol\":1388:1391  adr */\n      dup3\n        /* \"contracts/Vote/VoterContract.sol\":1377:1392  __VOTERS__[adr] */\n      0xffffffffffffffffffffffffffffffffffffffff\n      and\n      0xffffffffffffffffffffffffffffffffffffffff\n      and\n      dup2\n      mstore\n      0x20\n      add\n      swap1\n      dup2\n      mstore\n      0x20\n      add\n      0x00\n      keccak256\n      0x00\n      swap1\n      sload\n      swap1\n      0x0100\n      exp\n      swap1\n      div\n      0xff\n      and\n        /* \"contracts/Vote/VoterContract.sol\":1369:1416  require(__VOTERS__[adr],\"You are not a voterr\") */\n      tag_217\n      jumpi\n      mload(0x40)\n      0x08c379a000000000000000000000000000000000000000000000000000000000\n      dup2\n      mstore\n      0x04\n      add\n      tag_218\n      swap1\n      tag_219\n      jump\t// in\n    tag_218:\n      mload(0x40)\n      dup1\n      swap2\n      sub\n      swap1\n      revert\n    tag_217:\n        /* \"contracts/Vote/VoterContract.sol\":3739:3758  VotingType.Proposal */\n      0x03\n        /* \"contracts/Vote/VoterContract.sol\":3711:3758  votings[voteId].votingType==VotingType.Proposal */\n      dup1\n      dup2\n      gt\n      iszero\n      tag_221\n      jumpi\n      tag_222\n      tag_97\n      jump\t// in\n    tag_222:\n    tag_221:\n        /* \"contracts/Vote/VoterContract.sol\":3711:3718  votings */\n      0x04\n        /* \"contracts/Vote/VoterContract.sol\":3711:3726  votings[voteId] */\n      0x00\n        /* \"contracts/Vote/VoterContract.sol\":3719:3725  voteId */\n      0x01\n      0x14\n      swap1\n      sload\n      swap1\n      0x0100\n      exp\n      swap1\n      div\n      0xffff\n      and\n        /* \"contracts/Vote/VoterContract.sol\":3711:3726  votings[voteId] */\n      0xffff\n      and\n      0xffff\n      and\n      dup2\n      mstore\n      0x20\n      add\n      swap1\n      dup2\n      mstore\n      0x20\n      add\n      0x00\n      keccak256\n        /* \"contracts/Vote/VoterContract.sol\":3711:3737  votings[voteId].votingType */\n      0x06\n      add\n      0x00\n      swap1\n      sload\n      swap1\n      0x0100\n      exp\n      swap1\n      div\n      0xff\n      and\n        /* \"contracts/Vote/VoterContract.sol\":3711:3758  votings[voteId].votingType==VotingType.Proposal */\n      0x03\n      dup2\n      gt\n      iszero\n      tag_223\n      jumpi\n      tag_224\n      tag_97\n      jump\t// in\n    tag_224:\n    tag_223:\n      eq\n        /* \"contracts/Vote/VoterContract.sol\":3703:3806  require(votings[voteId].votingType==VotingType.Proposal,\"There is no voting or, it is not a proposal.\") */\n      tag_225\n      jumpi\n      mload(0x40)\n      0x08c379a000000000000000000000000000000000000000000000000000000000\n      dup2\n      mstore\n      0x04\n      add\n      tag_226\n      swap1\n      tag_227\n      jump\t// in\n    tag_226:\n      mload(0x40)\n      dup1\n      swap2\n      sub\n      swap1\n      revert\n    tag_225:\n        /* \"contracts/Vote/VoterContract.sol\":3839:3846  votings */\n      0x04\n        /* \"contracts/Vote/VoterContract.sol\":3839:3854  votings[voteId] */\n      0x00\n        /* \"contracts/Vote/VoterContract.sol\":3847:3853  voteId */\n      0x01\n      0x14\n      swap1\n      sload\n      swap1\n      0x0100\n      exp\n      swap1\n      div\n      0xffff\n      and\n        /* \"contracts/Vote/VoterContract.sol\":3839:3854  votings[voteId] */\n      0xffff\n      and\n      0xffff\n      and\n      dup2\n      mstore\n      0x20\n      add\n      swap1\n      dup2\n      mstore\n      0x20\n      add\n      0x00\n      keccak256\n        /* \"contracts/Vote/VoterContract.sol\":3839:3882  votings[voteId].blockNumberWillNotEndBefore */\n      0x04\n      add\n      sload\n        /* \"contracts/Vote/VoterContract.sol\":3825:3837  block.number */\n      number\n        /* \"contracts/Vote/VoterContract.sol\":3825:3882  block.number>=votings[voteId].blockNumberWillNotEndBefore */\n      lt\n      iszero\n        /* \"contracts/Vote/VoterContract.sol\":3817:3943  require(block.number>=votings[voteId].blockNumberWillNotEndBefore,\"Even owner cannot end voting before it has designated to.\") */\n      tag_228\n      jumpi\n      mload(0x40)\n      0x08c379a000000000000000000000000000000000000000000000000000000000\n      dup2\n      mstore\n      0x04\n      add\n      tag_229\n      swap1\n      tag_230\n      jump\t// in\n    tag_229:\n      mload(0x40)\n      dup1\n      swap2\n      sub\n      swap1\n      revert\n    tag_228:\n        /* \"contracts/Vote/VoterContract.sol\":3985:4002  VotingType.Closed */\n      0x00\n        /* \"contracts/Vote/VoterContract.sol\":3956:3963  votings */\n      0x04\n        /* \"contracts/Vote/VoterContract.sol\":3956:3971  votings[voteId] */\n      0x00\n        /* \"contracts/Vote/VoterContract.sol\":3964:3970  voteId */\n      0x01\n      0x14\n      swap1\n      sload\n      swap1\n      0x0100\n      exp\n      swap1\n      div\n      0xffff\n      and\n        /* \"contracts/Vote/VoterContract.sol\":3956:3971  votings[voteId] */\n      0xffff\n      and\n      0xffff\n      and\n      dup2\n      mstore\n      0x20\n      add\n      swap1\n      dup2\n      mstore\n      0x20\n      add\n      0x00\n      keccak256\n        /* \"contracts/Vote/VoterContract.sol\":3956:3982  votings[voteId].votingType */\n      0x06\n      add\n      0x00\n        /* \"contracts/Vote/VoterContract.sol\":3956:4002  votings[voteId].votingType = VotingType.Closed */\n      0x0100\n      exp\n      dup2\n      sload\n      dup2\n      0xff\n      mul\n      not\n      and\n      swap1\n      dup4\n      0x03\n      dup2\n      gt\n      iszero\n      tag_231\n      jumpi\n      tag_232\n      tag_97\n      jump\t// in\n    tag_232:\n    tag_231:\n      mul\n      or\n      swap1\n      sstore\n      pop\n        /* \"contracts/Vote/VoterContract.sol\":4047:4059  block.number */\n      number\n        /* \"contracts/Vote/VoterContract.sol\":4013:4020  votings */\n      0x04\n        /* \"contracts/Vote/VoterContract.sol\":4013:4028  votings[voteId] */\n      0x00\n        /* \"contracts/Vote/VoterContract.sol\":4021:4027  voteId */\n      0x01\n      0x14\n      swap1\n      sload\n      swap1\n      0x0100\n      exp\n      swap1\n      div\n      0xffff\n      and\n        /* \"contracts/Vote/VoterContract.sol\":4013:4028  votings[voteId] */\n      0xffff\n      and\n      0xffff\n      and\n      dup2\n      mstore\n      0x20\n      add\n      swap1\n      dup2\n      mstore\n      0x20\n      add\n      0x00\n      keccak256\n        /* \"contracts/Vote/VoterContract.sol\":4013:4046  votings[voteId].blockNumberClosed */\n      0x05\n      add\n        /* \"contracts/Vote/VoterContract.sol\":4013:4059  votings[voteId].blockNumberClosed=block.number */\n      dup2\n      swap1\n      sstore\n      pop\n        /* \"contracts/Vote/VoterContract.sol\":4089:4095  voteId */\n      0x01\n      0x14\n      swap1\n      sload\n      swap1\n      0x0100\n      exp\n      swap1\n      div\n      0xffff\n      and\n        /* \"contracts/Vote/VoterContract.sol\":4077:4143  VotingEnded(voteId, votings[voteId].voted, votings[voteId].result) */\n      0xffff\n      and\n      0x021f11808c72d44e34f2cfc1d94ef62ff26b8eb58bdd2db3cee65cc447fd3b79\n        /* \"contracts/Vote/VoterContract.sol\":4097:4104  votings */\n      0x04\n        /* \"contracts/Vote/VoterContract.sol\":4097:4112  votings[voteId] */\n      0x00\n        /* \"contracts/Vote/VoterContract.sol\":4105:4111  voteId */\n      0x01\n      0x14\n      swap1\n      sload\n      swap1\n      0x0100\n      exp\n      swap1\n      div\n      0xffff\n      and\n        /* \"contracts/Vote/VoterContract.sol\":4097:4112  votings[voteId] */\n      0xffff\n      and\n      0xffff\n      and\n      dup2\n      mstore\n      0x20\n      add\n      swap1\n      dup2\n      mstore\n      0x20\n      add\n      0x00\n      keccak256\n        /* \"contracts/Vote/VoterContract.sol\":4097:4118  votings[voteId].voted */\n      0x02\n      add\n      0x00\n      swap1\n      sload\n      swap1\n      0x0100\n      exp\n      swap1\n      div\n      0xffffffff\n      and\n        /* \"contracts/Vote/VoterContract.sol\":4120:4127  votings */\n      0x04\n        /* \"contracts/Vote/VoterContract.sol\":4120:4135  votings[voteId] */\n      0x00\n        /* \"contracts/Vote/VoterContract.sol\":4128:4134  voteId */\n      0x01\n      0x14\n      swap1\n      sload\n      swap1\n      0x0100\n      exp\n      swap1\n      div\n      0xffff\n      and\n        /* \"contracts/Vote/VoterContract.sol\":4120:4135  votings[voteId] */\n      0xffff\n      and\n      0xffff\n      and\n      dup2\n      mstore\n      0x20\n      add\n      swap1\n      dup2\n      mstore\n      0x20\n      add\n      0x00\n      keccak256\n        /* \"contracts/Vote/VoterContract.sol\":4120:4142  votings[voteId].result */\n      0x02\n      add\n      0x04\n      swap1\n      sload\n      swap1\n      0x0100\n      exp\n      swap1\n      div\n      0xffffffff\n      and\n        /* \"contracts/Vote/VoterContract.sol\":4077:4143  VotingEnded(voteId, votings[voteId].voted, votings[voteId].result) */\n      mload(0x40)\n      tag_233\n      swap3\n      swap2\n      swap1\n      tag_234\n      jump\t// in\n    tag_233:\n      mload(0x40)\n      dup1\n      swap2\n      sub\n      swap1\n      log2\n        /* \"contracts/Vote/VoterContract.sol\":4166:4167  1 */\n      0x01\n        /* \"contracts/Vote/VoterContract.sol\":4156:4162  voteId */\n      dup1\n      0x14\n        /* \"contracts/Vote/VoterContract.sol\":4156:4167  voteId += 1 */\n      dup3\n      dup3\n      dup3\n      swap1\n      sload\n      swap1\n      0x0100\n      exp\n      swap1\n      div\n      0xffff\n      and\n      tag_235\n      swap2\n      swap1\n      tag_236\n      jump\t// in\n    tag_235:\n      swap3\n      pop\n      0x0100\n      exp\n      dup2\n      sload\n      dup2\n      0xffff\n      mul\n      not\n      and\n      swap1\n      dup4\n      0xffff\n      and\n      mul\n      or\n      swap1\n      sstore\n      pop\n        /* \"contracts/Vote/VoterContract.sol\":4211:4226  totalVoterCount */\n      0x05\n      0x00\n      swap1\n      sload\n      swap1\n      0x0100\n      exp\n      swap1\n      div\n      0xffff\n      and\n        /* \"contracts/Vote/VoterContract.sol\":4183:4226  votings[voteId-1].result*2>=totalVoterCount */\n      0xffff\n      and\n        /* \"contracts/Vote/VoterContract.sol\":4208:4209  2 */\n      0x02\n        /* \"contracts/Vote/VoterContract.sol\":4183:4190  votings */\n      0x04\n        /* \"contracts/Vote/VoterContract.sol\":4183:4200  votings[voteId-1] */\n      0x00\n        /* \"contracts/Vote/VoterContract.sol\":4198:4199  1 */\n      0x01\n        /* \"contracts/Vote/VoterContract.sol\":4191:4197  voteId */\n      dup1\n      0x14\n      swap1\n      sload\n      swap1\n      0x0100\n      exp\n      swap1\n      div\n      0xffff\n      and\n        /* \"contracts/Vote/VoterContract.sol\":4191:4199  voteId-1 */\n      tag_237\n      swap2\n      swap1\n      tag_146\n      jump\t// in\n    tag_237:\n        /* \"contracts/Vote/VoterContract.sol\":4183:4200  votings[voteId-1] */\n      0xffff\n      and\n      0xffff\n      and\n      dup2\n      mstore\n      0x20\n      add\n      swap1\n      dup2\n      mstore\n      0x20\n      add\n      0x00\n      keccak256\n        /* \"contracts/Vote/VoterContract.sol\":4183:4207  votings[voteId-1].result */\n      0x02\n      add\n      0x04\n      swap1\n      sload\n      swap1\n      0x0100\n      exp\n      swap1\n      div\n      0xffffffff\n      and\n        /* \"contracts/Vote/VoterContract.sol\":4183:4209  votings[voteId-1].result*2 */\n      tag_238\n      swap2\n      swap1\n      tag_239\n      jump\t// in\n    tag_238:\n        /* \"contracts/Vote/VoterContract.sol\":4183:4226  votings[voteId-1].result*2>=totalVoterCount */\n      0xffffffff\n      and\n      lt\n        /* \"contracts/Vote/VoterContract.sol\":4180:4864  if(votings[voteId-1].result*2>=totalVoterCount){\r... */\n      tag_240\n      jumpi\n        /* \"contracts/Vote/VoterContract.sol\":4263:4269  voteId */\n      0x01\n      0x14\n      swap1\n      sload\n      swap1\n      0x0100\n      exp\n      swap1\n      div\n      0xffff\n      and\n        /* \"contracts/Vote/VoterContract.sol\":4242:4249  votings */\n      0x04\n        /* \"contracts/Vote/VoterContract.sol\":4242:4257  votings[voteId] */\n      0x00\n        /* \"contracts/Vote/VoterContract.sol\":4250:4256  voteId */\n      0x01\n      0x14\n      swap1\n      sload\n      swap1\n      0x0100\n      exp\n      swap1\n      div\n      0xffff\n      and\n        /* \"contracts/Vote/VoterContract.sol\":4242:4257  votings[voteId] */\n      0xffff\n      and\n      0xffff\n      and\n      dup2\n      mstore\n      0x20\n      add\n      swap1\n      dup2\n      mstore\n      0x20\n      add\n      0x00\n      keccak256\n        /* \"contracts/Vote/VoterContract.sol\":4242:4260  votings[voteId].id */\n      0x00\n      add\n      0x00\n        /* \"contracts/Vote/VoterContract.sol\":4242:4269  votings[voteId].id = voteId */\n      0x0100\n      exp\n      dup2\n      sload\n      dup2\n      0xffff\n      mul\n      not\n      and\n      swap1\n      dup4\n      0xffff\n      and\n      mul\n      or\n      swap1\n      sstore\n      pop\n        /* \"contracts/Vote/VoterContract.sol\":4311:4318  votings */\n      0x04\n        /* \"contracts/Vote/VoterContract.sol\":4311:4328  votings[voteId-1] */\n      0x00\n        /* \"contracts/Vote/VoterContract.sol\":4326:4327  1 */\n      0x01\n        /* \"contracts/Vote/VoterContract.sol\":4319:4325  voteId */\n      dup1\n      0x14\n      swap1\n      sload\n      swap1\n      0x0100\n      exp\n      swap1\n      div\n      0xffff\n      and\n        /* \"contracts/Vote/VoterContract.sol\":4319:4327  voteId-1 */\n      tag_241\n      swap2\n      swap1\n      tag_146\n      jump\t// in\n    tag_241:\n        /* \"contracts/Vote/VoterContract.sol\":4311:4328  votings[voteId-1] */\n      0xffff\n      and\n      0xffff\n      and\n      dup2\n      mstore\n      0x20\n      add\n      swap1\n      dup2\n      mstore\n      0x20\n      add\n      0x00\n      keccak256\n        /* \"contracts/Vote/VoterContract.sol\":4311:4337  votings[voteId-1].proposer */\n      0x02\n      add\n      0x08\n      swap1\n      sload\n      swap1\n      0x0100\n      exp\n      swap1\n      div\n      0xffffffffffffffffffffffffffffffffffffffff\n      and\n        /* \"contracts/Vote/VoterContract.sol\":4284:4291  votings */\n      0x04\n        /* \"contracts/Vote/VoterContract.sol\":4284:4299  votings[voteId] */\n      0x00\n        /* \"contracts/Vote/VoterContract.sol\":4292:4298  voteId */\n      0x01\n      0x14\n      swap1\n      sload\n      swap1\n      0x0100\n      exp\n      swap1\n      div\n      0xffff\n      and\n        /* \"contracts/Vote/VoterContract.sol\":4284:4299  votings[voteId] */\n      0xffff\n      and\n      0xffff\n      and\n      dup2\n      mstore\n      0x20\n      add\n      swap1\n      dup2\n      mstore\n      0x20\n      add\n      0x00\n      keccak256\n        /* \"contracts/Vote/VoterContract.sol\":4284:4308  votings[voteId].proposer */\n      0x02\n      add\n      0x08\n        /* \"contracts/Vote/VoterContract.sol\":4284:4337  votings[voteId].proposer = votings[voteId-1].proposer */\n      0x0100\n      exp\n      dup2\n      sload\n      dup2\n      0xffffffffffffffffffffffffffffffffffffffff\n      mul\n      not\n      and\n      swap1\n      dup4\n      0xffffffffffffffffffffffffffffffffffffffff\n      and\n      mul\n      or\n      swap1\n      sstore\n      pop\n        /* \"contracts/Vote/VoterContract.sol\":4378:4385  votings */\n      0x04\n        /* \"contracts/Vote/VoterContract.sol\":4378:4395  votings[voteId-1] */\n      0x00\n        /* \"contracts/Vote/VoterContract.sol\":4393:4394  1 */\n      0x01\n        /* \"contracts/Vote/VoterContract.sol\":4386:4392  voteId */\n      dup1\n      0x14\n      swap1\n      sload\n      swap1\n      0x0100\n      exp\n      swap1\n      div\n      0xffff\n      and\n        /* \"contracts/Vote/VoterContract.sol\":4386:4394  voteId-1 */\n      tag_242\n      swap2\n      swap1\n      tag_146\n      jump\t// in\n    tag_242:\n        /* \"contracts/Vote/VoterContract.sol\":4378:4395  votings[voteId-1] */\n      0xffff\n      and\n      0xffff\n      and\n      dup2\n      mstore\n      0x20\n      add\n      swap1\n      dup2\n      mstore\n      0x20\n      add\n      0x00\n      keccak256\n        /* \"contracts/Vote/VoterContract.sol\":4378:4401  votings[voteId-1].topic */\n      0x01\n      add\n        /* \"contracts/Vote/VoterContract.sol\":4354:4361  votings */\n      0x04\n        /* \"contracts/Vote/VoterContract.sol\":4354:4369  votings[voteId] */\n      0x00\n        /* \"contracts/Vote/VoterContract.sol\":4362:4368  voteId */\n      0x01\n      0x14\n      swap1\n      sload\n      swap1\n      0x0100\n      exp\n      swap1\n      div\n      0xffff\n      and\n        /* \"contracts/Vote/VoterContract.sol\":4354:4369  votings[voteId] */\n      0xffff\n      and\n      0xffff\n      and\n      dup2\n      mstore\n      0x20\n      add\n      swap1\n      dup2\n      mstore\n      0x20\n      add\n      0x00\n      keccak256\n        /* \"contracts/Vote/VoterContract.sol\":4354:4375  votings[voteId].topic */\n      0x01\n      add\n        /* \"contracts/Vote/VoterContract.sol\":4354:4401  votings[voteId].topic = votings[voteId-1].topic */\n      swap1\n      dup1\n      sload\n      tag_243\n      swap1\n      tag_140\n      jump\t// in\n    tag_243:\n      tag_244\n      swap3\n      swap2\n      swap1\n      tag_245\n      jump\t// in\n    tag_244:\n      pop\n        /* \"contracts/Vote/VoterContract.sol\":4479:4486  votings */\n      0x04\n        /* \"contracts/Vote/VoterContract.sol\":4479:4496  votings[voteId-1] */\n      0x00\n        /* \"contracts/Vote/VoterContract.sol\":4494:4495  1 */\n      0x01\n        /* \"contracts/Vote/VoterContract.sol\":4487:4493  voteId */\n      dup1\n      0x14\n      swap1\n      sload\n      swap1\n      0x0100\n      exp\n      swap1\n      div\n      0xffff\n      and\n        /* \"contracts/Vote/VoterContract.sol\":4487:4495  voteId-1 */\n      tag_246\n      swap2\n      swap1\n      tag_146\n      jump\t// in\n    tag_246:\n        /* \"contracts/Vote/VoterContract.sol\":4479:4496  votings[voteId-1] */\n      0xffff\n      and\n      0xffff\n      and\n      dup2\n      mstore\n      0x20\n      add\n      swap1\n      dup2\n      mstore\n      0x20\n      add\n      0x00\n      keccak256\n        /* \"contracts/Vote/VoterContract.sol\":4479:4502  votings[voteId-1].topic */\n      0x01\n      add\n        /* \"contracts/Vote/VoterContract.sol\":4449:4503  abi.encodePacked(\"Proposal: \",votings[voteId-1].topic) */\n      add(0x20, mload(0x40))\n      tag_247\n      swap2\n      swap1\n      tag_248\n      jump\t// in\n    tag_247:\n      mload(0x40)\n      0x20\n      dup2\n      dup4\n      sub\n      sub\n      dup2\n      mstore\n      swap1\n      0x40\n      mstore\n        /* \"contracts/Vote/VoterContract.sol\":4416:4423  votings */\n      0x04\n        /* \"contracts/Vote/VoterContract.sol\":4416:4433  votings[voteId-1] */\n      0x00\n        /* \"contracts/Vote/VoterContract.sol\":4431:4432  1 */\n      0x01\n        /* \"contracts/Vote/VoterContract.sol\":4424:4430  voteId */\n      dup1\n      0x14\n      swap1\n      sload\n      swap1\n      0x0100\n      exp\n      swap1\n      div\n      0xffff\n      and\n        /* \"contracts/Vote/VoterContract.sol\":4424:4432  voteId-1 */\n      tag_249\n      swap2\n      swap1\n      tag_146\n      jump\t// in\n    tag_249:\n        /* \"contracts/Vote/VoterContract.sol\":4416:4433  votings[voteId-1] */\n      0xffff\n      and\n      0xffff\n      and\n      dup2\n      mstore\n      0x20\n      add\n      swap1\n      dup2\n      mstore\n      0x20\n      add\n      0x00\n      keccak256\n        /* \"contracts/Vote/VoterContract.sol\":4416:4439  votings[voteId-1].topic */\n      0x01\n      add\n        /* \"contracts/Vote/VoterContract.sol\":4416:4504  votings[voteId-1].topic = string(abi.encodePacked(\"Proposal: \",votings[voteId-1].topic)) */\n      swap1\n      dup1\n      mload\n      swap1\n      0x20\n      add\n      swap1\n      tag_250\n      swap3\n      swap2\n      swap1\n      tag_251\n      jump\t// in\n    tag_250:\n      pop\n        /* \"contracts/Vote/VoterContract.sol\":4558:4570  block.number */\n      number\n        /* \"contracts/Vote/VoterContract.sol\":4521:4528  votings */\n      0x04\n        /* \"contracts/Vote/VoterContract.sol\":4521:4536  votings[voteId] */\n      0x00\n        /* \"contracts/Vote/VoterContract.sol\":4529:4535  voteId */\n      0x01\n      0x14\n      swap1\n      sload\n      swap1\n      0x0100\n      exp\n      swap1\n      div\n      0xffff\n      and\n        /* \"contracts/Vote/VoterContract.sol\":4521:4536  votings[voteId] */\n      0xffff\n      and\n      0xffff\n      and\n      dup2\n      mstore\n      0x20\n      add\n      swap1\n      dup2\n      mstore\n      0x20\n      add\n      0x00\n      keccak256\n        /* \"contracts/Vote/VoterContract.sol\":4521:4555  votings[voteId].blockNumberStarted */\n      0x03\n      add\n        /* \"contracts/Vote/VoterContract.sol\":4521:4570  votings[voteId].blockNumberStarted = block.number */\n      dup2\n      swap1\n      sstore\n      pop\n        /* \"contracts/Vote/VoterContract.sol\":4663:4664  3 */\n      0x03\n        /* \"contracts/Vote/VoterContract.sol\":823:824  1 */\n      0x01\n        /* \"contracts/Vote/VoterContract.sol\":4646:4664  minBlockDuration*3 */\n      tag_252\n      swap2\n      swap1\n      tag_253\n      jump\t// in\n    tag_252:\n        /* \"contracts/Vote/VoterContract.sol\":4631:4664  block.number + minBlockDuration*3 */\n      0xff\n      and\n        /* \"contracts/Vote/VoterContract.sol\":4631:4643  block.number */\n      number\n        /* \"contracts/Vote/VoterContract.sol\":4631:4664  block.number + minBlockDuration*3 */\n      tag_254\n      swap2\n      swap1\n      tag_255\n      jump\t// in\n    tag_254:\n        /* \"contracts/Vote/VoterContract.sol\":4585:4592  votings */\n      0x04\n        /* \"contracts/Vote/VoterContract.sol\":4585:4600  votings[voteId] */\n      0x00\n        /* \"contracts/Vote/VoterContract.sol\":4593:4599  voteId */\n      0x01\n      0x14\n      swap1\n      sload\n      swap1\n      0x0100\n      exp\n      swap1\n      div\n      0xffff\n      and\n        /* \"contracts/Vote/VoterContract.sol\":4585:4600  votings[voteId] */\n      0xffff\n      and\n      0xffff\n      and\n      dup2\n      mstore\n      0x20\n      add\n      swap1\n      dup2\n      mstore\n      0x20\n      add\n      0x00\n      keccak256\n        /* \"contracts/Vote/VoterContract.sol\":4585:4628  votings[voteId].blockNumberWillNotEndBefore */\n      0x04\n      add\n        /* \"contracts/Vote/VoterContract.sol\":4585:4664  votings[voteId].blockNumberWillNotEndBefore = block.number + minBlockDuration*3 */\n      dup2\n      swap1\n      sstore\n      pop\n        /* \"contracts/Vote/VoterContract.sol\":4706:4707  0 */\n      0x00\n        /* \"contracts/Vote/VoterContract.sol\":4681:4688  votings */\n      0x04\n        /* \"contracts/Vote/VoterContract.sol\":4681:4696  votings[voteId] */\n      0x00\n        /* \"contracts/Vote/VoterContract.sol\":4689:4695  voteId */\n      0x01\n      0x14\n      swap1\n      sload\n      swap1\n      0x0100\n      exp\n      swap1\n      div\n      0xffff\n      and\n        /* \"contracts/Vote/VoterContract.sol\":4681:4696  votings[voteId] */\n      0xffff\n      and\n      0xffff\n      and\n      dup2\n      mstore\n      0x20\n      add\n      swap1\n      dup2\n      mstore\n      0x20\n      add\n      0x00\n      keccak256\n        /* \"contracts/Vote/VoterContract.sol\":4681:4703  votings[voteId].result */\n      0x02\n      add\n      0x04\n        /* \"contracts/Vote/VoterContract.sol\":4681:4707  votings[voteId].result = 0 */\n      0x0100\n      exp\n      dup2\n      sload\n      dup2\n      0xffffffff\n      mul\n      not\n      and\n      swap1\n      dup4\n      0xffffffff\n      and\n      mul\n      or\n      swap1\n      sstore\n      pop\n        /* \"contracts/Vote/VoterContract.sol\":4746:4747  0 */\n      0x00\n        /* \"contracts/Vote/VoterContract.sol\":4722:4729  votings */\n      0x04\n        /* \"contracts/Vote/VoterContract.sol\":4722:4737  votings[voteId] */\n      0x00\n        /* \"contracts/Vote/VoterContract.sol\":4730:4736  voteId */\n      0x01\n      0x14\n      swap1\n      sload\n      swap1\n      0x0100\n      exp\n      swap1\n      div\n      0xffff\n      and\n        /* \"contracts/Vote/VoterContract.sol\":4722:4737  votings[voteId] */\n      0xffff\n      and\n      0xffff\n      and\n      dup2\n      mstore\n      0x20\n      add\n      swap1\n      dup2\n      mstore\n      0x20\n      add\n      0x00\n      keccak256\n        /* \"contracts/Vote/VoterContract.sol\":4722:4743  votings[voteId].voted */\n      0x02\n      add\n      0x00\n        /* \"contracts/Vote/VoterContract.sol\":4722:4747  votings[voteId].voted = 0 */\n      0x0100\n      exp\n      dup2\n      sload\n      dup2\n      0xffffffff\n      mul\n      not\n      and\n      swap1\n      dup4\n      0xffffffff\n      and\n      mul\n      or\n      swap1\n      sstore\n      pop\n        /* \"contracts/Vote/VoterContract.sol\":4793:4809  VotingType.YesNo */\n      0x01\n        /* \"contracts/Vote/VoterContract.sol\":4764:4771  votings */\n      0x04\n        /* \"contracts/Vote/VoterContract.sol\":4764:4779  votings[voteId] */\n      0x00\n        /* \"contracts/Vote/VoterContract.sol\":4772:4778  voteId */\n      0x01\n      0x14\n      swap1\n      sload\n      swap1\n      0x0100\n      exp\n      swap1\n      div\n      0xffff\n      and\n        /* \"contracts/Vote/VoterContract.sol\":4764:4779  votings[voteId] */\n      0xffff\n      and\n      0xffff\n      and\n      dup2\n      mstore\n      0x20\n      add\n      swap1\n      dup2\n      mstore\n      0x20\n      add\n      0x00\n      keccak256\n        /* \"contracts/Vote/VoterContract.sol\":4764:4790  votings[voteId].votingType */\n      0x06\n      add\n      0x00\n        /* \"contracts/Vote/VoterContract.sol\":4764:4809  votings[voteId].votingType = VotingType.YesNo */\n      0x0100\n      exp\n      dup2\n      sload\n      dup2\n      0xff\n      mul\n      not\n      and\n      swap1\n      dup4\n      0x03\n      dup2\n      gt\n      iszero\n      tag_256\n      jumpi\n      tag_257\n      tag_97\n      jump\t// in\n    tag_257:\n    tag_256:\n      mul\n      or\n      swap1\n      sstore\n      pop\n        /* \"contracts/Vote/VoterContract.sol\":4845:4851  voteId */\n      0x01\n      0x14\n      swap1\n      sload\n      swap1\n      0x0100\n      exp\n      swap1\n      div\n      0xffff\n      and\n        /* \"contracts/Vote/VoterContract.sol\":4831:4852  VotingStarted(voteId) */\n      0xffff\n      and\n      0xa486368a4bc0a7bd18120ddeab7dbd478821fceffe1250b8c66e386d275860c7\n      mload(0x40)\n      mload(0x40)\n      dup1\n      swap2\n      sub\n      swap1\n      log2\n        /* \"contracts/Vote/VoterContract.sol\":4180:4864  if(votings[voteId-1].result*2>=totalVoterCount){\r... */\n    tag_240:\n        /* \"contracts/Vote/VoterContract.sol\":3636:4871  function closeProposal() external onlyVoters(msg.sender){\r... */\n      pop\n      jump\t// out\n        /* \"contracts/Vote/VoterContract.sol\":5447:5924  function useVotePowerYesNo(NoYes vote) external isVotingStarted onlyNotVotedVoters{\r... */\n    tag_47:\n        /* \"contracts/Vote/VoterContract.sol\":1709:1726  VotingType.Closed */\n      0x00\n        /* \"contracts/Vote/VoterContract.sol\":1681:1726  votings[voteId].votingType!=VotingType.Closed */\n      0x03\n      dup2\n      gt\n      iszero\n      tag_259\n      jumpi\n      tag_260\n      tag_97\n      jump\t// in\n    tag_260:\n    tag_259:\n        /* \"contracts/Vote/VoterContract.sol\":1681:1688  votings */\n      0x04\n        /* \"contracts/Vote/VoterContract.sol\":1681:1696  votings[voteId] */\n      0x00\n        /* \"contracts/Vote/VoterContract.sol\":1689:1695  voteId */\n      0x01\n      0x14\n      swap1\n      sload\n      swap1\n      0x0100\n      exp\n      swap1\n      div\n      0xffff\n      and\n        /* \"contracts/Vote/VoterContract.sol\":1681:1696  votings[voteId] */\n      0xffff\n      and\n      0xffff\n      and\n      dup2\n      mstore\n      0x20\n      add\n      swap1\n      dup2\n      mstore\n      0x20\n      add\n      0x00\n      keccak256\n        /* \"contracts/Vote/VoterContract.sol\":1681:1707  votings[voteId].votingType */\n      0x06\n      add\n      0x00\n      swap1\n      sload\n      swap1\n      0x0100\n      exp\n      swap1\n      div\n      0xff\n      and\n        /* \"contracts/Vote/VoterContract.sol\":1681:1726  votings[voteId].votingType!=VotingType.Closed */\n      0x03\n      dup2\n      gt\n      iszero\n      tag_261\n      jumpi\n      tag_262\n      tag_97\n      jump\t// in\n    tag_262:\n    tag_261:\n      eq\n      iszero\n        /* \"contracts/Vote/VoterContract.sol\":1673:1748  require(votings[voteId].votingType!=VotingType.Closed,\"There is no voting\") */\n      tag_263\n      jumpi\n      mload(0x40)\n      0x08c379a000000000000000000000000000000000000000000000000000000000\n      dup2\n      mstore\n      0x04\n      add\n      tag_264\n      swap1\n      tag_102\n      jump\t// in\n    tag_264:\n      mload(0x40)\n      dup1\n      swap2\n      sub\n      swap1\n      revert\n    tag_263:\n        /* \"contracts/Vote/VoterContract.sol\":1488:1498  __VOTERS__ */\n      0x02\n        /* \"contracts/Vote/VoterContract.sol\":1488:1510  __VOTERS__[msg.sender] */\n      0x00\n        /* \"contracts/Vote/VoterContract.sol\":1499:1509  msg.sender */\n      caller\n        /* \"contracts/Vote/VoterContract.sol\":1488:1510  __VOTERS__[msg.sender] */\n      0xffffffffffffffffffffffffffffffffffffffff\n      and\n      0xffffffffffffffffffffffffffffffffffffffff\n      and\n      dup2\n      mstore\n      0x20\n      add\n      swap1\n      dup2\n      mstore\n      0x20\n      add\n      0x00\n      keccak256\n      0x00\n      swap1\n      sload\n      swap1\n      0x0100\n      exp\n      swap1\n      div\n      0xff\n      and\n        /* \"contracts/Vote/VoterContract.sol\":1480:1533  require(__VOTERS__[msg.sender],\"You are not a voter\") */\n      tag_266\n      jumpi\n      mload(0x40)\n      0x08c379a000000000000000000000000000000000000000000000000000000000\n      dup2\n      mstore\n      0x04\n      add\n      tag_267\n      swap1\n      tag_106\n      jump\t// in\n    tag_267:\n      mload(0x40)\n      dup1\n      swap2\n      sub\n      swap1\n      revert\n    tag_266:\n        /* \"contracts/Vote/VoterContract.sol\":1583:1584  0 */\n      0x00\n        /* \"contracts/Vote/VoterContract.sol\":1552:1561  votePower */\n      0x03\n        /* \"contracts/Vote/VoterContract.sol\":1552:1569  votePower[voteId] */\n      0x00\n        /* \"contracts/Vote/VoterContract.sol\":1562:1568  voteId */\n      0x01\n      0x14\n      swap1\n      sload\n      swap1\n      0x0100\n      exp\n      swap1\n      div\n      0xffff\n      and\n        /* \"contracts/Vote/VoterContract.sol\":1552:1569  votePower[voteId] */\n      0xffff\n      and\n      0xffff\n      and\n      dup2\n      mstore\n      0x20\n      add\n      swap1\n      dup2\n      mstore\n      0x20\n      add\n      0x00\n      keccak256\n        /* \"contracts/Vote/VoterContract.sol\":1552:1581  votePower[voteId][msg.sender] */\n      0x00\n        /* \"contracts/Vote/VoterContract.sol\":1570:1580  msg.sender */\n      caller\n        /* \"contracts/Vote/VoterContract.sol\":1552:1581  votePower[voteId][msg.sender] */\n      0xffffffffffffffffffffffffffffffffffffffff\n      and\n      0xffffffffffffffffffffffffffffffffffffffff\n      and\n      dup2\n      mstore\n      0x20\n      add\n      swap1\n      dup2\n      mstore\n      0x20\n      add\n      0x00\n      keccak256\n      0x00\n      swap1\n      sload\n      swap1\n      0x0100\n      exp\n      swap1\n      div\n      0xff\n      and\n        /* \"contracts/Vote/VoterContract.sol\":1552:1584  votePower[voteId][msg.sender]==0 */\n      0xff\n      and\n      eq\n        /* \"contracts/Vote/VoterContract.sol\":1544:1609  require(votePower[voteId][msg.sender]==0,\"You have voted before\") */\n      tag_268\n      jumpi\n      mload(0x40)\n      0x08c379a000000000000000000000000000000000000000000000000000000000\n      dup2\n      mstore\n      0x04\n      add\n      tag_269\n      swap1\n      tag_109\n      jump\t// in\n    tag_269:\n      mload(0x40)\n      dup1\n      swap2\n      sub\n      swap1\n      revert\n    tag_268:\n        /* \"contracts/Vote/VoterContract.sol\":5576:5592  VotingType.YesNo */\n      0x01\n        /* \"contracts/Vote/VoterContract.sol\":5548:5592  votings[voteId].votingType==VotingType.YesNo */\n      0x03\n      dup2\n      gt\n      iszero\n      tag_271\n      jumpi\n      tag_272\n      tag_97\n      jump\t// in\n    tag_272:\n    tag_271:\n        /* \"contracts/Vote/VoterContract.sol\":5548:5555  votings */\n      0x04\n        /* \"contracts/Vote/VoterContract.sol\":5548:5563  votings[voteId] */\n      0x00\n        /* \"contracts/Vote/VoterContract.sol\":5556:5562  voteId */\n      0x01\n      0x14\n      swap1\n      sload\n      swap1\n      0x0100\n      exp\n      swap1\n      div\n      0xffff\n      and\n        /* \"contracts/Vote/VoterContract.sol\":5548:5563  votings[voteId] */\n      0xffff\n      and\n      0xffff\n      and\n      dup2\n      mstore\n      0x20\n      add\n      swap1\n      dup2\n      mstore\n      0x20\n      add\n      0x00\n      keccak256\n        /* \"contracts/Vote/VoterContract.sol\":5548:5574  votings[voteId].votingType */\n      0x06\n      add\n      0x00\n      swap1\n      sload\n      swap1\n      0x0100\n      exp\n      swap1\n      div\n      0xff\n      and\n        /* \"contracts/Vote/VoterContract.sol\":5548:5592  votings[voteId].votingType==VotingType.YesNo */\n      0x03\n      dup2\n      gt\n      iszero\n      tag_273\n      jumpi\n      tag_274\n      tag_97\n      jump\t// in\n    tag_274:\n    tag_273:\n      eq\n        /* \"contracts/Vote/VoterContract.sol\":5540:5641  require(votings[voteId].votingType==VotingType.YesNo,\"Currently we are not voting on this function.\") */\n      tag_275\n      jumpi\n      mload(0x40)\n      0x08c379a000000000000000000000000000000000000000000000000000000000\n      dup2\n      mstore\n      0x04\n      add\n      tag_276\n      swap1\n      tag_117\n      jump\t// in\n    tag_276:\n      mload(0x40)\n      dup1\n      swap2\n      sub\n      swap1\n      revert\n    tag_275:\n        /* \"contracts/Vote/VoterContract.sol\":5661:5669  NoYes.No */\n      0x00\n        /* \"contracts/Vote/VoterContract.sol\":5655:5669  vote==NoYes.No */\n      0x01\n      dup2\n      gt\n      iszero\n      tag_277\n      jumpi\n      tag_278\n      tag_97\n      jump\t// in\n    tag_278:\n    tag_277:\n        /* \"contracts/Vote/VoterContract.sol\":5655:5659  vote */\n      dup2\n        /* \"contracts/Vote/VoterContract.sol\":5655:5669  vote==NoYes.No */\n      0x01\n      dup2\n      gt\n      iszero\n      tag_279\n      jumpi\n      tag_280\n      tag_97\n      jump\t// in\n    tag_280:\n    tag_279:\n      eq\n        /* \"contracts/Vote/VoterContract.sol\":5652:5880  if(vote==NoYes.No){\r... */\n      iszero\n      tag_281\n      jumpi\n        /* \"contracts/Vote/VoterContract.sol\":5717:5718  1 */\n      0x01\n        /* \"contracts/Vote/VoterContract.sol\":5685:5694  votePower */\n      0x03\n        /* \"contracts/Vote/VoterContract.sol\":5685:5702  votePower[voteId] */\n      0x00\n        /* \"contracts/Vote/VoterContract.sol\":5695:5701  voteId */\n      0x01\n      0x14\n      swap1\n      sload\n      swap1\n      0x0100\n      exp\n      swap1\n      div\n      0xffff\n      and\n        /* \"contracts/Vote/VoterContract.sol\":5685:5702  votePower[voteId] */\n      0xffff\n      and\n      0xffff\n      and\n      dup2\n      mstore\n      0x20\n      add\n      swap1\n      dup2\n      mstore\n      0x20\n      add\n      0x00\n      keccak256\n        /* \"contracts/Vote/VoterContract.sol\":5685:5714  votePower[voteId][msg.sender] */\n      0x00\n        /* \"contracts/Vote/VoterContract.sol\":5703:5713  msg.sender */\n      caller\n        /* \"contracts/Vote/VoterContract.sol\":5685:5714  votePower[voteId][msg.sender] */\n      0xffffffffffffffffffffffffffffffffffffffff\n      and\n      0xffffffffffffffffffffffffffffffffffffffff\n      and\n      dup2\n      mstore\n      0x20\n      add\n      swap1\n      dup2\n      mstore\n      0x20\n      add\n      0x00\n      keccak256\n      0x00\n        /* \"contracts/Vote/VoterContract.sol\":5685:5718  votePower[voteId][msg.sender] = 1 */\n      0x0100\n      exp\n      dup2\n      sload\n      dup2\n      0xff\n      mul\n      not\n      and\n      swap1\n      dup4\n      0xff\n      and\n      mul\n      or\n      swap1\n      sstore\n      pop\n        /* \"contracts/Vote/VoterContract.sol\":5759:5760  1 */\n      0x01\n        /* \"contracts/Vote/VoterContract.sol\":5733:5740  votings */\n      0x04\n        /* \"contracts/Vote/VoterContract.sol\":5733:5748  votings[voteId] */\n      0x00\n        /* \"contracts/Vote/VoterContract.sol\":5741:5747  voteId */\n      0x01\n      0x14\n      swap1\n      sload\n      swap1\n      0x0100\n      exp\n      swap1\n      div\n      0xffff\n      and\n        /* \"contracts/Vote/VoterContract.sol\":5733:5748  votings[voteId] */\n      0xffff\n      and\n      0xffff\n      and\n      dup2\n      mstore\n      0x20\n      add\n      swap1\n      dup2\n      mstore\n      0x20\n      add\n      0x00\n      keccak256\n        /* \"contracts/Vote/VoterContract.sol\":5733:5755  votings[voteId].result */\n      0x02\n      add\n      0x04\n        /* \"contracts/Vote/VoterContract.sol\":5733:5760  votings[voteId].result += 1 */\n      dup3\n      dup3\n      dup3\n      swap1\n      sload\n      swap1\n      0x0100\n      exp\n      swap1\n      div\n      0xffffffff\n      and\n      tag_282\n      swap2\n      swap1\n      tag_124\n      jump\t// in\n    tag_282:\n      swap3\n      pop\n      0x0100\n      exp\n      dup2\n      sload\n      dup2\n      0xffffffff\n      mul\n      not\n      and\n      swap1\n      dup4\n      0xffffffff\n      and\n      mul\n      or\n      swap1\n      sstore\n      pop\n        /* \"contracts/Vote/VoterContract.sol\":5652:5880  if(vote==NoYes.No){\r... */\n      jump(tag_283)\n    tag_281:\n        /* \"contracts/Vote/VoterContract.sol\":5823:5825  10 */\n      0x0a\n        /* \"contracts/Vote/VoterContract.sol\":5791:5800  votePower */\n      0x03\n        /* \"contracts/Vote/VoterContract.sol\":5791:5808  votePower[voteId] */\n      0x00\n        /* \"contracts/Vote/VoterContract.sol\":5801:5807  voteId */\n      0x01\n      0x14\n      swap1\n      sload\n      swap1\n      0x0100\n      exp\n      swap1\n      div\n      0xffff\n      and\n        /* \"contracts/Vote/VoterContract.sol\":5791:5808  votePower[voteId] */\n      0xffff\n      and\n      0xffff\n      and\n      dup2\n      mstore\n      0x20\n      add\n      swap1\n      dup2\n      mstore\n      0x20\n      add\n      0x00\n      keccak256\n        /* \"contracts/Vote/VoterContract.sol\":5791:5820  votePower[voteId][msg.sender] */\n      0x00\n        /* \"contracts/Vote/VoterContract.sol\":5809:5819  msg.sender */\n      caller\n        /* \"contracts/Vote/VoterContract.sol\":5791:5820  votePower[voteId][msg.sender] */\n      0xffffffffffffffffffffffffffffffffffffffff\n      and\n      0xffffffffffffffffffffffffffffffffffffffff\n      and\n      dup2\n      mstore\n      0x20\n      add\n      swap1\n      dup2\n      mstore\n      0x20\n      add\n      0x00\n      keccak256\n      0x00\n        /* \"contracts/Vote/VoterContract.sol\":5791:5825  votePower[voteId][msg.sender] = 10 */\n      0x0100\n      exp\n      dup2\n      sload\n      dup2\n      0xff\n      mul\n      not\n      and\n      swap1\n      dup4\n      0xff\n      and\n      mul\n      or\n      swap1\n      sstore\n      pop\n        /* \"contracts/Vote/VoterContract.sol\":5866:5868  10 */\n      0x0a\n        /* \"contracts/Vote/VoterContract.sol\":5840:5847  votings */\n      0x04\n        /* \"contracts/Vote/VoterContract.sol\":5840:5855  votings[voteId] */\n      0x00\n        /* \"contracts/Vote/VoterContract.sol\":5848:5854  voteId */\n      0x01\n      0x14\n      swap1\n      sload\n      swap1\n      0x0100\n      exp\n      swap1\n      div\n      0xffff\n      and\n        /* \"contracts/Vote/VoterContract.sol\":5840:5855  votings[voteId] */\n      0xffff\n      and\n      0xffff\n      and\n      dup2\n      mstore\n      0x20\n      add\n      swap1\n      dup2\n      mstore\n      0x20\n      add\n      0x00\n      keccak256\n        /* \"contracts/Vote/VoterContract.sol\":5840:5862  votings[voteId].result */\n      0x02\n      add\n      0x04\n        /* \"contracts/Vote/VoterContract.sol\":5840:5868  votings[voteId].result += 10 */\n      dup3\n      dup3\n      dup3\n      swap1\n      sload\n      swap1\n      0x0100\n      exp\n      swap1\n      div\n      0xffffffff\n      and\n      tag_284\n      swap2\n      swap1\n      tag_124\n      jump\t// in\n    tag_284:\n      swap3\n      pop\n      0x0100\n      exp\n      dup2\n      sload\n      dup2\n      0xffffffff\n      mul\n      not\n      and\n      swap1\n      dup4\n      0xffffffff\n      and\n      mul\n      or\n      swap1\n      sstore\n      pop\n        /* \"contracts/Vote/VoterContract.sol\":5652:5880  if(vote==NoYes.No){\r... */\n    tag_283:\n        /* \"contracts/Vote/VoterContract.sol\":5915:5916  1 */\n      0x01\n        /* \"contracts/Vote/VoterContract.sol\":5890:5897  votings */\n      0x04\n        /* \"contracts/Vote/VoterContract.sol\":5890:5905  votings[voteId] */\n      0x00\n        /* \"contracts/Vote/VoterContract.sol\":5898:5904  voteId */\n      0x01\n      0x14\n      swap1\n      sload\n      swap1\n      0x0100\n      exp\n      swap1\n      div\n      0xffff\n      and\n        /* \"contracts/Vote/VoterContract.sol\":5890:5905  votings[voteId] */\n      0xffff\n      and\n      0xffff\n      and\n      dup2\n      mstore\n      0x20\n      add\n      swap1\n      dup2\n      mstore\n      0x20\n      add\n      0x00\n      keccak256\n        /* \"contracts/Vote/VoterContract.sol\":5890:5911  votings[voteId].voted */\n      0x02\n      add\n      0x00\n        /* \"contracts/Vote/VoterContract.sol\":5890:5916  votings[voteId].voted += 1 */\n      dup3\n      dup3\n      dup3\n      swap1\n      sload\n      swap1\n      0x0100\n      exp\n      swap1\n      div\n      0xffffffff\n      and\n      tag_285\n      swap2\n      swap1\n      tag_124\n      jump\t// in\n    tag_285:\n      swap3\n      pop\n      0x0100\n      exp\n      dup2\n      sload\n      dup2\n      0xffffffff\n      mul\n      not\n      and\n      swap1\n      dup4\n      0xffffffff\n      and\n      mul\n      or\n      swap1\n      sstore\n      pop\n        /* \"contracts/Vote/VoterContract.sol\":5447:5924  function useVotePowerYesNo(NoYes vote) external isVotingStarted onlyNotVotedVoters{\r... */\n      pop\n      jump\t// out\n        /* \"contracts/Vote/VoterContract.sol\":5936:6336  function useVotePowerONE_TEN(uint8 vote) external isVotingStarted onlyNotVotedVoters{\r... */\n    tag_50:\n        /* \"contracts/Vote/VoterContract.sol\":1709:1726  VotingType.Closed */\n      0x00\n        /* \"contracts/Vote/VoterContract.sol\":1681:1726  votings[voteId].votingType!=VotingType.Closed */\n      0x03\n      dup2\n      gt\n      iszero\n      tag_287\n      jumpi\n      tag_288\n      tag_97\n      jump\t// in\n    tag_288:\n    tag_287:\n        /* \"contracts/Vote/VoterContract.sol\":1681:1688  votings */\n      0x04\n        /* \"contracts/Vote/VoterContract.sol\":1681:1696  votings[voteId] */\n      0x00\n        /* \"contracts/Vote/VoterContract.sol\":1689:1695  voteId */\n      0x01\n      0x14\n      swap1\n      sload\n      swap1\n      0x0100\n      exp\n      swap1\n      div\n      0xffff\n      and\n        /* \"contracts/Vote/VoterContract.sol\":1681:1696  votings[voteId] */\n      0xffff\n      and\n      0xffff\n      and\n      dup2\n      mstore\n      0x20\n      add\n      swap1\n      dup2\n      mstore\n      0x20\n      add\n      0x00\n      keccak256\n        /* \"contracts/Vote/VoterContract.sol\":1681:1707  votings[voteId].votingType */\n      0x06\n      add\n      0x00\n      swap1\n      sload\n      swap1\n      0x0100\n      exp\n      swap1\n      div\n      0xff\n      and\n        /* \"contracts/Vote/VoterContract.sol\":1681:1726  votings[voteId].votingType!=VotingType.Closed */\n      0x03\n      dup2\n      gt\n      iszero\n      tag_289\n      jumpi\n      tag_290\n      tag_97\n      jump\t// in\n    tag_290:\n    tag_289:\n      eq\n      iszero\n        /* \"contracts/Vote/VoterContract.sol\":1673:1748  require(votings[voteId].votingType!=VotingType.Closed,\"There is no voting\") */\n      tag_291\n      jumpi\n      mload(0x40)\n      0x08c379a000000000000000000000000000000000000000000000000000000000\n      dup2\n      mstore\n      0x04\n      add\n      tag_292\n      swap1\n      tag_102\n      jump\t// in\n    tag_292:\n      mload(0x40)\n      dup1\n      swap2\n      sub\n      swap1\n      revert\n    tag_291:\n        /* \"contracts/Vote/VoterContract.sol\":1488:1498  __VOTERS__ */\n      0x02\n        /* \"contracts/Vote/VoterContract.sol\":1488:1510  __VOTERS__[msg.sender] */\n      0x00\n        /* \"contracts/Vote/VoterContract.sol\":1499:1509  msg.sender */\n      caller\n        /* \"contracts/Vote/VoterContract.sol\":1488:1510  __VOTERS__[msg.sender] */\n      0xffffffffffffffffffffffffffffffffffffffff\n      and\n      0xffffffffffffffffffffffffffffffffffffffff\n      and\n      dup2\n      mstore\n      0x20\n      add\n      swap1\n      dup2\n      mstore\n      0x20\n      add\n      0x00\n      keccak256\n      0x00\n      swap1\n      sload\n      swap1\n      0x0100\n      exp\n      swap1\n      div\n      0xff\n      and\n        /* \"contracts/Vote/VoterContract.sol\":1480:1533  require(__VOTERS__[msg.sender],\"You are not a voter\") */\n      tag_294\n      jumpi\n      mload(0x40)\n      0x08c379a000000000000000000000000000000000000000000000000000000000\n      dup2\n      mstore\n      0x04\n      add\n      tag_295\n      swap1\n      tag_106\n      jump\t// in\n    tag_295:\n      mload(0x40)\n      dup1\n      swap2\n      sub\n      swap1\n      revert\n    tag_294:\n        /* \"contracts/Vote/VoterContract.sol\":1583:1584  0 */\n      0x00\n        /* \"contracts/Vote/VoterContract.sol\":1552:1561  votePower */\n      0x03\n        /* \"contracts/Vote/VoterContract.sol\":1552:1569  votePower[voteId] */\n      0x00\n        /* \"contracts/Vote/VoterContract.sol\":1562:1568  voteId */\n      0x01\n      0x14\n      swap1\n      sload\n      swap1\n      0x0100\n      exp\n      swap1\n      div\n      0xffff\n      and\n        /* \"contracts/Vote/VoterContract.sol\":1552:1569  votePower[voteId] */\n      0xffff\n      and\n      0xffff\n      and\n      dup2\n      mstore\n      0x20\n      add\n      swap1\n      dup2\n      mstore\n      0x20\n      add\n      0x00\n      keccak256\n        /* \"contracts/Vote/VoterContract.sol\":1552:1581  votePower[voteId][msg.sender] */\n      0x00\n        /* \"contracts/Vote/VoterContract.sol\":1570:1580  msg.sender */\n      caller\n        /* \"contracts/Vote/VoterContract.sol\":1552:1581  votePower[voteId][msg.sender] */\n      0xffffffffffffffffffffffffffffffffffffffff\n      and\n      0xffffffffffffffffffffffffffffffffffffffff\n      and\n      dup2\n      mstore\n      0x20\n      add\n      swap1\n      dup2\n      mstore\n      0x20\n      add\n      0x00\n      keccak256\n      0x00\n      swap1\n      sload\n      swap1\n      0x0100\n      exp\n      swap1\n      div\n      0xff\n      and\n        /* \"contracts/Vote/VoterContract.sol\":1552:1584  votePower[voteId][msg.sender]==0 */\n      0xff\n      and\n      eq\n        /* \"contracts/Vote/VoterContract.sol\":1544:1609  require(votePower[voteId][msg.sender]==0,\"You have voted before\") */\n      tag_296\n      jumpi\n      mload(0x40)\n      0x08c379a000000000000000000000000000000000000000000000000000000000\n      dup2\n      mstore\n      0x04\n      add\n      tag_297\n      swap1\n      tag_109\n      jump\t// in\n    tag_297:\n      mload(0x40)\n      dup1\n      swap2\n      sub\n      swap1\n      revert\n    tag_296:\n        /* \"contracts/Vote/VoterContract.sol\":6044:6045  0 */\n      0x00\n        /* \"contracts/Vote/VoterContract.sol\":6039:6043  vote */\n      dup2\n        /* \"contracts/Vote/VoterContract.sol\":6039:6045  vote>0 */\n      0xff\n      and\n      gt\n        /* \"contracts/Vote/VoterContract.sol\":6039:6054  vote>0&&vote<11 */\n      dup1\n      iszero\n      tag_299\n      jumpi\n      pop\n        /* \"contracts/Vote/VoterContract.sol\":6052:6054  11 */\n      0x0b\n        /* \"contracts/Vote/VoterContract.sol\":6047:6051  vote */\n      dup2\n        /* \"contracts/Vote/VoterContract.sol\":6047:6054  vote<11 */\n      0xff\n      and\n      lt\n        /* \"contracts/Vote/VoterContract.sol\":6039:6054  vote>0&&vote<11 */\n    tag_299:\n        /* \"contracts/Vote/VoterContract.sol\":6031:6086  require(vote>0&&vote<11,\"Please vote between 1 to 10.\") */\n      tag_300\n      jumpi\n      mload(0x40)\n      0x08c379a000000000000000000000000000000000000000000000000000000000\n      dup2\n      mstore\n      0x04\n      add\n      tag_301\n      swap1\n      tag_302\n      jump\t// in\n    tag_301:\n      mload(0x40)\n      dup1\n      swap2\n      sub\n      swap1\n      revert\n    tag_300:\n        /* \"contracts/Vote/VoterContract.sol\":6133:6152  VotingType.OneToTen */\n      0x02\n        /* \"contracts/Vote/VoterContract.sol\":6105:6152  votings[voteId].votingType==VotingType.OneToTen */\n      0x03\n      dup2\n      gt\n      iszero\n      tag_303\n      jumpi\n      tag_304\n      tag_97\n      jump\t// in\n    tag_304:\n    tag_303:\n        /* \"contracts/Vote/VoterContract.sol\":6105:6112  votings */\n      0x04\n        /* \"contracts/Vote/VoterContract.sol\":6105:6120  votings[voteId] */\n      0x00\n        /* \"contracts/Vote/VoterContract.sol\":6113:6119  voteId */\n      0x01\n      0x14\n      swap1\n      sload\n      swap1\n      0x0100\n      exp\n      swap1\n      div\n      0xffff\n      and\n        /* \"contracts/Vote/VoterContract.sol\":6105:6120  votings[voteId] */\n      0xffff\n      and\n      0xffff\n      and\n      dup2\n      mstore\n      0x20\n      add\n      swap1\n      dup2\n      mstore\n      0x20\n      add\n      0x00\n      keccak256\n        /* \"contracts/Vote/VoterContract.sol\":6105:6131  votings[voteId].votingType */\n      0x06\n      add\n      0x00\n      swap1\n      sload\n      swap1\n      0x0100\n      exp\n      swap1\n      div\n      0xff\n      and\n        /* \"contracts/Vote/VoterContract.sol\":6105:6152  votings[voteId].votingType==VotingType.OneToTen */\n      0x03\n      dup2\n      gt\n      iszero\n      tag_305\n      jumpi\n      tag_306\n      tag_97\n      jump\t// in\n    tag_306:\n    tag_305:\n      eq\n        /* \"contracts/Vote/VoterContract.sol\":6097:6201  require(votings[voteId].votingType==VotingType.OneToTen,\"Currently we are not voting on this function.\") */\n      tag_307\n      jumpi\n      mload(0x40)\n      0x08c379a000000000000000000000000000000000000000000000000000000000\n      dup2\n      mstore\n      0x04\n      add\n      tag_308\n      swap1\n      tag_117\n      jump\t// in\n    tag_308:\n      mload(0x40)\n      dup1\n      swap2\n      sub\n      swap1\n      revert\n    tag_307:\n        /* \"contracts/Vote/VoterContract.sol\":6246:6250  vote */\n      dup1\n        /* \"contracts/Vote/VoterContract.sol\":6214:6223  votePower */\n      0x03\n        /* \"contracts/Vote/VoterContract.sol\":6214:6231  votePower[voteId] */\n      0x00\n        /* \"contracts/Vote/VoterContract.sol\":6224:6230  voteId */\n      0x01\n      0x14\n      swap1\n      sload\n      swap1\n      0x0100\n      exp\n      swap1\n      div\n      0xffff\n      and\n        /* \"contracts/Vote/VoterContract.sol\":6214:6231  votePower[voteId] */\n      0xffff\n      and\n      0xffff\n      and\n      dup2\n      mstore\n      0x20\n      add\n      swap1\n      dup2\n      mstore\n      0x20\n      add\n      0x00\n      keccak256\n        /* \"contracts/Vote/VoterContract.sol\":6214:6243  votePower[voteId][msg.sender] */\n      0x00\n        /* \"contracts/Vote/VoterContract.sol\":6232:6242  msg.sender */\n      caller\n        /* \"contracts/Vote/VoterContract.sol\":6214:6243  votePower[voteId][msg.sender] */\n      0xffffffffffffffffffffffffffffffffffffffff\n      and\n      0xffffffffffffffffffffffffffffffffffffffff\n      and\n      dup2\n      mstore\n      0x20\n      add\n      swap1\n      dup2\n      mstore\n      0x20\n      add\n      0x00\n      keccak256\n      0x00\n        /* \"contracts/Vote/VoterContract.sol\":6214:6250  votePower[voteId][msg.sender] = vote */\n      0x0100\n      exp\n      dup2\n      sload\n      dup2\n      0xff\n      mul\n      not\n      and\n      swap1\n      dup4\n      0xff\n      and\n      mul\n      or\n      swap1\n      sstore\n      pop\n        /* \"contracts/Vote/VoterContract.sol\":6287:6291  vote */\n      dup1\n        /* \"contracts/Vote/VoterContract.sol\":6261:6291  votings[voteId].result += vote */\n      0xff\n      and\n        /* \"contracts/Vote/VoterContract.sol\":6261:6268  votings */\n      0x04\n        /* \"contracts/Vote/VoterContract.sol\":6261:6276  votings[voteId] */\n      0x00\n        /* \"contracts/Vote/VoterContract.sol\":6269:6275  voteId */\n      0x01\n      0x14\n      swap1\n      sload\n      swap1\n      0x0100\n      exp\n      swap1\n      div\n      0xffff\n      and\n        /* \"contracts/Vote/VoterContract.sol\":6261:6276  votings[voteId] */\n      0xffff\n      and\n      0xffff\n      and\n      dup2\n      mstore\n      0x20\n      add\n      swap1\n      dup2\n      mstore\n      0x20\n      add\n      0x00\n      keccak256\n        /* \"contracts/Vote/VoterContract.sol\":6261:6283  votings[voteId].result */\n      0x02\n      add\n      0x04\n        /* \"contracts/Vote/VoterContract.sol\":6261:6291  votings[voteId].result += vote */\n      dup3\n      dup3\n      dup3\n      swap1\n      sload\n      swap1\n      0x0100\n      exp\n      swap1\n      div\n      0xffffffff\n      and\n      tag_309\n      swap2\n      swap1\n      tag_124\n      jump\t// in\n    tag_309:\n      swap3\n      pop\n      0x0100\n      exp\n      dup2\n      sload\n      dup2\n      0xffffffff\n      mul\n      not\n      and\n      swap1\n      dup4\n      0xffffffff\n      and\n      mul\n      or\n      swap1\n      sstore\n      pop\n        /* \"contracts/Vote/VoterContract.sol\":6327:6328  1 */\n      0x01\n        /* \"contracts/Vote/VoterContract.sol\":6302:6309  votings */\n      0x04\n        /* \"contracts/Vote/VoterContract.sol\":6302:6317  votings[voteId] */\n      0x00\n        /* \"contracts/Vote/VoterContract.sol\":6310:6316  voteId */\n      0x01\n      0x14\n      swap1\n      sload\n      swap1\n      0x0100\n      exp\n      swap1\n      div\n      0xffff\n      and\n        /* \"contracts/Vote/VoterContract.sol\":6302:6317  votings[voteId] */\n      0xffff\n      and\n      0xffff\n      and\n      dup2\n      mstore\n      0x20\n      add\n      swap1\n      dup2\n      mstore\n      0x20\n      add\n      0x00\n      keccak256\n        /* \"contracts/Vote/VoterContract.sol\":6302:6323  votings[voteId].voted */\n      0x02\n      add\n      0x00\n        /* \"contracts/Vote/VoterContract.sol\":6302:6328  votings[voteId].voted += 1 */\n      dup3\n      dup3\n      dup3\n      swap1\n      sload\n      swap1\n      0x0100\n      exp\n      swap1\n      div\n      0xffffffff\n      and\n      tag_310\n      swap2\n      swap1\n      tag_124\n      jump\t// in\n    tag_310:\n      swap3\n      pop\n      0x0100\n      exp\n      dup2\n      sload\n      dup2\n      0xffffffff\n      mul\n      not\n      and\n      swap1\n      dup4\n      0xffffffff\n      and\n      mul\n      or\n      swap1\n      sstore\n      pop\n        /* \"contracts/Vote/VoterContract.sol\":5936:6336  function useVotePowerONE_TEN(uint8 vote) external isVotingStarted onlyNotVotedVoters{\r... */\n      pop\n      jump\t// out\n        /* \"contracts/Vote/VoterContract.sol\":1034:1068  uint16 public  totalVoterCount = 0 */\n    tag_52:\n      0x05\n      0x00\n      swap1\n      sload\n      swap1\n      0x0100\n      exp\n      swap1\n      div\n      0xffff\n      and\n      dup2\n      jump\t// out\n        /* \"@openzeppelin/contracts/access/Ownable.sol\":1824:1925  function renounceOwnership() public virtual onlyOwner {... */\n    tag_56:\n        /* \"@openzeppelin/contracts/access/Ownable.sol\":1094:1107  _checkOwner() */\n      tag_312\n        /* \"@openzeppelin/contracts/access/Ownable.sol\":1094:1105  _checkOwner */\n      tag_313\n        /* \"@openzeppelin/contracts/access/Ownable.sol\":1094:1107  _checkOwner() */\n      jump\t// in\n    tag_312:\n        /* \"@openzeppelin/contracts/access/Ownable.sol\":1888:1918  _transferOwnership(address(0)) */\n      tag_315\n        /* \"@openzeppelin/contracts/access/Ownable.sol\":1915:1916  0 */\n      0x00\n        /* \"@openzeppelin/contracts/access/Ownable.sol\":1888:1906  _transferOwnership */\n      tag_316\n        /* \"@openzeppelin/contracts/access/Ownable.sol\":1888:1918  _transferOwnership(address(0)) */\n      jump\t// in\n    tag_315:\n        /* \"@openzeppelin/contracts/access/Ownable.sol\":1824:1925  function renounceOwnership() public virtual onlyOwner {... */\n      jump\t// out\n        /* \"@openzeppelin/contracts/access/Ownable.sol\":1201:1286  function owner() public view virtual returns (address) {... */\n    tag_58:\n        /* \"@openzeppelin/contracts/access/Ownable.sol\":1247:1254  address */\n      0x00\n        /* \"@openzeppelin/contracts/access/Ownable.sol\":1273:1279  _owner */\n      dup1\n      0x00\n      swap1\n      sload\n      swap1\n      0x0100\n      exp\n      swap1\n      div\n      0xffffffffffffffffffffffffffffffffffffffff\n      and\n        /* \"@openzeppelin/contracts/access/Ownable.sol\":1266:1279  return _owner */\n      swap1\n      pop\n        /* \"@openzeppelin/contracts/access/Ownable.sol\":1201:1286  function owner() public view virtual returns (address) {... */\n      swap1\n      jump\t// out\n        /* \"contracts/Vote/VoterContract.sol\":2962:3624  function openProposal(string memory _topic) external  onlyVoters(msg.sender) isVotingEnded {\r... */\n    tag_63:\n        /* \"contracts/Vote/VoterContract.sol\":3027:3037  msg.sender */\n      caller\n        /* \"contracts/Vote/VoterContract.sol\":1377:1387  __VOTERS__ */\n      0x02\n        /* \"contracts/Vote/VoterContract.sol\":1377:1392  __VOTERS__[adr] */\n      0x00\n        /* \"contracts/Vote/VoterContract.sol\":1388:1391  adr */\n      dup3\n        /* \"contracts/Vote/VoterContract.sol\":1377:1392  __VOTERS__[adr] */\n      0xffffffffffffffffffffffffffffffffffffffff\n      and\n      0xffffffffffffffffffffffffffffffffffffffff\n      and\n      dup2\n      mstore\n      0x20\n      add\n      swap1\n      dup2\n      mstore\n      0x20\n      add\n      0x00\n      keccak256\n      0x00\n      swap1\n      sload\n      swap1\n      0x0100\n      exp\n      swap1\n      div\n      0xff\n      and\n        /* \"contracts/Vote/VoterContract.sol\":1369:1416  require(__VOTERS__[adr],\"You are not a voterr\") */\n      tag_319\n      jumpi\n      mload(0x40)\n      0x08c379a000000000000000000000000000000000000000000000000000000000\n      dup2\n      mstore\n      0x04\n      add\n      tag_320\n      swap1\n      tag_219\n      jump\t// in\n    tag_320:\n      mload(0x40)\n      dup1\n      swap2\n      sub\n      swap1\n      revert\n    tag_319:\n        /* \"contracts/Vote/VoterContract.sol\":1844:1861  VotingType.Closed */\n      0x00\n        /* \"contracts/Vote/VoterContract.sol\":1816:1861  votings[voteId].votingType==VotingType.Closed */\n      0x03\n      dup2\n      gt\n      iszero\n      tag_322\n      jumpi\n      tag_323\n      tag_97\n      jump\t// in\n    tag_323:\n    tag_322:\n        /* \"contracts/Vote/VoterContract.sol\":1816:1823  votings */\n      0x04\n        /* \"contracts/Vote/VoterContract.sol\":1816:1831  votings[voteId] */\n      0x00\n        /* \"contracts/Vote/VoterContract.sol\":1824:1830  voteId */\n      0x01\n      0x14\n      swap1\n      sload\n      swap1\n      0x0100\n      exp\n      swap1\n      div\n      0xffff\n      and\n        /* \"contracts/Vote/VoterContract.sol\":1816:1831  votings[voteId] */\n      0xffff\n      and\n      0xffff\n      and\n      dup2\n      mstore\n      0x20\n      add\n      swap1\n      dup2\n      mstore\n      0x20\n      add\n      0x00\n      keccak256\n        /* \"contracts/Vote/VoterContract.sol\":1816:1842  votings[voteId].votingType */\n      0x06\n      add\n      0x00\n      swap1\n      sload\n      swap1\n      0x0100\n      exp\n      swap1\n      div\n      0xff\n      and\n        /* \"contracts/Vote/VoterContract.sol\":1816:1861  votings[voteId].votingType==VotingType.Closed */\n      0x03\n      dup2\n      gt\n      iszero\n      tag_324\n      jumpi\n      tag_325\n      tag_97\n      jump\t// in\n    tag_325:\n    tag_324:\n      eq\n        /* \"contracts/Vote/VoterContract.sol\":1808:1897  require(votings[voteId].votingType==VotingType.Closed,\"Current voting is not ended yet.\") */\n      tag_326\n      jumpi\n      mload(0x40)\n      0x08c379a000000000000000000000000000000000000000000000000000000000\n      dup2\n      mstore\n      0x04\n      add\n      tag_327\n      swap1\n      tag_328\n      jump\t// in\n    tag_327:\n      mload(0x40)\n      dup1\n      swap2\n      sub\n      swap1\n      revert\n    tag_326:\n        /* \"contracts/Vote/VoterContract.sol\":3096:3097  0 */\n      0x00\n        /* \"contracts/Vote/VoterContract.sol\":3078:3084  _topic */\n      dup3\n        /* \"contracts/Vote/VoterContract.sol\":3072:3092  bytes(_topic).length */\n      mload\n        /* \"contracts/Vote/VoterContract.sol\":3072:3097  bytes(_topic).length != 0 */\n      eq\n      iszero\n        /* \"contracts/Vote/VoterContract.sol\":3064:3098  require(bytes(_topic).length != 0) */\n      tag_330\n      jumpi\n      0x00\n      dup1\n      revert\n    tag_330:\n        /* \"contracts/Vote/VoterContract.sol\":3140:3146  voteId */\n      0x01\n      0x14\n      swap1\n      sload\n      swap1\n      0x0100\n      exp\n      swap1\n      div\n      0xffff\n      and\n        /* \"contracts/Vote/VoterContract.sol\":3119:3126  votings */\n      0x04\n        /* \"contracts/Vote/VoterContract.sol\":3119:3134  votings[voteId] */\n      0x00\n        /* \"contracts/Vote/VoterContract.sol\":3127:3133  voteId */\n      0x01\n      0x14\n      swap1\n      sload\n      swap1\n      0x0100\n      exp\n      swap1\n      div\n      0xffff\n      and\n        /* \"contracts/Vote/VoterContract.sol\":3119:3134  votings[voteId] */\n      0xffff\n      and\n      0xffff\n      and\n      dup2\n      mstore\n      0x20\n      add\n      swap1\n      dup2\n      mstore\n      0x20\n      add\n      0x00\n      keccak256\n        /* \"contracts/Vote/VoterContract.sol\":3119:3137  votings[voteId].id */\n      0x00\n      add\n      0x00\n        /* \"contracts/Vote/VoterContract.sol\":3119:3146  votings[voteId].id = voteId */\n      0x0100\n      exp\n      dup2\n      sload\n      dup2\n      0xffff\n      mul\n      not\n      and\n      swap1\n      dup4\n      0xffff\n      and\n      mul\n      or\n      swap1\n      sstore\n      pop\n        /* \"contracts/Vote/VoterContract.sol\":3184:3194  msg.sender */\n      caller\n        /* \"contracts/Vote/VoterContract.sol\":3157:3164  votings */\n      0x04\n        /* \"contracts/Vote/VoterContract.sol\":3157:3172  votings[voteId] */\n      0x00\n        /* \"contracts/Vote/VoterContract.sol\":3165:3171  voteId */\n      0x01\n      0x14\n      swap1\n      sload\n      swap1\n      0x0100\n      exp\n      swap1\n      div\n      0xffff\n      and\n        /* \"contracts/Vote/VoterContract.sol\":3157:3172  votings[voteId] */\n      0xffff\n      and\n      0xffff\n      and\n      dup2\n      mstore\n      0x20\n      add\n      swap1\n      dup2\n      mstore\n      0x20\n      add\n      0x00\n      keccak256\n        /* \"contracts/Vote/VoterContract.sol\":3157:3181  votings[voteId].proposer */\n      0x02\n      add\n      0x08\n        /* \"contracts/Vote/VoterContract.sol\":3157:3194  votings[voteId].proposer = msg.sender */\n      0x0100\n      exp\n      dup2\n      sload\n      dup2\n      0xffffffffffffffffffffffffffffffffffffffff\n      mul\n      not\n      and\n      swap1\n      dup4\n      0xffffffffffffffffffffffffffffffffffffffff\n      and\n      mul\n      or\n      swap1\n      sstore\n      pop\n        /* \"contracts/Vote/VoterContract.sol\":3239:3245  _topic */\n      dup2\n        /* \"contracts/Vote/VoterContract.sol\":3215:3222  votings */\n      0x04\n        /* \"contracts/Vote/VoterContract.sol\":3215:3230  votings[voteId] */\n      0x00\n        /* \"contracts/Vote/VoterContract.sol\":3223:3229  voteId */\n      0x01\n      0x14\n      swap1\n      sload\n      swap1\n      0x0100\n      exp\n      swap1\n      div\n      0xffff\n      and\n        /* \"contracts/Vote/VoterContract.sol\":3215:3230  votings[voteId] */\n      0xffff\n      and\n      0xffff\n      and\n      dup2\n      mstore\n      0x20\n      add\n      swap1\n      dup2\n      mstore\n      0x20\n      add\n      0x00\n      keccak256\n        /* \"contracts/Vote/VoterContract.sol\":3215:3236  votings[voteId].topic */\n      0x01\n      add\n        /* \"contracts/Vote/VoterContract.sol\":3215:3245  votings[voteId].topic = _topic */\n      swap1\n      dup1\n      mload\n      swap1\n      0x20\n      add\n      swap1\n      tag_331\n      swap3\n      swap2\n      swap1\n      tag_251\n      jump\t// in\n    tag_331:\n      pop\n        /* \"contracts/Vote/VoterContract.sol\":3293:3305  block.number */\n      number\n        /* \"contracts/Vote/VoterContract.sol\":3256:3263  votings */\n      0x04\n        /* \"contracts/Vote/VoterContract.sol\":3256:3271  votings[voteId] */\n      0x00\n        /* \"contracts/Vote/VoterContract.sol\":3264:3270  voteId */\n      0x01\n      0x14\n      swap1\n      sload\n      swap1\n      0x0100\n      exp\n      swap1\n      div\n      0xffff\n      and\n        /* \"contracts/Vote/VoterContract.sol\":3256:3271  votings[voteId] */\n      0xffff\n      and\n      0xffff\n      and\n      dup2\n      mstore\n      0x20\n      add\n      swap1\n      dup2\n      mstore\n      0x20\n      add\n      0x00\n      keccak256\n        /* \"contracts/Vote/VoterContract.sol\":3256:3290  votings[voteId].blockNumberStarted */\n      0x03\n      add\n        /* \"contracts/Vote/VoterContract.sol\":3256:3305  votings[voteId].blockNumberStarted = block.number */\n      dup2\n      swap1\n      sstore\n      pop\n        /* \"contracts/Vote/VoterContract.sol\":823:824  1 */\n      0x01\n        /* \"contracts/Vote/VoterContract.sol\":3362:3393  block.number + minBlockDuration */\n      0xff\n      and\n        /* \"contracts/Vote/VoterContract.sol\":3362:3374  block.number */\n      number\n        /* \"contracts/Vote/VoterContract.sol\":3362:3393  block.number + minBlockDuration */\n      tag_332\n      swap2\n      swap1\n      tag_255\n      jump\t// in\n    tag_332:\n        /* \"contracts/Vote/VoterContract.sol\":3316:3323  votings */\n      0x04\n        /* \"contracts/Vote/VoterContract.sol\":3316:3331  votings[voteId] */\n      0x00\n        /* \"contracts/Vote/VoterContract.sol\":3324:3330  voteId */\n      0x01\n      0x14\n      swap1\n      sload\n      swap1\n      0x0100\n      exp\n      swap1\n      div\n      0xffff\n      and\n        /* \"contracts/Vote/VoterContract.sol\":3316:3331  votings[voteId] */\n      0xffff\n      and\n      0xffff\n      and\n      dup2\n      mstore\n      0x20\n      add\n      swap1\n      dup2\n      mstore\n      0x20\n      add\n      0x00\n      keccak256\n        /* \"contracts/Vote/VoterContract.sol\":3316:3359  votings[voteId].blockNumberWillNotEndBefore */\n      0x04\n      add\n        /* \"contracts/Vote/VoterContract.sol\":3316:3393  votings[voteId].blockNumberWillNotEndBefore = block.number + minBlockDuration */\n      dup2\n      swap1\n      sstore\n      pop\n        /* \"contracts/Vote/VoterContract.sol\":3431:3433  10 */\n      0x0a\n        /* \"contracts/Vote/VoterContract.sol\":3406:3413  votings */\n      0x04\n        /* \"contracts/Vote/VoterContract.sol\":3406:3421  votings[voteId] */\n      0x00\n        /* \"contracts/Vote/VoterContract.sol\":3414:3420  voteId */\n      0x01\n      0x14\n      swap1\n      sload\n      swap1\n      0x0100\n      exp\n      swap1\n      div\n      0xffff\n      and\n        /* \"contracts/Vote/VoterContract.sol\":3406:3421  votings[voteId] */\n      0xffff\n      and\n      0xffff\n      and\n      dup2\n      mstore\n      0x20\n      add\n      swap1\n      dup2\n      mstore\n      0x20\n      add\n      0x00\n      keccak256\n        /* \"contracts/Vote/VoterContract.sol\":3406:3428  votings[voteId].result */\n      0x02\n      add\n      0x04\n        /* \"contracts/Vote/VoterContract.sol\":3406:3433  votings[voteId].result = 10 */\n      0x0100\n      exp\n      dup2\n      sload\n      dup2\n      0xffffffff\n      mul\n      not\n      and\n      swap1\n      dup4\n      0xffffffff\n      and\n      mul\n      or\n      swap1\n      sstore\n      pop\n        /* \"contracts/Vote/VoterContract.sol\":3468:3469  1 */\n      0x01\n        /* \"contracts/Vote/VoterContract.sol\":3444:3451  votings */\n      0x04\n        /* \"contracts/Vote/VoterContract.sol\":3444:3459  votings[voteId] */\n      0x00\n        /* \"contracts/Vote/VoterContract.sol\":3452:3458  voteId */\n      0x01\n      0x14\n      swap1\n      sload\n      swap1\n      0x0100\n      exp\n      swap1\n      div\n      0xffff\n      and\n        /* \"contracts/Vote/VoterContract.sol\":3444:3459  votings[voteId] */\n      0xffff\n      and\n      0xffff\n      and\n      dup2\n      mstore\n      0x20\n      add\n      swap1\n      dup2\n      mstore\n      0x20\n      add\n      0x00\n      keccak256\n        /* \"contracts/Vote/VoterContract.sol\":3444:3465  votings[voteId].voted */\n      0x02\n      add\n      0x00\n        /* \"contracts/Vote/VoterContract.sol\":3444:3469  votings[voteId].voted = 1 */\n      0x0100\n      exp\n      dup2\n      sload\n      dup2\n      0xffffffff\n      mul\n      not\n      and\n      swap1\n      dup4\n      0xffffffff\n      and\n      mul\n      or\n      swap1\n      sstore\n      pop\n        /* \"contracts/Vote/VoterContract.sol\":3514:3516  10 */\n      0x0a\n        /* \"contracts/Vote/VoterContract.sol\":3482:3491  votePower */\n      0x03\n        /* \"contracts/Vote/VoterContract.sol\":3482:3499  votePower[voteId] */\n      0x00\n        /* \"contracts/Vote/VoterContract.sol\":3492:3498  voteId */\n      0x01\n      0x14\n      swap1\n      sload\n      swap1\n      0x0100\n      exp\n      swap1\n      div\n      0xffff\n      and\n        /* \"contracts/Vote/VoterContract.sol\":3482:3499  votePower[voteId] */\n      0xffff\n      and\n      0xffff\n      and\n      dup2\n      mstore\n      0x20\n      add\n      swap1\n      dup2\n      mstore\n      0x20\n      add\n      0x00\n      keccak256\n        /* \"contracts/Vote/VoterContract.sol\":3482:3511  votePower[voteId][msg.sender] */\n      0x00\n        /* \"contracts/Vote/VoterContract.sol\":3500:3510  msg.sender */\n      caller\n        /* \"contracts/Vote/VoterContract.sol\":3482:3511  votePower[voteId][msg.sender] */\n      0xffffffffffffffffffffffffffffffffffffffff\n      and\n      0xffffffffffffffffffffffffffffffffffffffff\n      and\n      dup2\n      mstore\n      0x20\n      add\n      swap1\n      dup2\n      mstore\n      0x20\n      add\n      0x00\n      keccak256\n      0x00\n        /* \"contracts/Vote/VoterContract.sol\":3482:3516  votePower[voteId][msg.sender] = 10 */\n      0x0100\n      exp\n      dup2\n      sload\n      dup2\n      0xff\n      mul\n      not\n      and\n      swap1\n      dup4\n      0xff\n      and\n      mul\n      or\n      swap1\n      sstore\n      pop\n        /* \"contracts/Vote/VoterContract.sol\":3558:3577  VotingType.Proposal */\n      0x03\n        /* \"contracts/Vote/VoterContract.sol\":3529:3536  votings */\n      0x04\n        /* \"contracts/Vote/VoterContract.sol\":3529:3544  votings[voteId] */\n      0x00\n        /* \"contracts/Vote/VoterContract.sol\":3537:3543  voteId */\n      0x01\n      0x14\n      swap1\n      sload\n      swap1\n      0x0100\n      exp\n      swap1\n      div\n      0xffff\n      and\n        /* \"contracts/Vote/VoterContract.sol\":3529:3544  votings[voteId] */\n      0xffff\n      and\n      0xffff\n      and\n      dup2\n      mstore\n      0x20\n      add\n      swap1\n      dup2\n      mstore\n      0x20\n      add\n      0x00\n      keccak256\n        /* \"contracts/Vote/VoterContract.sol\":3529:3555  votings[voteId].votingType */\n      0x06\n      add\n      0x00\n        /* \"contracts/Vote/VoterContract.sol\":3529:3577  votings[voteId].votingType = VotingType.Proposal */\n      0x0100\n      exp\n      dup2\n      sload\n      dup2\n      0xff\n      mul\n      not\n      and\n      swap1\n      dup4\n      0x03\n      dup2\n      gt\n      iszero\n      tag_333\n      jumpi\n      tag_334\n      tag_97\n      jump\t// in\n    tag_334:\n    tag_333:\n      mul\n      or\n      swap1\n      sstore\n      pop\n        /* \"contracts/Vote/VoterContract.sol\":3609:3615  voteId */\n      0x01\n      0x14\n      swap1\n      sload\n      swap1\n      0x0100\n      exp\n      swap1\n      div\n      0xffff\n      and\n        /* \"contracts/Vote/VoterContract.sol\":3595:3616  VotingStarted(voteId) */\n      0xffff\n      and\n      0xa486368a4bc0a7bd18120ddeab7dbd478821fceffe1250b8c66e386d275860c7\n      mload(0x40)\n      mload(0x40)\n      dup1\n      swap2\n      sub\n      swap1\n      log2\n        /* \"contracts/Vote/VoterContract.sol\":2962:3624  function openProposal(string memory _topic) external  onlyVoters(msg.sender) isVotingEnded {\r... */\n      pop\n      pop\n      jump\t// out\n        /* \"contracts/Vote/VoterContract.sol\":1925:2019  function setKeyHolderAddress(address adr) external onlyOwner{\r... */\n    tag_67:\n        /* \"@openzeppelin/contracts/access/Ownable.sol\":1094:1107  _checkOwner() */\n      tag_336\n        /* \"@openzeppelin/contracts/access/Ownable.sol\":1094:1105  _checkOwner */\n      tag_313\n        /* \"@openzeppelin/contracts/access/Ownable.sol\":1094:1107  _checkOwner() */\n      jump\t// in\n    tag_336:\n        /* \"contracts/Vote/VoterContract.sol\":2008:2011  adr */\n      dup1\n        /* \"contracts/Vote/VoterContract.sol\":1996:2005  keyHolder */\n      0x01\n      0x00\n        /* \"contracts/Vote/VoterContract.sol\":1996:2011  keyHolder = adr */\n      0x0100\n      exp\n      dup2\n      sload\n      dup2\n      0xffffffffffffffffffffffffffffffffffffffff\n      mul\n      not\n      and\n      swap1\n      dup4\n      0xffffffffffffffffffffffffffffffffffffffff\n      and\n      mul\n      or\n      swap1\n      sstore\n      pop\n        /* \"contracts/Vote/VoterContract.sol\":1925:2019  function setKeyHolderAddress(address adr) external onlyOwner{\r... */\n      pop\n      jump\t// out\n        /* \"contracts/Vote/VoterContract.sol\":4879:5218  function closeVoting() external onlyVoters(msg.sender) {\r... */\n    tag_69:\n        /* \"contracts/Vote/VoterContract.sol\":4922:4932  msg.sender */\n      caller\n        /* \"contracts/Vote/VoterContract.sol\":1377:1387  __VOTERS__ */\n      0x02\n        /* \"contracts/Vote/VoterContract.sol\":1377:1392  __VOTERS__[adr] */\n      0x00\n        /* \"contracts/Vote/VoterContract.sol\":1388:1391  adr */\n      dup3\n        /* \"contracts/Vote/VoterContract.sol\":1377:1392  __VOTERS__[adr] */\n      0xffffffffffffffffffffffffffffffffffffffff\n      and\n      0xffffffffffffffffffffffffffffffffffffffff\n      and\n      dup2\n      mstore\n      0x20\n      add\n      swap1\n      dup2\n      mstore\n      0x20\n      add\n      0x00\n      keccak256\n      0x00\n      swap1\n      sload\n      swap1\n      0x0100\n      exp\n      swap1\n      div\n      0xff\n      and\n        /* \"contracts/Vote/VoterContract.sol\":1369:1416  require(__VOTERS__[adr],\"You are not a voterr\") */\n      tag_339\n      jumpi\n      mload(0x40)\n      0x08c379a000000000000000000000000000000000000000000000000000000000\n      dup2\n      mstore\n      0x04\n      add\n      tag_340\n      swap1\n      tag_219\n      jump\t// in\n    tag_340:\n      mload(0x40)\n      dup1\n      swap2\n      sub\n      swap1\n      revert\n    tag_339:\n        /* \"contracts/Vote/VoterContract.sol\":4967:4974  votings */\n      0x04\n        /* \"contracts/Vote/VoterContract.sol\":4967:4982  votings[voteId] */\n      0x00\n        /* \"contracts/Vote/VoterContract.sol\":4975:4981  voteId */\n      0x01\n      0x14\n      swap1\n      sload\n      swap1\n      0x0100\n      exp\n      swap1\n      div\n      0xffff\n      and\n        /* \"contracts/Vote/VoterContract.sol\":4967:4982  votings[voteId] */\n      0xffff\n      and\n      0xffff\n      and\n      dup2\n      mstore\n      0x20\n      add\n      swap1\n      dup2\n      mstore\n      0x20\n      add\n      0x00\n      keccak256\n        /* \"contracts/Vote/VoterContract.sol\":4967:5010  votings[voteId].blockNumberWillNotEndBefore */\n      0x04\n      add\n      sload\n        /* \"contracts/Vote/VoterContract.sol\":4953:4965  block.number */\n      number\n        /* \"contracts/Vote/VoterContract.sol\":4953:5010  block.number>=votings[voteId].blockNumberWillNotEndBefore */\n      lt\n      iszero\n        /* \"contracts/Vote/VoterContract.sol\":4945:5071  require(block.number>=votings[voteId].blockNumberWillNotEndBefore,\"Even owner cannot end voting before it has designated to.\") */\n      tag_342\n      jumpi\n      mload(0x40)\n      0x08c379a000000000000000000000000000000000000000000000000000000000\n      dup2\n      mstore\n      0x04\n      add\n      tag_343\n      swap1\n      tag_230\n      jump\t// in\n    tag_343:\n      mload(0x40)\n      dup1\n      swap2\n      sub\n      swap1\n      revert\n    tag_342:\n        /* \"contracts/Vote/VoterContract.sol\":5118:5135  VotingType.Closed */\n      0x00\n        /* \"contracts/Vote/VoterContract.sol\":5090:5135  votings[voteId].votingType!=VotingType.Closed */\n      0x03\n      dup2\n      gt\n      iszero\n      tag_344\n      jumpi\n      tag_345\n      tag_97\n      jump\t// in\n    tag_345:\n    tag_344:\n        /* \"contracts/Vote/VoterContract.sol\":5090:5097  votings */\n      0x04\n        /* \"contracts/Vote/VoterContract.sol\":5090:5105  votings[voteId] */\n      0x00\n        /* \"contracts/Vote/VoterContract.sol\":5098:5104  voteId */\n      0x01\n      0x14\n      swap1\n      sload\n      swap1\n      0x0100\n      exp\n      swap1\n      div\n      0xffff\n      and\n        /* \"contracts/Vote/VoterContract.sol\":5090:5105  votings[voteId] */\n      0xffff\n      and\n      0xffff\n      and\n      dup2\n      mstore\n      0x20\n      add\n      swap1\n      dup2\n      mstore\n      0x20\n      add\n      0x00\n      keccak256\n        /* \"contracts/Vote/VoterContract.sol\":5090:5116  votings[voteId].votingType */\n      0x06\n      add\n      0x00\n      swap1\n      sload\n      swap1\n      0x0100\n      exp\n      swap1\n      div\n      0xff\n      and\n        /* \"contracts/Vote/VoterContract.sol\":5090:5135  votings[voteId].votingType!=VotingType.Closed */\n      0x03\n      dup2\n      gt\n      iszero\n      tag_346\n      jumpi\n      tag_347\n      tag_97\n      jump\t// in\n    tag_347:\n    tag_346:\n      eq\n      iszero\n        /* \"contracts/Vote/VoterContract.sol\":5090:5184  votings[voteId].votingType!=VotingType.Closed&&votings[voteId].votingType!=VotingType.Proposal */\n      dup1\n      iszero\n      tag_348\n      jumpi\n      pop\n        /* \"contracts/Vote/VoterContract.sol\":5165:5184  VotingType.Proposal */\n      0x03\n        /* \"contracts/Vote/VoterContract.sol\":5137:5184  votings[voteId].votingType!=VotingType.Proposal */\n      dup1\n      dup2\n      gt\n      iszero\n      tag_349\n      jumpi\n      tag_350\n      tag_97\n      jump\t// in\n    tag_350:\n    tag_349:\n        /* \"contracts/Vote/VoterContract.sol\":5137:5144  votings */\n      0x04\n        /* \"contracts/Vote/VoterContract.sol\":5137:5152  votings[voteId] */\n      0x00\n        /* \"contracts/Vote/VoterContract.sol\":5145:5151  voteId */\n      0x01\n      0x14\n      swap1\n      sload\n      swap1\n      0x0100\n      exp\n      swap1\n      div\n      0xffff\n      and\n        /* \"contracts/Vote/VoterContract.sol\":5137:5152  votings[voteId] */\n      0xffff\n      and\n      0xffff\n      and\n      dup2\n      mstore\n      0x20\n      add\n      swap1\n      dup2\n      mstore\n      0x20\n      add\n      0x00\n      keccak256\n        /* \"contracts/Vote/VoterContract.sol\":5137:5163  votings[voteId].votingType */\n      0x06\n      add\n      0x00\n      swap1\n      sload\n      swap1\n      0x0100\n      exp\n      swap1\n      div\n      0xff\n      and\n        /* \"contracts/Vote/VoterContract.sol\":5137:5184  votings[voteId].votingType!=VotingType.Proposal */\n      0x03\n      dup2\n      gt\n      iszero\n      tag_351\n      jumpi\n      tag_352\n      tag_97\n      jump\t// in\n    tag_352:\n    tag_351:\n      eq\n      iszero\n        /* \"contracts/Vote/VoterContract.sol\":5090:5184  votings[voteId].votingType!=VotingType.Closed&&votings[voteId].votingType!=VotingType.Proposal */\n    tag_348:\n        /* \"contracts/Vote/VoterContract.sol\":5082:5185  require(votings[voteId].votingType!=VotingType.Closed&&votings[voteId].votingType!=VotingType.Proposal) */\n      tag_353\n      jumpi\n      0x00\n      dup1\n      revert\n    tag_353:\n        /* \"contracts/Vote/VoterContract.sol\":5196:5210  _closeVoting() */\n      tag_354\n        /* \"contracts/Vote/VoterContract.sol\":5196:5208  _closeVoting */\n      tag_355\n        /* \"contracts/Vote/VoterContract.sol\":5196:5210  _closeVoting() */\n      jump\t// in\n    tag_354:\n        /* \"contracts/Vote/VoterContract.sol\":4879:5218  function closeVoting() external onlyVoters(msg.sender) {\r... */\n      pop\n      jump\t// out\n        /* \"contracts/Vote/VoterContract.sol\":7861:7968  function whatDidIVote() external view returns(uint8){\r... */\n    tag_71:\n        /* \"contracts/Vote/VoterContract.sol\":7907:7912  uint8 */\n      0x00\n        /* \"contracts/Vote/VoterContract.sol\":7931:7940  votePower */\n      0x03\n        /* \"contracts/Vote/VoterContract.sol\":7931:7948  votePower[voteId] */\n      0x00\n        /* \"contracts/Vote/VoterContract.sol\":7941:7947  voteId */\n      0x01\n      0x14\n      swap1\n      sload\n      swap1\n      0x0100\n      exp\n      swap1\n      div\n      0xffff\n      and\n        /* \"contracts/Vote/VoterContract.sol\":7931:7948  votePower[voteId] */\n      0xffff\n      and\n      0xffff\n      and\n      dup2\n      mstore\n      0x20\n      add\n      swap1\n      dup2\n      mstore\n      0x20\n      add\n      0x00\n      keccak256\n        /* \"contracts/Vote/VoterContract.sol\":7931:7960  votePower[voteId][msg.sender] */\n      0x00\n        /* \"contracts/Vote/VoterContract.sol\":7949:7959  msg.sender */\n      caller\n        /* \"contracts/Vote/VoterContract.sol\":7931:7960  votePower[voteId][msg.sender] */\n      0xffffffffffffffffffffffffffffffffffffffff\n      and\n      0xffffffffffffffffffffffffffffffffffffffff\n      and\n      dup2\n      mstore\n      0x20\n      add\n      swap1\n      dup2\n      mstore\n      0x20\n      add\n      0x00\n      keccak256\n      0x00\n      swap1\n      sload\n      swap1\n      0x0100\n      exp\n      swap1\n      div\n      0xff\n      and\n        /* \"contracts/Vote/VoterContract.sol\":7924:7960  return votePower[voteId][msg.sender] */\n      swap1\n      pop\n        /* \"contracts/Vote/VoterContract.sol\":7861:7968  function whatDidIVote() external view returns(uint8){\r... */\n      swap1\n      jump\t// out\n        /* \"contracts/Vote/VoterContract.sol\":985:1025  mapping(uint16 => Voting) public votings */\n    tag_77:\n      mstore(0x20, 0x04)\n      dup1\n      0x00\n      mstore\n      keccak256(0x00, 0x40)\n      0x00\n      swap2\n      pop\n      swap1\n      pop\n      dup1\n      0x00\n      add\n      0x00\n      swap1\n      sload\n      swap1\n      0x0100\n      exp\n      swap1\n      div\n      0xffff\n      and\n      swap1\n      dup1\n      0x01\n      add\n      dup1\n      sload\n      tag_357\n      swap1\n      tag_140\n      jump\t// in\n    tag_357:\n      dup1\n      0x1f\n      add\n      0x20\n      dup1\n      swap2\n      div\n      mul\n      0x20\n      add\n      mload(0x40)\n      swap1\n      dup2\n      add\n      0x40\n      mstore\n      dup1\n      swap3\n      swap2\n      swap1\n      dup2\n      dup2\n      mstore\n      0x20\n      add\n      dup3\n      dup1\n      sload\n      tag_358\n      swap1\n      tag_140\n      jump\t// in\n    tag_358:\n      dup1\n      iszero\n      tag_359\n      jumpi\n      dup1\n      0x1f\n      lt\n      tag_360\n      jumpi\n      0x0100\n      dup1\n      dup4\n      sload\n      div\n      mul\n      dup4\n      mstore\n      swap2\n      0x20\n      add\n      swap2\n      jump(tag_359)\n    tag_360:\n      dup3\n      add\n      swap2\n      swap1\n      0x00\n      mstore\n      keccak256(0x00, 0x20)\n      swap1\n    tag_361:\n      dup2\n      sload\n      dup2\n      mstore\n      swap1\n      0x01\n      add\n      swap1\n      0x20\n      add\n      dup1\n      dup4\n      gt\n      tag_361\n      jumpi\n      dup3\n      swap1\n      sub\n      0x1f\n      and\n      dup3\n      add\n      swap2\n    tag_359:\n      pop\n      pop\n      pop\n      pop\n      pop\n      swap1\n      dup1\n      0x02\n      add\n      0x00\n      swap1\n      sload\n      swap1\n      0x0100\n      exp\n      swap1\n      div\n      0xffffffff\n      and\n      swap1\n      dup1\n      0x02\n      add\n      0x04\n      swap1\n      sload\n      swap1\n      0x0100\n      exp\n      swap1\n      div\n      0xffffffff\n      and\n      swap1\n      dup1\n      0x02\n      add\n      0x08\n      swap1\n      sload\n      swap1\n      0x0100\n      exp\n      swap1\n      div\n      0xffffffffffffffffffffffffffffffffffffffff\n      and\n      swap1\n      dup1\n      0x03\n      add\n      sload\n      swap1\n      dup1\n      0x04\n      add\n      sload\n      swap1\n      dup1\n      0x05\n      add\n      sload\n      swap1\n      dup1\n      0x06\n      add\n      0x00\n      swap1\n      sload\n      swap1\n      0x0100\n      exp\n      swap1\n      div\n      0xff\n      and\n      swap1\n      pop\n      dup10\n      jump\t// out\n        /* \"contracts/Vote/VoterContract.sol\":2027:2304  function giveVotingPower(address voterAddress) external onlyKeyHolder noZeroAddress(voterAddress) {\r... */\n    tag_82:\n        /* \"contracts/Vote/VoterContract.sol\":1252:1261  keyHolder */\n      0x01\n      0x00\n      swap1\n      sload\n      swap1\n      0x0100\n      exp\n      swap1\n      div\n      0xffffffffffffffffffffffffffffffffffffffff\n      and\n        /* \"contracts/Vote/VoterContract.sol\":1238:1261  msg.sender == keyHolder */\n      0xffffffffffffffffffffffffffffffffffffffff\n      and\n        /* \"contracts/Vote/VoterContract.sol\":1238:1248  msg.sender */\n      caller\n        /* \"contracts/Vote/VoterContract.sol\":1238:1261  msg.sender == keyHolder */\n      0xffffffffffffffffffffffffffffffffffffffff\n      and\n      eq\n        /* \"contracts/Vote/VoterContract.sol\":1230:1298  require(msg.sender == keyHolder,\"You are not the KeyHolderContract\") */\n      tag_363\n      jumpi\n      mload(0x40)\n      0x08c379a000000000000000000000000000000000000000000000000000000000\n      dup2\n      mstore\n      0x04\n      add\n      tag_364\n      swap1\n      tag_365\n      jump\t// in\n    tag_364:\n      mload(0x40)\n      dup1\n      swap2\n      sub\n      swap1\n      revert\n    tag_363:\n        /* \"contracts/Vote/VoterContract.sol\":2111:2123  voterAddress */\n      dup1\n        /* \"contracts/Vote/VoterContract.sol\":1144:1145  0 */\n      0x00\n        /* \"contracts/Vote/VoterContract.sol\":1131:1146  adr!=address(0) */\n      0xffffffffffffffffffffffffffffffffffffffff\n      and\n        /* \"contracts/Vote/VoterContract.sol\":1131:1134  adr */\n      dup2\n        /* \"contracts/Vote/VoterContract.sol\":1131:1146  adr!=address(0) */\n      0xffffffffffffffffffffffffffffffffffffffff\n      and\n      eq\n      iszero\n        /* \"contracts/Vote/VoterContract.sol\":1123:1170  require(adr!=address(0),\"Zero Address entered\") */\n      tag_367\n      jumpi\n      mload(0x40)\n      0x08c379a000000000000000000000000000000000000000000000000000000000\n      dup2\n      mstore\n      0x04\n      add\n      tag_368\n      swap1\n      tag_369\n      jump\t// in\n    tag_368:\n      mload(0x40)\n      dup1\n      swap2\n      sub\n      swap1\n      revert\n    tag_367:\n        /* \"contracts/Vote/VoterContract.sol\":2145:2155  __VOTERS__ */\n      0x02\n        /* \"contracts/Vote/VoterContract.sol\":2145:2169  __VOTERS__[voterAddress] */\n      0x00\n        /* \"contracts/Vote/VoterContract.sol\":2156:2168  voterAddress */\n      dup4\n        /* \"contracts/Vote/VoterContract.sol\":2145:2169  __VOTERS__[voterAddress] */\n      0xffffffffffffffffffffffffffffffffffffffff\n      and\n      0xffffffffffffffffffffffffffffffffffffffff\n      and\n      dup2\n      mstore\n      0x20\n      add\n      swap1\n      dup2\n      mstore\n      0x20\n      add\n      0x00\n      keccak256\n      0x00\n      swap1\n      sload\n      swap1\n      0x0100\n      exp\n      swap1\n      div\n      0xff\n      and\n        /* \"contracts/Vote/VoterContract.sol\":2144:2169  !__VOTERS__[voterAddress] */\n      iszero\n        /* \"contracts/Vote/VoterContract.sol\":2136:2206  require(!__VOTERS__[voterAddress],\"Given address is already a voter.\") */\n      tag_371\n      jumpi\n      mload(0x40)\n      0x08c379a000000000000000000000000000000000000000000000000000000000\n      dup2\n      mstore\n      0x04\n      add\n      tag_372\n      swap1\n      tag_373\n      jump\t// in\n    tag_372:\n      mload(0x40)\n      dup1\n      swap2\n      sub\n      swap1\n      revert\n    tag_371:\n        /* \"contracts/Vote/VoterContract.sol\":2253:2254  1 */\n      0x01\n        /* \"contracts/Vote/VoterContract.sol\":2235:2250  totalVoterCount */\n      0x05\n      0x00\n      swap1\n      sload\n      swap1\n      0x0100\n      exp\n      swap1\n      div\n      0xffff\n      and\n        /* \"contracts/Vote/VoterContract.sol\":2235:2254  totalVoterCount + 1 */\n      tag_374\n      swap2\n      swap1\n      tag_236\n      jump\t// in\n    tag_374:\n        /* \"contracts/Vote/VoterContract.sol\":2217:2232  totalVoterCount */\n      0x05\n      0x00\n        /* \"contracts/Vote/VoterContract.sol\":2217:2254  totalVoterCount = totalVoterCount + 1 */\n      0x0100\n      exp\n      dup2\n      sload\n      dup2\n      0xffff\n      mul\n      not\n      and\n      swap1\n      dup4\n      0xffff\n      and\n      mul\n      or\n      swap1\n      sstore\n      pop\n        /* \"contracts/Vote/VoterContract.sol\":2292:2296  true */\n      0x01\n        /* \"contracts/Vote/VoterContract.sol\":2265:2275  __VOTERS__ */\n      0x02\n        /* \"contracts/Vote/VoterContract.sol\":2265:2289  __VOTERS__[voterAddress] */\n      0x00\n        /* \"contracts/Vote/VoterContract.sol\":2276:2288  voterAddress */\n      dup5\n        /* \"contracts/Vote/VoterContract.sol\":2265:2289  __VOTERS__[voterAddress] */\n      0xffffffffffffffffffffffffffffffffffffffff\n      and\n      0xffffffffffffffffffffffffffffffffffffffff\n      and\n      dup2\n      mstore\n      0x20\n      add\n      swap1\n      dup2\n      mstore\n      0x20\n      add\n      0x00\n      keccak256\n      0x00\n        /* \"contracts/Vote/VoterContract.sol\":2265:2296  __VOTERS__[voterAddress] = true */\n      0x0100\n      exp\n      dup2\n      sload\n      dup2\n      0xff\n      mul\n      not\n      and\n      swap1\n      dup4\n      iszero\n      iszero\n      mul\n      or\n      swap1\n      sstore\n      pop\n        /* \"contracts/Vote/VoterContract.sol\":1309:1310  _ */\n      pop\n        /* \"contracts/Vote/VoterContract.sol\":2027:2304  function giveVotingPower(address voterAddress) external onlyKeyHolder noZeroAddress(voterAddress) {\r... */\n      pop\n      jump\t// out\n        /* \"@openzeppelin/contracts/access/Ownable.sol\":2074:2272  function transferOwnership(address newOwner) public virtual onlyOwner {... */\n    tag_85:\n        /* \"@openzeppelin/contracts/access/Ownable.sol\":1094:1107  _checkOwner() */\n      tag_376\n        /* \"@openzeppelin/contracts/access/Ownable.sol\":1094:1105  _checkOwner */\n      tag_313\n        /* \"@openzeppelin/contracts/access/Ownable.sol\":1094:1107  _checkOwner() */\n      jump\t// in\n    tag_376:\n        /* \"@openzeppelin/contracts/access/Ownable.sol\":2182:2183  0 */\n      0x00\n        /* \"@openzeppelin/contracts/access/Ownable.sol\":2162:2184  newOwner != address(0) */\n      0xffffffffffffffffffffffffffffffffffffffff\n      and\n        /* \"@openzeppelin/contracts/access/Ownable.sol\":2162:2170  newOwner */\n      dup2\n        /* \"@openzeppelin/contracts/access/Ownable.sol\":2162:2184  newOwner != address(0) */\n      0xffffffffffffffffffffffffffffffffffffffff\n      and\n      eq\n      iszero\n        /* \"@openzeppelin/contracts/access/Ownable.sol\":2154:2227  require(newOwner != address(0), \"Ownable: new owner is the zero address\") */\n      tag_378\n      jumpi\n      mload(0x40)\n      0x08c379a000000000000000000000000000000000000000000000000000000000\n      dup2\n      mstore\n      0x04\n      add\n      tag_379\n      swap1\n      tag_380\n      jump\t// in\n    tag_379:\n      mload(0x40)\n      dup1\n      swap2\n      sub\n      swap1\n      revert\n    tag_378:\n        /* \"@openzeppelin/contracts/access/Ownable.sol\":2237:2265  _transferOwnership(newOwner) */\n      tag_381\n        /* \"@openzeppelin/contracts/access/Ownable.sol\":2256:2264  newOwner */\n      dup2\n        /* \"@openzeppelin/contracts/access/Ownable.sol\":2237:2255  _transferOwnership */\n      tag_316\n        /* \"@openzeppelin/contracts/access/Ownable.sol\":2237:2265  _transferOwnership(newOwner) */\n      jump\t// in\n    tag_381:\n        /* \"@openzeppelin/contracts/access/Ownable.sol\":2074:2272  function transferOwnership(address newOwner) public virtual onlyOwner {... */\n      pop\n      jump\t// out\n        /* \"contracts/Vote/VoterContract.sol\":2312:2950  function openVoting(VotingType _votingType,uint256 _votingDurationBasedBlockNumber,string calldata _topic) external onlyOwner isVotingEnded {\r... */\n    tag_89:\n        /* \"@openzeppelin/contracts/access/Ownable.sol\":1094:1107  _checkOwner() */\n      tag_383\n        /* \"@openzeppelin/contracts/access/Ownable.sol\":1094:1105  _checkOwner */\n      tag_313\n        /* \"@openzeppelin/contracts/access/Ownable.sol\":1094:1107  _checkOwner() */\n      jump\t// in\n    tag_383:\n        /* \"contracts/Vote/VoterContract.sol\":1844:1861  VotingType.Closed */\n      0x00\n        /* \"contracts/Vote/VoterContract.sol\":1816:1861  votings[voteId].votingType==VotingType.Closed */\n      0x03\n      dup2\n      gt\n      iszero\n      tag_385\n      jumpi\n      tag_386\n      tag_97\n      jump\t// in\n    tag_386:\n    tag_385:\n        /* \"contracts/Vote/VoterContract.sol\":1816:1823  votings */\n      0x04\n        /* \"contracts/Vote/VoterContract.sol\":1816:1831  votings[voteId] */\n      0x00\n        /* \"contracts/Vote/VoterContract.sol\":1824:1830  voteId */\n      0x01\n      0x14\n      swap1\n      sload\n      swap1\n      0x0100\n      exp\n      swap1\n      div\n      0xffff\n      and\n        /* \"contracts/Vote/VoterContract.sol\":1816:1831  votings[voteId] */\n      0xffff\n      and\n      0xffff\n      and\n      dup2\n      mstore\n      0x20\n      add\n      swap1\n      dup2\n      mstore\n      0x20\n      add\n      0x00\n      keccak256\n        /* \"contracts/Vote/VoterContract.sol\":1816:1842  votings[voteId].votingType */\n      0x06\n      add\n      0x00\n      swap1\n      sload\n      swap1\n      0x0100\n      exp\n      swap1\n      div\n      0xff\n      and\n        /* \"contracts/Vote/VoterContract.sol\":1816:1861  votings[voteId].votingType==VotingType.Closed */\n      0x03\n      dup2\n      gt\n      iszero\n      tag_387\n      jumpi\n      tag_388\n      tag_97\n      jump\t// in\n    tag_388:\n    tag_387:\n      eq\n        /* \"contracts/Vote/VoterContract.sol\":1808:1897  require(votings[voteId].votingType==VotingType.Closed,\"Current voting is not ended yet.\") */\n      tag_389\n      jumpi\n      mload(0x40)\n      0x08c379a000000000000000000000000000000000000000000000000000000000\n      dup2\n      mstore\n      0x04\n      add\n      tag_390\n      swap1\n      tag_328\n      jump\t// in\n    tag_390:\n      mload(0x40)\n      dup1\n      swap2\n      sub\n      swap1\n      revert\n    tag_389:\n        /* \"contracts/Vote/VoterContract.sol\":2484:2501  VotingType.Closed */\n      0x00\n        /* \"contracts/Vote/VoterContract.sol\":2471:2501  _votingType!=VotingType.Closed */\n      0x03\n      dup2\n      gt\n      iszero\n      tag_392\n      jumpi\n      tag_393\n      tag_97\n      jump\t// in\n    tag_393:\n    tag_392:\n        /* \"contracts/Vote/VoterContract.sol\":2471:2482  _votingType */\n      dup5\n        /* \"contracts/Vote/VoterContract.sol\":2471:2501  _votingType!=VotingType.Closed */\n      0x03\n      dup2\n      gt\n      iszero\n      tag_394\n      jumpi\n      tag_395\n      tag_97\n      jump\t// in\n    tag_395:\n    tag_394:\n      eq\n      iszero\n        /* \"contracts/Vote/VoterContract.sol\":2463:2502  require(_votingType!=VotingType.Closed) */\n      tag_396\n      jumpi\n      0x00\n      dup1\n      revert\n    tag_396:\n        /* \"contracts/Vote/VoterContract.sol\":2536:2542  voteId */\n      0x01\n      0x14\n      swap1\n      sload\n      swap1\n      0x0100\n      exp\n      swap1\n      div\n      0xffff\n      and\n        /* \"contracts/Vote/VoterContract.sol\":2515:2522  votings */\n      0x04\n        /* \"contracts/Vote/VoterContract.sol\":2515:2530  votings[voteId] */\n      0x00\n        /* \"contracts/Vote/VoterContract.sol\":2523:2529  voteId */\n      0x01\n      0x14\n      swap1\n      sload\n      swap1\n      0x0100\n      exp\n      swap1\n      div\n      0xffff\n      and\n        /* \"contracts/Vote/VoterContract.sol\":2515:2530  votings[voteId] */\n      0xffff\n      and\n      0xffff\n      and\n      dup2\n      mstore\n      0x20\n      add\n      swap1\n      dup2\n      mstore\n      0x20\n      add\n      0x00\n      keccak256\n        /* \"contracts/Vote/VoterContract.sol\":2515:2533  votings[voteId].id */\n      0x00\n      add\n      0x00\n        /* \"contracts/Vote/VoterContract.sol\":2515:2542  votings[voteId].id = voteId */\n      0x0100\n      exp\n      dup2\n      sload\n      dup2\n      0xffff\n      mul\n      not\n      and\n      swap1\n      dup4\n      0xffff\n      and\n      mul\n      or\n      swap1\n      sstore\n      pop\n        /* \"contracts/Vote/VoterContract.sol\":2580:2590  msg.sender */\n      caller\n        /* \"contracts/Vote/VoterContract.sol\":2553:2560  votings */\n      0x04\n        /* \"contracts/Vote/VoterContract.sol\":2553:2568  votings[voteId] */\n      0x00\n        /* \"contracts/Vote/VoterContract.sol\":2561:2567  voteId */\n      0x01\n      0x14\n      swap1\n      sload\n      swap1\n      0x0100\n      exp\n      swap1\n      div\n      0xffff\n      and\n        /* \"contracts/Vote/VoterContract.sol\":2553:2568  votings[voteId] */\n      0xffff\n      and\n      0xffff\n      and\n      dup2\n      mstore\n      0x20\n      add\n      swap1\n      dup2\n      mstore\n      0x20\n      add\n      0x00\n      keccak256\n        /* \"contracts/Vote/VoterContract.sol\":2553:2577  votings[voteId].proposer */\n      0x02\n      add\n      0x08\n        /* \"contracts/Vote/VoterContract.sol\":2553:2590  votings[voteId].proposer = msg.sender */\n      0x0100\n      exp\n      dup2\n      sload\n      dup2\n      0xffffffffffffffffffffffffffffffffffffffff\n      mul\n      not\n      and\n      swap1\n      dup4\n      0xffffffffffffffffffffffffffffffffffffffff\n      and\n      mul\n      or\n      swap1\n      sstore\n      pop\n        /* \"contracts/Vote/VoterContract.sol\":2627:2633  _topic */\n      dup2\n      dup2\n        /* \"contracts/Vote/VoterContract.sol\":2603:2610  votings */\n      0x04\n        /* \"contracts/Vote/VoterContract.sol\":2603:2618  votings[voteId] */\n      0x00\n        /* \"contracts/Vote/VoterContract.sol\":2611:2617  voteId */\n      0x01\n      0x14\n      swap1\n      sload\n      swap1\n      0x0100\n      exp\n      swap1\n      div\n      0xffff\n      and\n        /* \"contracts/Vote/VoterContract.sol\":2603:2618  votings[voteId] */\n      0xffff\n      and\n      0xffff\n      and\n      dup2\n      mstore\n      0x20\n      add\n      swap1\n      dup2\n      mstore\n      0x20\n      add\n      0x00\n      keccak256\n        /* \"contracts/Vote/VoterContract.sol\":2603:2624  votings[voteId].topic */\n      0x01\n      add\n        /* \"contracts/Vote/VoterContract.sol\":2603:2633  votings[voteId].topic = _topic */\n      swap2\n      swap1\n      tag_397\n      swap3\n      swap2\n      swap1\n      tag_398\n      jump\t// in\n    tag_397:\n      pop\n        /* \"contracts/Vote/VoterContract.sol\":2681:2693  block.number */\n      number\n        /* \"contracts/Vote/VoterContract.sol\":2644:2651  votings */\n      0x04\n        /* \"contracts/Vote/VoterContract.sol\":2644:2659  votings[voteId] */\n      0x00\n        /* \"contracts/Vote/VoterContract.sol\":2652:2658  voteId */\n      0x01\n      0x14\n      swap1\n      sload\n      swap1\n      0x0100\n      exp\n      swap1\n      div\n      0xffff\n      and\n        /* \"contracts/Vote/VoterContract.sol\":2644:2659  votings[voteId] */\n      0xffff\n      and\n      0xffff\n      and\n      dup2\n      mstore\n      0x20\n      add\n      swap1\n      dup2\n      mstore\n      0x20\n      add\n      0x00\n      keccak256\n        /* \"contracts/Vote/VoterContract.sol\":2644:2678  votings[voteId].blockNumberStarted */\n      0x03\n      add\n        /* \"contracts/Vote/VoterContract.sol\":2644:2693  votings[voteId].blockNumberStarted = block.number */\n      dup2\n      swap1\n      sstore\n      pop\n        /* \"contracts/Vote/VoterContract.sol\":2765:2796  _votingDurationBasedBlockNumber */\n      dup3\n        /* \"contracts/Vote/VoterContract.sol\":2750:2762  block.number */\n      number\n        /* \"contracts/Vote/VoterContract.sol\":2750:2796  block.number + _votingDurationBasedBlockNumber */\n      tag_399\n      swap2\n      swap1\n      tag_255\n      jump\t// in\n    tag_399:\n        /* \"contracts/Vote/VoterContract.sol\":2704:2711  votings */\n      0x04\n        /* \"contracts/Vote/VoterContract.sol\":2704:2719  votings[voteId] */\n      0x00\n        /* \"contracts/Vote/VoterContract.sol\":2712:2718  voteId */\n      0x01\n      0x14\n      swap1\n      sload\n      swap1\n      0x0100\n      exp\n      swap1\n      div\n      0xffff\n      and\n        /* \"contracts/Vote/VoterContract.sol\":2704:2719  votings[voteId] */\n      0xffff\n      and\n      0xffff\n      and\n      dup2\n      mstore\n      0x20\n      add\n      swap1\n      dup2\n      mstore\n      0x20\n      add\n      0x00\n      keccak256\n        /* \"contracts/Vote/VoterContract.sol\":2704:2747  votings[voteId].blockNumberWillNotEndBefore */\n      0x04\n      add\n        /* \"contracts/Vote/VoterContract.sol\":2704:2796  votings[voteId].blockNumberWillNotEndBefore = block.number + _votingDurationBasedBlockNumber */\n      dup2\n      swap1\n      sstore\n      pop\n        /* \"contracts/Vote/VoterContract.sol\":2836:2837  0 */\n      0x00\n        /* \"contracts/Vote/VoterContract.sol\":2811:2818  votings */\n      0x04\n        /* \"contracts/Vote/VoterContract.sol\":2811:2826  votings[voteId] */\n      0x00\n        /* \"contracts/Vote/VoterContract.sol\":2819:2825  voteId */\n      0x01\n      0x14\n      swap1\n      sload\n      swap1\n      0x0100\n      exp\n      swap1\n      div\n      0xffff\n      and\n        /* \"contracts/Vote/VoterContract.sol\":2811:2826  votings[voteId] */\n      0xffff\n      and\n      0xffff\n      and\n      dup2\n      mstore\n      0x20\n      add\n      swap1\n      dup2\n      mstore\n      0x20\n      add\n      0x00\n      keccak256\n        /* \"contracts/Vote/VoterContract.sol\":2811:2833  votings[voteId].result */\n      0x02\n      add\n      0x04\n        /* \"contracts/Vote/VoterContract.sol\":2811:2837  votings[voteId].result = 0 */\n      0x0100\n      exp\n      dup2\n      sload\n      dup2\n      0xffffffff\n      mul\n      not\n      and\n      swap1\n      dup4\n      0xffffffff\n      and\n      mul\n      or\n      swap1\n      sstore\n      pop\n        /* \"contracts/Vote/VoterContract.sol\":2872:2873  0 */\n      0x00\n        /* \"contracts/Vote/VoterContract.sol\":2848:2855  votings */\n      0x04\n        /* \"contracts/Vote/VoterContract.sol\":2848:2863  votings[voteId] */\n      0x00\n        /* \"contracts/Vote/VoterContract.sol\":2856:2862  voteId */\n      0x01\n      0x14\n      swap1\n      sload\n      swap1\n      0x0100\n      exp\n      swap1\n      div\n      0xffff\n      and\n        /* \"contracts/Vote/VoterContract.sol\":2848:2863  votings[voteId] */\n      0xffff\n      and\n      0xffff\n      and\n      dup2\n      mstore\n      0x20\n      add\n      swap1\n      dup2\n      mstore\n      0x20\n      add\n      0x00\n      keccak256\n        /* \"contracts/Vote/VoterContract.sol\":2848:2869  votings[voteId].voted */\n      0x02\n      add\n      0x00\n        /* \"contracts/Vote/VoterContract.sol\":2848:2873  votings[voteId].voted = 0 */\n      0x0100\n      exp\n      dup2\n      sload\n      dup2\n      0xffffffff\n      mul\n      not\n      and\n      swap1\n      dup4\n      0xffffffff\n      and\n      mul\n      or\n      swap1\n      sstore\n      pop\n        /* \"contracts/Vote/VoterContract.sol\":2915:2926  _votingType */\n      dup4\n        /* \"contracts/Vote/VoterContract.sol\":2886:2893  votings */\n      0x04\n        /* \"contracts/Vote/VoterContract.sol\":2886:2901  votings[voteId] */\n      0x00\n        /* \"contracts/Vote/VoterContract.sol\":2894:2900  voteId */\n      0x01\n      0x14\n      swap1\n      sload\n      swap1\n      0x0100\n      exp\n      swap1\n      div\n      0xffff\n      and\n        /* \"contracts/Vote/VoterContract.sol\":2886:2901  votings[voteId] */\n      0xffff\n      and\n      0xffff\n      and\n      dup2\n      mstore\n      0x20\n      add\n      swap1\n      dup2\n      mstore\n      0x20\n      add\n      0x00\n      keccak256\n        /* \"contracts/Vote/VoterContract.sol\":2886:2912  votings[voteId].votingType */\n      0x06\n      add\n      0x00\n        /* \"contracts/Vote/VoterContract.sol\":2886:2926  votings[voteId].votingType = _votingType */\n      0x0100\n      exp\n      dup2\n      sload\n      dup2\n      0xff\n      mul\n      not\n      and\n      swap1\n      dup4\n      0x03\n      dup2\n      gt\n      iszero\n      tag_400\n      jumpi\n      tag_401\n      tag_97\n      jump\t// in\n    tag_401:\n    tag_400:\n      mul\n      or\n      swap1\n      sstore\n      pop\n        /* \"contracts/Vote/VoterContract.sol\":2312:2950  function openVoting(VotingType _votingType,uint256 _votingDurationBasedBlockNumber,string calldata _topic) external onlyOwner isVotingEnded {\r... */\n      pop\n      pop\n      pop\n      pop\n      jump\t// out\n        /* \"contracts/Vote/VoterContract.sol\":833:857  uint16 public voteId = 0 */\n    tag_91:\n      0x01\n      0x14\n      swap1\n      sload\n      swap1\n      0x0100\n      exp\n      swap1\n      div\n      0xffff\n      and\n      dup2\n      jump\t// out\n        /* \"@openzeppelin/contracts/access/Ownable.sol\":1359:1489  function _checkOwner() internal view virtual {... */\n    tag_313:\n        /* \"@openzeppelin/contracts/access/Ownable.sol\":1433:1445  _msgSender() */\n      tag_403\n        /* \"@openzeppelin/contracts/access/Ownable.sol\":1433:1443  _msgSender */\n      tag_404\n        /* \"@openzeppelin/contracts/access/Ownable.sol\":1433:1445  _msgSender() */\n      jump\t// in\n    tag_403:\n        /* \"@openzeppelin/contracts/access/Ownable.sol\":1422:1445  owner() == _msgSender() */\n      0xffffffffffffffffffffffffffffffffffffffff\n      and\n        /* \"@openzeppelin/contracts/access/Ownable.sol\":1422:1429  owner() */\n      tag_405\n        /* \"@openzeppelin/contracts/access/Ownable.sol\":1422:1427  owner */\n      tag_58\n        /* \"@openzeppelin/contracts/access/Ownable.sol\":1422:1429  owner() */\n      jump\t// in\n    tag_405:\n        /* \"@openzeppelin/contracts/access/Ownable.sol\":1422:1445  owner() == _msgSender() */\n      0xffffffffffffffffffffffffffffffffffffffff\n      and\n      eq\n        /* \"@openzeppelin/contracts/access/Ownable.sol\":1414:1482  require(owner() == _msgSender(), \"Ownable: caller is not the owner\") */\n      tag_406\n      jumpi\n      mload(0x40)\n      0x08c379a000000000000000000000000000000000000000000000000000000000\n      dup2\n      mstore\n      0x04\n      add\n      tag_407\n      swap1\n      tag_408\n      jump\t// in\n    tag_407:\n      mload(0x40)\n      dup1\n      swap2\n      sub\n      swap1\n      revert\n    tag_406:\n        /* \"@openzeppelin/contracts/access/Ownable.sol\":1359:1489  function _checkOwner() internal view virtual {... */\n      jump\t// out\n        /* \"@openzeppelin/contracts/access/Ownable.sol\":2426:2613  function _transferOwnership(address newOwner) internal virtual {... */\n    tag_316:\n        /* \"@openzeppelin/contracts/access/Ownable.sol\":2499:2515  address oldOwner */\n      0x00\n        /* \"@openzeppelin/contracts/access/Ownable.sol\":2518:2524  _owner */\n      dup1\n      0x00\n      swap1\n      sload\n      swap1\n      0x0100\n      exp\n      swap1\n      div\n      0xffffffffffffffffffffffffffffffffffffffff\n      and\n        /* \"@openzeppelin/contracts/access/Ownable.sol\":2499:2524  address oldOwner = _owner */\n      swap1\n      pop\n        /* \"@openzeppelin/contracts/access/Ownable.sol\":2543:2551  newOwner */\n      dup2\n        /* \"@openzeppelin/contracts/access/Ownable.sol\":2534:2540  _owner */\n      0x00\n      dup1\n        /* \"@openzeppelin/contracts/access/Ownable.sol\":2534:2551  _owner = newOwner */\n      0x0100\n      exp\n      dup2\n      sload\n      dup2\n      0xffffffffffffffffffffffffffffffffffffffff\n      mul\n      not\n      and\n      swap1\n      dup4\n      0xffffffffffffffffffffffffffffffffffffffff\n      and\n      mul\n      or\n      swap1\n      sstore\n      pop\n        /* \"@openzeppelin/contracts/access/Ownable.sol\":2597:2605  newOwner */\n      dup2\n        /* \"@openzeppelin/contracts/access/Ownable.sol\":2566:2606  OwnershipTransferred(oldOwner, newOwner) */\n      0xffffffffffffffffffffffffffffffffffffffff\n      and\n        /* \"@openzeppelin/contracts/access/Ownable.sol\":2587:2595  oldOwner */\n      dup2\n        /* \"@openzeppelin/contracts/access/Ownable.sol\":2566:2606  OwnershipTransferred(oldOwner, newOwner) */\n      0xffffffffffffffffffffffffffffffffffffffff\n      and\n      0x8be0079c531659141344cd1fd0a4f28419497f9722a3daafe3b4186f6b6457e0\n      mload(0x40)\n      mload(0x40)\n      dup1\n      swap2\n      sub\n      swap1\n      log3\n        /* \"@openzeppelin/contracts/access/Ownable.sol\":2489:2613  {... */\n      pop\n        /* \"@openzeppelin/contracts/access/Ownable.sol\":2426:2613  function _transferOwnership(address newOwner) internal virtual {... */\n      pop\n      jump\t// out\n        /* \"contracts/Vote/VoterContract.sol\":5226:5439  function _closeVoting() private isVotingStarted {\r... */\n    tag_355:\n        /* \"contracts/Vote/VoterContract.sol\":1709:1726  VotingType.Closed */\n      0x00\n        /* \"contracts/Vote/VoterContract.sol\":1681:1726  votings[voteId].votingType!=VotingType.Closed */\n      0x03\n      dup2\n      gt\n      iszero\n      tag_411\n      jumpi\n      tag_412\n      tag_97\n      jump\t// in\n    tag_412:\n    tag_411:\n        /* \"contracts/Vote/VoterContract.sol\":1681:1688  votings */\n      0x04\n        /* \"contracts/Vote/VoterContract.sol\":1681:1696  votings[voteId] */\n      0x00\n        /* \"contracts/Vote/VoterContract.sol\":1689:1695  voteId */\n      0x01\n      0x14\n      swap1\n      sload\n      swap1\n      0x0100\n      exp\n      swap1\n      div\n      0xffff\n      and\n        /* \"contracts/Vote/VoterContract.sol\":1681:1696  votings[voteId] */\n      0xffff\n      and\n      0xffff\n      and\n      dup2\n      mstore\n      0x20\n      add\n      swap1\n      dup2\n      mstore\n      0x20\n      add\n      0x00\n      keccak256\n        /* \"contracts/Vote/VoterContract.sol\":1681:1707  votings[voteId].votingType */\n      0x06\n      add\n      0x00\n      swap1\n      sload\n      swap1\n      0x0100\n      exp\n      swap1\n      div\n      0xff\n      and\n        /* \"contracts/Vote/VoterContract.sol\":1681:1726  votings[voteId].votingType!=VotingType.Closed */\n      0x03\n      dup2\n      gt\n      iszero\n      tag_413\n      jumpi\n      tag_414\n      tag_97\n      jump\t// in\n    tag_414:\n    tag_413:\n      eq\n      iszero\n        /* \"contracts/Vote/VoterContract.sol\":1673:1748  require(votings[voteId].votingType!=VotingType.Closed,\"There is no voting\") */\n      tag_415\n      jumpi\n      mload(0x40)\n      0x08c379a000000000000000000000000000000000000000000000000000000000\n      dup2\n      mstore\n      0x04\n      add\n      tag_416\n      swap1\n      tag_102\n      jump\t// in\n    tag_416:\n      mload(0x40)\n      dup1\n      swap2\n      sub\n      swap1\n      revert\n    tag_415:\n        /* \"contracts/Vote/VoterContract.sol\":5294:5295  1 */\n      0x01\n        /* \"contracts/Vote/VoterContract.sol\":5285:5291  voteId */\n      dup1\n      0x14\n        /* \"contracts/Vote/VoterContract.sol\":5285:5295  voteId +=1 */\n      dup3\n      dup3\n      dup3\n      swap1\n      sload\n      swap1\n      0x0100\n      exp\n      swap1\n      div\n      0xffff\n      and\n      tag_418\n      swap2\n      swap1\n      tag_236\n      jump\t// in\n    tag_418:\n      swap3\n      pop\n      0x0100\n      exp\n      dup2\n      sload\n      dup2\n      0xffff\n      mul\n      not\n      and\n      swap1\n      dup4\n      0xffff\n      and\n      mul\n      or\n      swap1\n      sstore\n      pop\n        /* \"contracts/Vote/VoterContract.sol\":5337:5354  VotingType.Closed */\n      0x00\n        /* \"contracts/Vote/VoterContract.sol\":5306:5313  votings */\n      0x04\n        /* \"contracts/Vote/VoterContract.sol\":5306:5323  votings[voteId-1] */\n      0x00\n        /* \"contracts/Vote/VoterContract.sol\":5321:5322  1 */\n      0x01\n        /* \"contracts/Vote/VoterContract.sol\":5314:5320  voteId */\n      dup1\n      0x14\n      swap1\n      sload\n      swap1\n      0x0100\n      exp\n      swap1\n      div\n      0xffff\n      and\n        /* \"contracts/Vote/VoterContract.sol\":5314:5322  voteId-1 */\n      tag_419\n      swap2\n      swap1\n      tag_146\n      jump\t// in\n    tag_419:\n        /* \"contracts/Vote/VoterContract.sol\":5306:5323  votings[voteId-1] */\n      0xffff\n      and\n      0xffff\n      and\n      dup2\n      mstore\n      0x20\n      add\n      swap1\n      dup2\n      mstore\n      0x20\n      add\n      0x00\n      keccak256\n        /* \"contracts/Vote/VoterContract.sol\":5306:5334  votings[voteId-1].votingType */\n      0x06\n      add\n      0x00\n        /* \"contracts/Vote/VoterContract.sol\":5306:5354  votings[voteId-1].votingType = VotingType.Closed */\n      0x0100\n      exp\n      dup2\n      sload\n      dup2\n      0xff\n      mul\n      not\n      and\n      swap1\n      dup4\n      0x03\n      dup2\n      gt\n      iszero\n      tag_420\n      jumpi\n      tag_421\n      tag_97\n      jump\t// in\n    tag_421:\n    tag_420:\n      mul\n      or\n      swap1\n      sstore\n      pop\n        /* \"contracts/Vote/VoterContract.sol\":5403:5415  block.number */\n      number\n        /* \"contracts/Vote/VoterContract.sol\":5365:5372  votings */\n      0x04\n        /* \"contracts/Vote/VoterContract.sol\":5365:5382  votings[voteId-1] */\n      0x00\n        /* \"contracts/Vote/VoterContract.sol\":5380:5381  1 */\n      0x01\n        /* \"contracts/Vote/VoterContract.sol\":5373:5379  voteId */\n      dup1\n      0x14\n      swap1\n      sload\n      swap1\n      0x0100\n      exp\n      swap1\n      div\n      0xffff\n      and\n        /* \"contracts/Vote/VoterContract.sol\":5373:5381  voteId-1 */\n      tag_422\n      swap2\n      swap1\n      tag_146\n      jump\t// in\n    tag_422:\n        /* \"contracts/Vote/VoterContract.sol\":5365:5382  votings[voteId-1] */\n      0xffff\n      and\n      0xffff\n      and\n      dup2\n      mstore\n      0x20\n      add\n      swap1\n      dup2\n      mstore\n      0x20\n      add\n      0x00\n      keccak256\n        /* \"contracts/Vote/VoterContract.sol\":5365:5400  votings[voteId-1].blockNumberClosed */\n      0x05\n      add\n        /* \"contracts/Vote/VoterContract.sol\":5365:5415  votings[voteId-1].blockNumberClosed = block.number */\n      dup2\n      swap1\n      sstore\n      pop\n        /* \"contracts/Vote/VoterContract.sol\":5226:5439  function _closeVoting() private isVotingStarted {\r... */\n      jump\t// out\n        /* \"@openzeppelin/contracts/utils/Context.sol\":640:736  function _msgSender() internal view virtual returns (address) {... */\n    tag_404:\n        /* \"@openzeppelin/contracts/utils/Context.sol\":693:700  address */\n      0x00\n        /* \"@openzeppelin/contracts/utils/Context.sol\":719:729  msg.sender */\n      caller\n        /* \"@openzeppelin/contracts/utils/Context.sol\":712:729  return msg.sender */\n      swap1\n      pop\n        /* \"@openzeppelin/contracts/utils/Context.sol\":640:736  function _msgSender() internal view virtual returns (address) {... */\n      swap1\n      jump\t// out\n    tag_135:\n      mload(0x40)\n      dup1\n      0x0120\n      add\n      0x40\n      mstore\n      dup1\n      and(0xffff, 0x00)\n      dup2\n      mstore\n      0x20\n      add\n      0x60\n      dup2\n      mstore\n      0x20\n      add\n      and(0xffffffff, 0x00)\n      dup2\n      mstore\n      0x20\n      add\n      and(0xffffffff, 0x00)\n      dup2\n      mstore\n      0x20\n      add\n      and(0xffffffffffffffffffffffffffffffffffffffff, 0x00)\n      dup2\n      mstore\n      0x20\n      add\n      0x00\n      dup2\n      mstore\n      0x20\n      add\n      0x00\n      dup2\n      mstore\n      0x20\n      add\n      0x00\n      dup2\n      mstore\n      0x20\n      add\n      0x00\n      0x03\n      dup2\n      gt\n      iszero\n      tag_424\n      jumpi\n      tag_425\n      tag_97\n      jump\t// in\n    tag_425:\n    tag_424:\n      dup2\n      mstore\n      pop\n      swap1\n      jump\t// out\n    tag_245:\n      dup3\n      dup1\n      sload\n      tag_426\n      swap1\n      tag_140\n      jump\t// in\n    tag_426:\n      swap1\n      0x00\n      mstore\n      keccak256(0x00, 0x20)\n      swap1\n      0x1f\n      add\n      0x20\n      swap1\n      div\n      dup2\n      add\n      swap3\n      dup3\n      tag_428\n      jumpi\n      0x00\n      dup6\n      sstore\n      jump(tag_427)\n    tag_428:\n      dup3\n      0x1f\n      lt\n      tag_429\n      jumpi\n      dup1\n      sload\n      dup6\n      sstore\n      jump(tag_427)\n    tag_429:\n      dup3\n      dup1\n      add\n      0x01\n      add\n      dup6\n      sstore\n      dup3\n      iszero\n      tag_427\n      jumpi\n      0x00\n      mstore\n      keccak256(0x00, 0x20)\n      swap2\n      0x1f\n      add\n      0x20\n      swap1\n      div\n      dup3\n      add\n    tag_430:\n      dup3\n      dup2\n      gt\n      iszero\n      tag_431\n      jumpi\n      dup3\n      sload\n      dup3\n      sstore\n      swap2\n      0x01\n      add\n      swap2\n      swap1\n      0x01\n      add\n      swap1\n      jump(tag_430)\n    tag_431:\n    tag_427:\n      pop\n      swap1\n      pop\n      tag_432\n      swap2\n      swap1\n      tag_433\n      jump\t// in\n    tag_432:\n      pop\n      swap1\n      jump\t// out\n    tag_251:\n      dup3\n      dup1\n      sload\n      tag_434\n      swap1\n      tag_140\n      jump\t// in\n    tag_434:\n      swap1\n      0x00\n      mstore\n      keccak256(0x00, 0x20)\n      swap1\n      0x1f\n      add\n      0x20\n      swap1\n      div\n      dup2\n      add\n      swap3\n      dup3\n      tag_436\n      jumpi\n      0x00\n      dup6\n      sstore\n      jump(tag_435)\n    tag_436:\n      dup3\n      0x1f\n      lt\n      tag_437\n      jumpi\n      dup1\n      mload\n      not(0xff)\n      and\n      dup4\n      dup1\n      add\n      or\n      dup6\n      sstore\n      jump(tag_435)\n    tag_437:\n      dup3\n      dup1\n      add\n      0x01\n      add\n      dup6\n      sstore\n      dup3\n      iszero\n      tag_435\n      jumpi\n      swap2\n      dup3\n      add\n    tag_438:\n      dup3\n      dup2\n      gt\n      iszero\n      tag_439\n      jumpi\n      dup3\n      mload\n      dup3\n      sstore\n      swap2\n      0x20\n      add\n      swap2\n      swap1\n      0x01\n      add\n      swap1\n      jump(tag_438)\n    tag_439:\n    tag_435:\n      pop\n      swap1\n      pop\n      tag_440\n      swap2\n      swap1\n      tag_433\n      jump\t// in\n    tag_440:\n      pop\n      swap1\n      jump\t// out\n    tag_398:\n      dup3\n      dup1\n      sload\n      tag_441\n      swap1\n      tag_140\n      jump\t// in\n    tag_441:\n      swap1\n      0x00\n      mstore\n      keccak256(0x00, 0x20)\n      swap1\n      0x1f\n      add\n      0x20\n      swap1\n      div\n      dup2\n      add\n      swap3\n      dup3\n      tag_443\n      jumpi\n      0x00\n      dup6\n      sstore\n      jump(tag_442)\n    tag_443:\n      dup3\n      0x1f\n      lt\n      tag_444\n      jumpi\n      dup1\n      calldataload\n      not(0xff)\n      and\n      dup4\n      dup1\n      add\n      or\n      dup6\n      sstore\n      jump(tag_442)\n    tag_444:\n      dup3\n      dup1\n      add\n      0x01\n      add\n      dup6\n      sstore\n      dup3\n      iszero\n      tag_442\n      jumpi\n      swap2\n      dup3\n      add\n    tag_445:\n      dup3\n      dup2\n      gt\n      iszero\n      tag_446\n      jumpi\n      dup3\n      calldataload\n      dup3\n      sstore\n      swap2\n      0x20\n      add\n      swap2\n      swap1\n      0x01\n      add\n      swap1\n      jump(tag_445)\n    tag_446:\n    tag_442:\n      pop\n      swap1\n      pop\n      tag_447\n      swap2\n      swap1\n      tag_433\n      jump\t// in\n    tag_447:\n      pop\n      swap1\n      jump\t// out\n    tag_433:\n    tag_448:\n      dup1\n      dup3\n      gt\n      iszero\n      tag_449\n      jumpi\n      0x00\n      dup2\n      0x00\n      swap1\n      sstore\n      pop\n      0x01\n      add\n      jump(tag_448)\n    tag_449:\n      pop\n      swap1\n      jump\t// out\n        /* \"#utility.yul\":7:419   */\n    tag_451:\n        /* \"#utility.yul\":85:90   */\n      0x00\n        /* \"#utility.yul\":110:176   */\n      tag_453\n        /* \"#utility.yul\":126:175   */\n      tag_454\n        /* \"#utility.yul\":168:174   */\n      dup5\n        /* \"#utility.yul\":126:175   */\n      tag_455\n      jump\t// in\n    tag_454:\n        /* \"#utility.yul\":110:176   */\n      tag_456\n      jump\t// in\n    tag_453:\n        /* \"#utility.yul\":101:176   */\n      swap1\n      pop\n        /* \"#utility.yul\":199:205   */\n      dup3\n        /* \"#utility.yul\":192:197   */\n      dup2\n        /* \"#utility.yul\":185:206   */\n      mstore\n        /* \"#utility.yul\":237:241   */\n      0x20\n        /* \"#utility.yul\":230:235   */\n      dup2\n        /* \"#utility.yul\":226:242   */\n      add\n        /* \"#utility.yul\":275:278   */\n      dup5\n        /* \"#utility.yul\":266:272   */\n      dup5\n        /* \"#utility.yul\":261:264   */\n      dup5\n        /* \"#utility.yul\":257:273   */\n      add\n        /* \"#utility.yul\":254:279   */\n      gt\n        /* \"#utility.yul\":251:363   */\n      iszero\n      tag_457\n      jumpi\n        /* \"#utility.yul\":282:361   */\n      tag_458\n      tag_459\n      jump\t// in\n    tag_458:\n        /* \"#utility.yul\":251:363   */\n    tag_457:\n        /* \"#utility.yul\":372:413   */\n      tag_460\n        /* \"#utility.yul\":406:412   */\n      dup5\n        /* \"#utility.yul\":401:404   */\n      dup3\n        /* \"#utility.yul\":396:399   */\n      dup6\n        /* \"#utility.yul\":372:413   */\n      tag_461\n      jump\t// in\n    tag_460:\n        /* \"#utility.yul\":91:419   */\n      pop\n        /* \"#utility.yul\":7:419   */\n      swap4\n      swap3\n      pop\n      pop\n      pop\n      jump\t// out\n        /* \"#utility.yul\":425:564   */\n    tag_462:\n        /* \"#utility.yul\":471:476   */\n      0x00\n        /* \"#utility.yul\":509:515   */\n      dup2\n        /* \"#utility.yul\":496:516   */\n      calldataload\n        /* \"#utility.yul\":487:516   */\n      swap1\n      pop\n        /* \"#utility.yul\":525:558   */\n      tag_464\n        /* \"#utility.yul\":552:557   */\n      dup2\n        /* \"#utility.yul\":525:558   */\n      tag_465\n      jump\t// in\n    tag_464:\n        /* \"#utility.yul\":425:564   */\n      swap3\n      swap2\n      pop\n      pop\n      jump\t// out\n        /* \"#utility.yul\":570:727   */\n    tag_466:\n        /* \"#utility.yul\":625:630   */\n      0x00\n        /* \"#utility.yul\":663:669   */\n      dup2\n        /* \"#utility.yul\":650:670   */\n      calldataload\n        /* \"#utility.yul\":641:670   */\n      swap1\n      pop\n        /* \"#utility.yul\":679:721   */\n      tag_468\n        /* \"#utility.yul\":715:720   */\n      dup2\n        /* \"#utility.yul\":679:721   */\n      tag_469\n      jump\t// in\n    tag_468:\n        /* \"#utility.yul\":570:727   */\n      swap3\n      swap2\n      pop\n      pop\n      jump\t// out\n        /* \"#utility.yul\":733:900   */\n    tag_470:\n        /* \"#utility.yul\":793:798   */\n      0x00\n        /* \"#utility.yul\":831:837   */\n      dup2\n        /* \"#utility.yul\":818:838   */\n      calldataload\n        /* \"#utility.yul\":809:838   */\n      swap1\n      pop\n        /* \"#utility.yul\":847:894   */\n      tag_472\n        /* \"#utility.yul\":888:893   */\n      dup2\n        /* \"#utility.yul\":847:894   */\n      tag_473\n      jump\t// in\n    tag_472:\n        /* \"#utility.yul\":733:900   */\n      swap3\n      swap2\n      pop\n      pop\n      jump\t// out\n        /* \"#utility.yul\":920:1473   */\n    tag_474:\n        /* \"#utility.yul\":978:986   */\n      0x00\n        /* \"#utility.yul\":988:994   */\n      dup1\n        /* \"#utility.yul\":1038:1041   */\n      dup4\n        /* \"#utility.yul\":1031:1035   */\n      0x1f\n        /* \"#utility.yul\":1023:1029   */\n      dup5\n        /* \"#utility.yul\":1019:1036   */\n      add\n        /* \"#utility.yul\":1015:1042   */\n      slt\n        /* \"#utility.yul\":1005:1127   */\n      tag_476\n      jumpi\n        /* \"#utility.yul\":1046:1125   */\n      tag_477\n      tag_478\n      jump\t// in\n    tag_477:\n        /* \"#utility.yul\":1005:1127   */\n    tag_476:\n        /* \"#utility.yul\":1159:1165   */\n      dup3\n        /* \"#utility.yul\":1146:1166   */\n      calldataload\n        /* \"#utility.yul\":1136:1166   */\n      swap1\n      pop\n        /* \"#utility.yul\":1189:1207   */\n      0xffffffffffffffff\n        /* \"#utility.yul\":1181:1187   */\n      dup2\n        /* \"#utility.yul\":1178:1208   */\n      gt\n        /* \"#utility.yul\":1175:1292   */\n      iszero\n      tag_479\n      jumpi\n        /* \"#utility.yul\":1211:1290   */\n      tag_480\n      tag_481\n      jump\t// in\n    tag_480:\n        /* \"#utility.yul\":1175:1292   */\n    tag_479:\n        /* \"#utility.yul\":1325:1329   */\n      0x20\n        /* \"#utility.yul\":1317:1323   */\n      dup4\n        /* \"#utility.yul\":1313:1330   */\n      add\n        /* \"#utility.yul\":1301:1330   */\n      swap2\n      pop\n        /* \"#utility.yul\":1379:1382   */\n      dup4\n        /* \"#utility.yul\":1371:1375   */\n      0x01\n        /* \"#utility.yul\":1363:1369   */\n      dup3\n        /* \"#utility.yul\":1359:1376   */\n      mul\n        /* \"#utility.yul\":1349:1357   */\n      dup4\n        /* \"#utility.yul\":1345:1377   */\n      add\n        /* \"#utility.yul\":1342:1383   */\n      gt\n        /* \"#utility.yul\":1339:1467   */\n      iszero\n      tag_482\n      jumpi\n        /* \"#utility.yul\":1386:1465   */\n      tag_483\n      tag_484\n      jump\t// in\n    tag_483:\n        /* \"#utility.yul\":1339:1467   */\n    tag_482:\n        /* \"#utility.yul\":920:1473   */\n      swap3\n      pop\n      swap3\n      swap1\n      pop\n      jump\t// out\n        /* \"#utility.yul\":1493:1833   */\n    tag_485:\n        /* \"#utility.yul\":1549:1554   */\n      0x00\n        /* \"#utility.yul\":1598:1601   */\n      dup3\n        /* \"#utility.yul\":1591:1595   */\n      0x1f\n        /* \"#utility.yul\":1583:1589   */\n      dup4\n        /* \"#utility.yul\":1579:1596   */\n      add\n        /* \"#utility.yul\":1575:1602   */\n      slt\n        /* \"#utility.yul\":1565:1687   */\n      tag_487\n      jumpi\n        /* \"#utility.yul\":1606:1685   */\n      tag_488\n      tag_478\n      jump\t// in\n    tag_488:\n        /* \"#utility.yul\":1565:1687   */\n    tag_487:\n        /* \"#utility.yul\":1723:1729   */\n      dup2\n        /* \"#utility.yul\":1710:1730   */\n      calldataload\n        /* \"#utility.yul\":1748:1827   */\n      tag_489\n        /* \"#utility.yul\":1823:1826   */\n      dup5\n        /* \"#utility.yul\":1815:1821   */\n      dup3\n        /* \"#utility.yul\":1808:1812   */\n      0x20\n        /* \"#utility.yul\":1800:1806   */\n      dup7\n        /* \"#utility.yul\":1796:1813   */\n      add\n        /* \"#utility.yul\":1748:1827   */\n      tag_451\n      jump\t// in\n    tag_489:\n        /* \"#utility.yul\":1739:1827   */\n      swap2\n      pop\n        /* \"#utility.yul\":1555:1833   */\n      pop\n        /* \"#utility.yul\":1493:1833   */\n      swap3\n      swap2\n      pop\n      pop\n      jump\t// out\n        /* \"#utility.yul\":1839:1976   */\n    tag_490:\n        /* \"#utility.yul\":1884:1889   */\n      0x00\n        /* \"#utility.yul\":1922:1928   */\n      dup2\n        /* \"#utility.yul\":1909:1929   */\n      calldataload\n        /* \"#utility.yul\":1900:1929   */\n      swap1\n      pop\n        /* \"#utility.yul\":1938:1970   */\n      tag_492\n        /* \"#utility.yul\":1964:1969   */\n      dup2\n        /* \"#utility.yul\":1938:1970   */\n      tag_493\n      jump\t// in\n    tag_492:\n        /* \"#utility.yul\":1839:1976   */\n      swap3\n      swap2\n      pop\n      pop\n      jump\t// out\n        /* \"#utility.yul\":1982:2121   */\n    tag_494:\n        /* \"#utility.yul\":2028:2033   */\n      0x00\n        /* \"#utility.yul\":2066:2072   */\n      dup2\n        /* \"#utility.yul\":2053:2073   */\n      calldataload\n        /* \"#utility.yul\":2044:2073   */\n      swap1\n      pop\n        /* \"#utility.yul\":2082:2115   */\n      tag_496\n        /* \"#utility.yul\":2109:2114   */\n      dup2\n        /* \"#utility.yul\":2082:2115   */\n      tag_497\n      jump\t// in\n    tag_496:\n        /* \"#utility.yul\":1982:2121   */\n      swap3\n      swap2\n      pop\n      pop\n      jump\t// out\n        /* \"#utility.yul\":2127:2262   */\n    tag_498:\n        /* \"#utility.yul\":2171:2176   */\n      0x00\n        /* \"#utility.yul\":2209:2215   */\n      dup2\n        /* \"#utility.yul\":2196:2216   */\n      calldataload\n        /* \"#utility.yul\":2187:2216   */\n      swap1\n      pop\n        /* \"#utility.yul\":2225:2256   */\n      tag_500\n        /* \"#utility.yul\":2250:2255   */\n      dup2\n        /* \"#utility.yul\":2225:2256   */\n      tag_501\n      jump\t// in\n    tag_500:\n        /* \"#utility.yul\":2127:2262   */\n      swap3\n      swap2\n      pop\n      pop\n      jump\t// out\n        /* \"#utility.yul\":2268:2597   */\n    tag_66:\n        /* \"#utility.yul\":2327:2333   */\n      0x00\n        /* \"#utility.yul\":2376:2378   */\n      0x20\n        /* \"#utility.yul\":2364:2373   */\n      dup3\n        /* \"#utility.yul\":2355:2362   */\n      dup5\n        /* \"#utility.yul\":2351:2374   */\n      sub\n        /* \"#utility.yul\":2347:2379   */\n      slt\n        /* \"#utility.yul\":2344:2463   */\n      iszero\n      tag_503\n      jumpi\n        /* \"#utility.yul\":2382:2461   */\n      tag_504\n      tag_505\n      jump\t// in\n    tag_504:\n        /* \"#utility.yul\":2344:2463   */\n    tag_503:\n        /* \"#utility.yul\":2502:2503   */\n      0x00\n        /* \"#utility.yul\":2527:2580   */\n      tag_506\n        /* \"#utility.yul\":2572:2579   */\n      dup5\n        /* \"#utility.yul\":2563:2569   */\n      dup3\n        /* \"#utility.yul\":2552:2561   */\n      dup6\n        /* \"#utility.yul\":2548:2570   */\n      add\n        /* \"#utility.yul\":2527:2580   */\n      tag_462\n      jump\t// in\n    tag_506:\n        /* \"#utility.yul\":2517:2580   */\n      swap2\n      pop\n        /* \"#utility.yul\":2473:2590   */\n      pop\n        /* \"#utility.yul\":2268:2597   */\n      swap3\n      swap2\n      pop\n      pop\n      jump\t// out\n        /* \"#utility.yul\":2603:2950   */\n    tag_31:\n        /* \"#utility.yul\":2671:2677   */\n      0x00\n        /* \"#utility.yul\":2720:2722   */\n      0x20\n        /* \"#utility.yul\":2708:2717   */\n      dup3\n        /* \"#utility.yul\":2699:2706   */\n      dup5\n        /* \"#utility.yul\":2695:2718   */\n      sub\n        /* \"#utility.yul\":2691:2723   */\n      slt\n        /* \"#utility.yul\":2688:2807   */\n      iszero\n      tag_508\n      jumpi\n        /* \"#utility.yul\":2726:2805   */\n      tag_509\n      tag_505\n      jump\t// in\n    tag_509:\n        /* \"#utility.yul\":2688:2807   */\n    tag_508:\n        /* \"#utility.yul\":2846:2847   */\n      0x00\n        /* \"#utility.yul\":2871:2933   */\n      tag_510\n        /* \"#utility.yul\":2925:2932   */\n      dup5\n        /* \"#utility.yul\":2916:2922   */\n      dup3\n        /* \"#utility.yul\":2905:2914   */\n      dup6\n        /* \"#utility.yul\":2901:2923   */\n      add\n        /* \"#utility.yul\":2871:2933   */\n      tag_466\n      jump\t// in\n    tag_510:\n        /* \"#utility.yul\":2861:2933   */\n      swap2\n      pop\n        /* \"#utility.yul\":2817:2943   */\n      pop\n        /* \"#utility.yul\":2603:2950   */\n      swap3\n      swap2\n      pop\n      pop\n      jump\t// out\n        /* \"#utility.yul\":2956:3803   */\n    tag_88:\n        /* \"#utility.yul\":3059:3065   */\n      0x00\n        /* \"#utility.yul\":3067:3073   */\n      dup1\n        /* \"#utility.yul\":3075:3081   */\n      0x00\n        /* \"#utility.yul\":3083:3089   */\n      dup1\n        /* \"#utility.yul\":3132:3134   */\n      0x60\n        /* \"#utility.yul\":3120:3129   */\n      dup6\n        /* \"#utility.yul\":3111:3118   */\n      dup8\n        /* \"#utility.yul\":3107:3130   */\n      sub\n        /* \"#utility.yul\":3103:3135   */\n      slt\n        /* \"#utility.yul\":3100:3219   */\n      iszero\n      tag_512\n      jumpi\n        /* \"#utility.yul\":3138:3217   */\n      tag_513\n      tag_505\n      jump\t// in\n    tag_513:\n        /* \"#utility.yul\":3100:3219   */\n    tag_512:\n        /* \"#utility.yul\":3258:3259   */\n      0x00\n        /* \"#utility.yul\":3283:3350   */\n      tag_514\n        /* \"#utility.yul\":3342:3349   */\n      dup8\n        /* \"#utility.yul\":3333:3339   */\n      dup3\n        /* \"#utility.yul\":3322:3331   */\n      dup9\n        /* \"#utility.yul\":3318:3340   */\n      add\n        /* \"#utility.yul\":3283:3350   */\n      tag_470\n      jump\t// in\n    tag_514:\n        /* \"#utility.yul\":3273:3350   */\n      swap5\n      pop\n        /* \"#utility.yul\":3229:3360   */\n      pop\n        /* \"#utility.yul\":3399:3401   */\n      0x20\n        /* \"#utility.yul\":3425:3478   */\n      tag_515\n        /* \"#utility.yul\":3470:3477   */\n      dup8\n        /* \"#utility.yul\":3461:3467   */\n      dup3\n        /* \"#utility.yul\":3450:3459   */\n      dup9\n        /* \"#utility.yul\":3446:3468   */\n      add\n        /* \"#utility.yul\":3425:3478   */\n      tag_494\n      jump\t// in\n    tag_515:\n        /* \"#utility.yul\":3415:3478   */\n      swap4\n      pop\n        /* \"#utility.yul\":3370:3488   */\n      pop\n        /* \"#utility.yul\":3555:3557   */\n      0x40\n        /* \"#utility.yul\":3544:3553   */\n      dup6\n        /* \"#utility.yul\":3540:3558   */\n      add\n        /* \"#utility.yul\":3527:3559   */\n      calldataload\n        /* \"#utility.yul\":3586:3604   */\n      0xffffffffffffffff\n        /* \"#utility.yul\":3578:3584   */\n      dup2\n        /* \"#utility.yul\":3575:3605   */\n      gt\n        /* \"#utility.yul\":3572:3689   */\n      iszero\n      tag_516\n      jumpi\n        /* \"#utility.yul\":3608:3687   */\n      tag_517\n      tag_518\n      jump\t// in\n    tag_517:\n        /* \"#utility.yul\":3572:3689   */\n    tag_516:\n        /* \"#utility.yul\":3721:3786   */\n      tag_519\n        /* \"#utility.yul\":3778:3785   */\n      dup8\n        /* \"#utility.yul\":3769:3775   */\n      dup3\n        /* \"#utility.yul\":3758:3767   */\n      dup9\n        /* \"#utility.yul\":3754:3776   */\n      add\n        /* \"#utility.yul\":3721:3786   */\n      tag_474\n      jump\t// in\n    tag_519:\n        /* \"#utility.yul\":3703:3786   */\n      swap3\n      pop\n      swap3\n      pop\n        /* \"#utility.yul\":3498:3796   */\n      pop\n        /* \"#utility.yul\":2956:3803   */\n      swap3\n      swap6\n      swap2\n      swap5\n      pop\n      swap3\n      pop\n      jump\t// out\n        /* \"#utility.yul\":3809:4318   */\n    tag_62:\n        /* \"#utility.yul\":3878:3884   */\n      0x00\n        /* \"#utility.yul\":3927:3929   */\n      0x20\n        /* \"#utility.yul\":3915:3924   */\n      dup3\n        /* \"#utility.yul\":3906:3913   */\n      dup5\n        /* \"#utility.yul\":3902:3925   */\n      sub\n        /* \"#utility.yul\":3898:3930   */\n      slt\n        /* \"#utility.yul\":3895:4014   */\n      iszero\n      tag_521\n      jumpi\n        /* \"#utility.yul\":3933:4012   */\n      tag_522\n      tag_505\n      jump\t// in\n    tag_522:\n        /* \"#utility.yul\":3895:4014   */\n    tag_521:\n        /* \"#utility.yul\":4081:4082   */\n      0x00\n        /* \"#utility.yul\":4070:4079   */\n      dup3\n        /* \"#utility.yul\":4066:4083   */\n      add\n        /* \"#utility.yul\":4053:4084   */\n      calldataload\n        /* \"#utility.yul\":4111:4129   */\n      0xffffffffffffffff\n        /* \"#utility.yul\":4103:4109   */\n      dup2\n        /* \"#utility.yul\":4100:4130   */\n      gt\n        /* \"#utility.yul\":4097:4214   */\n      iszero\n      tag_523\n      jumpi\n        /* \"#utility.yul\":4133:4212   */\n      tag_524\n      tag_518\n      jump\t// in\n    tag_524:\n        /* \"#utility.yul\":4097:4214   */\n    tag_523:\n        /* \"#utility.yul\":4238:4301   */\n      tag_525\n        /* \"#utility.yul\":4293:4300   */\n      dup5\n        /* \"#utility.yul\":4284:4290   */\n      dup3\n        /* \"#utility.yul\":4273:4282   */\n      dup6\n        /* \"#utility.yul\":4269:4291   */\n      add\n        /* \"#utility.yul\":4238:4301   */\n      tag_485\n      jump\t// in\n    tag_525:\n        /* \"#utility.yul\":4228:4301   */\n      swap2\n      pop\n        /* \"#utility.yul\":4024:4311   */\n      pop\n        /* \"#utility.yul\":3809:4318   */\n      swap3\n      swap2\n      pop\n      pop\n      jump\t// out\n        /* \"#utility.yul\":4324:4651   */\n    tag_76:\n        /* \"#utility.yul\":4382:4388   */\n      0x00\n        /* \"#utility.yul\":4431:4433   */\n      0x20\n        /* \"#utility.yul\":4419:4428   */\n      dup3\n        /* \"#utility.yul\":4410:4417   */\n      dup5\n        /* \"#utility.yul\":4406:4429   */\n      sub\n        /* \"#utility.yul\":4402:4434   */\n      slt\n        /* \"#utility.yul\":4399:4518   */\n      iszero\n      tag_527\n      jumpi\n        /* \"#utility.yul\":4437:4516   */\n      tag_528\n      tag_505\n      jump\t// in\n    tag_528:\n        /* \"#utility.yul\":4399:4518   */\n    tag_527:\n        /* \"#utility.yul\":4557:4558   */\n      0x00\n        /* \"#utility.yul\":4582:4634   */\n      tag_529\n        /* \"#utility.yul\":4626:4633   */\n      dup5\n        /* \"#utility.yul\":4617:4623   */\n      dup3\n        /* \"#utility.yul\":4606:4615   */\n      dup6\n        /* \"#utility.yul\":4602:4624   */\n      add\n        /* \"#utility.yul\":4582:4634   */\n      tag_490\n      jump\t// in\n    tag_529:\n        /* \"#utility.yul\":4572:4634   */\n      swap2\n      pop\n        /* \"#utility.yul\":4528:4644   */\n      pop\n        /* \"#utility.yul\":4324:4651   */\n      swap3\n      swap2\n      pop\n      pop\n      jump\t// out\n        /* \"#utility.yul\":4657:4982   */\n    tag_35:\n        /* \"#utility.yul\":4714:4720   */\n      0x00\n        /* \"#utility.yul\":4763:4765   */\n      0x20\n        /* \"#utility.yul\":4751:4760   */\n      dup3\n        /* \"#utility.yul\":4742:4749   */\n      dup5\n        /* \"#utility.yul\":4738:4761   */\n      sub\n        /* \"#utility.yul\":4734:4766   */\n      slt\n        /* \"#utility.yul\":4731:4850   */\n      iszero\n      tag_531\n      jumpi\n        /* \"#utility.yul\":4769:4848   */\n      tag_532\n      tag_505\n      jump\t// in\n    tag_532:\n        /* \"#utility.yul\":4731:4850   */\n    tag_531:\n        /* \"#utility.yul\":4889:4890   */\n      0x00\n        /* \"#utility.yul\":4914:4965   */\n      tag_533\n        /* \"#utility.yul\":4957:4964   */\n      dup5\n        /* \"#utility.yul\":4948:4954   */\n      dup3\n        /* \"#utility.yul\":4937:4946   */\n      dup6\n        /* \"#utility.yul\":4933:4955   */\n      add\n        /* \"#utility.yul\":4914:4965   */\n      tag_498\n      jump\t// in\n    tag_533:\n        /* \"#utility.yul\":4904:4965   */\n      swap2\n      pop\n        /* \"#utility.yul\":4860:4975   */\n      pop\n        /* \"#utility.yul\":4657:4982   */\n      swap3\n      swap2\n      pop\n      pop\n      jump\t// out\n        /* \"#utility.yul\":4988:5236   */\n    tag_534:\n        /* \"#utility.yul\":5103:5113   */\n      0x00\n        /* \"#utility.yul\":5138:5230   */\n      tag_536\n        /* \"#utility.yul\":5226:5229   */\n      dup4\n        /* \"#utility.yul\":5218:5224   */\n      dup4\n        /* \"#utility.yul\":5138:5230   */\n      tag_537\n      jump\t// in\n    tag_536:\n        /* \"#utility.yul\":5124:5230   */\n      swap1\n      pop\n        /* \"#utility.yul\":4988:5236   */\n      swap3\n      swap2\n      pop\n      pop\n      jump\t// out\n        /* \"#utility.yul\":5242:5350   */\n    tag_538:\n        /* \"#utility.yul\":5319:5343   */\n      tag_540\n        /* \"#utility.yul\":5337:5342   */\n      dup2\n        /* \"#utility.yul\":5319:5343   */\n      tag_541\n      jump\t// in\n    tag_540:\n        /* \"#utility.yul\":5314:5317   */\n      dup3\n        /* \"#utility.yul\":5307:5344   */\n      mstore\n        /* \"#utility.yul\":5242:5350   */\n      pop\n      pop\n      jump\t// out\n        /* \"#utility.yul\":5356:5474   */\n    tag_542:\n        /* \"#utility.yul\":5443:5467   */\n      tag_544\n        /* \"#utility.yul\":5461:5466   */\n      dup2\n        /* \"#utility.yul\":5443:5467   */\n      tag_541\n      jump\t// in\n    tag_544:\n        /* \"#utility.yul\":5438:5441   */\n      dup3\n        /* \"#utility.yul\":5431:5468   */\n      mstore\n        /* \"#utility.yul\":5356:5474   */\n      pop\n      pop\n      jump\t// out\n        /* \"#utility.yul\":5550:6645   */\n    tag_545:\n        /* \"#utility.yul\":5715:5718   */\n      0x00\n        /* \"#utility.yul\":5744:5821   */\n      tag_547\n        /* \"#utility.yul\":5815:5820   */\n      dup3\n        /* \"#utility.yul\":5744:5821   */\n      tag_548\n      jump\t// in\n    tag_547:\n        /* \"#utility.yul\":5837:5946   */\n      tag_549\n        /* \"#utility.yul\":5939:5945   */\n      dup2\n        /* \"#utility.yul\":5934:5937   */\n      dup6\n        /* \"#utility.yul\":5837:5946   */\n      tag_550\n      jump\t// in\n    tag_549:\n        /* \"#utility.yul\":5830:5946   */\n      swap4\n      pop\n        /* \"#utility.yul\":5972:5975   */\n      dup4\n        /* \"#utility.yul\":6017:6021   */\n      0x20\n        /* \"#utility.yul\":6009:6015   */\n      dup3\n        /* \"#utility.yul\":6005:6022   */\n      mul\n        /* \"#utility.yul\":6000:6003   */\n      dup6\n        /* \"#utility.yul\":5996:6023   */\n      add\n        /* \"#utility.yul\":6047:6126   */\n      tag_551\n        /* \"#utility.yul\":6120:6125   */\n      dup6\n        /* \"#utility.yul\":6047:6126   */\n      tag_552\n      jump\t// in\n    tag_551:\n        /* \"#utility.yul\":6149:6156   */\n      dup1\n        /* \"#utility.yul\":6180:6181   */\n      0x00\n        /* \"#utility.yul\":6165:6600   */\n    tag_553:\n        /* \"#utility.yul\":6190:6196   */\n      dup6\n        /* \"#utility.yul\":6187:6188   */\n      dup2\n        /* \"#utility.yul\":6184:6197   */\n      lt\n        /* \"#utility.yul\":6165:6600   */\n      iszero\n      tag_555\n      jumpi\n        /* \"#utility.yul\":6261:6270   */\n      dup5\n        /* \"#utility.yul\":6255:6259   */\n      dup5\n        /* \"#utility.yul\":6251:6271   */\n      sub\n        /* \"#utility.yul\":6246:6249   */\n      dup10\n        /* \"#utility.yul\":6239:6272   */\n      mstore\n        /* \"#utility.yul\":6312:6318   */\n      dup2\n        /* \"#utility.yul\":6306:6319   */\n      mload\n        /* \"#utility.yul\":6340:6450   */\n      tag_556\n        /* \"#utility.yul\":6445:6449   */\n      dup6\n        /* \"#utility.yul\":6430:6443   */\n      dup3\n        /* \"#utility.yul\":6340:6450   */\n      tag_534\n      jump\t// in\n    tag_556:\n        /* \"#utility.yul\":6332:6450   */\n      swap5\n      pop\n        /* \"#utility.yul\":6473:6556   */\n      tag_557\n        /* \"#utility.yul\":6549:6555   */\n      dup4\n        /* \"#utility.yul\":6473:6556   */\n      tag_558\n      jump\t// in\n    tag_557:\n        /* \"#utility.yul\":6463:6556   */\n      swap3\n      pop\n        /* \"#utility.yul\":6585:6589   */\n      0x20\n        /* \"#utility.yul\":6580:6583   */\n      dup11\n        /* \"#utility.yul\":6576:6590   */\n      add\n        /* \"#utility.yul\":6569:6590   */\n      swap10\n      pop\n        /* \"#utility.yul\":6225:6600   */\n      pop\n        /* \"#utility.yul\":6212:6213   */\n      0x01\n        /* \"#utility.yul\":6209:6210   */\n      dup2\n        /* \"#utility.yul\":6205:6214   */\n      add\n        /* \"#utility.yul\":6200:6214   */\n      swap1\n      pop\n        /* \"#utility.yul\":6165:6600   */\n      jump(tag_553)\n    tag_555:\n        /* \"#utility.yul\":6169:6183   */\n      pop\n        /* \"#utility.yul\":6616:6620   */\n      dup3\n        /* \"#utility.yul\":6609:6620   */\n      swap8\n      pop\n        /* \"#utility.yul\":6636:6639   */\n      dup8\n        /* \"#utility.yul\":6629:6639   */\n      swap6\n      pop\n        /* \"#utility.yul\":5720:6645   */\n      pop\n      pop\n      pop\n      pop\n      pop\n        /* \"#utility.yul\":5550:6645   */\n      swap3\n      swap2\n      pop\n      pop\n      jump\t// out\n        /* \"#utility.yul\":6651:6760   */\n    tag_559:\n        /* \"#utility.yul\":6732:6753   */\n      tag_561\n        /* \"#utility.yul\":6747:6752   */\n      dup2\n        /* \"#utility.yul\":6732:6753   */\n      tag_562\n      jump\t// in\n    tag_561:\n        /* \"#utility.yul\":6727:6730   */\n      dup3\n        /* \"#utility.yul\":6720:6754   */\n      mstore\n        /* \"#utility.yul\":6651:6760   */\n      pop\n      pop\n      jump\t// out\n        /* \"#utility.yul\":6766:6911   */\n    tag_563:\n        /* \"#utility.yul\":6855:6904   */\n      tag_565\n        /* \"#utility.yul\":6898:6903   */\n      dup2\n        /* \"#utility.yul\":6855:6904   */\n      tag_566\n      jump\t// in\n    tag_565:\n        /* \"#utility.yul\":6850:6853   */\n      dup3\n        /* \"#utility.yul\":6843:6905   */\n      mstore\n        /* \"#utility.yul\":6766:6911   */\n      pop\n      pop\n      jump\t// out\n        /* \"#utility.yul\":6917:7072   */\n    tag_567:\n        /* \"#utility.yul\":7016:7065   */\n      tag_569\n        /* \"#utility.yul\":7059:7064   */\n      dup2\n        /* \"#utility.yul\":7016:7065   */\n      tag_566\n      jump\t// in\n    tag_569:\n        /* \"#utility.yul\":7011:7014   */\n      dup3\n        /* \"#utility.yul\":7004:7066   */\n      mstore\n        /* \"#utility.yul\":6917:7072   */\n      pop\n      pop\n      jump\t// out\n        /* \"#utility.yul\":7078:7422   */\n    tag_570:\n        /* \"#utility.yul\":7156:7159   */\n      0x00\n        /* \"#utility.yul\":7184:7223   */\n      tag_572\n        /* \"#utility.yul\":7217:7222   */\n      dup3\n        /* \"#utility.yul\":7184:7223   */\n      tag_573\n      jump\t// in\n    tag_572:\n        /* \"#utility.yul\":7239:7300   */\n      tag_574\n        /* \"#utility.yul\":7293:7299   */\n      dup2\n        /* \"#utility.yul\":7288:7291   */\n      dup6\n        /* \"#utility.yul\":7239:7300   */\n      tag_575\n      jump\t// in\n    tag_574:\n        /* \"#utility.yul\":7232:7300   */\n      swap4\n      pop\n        /* \"#utility.yul\":7309:7361   */\n      tag_576\n        /* \"#utility.yul\":7354:7360   */\n      dup2\n        /* \"#utility.yul\":7349:7352   */\n      dup6\n        /* \"#utility.yul\":7342:7346   */\n      0x20\n        /* \"#utility.yul\":7335:7340   */\n      dup7\n        /* \"#utility.yul\":7331:7347   */\n      add\n        /* \"#utility.yul\":7309:7361   */\n      tag_577\n      jump\t// in\n    tag_576:\n        /* \"#utility.yul\":7386:7415   */\n      tag_578\n        /* \"#utility.yul\":7408:7414   */\n      dup2\n        /* \"#utility.yul\":7386:7415   */\n      tag_579\n      jump\t// in\n    tag_578:\n        /* \"#utility.yul\":7381:7384   */\n      dup5\n        /* \"#utility.yul\":7377:7416   */\n      add\n        /* \"#utility.yul\":7370:7416   */\n      swap2\n      pop\n        /* \"#utility.yul\":7160:7422   */\n      pop\n        /* \"#utility.yul\":7078:7422   */\n      swap3\n      swap2\n      pop\n      pop\n      jump\t// out\n        /* \"#utility.yul\":7428:7792   */\n    tag_580:\n        /* \"#utility.yul\":7516:7519   */\n      0x00\n        /* \"#utility.yul\":7544:7583   */\n      tag_582\n        /* \"#utility.yul\":7577:7582   */\n      dup3\n        /* \"#utility.yul\":7544:7583   */\n      tag_573\n      jump\t// in\n    tag_582:\n        /* \"#utility.yul\":7599:7670   */\n      tag_583\n        /* \"#utility.yul\":7663:7669   */\n      dup2\n        /* \"#utility.yul\":7658:7661   */\n      dup6\n        /* \"#utility.yul\":7599:7670   */\n      tag_584\n      jump\t// in\n    tag_583:\n        /* \"#utility.yul\":7592:7670   */\n      swap4\n      pop\n        /* \"#utility.yul\":7679:7731   */\n      tag_585\n        /* \"#utility.yul\":7724:7730   */\n      dup2\n        /* \"#utility.yul\":7719:7722   */\n      dup6\n        /* \"#utility.yul\":7712:7716   */\n      0x20\n        /* \"#utility.yul\":7705:7710   */\n      dup7\n        /* \"#utility.yul\":7701:7717   */\n      add\n        /* \"#utility.yul\":7679:7731   */\n      tag_577\n      jump\t// in\n    tag_585:\n        /* \"#utility.yul\":7756:7785   */\n      tag_586\n        /* \"#utility.yul\":7778:7784   */\n      dup2\n        /* \"#utility.yul\":7756:7785   */\n      tag_579\n      jump\t// in\n    tag_586:\n        /* \"#utility.yul\":7751:7754   */\n      dup5\n        /* \"#utility.yul\":7747:7786   */\n      add\n        /* \"#utility.yul\":7740:7786   */\n      swap2\n      pop\n        /* \"#utility.yul\":7520:7792   */\n      pop\n        /* \"#utility.yul\":7428:7792   */\n      swap3\n      swap2\n      pop\n      pop\n      jump\t// out\n        /* \"#utility.yul\":7822:8667   */\n    tag_587:\n        /* \"#utility.yul\":7925:7928   */\n      0x00\n        /* \"#utility.yul\":7962:7967   */\n      dup2\n        /* \"#utility.yul\":7956:7968   */\n      sload\n        /* \"#utility.yul\":7991:8027   */\n      tag_589\n        /* \"#utility.yul\":8017:8026   */\n      dup2\n        /* \"#utility.yul\":7991:8027   */\n      tag_140\n      jump\t// in\n    tag_589:\n        /* \"#utility.yul\":8043:8132   */\n      tag_590\n        /* \"#utility.yul\":8125:8131   */\n      dup2\n        /* \"#utility.yul\":8120:8123   */\n      dup7\n        /* \"#utility.yul\":8043:8132   */\n      tag_591\n      jump\t// in\n    tag_590:\n        /* \"#utility.yul\":8036:8132   */\n      swap5\n      pop\n        /* \"#utility.yul\":8163:8164   */\n      0x01\n        /* \"#utility.yul\":8152:8161   */\n      dup3\n        /* \"#utility.yul\":8148:8165   */\n      and\n        /* \"#utility.yul\":8179:8180   */\n      0x00\n        /* \"#utility.yul\":8174:8311   */\n      dup2\n      eq\n      tag_593\n      jumpi\n        /* \"#utility.yul\":8325:8326   */\n      0x01\n        /* \"#utility.yul\":8320:8661   */\n      dup2\n      eq\n      tag_594\n      jumpi\n        /* \"#utility.yul\":8141:8661   */\n      jump(tag_592)\n        /* \"#utility.yul\":8174:8311   */\n    tag_593:\n        /* \"#utility.yul\":8258:8262   */\n      0xff\n        /* \"#utility.yul\":8254:8263   */\n      not\n        /* \"#utility.yul\":8243:8252   */\n      dup4\n        /* \"#utility.yul\":8239:8264   */\n      and\n        /* \"#utility.yul\":8234:8237   */\n      dup7\n        /* \"#utility.yul\":8227:8265   */\n      mstore\n        /* \"#utility.yul\":8294:8300   */\n      dup2\n        /* \"#utility.yul\":8289:8292   */\n      dup7\n        /* \"#utility.yul\":8285:8301   */\n      add\n        /* \"#utility.yul\":8278:8301   */\n      swap4\n      pop\n        /* \"#utility.yul\":8174:8311   */\n      jump(tag_592)\n        /* \"#utility.yul\":8320:8661   */\n    tag_594:\n        /* \"#utility.yul\":8387:8425   */\n      tag_595\n        /* \"#utility.yul\":8419:8424   */\n      dup6\n        /* \"#utility.yul\":8387:8425   */\n      tag_596\n      jump\t// in\n    tag_595:\n        /* \"#utility.yul\":8447:8448   */\n      0x00\n        /* \"#utility.yul\":8461:8615   */\n    tag_597:\n        /* \"#utility.yul\":8475:8481   */\n      dup4\n        /* \"#utility.yul\":8472:8473   */\n      dup2\n        /* \"#utility.yul\":8469:8482   */\n      lt\n        /* \"#utility.yul\":8461:8615   */\n      iszero\n      tag_599\n      jumpi\n        /* \"#utility.yul\":8549:8556   */\n      dup2\n        /* \"#utility.yul\":8543:8557   */\n      sload\n        /* \"#utility.yul\":8539:8540   */\n      dup2\n        /* \"#utility.yul\":8534:8537   */\n      dup10\n        /* \"#utility.yul\":8530:8541   */\n      add\n        /* \"#utility.yul\":8523:8558   */\n      mstore\n        /* \"#utility.yul\":8599:8600   */\n      0x01\n        /* \"#utility.yul\":8590:8597   */\n      dup3\n        /* \"#utility.yul\":8586:8601   */\n      add\n        /* \"#utility.yul\":8575:8601   */\n      swap2\n      pop\n        /* \"#utility.yul\":8497:8501   */\n      0x20\n        /* \"#utility.yul\":8494:8495   */\n      dup2\n        /* \"#utility.yul\":8490:8502   */\n      add\n        /* \"#utility.yul\":8485:8502   */\n      swap1\n      pop\n        /* \"#utility.yul\":8461:8615   */\n      jump(tag_597)\n    tag_599:\n        /* \"#utility.yul\":8644:8650   */\n      dup4\n        /* \"#utility.yul\":8639:8642   */\n      dup9\n        /* \"#utility.yul\":8635:8651   */\n      add\n        /* \"#utility.yul\":8628:8651   */\n      swap6\n      pop\n        /* \"#utility.yul\":8327:8661   */\n      pop\n      pop\n        /* \"#utility.yul\":8141:8661   */\n    tag_592:\n      pop\n        /* \"#utility.yul\":7929:8667   */\n      pop\n      pop\n        /* \"#utility.yul\":7822:8667   */\n      swap3\n      swap2\n      pop\n      pop\n      jump\t// out\n        /* \"#utility.yul\":8673:9039   */\n    tag_600:\n        /* \"#utility.yul\":8815:8818   */\n      0x00\n        /* \"#utility.yul\":8836:8903   */\n      tag_602\n        /* \"#utility.yul\":8900:8902   */\n      0x13\n        /* \"#utility.yul\":8895:8898   */\n      dup4\n        /* \"#utility.yul\":8836:8903   */\n      tag_584\n      jump\t// in\n    tag_602:\n        /* \"#utility.yul\":8829:8903   */\n      swap2\n      pop\n        /* \"#utility.yul\":8912:9005   */\n      tag_603\n        /* \"#utility.yul\":9001:9004   */\n      dup3\n        /* \"#utility.yul\":8912:9005   */\n      tag_604\n      jump\t// in\n    tag_603:\n        /* \"#utility.yul\":9030:9032   */\n      0x20\n        /* \"#utility.yul\":9025:9028   */\n      dup3\n        /* \"#utility.yul\":9021:9033   */\n      add\n        /* \"#utility.yul\":9014:9033   */\n      swap1\n      pop\n        /* \"#utility.yul\":8673:9039   */\n      swap2\n      swap1\n      pop\n      jump\t// out\n        /* \"#utility.yul\":9045:9411   */\n    tag_605:\n        /* \"#utility.yul\":9187:9190   */\n      0x00\n        /* \"#utility.yul\":9208:9275   */\n      tag_607\n        /* \"#utility.yul\":9272:9274   */\n      0x2d\n        /* \"#utility.yul\":9267:9270   */\n      dup4\n        /* \"#utility.yul\":9208:9275   */\n      tag_584\n      jump\t// in\n    tag_607:\n        /* \"#utility.yul\":9201:9275   */\n      swap2\n      pop\n        /* \"#utility.yul\":9284:9377   */\n      tag_608\n        /* \"#utility.yul\":9373:9376   */\n      dup3\n        /* \"#utility.yul\":9284:9377   */\n      tag_609\n      jump\t// in\n    tag_608:\n        /* \"#utility.yul\":9402:9404   */\n      0x40\n        /* \"#utility.yul\":9397:9400   */\n      dup3\n        /* \"#utility.yul\":9393:9405   */\n      add\n        /* \"#utility.yul\":9386:9405   */\n      swap1\n      pop\n        /* \"#utility.yul\":9045:9411   */\n      swap2\n      swap1\n      pop\n      jump\t// out\n        /* \"#utility.yul\":9417:9783   */\n    tag_610:\n        /* \"#utility.yul\":9559:9562   */\n      0x00\n        /* \"#utility.yul\":9580:9647   */\n      tag_612\n        /* \"#utility.yul\":9644:9646   */\n      0x26\n        /* \"#utility.yul\":9639:9642   */\n      dup4\n        /* \"#utility.yul\":9580:9647   */\n      tag_584\n      jump\t// in\n    tag_612:\n        /* \"#utility.yul\":9573:9647   */\n      swap2\n      pop\n        /* \"#utility.yul\":9656:9749   */\n      tag_613\n        /* \"#utility.yul\":9745:9748   */\n      dup3\n        /* \"#utility.yul\":9656:9749   */\n      tag_614\n      jump\t// in\n    tag_613:\n        /* \"#utility.yul\":9774:9776   */\n      0x40\n        /* \"#utility.yul\":9769:9772   */\n      dup3\n        /* \"#utility.yul\":9765:9777   */\n      add\n        /* \"#utility.yul\":9758:9777   */\n      swap1\n      pop\n        /* \"#utility.yul\":9417:9783   */\n      swap2\n      swap1\n      pop\n      jump\t// out\n        /* \"#utility.yul\":9789:10155   */\n    tag_615:\n        /* \"#utility.yul\":9931:9934   */\n      0x00\n        /* \"#utility.yul\":9952:10019   */\n      tag_617\n        /* \"#utility.yul\":10016:10018   */\n      0x12\n        /* \"#utility.yul\":10011:10014   */\n      dup4\n        /* \"#utility.yul\":9952:10019   */\n      tag_584\n      jump\t// in\n    tag_617:\n        /* \"#utility.yul\":9945:10019   */\n      swap2\n      pop\n        /* \"#utility.yul\":10028:10121   */\n      tag_618\n        /* \"#utility.yul\":10117:10120   */\n      dup3\n        /* \"#utility.yul\":10028:10121   */\n      tag_619\n      jump\t// in\n    tag_618:\n        /* \"#utility.yul\":10146:10148   */\n      0x20\n        /* \"#utility.yul\":10141:10144   */\n      dup3\n        /* \"#utility.yul\":10137:10149   */\n      add\n        /* \"#utility.yul\":10130:10149   */\n      swap1\n      pop\n        /* \"#utility.yul\":9789:10155   */\n      swap2\n      swap1\n      pop\n      jump\t// out\n        /* \"#utility.yul\":10161:10527   */\n    tag_620:\n        /* \"#utility.yul\":10303:10306   */\n      0x00\n        /* \"#utility.yul\":10324:10391   */\n      tag_622\n        /* \"#utility.yul\":10388:10390   */\n      0x21\n        /* \"#utility.yul\":10383:10386   */\n      dup4\n        /* \"#utility.yul\":10324:10391   */\n      tag_584\n      jump\t// in\n    tag_622:\n        /* \"#utility.yul\":10317:10391   */\n      swap2\n      pop\n        /* \"#utility.yul\":10400:10493   */\n      tag_623\n        /* \"#utility.yul\":10489:10492   */\n      dup3\n        /* \"#utility.yul\":10400:10493   */\n      tag_624\n      jump\t// in\n    tag_623:\n        /* \"#utility.yul\":10518:10520   */\n      0x40\n        /* \"#utility.yul\":10513:10516   */\n      dup3\n        /* \"#utility.yul\":10509:10521   */\n      add\n        /* \"#utility.yul\":10502:10521   */\n      swap1\n      pop\n        /* \"#utility.yul\":10161:10527   */\n      swap2\n      swap1\n      pop\n      jump\t// out\n        /* \"#utility.yul\":10533:10899   */\n    tag_625:\n        /* \"#utility.yul\":10675:10678   */\n      0x00\n        /* \"#utility.yul\":10696:10763   */\n      tag_627\n        /* \"#utility.yul\":10760:10762   */\n      0x21\n        /* \"#utility.yul\":10755:10758   */\n      dup4\n        /* \"#utility.yul\":10696:10763   */\n      tag_584\n      jump\t// in\n    tag_627:\n        /* \"#utility.yul\":10689:10763   */\n      swap2\n      pop\n        /* \"#utility.yul\":10772:10865   */\n      tag_628\n        /* \"#utility.yul\":10861:10864   */\n      dup3\n        /* \"#utility.yul\":10772:10865   */\n      tag_629\n      jump\t// in\n    tag_628:\n        /* \"#utility.yul\":10890:10892   */\n      0x40\n        /* \"#utility.yul\":10885:10888   */\n      dup3\n        /* \"#utility.yul\":10881:10893   */\n      add\n        /* \"#utility.yul\":10874:10893   */\n      swap1\n      pop\n        /* \"#utility.yul\":10533:10899   */\n      swap2\n      swap1\n      pop\n      jump\t// out\n        /* \"#utility.yul\":10905:11307   */\n    tag_630:\n        /* \"#utility.yul\":11065:11068   */\n      0x00\n        /* \"#utility.yul\":11086:11171   */\n      tag_632\n        /* \"#utility.yul\":11168:11170   */\n      0x0a\n        /* \"#utility.yul\":11163:11166   */\n      dup4\n        /* \"#utility.yul\":11086:11171   */\n      tag_591\n      jump\t// in\n    tag_632:\n        /* \"#utility.yul\":11079:11171   */\n      swap2\n      pop\n        /* \"#utility.yul\":11180:11273   */\n      tag_633\n        /* \"#utility.yul\":11269:11272   */\n      dup3\n        /* \"#utility.yul\":11180:11273   */\n      tag_634\n      jump\t// in\n    tag_633:\n        /* \"#utility.yul\":11298:11300   */\n      0x0a\n        /* \"#utility.yul\":11293:11296   */\n      dup3\n        /* \"#utility.yul\":11289:11301   */\n      add\n        /* \"#utility.yul\":11282:11301   */\n      swap1\n      pop\n        /* \"#utility.yul\":10905:11307   */\n      swap2\n      swap1\n      pop\n      jump\t// out\n        /* \"#utility.yul\":11313:11679   */\n    tag_635:\n        /* \"#utility.yul\":11455:11458   */\n      0x00\n        /* \"#utility.yul\":11476:11543   */\n      tag_637\n        /* \"#utility.yul\":11540:11542   */\n      0x20\n        /* \"#utility.yul\":11535:11538   */\n      dup4\n        /* \"#utility.yul\":11476:11543   */\n      tag_584\n      jump\t// in\n    tag_637:\n        /* \"#utility.yul\":11469:11543   */\n      swap2\n      pop\n        /* \"#utility.yul\":11552:11645   */\n      tag_638\n        /* \"#utility.yul\":11641:11644   */\n      dup3\n        /* \"#utility.yul\":11552:11645   */\n      tag_639\n      jump\t// in\n    tag_638:\n        /* \"#utility.yul\":11670:11672   */\n      0x20\n        /* \"#utility.yul\":11665:11668   */\n      dup3\n        /* \"#utility.yul\":11661:11673   */\n      add\n        /* \"#utility.yul\":11654:11673   */\n      swap1\n      pop\n        /* \"#utility.yul\":11313:11679   */\n      swap2\n      swap1\n      pop\n      jump\t// out\n        /* \"#utility.yul\":11685:12051   */\n    tag_640:\n        /* \"#utility.yul\":11827:11830   */\n      0x00\n        /* \"#utility.yul\":11848:11915   */\n      tag_642\n        /* \"#utility.yul\":11912:11914   */\n      0x14\n        /* \"#utility.yul\":11907:11910   */\n      dup4\n        /* \"#utility.yul\":11848:11915   */\n      tag_584\n      jump\t// in\n    tag_642:\n        /* \"#utility.yul\":11841:11915   */\n      swap2\n      pop\n        /* \"#utility.yul\":11924:12017   */\n      tag_643\n        /* \"#utility.yul\":12013:12016   */\n      dup3\n        /* \"#utility.yul\":11924:12017   */\n      tag_644\n      jump\t// in\n    tag_643:\n        /* \"#utility.yul\":12042:12044   */\n      0x20\n        /* \"#utility.yul\":12037:12040   */\n      dup3\n        /* \"#utility.yul\":12033:12045   */\n      add\n        /* \"#utility.yul\":12026:12045   */\n      swap1\n      pop\n        /* \"#utility.yul\":11685:12051   */\n      swap2\n      swap1\n      pop\n      jump\t// out\n        /* \"#utility.yul\":12057:12423   */\n    tag_645:\n        /* \"#utility.yul\":12199:12202   */\n      0x00\n        /* \"#utility.yul\":12220:12287   */\n      tag_647\n        /* \"#utility.yul\":12284:12286   */\n      0x2c\n        /* \"#utility.yul\":12279:12282   */\n      dup4\n        /* \"#utility.yul\":12220:12287   */\n      tag_584\n      jump\t// in\n    tag_647:\n        /* \"#utility.yul\":12213:12287   */\n      swap2\n      pop\n        /* \"#utility.yul\":12296:12389   */\n      tag_648\n        /* \"#utility.yul\":12385:12388   */\n      dup3\n        /* \"#utility.yul\":12296:12389   */\n      tag_649\n      jump\t// in\n    tag_648:\n        /* \"#utility.yul\":12414:12416   */\n      0x40\n        /* \"#utility.yul\":12409:12412   */\n      dup3\n        /* \"#utility.yul\":12405:12417   */\n      add\n        /* \"#utility.yul\":12398:12417   */\n      swap1\n      pop\n        /* \"#utility.yul\":12057:12423   */\n      swap2\n      swap1\n      pop\n      jump\t// out\n        /* \"#utility.yul\":12429:12795   */\n    tag_650:\n        /* \"#utility.yul\":12571:12574   */\n      0x00\n        /* \"#utility.yul\":12592:12659   */\n      tag_652\n        /* \"#utility.yul\":12656:12658   */\n      0x15\n        /* \"#utility.yul\":12651:12654   */\n      dup4\n        /* \"#utility.yul\":12592:12659   */\n      tag_584\n      jump\t// in\n    tag_652:\n        /* \"#utility.yul\":12585:12659   */\n      swap2\n      pop\n        /* \"#utility.yul\":12668:12761   */\n      tag_653\n        /* \"#utility.yul\":12757:12760   */\n      dup3\n        /* \"#utility.yul\":12668:12761   */\n      tag_654\n      jump\t// in\n    tag_653:\n        /* \"#utility.yul\":12786:12788   */\n      0x20\n        /* \"#utility.yul\":12781:12784   */\n      dup3\n        /* \"#utility.yul\":12777:12789   */\n      add\n        /* \"#utility.yul\":12770:12789   */\n      swap1\n      pop\n        /* \"#utility.yul\":12429:12795   */\n      swap2\n      swap1\n      pop\n      jump\t// out\n        /* \"#utility.yul\":12801:13167   */\n    tag_655:\n        /* \"#utility.yul\":12943:12946   */\n      0x00\n        /* \"#utility.yul\":12964:13031   */\n      tag_657\n        /* \"#utility.yul\":13028:13030   */\n      0x1c\n        /* \"#utility.yul\":13023:13026   */\n      dup4\n        /* \"#utility.yul\":12964:13031   */\n      tag_584\n      jump\t// in\n    tag_657:\n        /* \"#utility.yul\":12957:13031   */\n      swap2\n      pop\n        /* \"#utility.yul\":13040:13133   */\n      tag_658\n        /* \"#utility.yul\":13129:13132   */\n      dup3\n        /* \"#utility.yul\":13040:13133   */\n      tag_659\n      jump\t// in\n    tag_658:\n        /* \"#utility.yul\":13158:13160   */\n      0x20\n        /* \"#utility.yul\":13153:13156   */\n      dup3\n        /* \"#utility.yul\":13149:13161   */\n      add\n        /* \"#utility.yul\":13142:13161   */\n      swap1\n      pop\n        /* \"#utility.yul\":12801:13167   */\n      swap2\n      swap1\n      pop\n      jump\t// out\n        /* \"#utility.yul\":13173:13539   */\n    tag_660:\n        /* \"#utility.yul\":13315:13318   */\n      0x00\n        /* \"#utility.yul\":13336:13403   */\n      tag_662\n        /* \"#utility.yul\":13400:13402   */\n      0x20\n        /* \"#utility.yul\":13395:13398   */\n      dup4\n        /* \"#utility.yul\":13336:13403   */\n      tag_584\n      jump\t// in\n    tag_662:\n        /* \"#utility.yul\":13329:13403   */\n      swap2\n      pop\n        /* \"#utility.yul\":13412:13505   */\n      tag_663\n        /* \"#utility.yul\":13501:13504   */\n      dup3\n        /* \"#utility.yul\":13412:13505   */\n      tag_664\n      jump\t// in\n    tag_663:\n        /* \"#utility.yul\":13530:13532   */\n      0x20\n        /* \"#utility.yul\":13525:13528   */\n      dup3\n        /* \"#utility.yul\":13521:13533   */\n      add\n        /* \"#utility.yul\":13514:13533   */\n      swap1\n      pop\n        /* \"#utility.yul\":13173:13539   */\n      swap2\n      swap1\n      pop\n      jump\t// out\n        /* \"#utility.yul\":13545:13911   */\n    tag_665:\n        /* \"#utility.yul\":13687:13690   */\n      0x00\n        /* \"#utility.yul\":13708:13775   */\n      tag_667\n        /* \"#utility.yul\":13772:13774   */\n      0x39\n        /* \"#utility.yul\":13767:13770   */\n      dup4\n        /* \"#utility.yul\":13708:13775   */\n      tag_584\n      jump\t// in\n    tag_667:\n        /* \"#utility.yul\":13701:13775   */\n      swap2\n      pop\n        /* \"#utility.yul\":13784:13877   */\n      tag_668\n        /* \"#utility.yul\":13873:13876   */\n      dup3\n        /* \"#utility.yul\":13784:13877   */\n      tag_669\n      jump\t// in\n    tag_668:\n        /* \"#utility.yul\":13902:13904   */\n      0x40\n        /* \"#utility.yul\":13897:13900   */\n      dup3\n        /* \"#utility.yul\":13893:13905   */\n      add\n        /* \"#utility.yul\":13886:13905   */\n      swap1\n      pop\n        /* \"#utility.yul\":13545:13911   */\n      swap2\n      swap1\n      pop\n      jump\t// out\n        /* \"#utility.yul\":13917:14283   */\n    tag_670:\n        /* \"#utility.yul\":14059:14062   */\n      0x00\n        /* \"#utility.yul\":14080:14147   */\n      tag_672\n        /* \"#utility.yul\":14144:14146   */\n      0x14\n        /* \"#utility.yul\":14139:14142   */\n      dup4\n        /* \"#utility.yul\":14080:14147   */\n      tag_584\n      jump\t// in\n    tag_672:\n        /* \"#utility.yul\":14073:14147   */\n      swap2\n      pop\n        /* \"#utility.yul\":14156:14249   */\n      tag_673\n        /* \"#utility.yul\":14245:14248   */\n      dup3\n        /* \"#utility.yul\":14156:14249   */\n      tag_674\n      jump\t// in\n    tag_673:\n        /* \"#utility.yul\":14274:14276   */\n      0x20\n        /* \"#utility.yul\":14269:14272   */\n      dup3\n        /* \"#utility.yul\":14265:14277   */\n      add\n        /* \"#utility.yul\":14258:14277   */\n      swap1\n      pop\n        /* \"#utility.yul\":13917:14283   */\n      swap2\n      swap1\n      pop\n      jump\t// out\n        /* \"#utility.yul\":14355:16239   */\n    tag_537:\n        /* \"#utility.yul\":14460:14463   */\n      0x00\n        /* \"#utility.yul\":14496:14502   */\n      0x0120\n        /* \"#utility.yul\":14491:14494   */\n      dup4\n        /* \"#utility.yul\":14487:14503   */\n      add\n        /* \"#utility.yul\":14583:14587   */\n      0x00\n        /* \"#utility.yul\":14576:14581   */\n      dup4\n        /* \"#utility.yul\":14572:14588   */\n      add\n        /* \"#utility.yul\":14566:14589   */\n      mload\n        /* \"#utility.yul\":14602:14663   */\n      tag_676\n        /* \"#utility.yul\":14657:14661   */\n      0x00\n        /* \"#utility.yul\":14652:14655   */\n      dup7\n        /* \"#utility.yul\":14648:14662   */\n      add\n        /* \"#utility.yul\":14634:14646   */\n      dup3\n        /* \"#utility.yul\":14602:14663   */\n      tag_677\n      jump\t// in\n    tag_676:\n        /* \"#utility.yul\":14513:14673   */\n      pop\n        /* \"#utility.yul\":14756:14760   */\n      0x20\n        /* \"#utility.yul\":14749:14754   */\n      dup4\n        /* \"#utility.yul\":14745:14761   */\n      add\n        /* \"#utility.yul\":14739:14762   */\n      mload\n        /* \"#utility.yul\":14809:14812   */\n      dup5\n        /* \"#utility.yul\":14803:14807   */\n      dup3\n        /* \"#utility.yul\":14799:14813   */\n      sub\n        /* \"#utility.yul\":14792:14796   */\n      0x20\n        /* \"#utility.yul\":14787:14790   */\n      dup7\n        /* \"#utility.yul\":14783:14797   */\n      add\n        /* \"#utility.yul\":14776:14814   */\n      mstore\n        /* \"#utility.yul\":14835:14908   */\n      tag_678\n        /* \"#utility.yul\":14903:14907   */\n      dup3\n        /* \"#utility.yul\":14889:14901   */\n      dup3\n        /* \"#utility.yul\":14835:14908   */\n      tag_570\n      jump\t// in\n    tag_678:\n        /* \"#utility.yul\":14827:14908   */\n      swap2\n      pop\n        /* \"#utility.yul\":14683:14919   */\n      pop\n        /* \"#utility.yul\":15002:15006   */\n      0x40\n        /* \"#utility.yul\":14995:15000   */\n      dup4\n        /* \"#utility.yul\":14991:15007   */\n      add\n        /* \"#utility.yul\":14985:15008   */\n      mload\n        /* \"#utility.yul\":15021:15082   */\n      tag_679\n        /* \"#utility.yul\":15076:15080   */\n      0x40\n        /* \"#utility.yul\":15071:15074   */\n      dup7\n        /* \"#utility.yul\":15067:15081   */\n      add\n        /* \"#utility.yul\":15053:15065   */\n      dup3\n        /* \"#utility.yul\":15021:15082   */\n      tag_680\n      jump\t// in\n    tag_679:\n        /* \"#utility.yul\":14929:15092   */\n      pop\n        /* \"#utility.yul\":15176:15180   */\n      0x60\n        /* \"#utility.yul\":15169:15174   */\n      dup4\n        /* \"#utility.yul\":15165:15181   */\n      add\n        /* \"#utility.yul\":15159:15182   */\n      mload\n        /* \"#utility.yul\":15195:15256   */\n      tag_681\n        /* \"#utility.yul\":15250:15254   */\n      0x60\n        /* \"#utility.yul\":15245:15248   */\n      dup7\n        /* \"#utility.yul\":15241:15255   */\n      add\n        /* \"#utility.yul\":15227:15239   */\n      dup3\n        /* \"#utility.yul\":15195:15256   */\n      tag_680\n      jump\t// in\n    tag_681:\n        /* \"#utility.yul\":15102:15266   */\n      pop\n        /* \"#utility.yul\":15352:15356   */\n      0x80\n        /* \"#utility.yul\":15345:15350   */\n      dup4\n        /* \"#utility.yul\":15341:15357   */\n      add\n        /* \"#utility.yul\":15335:15358   */\n      mload\n        /* \"#utility.yul\":15371:15434   */\n      tag_682\n        /* \"#utility.yul\":15428:15432   */\n      0x80\n        /* \"#utility.yul\":15423:15426   */\n      dup7\n        /* \"#utility.yul\":15419:15433   */\n      add\n        /* \"#utility.yul\":15405:15417   */\n      dup3\n        /* \"#utility.yul\":15371:15434   */\n      tag_538\n      jump\t// in\n    tag_682:\n        /* \"#utility.yul\":15276:15444   */\n      pop\n        /* \"#utility.yul\":15540:15544   */\n      0xa0\n        /* \"#utility.yul\":15533:15538   */\n      dup4\n        /* \"#utility.yul\":15529:15545   */\n      add\n        /* \"#utility.yul\":15523:15546   */\n      mload\n        /* \"#utility.yul\":15559:15622   */\n      tag_683\n        /* \"#utility.yul\":15616:15620   */\n      0xa0\n        /* \"#utility.yul\":15611:15614   */\n      dup7\n        /* \"#utility.yul\":15607:15621   */\n      add\n        /* \"#utility.yul\":15593:15605   */\n      dup3\n        /* \"#utility.yul\":15559:15622   */\n      tag_684\n      jump\t// in\n    tag_683:\n        /* \"#utility.yul\":15454:15632   */\n      pop\n        /* \"#utility.yul\":15737:15741   */\n      0xc0\n        /* \"#utility.yul\":15730:15735   */\n      dup4\n        /* \"#utility.yul\":15726:15742   */\n      add\n        /* \"#utility.yul\":15720:15743   */\n      mload\n        /* \"#utility.yul\":15756:15819   */\n      tag_685\n        /* \"#utility.yul\":15813:15817   */\n      0xc0\n        /* \"#utility.yul\":15808:15811   */\n      dup7\n        /* \"#utility.yul\":15804:15818   */\n      add\n        /* \"#utility.yul\":15790:15802   */\n      dup3\n        /* \"#utility.yul\":15756:15819   */\n      tag_684\n      jump\t// in\n    tag_685:\n        /* \"#utility.yul\":15642:15829   */\n      pop\n        /* \"#utility.yul\":15924:15928   */\n      0xe0\n        /* \"#utility.yul\":15917:15922   */\n      dup4\n        /* \"#utility.yul\":15913:15929   */\n      add\n        /* \"#utility.yul\":15907:15930   */\n      mload\n        /* \"#utility.yul\":15943:16006   */\n      tag_686\n        /* \"#utility.yul\":16000:16004   */\n      0xe0\n        /* \"#utility.yul\":15995:15998   */\n      dup7\n        /* \"#utility.yul\":15991:16005   */\n      add\n        /* \"#utility.yul\":15977:15989   */\n      dup3\n        /* \"#utility.yul\":15943:16006   */\n      tag_684\n      jump\t// in\n    tag_686:\n        /* \"#utility.yul\":15839:16016   */\n      pop\n        /* \"#utility.yul\":16104:16110   */\n      0x0100\n        /* \"#utility.yul\":16097:16102   */\n      dup4\n        /* \"#utility.yul\":16093:16111   */\n      add\n        /* \"#utility.yul\":16087:16112   */\n      mload\n        /* \"#utility.yul\":16125:16202   */\n      tag_687\n        /* \"#utility.yul\":16194:16200   */\n      0x0100\n        /* \"#utility.yul\":16189:16192   */\n      dup7\n        /* \"#utility.yul\":16185:16201   */\n      add\n        /* \"#utility.yul\":16171:16183   */\n      dup3\n        /* \"#utility.yul\":16125:16202   */\n      tag_563\n      jump\t// in\n    tag_687:\n        /* \"#utility.yul\":16026:16212   */\n      pop\n        /* \"#utility.yul\":16229:16233   */\n      dup1\n        /* \"#utility.yul\":16222:16233   */\n      swap2\n      pop\n        /* \"#utility.yul\":14465:16239   */\n      pop\n        /* \"#utility.yul\":14355:16239   */\n      swap3\n      swap2\n      pop\n      pop\n      jump\t// out\n        /* \"#utility.yul\":16245:16350   */\n    tag_677:\n        /* \"#utility.yul\":16320:16343   */\n      tag_689\n        /* \"#utility.yul\":16337:16342   */\n      dup2\n        /* \"#utility.yul\":16320:16343   */\n      tag_690\n      jump\t// in\n    tag_689:\n        /* \"#utility.yul\":16315:16318   */\n      dup3\n        /* \"#utility.yul\":16308:16344   */\n      mstore\n        /* \"#utility.yul\":16245:16350   */\n      pop\n      pop\n      jump\t// out\n        /* \"#utility.yul\":16356:16471   */\n    tag_691:\n        /* \"#utility.yul\":16441:16464   */\n      tag_693\n        /* \"#utility.yul\":16458:16463   */\n      dup2\n        /* \"#utility.yul\":16441:16464   */\n      tag_690\n      jump\t// in\n    tag_693:\n        /* \"#utility.yul\":16436:16439   */\n      dup3\n        /* \"#utility.yul\":16429:16465   */\n      mstore\n        /* \"#utility.yul\":16356:16471   */\n      pop\n      pop\n      jump\t// out\n        /* \"#utility.yul\":16477:16585   */\n    tag_684:\n        /* \"#utility.yul\":16554:16578   */\n      tag_695\n        /* \"#utility.yul\":16572:16577   */\n      dup2\n        /* \"#utility.yul\":16554:16578   */\n      tag_696\n      jump\t// in\n    tag_695:\n        /* \"#utility.yul\":16549:16552   */\n      dup3\n        /* \"#utility.yul\":16542:16579   */\n      mstore\n        /* \"#utility.yul\":16477:16585   */\n      pop\n      pop\n      jump\t// out\n        /* \"#utility.yul\":16591:16709   */\n    tag_697:\n        /* \"#utility.yul\":16678:16702   */\n      tag_699\n        /* \"#utility.yul\":16696:16701   */\n      dup2\n        /* \"#utility.yul\":16678:16702   */\n      tag_696\n      jump\t// in\n    tag_699:\n        /* \"#utility.yul\":16673:16676   */\n      dup3\n        /* \"#utility.yul\":16666:16703   */\n      mstore\n        /* \"#utility.yul\":16591:16709   */\n      pop\n      pop\n      jump\t// out\n        /* \"#utility.yul\":16715:16820   */\n    tag_680:\n        /* \"#utility.yul\":16790:16813   */\n      tag_701\n        /* \"#utility.yul\":16807:16812   */\n      dup2\n        /* \"#utility.yul\":16790:16813   */\n      tag_702\n      jump\t// in\n    tag_701:\n        /* \"#utility.yul\":16785:16788   */\n      dup3\n        /* \"#utility.yul\":16778:16814   */\n      mstore\n        /* \"#utility.yul\":16715:16820   */\n      pop\n      pop\n      jump\t// out\n        /* \"#utility.yul\":16826:16941   */\n    tag_703:\n        /* \"#utility.yul\":16911:16934   */\n      tag_705\n        /* \"#utility.yul\":16928:16933   */\n      dup2\n        /* \"#utility.yul\":16911:16934   */\n      tag_702\n      jump\t// in\n    tag_705:\n        /* \"#utility.yul\":16906:16909   */\n      dup3\n        /* \"#utility.yul\":16899:16935   */\n      mstore\n        /* \"#utility.yul\":16826:16941   */\n      pop\n      pop\n      jump\t// out\n        /* \"#utility.yul\":16947:17059   */\n    tag_706:\n        /* \"#utility.yul\":17030:17052   */\n      tag_708\n        /* \"#utility.yul\":17046:17051   */\n      dup2\n        /* \"#utility.yul\":17030:17052   */\n      tag_709\n      jump\t// in\n    tag_708:\n        /* \"#utility.yul\":17025:17028   */\n      dup3\n        /* \"#utility.yul\":17018:17053   */\n      mstore\n        /* \"#utility.yul\":16947:17059   */\n      pop\n      pop\n      jump\t// out\n        /* \"#utility.yul\":17065:17600   */\n    tag_248:\n        /* \"#utility.yul\":17295:17298   */\n      0x00\n        /* \"#utility.yul\":17317:17465   */\n      tag_711\n        /* \"#utility.yul\":17461:17464   */\n      dup3\n        /* \"#utility.yul\":17317:17465   */\n      tag_630\n      jump\t// in\n    tag_711:\n        /* \"#utility.yul\":17310:17465   */\n      swap2\n      pop\n        /* \"#utility.yul\":17482:17574   */\n      tag_712\n        /* \"#utility.yul\":17570:17573   */\n      dup3\n        /* \"#utility.yul\":17561:17567   */\n      dup5\n        /* \"#utility.yul\":17482:17574   */\n      tag_587\n      jump\t// in\n    tag_712:\n        /* \"#utility.yul\":17475:17574   */\n      swap2\n      pop\n        /* \"#utility.yul\":17591:17594   */\n      dup2\n        /* \"#utility.yul\":17584:17594   */\n      swap1\n      pop\n        /* \"#utility.yul\":17065:17600   */\n      swap3\n      swap2\n      pop\n      pop\n      jump\t// out\n        /* \"#utility.yul\":17606:17828   */\n    tag_42:\n        /* \"#utility.yul\":17699:17703   */\n      0x00\n        /* \"#utility.yul\":17737:17739   */\n      0x20\n        /* \"#utility.yul\":17726:17735   */\n      dup3\n        /* \"#utility.yul\":17722:17740   */\n      add\n        /* \"#utility.yul\":17714:17740   */\n      swap1\n      pop\n        /* \"#utility.yul\":17750:17821   */\n      tag_714\n        /* \"#utility.yul\":17818:17819   */\n      0x00\n        /* \"#utility.yul\":17807:17816   */\n      dup4\n        /* \"#utility.yul\":17803:17820   */\n      add\n        /* \"#utility.yul\":17794:17800   */\n      dup5\n        /* \"#utility.yul\":17750:17821   */\n      tag_542\n      jump\t// in\n    tag_714:\n        /* \"#utility.yul\":17606:17828   */\n      swap3\n      swap2\n      pop\n      pop\n      jump\t// out\n        /* \"#utility.yul\":17834:18299   */\n    tag_38:\n        /* \"#utility.yul\":18023:18027   */\n      0x00\n        /* \"#utility.yul\":18061:18063   */\n      0x20\n        /* \"#utility.yul\":18050:18059   */\n      dup3\n        /* \"#utility.yul\":18046:18064   */\n      add\n        /* \"#utility.yul\":18038:18064   */\n      swap1\n      pop\n        /* \"#utility.yul\":18110:18119   */\n      dup2\n        /* \"#utility.yul\":18104:18108   */\n      dup2\n        /* \"#utility.yul\":18100:18120   */\n      sub\n        /* \"#utility.yul\":18096:18097   */\n      0x00\n        /* \"#utility.yul\":18085:18094   */\n      dup4\n        /* \"#utility.yul\":18081:18098   */\n      add\n        /* \"#utility.yul\":18074:18121   */\n      mstore\n        /* \"#utility.yul\":18138:18292   */\n      tag_716\n        /* \"#utility.yul\":18287:18291   */\n      dup2\n        /* \"#utility.yul\":18278:18284   */\n      dup5\n        /* \"#utility.yul\":18138:18292   */\n      tag_545\n      jump\t// in\n    tag_716:\n        /* \"#utility.yul\":18130:18292   */\n      swap1\n      pop\n        /* \"#utility.yul\":17834:18299   */\n      swap3\n      swap2\n      pop\n      pop\n      jump\t// out\n        /* \"#utility.yul\":18305:18515   */\n    tag_28:\n        /* \"#utility.yul\":18392:18396   */\n      0x00\n        /* \"#utility.yul\":18430:18432   */\n      0x20\n        /* \"#utility.yul\":18419:18428   */\n      dup3\n        /* \"#utility.yul\":18415:18433   */\n      add\n        /* \"#utility.yul\":18407:18433   */\n      swap1\n      pop\n        /* \"#utility.yul\":18443:18508   */\n      tag_718\n        /* \"#utility.yul\":18505:18506   */\n      0x00\n        /* \"#utility.yul\":18494:18503   */\n      dup4\n        /* \"#utility.yul\":18490:18507   */\n      add\n        /* \"#utility.yul\":18481:18487   */\n      dup5\n        /* \"#utility.yul\":18443:18508   */\n      tag_559\n      jump\t// in\n    tag_718:\n        /* \"#utility.yul\":18305:18515   */\n      swap3\n      swap2\n      pop\n      pop\n      jump\t// out\n        /* \"#utility.yul\":18521:18940   */\n    tag_106:\n        /* \"#utility.yul\":18687:18691   */\n      0x00\n        /* \"#utility.yul\":18725:18727   */\n      0x20\n        /* \"#utility.yul\":18714:18723   */\n      dup3\n        /* \"#utility.yul\":18710:18728   */\n      add\n        /* \"#utility.yul\":18702:18728   */\n      swap1\n      pop\n        /* \"#utility.yul\":18774:18783   */\n      dup2\n        /* \"#utility.yul\":18768:18772   */\n      dup2\n        /* \"#utility.yul\":18764:18784   */\n      sub\n        /* \"#utility.yul\":18760:18761   */\n      0x00\n        /* \"#utility.yul\":18749:18758   */\n      dup4\n        /* \"#utility.yul\":18745:18762   */\n      add\n        /* \"#utility.yul\":18738:18785   */\n      mstore\n        /* \"#utility.yul\":18802:18933   */\n      tag_720\n        /* \"#utility.yul\":18928:18932   */\n      dup2\n        /* \"#utility.yul\":18802:18933   */\n      tag_600\n      jump\t// in\n    tag_720:\n        /* \"#utility.yul\":18794:18933   */\n      swap1\n      pop\n        /* \"#utility.yul\":18521:18940   */\n      swap2\n      swap1\n      pop\n      jump\t// out\n        /* \"#utility.yul\":18946:19365   */\n    tag_117:\n        /* \"#utility.yul\":19112:19116   */\n      0x00\n        /* \"#utility.yul\":19150:19152   */\n      0x20\n        /* \"#utility.yul\":19139:19148   */\n      dup3\n        /* \"#utility.yul\":19135:19153   */\n      add\n        /* \"#utility.yul\":19127:19153   */\n      swap1\n      pop\n        /* \"#utility.yul\":19199:19208   */\n      dup2\n        /* \"#utility.yul\":19193:19197   */\n      dup2\n        /* \"#utility.yul\":19189:19209   */\n      sub\n        /* \"#utility.yul\":19185:19186   */\n      0x00\n        /* \"#utility.yul\":19174:19183   */\n      dup4\n        /* \"#utility.yul\":19170:19187   */\n      add\n        /* \"#utility.yul\":19163:19210   */\n      mstore\n        /* \"#utility.yul\":19227:19358   */\n      tag_722\n        /* \"#utility.yul\":19353:19357   */\n      dup2\n        /* \"#utility.yul\":19227:19358   */\n      tag_605\n      jump\t// in\n    tag_722:\n        /* \"#utility.yul\":19219:19358   */\n      swap1\n      pop\n        /* \"#utility.yul\":18946:19365   */\n      swap2\n      swap1\n      pop\n      jump\t// out\n        /* \"#utility.yul\":19371:19790   */\n    tag_380:\n        /* \"#utility.yul\":19537:19541   */\n      0x00\n        /* \"#utility.yul\":19575:19577   */\n      0x20\n        /* \"#utility.yul\":19564:19573   */\n      dup3\n        /* \"#utility.yul\":19560:19578   */\n      add\n        /* \"#utility.yul\":19552:19578   */\n      swap1\n      pop\n        /* \"#utility.yul\":19624:19633   */\n      dup2\n        /* \"#utility.yul\":19618:19622   */\n      dup2\n        /* \"#utility.yul\":19614:19634   */\n      sub\n        /* \"#utility.yul\":19610:19611   */\n      0x00\n        /* \"#utility.yul\":19599:19608   */\n      dup4\n        /* \"#utility.yul\":19595:19612   */\n      add\n        /* \"#utility.yul\":19588:19635   */\n      mstore\n        /* \"#utility.yul\":19652:19783   */\n      tag_724\n        /* \"#utility.yul\":19778:19782   */\n      dup2\n        /* \"#utility.yul\":19652:19783   */\n      tag_610\n      jump\t// in\n    tag_724:\n        /* \"#utility.yul\":19644:19783   */\n      swap1\n      pop\n        /* \"#utility.yul\":19371:19790   */\n      swap2\n      swap1\n      pop\n      jump\t// out\n        /* \"#utility.yul\":19796:20215   */\n    tag_102:\n        /* \"#utility.yul\":19962:19966   */\n      0x00\n        /* \"#utility.yul\":20000:20002   */\n      0x20\n        /* \"#utility.yul\":19989:19998   */\n      dup3\n        /* \"#utility.yul\":19985:20003   */\n      add\n        /* \"#utility.yul\":19977:20003   */\n      swap1\n      pop\n        /* \"#utility.yul\":20049:20058   */\n      dup2\n        /* \"#utility.yul\":20043:20047   */\n      dup2\n        /* \"#utility.yul\":20039:20059   */\n      sub\n        /* \"#utility.yul\":20035:20036   */\n      0x00\n        /* \"#utility.yul\":20024:20033   */\n      dup4\n        /* \"#utility.yul\":20020:20037   */\n      add\n        /* \"#utility.yul\":20013:20060   */\n      mstore\n        /* \"#utility.yul\":20077:20208   */\n      tag_726\n        /* \"#utility.yul\":20203:20207   */\n      dup2\n        /* \"#utility.yul\":20077:20208   */\n      tag_615\n      jump\t// in\n    tag_726:\n        /* \"#utility.yul\":20069:20208   */\n      swap1\n      pop\n        /* \"#utility.yul\":19796:20215   */\n      swap2\n      swap1\n      pop\n      jump\t// out\n        /* \"#utility.yul\":20221:20640   */\n    tag_365:\n        /* \"#utility.yul\":20387:20391   */\n      0x00\n        /* \"#utility.yul\":20425:20427   */\n      0x20\n        /* \"#utility.yul\":20414:20423   */\n      dup3\n        /* \"#utility.yul\":20410:20428   */\n      add\n        /* \"#utility.yul\":20402:20428   */\n      swap1\n      pop\n        /* \"#utility.yul\":20474:20483   */\n      dup2\n        /* \"#utility.yul\":20468:20472   */\n      dup2\n        /* \"#utility.yul\":20464:20484   */\n      sub\n        /* \"#utility.yul\":20460:20461   */\n      0x00\n        /* \"#utility.yul\":20449:20458   */\n      dup4\n        /* \"#utility.yul\":20445:20462   */\n      add\n        /* \"#utility.yul\":20438:20485   */\n      mstore\n        /* \"#utility.yul\":20502:20633   */\n      tag_728\n        /* \"#utility.yul\":20628:20632   */\n      dup2\n        /* \"#utility.yul\":20502:20633   */\n      tag_620\n      jump\t// in\n    tag_728:\n        /* \"#utility.yul\":20494:20633   */\n      swap1\n      pop\n        /* \"#utility.yul\":20221:20640   */\n      swap2\n      swap1\n      pop\n      jump\t// out\n        /* \"#utility.yul\":20646:21065   */\n    tag_373:\n        /* \"#utility.yul\":20812:20816   */\n      0x00\n        /* \"#utility.yul\":20850:20852   */\n      0x20\n        /* \"#utility.yul\":20839:20848   */\n      dup3\n        /* \"#utility.yul\":20835:20853   */\n      add\n        /* \"#utility.yul\":20827:20853   */\n      swap1\n      pop\n        /* \"#utility.yul\":20899:20908   */\n      dup2\n        /* \"#utility.yul\":20893:20897   */\n      dup2\n        /* \"#utility.yul\":20889:20909   */\n      sub\n        /* \"#utility.yul\":20885:20886   */\n      0x00\n        /* \"#utility.yul\":20874:20883   */\n      dup4\n        /* \"#utility.yul\":20870:20887   */\n      add\n        /* \"#utility.yul\":20863:20910   */\n      mstore\n        /* \"#utility.yul\":20927:21058   */\n      tag_730\n        /* \"#utility.yul\":21053:21057   */\n      dup2\n        /* \"#utility.yul\":20927:21058   */\n      tag_625\n      jump\t// in\n    tag_730:\n        /* \"#utility.yul\":20919:21058   */\n      swap1\n      pop\n        /* \"#utility.yul\":20646:21065   */\n      swap2\n      swap1\n      pop\n      jump\t// out\n        /* \"#utility.yul\":21071:21490   */\n    tag_408:\n        /* \"#utility.yul\":21237:21241   */\n      0x00\n        /* \"#utility.yul\":21275:21277   */\n      0x20\n        /* \"#utility.yul\":21264:21273   */\n      dup3\n        /* \"#utility.yul\":21260:21278   */\n      add\n        /* \"#utility.yul\":21252:21278   */\n      swap1\n      pop\n        /* \"#utility.yul\":21324:21333   */\n      dup2\n        /* \"#utility.yul\":21318:21322   */\n      dup2\n        /* \"#utility.yul\":21314:21334   */\n      sub\n        /* \"#utility.yul\":21310:21311   */\n      0x00\n        /* \"#utility.yul\":21299:21308   */\n      dup4\n        /* \"#utility.yul\":21295:21312   */\n      add\n        /* \"#utility.yul\":21288:21335   */\n      mstore\n        /* \"#utility.yul\":21352:21483   */\n      tag_732\n        /* \"#utility.yul\":21478:21482   */\n      dup2\n        /* \"#utility.yul\":21352:21483   */\n      tag_635\n      jump\t// in\n    tag_732:\n        /* \"#utility.yul\":21344:21483   */\n      swap1\n      pop\n        /* \"#utility.yul\":21071:21490   */\n      swap2\n      swap1\n      pop\n      jump\t// out\n        /* \"#utility.yul\":21496:21915   */\n    tag_369:\n        /* \"#utility.yul\":21662:21666   */\n      0x00\n        /* \"#utility.yul\":21700:21702   */\n      0x20\n        /* \"#utility.yul\":21689:21698   */\n      dup3\n        /* \"#utility.yul\":21685:21703   */\n      add\n        /* \"#utility.yul\":21677:21703   */\n      swap1\n      pop\n        /* \"#utility.yul\":21749:21758   */\n      dup2\n        /* \"#utility.yul\":21743:21747   */\n      dup2\n        /* \"#utility.yul\":21739:21759   */\n      sub\n        /* \"#utility.yul\":21735:21736   */\n      0x00\n        /* \"#utility.yul\":21724:21733   */\n      dup4\n        /* \"#utility.yul\":21720:21737   */\n      add\n        /* \"#utility.yul\":21713:21760   */\n      mstore\n        /* \"#utility.yul\":21777:21908   */\n      tag_734\n        /* \"#utility.yul\":21903:21907   */\n      dup2\n        /* \"#utility.yul\":21777:21908   */\n      tag_640\n      jump\t// in\n    tag_734:\n        /* \"#utility.yul\":21769:21908   */\n      swap1\n      pop\n        /* \"#utility.yul\":21496:21915   */\n      swap2\n      swap1\n      pop\n      jump\t// out\n        /* \"#utility.yul\":21921:22340   */\n    tag_227:\n        /* \"#utility.yul\":22087:22091   */\n      0x00\n        /* \"#utility.yul\":22125:22127   */\n      0x20\n        /* \"#utility.yul\":22114:22123   */\n      dup3\n        /* \"#utility.yul\":22110:22128   */\n      add\n        /* \"#utility.yul\":22102:22128   */\n      swap1\n      pop\n        /* \"#utility.yul\":22174:22183   */\n      dup2\n        /* \"#utility.yul\":22168:22172   */\n      dup2\n        /* \"#utility.yul\":22164:22184   */\n      sub\n        /* \"#utility.yul\":22160:22161   */\n      0x00\n        /* \"#utility.yul\":22149:22158   */\n      dup4\n        /* \"#utility.yul\":22145:22162   */\n      add\n        /* \"#utility.yul\":22138:22185   */\n      mstore\n        /* \"#utility.yul\":22202:22333   */\n      tag_736\n        /* \"#utility.yul\":22328:22332   */\n      dup2\n        /* \"#utility.yul\":22202:22333   */\n      tag_645\n      jump\t// in\n    tag_736:\n        /* \"#utility.yul\":22194:22333   */\n      swap1\n      pop\n        /* \"#utility.yul\":21921:22340   */\n      swap2\n      swap1\n      pop\n      jump\t// out\n        /* \"#utility.yul\":22346:22765   */\n    tag_109:\n        /* \"#utility.yul\":22512:22516   */\n      0x00\n        /* \"#utility.yul\":22550:22552   */\n      0x20\n        /* \"#utility.yul\":22539:22548   */\n      dup3\n        /* \"#utility.yul\":22535:22553   */\n      add\n        /* \"#utility.yul\":22527:22553   */\n      swap1\n      pop\n        /* \"#utility.yul\":22599:22608   */\n      dup2\n        /* \"#utility.yul\":22593:22597   */\n      dup2\n        /* \"#utility.yul\":22589:22609   */\n      sub\n        /* \"#utility.yul\":22585:22586   */\n      0x00\n        /* \"#utility.yul\":22574:22583   */\n      dup4\n        /* \"#utility.yul\":22570:22587   */\n      add\n        /* \"#utility.yul\":22563:22610   */\n      mstore\n        /* \"#utility.yul\":22627:22758   */\n      tag_738\n        /* \"#utility.yul\":22753:22757   */\n      dup2\n        /* \"#utility.yul\":22627:22758   */\n      tag_650\n      jump\t// in\n    tag_738:\n        /* \"#utility.yul\":22619:22758   */\n      swap1\n      pop\n        /* \"#utility.yul\":22346:22765   */\n      swap2\n      swap1\n      pop\n      jump\t// out\n        /* \"#utility.yul\":22771:23190   */\n    tag_302:\n        /* \"#utility.yul\":22937:22941   */\n      0x00\n        /* \"#utility.yul\":22975:22977   */\n      0x20\n        /* \"#utility.yul\":22964:22973   */\n      dup3\n        /* \"#utility.yul\":22960:22978   */\n      add\n        /* \"#utility.yul\":22952:22978   */\n      swap1\n      pop\n        /* \"#utility.yul\":23024:23033   */\n      dup2\n        /* \"#utility.yul\":23018:23022   */\n      dup2\n        /* \"#utility.yul\":23014:23034   */\n      sub\n        /* \"#utility.yul\":23010:23011   */\n      0x00\n        /* \"#utility.yul\":22999:23008   */\n      dup4\n        /* \"#utility.yul\":22995:23012   */\n      add\n        /* \"#utility.yul\":22988:23035   */\n      mstore\n        /* \"#utility.yul\":23052:23183   */\n      tag_740\n        /* \"#utility.yul\":23178:23182   */\n      dup2\n        /* \"#utility.yul\":23052:23183   */\n      tag_655\n      jump\t// in\n    tag_740:\n        /* \"#utility.yul\":23044:23183   */\n      swap1\n      pop\n        /* \"#utility.yul\":22771:23190   */\n      swap2\n      swap1\n      pop\n      jump\t// out\n        /* \"#utility.yul\":23196:23615   */\n    tag_328:\n        /* \"#utility.yul\":23362:23366   */\n      0x00\n        /* \"#utility.yul\":23400:23402   */\n      0x20\n        /* \"#utility.yul\":23389:23398   */\n      dup3\n        /* \"#utility.yul\":23385:23403   */\n      add\n        /* \"#utility.yul\":23377:23403   */\n      swap1\n      pop\n        /* \"#utility.yul\":23449:23458   */\n      dup2\n        /* \"#utility.yul\":23443:23447   */\n      dup2\n        /* \"#utility.yul\":23439:23459   */\n      sub\n        /* \"#utility.yul\":23435:23436   */\n      0x00\n        /* \"#utility.yul\":23424:23433   */\n      dup4\n        /* \"#utility.yul\":23420:23437   */\n      add\n        /* \"#utility.yul\":23413:23460   */\n      mstore\n        /* \"#utility.yul\":23477:23608   */\n      tag_742\n        /* \"#utility.yul\":23603:23607   */\n      dup2\n        /* \"#utility.yul\":23477:23608   */\n      tag_660\n      jump\t// in\n    tag_742:\n        /* \"#utility.yul\":23469:23608   */\n      swap1\n      pop\n        /* \"#utility.yul\":23196:23615   */\n      swap2\n      swap1\n      pop\n      jump\t// out\n        /* \"#utility.yul\":23621:24040   */\n    tag_230:\n        /* \"#utility.yul\":23787:23791   */\n      0x00\n        /* \"#utility.yul\":23825:23827   */\n      0x20\n        /* \"#utility.yul\":23814:23823   */\n      dup3\n        /* \"#utility.yul\":23810:23828   */\n      add\n        /* \"#utility.yul\":23802:23828   */\n      swap1\n      pop\n        /* \"#utility.yul\":23874:23883   */\n      dup2\n        /* \"#utility.yul\":23868:23872   */\n      dup2\n        /* \"#utility.yul\":23864:23884   */\n      sub\n        /* \"#utility.yul\":23860:23861   */\n      0x00\n        /* \"#utility.yul\":23849:23858   */\n      dup4\n        /* \"#utility.yul\":23845:23862   */\n      add\n        /* \"#utility.yul\":23838:23885   */\n      mstore\n        /* \"#utility.yul\":23902:24033   */\n      tag_744\n        /* \"#utility.yul\":24028:24032   */\n      dup2\n        /* \"#utility.yul\":23902:24033   */\n      tag_665\n      jump\t// in\n    tag_744:\n        /* \"#utility.yul\":23894:24033   */\n      swap1\n      pop\n        /* \"#utility.yul\":23621:24040   */\n      swap2\n      swap1\n      pop\n      jump\t// out\n        /* \"#utility.yul\":24046:24465   */\n    tag_219:\n        /* \"#utility.yul\":24212:24216   */\n      0x00\n        /* \"#utility.yul\":24250:24252   */\n      0x20\n        /* \"#utility.yul\":24239:24248   */\n      dup3\n        /* \"#utility.yul\":24235:24253   */\n      add\n        /* \"#utility.yul\":24227:24253   */\n      swap1\n      pop\n        /* \"#utility.yul\":24299:24308   */\n      dup2\n        /* \"#utility.yul\":24293:24297   */\n      dup2\n        /* \"#utility.yul\":24289:24309   */\n      sub\n        /* \"#utility.yul\":24285:24286   */\n      0x00\n        /* \"#utility.yul\":24274:24283   */\n      dup4\n        /* \"#utility.yul\":24270:24287   */\n      add\n        /* \"#utility.yul\":24263:24310   */\n      mstore\n        /* \"#utility.yul\":24327:24458   */\n      tag_746\n        /* \"#utility.yul\":24453:24457   */\n      dup2\n        /* \"#utility.yul\":24327:24458   */\n      tag_670\n      jump\t// in\n    tag_746:\n        /* \"#utility.yul\":24319:24458   */\n      swap1\n      pop\n        /* \"#utility.yul\":24046:24465   */\n      swap2\n      swap1\n      pop\n      jump\t// out\n        /* \"#utility.yul\":24471:24689   */\n    tag_54:\n        /* \"#utility.yul\":24562:24566   */\n      0x00\n        /* \"#utility.yul\":24600:24602   */\n      0x20\n        /* \"#utility.yul\":24589:24598   */\n      dup3\n        /* \"#utility.yul\":24585:24603   */\n      add\n        /* \"#utility.yul\":24577:24603   */\n      swap1\n      pop\n        /* \"#utility.yul\":24613:24682   */\n      tag_748\n        /* \"#utility.yul\":24679:24680   */\n      0x00\n        /* \"#utility.yul\":24668:24677   */\n      dup4\n        /* \"#utility.yul\":24664:24681   */\n      add\n        /* \"#utility.yul\":24655:24661   */\n      dup5\n        /* \"#utility.yul\":24613:24682   */\n      tag_691\n      jump\t// in\n    tag_748:\n        /* \"#utility.yul\":24471:24689   */\n      swap3\n      swap2\n      pop\n      pop\n      jump\t// out\n        /* \"#utility.yul\":24695:25906   */\n    tag_79:\n        /* \"#utility.yul\":25038:25042   */\n      0x00\n        /* \"#utility.yul\":25076:25079   */\n      0x0120\n        /* \"#utility.yul\":25065:25074   */\n      dup3\n        /* \"#utility.yul\":25061:25080   */\n      add\n        /* \"#utility.yul\":25053:25080   */\n      swap1\n      pop\n        /* \"#utility.yul\":25090:25159   */\n      tag_750\n        /* \"#utility.yul\":25156:25157   */\n      0x00\n        /* \"#utility.yul\":25145:25154   */\n      dup4\n        /* \"#utility.yul\":25141:25158   */\n      add\n        /* \"#utility.yul\":25132:25138   */\n      dup13\n        /* \"#utility.yul\":25090:25159   */\n      tag_691\n      jump\t// in\n    tag_750:\n        /* \"#utility.yul\":25206:25215   */\n      dup2\n        /* \"#utility.yul\":25200:25204   */\n      dup2\n        /* \"#utility.yul\":25196:25216   */\n      sub\n        /* \"#utility.yul\":25191:25193   */\n      0x20\n        /* \"#utility.yul\":25180:25189   */\n      dup4\n        /* \"#utility.yul\":25176:25194   */\n      add\n        /* \"#utility.yul\":25169:25217   */\n      mstore\n        /* \"#utility.yul\":25234:25312   */\n      tag_751\n        /* \"#utility.yul\":25307:25311   */\n      dup2\n        /* \"#utility.yul\":25298:25304   */\n      dup12\n        /* \"#utility.yul\":25234:25312   */\n      tag_580\n      jump\t// in\n    tag_751:\n        /* \"#utility.yul\":25226:25312   */\n      swap1\n      pop\n        /* \"#utility.yul\":25322:25392   */\n      tag_752\n        /* \"#utility.yul\":25388:25390   */\n      0x40\n        /* \"#utility.yul\":25377:25386   */\n      dup4\n        /* \"#utility.yul\":25373:25391   */\n      add\n        /* \"#utility.yul\":25364:25370   */\n      dup11\n        /* \"#utility.yul\":25322:25392   */\n      tag_703\n      jump\t// in\n    tag_752:\n        /* \"#utility.yul\":25402:25472   */\n      tag_753\n        /* \"#utility.yul\":25468:25470   */\n      0x60\n        /* \"#utility.yul\":25457:25466   */\n      dup4\n        /* \"#utility.yul\":25453:25471   */\n      add\n        /* \"#utility.yul\":25444:25450   */\n      dup10\n        /* \"#utility.yul\":25402:25472   */\n      tag_703\n      jump\t// in\n    tag_753:\n        /* \"#utility.yul\":25482:25555   */\n      tag_754\n        /* \"#utility.yul\":25550:25553   */\n      0x80\n        /* \"#utility.yul\":25539:25548   */\n      dup4\n        /* \"#utility.yul\":25535:25554   */\n      add\n        /* \"#utility.yul\":25526:25532   */\n      dup9\n        /* \"#utility.yul\":25482:25555   */\n      tag_542\n      jump\t// in\n    tag_754:\n        /* \"#utility.yul\":25565:25638   */\n      tag_755\n        /* \"#utility.yul\":25633:25636   */\n      0xa0\n        /* \"#utility.yul\":25622:25631   */\n      dup4\n        /* \"#utility.yul\":25618:25637   */\n      add\n        /* \"#utility.yul\":25609:25615   */\n      dup8\n        /* \"#utility.yul\":25565:25638   */\n      tag_697\n      jump\t// in\n    tag_755:\n        /* \"#utility.yul\":25648:25721   */\n      tag_756\n        /* \"#utility.yul\":25716:25719   */\n      0xc0\n        /* \"#utility.yul\":25705:25714   */\n      dup4\n        /* \"#utility.yul\":25701:25720   */\n      add\n        /* \"#utility.yul\":25692:25698   */\n      dup7\n        /* \"#utility.yul\":25648:25721   */\n      tag_697\n      jump\t// in\n    tag_756:\n        /* \"#utility.yul\":25731:25804   */\n      tag_757\n        /* \"#utility.yul\":25799:25802   */\n      0xe0\n        /* \"#utility.yul\":25788:25797   */\n      dup4\n        /* \"#utility.yul\":25784:25803   */\n      add\n        /* \"#utility.yul\":25775:25781   */\n      dup6\n        /* \"#utility.yul\":25731:25804   */\n      tag_697\n      jump\t// in\n    tag_757:\n        /* \"#utility.yul\":25814:25899   */\n      tag_758\n        /* \"#utility.yul\":25894:25897   */\n      0x0100\n        /* \"#utility.yul\":25883:25892   */\n      dup4\n        /* \"#utility.yul\":25879:25898   */\n      add\n        /* \"#utility.yul\":25870:25876   */\n      dup5\n        /* \"#utility.yul\":25814:25899   */\n      tag_567\n      jump\t// in\n    tag_758:\n        /* \"#utility.yul\":24695:25906   */\n      swap11\n      swap10\n      pop\n      pop\n      pop\n      pop\n      pop\n      pop\n      pop\n      pop\n      pop\n      pop\n      jump\t// out\n        /* \"#utility.yul\":25912:26236   */\n    tag_234:\n        /* \"#utility.yul\":26029:26033   */\n      0x00\n        /* \"#utility.yul\":26067:26069   */\n      0x40\n        /* \"#utility.yul\":26056:26065   */\n      dup3\n        /* \"#utility.yul\":26052:26070   */\n      add\n        /* \"#utility.yul\":26044:26070   */\n      swap1\n      pop\n        /* \"#utility.yul\":26080:26149   */\n      tag_760\n        /* \"#utility.yul\":26146:26147   */\n      0x00\n        /* \"#utility.yul\":26135:26144   */\n      dup4\n        /* \"#utility.yul\":26131:26148   */\n      add\n        /* \"#utility.yul\":26122:26128   */\n      dup6\n        /* \"#utility.yul\":26080:26149   */\n      tag_703\n      jump\t// in\n    tag_760:\n        /* \"#utility.yul\":26159:26229   */\n      tag_761\n        /* \"#utility.yul\":26225:26227   */\n      0x20\n        /* \"#utility.yul\":26214:26223   */\n      dup4\n        /* \"#utility.yul\":26210:26228   */\n      add\n        /* \"#utility.yul\":26201:26207   */\n      dup5\n        /* \"#utility.yul\":26159:26229   */\n      tag_703\n      jump\t// in\n    tag_761:\n        /* \"#utility.yul\":25912:26236   */\n      swap4\n      swap3\n      pop\n      pop\n      pop\n      jump\t// out\n        /* \"#utility.yul\":26242:26456   */\n    tag_73:\n        /* \"#utility.yul\":26331:26335   */\n      0x00\n        /* \"#utility.yul\":26369:26371   */\n      0x20\n        /* \"#utility.yul\":26358:26367   */\n      dup3\n        /* \"#utility.yul\":26354:26372   */\n      add\n        /* \"#utility.yul\":26346:26372   */\n      swap1\n      pop\n        /* \"#utility.yul\":26382:26449   */\n      tag_763\n        /* \"#utility.yul\":26446:26447   */\n      0x00\n        /* \"#utility.yul\":26435:26444   */\n      dup4\n        /* \"#utility.yul\":26431:26448   */\n      add\n        /* \"#utility.yul\":26422:26428   */\n      dup5\n        /* \"#utility.yul\":26382:26449   */\n      tag_706\n      jump\t// in\n    tag_763:\n        /* \"#utility.yul\":26242:26456   */\n      swap3\n      swap2\n      pop\n      pop\n      jump\t// out\n        /* \"#utility.yul\":26462:26591   */\n    tag_456:\n        /* \"#utility.yul\":26496:26502   */\n      0x00\n        /* \"#utility.yul\":26523:26543   */\n      tag_765\n      tag_766\n      jump\t// in\n    tag_765:\n        /* \"#utility.yul\":26513:26543   */\n      swap1\n      pop\n        /* \"#utility.yul\":26552:26585   */\n      tag_767\n        /* \"#utility.yul\":26580:26584   */\n      dup3\n        /* \"#utility.yul\":26572:26578   */\n      dup3\n        /* \"#utility.yul\":26552:26585   */\n      tag_768\n      jump\t// in\n    tag_767:\n        /* \"#utility.yul\":26462:26591   */\n      swap2\n      swap1\n      pop\n      jump\t// out\n        /* \"#utility.yul\":26597:26672   */\n    tag_766:\n        /* \"#utility.yul\":26630:26636   */\n      0x00\n        /* \"#utility.yul\":26663:26665   */\n      0x40\n        /* \"#utility.yul\":26657:26666   */\n      mload\n        /* \"#utility.yul\":26647:26666   */\n      swap1\n      pop\n        /* \"#utility.yul\":26597:26672   */\n      swap1\n      jump\t// out\n        /* \"#utility.yul\":26678:26986   */\n    tag_455:\n        /* \"#utility.yul\":26740:26744   */\n      0x00\n        /* \"#utility.yul\":26830:26848   */\n      0xffffffffffffffff\n        /* \"#utility.yul\":26822:26828   */\n      dup3\n        /* \"#utility.yul\":26819:26849   */\n      gt\n        /* \"#utility.yul\":26816:26872   */\n      iszero\n      tag_771\n      jumpi\n        /* \"#utility.yul\":26852:26870   */\n      tag_772\n      tag_131\n      jump\t// in\n    tag_772:\n        /* \"#utility.yul\":26816:26872   */\n    tag_771:\n        /* \"#utility.yul\":26890:26919   */\n      tag_773\n        /* \"#utility.yul\":26912:26918   */\n      dup3\n        /* \"#utility.yul\":26890:26919   */\n      tag_579\n      jump\t// in\n    tag_773:\n        /* \"#utility.yul\":26882:26919   */\n      swap1\n      pop\n        /* \"#utility.yul\":26974:26978   */\n      0x20\n        /* \"#utility.yul\":26968:26972   */\n      dup2\n        /* \"#utility.yul\":26964:26979   */\n      add\n        /* \"#utility.yul\":26956:26979   */\n      swap1\n      pop\n        /* \"#utility.yul\":26678:26986   */\n      swap2\n      swap1\n      pop\n      jump\t// out\n        /* \"#utility.yul\":26992:27147   */\n    tag_552:\n        /* \"#utility.yul\":27082:27086   */\n      0x00\n        /* \"#utility.yul\":27105:27108   */\n      dup2\n        /* \"#utility.yul\":27097:27108   */\n      swap1\n      pop\n        /* \"#utility.yul\":27135:27139   */\n      0x20\n        /* \"#utility.yul\":27130:27133   */\n      dup3\n        /* \"#utility.yul\":27126:27140   */\n      add\n        /* \"#utility.yul\":27118:27140   */\n      swap1\n      pop\n        /* \"#utility.yul\":26992:27147   */\n      swap2\n      swap1\n      pop\n      jump\t// out\n        /* \"#utility.yul\":27153:27294   */\n    tag_596:\n        /* \"#utility.yul\":27202:27206   */\n      0x00\n        /* \"#utility.yul\":27225:27228   */\n      dup2\n        /* \"#utility.yul\":27217:27228   */\n      swap1\n      pop\n        /* \"#utility.yul\":27248:27251   */\n      dup2\n        /* \"#utility.yul\":27245:27246   */\n      0x00\n        /* \"#utility.yul\":27238:27252   */\n      mstore\n        /* \"#utility.yul\":27282:27286   */\n      0x20\n        /* \"#utility.yul\":27279:27280   */\n      0x00\n        /* \"#utility.yul\":27269:27287   */\n      keccak256\n        /* \"#utility.yul\":27261:27287   */\n      swap1\n      pop\n        /* \"#utility.yul\":27153:27294   */\n      swap2\n      swap1\n      pop\n      jump\t// out\n        /* \"#utility.yul\":27300:27437   */\n    tag_548:\n        /* \"#utility.yul\":27390:27396   */\n      0x00\n        /* \"#utility.yul\":27424:27429   */\n      dup2\n        /* \"#utility.yul\":27418:27430   */\n      mload\n        /* \"#utility.yul\":27408:27430   */\n      swap1\n      pop\n        /* \"#utility.yul\":27300:27437   */\n      swap2\n      swap1\n      pop\n      jump\t// out\n        /* \"#utility.yul\":27443:27542   */\n    tag_573:\n        /* \"#utility.yul\":27495:27501   */\n      0x00\n        /* \"#utility.yul\":27529:27534   */\n      dup2\n        /* \"#utility.yul\":27523:27535   */\n      mload\n        /* \"#utility.yul\":27513:27535   */\n      swap1\n      pop\n        /* \"#utility.yul\":27443:27542   */\n      swap2\n      swap1\n      pop\n      jump\t// out\n        /* \"#utility.yul\":27548:27684   */\n    tag_558:\n        /* \"#utility.yul\":27641:27645   */\n      0x00\n        /* \"#utility.yul\":27673:27677   */\n      0x20\n        /* \"#utility.yul\":27668:27671   */\n      dup3\n        /* \"#utility.yul\":27664:27678   */\n      add\n        /* \"#utility.yul\":27656:27678   */\n      swap1\n      pop\n        /* \"#utility.yul\":27548:27684   */\n      swap2\n      swap1\n      pop\n      jump\t// out\n        /* \"#utility.yul\":27690:27897   */\n    tag_550:\n        /* \"#utility.yul\":27812:27823   */\n      0x00\n        /* \"#utility.yul\":27846:27852   */\n      dup3\n        /* \"#utility.yul\":27841:27844   */\n      dup3\n        /* \"#utility.yul\":27834:27853   */\n      mstore\n        /* \"#utility.yul\":27886:27890   */\n      0x20\n        /* \"#utility.yul\":27881:27884   */\n      dup3\n        /* \"#utility.yul\":27877:27891   */\n      add\n        /* \"#utility.yul\":27862:27891   */\n      swap1\n      pop\n        /* \"#utility.yul\":27690:27897   */\n      swap3\n      swap2\n      pop\n      pop\n      jump\t// out\n        /* \"#utility.yul\":27903:28062   */\n    tag_575:\n        /* \"#utility.yul\":27977:27988   */\n      0x00\n        /* \"#utility.yul\":28011:28017   */\n      dup3\n        /* \"#utility.yul\":28006:28009   */\n      dup3\n        /* \"#utility.yul\":27999:28018   */\n      mstore\n        /* \"#utility.yul\":28051:28055   */\n      0x20\n        /* \"#utility.yul\":28046:28049   */\n      dup3\n        /* \"#utility.yul\":28042:28056   */\n      add\n        /* \"#utility.yul\":28027:28056   */\n      swap1\n      pop\n        /* \"#utility.yul\":27903:28062   */\n      swap3\n      swap2\n      pop\n      pop\n      jump\t// out\n        /* \"#utility.yul\":28068:28237   */\n    tag_584:\n        /* \"#utility.yul\":28152:28163   */\n      0x00\n        /* \"#utility.yul\":28186:28192   */\n      dup3\n        /* \"#utility.yul\":28181:28184   */\n      dup3\n        /* \"#utility.yul\":28174:28193   */\n      mstore\n        /* \"#utility.yul\":28226:28230   */\n      0x20\n        /* \"#utility.yul\":28221:28224   */\n      dup3\n        /* \"#utility.yul\":28217:28231   */\n      add\n        /* \"#utility.yul\":28202:28231   */\n      swap1\n      pop\n        /* \"#utility.yul\":28068:28237   */\n      swap3\n      swap2\n      pop\n      pop\n      jump\t// out\n        /* \"#utility.yul\":28243:28391   */\n    tag_591:\n        /* \"#utility.yul\":28345:28356   */\n      0x00\n        /* \"#utility.yul\":28382:28385   */\n      dup2\n        /* \"#utility.yul\":28367:28385   */\n      swap1\n      pop\n        /* \"#utility.yul\":28243:28391   */\n      swap3\n      swap2\n      pop\n      pop\n      jump\t// out\n        /* \"#utility.yul\":28397:28639   */\n    tag_236:\n        /* \"#utility.yul\":28436:28439   */\n      0x00\n        /* \"#utility.yul\":28455:28474   */\n      tag_784\n        /* \"#utility.yul\":28472:28473   */\n      dup3\n        /* \"#utility.yul\":28455:28474   */\n      tag_690\n      jump\t// in\n    tag_784:\n        /* \"#utility.yul\":28450:28474   */\n      swap2\n      pop\n        /* \"#utility.yul\":28488:28507   */\n      tag_785\n        /* \"#utility.yul\":28505:28506   */\n      dup4\n        /* \"#utility.yul\":28488:28507   */\n      tag_690\n      jump\t// in\n    tag_785:\n        /* \"#utility.yul\":28483:28507   */\n      swap3\n      pop\n        /* \"#utility.yul\":28581:28582   */\n      dup3\n        /* \"#utility.yul\":28573:28579   */\n      0xffff\n        /* \"#utility.yul\":28569:28583   */\n      sub\n        /* \"#utility.yul\":28566:28567   */\n      dup3\n        /* \"#utility.yul\":28563:28584   */\n      gt\n        /* \"#utility.yul\":28560:28607   */\n      iszero\n      tag_786\n      jumpi\n        /* \"#utility.yul\":28587:28605   */\n      tag_787\n      tag_788\n      jump\t// in\n    tag_787:\n        /* \"#utility.yul\":28560:28607   */\n    tag_786:\n        /* \"#utility.yul\":28631:28632   */\n      dup3\n        /* \"#utility.yul\":28628:28629   */\n      dup3\n        /* \"#utility.yul\":28624:28633   */\n      add\n        /* \"#utility.yul\":28617:28633   */\n      swap1\n      pop\n        /* \"#utility.yul\":28397:28639   */\n      swap3\n      swap2\n      pop\n      pop\n      jump\t// out\n        /* \"#utility.yul\":28645:28950   */\n    tag_255:\n        /* \"#utility.yul\":28685:28688   */\n      0x00\n        /* \"#utility.yul\":28704:28724   */\n      tag_790\n        /* \"#utility.yul\":28722:28723   */\n      dup3\n        /* \"#utility.yul\":28704:28724   */\n      tag_696\n      jump\t// in\n    tag_790:\n        /* \"#utility.yul\":28699:28724   */\n      swap2\n      pop\n        /* \"#utility.yul\":28738:28758   */\n      tag_791\n        /* \"#utility.yul\":28756:28757   */\n      dup4\n        /* \"#utility.yul\":28738:28758   */\n      tag_696\n      jump\t// in\n    tag_791:\n        /* \"#utility.yul\":28733:28758   */\n      swap3\n      pop\n        /* \"#utility.yul\":28892:28893   */\n      dup3\n        /* \"#utility.yul\":28824:28890   */\n      0xffffffffffffffffffffffffffffffffffffffffffffffffffffffffffffffff\n        /* \"#utility.yul\":28820:28894   */\n      sub\n        /* \"#utility.yul\":28817:28818   */\n      dup3\n        /* \"#utility.yul\":28814:28895   */\n      gt\n        /* \"#utility.yul\":28811:28918   */\n      iszero\n      tag_792\n      jumpi\n        /* \"#utility.yul\":28898:28916   */\n      tag_793\n      tag_788\n      jump\t// in\n    tag_793:\n        /* \"#utility.yul\":28811:28918   */\n    tag_792:\n        /* \"#utility.yul\":28942:28943   */\n      dup3\n        /* \"#utility.yul\":28939:28940   */\n      dup3\n        /* \"#utility.yul\":28935:28944   */\n      add\n        /* \"#utility.yul\":28928:28944   */\n      swap1\n      pop\n        /* \"#utility.yul\":28645:28950   */\n      swap3\n      swap2\n      pop\n      pop\n      jump\t// out\n        /* \"#utility.yul\":28956:29202   */\n    tag_124:\n        /* \"#utility.yul\":28995:28998   */\n      0x00\n        /* \"#utility.yul\":29014:29033   */\n      tag_795\n        /* \"#utility.yul\":29031:29032   */\n      dup3\n        /* \"#utility.yul\":29014:29033   */\n      tag_702\n      jump\t// in\n    tag_795:\n        /* \"#utility.yul\":29009:29033   */\n      swap2\n      pop\n        /* \"#utility.yul\":29047:29066   */\n      tag_796\n        /* \"#utility.yul\":29064:29065   */\n      dup4\n        /* \"#utility.yul\":29047:29066   */\n      tag_702\n      jump\t// in\n    tag_796:\n        /* \"#utility.yul\":29042:29066   */\n      swap3\n      pop\n        /* \"#utility.yul\":29144:29145   */\n      dup3\n        /* \"#utility.yul\":29132:29142   */\n      0xffffffff\n        /* \"#utility.yul\":29128:29146   */\n      sub\n        /* \"#utility.yul\":29125:29126   */\n      dup3\n        /* \"#utility.yul\":29122:29147   */\n      gt\n        /* \"#utility.yul\":29119:29170   */\n      iszero\n      tag_797\n      jumpi\n        /* \"#utility.yul\":29150:29168   */\n      tag_798\n      tag_788\n      jump\t// in\n    tag_798:\n        /* \"#utility.yul\":29119:29170   */\n    tag_797:\n        /* \"#utility.yul\":29194:29195   */\n      dup3\n        /* \"#utility.yul\":29191:29192   */\n      dup3\n        /* \"#utility.yul\":29187:29196   */\n      add\n        /* \"#utility.yul\":29180:29196   */\n      swap1\n      pop\n        /* \"#utility.yul\":28956:29202   */\n      swap3\n      swap2\n      pop\n      pop\n      jump\t// out\n        /* \"#utility.yul\":29208:29497   */\n    tag_239:\n        /* \"#utility.yul\":29247:29254   */\n      0x00\n        /* \"#utility.yul\":29270:29289   */\n      tag_800\n        /* \"#utility.yul\":29287:29288   */\n      dup3\n        /* \"#utility.yul\":29270:29289   */\n      tag_702\n      jump\t// in\n    tag_800:\n        /* \"#utility.yul\":29265:29289   */\n      swap2\n      pop\n        /* \"#utility.yul\":29303:29322   */\n      tag_801\n        /* \"#utility.yul\":29320:29321   */\n      dup4\n        /* \"#utility.yul\":29303:29322   */\n      tag_702\n      jump\t// in\n    tag_801:\n        /* \"#utility.yul\":29298:29322   */\n      swap3\n      pop\n        /* \"#utility.yul\":29434:29435   */\n      dup2\n        /* \"#utility.yul\":29422:29432   */\n      0xffffffff\n        /* \"#utility.yul\":29418:29436   */\n      div\n        /* \"#utility.yul\":29415:29416   */\n      dup4\n        /* \"#utility.yul\":29412:29437   */\n      gt\n        /* \"#utility.yul\":29407:29408   */\n      dup3\n        /* \"#utility.yul\":29400:29409   */\n      iszero\n        /* \"#utility.yul\":29393:29410   */\n      iszero\n        /* \"#utility.yul\":29389:29438   */\n      and\n        /* \"#utility.yul\":29386:29461   */\n      iszero\n      tag_802\n      jumpi\n        /* \"#utility.yul\":29441:29459   */\n      tag_803\n      tag_788\n      jump\t// in\n    tag_803:\n        /* \"#utility.yul\":29386:29461   */\n    tag_802:\n        /* \"#utility.yul\":29489:29490   */\n      dup3\n        /* \"#utility.yul\":29486:29487   */\n      dup3\n        /* \"#utility.yul\":29482:29491   */\n      mul\n        /* \"#utility.yul\":29471:29491   */\n      swap1\n      pop\n        /* \"#utility.yul\":29208:29497   */\n      swap3\n      swap2\n      pop\n      pop\n      jump\t// out\n        /* \"#utility.yul\":29503:29783   */\n    tag_253:\n        /* \"#utility.yul\":29541:29548   */\n      0x00\n        /* \"#utility.yul\":29564:29582   */\n      tag_805\n        /* \"#utility.yul\":29580:29581   */\n      dup3\n        /* \"#utility.yul\":29564:29582   */\n      tag_709\n      jump\t// in\n    tag_805:\n        /* \"#utility.yul\":29559:29582   */\n      swap2\n      pop\n        /* \"#utility.yul\":29596:29614   */\n      tag_806\n        /* \"#utility.yul\":29612:29613   */\n      dup4\n        /* \"#utility.yul\":29596:29614   */\n      tag_709\n      jump\t// in\n    tag_806:\n        /* \"#utility.yul\":29591:29614   */\n      swap3\n      pop\n        /* \"#utility.yul\":29720:29721   */\n      dup2\n        /* \"#utility.yul\":29714:29718   */\n      0xff\n        /* \"#utility.yul\":29710:29722   */\n      div\n        /* \"#utility.yul\":29707:29708   */\n      dup4\n        /* \"#utility.yul\":29704:29723   */\n      gt\n        /* \"#utility.yul\":29699:29700   */\n      dup3\n        /* \"#utility.yul\":29692:29701   */\n      iszero\n        /* \"#utility.yul\":29685:29702   */\n      iszero\n        /* \"#utility.yul\":29681:29724   */\n      and\n        /* \"#utility.yul\":29678:29747   */\n      iszero\n      tag_807\n      jumpi\n        /* \"#utility.yul\":29727:29745   */\n      tag_808\n      tag_788\n      jump\t// in\n    tag_808:\n        /* \"#utility.yul\":29678:29747   */\n    tag_807:\n        /* \"#utility.yul\":29775:29776   */\n      dup3\n        /* \"#utility.yul\":29772:29773   */\n      dup3\n        /* \"#utility.yul\":29768:29777   */\n      mul\n        /* \"#utility.yul\":29757:29777   */\n      swap1\n      pop\n        /* \"#utility.yul\":29503:29783   */\n      swap3\n      swap2\n      pop\n      pop\n      jump\t// out\n        /* \"#utility.yul\":29789:29977   */\n    tag_146:\n        /* \"#utility.yul\":29828:29832   */\n      0x00\n        /* \"#utility.yul\":29848:29867   */\n      tag_810\n        /* \"#utility.yul\":29865:29866   */\n      dup3\n        /* \"#utility.yul\":29848:29867   */\n      tag_690\n      jump\t// in\n    tag_810:\n        /* \"#utility.yul\":29843:29867   */\n      swap2\n      pop\n        /* \"#utility.yul\":29881:29900   */\n      tag_811\n        /* \"#utility.yul\":29898:29899   */\n      dup4\n        /* \"#utility.yul\":29881:29900   */\n      tag_690\n      jump\t// in\n    tag_811:\n        /* \"#utility.yul\":29876:29900   */\n      swap3\n      pop\n        /* \"#utility.yul\":29919:29920   */\n      dup3\n        /* \"#utility.yul\":29916:29917   */\n      dup3\n        /* \"#utility.yul\":29913:29921   */\n      lt\n        /* \"#utility.yul\":29910:29944   */\n      iszero\n      tag_812\n      jumpi\n        /* \"#utility.yul\":29924:29942   */\n      tag_813\n      tag_788\n      jump\t// in\n    tag_813:\n        /* \"#utility.yul\":29910:29944   */\n    tag_812:\n        /* \"#utility.yul\":29969:29970   */\n      dup3\n        /* \"#utility.yul\":29966:29967   */\n      dup3\n        /* \"#utility.yul\":29962:29971   */\n      sub\n        /* \"#utility.yul\":29954:29971   */\n      swap1\n      pop\n        /* \"#utility.yul\":29789:29977   */\n      swap3\n      swap2\n      pop\n      pop\n      jump\t// out\n        /* \"#utility.yul\":29983:30168   */\n    tag_137:\n        /* \"#utility.yul\":30021:30025   */\n      0x00\n        /* \"#utility.yul\":30041:30059   */\n      tag_815\n        /* \"#utility.yul\":30057:30058   */\n      dup3\n        /* \"#utility.yul\":30041:30059   */\n      tag_709\n      jump\t// in\n    tag_815:\n        /* \"#utility.yul\":30036:30059   */\n      swap2\n      pop\n        /* \"#utility.yul\":30073:30091   */\n      tag_816\n        /* \"#utility.yul\":30089:30090   */\n      dup4\n        /* \"#utility.yul\":30073:30091   */\n      tag_709\n      jump\t// in\n    tag_816:\n        /* \"#utility.yul\":30068:30091   */\n      swap3\n      pop\n        /* \"#utility.yul\":30110:30111   */\n      dup3\n        /* \"#utility.yul\":30107:30108   */\n      dup3\n        /* \"#utility.yul\":30104:30112   */\n      lt\n        /* \"#utility.yul\":30101:30135   */\n      iszero\n      tag_817\n      jumpi\n        /* \"#utility.yul\":30115:30133   */\n      tag_818\n      tag_788\n      jump\t// in\n    tag_818:\n        /* \"#utility.yul\":30101:30135   */\n    tag_817:\n        /* \"#utility.yul\":30160:30161   */\n      dup3\n        /* \"#utility.yul\":30157:30158   */\n      dup3\n        /* \"#utility.yul\":30153:30162   */\n      sub\n        /* \"#utility.yul\":30145:30162   */\n      swap1\n      pop\n        /* \"#utility.yul\":29983:30168   */\n      swap3\n      swap2\n      pop\n      pop\n      jump\t// out\n        /* \"#utility.yul\":30174:30270   */\n    tag_541:\n        /* \"#utility.yul\":30211:30218   */\n      0x00\n        /* \"#utility.yul\":30240:30264   */\n      tag_820\n        /* \"#utility.yul\":30258:30263   */\n      dup3\n        /* \"#utility.yul\":30240:30264   */\n      tag_821\n      jump\t// in\n    tag_820:\n        /* \"#utility.yul\":30229:30264   */\n      swap1\n      pop\n        /* \"#utility.yul\":30174:30270   */\n      swap2\n      swap1\n      pop\n      jump\t// out\n        /* \"#utility.yul\":30276:30366   */\n    tag_562:\n        /* \"#utility.yul\":30310:30317   */\n      0x00\n        /* \"#utility.yul\":30353:30358   */\n      dup2\n        /* \"#utility.yul\":30346:30359   */\n      iszero\n        /* \"#utility.yul\":30339:30360   */\n      iszero\n        /* \"#utility.yul\":30328:30360   */\n      swap1\n      pop\n        /* \"#utility.yul\":30276:30366   */\n      swap2\n      swap1\n      pop\n      jump\t// out\n        /* \"#utility.yul\":30372:30511   */\n    tag_823:\n        /* \"#utility.yul\":30423:30430   */\n      0x00\n        /* \"#utility.yul\":30452:30457   */\n      dup2\n        /* \"#utility.yul\":30441:30457   */\n      swap1\n      pop\n        /* \"#utility.yul\":30458:30505   */\n      tag_825\n        /* \"#utility.yul\":30499:30504   */\n      dup3\n        /* \"#utility.yul\":30458:30505   */\n      tag_826\n      jump\t// in\n    tag_825:\n        /* \"#utility.yul\":30372:30511   */\n      swap2\n      swap1\n      pop\n      jump\t// out\n        /* \"#utility.yul\":30517:30606   */\n    tag_690:\n        /* \"#utility.yul\":30553:30560   */\n      0x00\n        /* \"#utility.yul\":30593:30599   */\n      0xffff\n        /* \"#utility.yul\":30586:30591   */\n      dup3\n        /* \"#utility.yul\":30582:30600   */\n      and\n        /* \"#utility.yul\":30571:30600   */\n      swap1\n      pop\n        /* \"#utility.yul\":30517:30606   */\n      swap2\n      swap1\n      pop\n      jump\t// out\n        /* \"#utility.yul\":30612:30738   */\n    tag_821:\n        /* \"#utility.yul\":30649:30656   */\n      0x00\n        /* \"#utility.yul\":30689:30731   */\n      0xffffffffffffffffffffffffffffffffffffffff\n        /* \"#utility.yul\":30682:30687   */\n      dup3\n        /* \"#utility.yul\":30678:30732   */\n      and\n        /* \"#utility.yul\":30667:30732   */\n      swap1\n      pop\n        /* \"#utility.yul\":30612:30738   */\n      swap2\n      swap1\n      pop\n      jump\t// out\n        /* \"#utility.yul\":30744:30821   */\n    tag_696:\n        /* \"#utility.yul\":30781:30788   */\n      0x00\n        /* \"#utility.yul\":30810:30815   */\n      dup2\n        /* \"#utility.yul\":30799:30815   */\n      swap1\n      pop\n        /* \"#utility.yul\":30744:30821   */\n      swap2\n      swap1\n      pop\n      jump\t// out\n        /* \"#utility.yul\":30827:30920   */\n    tag_702:\n        /* \"#utility.yul\":30863:30870   */\n      0x00\n        /* \"#utility.yul\":30903:30913   */\n      0xffffffff\n        /* \"#utility.yul\":30896:30901   */\n      dup3\n        /* \"#utility.yul\":30892:30914   */\n      and\n        /* \"#utility.yul\":30881:30914   */\n      swap1\n      pop\n        /* \"#utility.yul\":30827:30920   */\n      swap2\n      swap1\n      pop\n      jump\t// out\n        /* \"#utility.yul\":30926:31012   */\n    tag_709:\n        /* \"#utility.yul\":30961:30968   */\n      0x00\n        /* \"#utility.yul\":31001:31005   */\n      0xff\n        /* \"#utility.yul\":30994:30999   */\n      dup3\n        /* \"#utility.yul\":30990:31006   */\n      and\n        /* \"#utility.yul\":30979:31006   */\n      swap1\n      pop\n        /* \"#utility.yul\":30926:31012   */\n      swap2\n      swap1\n      pop\n      jump\t// out\n        /* \"#utility.yul\":31018:31157   */\n    tag_566:\n        /* \"#utility.yul\":31080:31089   */\n      0x00\n        /* \"#utility.yul\":31113:31151   */\n      tag_833\n        /* \"#utility.yul\":31145:31150   */\n      dup3\n        /* \"#utility.yul\":31113:31151   */\n      tag_823\n      jump\t// in\n    tag_833:\n        /* \"#utility.yul\":31100:31151   */\n      swap1\n      pop\n        /* \"#utility.yul\":31018:31157   */\n      swap2\n      swap1\n      pop\n      jump\t// out\n        /* \"#utility.yul\":31163:31317   */\n    tag_461:\n        /* \"#utility.yul\":31247:31253   */\n      dup3\n        /* \"#utility.yul\":31242:31245   */\n      dup2\n        /* \"#utility.yul\":31237:31240   */\n      dup4\n        /* \"#utility.yul\":31224:31254   */\n      calldatacopy\n        /* \"#utility.yul\":31309:31310   */\n      0x00\n        /* \"#utility.yul\":31300:31306   */\n      dup4\n        /* \"#utility.yul\":31295:31298   */\n      dup4\n        /* \"#utility.yul\":31291:31307   */\n      add\n        /* \"#utility.yul\":31284:31311   */\n      mstore\n        /* \"#utility.yul\":31163:31317   */\n      pop\n      pop\n      pop\n      jump\t// out\n        /* \"#utility.yul\":31323:31630   */\n    tag_577:\n        /* \"#utility.yul\":31391:31392   */\n      0x00\n        /* \"#utility.yul\":31401:31514   */\n    tag_836:\n        /* \"#utility.yul\":31415:31421   */\n      dup4\n        /* \"#utility.yul\":31412:31413   */\n      dup2\n        /* \"#utility.yul\":31409:31422   */\n      lt\n        /* \"#utility.yul\":31401:31514   */\n      iszero\n      tag_838\n      jumpi\n        /* \"#utility.yul\":31500:31501   */\n      dup1\n        /* \"#utility.yul\":31495:31498   */\n      dup3\n        /* \"#utility.yul\":31491:31502   */\n      add\n        /* \"#utility.yul\":31485:31503   */\n      mload\n        /* \"#utility.yul\":31481:31482   */\n      dup2\n        /* \"#utility.yul\":31476:31479   */\n      dup5\n        /* \"#utility.yul\":31472:31483   */\n      add\n        /* \"#utility.yul\":31465:31504   */\n      mstore\n        /* \"#utility.yul\":31437:31439   */\n      0x20\n        /* \"#utility.yul\":31434:31435   */\n      dup2\n        /* \"#utility.yul\":31430:31440   */\n      add\n        /* \"#utility.yul\":31425:31440   */\n      swap1\n      pop\n        /* \"#utility.yul\":31401:31514   */\n      jump(tag_836)\n    tag_838:\n        /* \"#utility.yul\":31532:31538   */\n      dup4\n        /* \"#utility.yul\":31529:31530   */\n      dup2\n        /* \"#utility.yul\":31526:31539   */\n      gt\n        /* \"#utility.yul\":31523:31624   */\n      iszero\n      tag_839\n      jumpi\n        /* \"#utility.yul\":31612:31613   */\n      0x00\n        /* \"#utility.yul\":31603:31609   */\n      dup5\n        /* \"#utility.yul\":31598:31601   */\n      dup5\n        /* \"#utility.yul\":31594:31610   */\n      add\n        /* \"#utility.yul\":31587:31614   */\n      mstore\n        /* \"#utility.yul\":31523:31624   */\n    tag_839:\n        /* \"#utility.yul\":31372:31630   */\n      pop\n        /* \"#utility.yul\":31323:31630   */\n      pop\n      pop\n      pop\n      jump\t// out\n        /* \"#utility.yul\":31636:31956   */\n    tag_140:\n        /* \"#utility.yul\":31680:31686   */\n      0x00\n        /* \"#utility.yul\":31717:31718   */\n      0x02\n        /* \"#utility.yul\":31711:31715   */\n      dup3\n        /* \"#utility.yul\":31707:31719   */\n      div\n        /* \"#utility.yul\":31697:31719   */\n      swap1\n      pop\n        /* \"#utility.yul\":31764:31765   */\n      0x01\n        /* \"#utility.yul\":31758:31762   */\n      dup3\n        /* \"#utility.yul\":31754:31766   */\n      and\n        /* \"#utility.yul\":31785:31803   */\n      dup1\n        /* \"#utility.yul\":31775:31856   */\n      tag_841\n      jumpi\n        /* \"#utility.yul\":31841:31845   */\n      0x7f\n        /* \"#utility.yul\":31833:31839   */\n      dup3\n        /* \"#utility.yul\":31829:31846   */\n      and\n        /* \"#utility.yul\":31819:31846   */\n      swap2\n      pop\n        /* \"#utility.yul\":31775:31856   */\n    tag_841:\n        /* \"#utility.yul\":31903:31905   */\n      0x20\n        /* \"#utility.yul\":31895:31901   */\n      dup3\n        /* \"#utility.yul\":31892:31906   */\n      lt\n        /* \"#utility.yul\":31872:31890   */\n      dup2\n        /* \"#utility.yul\":31869:31907   */\n      eq\n        /* \"#utility.yul\":31866:31950   */\n      iszero\n      tag_842\n      jumpi\n        /* \"#utility.yul\":31922:31940   */\n      tag_843\n      tag_844\n      jump\t// in\n    tag_843:\n        /* \"#utility.yul\":31866:31950   */\n    tag_842:\n        /* \"#utility.yul\":31687:31956   */\n      pop\n        /* \"#utility.yul\":31636:31956   */\n      swap2\n      swap1\n      pop\n      jump\t// out\n        /* \"#utility.yul\":31962:32243   */\n    tag_768:\n        /* \"#utility.yul\":32045:32072   */\n      tag_846\n        /* \"#utility.yul\":32067:32071   */\n      dup3\n        /* \"#utility.yul\":32045:32072   */\n      tag_579\n      jump\t// in\n    tag_846:\n        /* \"#utility.yul\":32037:32043   */\n      dup2\n        /* \"#utility.yul\":32033:32073   */\n      add\n        /* \"#utility.yul\":32175:32181   */\n      dup2\n        /* \"#utility.yul\":32163:32173   */\n      dup2\n        /* \"#utility.yul\":32160:32182   */\n      lt\n        /* \"#utility.yul\":32139:32157   */\n      0xffffffffffffffff\n        /* \"#utility.yul\":32127:32137   */\n      dup3\n        /* \"#utility.yul\":32124:32158   */\n      gt\n        /* \"#utility.yul\":32121:32183   */\n      or\n        /* \"#utility.yul\":32118:32206   */\n      iszero\n      tag_847\n      jumpi\n        /* \"#utility.yul\":32186:32204   */\n      tag_848\n      tag_131\n      jump\t// in\n    tag_848:\n        /* \"#utility.yul\":32118:32206   */\n    tag_847:\n        /* \"#utility.yul\":32226:32236   */\n      dup1\n        /* \"#utility.yul\":32222:32224   */\n      0x40\n        /* \"#utility.yul\":32215:32237   */\n      mstore\n        /* \"#utility.yul\":32005:32243   */\n      pop\n        /* \"#utility.yul\":31962:32243   */\n      pop\n      pop\n      jump\t// out\n        /* \"#utility.yul\":32249:32416   */\n    tag_160:\n        /* \"#utility.yul\":32286:32289   */\n      0x00\n        /* \"#utility.yul\":32309:32331   */\n      tag_850\n        /* \"#utility.yul\":32325:32330   */\n      dup3\n        /* \"#utility.yul\":32309:32331   */\n      tag_709\n      jump\t// in\n    tag_850:\n        /* \"#utility.yul\":32300:32331   */\n      swap2\n      pop\n        /* \"#utility.yul\":32353:32357   */\n      0xff\n        /* \"#utility.yul\":32346:32351   */\n      dup3\n        /* \"#utility.yul\":32343:32358   */\n      eq\n        /* \"#utility.yul\":32340:32381   */\n      iszero\n      tag_851\n      jumpi\n        /* \"#utility.yul\":32361:32379   */\n      tag_852\n      tag_788\n      jump\t// in\n    tag_852:\n        /* \"#utility.yul\":32340:32381   */\n    tag_851:\n        /* \"#utility.yul\":32408:32409   */\n      0x01\n        /* \"#utility.yul\":32401:32406   */\n      dup3\n        /* \"#utility.yul\":32397:32410   */\n      add\n        /* \"#utility.yul\":32390:32410   */\n      swap1\n      pop\n        /* \"#utility.yul\":32249:32416   */\n      swap2\n      swap1\n      pop\n      jump\t// out\n        /* \"#utility.yul\":32422:32602   */\n    tag_788:\n        /* \"#utility.yul\":32470:32547   */\n      0x4e487b7100000000000000000000000000000000000000000000000000000000\n        /* \"#utility.yul\":32467:32468   */\n      0x00\n        /* \"#utility.yul\":32460:32548   */\n      mstore\n        /* \"#utility.yul\":32567:32571   */\n      0x11\n        /* \"#utility.yul\":32564:32565   */\n      0x04\n        /* \"#utility.yul\":32557:32572   */\n      mstore\n        /* \"#utility.yul\":32591:32595   */\n      0x24\n        /* \"#utility.yul\":32588:32589   */\n      0x00\n        /* \"#utility.yul\":32581:32596   */\n      revert\n        /* \"#utility.yul\":32608:32788   */\n    tag_97:\n        /* \"#utility.yul\":32656:32733   */\n      0x4e487b7100000000000000000000000000000000000000000000000000000000\n        /* \"#utility.yul\":32653:32654   */\n      0x00\n        /* \"#utility.yul\":32646:32734   */\n      mstore\n        /* \"#utility.yul\":32753:32757   */\n      0x21\n        /* \"#utility.yul\":32750:32751   */\n      0x04\n        /* \"#utility.yul\":32743:32758   */\n      mstore\n        /* \"#utility.yul\":32777:32781   */\n      0x24\n        /* \"#utility.yul\":32774:32775   */\n      0x00\n        /* \"#utility.yul\":32767:32782   */\n      revert\n        /* \"#utility.yul\":32794:32974   */\n    tag_844:\n        /* \"#utility.yul\":32842:32919   */\n      0x4e487b7100000000000000000000000000000000000000000000000000000000\n        /* \"#utility.yul\":32839:32840   */\n      0x00\n        /* \"#utility.yul\":32832:32920   */\n      mstore\n        /* \"#utility.yul\":32939:32943   */\n      0x22\n        /* \"#utility.yul\":32936:32937   */\n      0x04\n        /* \"#utility.yul\":32929:32944   */\n      mstore\n        /* \"#utility.yul\":32963:32967   */\n      0x24\n        /* \"#utility.yul\":32960:32961   */\n      0x00\n        /* \"#utility.yul\":32953:32968   */\n      revert\n        /* \"#utility.yul\":32980:33160   */\n    tag_158:\n        /* \"#utility.yul\":33028:33105   */\n      0x4e487b7100000000000000000000000000000000000000000000000000000000\n        /* \"#utility.yul\":33025:33026   */\n      0x00\n        /* \"#utility.yul\":33018:33106   */\n      mstore\n        /* \"#utility.yul\":33125:33129   */\n      0x32\n        /* \"#utility.yul\":33122:33123   */\n      0x04\n        /* \"#utility.yul\":33115:33130   */\n      mstore\n        /* \"#utility.yul\":33149:33153   */\n      0x24\n        /* \"#utility.yul\":33146:33147   */\n      0x00\n        /* \"#utility.yul\":33139:33154   */\n      revert\n        /* \"#utility.yul\":33166:33346   */\n    tag_131:\n        /* \"#utility.yul\":33214:33291   */\n      0x4e487b7100000000000000000000000000000000000000000000000000000000\n        /* \"#utility.yul\":33211:33212   */\n      0x00\n        /* \"#utility.yul\":33204:33292   */\n      mstore\n        /* \"#utility.yul\":33311:33315   */\n      0x41\n        /* \"#utility.yul\":33308:33309   */\n      0x04\n        /* \"#utility.yul\":33301:33316   */\n      mstore\n        /* \"#utility.yul\":33335:33339   */\n      0x24\n        /* \"#utility.yul\":33332:33333   */\n      0x00\n        /* \"#utility.yul\":33325:33340   */\n      revert\n        /* \"#utility.yul\":33352:33469   */\n    tag_481:\n        /* \"#utility.yul\":33461:33462   */\n      0x00\n        /* \"#utility.yul\":33458:33459   */\n      dup1\n        /* \"#utility.yul\":33451:33463   */\n      revert\n        /* \"#utility.yul\":33475:33592   */\n    tag_478:\n        /* \"#utility.yul\":33584:33585   */\n      0x00\n        /* \"#utility.yul\":33581:33582   */\n      dup1\n        /* \"#utility.yul\":33574:33586   */\n      revert\n        /* \"#utility.yul\":33598:33715   */\n    tag_484:\n        /* \"#utility.yul\":33707:33708   */\n      0x00\n        /* \"#utility.yul\":33704:33705   */\n      dup1\n        /* \"#utility.yul\":33697:33709   */\n      revert\n        /* \"#utility.yul\":33721:33838   */\n    tag_459:\n        /* \"#utility.yul\":33830:33831   */\n      0x00\n        /* \"#utility.yul\":33827:33828   */\n      dup1\n        /* \"#utility.yul\":33820:33832   */\n      revert\n        /* \"#utility.yul\":33844:33961   */\n    tag_518:\n        /* \"#utility.yul\":33953:33954   */\n      0x00\n        /* \"#utility.yul\":33950:33951   */\n      dup1\n        /* \"#utility.yul\":33943:33955   */\n      revert\n        /* \"#utility.yul\":33967:34084   */\n    tag_505:\n        /* \"#utility.yul\":34076:34077   */\n      0x00\n        /* \"#utility.yul\":34073:34074   */\n      dup1\n        /* \"#utility.yul\":34066:34078   */\n      revert\n        /* \"#utility.yul\":34090:34192   */\n    tag_579:\n        /* \"#utility.yul\":34131:34137   */\n      0x00\n        /* \"#utility.yul\":34182:34184   */\n      0x1f\n        /* \"#utility.yul\":34178:34185   */\n      not\n        /* \"#utility.yul\":34173:34175   */\n      0x1f\n        /* \"#utility.yul\":34166:34171   */\n      dup4\n        /* \"#utility.yul\":34162:34176   */\n      add\n        /* \"#utility.yul\":34158:34186   */\n      and\n        /* \"#utility.yul\":34148:34186   */\n      swap1\n      pop\n        /* \"#utility.yul\":34090:34192   */\n      swap2\n      swap1\n      pop\n      jump\t// out\n        /* \"#utility.yul\":34198:34367   */\n    tag_604:\n        /* \"#utility.yul\":34338:34359   */\n      0x596f7520617265206e6f74206120766f74657200000000000000000000000000\n        /* \"#utility.yul\":34334:34335   */\n      0x00\n        /* \"#utility.yul\":34326:34332   */\n      dup3\n        /* \"#utility.yul\":34322:34336   */\n      add\n        /* \"#utility.yul\":34315:34360   */\n      mstore\n        /* \"#utility.yul\":34198:34367   */\n      pop\n      jump\t// out\n        /* \"#utility.yul\":34373:34605   */\n    tag_609:\n        /* \"#utility.yul\":34513:34547   */\n      0x43757272656e746c7920776520617265206e6f7420766f74696e67206f6e2074\n        /* \"#utility.yul\":34509:34510   */\n      0x00\n        /* \"#utility.yul\":34501:34507   */\n      dup3\n        /* \"#utility.yul\":34497:34511   */\n      add\n        /* \"#utility.yul\":34490:34548   */\n      mstore\n        /* \"#utility.yul\":34582:34597   */\n      0x6869732066756e6374696f6e2e00000000000000000000000000000000000000\n        /* \"#utility.yul\":34577:34579   */\n      0x20\n        /* \"#utility.yul\":34569:34575   */\n      dup3\n        /* \"#utility.yul\":34565:34580   */\n      add\n        /* \"#utility.yul\":34558:34598   */\n      mstore\n        /* \"#utility.yul\":34373:34605   */\n      pop\n      jump\t// out\n        /* \"#utility.yul\":34611:34836   */\n    tag_614:\n        /* \"#utility.yul\":34751:34785   */\n      0x4f776e61626c653a206e6577206f776e657220697320746865207a65726f2061\n        /* \"#utility.yul\":34747:34748   */\n      0x00\n        /* \"#utility.yul\":34739:34745   */\n      dup3\n        /* \"#utility.yul\":34735:34749   */\n      add\n        /* \"#utility.yul\":34728:34786   */\n      mstore\n        /* \"#utility.yul\":34820:34828   */\n      0x6464726573730000000000000000000000000000000000000000000000000000\n        /* \"#utility.yul\":34815:34817   */\n      0x20\n        /* \"#utility.yul\":34807:34813   */\n      dup3\n        /* \"#utility.yul\":34803:34818   */\n      add\n        /* \"#utility.yul\":34796:34829   */\n      mstore\n        /* \"#utility.yul\":34611:34836   */\n      pop\n      jump\t// out\n        /* \"#utility.yul\":34842:35010   */\n    tag_619:\n        /* \"#utility.yul\":34982:35002   */\n      0x5468657265206973206e6f20766f74696e670000000000000000000000000000\n        /* \"#utility.yul\":34978:34979   */\n      0x00\n        /* \"#utility.yul\":34970:34976   */\n      dup3\n        /* \"#utility.yul\":34966:34980   */\n      add\n        /* \"#utility.yul\":34959:35003   */\n      mstore\n        /* \"#utility.yul\":34842:35010   */\n      pop\n      jump\t// out\n        /* \"#utility.yul\":35016:35236   */\n    tag_624:\n        /* \"#utility.yul\":35156:35190   */\n      0x596f7520617265206e6f7420746865204b6579486f6c646572436f6e74726163\n        /* \"#utility.yul\":35152:35153   */\n      0x00\n        /* \"#utility.yul\":35144:35150   */\n      dup3\n        /* \"#utility.yul\":35140:35154   */\n      add\n        /* \"#utility.yul\":35133:35191   */\n      mstore\n        /* \"#utility.yul\":35225:35228   */\n      0x7400000000000000000000000000000000000000000000000000000000000000\n        /* \"#utility.yul\":35220:35222   */\n      0x20\n        /* \"#utility.yul\":35212:35218   */\n      dup3\n        /* \"#utility.yul\":35208:35223   */\n      add\n        /* \"#utility.yul\":35201:35229   */\n      mstore\n        /* \"#utility.yul\":35016:35236   */\n      pop\n      jump\t// out\n        /* \"#utility.yul\":35242:35462   */\n    tag_629:\n        /* \"#utility.yul\":35382:35416   */\n      0x476976656e206164647265737320697320616c7265616479206120766f746572\n        /* \"#utility.yul\":35378:35379   */\n      0x00\n        /* \"#utility.yul\":35370:35376   */\n      dup3\n        /* \"#utility.yul\":35366:35380   */\n      add\n        /* \"#utility.yul\":35359:35417   */\n      mstore\n        /* \"#utility.yul\":35451:35454   */\n      0x2e00000000000000000000000000000000000000000000000000000000000000\n        /* \"#utility.yul\":35446:35448   */\n      0x20\n        /* \"#utility.yul\":35438:35444   */\n      dup3\n        /* \"#utility.yul\":35434:35449   */\n      add\n        /* \"#utility.yul\":35427:35455   */\n      mstore\n        /* \"#utility.yul\":35242:35462   */\n      pop\n      jump\t// out\n        /* \"#utility.yul\":35468:35628   */\n    tag_634:\n        /* \"#utility.yul\":35608:35620   */\n      0x50726f706f73616c3a2000000000000000000000000000000000000000000000\n        /* \"#utility.yul\":35604:35605   */\n      0x00\n        /* \"#utility.yul\":35596:35602   */\n      dup3\n        /* \"#utility.yul\":35592:35606   */\n      add\n        /* \"#utility.yul\":35585:35621   */\n      mstore\n        /* \"#utility.yul\":35468:35628   */\n      pop\n      jump\t// out\n        /* \"#utility.yul\":35634:35816   */\n    tag_639:\n        /* \"#utility.yul\":35774:35808   */\n      0x4f776e61626c653a2063616c6c6572206973206e6f7420746865206f776e6572\n        /* \"#utility.yul\":35770:35771   */\n      0x00\n        /* \"#utility.yul\":35762:35768   */\n      dup3\n        /* \"#utility.yul\":35758:35772   */\n      add\n        /* \"#utility.yul\":35751:35809   */\n      mstore\n        /* \"#utility.yul\":35634:35816   */\n      pop\n      jump\t// out\n        /* \"#utility.yul\":35822:35992   */\n    tag_644:\n        /* \"#utility.yul\":35962:35984   */\n      0x5a65726f204164647265737320656e7465726564000000000000000000000000\n        /* \"#utility.yul\":35958:35959   */\n      0x00\n        /* \"#utility.yul\":35950:35956   */\n      dup3\n        /* \"#utility.yul\":35946:35960   */\n      add\n        /* \"#utility.yul\":35939:35985   */\n      mstore\n        /* \"#utility.yul\":35822:35992   */\n      pop\n      jump\t// out\n        /* \"#utility.yul\":35998:36229   */\n    tag_649:\n        /* \"#utility.yul\":36138:36172   */\n      0x5468657265206973206e6f20766f74696e67206f722c206974206973206e6f74\n        /* \"#utility.yul\":36134:36135   */\n      0x00\n        /* \"#utility.yul\":36126:36132   */\n      dup3\n        /* \"#utility.yul\":36122:36136   */\n      add\n        /* \"#utility.yul\":36115:36173   */\n      mstore\n        /* \"#utility.yul\":36207:36221   */\n      0x20612070726f706f73616c2e0000000000000000000000000000000000000000\n        /* \"#utility.yul\":36202:36204   */\n      0x20\n        /* \"#utility.yul\":36194:36200   */\n      dup3\n        /* \"#utility.yul\":36190:36205   */\n      add\n        /* \"#utility.yul\":36183:36222   */\n      mstore\n        /* \"#utility.yul\":35998:36229   */\n      pop\n      jump\t// out\n        /* \"#utility.yul\":36235:36406   */\n    tag_654:\n        /* \"#utility.yul\":36375:36398   */\n      0x596f75206861766520766f746564206265666f72650000000000000000000000\n        /* \"#utility.yul\":36371:36372   */\n      0x00\n        /* \"#utility.yul\":36363:36369   */\n      dup3\n        /* \"#utility.yul\":36359:36373   */\n      add\n        /* \"#utility.yul\":36352:36399   */\n      mstore\n        /* \"#utility.yul\":36235:36406   */\n      pop\n      jump\t// out\n        /* \"#utility.yul\":36412:36590   */\n    tag_659:\n        /* \"#utility.yul\":36552:36582   */\n      0x506c6561736520766f7465206265747765656e203120746f2031302e00000000\n        /* \"#utility.yul\":36548:36549   */\n      0x00\n        /* \"#utility.yul\":36540:36546   */\n      dup3\n        /* \"#utility.yul\":36536:36550   */\n      add\n        /* \"#utility.yul\":36529:36583   */\n      mstore\n        /* \"#utility.yul\":36412:36590   */\n      pop\n      jump\t// out\n        /* \"#utility.yul\":36596:36778   */\n    tag_664:\n        /* \"#utility.yul\":36736:36770   */\n      0x43757272656e7420766f74696e67206973206e6f7420656e646564207965742e\n        /* \"#utility.yul\":36732:36733   */\n      0x00\n        /* \"#utility.yul\":36724:36730   */\n      dup3\n        /* \"#utility.yul\":36720:36734   */\n      add\n        /* \"#utility.yul\":36713:36771   */\n      mstore\n        /* \"#utility.yul\":36596:36778   */\n      pop\n      jump\t// out\n        /* \"#utility.yul\":36784:37028   */\n    tag_669:\n        /* \"#utility.yul\":36924:36958   */\n      0x4576656e206f776e65722063616e6e6f7420656e6420766f74696e6720626566\n        /* \"#utility.yul\":36920:36921   */\n      0x00\n        /* \"#utility.yul\":36912:36918   */\n      dup3\n        /* \"#utility.yul\":36908:36922   */\n      add\n        /* \"#utility.yul\":36901:36959   */\n      mstore\n        /* \"#utility.yul\":36993:37020   */\n      0x6f7265206974206861732064657369676e6174656420746f2e00000000000000\n        /* \"#utility.yul\":36988:36990   */\n      0x20\n        /* \"#utility.yul\":36980:36986   */\n      dup3\n        /* \"#utility.yul\":36976:36991   */\n      add\n        /* \"#utility.yul\":36969:37021   */\n      mstore\n        /* \"#utility.yul\":36784:37028   */\n      pop\n      jump\t// out\n        /* \"#utility.yul\":37034:37204   */\n    tag_674:\n        /* \"#utility.yul\":37174:37196   */\n      0x596f7520617265206e6f74206120766f74657272000000000000000000000000\n        /* \"#utility.yul\":37170:37171   */\n      0x00\n        /* \"#utility.yul\":37162:37168   */\n      dup3\n        /* \"#utility.yul\":37158:37172   */\n      add\n        /* \"#utility.yul\":37151:37197   */\n      mstore\n        /* \"#utility.yul\":37034:37204   */\n      pop\n      jump\t// out\n        /* \"#utility.yul\":37210:37329   */\n    tag_826:\n        /* \"#utility.yul\":37297:37298   */\n      0x04\n        /* \"#utility.yul\":37290:37295   */\n      dup2\n        /* \"#utility.yul\":37287:37299   */\n      lt\n        /* \"#utility.yul\":37277:37323   */\n      tag_881\n      jumpi\n        /* \"#utility.yul\":37303:37321   */\n      tag_882\n      tag_97\n      jump\t// in\n    tag_882:\n        /* \"#utility.yul\":37277:37323   */\n    tag_881:\n        /* \"#utility.yul\":37210:37329   */\n      pop\n      jump\t// out\n        /* \"#utility.yul\":37335:37457   */\n    tag_465:\n        /* \"#utility.yul\":37408:37432   */\n      tag_884\n        /* \"#utility.yul\":37426:37431   */\n      dup2\n        /* \"#utility.yul\":37408:37432   */\n      tag_541\n      jump\t// in\n    tag_884:\n        /* \"#utility.yul\":37401:37406   */\n      dup2\n        /* \"#utility.yul\":37398:37433   */\n      eq\n        /* \"#utility.yul\":37388:37451   */\n      tag_885\n      jumpi\n        /* \"#utility.yul\":37447:37448   */\n      0x00\n        /* \"#utility.yul\":37444:37445   */\n      dup1\n        /* \"#utility.yul\":37437:37449   */\n      revert\n        /* \"#utility.yul\":37388:37451   */\n    tag_885:\n        /* \"#utility.yul\":37335:37457   */\n      pop\n      jump\t// out\n        /* \"#utility.yul\":37463:37571   */\n    tag_469:\n        /* \"#utility.yul\":37545:37546   */\n      0x02\n        /* \"#utility.yul\":37538:37543   */\n      dup2\n        /* \"#utility.yul\":37535:37547   */\n      lt\n        /* \"#utility.yul\":37525:37565   */\n      tag_887\n      jumpi\n        /* \"#utility.yul\":37561:37562   */\n      0x00\n        /* \"#utility.yul\":37558:37559   */\n      dup1\n        /* \"#utility.yul\":37551:37563   */\n      revert\n        /* \"#utility.yul\":37525:37565   */\n    tag_887:\n        /* \"#utility.yul\":37463:37571   */\n      pop\n      jump\t// out\n        /* \"#utility.yul\":37577:37690   */\n    tag_473:\n        /* \"#utility.yul\":37664:37665   */\n      0x04\n        /* \"#utility.yul\":37657:37662   */\n      dup2\n        /* \"#utility.yul\":37654:37666   */\n      lt\n        /* \"#utility.yul\":37644:37684   */\n      tag_889\n      jumpi\n        /* \"#utility.yul\":37680:37681   */\n      0x00\n        /* \"#utility.yul\":37677:37678   */\n      dup1\n        /* \"#utility.yul\":37670:37682   */\n      revert\n        /* \"#utility.yul\":37644:37684   */\n    tag_889:\n        /* \"#utility.yul\":37577:37690   */\n      pop\n      jump\t// out\n        /* \"#utility.yul\":37696:37816   */\n    tag_493:\n        /* \"#utility.yul\":37768:37791   */\n      tag_891\n        /* \"#utility.yul\":37785:37790   */\n      dup2\n        /* \"#utility.yul\":37768:37791   */\n      tag_690\n      jump\t// in\n    tag_891:\n        /* \"#utility.yul\":37761:37766   */\n      dup2\n        /* \"#utility.yul\":37758:37792   */\n      eq\n        /* \"#utility.yul\":37748:37810   */\n      tag_892\n      jumpi\n        /* \"#utility.yul\":37806:37807   */\n      0x00\n        /* \"#utility.yul\":37803:37804   */\n      dup1\n        /* \"#utility.yul\":37796:37808   */\n      revert\n        /* \"#utility.yul\":37748:37810   */\n    tag_892:\n        /* \"#utility.yul\":37696:37816   */\n      pop\n      jump\t// out\n        /* \"#utility.yul\":37822:37944   */\n    tag_497:\n        /* \"#utility.yul\":37895:37919   */\n      tag_894\n        /* \"#utility.yul\":37913:37918   */\n      dup2\n        /* \"#utility.yul\":37895:37919   */\n      tag_696\n      jump\t// in\n    tag_894:\n        /* \"#utility.yul\":37888:37893   */\n      dup2\n        /* \"#utility.yul\":37885:37920   */\n      eq\n        /* \"#utility.yul\":37875:37938   */\n      tag_895\n      jumpi\n        /* \"#utility.yul\":37934:37935   */\n      0x00\n        /* \"#utility.yul\":37931:37932   */\n      dup1\n        /* \"#utility.yul\":37924:37936   */\n      revert\n        /* \"#utility.yul\":37875:37938   */\n    tag_895:\n        /* \"#utility.yul\":37822:37944   */\n      pop\n      jump\t// out\n        /* \"#utility.yul\":37950:38068   */\n    tag_501:\n        /* \"#utility.yul\":38021:38043   */\n      tag_897\n        /* \"#utility.yul\":38037:38042   */\n      dup2\n        /* \"#utility.yul\":38021:38043   */\n      tag_709\n      jump\t// in\n    tag_897:\n        /* \"#utility.yul\":38014:38019   */\n      dup2\n        /* \"#utility.yul\":38011:38044   */\n      eq\n        /* \"#utility.yul\":38001:38062   */\n      tag_898\n      jumpi\n        /* \"#utility.yul\":38058:38059   */\n      0x00\n        /* \"#utility.yul\":38055:38056   */\n      dup1\n        /* \"#utility.yul\":38048:38060   */\n      revert\n        /* \"#utility.yul\":38001:38062   */\n    tag_898:\n        /* \"#utility.yul\":37950:38068   */\n      pop\n      jump\t// out\n\n    auxdata: 0xa26469706673582212206f4d716f64c62f796f733f0e531b160fcad25c5b85f08fcb301a0d47fbfd06a564736f6c63430008070033\n}\n",
				"bytecode": {
					"linkReferences": {},
					"object": "60806040526000600160146101000a81548161ffff021916908361ffff1602179055506000600560006101000a81548161ffff021916908361ffff1602179055503480156200004d57600080fd5b506200006e620000626200007460201b60201c565b6200007c60201b60201c565b62000140565b600033905090565b60008060009054906101000a900473ffffffffffffffffffffffffffffffffffffffff169050816000806101000a81548173ffffffffffffffffffffffffffffffffffffffff021916908373ffffffffffffffffffffffffffffffffffffffff1602179055508173ffffffffffffffffffffffffffffffffffffffff168173ffffffffffffffffffffffffffffffffffffffff167f8be0079c531659141344cd1fd0a4f28419497f9722a3daafe3b4186f6b6457e060405160405180910390a35050565b614b1a80620001506000396000f3fe608060405234801561001057600080fd5b50600436106101215760003560e01c80638da5cb5b116100ad578063ddd2d1fd11610071578063ddd2d1fd14610296578063ea31a64c146102ce578063f2fde38b146102ea578063f546278d14610306578063fbb396511461032257610121565b80638da5cb5b14610218578063b0b121fe14610236578063bf2aba7914610252578063c631b2921461026e578063da92d1d91461027857610121565b806348f85451116100f457806348f85451146101ae5780634ddb37e1146101b85780636208ac9c146101d45780636f71e065146101f0578063715018a61461020e57610121565b806304f397cf1461012657806325bc774714610144578063410781671461016057806345e641d014610190575b600080fd5b61012e610340565b60405161013b9190613f35565b60405180910390f35b61015e60048036038101906101599190613892565b610394565b005b61017a600480360381019061017591906139a9565b61089d565b6040516101879190613f13565b60405180910390f35b61019861126c565b6040516101a59190613ef8565b60405180910390f35b6101b6611292565b005b6101d260048036038101906101cd9190613892565b611a30565b005b6101ee60048036038101906101e991906139a9565b611f3a565b005b6101f8612379565b6040516102059190614110565b60405180910390f35b61021661238d565b005b6102206123a1565b60405161022d9190613ef8565b60405180910390f35b610250600480360381019061024b9190613933565b6123ca565b005b61026c60048036038101906102679190613865565b612840565b005b61027661288c565b005b610280612a6d565b60405161028d91906141e8565b60405180910390f35b6102b060048036038101906102ab919061397c565b612aea565b6040516102c59998979695949392919061412b565b60405180910390f35b6102e860048036038101906102e39190613865565b612c1b565b005b61030460048036038101906102ff9190613865565b612e3e565b005b610320600480360381019061031b91906138bf565b612ec2565b005b61032a61320b565b6040516103379190614110565b60405180910390f35b6000600260003373ffffffffffffffffffffffffffffffffffffffff1673ffffffffffffffffffffffffffffffffffffffff16815260200190815260200160002060009054906101000a900460ff16905090565b600060038111156103a8576103a761461e565b5b60046000600160149054906101000a900461ffff1661ffff1661ffff16815260200190815260200160002060060160009054906101000a900460ff1660038111156103f6576103f561461e565b5b1415610437576040517f08c379a000000000000000000000000000000000000000000000000000000000815260040161042e90613fb0565b60405180910390fd5b600260003373ffffffffffffffffffffffffffffffffffffffff1673ffffffffffffffffffffffffffffffffffffffff16815260200190815260200160002060009054906101000a900460ff166104c3576040517f08c379a00000000000000000000000000000000000000000000000000000000081526004016104ba90613f50565b60405180910390fd5b600060036000600160149054906101000a900461ffff1661ffff1661ffff16815260200190815260200160002060003373ffffffffffffffffffffffffffffffffffffffff1673ffffffffffffffffffffffffffffffffffffffff16815260200190815260200160002060009054906101000a900460ff1660ff161461057e576040517f08c379a000000000000000000000000000000000000000000000000000000000815260040161057590614070565b60405180910390fd5b6003808111156105915761059061461e565b5b60046000600160149054906101000a900461ffff1661ffff1661ffff16815260200190815260200160002060060160009054906101000a900460ff1660038111156105df576105de61461e565b5b1461061f576040517f08c379a000000000000000000000000000000000000000000000000000000000815260040161061690613f70565b60405180910390fd5b600060018111156106335761063261461e565b5b8160018111156106465761064561461e565b5b141561073f57600160036000600160149054906101000a900461ffff1661ffff1661ffff16815260200190815260200160002060003373ffffffffffffffffffffffffffffffffffffffff1673ffffffffffffffffffffffffffffffffffffffff16815260200190815260200160002060006101000a81548160ff021916908360ff160217905550600160046000600160149054906101000a900461ffff1661ffff1661ffff16815260200190815260200160002060020160048282829054906101000a900463ffffffff1661071c919061436d565b92506101000a81548163ffffffff021916908363ffffffff16021790555061082e565b600a60036000600160149054906101000a900461ffff1661ffff1661ffff16815260200190815260200160002060003373ffffffffffffffffffffffffffffffffffffffff1673ffffffffffffffffffffffffffffffffffffffff16815260200190815260200160002060006101000a81548160ff021916908360ff160217905550600a60046000600160149054906101000a900461ffff1661ffff1661ffff16815260200190815260200160002060020160048282829054906101000a900463ffffffff1661080f919061436d565b92506101000a81548163ffffffff021916908363ffffffff1602179055505b600160046000600160149054906101000a900461ffff1661ffff1661ffff16815260200190815260200160002060020160008282829054906101000a900463ffffffff1661087c919061436d565b92506101000a81548163ffffffff021916908363ffffffff16021790555050565b606060008260ff1667ffffffffffffffff8111156108be576108bd6146ab565b5b6040519080825280602002602001820160405280156108f757816020015b6108e46134e7565b8152602001906001900390816108dc5790505b5090506000600160149054906101000a900461ffff16905060018461091c9190614454565b60ff168161ffff161115610dc8576000600460008361ffff1661ffff168152602001908152602001600020600101805461095590614562565b90501115610b8a5760005b8460ff168160ff161015610b8457600460008260ff16846109819190614420565b61ffff1661ffff168152602001908152602001600020604051806101200160405290816000820160009054906101000a900461ffff1661ffff1661ffff1681526020016001820180546109d390614562565b80601f01602080910402602001604051908101604052809291908181526020018280546109ff90614562565b8015610a4c5780601f10610a2157610100808354040283529160200191610a4c565b820191906000526020600020905b815481529060010190602001808311610a2f57829003601f168201915b505050505081526020016002820160009054906101000a900463ffffffff1663ffffffff1663ffffffff1681526020016002820160049054906101000a900463ffffffff1663ffffffff1663ffffffff1681526020016002820160089054906101000a900473ffffffffffffffffffffffffffffffffffffffff1673ffffffffffffffffffffffffffffffffffffffff1673ffffffffffffffffffffffffffffffffffffffff1681526020016003820154815260200160048201548152602001600582015481526020016006820160009054906101000a900460ff166003811115610b3a57610b3961461e565b5b6003811115610b4c57610b4b61461e565b5b81525050838260ff1681518110610b6657610b6561467c565b5b60200260200101819052508080610b7c906145c5565b915050610960565b50610dc3565b6000600190505b8460ff168160ff161015610dc157600460008260ff1684610bb29190614420565b61ffff1661ffff168152602001908152602001600020604051806101200160405290816000820160009054906101000a900461ffff1661ffff1661ffff168152602001600182018054610c0490614562565b80601f0160208091040260200160405190810160405280929190818152602001828054610c3090614562565b8015610c7d5780601f10610c5257610100808354040283529160200191610c7d565b820191906000526020600020905b815481529060010190602001808311610c6057829003601f168201915b505050505081526020016002820160009054906101000a900463ffffffff1663ffffffff1663ffffffff1681526020016002820160049054906101000a900463ffffffff1663ffffffff1663ffffffff1681526020016002820160089054906101000a900473ffffffffffffffffffffffffffffffffffffffff1673ffffffffffffffffffffffffffffffffffffffff1673ffffffffffffffffffffffffffffffffffffffff1681526020016003820154815260200160048201548152602001600582015481526020016006820160009054906101000a900460ff166003811115610d6b57610d6a61461e565b5b6003811115610d7d57610d7c61461e565b5b8152505083600183610d8f9190614454565b60ff1681518110610da357610da261467c565b5b60200260200101819052508080610db9906145c5565b915050610b91565b505b611262565b6000600460008361ffff1661ffff1681526020019081526020016000206001018054610df390614562565b905011156110285760005b8161ffff168160ff161161102257600460008260ff1684610e1f9190614420565b61ffff1661ffff168152602001908152602001600020604051806101200160405290816000820160009054906101000a900461ffff1661ffff1661ffff168152602001600182018054610e7190614562565b80601f0160208091040260200160405190810160405280929190818152602001828054610e9d90614562565b8015610eea5780601f10610ebf57610100808354040283529160200191610eea565b820191906000526020600020905b815481529060010190602001808311610ecd57829003601f168201915b505050505081526020016002820160009054906101000a900463ffffffff1663ffffffff1663ffffffff1681526020016002820160049054906101000a900463ffffffff1663ffffffff1663ffffffff1681526020016002820160089054906101000a900473ffffffffffffffffffffffffffffffffffffffff1673ffffffffffffffffffffffffffffffffffffffff1673ffffffffffffffffffffffffffffffffffffffff1681526020016003820154815260200160048201548152602001600582015481526020016006820160009054906101000a900460ff166003811115610fd857610fd761461e565b5b6003811115610fea57610fe961461e565b5b81525050838260ff16815181106110045761100361467c565b5b6020026020010181905250808061101a906145c5565b915050610dfe565b50611261565b6000600190505b8161ffff168160ff161161125f57600460008260ff16846110509190614420565b61ffff1661ffff168152602001908152602001600020604051806101200160405290816000820160009054906101000a900461ffff1661ffff1661ffff1681526020016001820180546110a290614562565b80601f01602080910402602001604051908101604052809291908181526020018280546110ce90614562565b801561111b5780601f106110f05761010080835404028352916020019161111b565b820191906000526020600020905b8154815290600101906020018083116110fe57829003601f168201915b505050505081526020016002820160009054906101000a900463ffffffff1663ffffffff1663ffffffff1681526020016002820160049054906101000a900463ffffffff1663ffffffff1663ffffffff1681526020016002820160089054906101000a900473ffffffffffffffffffffffffffffffffffffffff1673ffffffffffffffffffffffffffffffffffffffff1673ffffffffffffffffffffffffffffffffffffffff1681526020016003820154815260200160048201548152602001600582015481526020016006820160009054906101000a900460ff1660038111156112095761120861461e565b5b600381111561121b5761121a61461e565b5b815250508360018361122d9190614454565b60ff16815181106112415761124061467c565b5b60200260200101819052508080611257906145c5565b91505061102f565b505b5b8192505050919050565b600160009054906101000a900473ffffffffffffffffffffffffffffffffffffffff1681565b33600260008273ffffffffffffffffffffffffffffffffffffffff1673ffffffffffffffffffffffffffffffffffffffff16815260200190815260200160002060009054906101000a900460ff1661131f576040517f08c379a0000000000000000000000000000000000000000000000000000000008152600401611316906140f0565b60405180910390fd5b6003808111156113325761133161461e565b5b60046000600160149054906101000a900461ffff1661ffff1661ffff16815260200190815260200160002060060160009054906101000a900460ff1660038111156113805761137f61461e565b5b146113c0576040517f08c379a00000000000000000000000000000000000000000000000000000000081526004016113b790614050565b60405180910390fd5b60046000600160149054906101000a900461ffff1661ffff1661ffff16815260200190815260200160002060040154431015611431576040517f08c379a0000000000000000000000000000000000000000000000000000000008152600401611428906140d0565b60405180910390fd5b600060046000600160149054906101000a900461ffff1661ffff1661ffff16815260200190815260200160002060060160006101000a81548160ff021916908360038111156114835761148261461e565b5b02179055504360046000600160149054906101000a900461ffff1661ffff1661ffff16815260200190815260200160002060050181905550600160149054906101000a900461ffff1661ffff167f021f11808c72d44e34f2cfc1d94ef62ff26b8eb58bdd2db3cee65cc447fd3b7960046000600160149054906101000a900461ffff1661ffff1661ffff16815260200190815260200160002060020160009054906101000a900463ffffffff1660046000600160149054906101000a900461ffff1661ffff1661ffff16815260200190815260200160002060020160049054906101000a900463ffffffff1660405161157d9291906141bf565b60405180910390a260018060148282829054906101000a900461ffff166115a491906142df565b92506101000a81548161ffff021916908361ffff160217905550600560009054906101000a900461ffff1661ffff1660026004600060018060149054906101000a900461ffff166115f59190614420565b61ffff1661ffff16815260200190815260200160002060020160049054906101000a900463ffffffff1661162991906143a7565b63ffffffff1610611a2d57600160149054906101000a900461ffff1660046000600160149054906101000a900461ffff1661ffff1661ffff16815260200190815260200160002060000160006101000a81548161ffff021916908361ffff1602179055506004600060018060149054906101000a900461ffff166116ad9190614420565b61ffff1661ffff16815260200190815260200160002060020160089054906101000a900473ffffffffffffffffffffffffffffffffffffffff1660046000600160149054906101000a900461ffff1661ffff1661ffff16815260200190815260200160002060020160086101000a81548173ffffffffffffffffffffffffffffffffffffffff021916908373ffffffffffffffffffffffffffffffffffffffff1602179055506004600060018060149054906101000a900461ffff166117739190614420565b61ffff1661ffff16815260200190815260200160002060010160046000600160149054906101000a900461ffff1661ffff1661ffff1681526020019081526020016000206001019080546117c690614562565b6117d192919061356b565b506004600060018060149054906101000a900461ffff166117f29190614420565b61ffff1661ffff16815260200190815260200160002060010160405160200161181b9190613ed6565b6040516020818303038152906040526004600060018060149054906101000a900461ffff1661184a9190614420565b61ffff1661ffff16815260200190815260200160002060010190805190602001906118769291906135f8565b504360046000600160149054906101000a900461ffff1661ffff1661ffff16815260200190815260200160002060030181905550600360016118b891906143e5565b60ff16436118c69190614317565b60046000600160149054906101000a900461ffff1661ffff1661ffff16815260200190815260200160002060040181905550600060046000600160149054906101000a900461ffff1661ffff1661ffff16815260200190815260200160002060020160046101000a81548163ffffffff021916908363ffffffff160217905550600060046000600160149054906101000a900461ffff1661ffff1661ffff16815260200190815260200160002060020160006101000a81548163ffffffff021916908363ffffffff160217905550600160046000600160149054906101000a900461ffff1661ffff1661ffff16815260200190815260200160002060060160006101000a81548160ff021916908360038111156119e6576119e561461e565b5b0217905550600160149054906101000a900461ffff1661ffff167fa486368a4bc0a7bd18120ddeab7dbd478821fceffe1250b8c66e386d275860c760405160405180910390a25b50565b60006003811115611a4457611a4361461e565b5b60046000600160149054906101000a900461ffff1661ffff1661ffff16815260200190815260200160002060060160009054906101000a900460ff166003811115611a9257611a9161461e565b5b1415611ad3576040517f08c379a0000000000000000000000000000000000000000000000000000000008152600401611aca90613fb0565b60405180910390fd5b600260003373ffffffffffffffffffffffffffffffffffffffff1673ffffffffffffffffffffffffffffffffffffffff16815260200190815260200160002060009054906101000a900460ff16611b5f576040517f08c379a0000000000000000000000000000000000000000000000000000000008152600401611b5690613f50565b60405180910390fd5b600060036000600160149054906101000a900461ffff1661ffff1661ffff16815260200190815260200160002060003373ffffffffffffffffffffffffffffffffffffffff1673ffffffffffffffffffffffffffffffffffffffff16815260200190815260200160002060009054906101000a900460ff1660ff1614611c1a576040517f08c379a0000000000000000000000000000000000000000000000000000000008152600401611c1190614070565b60405180910390fd5b60016003811115611c2e57611c2d61461e565b5b60046000600160149054906101000a900461ffff1661ffff1661ffff16815260200190815260200160002060060160009054906101000a900460ff166003811115611c7c57611c7b61461e565b5b14611cbc576040517f08c379a0000000000000000000000000000000000000000000000000000000008152600401611cb390613f70565b60405180910390fd5b60006001811115611cd057611ccf61461e565b5b816001811115611ce357611ce261461e565b5b1415611ddc57600160036000600160149054906101000a900461ffff1661ffff1661ffff16815260200190815260200160002060003373ffffffffffffffffffffffffffffffffffffffff1673ffffffffffffffffffffffffffffffffffffffff16815260200190815260200160002060006101000a81548160ff021916908360ff160217905550600160046000600160149054906101000a900461ffff1661ffff1661ffff16815260200190815260200160002060020160048282829054906101000a900463ffffffff16611db9919061436d565b92506101000a81548163ffffffff021916908363ffffffff160217905550611ecb565b600a60036000600160149054906101000a900461ffff1661ffff1661ffff16815260200190815260200160002060003373ffffffffffffffffffffffffffffffffffffffff1673ffffffffffffffffffffffffffffffffffffffff16815260200190815260200160002060006101000a81548160ff021916908360ff160217905550600a60046000600160149054906101000a900461ffff1661ffff1661ffff16815260200190815260200160002060020160048282829054906101000a900463ffffffff16611eac919061436d565b92506101000a81548163ffffffff021916908363ffffffff1602179055505b600160046000600160149054906101000a900461ffff1661ffff1661ffff16815260200190815260200160002060020160008282829054906101000a900463ffffffff16611f19919061436d565b92506101000a81548163ffffffff021916908363ffffffff16021790555050565b60006003811115611f4e57611f4d61461e565b5b60046000600160149054906101000a900461ffff1661ffff1661ffff16815260200190815260200160002060060160009054906101000a900460ff166003811115611f9c57611f9b61461e565b5b1415611fdd576040517f08c379a0000000000000000000000000000000000000000000000000000000008152600401611fd490613fb0565b60405180910390fd5b600260003373ffffffffffffffffffffffffffffffffffffffff1673ffffffffffffffffffffffffffffffffffffffff16815260200190815260200160002060009054906101000a900460ff16612069576040517f08c379a000000000000000000000000000000000000000000000000000000000815260040161206090613f50565b60405180910390fd5b600060036000600160149054906101000a900461ffff1661ffff1661ffff16815260200190815260200160002060003373ffffffffffffffffffffffffffffffffffffffff1673ffffffffffffffffffffffffffffffffffffffff16815260200190815260200160002060009054906101000a900460ff1660ff1614612124576040517f08c379a000000000000000000000000000000000000000000000000000000000815260040161211b90614070565b60405180910390fd5b60008160ff1611801561213a5750600b8160ff16105b612179576040517f08c379a000000000000000000000000000000000000000000000000000000000815260040161217090614090565b60405180910390fd5b6002600381111561218d5761218c61461e565b5b60046000600160149054906101000a900461ffff1661ffff1661ffff16815260200190815260200160002060060160009054906101000a900460ff1660038111156121db576121da61461e565b5b1461221b576040517f08c379a000000000000000000000000000000000000000000000000000000000815260040161221290613f70565b60405180910390fd5b8060036000600160149054906101000a900461ffff1661ffff1661ffff16815260200190815260200160002060003373ffffffffffffffffffffffffffffffffffffffff1673ffffffffffffffffffffffffffffffffffffffff16815260200190815260200160002060006101000a81548160ff021916908360ff1602179055508060ff1660046000600160149054906101000a900461ffff1661ffff1661ffff16815260200190815260200160002060020160048282829054906101000a900463ffffffff166122ec919061436d565b92506101000a81548163ffffffff021916908363ffffffff160217905550600160046000600160149054906101000a900461ffff1661ffff1661ffff16815260200190815260200160002060020160008282829054906101000a900463ffffffff16612358919061436d565b92506101000a81548163ffffffff021916908363ffffffff16021790555050565b600560009054906101000a900461ffff1681565b61239561321f565b61239f600061329d565b565b60008060009054906101000a900473ffffffffffffffffffffffffffffffffffffffff16905090565b33600260008273ffffffffffffffffffffffffffffffffffffffff1673ffffffffffffffffffffffffffffffffffffffff16815260200190815260200160002060009054906101000a900460ff16612457576040517f08c379a000000000000000000000000000000000000000000000000000000000815260040161244e906140f0565b60405180910390fd5b6000600381111561246b5761246a61461e565b5b60046000600160149054906101000a900461ffff1661ffff1661ffff16815260200190815260200160002060060160009054906101000a900460ff1660038111156124b9576124b861461e565b5b146124f9576040517f08c379a00000000000000000000000000000000000000000000000000000000081526004016124f0906140b0565b60405180910390fd5b60008251141561250857600080fd5b600160149054906101000a900461ffff1660046000600160149054906101000a900461ffff1661ffff1661ffff16815260200190815260200160002060000160006101000a81548161ffff021916908361ffff1602179055503360046000600160149054906101000a900461ffff1661ffff1661ffff16815260200190815260200160002060020160086101000a81548173ffffffffffffffffffffffffffffffffffffffff021916908373ffffffffffffffffffffffffffffffffffffffff1602179055508160046000600160149054906101000a900461ffff1661ffff1661ffff16815260200190815260200160002060010190805190602001906126109291906135f8565b504360046000600160149054906101000a900461ffff1661ffff1661ffff16815260200190815260200160002060030181905550600160ff16436126549190614317565b60046000600160149054906101000a900461ffff1661ffff1661ffff16815260200190815260200160002060040181905550600a60046000600160149054906101000a900461ffff1661ffff1661ffff16815260200190815260200160002060020160046101000a81548163ffffffff021916908363ffffffff160217905550600160046000600160149054906101000a900461ffff1661ffff1661ffff16815260200190815260200160002060020160006101000a81548163ffffffff021916908363ffffffff160217905550600a60036000600160149054906101000a900461ffff1661ffff1661ffff16815260200190815260200160002060003373ffffffffffffffffffffffffffffffffffffffff1673ffffffffffffffffffffffffffffffffffffffff16815260200190815260200160002060006101000a81548160ff021916908360ff160217905550600360046000600160149054906101000a900461ffff1661ffff1661ffff16815260200190815260200160002060060160006101000a81548160ff021916908360038111156127f6576127f561461e565b5b0217905550600160149054906101000a900461ffff1661ffff167fa486368a4bc0a7bd18120ddeab7dbd478821fceffe1250b8c66e386d275860c760405160405180910390a25050565b61284861321f565b80600160006101000a81548173ffffffffffffffffffffffffffffffffffffffff021916908373ffffffffffffffffffffffffffffffffffffffff16021790555050565b33600260008273ffffffffffffffffffffffffffffffffffffffff1673ffffffffffffffffffffffffffffffffffffffff16815260200190815260200160002060009054906101000a900460ff16612919576040517f08c379a0000000000000000000000000000000000000000000000000000000008152600401612910906140f0565b60405180910390fd5b60046000600160149054906101000a900461ffff1661ffff1661ffff1681526020019081526020016000206004015443101561298a576040517f08c379a0000000000000000000000000000000000000000000000000000000008152600401612981906140d0565b60405180910390fd5b6000600381111561299e5761299d61461e565b5b60046000600160149054906101000a900461ffff1661ffff1661ffff16815260200190815260200160002060060160009054906101000a900460ff1660038111156129ec576129eb61461e565b5b14158015612a595750600380811115612a0857612a0761461e565b5b60046000600160149054906101000a900461ffff1661ffff1661ffff16815260200190815260200160002060060160009054906101000a900460ff166003811115612a5657612a5561461e565b5b14155b612a6257600080fd5b612a6a613361565b50565b600060036000600160149054906101000a900461ffff1661ffff1661ffff16815260200190815260200160002060003373ffffffffffffffffffffffffffffffffffffffff1673ffffffffffffffffffffffffffffffffffffffff16815260200190815260200160002060009054906101000a900460ff16905090565b60046020528060005260406000206000915090508060000160009054906101000a900461ffff1690806001018054612b2190614562565b80601f0160208091040260200160405190810160405280929190818152602001828054612b4d90614562565b8015612b9a5780601f10612b6f57610100808354040283529160200191612b9a565b820191906000526020600020905b815481529060010190602001808311612b7d57829003601f168201915b5050505050908060020160009054906101000a900463ffffffff16908060020160049054906101000a900463ffffffff16908060020160089054906101000a900473ffffffffffffffffffffffffffffffffffffffff16908060030154908060040154908060050154908060060160009054906101000a900460ff16905089565b600160009054906101000a900473ffffffffffffffffffffffffffffffffffffffff1673ffffffffffffffffffffffffffffffffffffffff163373ffffffffffffffffffffffffffffffffffffffff1614612cab576040517f08c379a0000000000000000000000000000000000000000000000000000000008152600401612ca290613fd0565b60405180910390fd5b80600073ffffffffffffffffffffffffffffffffffffffff168173ffffffffffffffffffffffffffffffffffffffff161415612d1c576040517f08c379a0000000000000000000000000000000000000000000000000000000008152600401612d1390614030565b60405180910390fd5b600260008373ffffffffffffffffffffffffffffffffffffffff1673ffffffffffffffffffffffffffffffffffffffff16815260200190815260200160002060009054906101000a900460ff1615612da9576040517f08c379a0000000000000000000000000000000000000000000000000000000008152600401612da090613ff0565b60405180910390fd5b6001600560009054906101000a900461ffff16612dc691906142df565b600560006101000a81548161ffff021916908361ffff1602179055506001600260008473ffffffffffffffffffffffffffffffffffffffff1673ffffffffffffffffffffffffffffffffffffffff16815260200190815260200160002060006101000a81548160ff0219169083151502179055505050565b612e4661321f565b600073ffffffffffffffffffffffffffffffffffffffff168173ffffffffffffffffffffffffffffffffffffffff161415612eb6576040517f08c379a0000000000000000000000000000000000000000000000000000000008152600401612ead90613f90565b60405180910390fd5b612ebf8161329d565b50565b612eca61321f565b60006003811115612ede57612edd61461e565b5b60046000600160149054906101000a900461ffff1661ffff1661ffff16815260200190815260200160002060060160009054906101000a900460ff166003811115612f2c57612f2b61461e565b5b14612f6c576040517f08c379a0000000000000000000000000000000000000000000000000000000008152600401612f63906140b0565b60405180910390fd5b60006003811115612f8057612f7f61461e565b5b846003811115612f9357612f9261461e565b5b1415612f9e57600080fd5b600160149054906101000a900461ffff1660046000600160149054906101000a900461ffff1661ffff1661ffff16815260200190815260200160002060000160006101000a81548161ffff021916908361ffff1602179055503360046000600160149054906101000a900461ffff1661ffff1661ffff16815260200190815260200160002060020160086101000a81548173ffffffffffffffffffffffffffffffffffffffff021916908373ffffffffffffffffffffffffffffffffffffffff160217905550818160046000600160149054906101000a900461ffff1661ffff1661ffff16815260200190815260200160002060010191906130a192919061367e565b504360046000600160149054906101000a900461ffff1661ffff1661ffff1681526020019081526020016000206003018190555082436130e19190614317565b60046000600160149054906101000a900461ffff1661ffff1661ffff16815260200190815260200160002060040181905550600060046000600160149054906101000a900461ffff1661ffff1661ffff16815260200190815260200160002060020160046101000a81548163ffffffff021916908363ffffffff160217905550600060046000600160149054906101000a900461ffff1661ffff1661ffff16815260200190815260200160002060020160006101000a81548163ffffffff021916908363ffffffff1602179055508360046000600160149054906101000a900461ffff1661ffff1661ffff16815260200190815260200160002060060160006101000a81548160ff02191690836003811115613200576131ff61461e565b5b021790555050505050565b600160149054906101000a900461ffff1681565b6132276134df565b73ffffffffffffffffffffffffffffffffffffffff166132456123a1565b73ffffffffffffffffffffffffffffffffffffffff161461329b576040517f08c379a000000000000000000000000000000000000000000000000000000000815260040161329290614010565b60405180910390fd5b565b60008060009054906101000a900473ffffffffffffffffffffffffffffffffffffffff169050816000806101000a81548173ffffffffffffffffffffffffffffffffffffffff021916908373ffffffffffffffffffffffffffffffffffffffff1602179055508173ffffffffffffffffffffffffffffffffffffffff168173ffffffffffffffffffffffffffffffffffffffff167f8be0079c531659141344cd1fd0a4f28419497f9722a3daafe3b4186f6b6457e060405160405180910390a35050565b600060038111156133755761337461461e565b5b60046000600160149054906101000a900461ffff1661ffff1661ffff16815260200190815260200160002060060160009054906101000a900460ff1660038111156133c3576133c261461e565b5b1415613404576040517f08c379a00000000000000000000000000000000000000000000000000000000081526004016133fb90613fb0565b60405180910390fd5b60018060148282829054906101000a900461ffff1661342391906142df565b92506101000a81548161ffff021916908361ffff16021790555060006004600060018060149054906101000a900461ffff1661345f9190614420565b61ffff1661ffff16815260200190815260200160002060060160006101000a81548160ff0219169083600381111561349a5761349961461e565b5b0217905550436004600060018060149054906101000a900461ffff166134c09190614420565b61ffff1661ffff16815260200190815260200160002060050181905550565b600033905090565b604051806101200160405280600061ffff16815260200160608152602001600063ffffffff168152602001600063ffffffff168152602001600073ffffffffffffffffffffffffffffffffffffffff168152602001600081526020016000815260200160008152602001600060038111156135655761356461461e565b5b81525090565b82805461357790614562565b90600052602060002090601f01602090048101928261359957600085556135e7565b82601f106135aa57805485556135e7565b828001600101855582156135e757600052602060002091601f016020900482015b828111156135e65782548255916001019190600101906135cb565b5b5090506135f49190613704565b5090565b82805461360490614562565b90600052602060002090601f016020900481019282613626576000855561366d565b82601f1061363f57805160ff191683800117855561366d565b8280016001018555821561366d579182015b8281111561366c578251825591602001919060010190613651565b5b50905061367a9190613704565b5090565b82805461368a90614562565b90600052602060002090601f0160209004810192826136ac57600085556136f3565b82601f106136c557803560ff19168380011785556136f3565b828001600101855582156136f3579182015b828111156136f25782358255916020019190600101906136d7565b5b5090506137009190613704565b5090565b5b8082111561371d576000816000905550600101613705565b5090565b600061373461372f84614228565b614203565b9050828152602081018484840111156137505761374f6146e9565b5b61375b848285614520565b509392505050565b60008135905061377281614a68565b92915050565b60008135905061378781614a7f565b92915050565b60008135905061379c81614a8f565b92915050565b60008083601f8401126137b8576137b76146df565b5b8235905067ffffffffffffffff8111156137d5576137d46146da565b5b6020830191508360018202830111156137f1576137f06146e4565b5b9250929050565b600082601f83011261380d5761380c6146df565b5b813561381d848260208601613721565b91505092915050565b60008135905061383581614a9f565b92915050565b60008135905061384a81614ab6565b92915050565b60008135905061385f81614acd565b92915050565b60006020828403121561387b5761387a6146f3565b5b600061388984828501613763565b91505092915050565b6000602082840312156138a8576138a76146f3565b5b60006138b684828501613778565b91505092915050565b600080600080606085870312156138d9576138d86146f3565b5b60006138e78782880161378d565b94505060206138f88782880161383b565b935050604085013567ffffffffffffffff811115613919576139186146ee565b5b613925878288016137a2565b925092505092959194509250565b600060208284031215613949576139486146f3565b5b600082013567ffffffffffffffff811115613967576139666146ee565b5b613973848285016137f8565b91505092915050565b600060208284031215613992576139916146f3565b5b60006139a084828501613826565b91505092915050565b6000602082840312156139bf576139be6146f3565b5b60006139cd84828501613850565b91505092915050565b60006139e28383613da8565b905092915050565b6139f381614488565b82525050565b613a0281614488565b82525050565b6000613a138261427e565b613a1d81856142a1565b935083602082028501613a2f85614259565b8060005b85811015613a6b5784840389528151613a4c85826139d6565b9450613a5783614294565b925060208a01995050600181019050613a33565b50829750879550505050505092915050565b613a868161449a565b82525050565b613a958161450e565b82525050565b613aa48161450e565b82525050565b6000613ab582614289565b613abf81856142b2565b9350613acf81856020860161452f565b613ad8816146f8565b840191505092915050565b6000613aee82614289565b613af881856142c3565b9350613b0881856020860161452f565b613b11816146f8565b840191505092915050565b60008154613b2981614562565b613b3381866142d4565b94506001821660008114613b4e5760018114613b5f57613b92565b60ff19831686528186019350613b92565b613b6885614269565b60005b83811015613b8a57815481890152600182019150602081019050613b6b565b838801955050505b50505092915050565b6000613ba86013836142c3565b9150613bb382614709565b602082019050919050565b6000613bcb602d836142c3565b9150613bd682614732565b604082019050919050565b6000613bee6026836142c3565b9150613bf982614781565b604082019050919050565b6000613c116012836142c3565b9150613c1c826147d0565b602082019050919050565b6000613c346021836142c3565b9150613c3f826147f9565b604082019050919050565b6000613c576021836142c3565b9150613c6282614848565b604082019050919050565b6000613c7a600a836142d4565b9150613c8582614897565b600a82019050919050565b6000613c9d6020836142c3565b9150613ca8826148c0565b602082019050919050565b6000613cc06014836142c3565b9150613ccb826148e9565b602082019050919050565b6000613ce3602c836142c3565b9150613cee82614912565b604082019050919050565b6000613d066015836142c3565b9150613d1182614961565b602082019050919050565b6000613d29601c836142c3565b9150613d348261498a565b602082019050919050565b6000613d4c6020836142c3565b9150613d57826149b3565b602082019050919050565b6000613d6f6039836142c3565b9150613d7a826149dc565b604082019050919050565b6000613d926014836142c3565b9150613d9d82614a2b565b602082019050919050565b600061012083016000830151613dc16000860182613e6d565b5060208301518482036020860152613dd98282613aaa565b9150506040830151613dee6040860182613ea9565b506060830151613e016060860182613ea9565b506080830151613e1460808601826139ea565b5060a0830151613e2760a0860182613e8b565b5060c0830151613e3a60c0860182613e8b565b5060e0830151613e4d60e0860182613e8b565b50610100830151613e62610100860182613a8c565b508091505092915050565b613e76816144b9565b82525050565b613e85816144b9565b82525050565b613e94816144e7565b82525050565b613ea3816144e7565b82525050565b613eb2816144f1565b82525050565b613ec1816144f1565b82525050565b613ed081614501565b82525050565b6000613ee182613c6d565b9150613eed8284613b1c565b915081905092915050565b6000602082019050613f0d60008301846139f9565b92915050565b60006020820190508181036000830152613f2d8184613a08565b905092915050565b6000602082019050613f4a6000830184613a7d565b92915050565b60006020820190508181036000830152613f6981613b9b565b9050919050565b60006020820190508181036000830152613f8981613bbe565b9050919050565b60006020820190508181036000830152613fa981613be1565b9050919050565b60006020820190508181036000830152613fc981613c04565b9050919050565b60006020820190508181036000830152613fe981613c27565b9050919050565b6000602082019050818103600083015261400981613c4a565b9050919050565b6000602082019050818103600083015261402981613c90565b9050919050565b6000602082019050818103600083015261404981613cb3565b9050919050565b6000602082019050818103600083015261406981613cd6565b9050919050565b6000602082019050818103600083015261408981613cf9565b9050919050565b600060208201905081810360008301526140a981613d1c565b9050919050565b600060208201905081810360008301526140c981613d3f565b9050919050565b600060208201905081810360008301526140e981613d62565b9050919050565b6000602082019050818103600083015261410981613d85565b9050919050565b60006020820190506141256000830184613e7c565b92915050565b600061012082019050614141600083018c613e7c565b8181036020830152614153818b613ae3565b9050614162604083018a613eb8565b61416f6060830189613eb8565b61417c60808301886139f9565b61418960a0830187613e9a565b61419660c0830186613e9a565b6141a360e0830185613e9a565b6141b1610100830184613a9b565b9a9950505050505050505050565b60006040820190506141d46000830185613eb8565b6141e16020830184613eb8565b9392505050565b60006020820190506141fd6000830184613ec7565b92915050565b600061420d61421e565b90506142198282614594565b919050565b6000604051905090565b600067ffffffffffffffff821115614243576142426146ab565b5b61424c826146f8565b9050602081019050919050565b6000819050602082019050919050565b60008190508160005260206000209050919050565b600081519050919050565b600081519050919050565b6000602082019050919050565b600082825260208201905092915050565b600082825260208201905092915050565b600082825260208201905092915050565b600081905092915050565b60006142ea826144b9565b91506142f5836144b9565b92508261ffff0382111561430c5761430b6145ef565b5b828201905092915050565b6000614322826144e7565b915061432d836144e7565b9250827fffffffffffffffffffffffffffffffffffffffffffffffffffffffffffffffff03821115614362576143616145ef565b5b828201905092915050565b6000614378826144f1565b9150614383836144f1565b92508263ffffffff0382111561439c5761439b6145ef565b5b828201905092915050565b60006143b2826144f1565b91506143bd836144f1565b92508163ffffffff04831182151516156143da576143d96145ef565b5b828202905092915050565b60006143f082614501565b91506143fb83614501565b92508160ff0483118215151615614415576144146145ef565b5b828202905092915050565b600061442b826144b9565b9150614436836144b9565b925082821015614449576144486145ef565b5b828203905092915050565b600061445f82614501565b915061446a83614501565b92508282101561447d5761447c6145ef565b5b828203905092915050565b6000614493826144c7565b9050919050565b60008115159050919050565b60008190506144b482614a54565b919050565b600061ffff82169050919050565b600073ffffffffffffffffffffffffffffffffffffffff82169050919050565b6000819050919050565b600063ffffffff82169050919050565b600060ff82169050919050565b6000614519826144a6565b9050919050565b82818337600083830152505050565b60005b8381101561454d578082015181840152602081019050614532565b8381111561455c576000848401525b50505050565b6000600282049050600182168061457a57607f821691505b6020821081141561458e5761458d61464d565b5b50919050565b61459d826146f8565b810181811067ffffffffffffffff821117156145bc576145bb6146ab565b5b80604052505050565b60006145d082614501565b915060ff8214156145e4576145e36145ef565b5b600182019050919050565b7f4e487b7100000000000000000000000000000000000000000000000000000000600052601160045260246000fd5b7f4e487b7100000000000000000000000000000000000000000000000000000000600052602160045260246000fd5b7f4e487b7100000000000000000000000000000000000000000000000000000000600052602260045260246000fd5b7f4e487b7100000000000000000000000000000000000000000000000000000000600052603260045260246000fd5b7f4e487b7100000000000000000000000000000000000000000000000000000000600052604160045260246000fd5b600080fd5b600080fd5b600080fd5b600080fd5b600080fd5b600080fd5b6000601f19601f8301169050919050565b7f596f7520617265206e6f74206120766f74657200000000000000000000000000600082015250565b7f43757272656e746c7920776520617265206e6f7420766f74696e67206f6e207460008201527f6869732066756e6374696f6e2e00000000000000000000000000000000000000602082015250565b7f4f776e61626c653a206e6577206f776e657220697320746865207a65726f206160008201527f6464726573730000000000000000000000000000000000000000000000000000602082015250565b7f5468657265206973206e6f20766f74696e670000000000000000000000000000600082015250565b7f596f7520617265206e6f7420746865204b6579486f6c646572436f6e7472616360008201527f7400000000000000000000000000000000000000000000000000000000000000602082015250565b7f476976656e206164647265737320697320616c7265616479206120766f74657260008201527f2e00000000000000000000000000000000000000000000000000000000000000602082015250565b7f50726f706f73616c3a2000000000000000000000000000000000000000000000600082015250565b7f4f776e61626c653a2063616c6c6572206973206e6f7420746865206f776e6572600082015250565b7f5a65726f204164647265737320656e7465726564000000000000000000000000600082015250565b7f5468657265206973206e6f20766f74696e67206f722c206974206973206e6f7460008201527f20612070726f706f73616c2e0000000000000000000000000000000000000000602082015250565b7f596f75206861766520766f746564206265666f72650000000000000000000000600082015250565b7f506c6561736520766f7465206265747765656e203120746f2031302e00000000600082015250565b7f43757272656e7420766f74696e67206973206e6f7420656e646564207965742e600082015250565b7f4576656e206f776e65722063616e6e6f7420656e6420766f74696e672062656660008201527f6f7265206974206861732064657369676e6174656420746f2e00000000000000602082015250565b7f596f7520617265206e6f74206120766f74657272000000000000000000000000600082015250565b60048110614a6557614a6461461e565b5b50565b614a7181614488565b8114614a7c57600080fd5b50565b60028110614a8c57600080fd5b50565b60048110614a9c57600080fd5b50565b614aa8816144b9565b8114614ab357600080fd5b50565b614abf816144e7565b8114614aca57600080fd5b50565b614ad681614501565b8114614ae157600080fd5b5056fea26469706673582212206f4d716f64c62f796f733f0e531b160fcad25c5b85f08fcb301a0d47fbfd06a564736f6c63430008070033",
					"opcodes": "PUSH1 0x80 PUSH1 0x40 MSTORE PUSH1 0x0 PUSH1 0x1 PUSH1 0x14 PUSH2 0x100 EXP DUP2 SLOAD DUP2 PUSH2 0xFFFF MUL NOT AND SWAP1 DUP4 PUSH2 0xFFFF AND MUL OR SWAP1 SSTORE POP PUSH1 0x0 PUSH1 0x5 PUSH1 0x0 PUSH2 0x100 EXP DUP2 SLOAD DUP2 PUSH2 0xFFFF MUL NOT AND SWAP1 DUP4 PUSH2 0xFFFF AND MUL OR SWAP1 SSTORE POP CALLVALUE DUP1 ISZERO PUSH3 0x4D JUMPI PUSH1 0x0 DUP1 REVERT JUMPDEST POP PUSH3 0x6E PUSH3 0x62 PUSH3 0x74 PUSH1 0x20 SHL PUSH1 0x20 SHR JUMP JUMPDEST PUSH3 0x7C PUSH1 0x20 SHL PUSH1 0x20 SHR JUMP JUMPDEST PUSH3 0x140 JUMP JUMPDEST PUSH1 0x0 CALLER SWAP1 POP SWAP1 JUMP JUMPDEST PUSH1 0x0 DUP1 PUSH1 0x0 SWAP1 SLOAD SWAP1 PUSH2 0x100 EXP SWAP1 DIV PUSH20 0xFFFFFFFFFFFFFFFFFFFFFFFFFFFFFFFFFFFFFFFF AND SWAP1 POP DUP2 PUSH1 0x0 DUP1 PUSH2 0x100 EXP DUP2 SLOAD DUP2 PUSH20 0xFFFFFFFFFFFFFFFFFFFFFFFFFFFFFFFFFFFFFFFF MUL NOT AND SWAP1 DUP4 PUSH20 0xFFFFFFFFFFFFFFFFFFFFFFFFFFFFFFFFFFFFFFFF AND MUL OR SWAP1 SSTORE POP DUP2 PUSH20 0xFFFFFFFFFFFFFFFFFFFFFFFFFFFFFFFFFFFFFFFF AND DUP2 PUSH20 0xFFFFFFFFFFFFFFFFFFFFFFFFFFFFFFFFFFFFFFFF AND PUSH32 0x8BE0079C531659141344CD1FD0A4F28419497F9722A3DAAFE3B4186F6B6457E0 PUSH1 0x40 MLOAD PUSH1 0x40 MLOAD DUP1 SWAP2 SUB SWAP1 LOG3 POP POP JUMP JUMPDEST PUSH2 0x4B1A DUP1 PUSH3 0x150 PUSH1 0x0 CODECOPY PUSH1 0x0 RETURN INVALID PUSH1 0x80 PUSH1 0x40 MSTORE CALLVALUE DUP1 ISZERO PUSH2 0x10 JUMPI PUSH1 0x0 DUP1 REVERT JUMPDEST POP PUSH1 0x4 CALLDATASIZE LT PUSH2 0x121 JUMPI PUSH1 0x0 CALLDATALOAD PUSH1 0xE0 SHR DUP1 PUSH4 0x8DA5CB5B GT PUSH2 0xAD JUMPI DUP1 PUSH4 0xDDD2D1FD GT PUSH2 0x71 JUMPI DUP1 PUSH4 0xDDD2D1FD EQ PUSH2 0x296 JUMPI DUP1 PUSH4 0xEA31A64C EQ PUSH2 0x2CE JUMPI DUP1 PUSH4 0xF2FDE38B EQ PUSH2 0x2EA JUMPI DUP1 PUSH4 0xF546278D EQ PUSH2 0x306 JUMPI DUP1 PUSH4 0xFBB39651 EQ PUSH2 0x322 JUMPI PUSH2 0x121 JUMP JUMPDEST DUP1 PUSH4 0x8DA5CB5B EQ PUSH2 0x218 JUMPI DUP1 PUSH4 0xB0B121FE EQ PUSH2 0x236 JUMPI DUP1 PUSH4 0xBF2ABA79 EQ PUSH2 0x252 JUMPI DUP1 PUSH4 0xC631B292 EQ PUSH2 0x26E JUMPI DUP1 PUSH4 0xDA92D1D9 EQ PUSH2 0x278 JUMPI PUSH2 0x121 JUMP JUMPDEST DUP1 PUSH4 0x48F85451 GT PUSH2 0xF4 JUMPI DUP1 PUSH4 0x48F85451 EQ PUSH2 0x1AE JUMPI DUP1 PUSH4 0x4DDB37E1 EQ PUSH2 0x1B8 JUMPI DUP1 PUSH4 0x6208AC9C EQ PUSH2 0x1D4 JUMPI DUP1 PUSH4 0x6F71E065 EQ PUSH2 0x1F0 JUMPI DUP1 PUSH4 0x715018A6 EQ PUSH2 0x20E JUMPI PUSH2 0x121 JUMP JUMPDEST DUP1 PUSH4 0x4F397CF EQ PUSH2 0x126 JUMPI DUP1 PUSH4 0x25BC7747 EQ PUSH2 0x144 JUMPI DUP1 PUSH4 0x41078167 EQ PUSH2 0x160 JUMPI DUP1 PUSH4 0x45E641D0 EQ PUSH2 0x190 JUMPI JUMPDEST PUSH1 0x0 DUP1 REVERT JUMPDEST PUSH2 0x12E PUSH2 0x340 JUMP JUMPDEST PUSH1 0x40 MLOAD PUSH2 0x13B SWAP2 SWAP1 PUSH2 0x3F35 JUMP JUMPDEST PUSH1 0x40 MLOAD DUP1 SWAP2 SUB SWAP1 RETURN JUMPDEST PUSH2 0x15E PUSH1 0x4 DUP1 CALLDATASIZE SUB DUP2 ADD SWAP1 PUSH2 0x159 SWAP2 SWAP1 PUSH2 0x3892 JUMP JUMPDEST PUSH2 0x394 JUMP JUMPDEST STOP JUMPDEST PUSH2 0x17A PUSH1 0x4 DUP1 CALLDATASIZE SUB DUP2 ADD SWAP1 PUSH2 0x175 SWAP2 SWAP1 PUSH2 0x39A9 JUMP JUMPDEST PUSH2 0x89D JUMP JUMPDEST PUSH1 0x40 MLOAD PUSH2 0x187 SWAP2 SWAP1 PUSH2 0x3F13 JUMP JUMPDEST PUSH1 0x40 MLOAD DUP1 SWAP2 SUB SWAP1 RETURN JUMPDEST PUSH2 0x198 PUSH2 0x126C JUMP JUMPDEST PUSH1 0x40 MLOAD PUSH2 0x1A5 SWAP2 SWAP1 PUSH2 0x3EF8 JUMP JUMPDEST PUSH1 0x40 MLOAD DUP1 SWAP2 SUB SWAP1 RETURN JUMPDEST PUSH2 0x1B6 PUSH2 0x1292 JUMP JUMPDEST STOP JUMPDEST PUSH2 0x1D2 PUSH1 0x4 DUP1 CALLDATASIZE SUB DUP2 ADD SWAP1 PUSH2 0x1CD SWAP2 SWAP1 PUSH2 0x3892 JUMP JUMPDEST PUSH2 0x1A30 JUMP JUMPDEST STOP JUMPDEST PUSH2 0x1EE PUSH1 0x4 DUP1 CALLDATASIZE SUB DUP2 ADD SWAP1 PUSH2 0x1E9 SWAP2 SWAP1 PUSH2 0x39A9 JUMP JUMPDEST PUSH2 0x1F3A JUMP JUMPDEST STOP JUMPDEST PUSH2 0x1F8 PUSH2 0x2379 JUMP JUMPDEST PUSH1 0x40 MLOAD PUSH2 0x205 SWAP2 SWAP1 PUSH2 0x4110 JUMP JUMPDEST PUSH1 0x40 MLOAD DUP1 SWAP2 SUB SWAP1 RETURN JUMPDEST PUSH2 0x216 PUSH2 0x238D JUMP JUMPDEST STOP JUMPDEST PUSH2 0x220 PUSH2 0x23A1 JUMP JUMPDEST PUSH1 0x40 MLOAD PUSH2 0x22D SWAP2 SWAP1 PUSH2 0x3EF8 JUMP JUMPDEST PUSH1 0x40 MLOAD DUP1 SWAP2 SUB SWAP1 RETURN JUMPDEST PUSH2 0x250 PUSH1 0x4 DUP1 CALLDATASIZE SUB DUP2 ADD SWAP1 PUSH2 0x24B SWAP2 SWAP1 PUSH2 0x3933 JUMP JUMPDEST PUSH2 0x23CA JUMP JUMPDEST STOP JUMPDEST PUSH2 0x26C PUSH1 0x4 DUP1 CALLDATASIZE SUB DUP2 ADD SWAP1 PUSH2 0x267 SWAP2 SWAP1 PUSH2 0x3865 JUMP JUMPDEST PUSH2 0x2840 JUMP JUMPDEST STOP JUMPDEST PUSH2 0x276 PUSH2 0x288C JUMP JUMPDEST STOP JUMPDEST PUSH2 0x280 PUSH2 0x2A6D JUMP JUMPDEST PUSH1 0x40 MLOAD PUSH2 0x28D SWAP2 SWAP1 PUSH2 0x41E8 JUMP JUMPDEST PUSH1 0x40 MLOAD DUP1 SWAP2 SUB SWAP1 RETURN JUMPDEST PUSH2 0x2B0 PUSH1 0x4 DUP1 CALLDATASIZE SUB DUP2 ADD SWAP1 PUSH2 0x2AB SWAP2 SWAP1 PUSH2 0x397C JUMP JUMPDEST PUSH2 0x2AEA JUMP JUMPDEST PUSH1 0x40 MLOAD PUSH2 0x2C5 SWAP10 SWAP9 SWAP8 SWAP7 SWAP6 SWAP5 SWAP4 SWAP3 SWAP2 SWAP1 PUSH2 0x412B JUMP JUMPDEST PUSH1 0x40 MLOAD DUP1 SWAP2 SUB SWAP1 RETURN JUMPDEST PUSH2 0x2E8 PUSH1 0x4 DUP1 CALLDATASIZE SUB DUP2 ADD SWAP1 PUSH2 0x2E3 SWAP2 SWAP1 PUSH2 0x3865 JUMP JUMPDEST PUSH2 0x2C1B JUMP JUMPDEST STOP JUMPDEST PUSH2 0x304 PUSH1 0x4 DUP1 CALLDATASIZE SUB DUP2 ADD SWAP1 PUSH2 0x2FF SWAP2 SWAP1 PUSH2 0x3865 JUMP JUMPDEST PUSH2 0x2E3E JUMP JUMPDEST STOP JUMPDEST PUSH2 0x320 PUSH1 0x4 DUP1 CALLDATASIZE SUB DUP2 ADD SWAP1 PUSH2 0x31B SWAP2 SWAP1 PUSH2 0x38BF JUMP JUMPDEST PUSH2 0x2EC2 JUMP JUMPDEST STOP JUMPDEST PUSH2 0x32A PUSH2 0x320B JUMP JUMPDEST PUSH1 0x40 MLOAD PUSH2 0x337 SWAP2 SWAP1 PUSH2 0x4110 JUMP JUMPDEST PUSH1 0x40 MLOAD DUP1 SWAP2 SUB SWAP1 RETURN JUMPDEST PUSH1 0x0 PUSH1 0x2 PUSH1 0x0 CALLER PUSH20 0xFFFFFFFFFFFFFFFFFFFFFFFFFFFFFFFFFFFFFFFF AND PUSH20 0xFFFFFFFFFFFFFFFFFFFFFFFFFFFFFFFFFFFFFFFF AND DUP2 MSTORE PUSH1 0x20 ADD SWAP1 DUP2 MSTORE PUSH1 0x20 ADD PUSH1 0x0 KECCAK256 PUSH1 0x0 SWAP1 SLOAD SWAP1 PUSH2 0x100 EXP SWAP1 DIV PUSH1 0xFF AND SWAP1 POP SWAP1 JUMP JUMPDEST PUSH1 0x0 PUSH1 0x3 DUP2 GT ISZERO PUSH2 0x3A8 JUMPI PUSH2 0x3A7 PUSH2 0x461E JUMP JUMPDEST JUMPDEST PUSH1 0x4 PUSH1 0x0 PUSH1 0x1 PUSH1 0x14 SWAP1 SLOAD SWAP1 PUSH2 0x100 EXP SWAP1 DIV PUSH2 0xFFFF AND PUSH2 0xFFFF AND PUSH2 0xFFFF AND DUP2 MSTORE PUSH1 0x20 ADD SWAP1 DUP2 MSTORE PUSH1 0x20 ADD PUSH1 0x0 KECCAK256 PUSH1 0x6 ADD PUSH1 0x0 SWAP1 SLOAD SWAP1 PUSH2 0x100 EXP SWAP1 DIV PUSH1 0xFF AND PUSH1 0x3 DUP2 GT ISZERO PUSH2 0x3F6 JUMPI PUSH2 0x3F5 PUSH2 0x461E JUMP JUMPDEST JUMPDEST EQ ISZERO PUSH2 0x437 JUMPI PUSH1 0x40 MLOAD PUSH32 0x8C379A000000000000000000000000000000000000000000000000000000000 DUP2 MSTORE PUSH1 0x4 ADD PUSH2 0x42E SWAP1 PUSH2 0x3FB0 JUMP JUMPDEST PUSH1 0x40 MLOAD DUP1 SWAP2 SUB SWAP1 REVERT JUMPDEST PUSH1 0x2 PUSH1 0x0 CALLER PUSH20 0xFFFFFFFFFFFFFFFFFFFFFFFFFFFFFFFFFFFFFFFF AND PUSH20 0xFFFFFFFFFFFFFFFFFFFFFFFFFFFFFFFFFFFFFFFF AND DUP2 MSTORE PUSH1 0x20 ADD SWAP1 DUP2 MSTORE PUSH1 0x20 ADD PUSH1 0x0 KECCAK256 PUSH1 0x0 SWAP1 SLOAD SWAP1 PUSH2 0x100 EXP SWAP1 DIV PUSH1 0xFF AND PUSH2 0x4C3 JUMPI PUSH1 0x40 MLOAD PUSH32 0x8C379A000000000000000000000000000000000000000000000000000000000 DUP2 MSTORE PUSH1 0x4 ADD PUSH2 0x4BA SWAP1 PUSH2 0x3F50 JUMP JUMPDEST PUSH1 0x40 MLOAD DUP1 SWAP2 SUB SWAP1 REVERT JUMPDEST PUSH1 0x0 PUSH1 0x3 PUSH1 0x0 PUSH1 0x1 PUSH1 0x14 SWAP1 SLOAD SWAP1 PUSH2 0x100 EXP SWAP1 DIV PUSH2 0xFFFF AND PUSH2 0xFFFF AND PUSH2 0xFFFF AND DUP2 MSTORE PUSH1 0x20 ADD SWAP1 DUP2 MSTORE PUSH1 0x20 ADD PUSH1 0x0 KECCAK256 PUSH1 0x0 CALLER PUSH20 0xFFFFFFFFFFFFFFFFFFFFFFFFFFFFFFFFFFFFFFFF AND PUSH20 0xFFFFFFFFFFFFFFFFFFFFFFFFFFFFFFFFFFFFFFFF AND DUP2 MSTORE PUSH1 0x20 ADD SWAP1 DUP2 MSTORE PUSH1 0x20 ADD PUSH1 0x0 KECCAK256 PUSH1 0x0 SWAP1 SLOAD SWAP1 PUSH2 0x100 EXP SWAP1 DIV PUSH1 0xFF AND PUSH1 0xFF AND EQ PUSH2 0x57E JUMPI PUSH1 0x40 MLOAD PUSH32 0x8C379A000000000000000000000000000000000000000000000000000000000 DUP2 MSTORE PUSH1 0x4 ADD PUSH2 0x575 SWAP1 PUSH2 0x4070 JUMP JUMPDEST PUSH1 0x40 MLOAD DUP1 SWAP2 SUB SWAP1 REVERT JUMPDEST PUSH1 0x3 DUP1 DUP2 GT ISZERO PUSH2 0x591 JUMPI PUSH2 0x590 PUSH2 0x461E JUMP JUMPDEST JUMPDEST PUSH1 0x4 PUSH1 0x0 PUSH1 0x1 PUSH1 0x14 SWAP1 SLOAD SWAP1 PUSH2 0x100 EXP SWAP1 DIV PUSH2 0xFFFF AND PUSH2 0xFFFF AND PUSH2 0xFFFF AND DUP2 MSTORE PUSH1 0x20 ADD SWAP1 DUP2 MSTORE PUSH1 0x20 ADD PUSH1 0x0 KECCAK256 PUSH1 0x6 ADD PUSH1 0x0 SWAP1 SLOAD SWAP1 PUSH2 0x100 EXP SWAP1 DIV PUSH1 0xFF AND PUSH1 0x3 DUP2 GT ISZERO PUSH2 0x5DF JUMPI PUSH2 0x5DE PUSH2 0x461E JUMP JUMPDEST JUMPDEST EQ PUSH2 0x61F JUMPI PUSH1 0x40 MLOAD PUSH32 0x8C379A000000000000000000000000000000000000000000000000000000000 DUP2 MSTORE PUSH1 0x4 ADD PUSH2 0x616 SWAP1 PUSH2 0x3F70 JUMP JUMPDEST PUSH1 0x40 MLOAD DUP1 SWAP2 SUB SWAP1 REVERT JUMPDEST PUSH1 0x0 PUSH1 0x1 DUP2 GT ISZERO PUSH2 0x633 JUMPI PUSH2 0x632 PUSH2 0x461E JUMP JUMPDEST JUMPDEST DUP2 PUSH1 0x1 DUP2 GT ISZERO PUSH2 0x646 JUMPI PUSH2 0x645 PUSH2 0x461E JUMP JUMPDEST JUMPDEST EQ ISZERO PUSH2 0x73F JUMPI PUSH1 0x1 PUSH1 0x3 PUSH1 0x0 PUSH1 0x1 PUSH1 0x14 SWAP1 SLOAD SWAP1 PUSH2 0x100 EXP SWAP1 DIV PUSH2 0xFFFF AND PUSH2 0xFFFF AND PUSH2 0xFFFF AND DUP2 MSTORE PUSH1 0x20 ADD SWAP1 DUP2 MSTORE PUSH1 0x20 ADD PUSH1 0x0 KECCAK256 PUSH1 0x0 CALLER PUSH20 0xFFFFFFFFFFFFFFFFFFFFFFFFFFFFFFFFFFFFFFFF AND PUSH20 0xFFFFFFFFFFFFFFFFFFFFFFFFFFFFFFFFFFFFFFFF AND DUP2 MSTORE PUSH1 0x20 ADD SWAP1 DUP2 MSTORE PUSH1 0x20 ADD PUSH1 0x0 KECCAK256 PUSH1 0x0 PUSH2 0x100 EXP DUP2 SLOAD DUP2 PUSH1 0xFF MUL NOT AND SWAP1 DUP4 PUSH1 0xFF AND MUL OR SWAP1 SSTORE POP PUSH1 0x1 PUSH1 0x4 PUSH1 0x0 PUSH1 0x1 PUSH1 0x14 SWAP1 SLOAD SWAP1 PUSH2 0x100 EXP SWAP1 DIV PUSH2 0xFFFF AND PUSH2 0xFFFF AND PUSH2 0xFFFF AND DUP2 MSTORE PUSH1 0x20 ADD SWAP1 DUP2 MSTORE PUSH1 0x20 ADD PUSH1 0x0 KECCAK256 PUSH1 0x2 ADD PUSH1 0x4 DUP3 DUP3 DUP3 SWAP1 SLOAD SWAP1 PUSH2 0x100 EXP SWAP1 DIV PUSH4 0xFFFFFFFF AND PUSH2 0x71C SWAP2 SWAP1 PUSH2 0x436D JUMP JUMPDEST SWAP3 POP PUSH2 0x100 EXP DUP2 SLOAD DUP2 PUSH4 0xFFFFFFFF MUL NOT AND SWAP1 DUP4 PUSH4 0xFFFFFFFF AND MUL OR SWAP1 SSTORE POP PUSH2 0x82E JUMP JUMPDEST PUSH1 0xA PUSH1 0x3 PUSH1 0x0 PUSH1 0x1 PUSH1 0x14 SWAP1 SLOAD SWAP1 PUSH2 0x100 EXP SWAP1 DIV PUSH2 0xFFFF AND PUSH2 0xFFFF AND PUSH2 0xFFFF AND DUP2 MSTORE PUSH1 0x20 ADD SWAP1 DUP2 MSTORE PUSH1 0x20 ADD PUSH1 0x0 KECCAK256 PUSH1 0x0 CALLER PUSH20 0xFFFFFFFFFFFFFFFFFFFFFFFFFFFFFFFFFFFFFFFF AND PUSH20 0xFFFFFFFFFFFFFFFFFFFFFFFFFFFFFFFFFFFFFFFF AND DUP2 MSTORE PUSH1 0x20 ADD SWAP1 DUP2 MSTORE PUSH1 0x20 ADD PUSH1 0x0 KECCAK256 PUSH1 0x0 PUSH2 0x100 EXP DUP2 SLOAD DUP2 PUSH1 0xFF MUL NOT AND SWAP1 DUP4 PUSH1 0xFF AND MUL OR SWAP1 SSTORE POP PUSH1 0xA PUSH1 0x4 PUSH1 0x0 PUSH1 0x1 PUSH1 0x14 SWAP1 SLOAD SWAP1 PUSH2 0x100 EXP SWAP1 DIV PUSH2 0xFFFF AND PUSH2 0xFFFF AND PUSH2 0xFFFF AND DUP2 MSTORE PUSH1 0x20 ADD SWAP1 DUP2 MSTORE PUSH1 0x20 ADD PUSH1 0x0 KECCAK256 PUSH1 0x2 ADD PUSH1 0x4 DUP3 DUP3 DUP3 SWAP1 SLOAD SWAP1 PUSH2 0x100 EXP SWAP1 DIV PUSH4 0xFFFFFFFF AND PUSH2 0x80F SWAP2 SWAP1 PUSH2 0x436D JUMP JUMPDEST SWAP3 POP PUSH2 0x100 EXP DUP2 SLOAD DUP2 PUSH4 0xFFFFFFFF MUL NOT AND SWAP1 DUP4 PUSH4 0xFFFFFFFF AND MUL OR SWAP1 SSTORE POP JUMPDEST PUSH1 0x1 PUSH1 0x4 PUSH1 0x0 PUSH1 0x1 PUSH1 0x14 SWAP1 SLOAD SWAP1 PUSH2 0x100 EXP SWAP1 DIV PUSH2 0xFFFF AND PUSH2 0xFFFF AND PUSH2 0xFFFF AND DUP2 MSTORE PUSH1 0x20 ADD SWAP1 DUP2 MSTORE PUSH1 0x20 ADD PUSH1 0x0 KECCAK256 PUSH1 0x2 ADD PUSH1 0x0 DUP3 DUP3 DUP3 SWAP1 SLOAD SWAP1 PUSH2 0x100 EXP SWAP1 DIV PUSH4 0xFFFFFFFF AND PUSH2 0x87C SWAP2 SWAP1 PUSH2 0x436D JUMP JUMPDEST SWAP3 POP PUSH2 0x100 EXP DUP2 SLOAD DUP2 PUSH4 0xFFFFFFFF MUL NOT AND SWAP1 DUP4 PUSH4 0xFFFFFFFF AND MUL OR SWAP1 SSTORE POP POP JUMP JUMPDEST PUSH1 0x60 PUSH1 0x0 DUP3 PUSH1 0xFF AND PUSH8 0xFFFFFFFFFFFFFFFF DUP2 GT ISZERO PUSH2 0x8BE JUMPI PUSH2 0x8BD PUSH2 0x46AB JUMP JUMPDEST JUMPDEST PUSH1 0x40 MLOAD SWAP1 DUP1 DUP3 MSTORE DUP1 PUSH1 0x20 MUL PUSH1 0x20 ADD DUP3 ADD PUSH1 0x40 MSTORE DUP1 ISZERO PUSH2 0x8F7 JUMPI DUP2 PUSH1 0x20 ADD JUMPDEST PUSH2 0x8E4 PUSH2 0x34E7 JUMP JUMPDEST DUP2 MSTORE PUSH1 0x20 ADD SWAP1 PUSH1 0x1 SWAP1 SUB SWAP1 DUP2 PUSH2 0x8DC JUMPI SWAP1 POP JUMPDEST POP SWAP1 POP PUSH1 0x0 PUSH1 0x1 PUSH1 0x14 SWAP1 SLOAD SWAP1 PUSH2 0x100 EXP SWAP1 DIV PUSH2 0xFFFF AND SWAP1 POP PUSH1 0x1 DUP5 PUSH2 0x91C SWAP2 SWAP1 PUSH2 0x4454 JUMP JUMPDEST PUSH1 0xFF AND DUP2 PUSH2 0xFFFF AND GT ISZERO PUSH2 0xDC8 JUMPI PUSH1 0x0 PUSH1 0x4 PUSH1 0x0 DUP4 PUSH2 0xFFFF AND PUSH2 0xFFFF AND DUP2 MSTORE PUSH1 0x20 ADD SWAP1 DUP2 MSTORE PUSH1 0x20 ADD PUSH1 0x0 KECCAK256 PUSH1 0x1 ADD DUP1 SLOAD PUSH2 0x955 SWAP1 PUSH2 0x4562 JUMP JUMPDEST SWAP1 POP GT ISZERO PUSH2 0xB8A JUMPI PUSH1 0x0 JUMPDEST DUP5 PUSH1 0xFF AND DUP2 PUSH1 0xFF AND LT ISZERO PUSH2 0xB84 JUMPI PUSH1 0x4 PUSH1 0x0 DUP3 PUSH1 0xFF AND DUP5 PUSH2 0x981 SWAP2 SWAP1 PUSH2 0x4420 JUMP JUMPDEST PUSH2 0xFFFF AND PUSH2 0xFFFF AND DUP2 MSTORE PUSH1 0x20 ADD SWAP1 DUP2 MSTORE PUSH1 0x20 ADD PUSH1 0x0 KECCAK256 PUSH1 0x40 MLOAD DUP1 PUSH2 0x120 ADD PUSH1 0x40 MSTORE SWAP1 DUP2 PUSH1 0x0 DUP3 ADD PUSH1 0x0 SWAP1 SLOAD SWAP1 PUSH2 0x100 EXP SWAP1 DIV PUSH2 0xFFFF AND PUSH2 0xFFFF AND PUSH2 0xFFFF AND DUP2 MSTORE PUSH1 0x20 ADD PUSH1 0x1 DUP3 ADD DUP1 SLOAD PUSH2 0x9D3 SWAP1 PUSH2 0x4562 JUMP JUMPDEST DUP1 PUSH1 0x1F ADD PUSH1 0x20 DUP1 SWAP2 DIV MUL PUSH1 0x20 ADD PUSH1 0x40 MLOAD SWAP1 DUP2 ADD PUSH1 0x40 MSTORE DUP1 SWAP3 SWAP2 SWAP1 DUP2 DUP2 MSTORE PUSH1 0x20 ADD DUP3 DUP1 SLOAD PUSH2 0x9FF SWAP1 PUSH2 0x4562 JUMP JUMPDEST DUP1 ISZERO PUSH2 0xA4C JUMPI DUP1 PUSH1 0x1F LT PUSH2 0xA21 JUMPI PUSH2 0x100 DUP1 DUP4 SLOAD DIV MUL DUP4 MSTORE SWAP2 PUSH1 0x20 ADD SWAP2 PUSH2 0xA4C JUMP JUMPDEST DUP3 ADD SWAP2 SWAP1 PUSH1 0x0 MSTORE PUSH1 0x20 PUSH1 0x0 KECCAK256 SWAP1 JUMPDEST DUP2 SLOAD DUP2 MSTORE SWAP1 PUSH1 0x1 ADD SWAP1 PUSH1 0x20 ADD DUP1 DUP4 GT PUSH2 0xA2F JUMPI DUP3 SWAP1 SUB PUSH1 0x1F AND DUP3 ADD SWAP2 JUMPDEST POP POP POP POP POP DUP2 MSTORE PUSH1 0x20 ADD PUSH1 0x2 DUP3 ADD PUSH1 0x0 SWAP1 SLOAD SWAP1 PUSH2 0x100 EXP SWAP1 DIV PUSH4 0xFFFFFFFF AND PUSH4 0xFFFFFFFF AND PUSH4 0xFFFFFFFF AND DUP2 MSTORE PUSH1 0x20 ADD PUSH1 0x2 DUP3 ADD PUSH1 0x4 SWAP1 SLOAD SWAP1 PUSH2 0x100 EXP SWAP1 DIV PUSH4 0xFFFFFFFF AND PUSH4 0xFFFFFFFF AND PUSH4 0xFFFFFFFF AND DUP2 MSTORE PUSH1 0x20 ADD PUSH1 0x2 DUP3 ADD PUSH1 0x8 SWAP1 SLOAD SWAP1 PUSH2 0x100 EXP SWAP1 DIV PUSH20 0xFFFFFFFFFFFFFFFFFFFFFFFFFFFFFFFFFFFFFFFF AND PUSH20 0xFFFFFFFFFFFFFFFFFFFFFFFFFFFFFFFFFFFFFFFF AND PUSH20 0xFFFFFFFFFFFFFFFFFFFFFFFFFFFFFFFFFFFFFFFF AND DUP2 MSTORE PUSH1 0x20 ADD PUSH1 0x3 DUP3 ADD SLOAD DUP2 MSTORE PUSH1 0x20 ADD PUSH1 0x4 DUP3 ADD SLOAD DUP2 MSTORE PUSH1 0x20 ADD PUSH1 0x5 DUP3 ADD SLOAD DUP2 MSTORE PUSH1 0x20 ADD PUSH1 0x6 DUP3 ADD PUSH1 0x0 SWAP1 SLOAD SWAP1 PUSH2 0x100 EXP SWAP1 DIV PUSH1 0xFF AND PUSH1 0x3 DUP2 GT ISZERO PUSH2 0xB3A JUMPI PUSH2 0xB39 PUSH2 0x461E JUMP JUMPDEST JUMPDEST PUSH1 0x3 DUP2 GT ISZERO PUSH2 0xB4C JUMPI PUSH2 0xB4B PUSH2 0x461E JUMP JUMPDEST JUMPDEST DUP2 MSTORE POP POP DUP4 DUP3 PUSH1 0xFF AND DUP2 MLOAD DUP2 LT PUSH2 0xB66 JUMPI PUSH2 0xB65 PUSH2 0x467C JUMP JUMPDEST JUMPDEST PUSH1 0x20 MUL PUSH1 0x20 ADD ADD DUP2 SWAP1 MSTORE POP DUP1 DUP1 PUSH2 0xB7C SWAP1 PUSH2 0x45C5 JUMP JUMPDEST SWAP2 POP POP PUSH2 0x960 JUMP JUMPDEST POP PUSH2 0xDC3 JUMP JUMPDEST PUSH1 0x0 PUSH1 0x1 SWAP1 POP JUMPDEST DUP5 PUSH1 0xFF AND DUP2 PUSH1 0xFF AND LT ISZERO PUSH2 0xDC1 JUMPI PUSH1 0x4 PUSH1 0x0 DUP3 PUSH1 0xFF AND DUP5 PUSH2 0xBB2 SWAP2 SWAP1 PUSH2 0x4420 JUMP JUMPDEST PUSH2 0xFFFF AND PUSH2 0xFFFF AND DUP2 MSTORE PUSH1 0x20 ADD SWAP1 DUP2 MSTORE PUSH1 0x20 ADD PUSH1 0x0 KECCAK256 PUSH1 0x40 MLOAD DUP1 PUSH2 0x120 ADD PUSH1 0x40 MSTORE SWAP1 DUP2 PUSH1 0x0 DUP3 ADD PUSH1 0x0 SWAP1 SLOAD SWAP1 PUSH2 0x100 EXP SWAP1 DIV PUSH2 0xFFFF AND PUSH2 0xFFFF AND PUSH2 0xFFFF AND DUP2 MSTORE PUSH1 0x20 ADD PUSH1 0x1 DUP3 ADD DUP1 SLOAD PUSH2 0xC04 SWAP1 PUSH2 0x4562 JUMP JUMPDEST DUP1 PUSH1 0x1F ADD PUSH1 0x20 DUP1 SWAP2 DIV MUL PUSH1 0x20 ADD PUSH1 0x40 MLOAD SWAP1 DUP2 ADD PUSH1 0x40 MSTORE DUP1 SWAP3 SWAP2 SWAP1 DUP2 DUP2 MSTORE PUSH1 0x20 ADD DUP3 DUP1 SLOAD PUSH2 0xC30 SWAP1 PUSH2 0x4562 JUMP JUMPDEST DUP1 ISZERO PUSH2 0xC7D JUMPI DUP1 PUSH1 0x1F LT PUSH2 0xC52 JUMPI PUSH2 0x100 DUP1 DUP4 SLOAD DIV MUL DUP4 MSTORE SWAP2 PUSH1 0x20 ADD SWAP2 PUSH2 0xC7D JUMP JUMPDEST DUP3 ADD SWAP2 SWAP1 PUSH1 0x0 MSTORE PUSH1 0x20 PUSH1 0x0 KECCAK256 SWAP1 JUMPDEST DUP2 SLOAD DUP2 MSTORE SWAP1 PUSH1 0x1 ADD SWAP1 PUSH1 0x20 ADD DUP1 DUP4 GT PUSH2 0xC60 JUMPI DUP3 SWAP1 SUB PUSH1 0x1F AND DUP3 ADD SWAP2 JUMPDEST POP POP POP POP POP DUP2 MSTORE PUSH1 0x20 ADD PUSH1 0x2 DUP3 ADD PUSH1 0x0 SWAP1 SLOAD SWAP1 PUSH2 0x100 EXP SWAP1 DIV PUSH4 0xFFFFFFFF AND PUSH4 0xFFFFFFFF AND PUSH4 0xFFFFFFFF AND DUP2 MSTORE PUSH1 0x20 ADD PUSH1 0x2 DUP3 ADD PUSH1 0x4 SWAP1 SLOAD SWAP1 PUSH2 0x100 EXP SWAP1 DIV PUSH4 0xFFFFFFFF AND PUSH4 0xFFFFFFFF AND PUSH4 0xFFFFFFFF AND DUP2 MSTORE PUSH1 0x20 ADD PUSH1 0x2 DUP3 ADD PUSH1 0x8 SWAP1 SLOAD SWAP1 PUSH2 0x100 EXP SWAP1 DIV PUSH20 0xFFFFFFFFFFFFFFFFFFFFFFFFFFFFFFFFFFFFFFFF AND PUSH20 0xFFFFFFFFFFFFFFFFFFFFFFFFFFFFFFFFFFFFFFFF AND PUSH20 0xFFFFFFFFFFFFFFFFFFFFFFFFFFFFFFFFFFFFFFFF AND DUP2 MSTORE PUSH1 0x20 ADD PUSH1 0x3 DUP3 ADD SLOAD DUP2 MSTORE PUSH1 0x20 ADD PUSH1 0x4 DUP3 ADD SLOAD DUP2 MSTORE PUSH1 0x20 ADD PUSH1 0x5 DUP3 ADD SLOAD DUP2 MSTORE PUSH1 0x20 ADD PUSH1 0x6 DUP3 ADD PUSH1 0x0 SWAP1 SLOAD SWAP1 PUSH2 0x100 EXP SWAP1 DIV PUSH1 0xFF AND PUSH1 0x3 DUP2 GT ISZERO PUSH2 0xD6B JUMPI PUSH2 0xD6A PUSH2 0x461E JUMP JUMPDEST JUMPDEST PUSH1 0x3 DUP2 GT ISZERO PUSH2 0xD7D JUMPI PUSH2 0xD7C PUSH2 0x461E JUMP JUMPDEST JUMPDEST DUP2 MSTORE POP POP DUP4 PUSH1 0x1 DUP4 PUSH2 0xD8F SWAP2 SWAP1 PUSH2 0x4454 JUMP JUMPDEST PUSH1 0xFF AND DUP2 MLOAD DUP2 LT PUSH2 0xDA3 JUMPI PUSH2 0xDA2 PUSH2 0x467C JUMP JUMPDEST JUMPDEST PUSH1 0x20 MUL PUSH1 0x20 ADD ADD DUP2 SWAP1 MSTORE POP DUP1 DUP1 PUSH2 0xDB9 SWAP1 PUSH2 0x45C5 JUMP JUMPDEST SWAP2 POP POP PUSH2 0xB91 JUMP JUMPDEST POP JUMPDEST PUSH2 0x1262 JUMP JUMPDEST PUSH1 0x0 PUSH1 0x4 PUSH1 0x0 DUP4 PUSH2 0xFFFF AND PUSH2 0xFFFF AND DUP2 MSTORE PUSH1 0x20 ADD SWAP1 DUP2 MSTORE PUSH1 0x20 ADD PUSH1 0x0 KECCAK256 PUSH1 0x1 ADD DUP1 SLOAD PUSH2 0xDF3 SWAP1 PUSH2 0x4562 JUMP JUMPDEST SWAP1 POP GT ISZERO PUSH2 0x1028 JUMPI PUSH1 0x0 JUMPDEST DUP2 PUSH2 0xFFFF AND DUP2 PUSH1 0xFF AND GT PUSH2 0x1022 JUMPI PUSH1 0x4 PUSH1 0x0 DUP3 PUSH1 0xFF AND DUP5 PUSH2 0xE1F SWAP2 SWAP1 PUSH2 0x4420 JUMP JUMPDEST PUSH2 0xFFFF AND PUSH2 0xFFFF AND DUP2 MSTORE PUSH1 0x20 ADD SWAP1 DUP2 MSTORE PUSH1 0x20 ADD PUSH1 0x0 KECCAK256 PUSH1 0x40 MLOAD DUP1 PUSH2 0x120 ADD PUSH1 0x40 MSTORE SWAP1 DUP2 PUSH1 0x0 DUP3 ADD PUSH1 0x0 SWAP1 SLOAD SWAP1 PUSH2 0x100 EXP SWAP1 DIV PUSH2 0xFFFF AND PUSH2 0xFFFF AND PUSH2 0xFFFF AND DUP2 MSTORE PUSH1 0x20 ADD PUSH1 0x1 DUP3 ADD DUP1 SLOAD PUSH2 0xE71 SWAP1 PUSH2 0x4562 JUMP JUMPDEST DUP1 PUSH1 0x1F ADD PUSH1 0x20 DUP1 SWAP2 DIV MUL PUSH1 0x20 ADD PUSH1 0x40 MLOAD SWAP1 DUP2 ADD PUSH1 0x40 MSTORE DUP1 SWAP3 SWAP2 SWAP1 DUP2 DUP2 MSTORE PUSH1 0x20 ADD DUP3 DUP1 SLOAD PUSH2 0xE9D SWAP1 PUSH2 0x4562 JUMP JUMPDEST DUP1 ISZERO PUSH2 0xEEA JUMPI DUP1 PUSH1 0x1F LT PUSH2 0xEBF JUMPI PUSH2 0x100 DUP1 DUP4 SLOAD DIV MUL DUP4 MSTORE SWAP2 PUSH1 0x20 ADD SWAP2 PUSH2 0xEEA JUMP JUMPDEST DUP3 ADD SWAP2 SWAP1 PUSH1 0x0 MSTORE PUSH1 0x20 PUSH1 0x0 KECCAK256 SWAP1 JUMPDEST DUP2 SLOAD DUP2 MSTORE SWAP1 PUSH1 0x1 ADD SWAP1 PUSH1 0x20 ADD DUP1 DUP4 GT PUSH2 0xECD JUMPI DUP3 SWAP1 SUB PUSH1 0x1F AND DUP3 ADD SWAP2 JUMPDEST POP POP POP POP POP DUP2 MSTORE PUSH1 0x20 ADD PUSH1 0x2 DUP3 ADD PUSH1 0x0 SWAP1 SLOAD SWAP1 PUSH2 0x100 EXP SWAP1 DIV PUSH4 0xFFFFFFFF AND PUSH4 0xFFFFFFFF AND PUSH4 0xFFFFFFFF AND DUP2 MSTORE PUSH1 0x20 ADD PUSH1 0x2 DUP3 ADD PUSH1 0x4 SWAP1 SLOAD SWAP1 PUSH2 0x100 EXP SWAP1 DIV PUSH4 0xFFFFFFFF AND PUSH4 0xFFFFFFFF AND PUSH4 0xFFFFFFFF AND DUP2 MSTORE PUSH1 0x20 ADD PUSH1 0x2 DUP3 ADD PUSH1 0x8 SWAP1 SLOAD SWAP1 PUSH2 0x100 EXP SWAP1 DIV PUSH20 0xFFFFFFFFFFFFFFFFFFFFFFFFFFFFFFFFFFFFFFFF AND PUSH20 0xFFFFFFFFFFFFFFFFFFFFFFFFFFFFFFFFFFFFFFFF AND PUSH20 0xFFFFFFFFFFFFFFFFFFFFFFFFFFFFFFFFFFFFFFFF AND DUP2 MSTORE PUSH1 0x20 ADD PUSH1 0x3 DUP3 ADD SLOAD DUP2 MSTORE PUSH1 0x20 ADD PUSH1 0x4 DUP3 ADD SLOAD DUP2 MSTORE PUSH1 0x20 ADD PUSH1 0x5 DUP3 ADD SLOAD DUP2 MSTORE PUSH1 0x20 ADD PUSH1 0x6 DUP3 ADD PUSH1 0x0 SWAP1 SLOAD SWAP1 PUSH2 0x100 EXP SWAP1 DIV PUSH1 0xFF AND PUSH1 0x3 DUP2 GT ISZERO PUSH2 0xFD8 JUMPI PUSH2 0xFD7 PUSH2 0x461E JUMP JUMPDEST JUMPDEST PUSH1 0x3 DUP2 GT ISZERO PUSH2 0xFEA JUMPI PUSH2 0xFE9 PUSH2 0x461E JUMP JUMPDEST JUMPDEST DUP2 MSTORE POP POP DUP4 DUP3 PUSH1 0xFF AND DUP2 MLOAD DUP2 LT PUSH2 0x1004 JUMPI PUSH2 0x1003 PUSH2 0x467C JUMP JUMPDEST JUMPDEST PUSH1 0x20 MUL PUSH1 0x20 ADD ADD DUP2 SWAP1 MSTORE POP DUP1 DUP1 PUSH2 0x101A SWAP1 PUSH2 0x45C5 JUMP JUMPDEST SWAP2 POP POP PUSH2 0xDFE JUMP JUMPDEST POP PUSH2 0x1261 JUMP JUMPDEST PUSH1 0x0 PUSH1 0x1 SWAP1 POP JUMPDEST DUP2 PUSH2 0xFFFF AND DUP2 PUSH1 0xFF AND GT PUSH2 0x125F JUMPI PUSH1 0x4 PUSH1 0x0 DUP3 PUSH1 0xFF AND DUP5 PUSH2 0x1050 SWAP2 SWAP1 PUSH2 0x4420 JUMP JUMPDEST PUSH2 0xFFFF AND PUSH2 0xFFFF AND DUP2 MSTORE PUSH1 0x20 ADD SWAP1 DUP2 MSTORE PUSH1 0x20 ADD PUSH1 0x0 KECCAK256 PUSH1 0x40 MLOAD DUP1 PUSH2 0x120 ADD PUSH1 0x40 MSTORE SWAP1 DUP2 PUSH1 0x0 DUP3 ADD PUSH1 0x0 SWAP1 SLOAD SWAP1 PUSH2 0x100 EXP SWAP1 DIV PUSH2 0xFFFF AND PUSH2 0xFFFF AND PUSH2 0xFFFF AND DUP2 MSTORE PUSH1 0x20 ADD PUSH1 0x1 DUP3 ADD DUP1 SLOAD PUSH2 0x10A2 SWAP1 PUSH2 0x4562 JUMP JUMPDEST DUP1 PUSH1 0x1F ADD PUSH1 0x20 DUP1 SWAP2 DIV MUL PUSH1 0x20 ADD PUSH1 0x40 MLOAD SWAP1 DUP2 ADD PUSH1 0x40 MSTORE DUP1 SWAP3 SWAP2 SWAP1 DUP2 DUP2 MSTORE PUSH1 0x20 ADD DUP3 DUP1 SLOAD PUSH2 0x10CE SWAP1 PUSH2 0x4562 JUMP JUMPDEST DUP1 ISZERO PUSH2 0x111B JUMPI DUP1 PUSH1 0x1F LT PUSH2 0x10F0 JUMPI PUSH2 0x100 DUP1 DUP4 SLOAD DIV MUL DUP4 MSTORE SWAP2 PUSH1 0x20 ADD SWAP2 PUSH2 0x111B JUMP JUMPDEST DUP3 ADD SWAP2 SWAP1 PUSH1 0x0 MSTORE PUSH1 0x20 PUSH1 0x0 KECCAK256 SWAP1 JUMPDEST DUP2 SLOAD DUP2 MSTORE SWAP1 PUSH1 0x1 ADD SWAP1 PUSH1 0x20 ADD DUP1 DUP4 GT PUSH2 0x10FE JUMPI DUP3 SWAP1 SUB PUSH1 0x1F AND DUP3 ADD SWAP2 JUMPDEST POP POP POP POP POP DUP2 MSTORE PUSH1 0x20 ADD PUSH1 0x2 DUP3 ADD PUSH1 0x0 SWAP1 SLOAD SWAP1 PUSH2 0x100 EXP SWAP1 DIV PUSH4 0xFFFFFFFF AND PUSH4 0xFFFFFFFF AND PUSH4 0xFFFFFFFF AND DUP2 MSTORE PUSH1 0x20 ADD PUSH1 0x2 DUP3 ADD PUSH1 0x4 SWAP1 SLOAD SWAP1 PUSH2 0x100 EXP SWAP1 DIV PUSH4 0xFFFFFFFF AND PUSH4 0xFFFFFFFF AND PUSH4 0xFFFFFFFF AND DUP2 MSTORE PUSH1 0x20 ADD PUSH1 0x2 DUP3 ADD PUSH1 0x8 SWAP1 SLOAD SWAP1 PUSH2 0x100 EXP SWAP1 DIV PUSH20 0xFFFFFFFFFFFFFFFFFFFFFFFFFFFFFFFFFFFFFFFF AND PUSH20 0xFFFFFFFFFFFFFFFFFFFFFFFFFFFFFFFFFFFFFFFF AND PUSH20 0xFFFFFFFFFFFFFFFFFFFFFFFFFFFFFFFFFFFFFFFF AND DUP2 MSTORE PUSH1 0x20 ADD PUSH1 0x3 DUP3 ADD SLOAD DUP2 MSTORE PUSH1 0x20 ADD PUSH1 0x4 DUP3 ADD SLOAD DUP2 MSTORE PUSH1 0x20 ADD PUSH1 0x5 DUP3 ADD SLOAD DUP2 MSTORE PUSH1 0x20 ADD PUSH1 0x6 DUP3 ADD PUSH1 0x0 SWAP1 SLOAD SWAP1 PUSH2 0x100 EXP SWAP1 DIV PUSH1 0xFF AND PUSH1 0x3 DUP2 GT ISZERO PUSH2 0x1209 JUMPI PUSH2 0x1208 PUSH2 0x461E JUMP JUMPDEST JUMPDEST PUSH1 0x3 DUP2 GT ISZERO PUSH2 0x121B JUMPI PUSH2 0x121A PUSH2 0x461E JUMP JUMPDEST JUMPDEST DUP2 MSTORE POP POP DUP4 PUSH1 0x1 DUP4 PUSH2 0x122D SWAP2 SWAP1 PUSH2 0x4454 JUMP JUMPDEST PUSH1 0xFF AND DUP2 MLOAD DUP2 LT PUSH2 0x1241 JUMPI PUSH2 0x1240 PUSH2 0x467C JUMP JUMPDEST JUMPDEST PUSH1 0x20 MUL PUSH1 0x20 ADD ADD DUP2 SWAP1 MSTORE POP DUP1 DUP1 PUSH2 0x1257 SWAP1 PUSH2 0x45C5 JUMP JUMPDEST SWAP2 POP POP PUSH2 0x102F JUMP JUMPDEST POP JUMPDEST JUMPDEST DUP2 SWAP3 POP POP POP SWAP2 SWAP1 POP JUMP JUMPDEST PUSH1 0x1 PUSH1 0x0 SWAP1 SLOAD SWAP1 PUSH2 0x100 EXP SWAP1 DIV PUSH20 0xFFFFFFFFFFFFFFFFFFFFFFFFFFFFFFFFFFFFFFFF AND DUP2 JUMP JUMPDEST CALLER PUSH1 0x2 PUSH1 0x0 DUP3 PUSH20 0xFFFFFFFFFFFFFFFFFFFFFFFFFFFFFFFFFFFFFFFF AND PUSH20 0xFFFFFFFFFFFFFFFFFFFFFFFFFFFFFFFFFFFFFFFF AND DUP2 MSTORE PUSH1 0x20 ADD SWAP1 DUP2 MSTORE PUSH1 0x20 ADD PUSH1 0x0 KECCAK256 PUSH1 0x0 SWAP1 SLOAD SWAP1 PUSH2 0x100 EXP SWAP1 DIV PUSH1 0xFF AND PUSH2 0x131F JUMPI PUSH1 0x40 MLOAD PUSH32 0x8C379A000000000000000000000000000000000000000000000000000000000 DUP2 MSTORE PUSH1 0x4 ADD PUSH2 0x1316 SWAP1 PUSH2 0x40F0 JUMP JUMPDEST PUSH1 0x40 MLOAD DUP1 SWAP2 SUB SWAP1 REVERT JUMPDEST PUSH1 0x3 DUP1 DUP2 GT ISZERO PUSH2 0x1332 JUMPI PUSH2 0x1331 PUSH2 0x461E JUMP JUMPDEST JUMPDEST PUSH1 0x4 PUSH1 0x0 PUSH1 0x1 PUSH1 0x14 SWAP1 SLOAD SWAP1 PUSH2 0x100 EXP SWAP1 DIV PUSH2 0xFFFF AND PUSH2 0xFFFF AND PUSH2 0xFFFF AND DUP2 MSTORE PUSH1 0x20 ADD SWAP1 DUP2 MSTORE PUSH1 0x20 ADD PUSH1 0x0 KECCAK256 PUSH1 0x6 ADD PUSH1 0x0 SWAP1 SLOAD SWAP1 PUSH2 0x100 EXP SWAP1 DIV PUSH1 0xFF AND PUSH1 0x3 DUP2 GT ISZERO PUSH2 0x1380 JUMPI PUSH2 0x137F PUSH2 0x461E JUMP JUMPDEST JUMPDEST EQ PUSH2 0x13C0 JUMPI PUSH1 0x40 MLOAD PUSH32 0x8C379A000000000000000000000000000000000000000000000000000000000 DUP2 MSTORE PUSH1 0x4 ADD PUSH2 0x13B7 SWAP1 PUSH2 0x4050 JUMP JUMPDEST PUSH1 0x40 MLOAD DUP1 SWAP2 SUB SWAP1 REVERT JUMPDEST PUSH1 0x4 PUSH1 0x0 PUSH1 0x1 PUSH1 0x14 SWAP1 SLOAD SWAP1 PUSH2 0x100 EXP SWAP1 DIV PUSH2 0xFFFF AND PUSH2 0xFFFF AND PUSH2 0xFFFF AND DUP2 MSTORE PUSH1 0x20 ADD SWAP1 DUP2 MSTORE PUSH1 0x20 ADD PUSH1 0x0 KECCAK256 PUSH1 0x4 ADD SLOAD NUMBER LT ISZERO PUSH2 0x1431 JUMPI PUSH1 0x40 MLOAD PUSH32 0x8C379A000000000000000000000000000000000000000000000000000000000 DUP2 MSTORE PUSH1 0x4 ADD PUSH2 0x1428 SWAP1 PUSH2 0x40D0 JUMP JUMPDEST PUSH1 0x40 MLOAD DUP1 SWAP2 SUB SWAP1 REVERT JUMPDEST PUSH1 0x0 PUSH1 0x4 PUSH1 0x0 PUSH1 0x1 PUSH1 0x14 SWAP1 SLOAD SWAP1 PUSH2 0x100 EXP SWAP1 DIV PUSH2 0xFFFF AND PUSH2 0xFFFF AND PUSH2 0xFFFF AND DUP2 MSTORE PUSH1 0x20 ADD SWAP1 DUP2 MSTORE PUSH1 0x20 ADD PUSH1 0x0 KECCAK256 PUSH1 0x6 ADD PUSH1 0x0 PUSH2 0x100 EXP DUP2 SLOAD DUP2 PUSH1 0xFF MUL NOT AND SWAP1 DUP4 PUSH1 0x3 DUP2 GT ISZERO PUSH2 0x1483 JUMPI PUSH2 0x1482 PUSH2 0x461E JUMP JUMPDEST JUMPDEST MUL OR SWAP1 SSTORE POP NUMBER PUSH1 0x4 PUSH1 0x0 PUSH1 0x1 PUSH1 0x14 SWAP1 SLOAD SWAP1 PUSH2 0x100 EXP SWAP1 DIV PUSH2 0xFFFF AND PUSH2 0xFFFF AND PUSH2 0xFFFF AND DUP2 MSTORE PUSH1 0x20 ADD SWAP1 DUP2 MSTORE PUSH1 0x20 ADD PUSH1 0x0 KECCAK256 PUSH1 0x5 ADD DUP2 SWAP1 SSTORE POP PUSH1 0x1 PUSH1 0x14 SWAP1 SLOAD SWAP1 PUSH2 0x100 EXP SWAP1 DIV PUSH2 0xFFFF AND PUSH2 0xFFFF AND PUSH32 0x21F11808C72D44E34F2CFC1D94EF62FF26B8EB58BDD2DB3CEE65CC447FD3B79 PUSH1 0x4 PUSH1 0x0 PUSH1 0x1 PUSH1 0x14 SWAP1 SLOAD SWAP1 PUSH2 0x100 EXP SWAP1 DIV PUSH2 0xFFFF AND PUSH2 0xFFFF AND PUSH2 0xFFFF AND DUP2 MSTORE PUSH1 0x20 ADD SWAP1 DUP2 MSTORE PUSH1 0x20 ADD PUSH1 0x0 KECCAK256 PUSH1 0x2 ADD PUSH1 0x0 SWAP1 SLOAD SWAP1 PUSH2 0x100 EXP SWAP1 DIV PUSH4 0xFFFFFFFF AND PUSH1 0x4 PUSH1 0x0 PUSH1 0x1 PUSH1 0x14 SWAP1 SLOAD SWAP1 PUSH2 0x100 EXP SWAP1 DIV PUSH2 0xFFFF AND PUSH2 0xFFFF AND PUSH2 0xFFFF AND DUP2 MSTORE PUSH1 0x20 ADD SWAP1 DUP2 MSTORE PUSH1 0x20 ADD PUSH1 0x0 KECCAK256 PUSH1 0x2 ADD PUSH1 0x4 SWAP1 SLOAD SWAP1 PUSH2 0x100 EXP SWAP1 DIV PUSH4 0xFFFFFFFF AND PUSH1 0x40 MLOAD PUSH2 0x157D SWAP3 SWAP2 SWAP1 PUSH2 0x41BF JUMP JUMPDEST PUSH1 0x40 MLOAD DUP1 SWAP2 SUB SWAP1 LOG2 PUSH1 0x1 DUP1 PUSH1 0x14 DUP3 DUP3 DUP3 SWAP1 SLOAD SWAP1 PUSH2 0x100 EXP SWAP1 DIV PUSH2 0xFFFF AND PUSH2 0x15A4 SWAP2 SWAP1 PUSH2 0x42DF JUMP JUMPDEST SWAP3 POP PUSH2 0x100 EXP DUP2 SLOAD DUP2 PUSH2 0xFFFF MUL NOT AND SWAP1 DUP4 PUSH2 0xFFFF AND MUL OR SWAP1 SSTORE POP PUSH1 0x5 PUSH1 0x0 SWAP1 SLOAD SWAP1 PUSH2 0x100 EXP SWAP1 DIV PUSH2 0xFFFF AND PUSH2 0xFFFF AND PUSH1 0x2 PUSH1 0x4 PUSH1 0x0 PUSH1 0x1 DUP1 PUSH1 0x14 SWAP1 SLOAD SWAP1 PUSH2 0x100 EXP SWAP1 DIV PUSH2 0xFFFF AND PUSH2 0x15F5 SWAP2 SWAP1 PUSH2 0x4420 JUMP JUMPDEST PUSH2 0xFFFF AND PUSH2 0xFFFF AND DUP2 MSTORE PUSH1 0x20 ADD SWAP1 DUP2 MSTORE PUSH1 0x20 ADD PUSH1 0x0 KECCAK256 PUSH1 0x2 ADD PUSH1 0x4 SWAP1 SLOAD SWAP1 PUSH2 0x100 EXP SWAP1 DIV PUSH4 0xFFFFFFFF AND PUSH2 0x1629 SWAP2 SWAP1 PUSH2 0x43A7 JUMP JUMPDEST PUSH4 0xFFFFFFFF AND LT PUSH2 0x1A2D JUMPI PUSH1 0x1 PUSH1 0x14 SWAP1 SLOAD SWAP1 PUSH2 0x100 EXP SWAP1 DIV PUSH2 0xFFFF AND PUSH1 0x4 PUSH1 0x0 PUSH1 0x1 PUSH1 0x14 SWAP1 SLOAD SWAP1 PUSH2 0x100 EXP SWAP1 DIV PUSH2 0xFFFF AND PUSH2 0xFFFF AND PUSH2 0xFFFF AND DUP2 MSTORE PUSH1 0x20 ADD SWAP1 DUP2 MSTORE PUSH1 0x20 ADD PUSH1 0x0 KECCAK256 PUSH1 0x0 ADD PUSH1 0x0 PUSH2 0x100 EXP DUP2 SLOAD DUP2 PUSH2 0xFFFF MUL NOT AND SWAP1 DUP4 PUSH2 0xFFFF AND MUL OR SWAP1 SSTORE POP PUSH1 0x4 PUSH1 0x0 PUSH1 0x1 DUP1 PUSH1 0x14 SWAP1 SLOAD SWAP1 PUSH2 0x100 EXP SWAP1 DIV PUSH2 0xFFFF AND PUSH2 0x16AD SWAP2 SWAP1 PUSH2 0x4420 JUMP JUMPDEST PUSH2 0xFFFF AND PUSH2 0xFFFF AND DUP2 MSTORE PUSH1 0x20 ADD SWAP1 DUP2 MSTORE PUSH1 0x20 ADD PUSH1 0x0 KECCAK256 PUSH1 0x2 ADD PUSH1 0x8 SWAP1 SLOAD SWAP1 PUSH2 0x100 EXP SWAP1 DIV PUSH20 0xFFFFFFFFFFFFFFFFFFFFFFFFFFFFFFFFFFFFFFFF AND PUSH1 0x4 PUSH1 0x0 PUSH1 0x1 PUSH1 0x14 SWAP1 SLOAD SWAP1 PUSH2 0x100 EXP SWAP1 DIV PUSH2 0xFFFF AND PUSH2 0xFFFF AND PUSH2 0xFFFF AND DUP2 MSTORE PUSH1 0x20 ADD SWAP1 DUP2 MSTORE PUSH1 0x20 ADD PUSH1 0x0 KECCAK256 PUSH1 0x2 ADD PUSH1 0x8 PUSH2 0x100 EXP DUP2 SLOAD DUP2 PUSH20 0xFFFFFFFFFFFFFFFFFFFFFFFFFFFFFFFFFFFFFFFF MUL NOT AND SWAP1 DUP4 PUSH20 0xFFFFFFFFFFFFFFFFFFFFFFFFFFFFFFFFFFFFFFFF AND MUL OR SWAP1 SSTORE POP PUSH1 0x4 PUSH1 0x0 PUSH1 0x1 DUP1 PUSH1 0x14 SWAP1 SLOAD SWAP1 PUSH2 0x100 EXP SWAP1 DIV PUSH2 0xFFFF AND PUSH2 0x1773 SWAP2 SWAP1 PUSH2 0x4420 JUMP JUMPDEST PUSH2 0xFFFF AND PUSH2 0xFFFF AND DUP2 MSTORE PUSH1 0x20 ADD SWAP1 DUP2 MSTORE PUSH1 0x20 ADD PUSH1 0x0 KECCAK256 PUSH1 0x1 ADD PUSH1 0x4 PUSH1 0x0 PUSH1 0x1 PUSH1 0x14 SWAP1 SLOAD SWAP1 PUSH2 0x100 EXP SWAP1 DIV PUSH2 0xFFFF AND PUSH2 0xFFFF AND PUSH2 0xFFFF AND DUP2 MSTORE PUSH1 0x20 ADD SWAP1 DUP2 MSTORE PUSH1 0x20 ADD PUSH1 0x0 KECCAK256 PUSH1 0x1 ADD SWAP1 DUP1 SLOAD PUSH2 0x17C6 SWAP1 PUSH2 0x4562 JUMP JUMPDEST PUSH2 0x17D1 SWAP3 SWAP2 SWAP1 PUSH2 0x356B JUMP JUMPDEST POP PUSH1 0x4 PUSH1 0x0 PUSH1 0x1 DUP1 PUSH1 0x14 SWAP1 SLOAD SWAP1 PUSH2 0x100 EXP SWAP1 DIV PUSH2 0xFFFF AND PUSH2 0x17F2 SWAP2 SWAP1 PUSH2 0x4420 JUMP JUMPDEST PUSH2 0xFFFF AND PUSH2 0xFFFF AND DUP2 MSTORE PUSH1 0x20 ADD SWAP1 DUP2 MSTORE PUSH1 0x20 ADD PUSH1 0x0 KECCAK256 PUSH1 0x1 ADD PUSH1 0x40 MLOAD PUSH1 0x20 ADD PUSH2 0x181B SWAP2 SWAP1 PUSH2 0x3ED6 JUMP JUMPDEST PUSH1 0x40 MLOAD PUSH1 0x20 DUP2 DUP4 SUB SUB DUP2 MSTORE SWAP1 PUSH1 0x40 MSTORE PUSH1 0x4 PUSH1 0x0 PUSH1 0x1 DUP1 PUSH1 0x14 SWAP1 SLOAD SWAP1 PUSH2 0x100 EXP SWAP1 DIV PUSH2 0xFFFF AND PUSH2 0x184A SWAP2 SWAP1 PUSH2 0x4420 JUMP JUMPDEST PUSH2 0xFFFF AND PUSH2 0xFFFF AND DUP2 MSTORE PUSH1 0x20 ADD SWAP1 DUP2 MSTORE PUSH1 0x20 ADD PUSH1 0x0 KECCAK256 PUSH1 0x1 ADD SWAP1 DUP1 MLOAD SWAP1 PUSH1 0x20 ADD SWAP1 PUSH2 0x1876 SWAP3 SWAP2 SWAP1 PUSH2 0x35F8 JUMP JUMPDEST POP NUMBER PUSH1 0x4 PUSH1 0x0 PUSH1 0x1 PUSH1 0x14 SWAP1 SLOAD SWAP1 PUSH2 0x100 EXP SWAP1 DIV PUSH2 0xFFFF AND PUSH2 0xFFFF AND PUSH2 0xFFFF AND DUP2 MSTORE PUSH1 0x20 ADD SWAP1 DUP2 MSTORE PUSH1 0x20 ADD PUSH1 0x0 KECCAK256 PUSH1 0x3 ADD DUP2 SWAP1 SSTORE POP PUSH1 0x3 PUSH1 0x1 PUSH2 0x18B8 SWAP2 SWAP1 PUSH2 0x43E5 JUMP JUMPDEST PUSH1 0xFF AND NUMBER PUSH2 0x18C6 SWAP2 SWAP1 PUSH2 0x4317 JUMP JUMPDEST PUSH1 0x4 PUSH1 0x0 PUSH1 0x1 PUSH1 0x14 SWAP1 SLOAD SWAP1 PUSH2 0x100 EXP SWAP1 DIV PUSH2 0xFFFF AND PUSH2 0xFFFF AND PUSH2 0xFFFF AND DUP2 MSTORE PUSH1 0x20 ADD SWAP1 DUP2 MSTORE PUSH1 0x20 ADD PUSH1 0x0 KECCAK256 PUSH1 0x4 ADD DUP2 SWAP1 SSTORE POP PUSH1 0x0 PUSH1 0x4 PUSH1 0x0 PUSH1 0x1 PUSH1 0x14 SWAP1 SLOAD SWAP1 PUSH2 0x100 EXP SWAP1 DIV PUSH2 0xFFFF AND PUSH2 0xFFFF AND PUSH2 0xFFFF AND DUP2 MSTORE PUSH1 0x20 ADD SWAP1 DUP2 MSTORE PUSH1 0x20 ADD PUSH1 0x0 KECCAK256 PUSH1 0x2 ADD PUSH1 0x4 PUSH2 0x100 EXP DUP2 SLOAD DUP2 PUSH4 0xFFFFFFFF MUL NOT AND SWAP1 DUP4 PUSH4 0xFFFFFFFF AND MUL OR SWAP1 SSTORE POP PUSH1 0x0 PUSH1 0x4 PUSH1 0x0 PUSH1 0x1 PUSH1 0x14 SWAP1 SLOAD SWAP1 PUSH2 0x100 EXP SWAP1 DIV PUSH2 0xFFFF AND PUSH2 0xFFFF AND PUSH2 0xFFFF AND DUP2 MSTORE PUSH1 0x20 ADD SWAP1 DUP2 MSTORE PUSH1 0x20 ADD PUSH1 0x0 KECCAK256 PUSH1 0x2 ADD PUSH1 0x0 PUSH2 0x100 EXP DUP2 SLOAD DUP2 PUSH4 0xFFFFFFFF MUL NOT AND SWAP1 DUP4 PUSH4 0xFFFFFFFF AND MUL OR SWAP1 SSTORE POP PUSH1 0x1 PUSH1 0x4 PUSH1 0x0 PUSH1 0x1 PUSH1 0x14 SWAP1 SLOAD SWAP1 PUSH2 0x100 EXP SWAP1 DIV PUSH2 0xFFFF AND PUSH2 0xFFFF AND PUSH2 0xFFFF AND DUP2 MSTORE PUSH1 0x20 ADD SWAP1 DUP2 MSTORE PUSH1 0x20 ADD PUSH1 0x0 KECCAK256 PUSH1 0x6 ADD PUSH1 0x0 PUSH2 0x100 EXP DUP2 SLOAD DUP2 PUSH1 0xFF MUL NOT AND SWAP1 DUP4 PUSH1 0x3 DUP2 GT ISZERO PUSH2 0x19E6 JUMPI PUSH2 0x19E5 PUSH2 0x461E JUMP JUMPDEST JUMPDEST MUL OR SWAP1 SSTORE POP PUSH1 0x1 PUSH1 0x14 SWAP1 SLOAD SWAP1 PUSH2 0x100 EXP SWAP1 DIV PUSH2 0xFFFF AND PUSH2 0xFFFF AND PUSH32 0xA486368A4BC0A7BD18120DDEAB7DBD478821FCEFFE1250B8C66E386D275860C7 PUSH1 0x40 MLOAD PUSH1 0x40 MLOAD DUP1 SWAP2 SUB SWAP1 LOG2 JUMPDEST POP JUMP JUMPDEST PUSH1 0x0 PUSH1 0x3 DUP2 GT ISZERO PUSH2 0x1A44 JUMPI PUSH2 0x1A43 PUSH2 0x461E JUMP JUMPDEST JUMPDEST PUSH1 0x4 PUSH1 0x0 PUSH1 0x1 PUSH1 0x14 SWAP1 SLOAD SWAP1 PUSH2 0x100 EXP SWAP1 DIV PUSH2 0xFFFF AND PUSH2 0xFFFF AND PUSH2 0xFFFF AND DUP2 MSTORE PUSH1 0x20 ADD SWAP1 DUP2 MSTORE PUSH1 0x20 ADD PUSH1 0x0 KECCAK256 PUSH1 0x6 ADD PUSH1 0x0 SWAP1 SLOAD SWAP1 PUSH2 0x100 EXP SWAP1 DIV PUSH1 0xFF AND PUSH1 0x3 DUP2 GT ISZERO PUSH2 0x1A92 JUMPI PUSH2 0x1A91 PUSH2 0x461E JUMP JUMPDEST JUMPDEST EQ ISZERO PUSH2 0x1AD3 JUMPI PUSH1 0x40 MLOAD PUSH32 0x8C379A000000000000000000000000000000000000000000000000000000000 DUP2 MSTORE PUSH1 0x4 ADD PUSH2 0x1ACA SWAP1 PUSH2 0x3FB0 JUMP JUMPDEST PUSH1 0x40 MLOAD DUP1 SWAP2 SUB SWAP1 REVERT JUMPDEST PUSH1 0x2 PUSH1 0x0 CALLER PUSH20 0xFFFFFFFFFFFFFFFFFFFFFFFFFFFFFFFFFFFFFFFF AND PUSH20 0xFFFFFFFFFFFFFFFFFFFFFFFFFFFFFFFFFFFFFFFF AND DUP2 MSTORE PUSH1 0x20 ADD SWAP1 DUP2 MSTORE PUSH1 0x20 ADD PUSH1 0x0 KECCAK256 PUSH1 0x0 SWAP1 SLOAD SWAP1 PUSH2 0x100 EXP SWAP1 DIV PUSH1 0xFF AND PUSH2 0x1B5F JUMPI PUSH1 0x40 MLOAD PUSH32 0x8C379A000000000000000000000000000000000000000000000000000000000 DUP2 MSTORE PUSH1 0x4 ADD PUSH2 0x1B56 SWAP1 PUSH2 0x3F50 JUMP JUMPDEST PUSH1 0x40 MLOAD DUP1 SWAP2 SUB SWAP1 REVERT JUMPDEST PUSH1 0x0 PUSH1 0x3 PUSH1 0x0 PUSH1 0x1 PUSH1 0x14 SWAP1 SLOAD SWAP1 PUSH2 0x100 EXP SWAP1 DIV PUSH2 0xFFFF AND PUSH2 0xFFFF AND PUSH2 0xFFFF AND DUP2 MSTORE PUSH1 0x20 ADD SWAP1 DUP2 MSTORE PUSH1 0x20 ADD PUSH1 0x0 KECCAK256 PUSH1 0x0 CALLER PUSH20 0xFFFFFFFFFFFFFFFFFFFFFFFFFFFFFFFFFFFFFFFF AND PUSH20 0xFFFFFFFFFFFFFFFFFFFFFFFFFFFFFFFFFFFFFFFF AND DUP2 MSTORE PUSH1 0x20 ADD SWAP1 DUP2 MSTORE PUSH1 0x20 ADD PUSH1 0x0 KECCAK256 PUSH1 0x0 SWAP1 SLOAD SWAP1 PUSH2 0x100 EXP SWAP1 DIV PUSH1 0xFF AND PUSH1 0xFF AND EQ PUSH2 0x1C1A JUMPI PUSH1 0x40 MLOAD PUSH32 0x8C379A000000000000000000000000000000000000000000000000000000000 DUP2 MSTORE PUSH1 0x4 ADD PUSH2 0x1C11 SWAP1 PUSH2 0x4070 JUMP JUMPDEST PUSH1 0x40 MLOAD DUP1 SWAP2 SUB SWAP1 REVERT JUMPDEST PUSH1 0x1 PUSH1 0x3 DUP2 GT ISZERO PUSH2 0x1C2E JUMPI PUSH2 0x1C2D PUSH2 0x461E JUMP JUMPDEST JUMPDEST PUSH1 0x4 PUSH1 0x0 PUSH1 0x1 PUSH1 0x14 SWAP1 SLOAD SWAP1 PUSH2 0x100 EXP SWAP1 DIV PUSH2 0xFFFF AND PUSH2 0xFFFF AND PUSH2 0xFFFF AND DUP2 MSTORE PUSH1 0x20 ADD SWAP1 DUP2 MSTORE PUSH1 0x20 ADD PUSH1 0x0 KECCAK256 PUSH1 0x6 ADD PUSH1 0x0 SWAP1 SLOAD SWAP1 PUSH2 0x100 EXP SWAP1 DIV PUSH1 0xFF AND PUSH1 0x3 DUP2 GT ISZERO PUSH2 0x1C7C JUMPI PUSH2 0x1C7B PUSH2 0x461E JUMP JUMPDEST JUMPDEST EQ PUSH2 0x1CBC JUMPI PUSH1 0x40 MLOAD PUSH32 0x8C379A000000000000000000000000000000000000000000000000000000000 DUP2 MSTORE PUSH1 0x4 ADD PUSH2 0x1CB3 SWAP1 PUSH2 0x3F70 JUMP JUMPDEST PUSH1 0x40 MLOAD DUP1 SWAP2 SUB SWAP1 REVERT JUMPDEST PUSH1 0x0 PUSH1 0x1 DUP2 GT ISZERO PUSH2 0x1CD0 JUMPI PUSH2 0x1CCF PUSH2 0x461E JUMP JUMPDEST JUMPDEST DUP2 PUSH1 0x1 DUP2 GT ISZERO PUSH2 0x1CE3 JUMPI PUSH2 0x1CE2 PUSH2 0x461E JUMP JUMPDEST JUMPDEST EQ ISZERO PUSH2 0x1DDC JUMPI PUSH1 0x1 PUSH1 0x3 PUSH1 0x0 PUSH1 0x1 PUSH1 0x14 SWAP1 SLOAD SWAP1 PUSH2 0x100 EXP SWAP1 DIV PUSH2 0xFFFF AND PUSH2 0xFFFF AND PUSH2 0xFFFF AND DUP2 MSTORE PUSH1 0x20 ADD SWAP1 DUP2 MSTORE PUSH1 0x20 ADD PUSH1 0x0 KECCAK256 PUSH1 0x0 CALLER PUSH20 0xFFFFFFFFFFFFFFFFFFFFFFFFFFFFFFFFFFFFFFFF AND PUSH20 0xFFFFFFFFFFFFFFFFFFFFFFFFFFFFFFFFFFFFFFFF AND DUP2 MSTORE PUSH1 0x20 ADD SWAP1 DUP2 MSTORE PUSH1 0x20 ADD PUSH1 0x0 KECCAK256 PUSH1 0x0 PUSH2 0x100 EXP DUP2 SLOAD DUP2 PUSH1 0xFF MUL NOT AND SWAP1 DUP4 PUSH1 0xFF AND MUL OR SWAP1 SSTORE POP PUSH1 0x1 PUSH1 0x4 PUSH1 0x0 PUSH1 0x1 PUSH1 0x14 SWAP1 SLOAD SWAP1 PUSH2 0x100 EXP SWAP1 DIV PUSH2 0xFFFF AND PUSH2 0xFFFF AND PUSH2 0xFFFF AND DUP2 MSTORE PUSH1 0x20 ADD SWAP1 DUP2 MSTORE PUSH1 0x20 ADD PUSH1 0x0 KECCAK256 PUSH1 0x2 ADD PUSH1 0x4 DUP3 DUP3 DUP3 SWAP1 SLOAD SWAP1 PUSH2 0x100 EXP SWAP1 DIV PUSH4 0xFFFFFFFF AND PUSH2 0x1DB9 SWAP2 SWAP1 PUSH2 0x436D JUMP JUMPDEST SWAP3 POP PUSH2 0x100 EXP DUP2 SLOAD DUP2 PUSH4 0xFFFFFFFF MUL NOT AND SWAP1 DUP4 PUSH4 0xFFFFFFFF AND MUL OR SWAP1 SSTORE POP PUSH2 0x1ECB JUMP JUMPDEST PUSH1 0xA PUSH1 0x3 PUSH1 0x0 PUSH1 0x1 PUSH1 0x14 SWAP1 SLOAD SWAP1 PUSH2 0x100 EXP SWAP1 DIV PUSH2 0xFFFF AND PUSH2 0xFFFF AND PUSH2 0xFFFF AND DUP2 MSTORE PUSH1 0x20 ADD SWAP1 DUP2 MSTORE PUSH1 0x20 ADD PUSH1 0x0 KECCAK256 PUSH1 0x0 CALLER PUSH20 0xFFFFFFFFFFFFFFFFFFFFFFFFFFFFFFFFFFFFFFFF AND PUSH20 0xFFFFFFFFFFFFFFFFFFFFFFFFFFFFFFFFFFFFFFFF AND DUP2 MSTORE PUSH1 0x20 ADD SWAP1 DUP2 MSTORE PUSH1 0x20 ADD PUSH1 0x0 KECCAK256 PUSH1 0x0 PUSH2 0x100 EXP DUP2 SLOAD DUP2 PUSH1 0xFF MUL NOT AND SWAP1 DUP4 PUSH1 0xFF AND MUL OR SWAP1 SSTORE POP PUSH1 0xA PUSH1 0x4 PUSH1 0x0 PUSH1 0x1 PUSH1 0x14 SWAP1 SLOAD SWAP1 PUSH2 0x100 EXP SWAP1 DIV PUSH2 0xFFFF AND PUSH2 0xFFFF AND PUSH2 0xFFFF AND DUP2 MSTORE PUSH1 0x20 ADD SWAP1 DUP2 MSTORE PUSH1 0x20 ADD PUSH1 0x0 KECCAK256 PUSH1 0x2 ADD PUSH1 0x4 DUP3 DUP3 DUP3 SWAP1 SLOAD SWAP1 PUSH2 0x100 EXP SWAP1 DIV PUSH4 0xFFFFFFFF AND PUSH2 0x1EAC SWAP2 SWAP1 PUSH2 0x436D JUMP JUMPDEST SWAP3 POP PUSH2 0x100 EXP DUP2 SLOAD DUP2 PUSH4 0xFFFFFFFF MUL NOT AND SWAP1 DUP4 PUSH4 0xFFFFFFFF AND MUL OR SWAP1 SSTORE POP JUMPDEST PUSH1 0x1 PUSH1 0x4 PUSH1 0x0 PUSH1 0x1 PUSH1 0x14 SWAP1 SLOAD SWAP1 PUSH2 0x100 EXP SWAP1 DIV PUSH2 0xFFFF AND PUSH2 0xFFFF AND PUSH2 0xFFFF AND DUP2 MSTORE PUSH1 0x20 ADD SWAP1 DUP2 MSTORE PUSH1 0x20 ADD PUSH1 0x0 KECCAK256 PUSH1 0x2 ADD PUSH1 0x0 DUP3 DUP3 DUP3 SWAP1 SLOAD SWAP1 PUSH2 0x100 EXP SWAP1 DIV PUSH4 0xFFFFFFFF AND PUSH2 0x1F19 SWAP2 SWAP1 PUSH2 0x436D JUMP JUMPDEST SWAP3 POP PUSH2 0x100 EXP DUP2 SLOAD DUP2 PUSH4 0xFFFFFFFF MUL NOT AND SWAP1 DUP4 PUSH4 0xFFFFFFFF AND MUL OR SWAP1 SSTORE POP POP JUMP JUMPDEST PUSH1 0x0 PUSH1 0x3 DUP2 GT ISZERO PUSH2 0x1F4E JUMPI PUSH2 0x1F4D PUSH2 0x461E JUMP JUMPDEST JUMPDEST PUSH1 0x4 PUSH1 0x0 PUSH1 0x1 PUSH1 0x14 SWAP1 SLOAD SWAP1 PUSH2 0x100 EXP SWAP1 DIV PUSH2 0xFFFF AND PUSH2 0xFFFF AND PUSH2 0xFFFF AND DUP2 MSTORE PUSH1 0x20 ADD SWAP1 DUP2 MSTORE PUSH1 0x20 ADD PUSH1 0x0 KECCAK256 PUSH1 0x6 ADD PUSH1 0x0 SWAP1 SLOAD SWAP1 PUSH2 0x100 EXP SWAP1 DIV PUSH1 0xFF AND PUSH1 0x3 DUP2 GT ISZERO PUSH2 0x1F9C JUMPI PUSH2 0x1F9B PUSH2 0x461E JUMP JUMPDEST JUMPDEST EQ ISZERO PUSH2 0x1FDD JUMPI PUSH1 0x40 MLOAD PUSH32 0x8C379A000000000000000000000000000000000000000000000000000000000 DUP2 MSTORE PUSH1 0x4 ADD PUSH2 0x1FD4 SWAP1 PUSH2 0x3FB0 JUMP JUMPDEST PUSH1 0x40 MLOAD DUP1 SWAP2 SUB SWAP1 REVERT JUMPDEST PUSH1 0x2 PUSH1 0x0 CALLER PUSH20 0xFFFFFFFFFFFFFFFFFFFFFFFFFFFFFFFFFFFFFFFF AND PUSH20 0xFFFFFFFFFFFFFFFFFFFFFFFFFFFFFFFFFFFFFFFF AND DUP2 MSTORE PUSH1 0x20 ADD SWAP1 DUP2 MSTORE PUSH1 0x20 ADD PUSH1 0x0 KECCAK256 PUSH1 0x0 SWAP1 SLOAD SWAP1 PUSH2 0x100 EXP SWAP1 DIV PUSH1 0xFF AND PUSH2 0x2069 JUMPI PUSH1 0x40 MLOAD PUSH32 0x8C379A000000000000000000000000000000000000000000000000000000000 DUP2 MSTORE PUSH1 0x4 ADD PUSH2 0x2060 SWAP1 PUSH2 0x3F50 JUMP JUMPDEST PUSH1 0x40 MLOAD DUP1 SWAP2 SUB SWAP1 REVERT JUMPDEST PUSH1 0x0 PUSH1 0x3 PUSH1 0x0 PUSH1 0x1 PUSH1 0x14 SWAP1 SLOAD SWAP1 PUSH2 0x100 EXP SWAP1 DIV PUSH2 0xFFFF AND PUSH2 0xFFFF AND PUSH2 0xFFFF AND DUP2 MSTORE PUSH1 0x20 ADD SWAP1 DUP2 MSTORE PUSH1 0x20 ADD PUSH1 0x0 KECCAK256 PUSH1 0x0 CALLER PUSH20 0xFFFFFFFFFFFFFFFFFFFFFFFFFFFFFFFFFFFFFFFF AND PUSH20 0xFFFFFFFFFFFFFFFFFFFFFFFFFFFFFFFFFFFFFFFF AND DUP2 MSTORE PUSH1 0x20 ADD SWAP1 DUP2 MSTORE PUSH1 0x20 ADD PUSH1 0x0 KECCAK256 PUSH1 0x0 SWAP1 SLOAD SWAP1 PUSH2 0x100 EXP SWAP1 DIV PUSH1 0xFF AND PUSH1 0xFF AND EQ PUSH2 0x2124 JUMPI PUSH1 0x40 MLOAD PUSH32 0x8C379A000000000000000000000000000000000000000000000000000000000 DUP2 MSTORE PUSH1 0x4 ADD PUSH2 0x211B SWAP1 PUSH2 0x4070 JUMP JUMPDEST PUSH1 0x40 MLOAD DUP1 SWAP2 SUB SWAP1 REVERT JUMPDEST PUSH1 0x0 DUP2 PUSH1 0xFF AND GT DUP1 ISZERO PUSH2 0x213A JUMPI POP PUSH1 0xB DUP2 PUSH1 0xFF AND LT JUMPDEST PUSH2 0x2179 JUMPI PUSH1 0x40 MLOAD PUSH32 0x8C379A000000000000000000000000000000000000000000000000000000000 DUP2 MSTORE PUSH1 0x4 ADD PUSH2 0x2170 SWAP1 PUSH2 0x4090 JUMP JUMPDEST PUSH1 0x40 MLOAD DUP1 SWAP2 SUB SWAP1 REVERT JUMPDEST PUSH1 0x2 PUSH1 0x3 DUP2 GT ISZERO PUSH2 0x218D JUMPI PUSH2 0x218C PUSH2 0x461E JUMP JUMPDEST JUMPDEST PUSH1 0x4 PUSH1 0x0 PUSH1 0x1 PUSH1 0x14 SWAP1 SLOAD SWAP1 PUSH2 0x100 EXP SWAP1 DIV PUSH2 0xFFFF AND PUSH2 0xFFFF AND PUSH2 0xFFFF AND DUP2 MSTORE PUSH1 0x20 ADD SWAP1 DUP2 MSTORE PUSH1 0x20 ADD PUSH1 0x0 KECCAK256 PUSH1 0x6 ADD PUSH1 0x0 SWAP1 SLOAD SWAP1 PUSH2 0x100 EXP SWAP1 DIV PUSH1 0xFF AND PUSH1 0x3 DUP2 GT ISZERO PUSH2 0x21DB JUMPI PUSH2 0x21DA PUSH2 0x461E JUMP JUMPDEST JUMPDEST EQ PUSH2 0x221B JUMPI PUSH1 0x40 MLOAD PUSH32 0x8C379A000000000000000000000000000000000000000000000000000000000 DUP2 MSTORE PUSH1 0x4 ADD PUSH2 0x2212 SWAP1 PUSH2 0x3F70 JUMP JUMPDEST PUSH1 0x40 MLOAD DUP1 SWAP2 SUB SWAP1 REVERT JUMPDEST DUP1 PUSH1 0x3 PUSH1 0x0 PUSH1 0x1 PUSH1 0x14 SWAP1 SLOAD SWAP1 PUSH2 0x100 EXP SWAP1 DIV PUSH2 0xFFFF AND PUSH2 0xFFFF AND PUSH2 0xFFFF AND DUP2 MSTORE PUSH1 0x20 ADD SWAP1 DUP2 MSTORE PUSH1 0x20 ADD PUSH1 0x0 KECCAK256 PUSH1 0x0 CALLER PUSH20 0xFFFFFFFFFFFFFFFFFFFFFFFFFFFFFFFFFFFFFFFF AND PUSH20 0xFFFFFFFFFFFFFFFFFFFFFFFFFFFFFFFFFFFFFFFF AND DUP2 MSTORE PUSH1 0x20 ADD SWAP1 DUP2 MSTORE PUSH1 0x20 ADD PUSH1 0x0 KECCAK256 PUSH1 0x0 PUSH2 0x100 EXP DUP2 SLOAD DUP2 PUSH1 0xFF MUL NOT AND SWAP1 DUP4 PUSH1 0xFF AND MUL OR SWAP1 SSTORE POP DUP1 PUSH1 0xFF AND PUSH1 0x4 PUSH1 0x0 PUSH1 0x1 PUSH1 0x14 SWAP1 SLOAD SWAP1 PUSH2 0x100 EXP SWAP1 DIV PUSH2 0xFFFF AND PUSH2 0xFFFF AND PUSH2 0xFFFF AND DUP2 MSTORE PUSH1 0x20 ADD SWAP1 DUP2 MSTORE PUSH1 0x20 ADD PUSH1 0x0 KECCAK256 PUSH1 0x2 ADD PUSH1 0x4 DUP3 DUP3 DUP3 SWAP1 SLOAD SWAP1 PUSH2 0x100 EXP SWAP1 DIV PUSH4 0xFFFFFFFF AND PUSH2 0x22EC SWAP2 SWAP1 PUSH2 0x436D JUMP JUMPDEST SWAP3 POP PUSH2 0x100 EXP DUP2 SLOAD DUP2 PUSH4 0xFFFFFFFF MUL NOT AND SWAP1 DUP4 PUSH4 0xFFFFFFFF AND MUL OR SWAP1 SSTORE POP PUSH1 0x1 PUSH1 0x4 PUSH1 0x0 PUSH1 0x1 PUSH1 0x14 SWAP1 SLOAD SWAP1 PUSH2 0x100 EXP SWAP1 DIV PUSH2 0xFFFF AND PUSH2 0xFFFF AND PUSH2 0xFFFF AND DUP2 MSTORE PUSH1 0x20 ADD SWAP1 DUP2 MSTORE PUSH1 0x20 ADD PUSH1 0x0 KECCAK256 PUSH1 0x2 ADD PUSH1 0x0 DUP3 DUP3 DUP3 SWAP1 SLOAD SWAP1 PUSH2 0x100 EXP SWAP1 DIV PUSH4 0xFFFFFFFF AND PUSH2 0x2358 SWAP2 SWAP1 PUSH2 0x436D JUMP JUMPDEST SWAP3 POP PUSH2 0x100 EXP DUP2 SLOAD DUP2 PUSH4 0xFFFFFFFF MUL NOT AND SWAP1 DUP4 PUSH4 0xFFFFFFFF AND MUL OR SWAP1 SSTORE POP POP JUMP JUMPDEST PUSH1 0x5 PUSH1 0x0 SWAP1 SLOAD SWAP1 PUSH2 0x100 EXP SWAP1 DIV PUSH2 0xFFFF AND DUP2 JUMP JUMPDEST PUSH2 0x2395 PUSH2 0x321F JUMP JUMPDEST PUSH2 0x239F PUSH1 0x0 PUSH2 0x329D JUMP JUMPDEST JUMP JUMPDEST PUSH1 0x0 DUP1 PUSH1 0x0 SWAP1 SLOAD SWAP1 PUSH2 0x100 EXP SWAP1 DIV PUSH20 0xFFFFFFFFFFFFFFFFFFFFFFFFFFFFFFFFFFFFFFFF AND SWAP1 POP SWAP1 JUMP JUMPDEST CALLER PUSH1 0x2 PUSH1 0x0 DUP3 PUSH20 0xFFFFFFFFFFFFFFFFFFFFFFFFFFFFFFFFFFFFFFFF AND PUSH20 0xFFFFFFFFFFFFFFFFFFFFFFFFFFFFFFFFFFFFFFFF AND DUP2 MSTORE PUSH1 0x20 ADD SWAP1 DUP2 MSTORE PUSH1 0x20 ADD PUSH1 0x0 KECCAK256 PUSH1 0x0 SWAP1 SLOAD SWAP1 PUSH2 0x100 EXP SWAP1 DIV PUSH1 0xFF AND PUSH2 0x2457 JUMPI PUSH1 0x40 MLOAD PUSH32 0x8C379A000000000000000000000000000000000000000000000000000000000 DUP2 MSTORE PUSH1 0x4 ADD PUSH2 0x244E SWAP1 PUSH2 0x40F0 JUMP JUMPDEST PUSH1 0x40 MLOAD DUP1 SWAP2 SUB SWAP1 REVERT JUMPDEST PUSH1 0x0 PUSH1 0x3 DUP2 GT ISZERO PUSH2 0x246B JUMPI PUSH2 0x246A PUSH2 0x461E JUMP JUMPDEST JUMPDEST PUSH1 0x4 PUSH1 0x0 PUSH1 0x1 PUSH1 0x14 SWAP1 SLOAD SWAP1 PUSH2 0x100 EXP SWAP1 DIV PUSH2 0xFFFF AND PUSH2 0xFFFF AND PUSH2 0xFFFF AND DUP2 MSTORE PUSH1 0x20 ADD SWAP1 DUP2 MSTORE PUSH1 0x20 ADD PUSH1 0x0 KECCAK256 PUSH1 0x6 ADD PUSH1 0x0 SWAP1 SLOAD SWAP1 PUSH2 0x100 EXP SWAP1 DIV PUSH1 0xFF AND PUSH1 0x3 DUP2 GT ISZERO PUSH2 0x24B9 JUMPI PUSH2 0x24B8 PUSH2 0x461E JUMP JUMPDEST JUMPDEST EQ PUSH2 0x24F9 JUMPI PUSH1 0x40 MLOAD PUSH32 0x8C379A000000000000000000000000000000000000000000000000000000000 DUP2 MSTORE PUSH1 0x4 ADD PUSH2 0x24F0 SWAP1 PUSH2 0x40B0 JUMP JUMPDEST PUSH1 0x40 MLOAD DUP1 SWAP2 SUB SWAP1 REVERT JUMPDEST PUSH1 0x0 DUP3 MLOAD EQ ISZERO PUSH2 0x2508 JUMPI PUSH1 0x0 DUP1 REVERT JUMPDEST PUSH1 0x1 PUSH1 0x14 SWAP1 SLOAD SWAP1 PUSH2 0x100 EXP SWAP1 DIV PUSH2 0xFFFF AND PUSH1 0x4 PUSH1 0x0 PUSH1 0x1 PUSH1 0x14 SWAP1 SLOAD SWAP1 PUSH2 0x100 EXP SWAP1 DIV PUSH2 0xFFFF AND PUSH2 0xFFFF AND PUSH2 0xFFFF AND DUP2 MSTORE PUSH1 0x20 ADD SWAP1 DUP2 MSTORE PUSH1 0x20 ADD PUSH1 0x0 KECCAK256 PUSH1 0x0 ADD PUSH1 0x0 PUSH2 0x100 EXP DUP2 SLOAD DUP2 PUSH2 0xFFFF MUL NOT AND SWAP1 DUP4 PUSH2 0xFFFF AND MUL OR SWAP1 SSTORE POP CALLER PUSH1 0x4 PUSH1 0x0 PUSH1 0x1 PUSH1 0x14 SWAP1 SLOAD SWAP1 PUSH2 0x100 EXP SWAP1 DIV PUSH2 0xFFFF AND PUSH2 0xFFFF AND PUSH2 0xFFFF AND DUP2 MSTORE PUSH1 0x20 ADD SWAP1 DUP2 MSTORE PUSH1 0x20 ADD PUSH1 0x0 KECCAK256 PUSH1 0x2 ADD PUSH1 0x8 PUSH2 0x100 EXP DUP2 SLOAD DUP2 PUSH20 0xFFFFFFFFFFFFFFFFFFFFFFFFFFFFFFFFFFFFFFFF MUL NOT AND SWAP1 DUP4 PUSH20 0xFFFFFFFFFFFFFFFFFFFFFFFFFFFFFFFFFFFFFFFF AND MUL OR SWAP1 SSTORE POP DUP2 PUSH1 0x4 PUSH1 0x0 PUSH1 0x1 PUSH1 0x14 SWAP1 SLOAD SWAP1 PUSH2 0x100 EXP SWAP1 DIV PUSH2 0xFFFF AND PUSH2 0xFFFF AND PUSH2 0xFFFF AND DUP2 MSTORE PUSH1 0x20 ADD SWAP1 DUP2 MSTORE PUSH1 0x20 ADD PUSH1 0x0 KECCAK256 PUSH1 0x1 ADD SWAP1 DUP1 MLOAD SWAP1 PUSH1 0x20 ADD SWAP1 PUSH2 0x2610 SWAP3 SWAP2 SWAP1 PUSH2 0x35F8 JUMP JUMPDEST POP NUMBER PUSH1 0x4 PUSH1 0x0 PUSH1 0x1 PUSH1 0x14 SWAP1 SLOAD SWAP1 PUSH2 0x100 EXP SWAP1 DIV PUSH2 0xFFFF AND PUSH2 0xFFFF AND PUSH2 0xFFFF AND DUP2 MSTORE PUSH1 0x20 ADD SWAP1 DUP2 MSTORE PUSH1 0x20 ADD PUSH1 0x0 KECCAK256 PUSH1 0x3 ADD DUP2 SWAP1 SSTORE POP PUSH1 0x1 PUSH1 0xFF AND NUMBER PUSH2 0x2654 SWAP2 SWAP1 PUSH2 0x4317 JUMP JUMPDEST PUSH1 0x4 PUSH1 0x0 PUSH1 0x1 PUSH1 0x14 SWAP1 SLOAD SWAP1 PUSH2 0x100 EXP SWAP1 DIV PUSH2 0xFFFF AND PUSH2 0xFFFF AND PUSH2 0xFFFF AND DUP2 MSTORE PUSH1 0x20 ADD SWAP1 DUP2 MSTORE PUSH1 0x20 ADD PUSH1 0x0 KECCAK256 PUSH1 0x4 ADD DUP2 SWAP1 SSTORE POP PUSH1 0xA PUSH1 0x4 PUSH1 0x0 PUSH1 0x1 PUSH1 0x14 SWAP1 SLOAD SWAP1 PUSH2 0x100 EXP SWAP1 DIV PUSH2 0xFFFF AND PUSH2 0xFFFF AND PUSH2 0xFFFF AND DUP2 MSTORE PUSH1 0x20 ADD SWAP1 DUP2 MSTORE PUSH1 0x20 ADD PUSH1 0x0 KECCAK256 PUSH1 0x2 ADD PUSH1 0x4 PUSH2 0x100 EXP DUP2 SLOAD DUP2 PUSH4 0xFFFFFFFF MUL NOT AND SWAP1 DUP4 PUSH4 0xFFFFFFFF AND MUL OR SWAP1 SSTORE POP PUSH1 0x1 PUSH1 0x4 PUSH1 0x0 PUSH1 0x1 PUSH1 0x14 SWAP1 SLOAD SWAP1 PUSH2 0x100 EXP SWAP1 DIV PUSH2 0xFFFF AND PUSH2 0xFFFF AND PUSH2 0xFFFF AND DUP2 MSTORE PUSH1 0x20 ADD SWAP1 DUP2 MSTORE PUSH1 0x20 ADD PUSH1 0x0 KECCAK256 PUSH1 0x2 ADD PUSH1 0x0 PUSH2 0x100 EXP DUP2 SLOAD DUP2 PUSH4 0xFFFFFFFF MUL NOT AND SWAP1 DUP4 PUSH4 0xFFFFFFFF AND MUL OR SWAP1 SSTORE POP PUSH1 0xA PUSH1 0x3 PUSH1 0x0 PUSH1 0x1 PUSH1 0x14 SWAP1 SLOAD SWAP1 PUSH2 0x100 EXP SWAP1 DIV PUSH2 0xFFFF AND PUSH2 0xFFFF AND PUSH2 0xFFFF AND DUP2 MSTORE PUSH1 0x20 ADD SWAP1 DUP2 MSTORE PUSH1 0x20 ADD PUSH1 0x0 KECCAK256 PUSH1 0x0 CALLER PUSH20 0xFFFFFFFFFFFFFFFFFFFFFFFFFFFFFFFFFFFFFFFF AND PUSH20 0xFFFFFFFFFFFFFFFFFFFFFFFFFFFFFFFFFFFFFFFF AND DUP2 MSTORE PUSH1 0x20 ADD SWAP1 DUP2 MSTORE PUSH1 0x20 ADD PUSH1 0x0 KECCAK256 PUSH1 0x0 PUSH2 0x100 EXP DUP2 SLOAD DUP2 PUSH1 0xFF MUL NOT AND SWAP1 DUP4 PUSH1 0xFF AND MUL OR SWAP1 SSTORE POP PUSH1 0x3 PUSH1 0x4 PUSH1 0x0 PUSH1 0x1 PUSH1 0x14 SWAP1 SLOAD SWAP1 PUSH2 0x100 EXP SWAP1 DIV PUSH2 0xFFFF AND PUSH2 0xFFFF AND PUSH2 0xFFFF AND DUP2 MSTORE PUSH1 0x20 ADD SWAP1 DUP2 MSTORE PUSH1 0x20 ADD PUSH1 0x0 KECCAK256 PUSH1 0x6 ADD PUSH1 0x0 PUSH2 0x100 EXP DUP2 SLOAD DUP2 PUSH1 0xFF MUL NOT AND SWAP1 DUP4 PUSH1 0x3 DUP2 GT ISZERO PUSH2 0x27F6 JUMPI PUSH2 0x27F5 PUSH2 0x461E JUMP JUMPDEST JUMPDEST MUL OR SWAP1 SSTORE POP PUSH1 0x1 PUSH1 0x14 SWAP1 SLOAD SWAP1 PUSH2 0x100 EXP SWAP1 DIV PUSH2 0xFFFF AND PUSH2 0xFFFF AND PUSH32 0xA486368A4BC0A7BD18120DDEAB7DBD478821FCEFFE1250B8C66E386D275860C7 PUSH1 0x40 MLOAD PUSH1 0x40 MLOAD DUP1 SWAP2 SUB SWAP1 LOG2 POP POP JUMP JUMPDEST PUSH2 0x2848 PUSH2 0x321F JUMP JUMPDEST DUP1 PUSH1 0x1 PUSH1 0x0 PUSH2 0x100 EXP DUP2 SLOAD DUP2 PUSH20 0xFFFFFFFFFFFFFFFFFFFFFFFFFFFFFFFFFFFFFFFF MUL NOT AND SWAP1 DUP4 PUSH20 0xFFFFFFFFFFFFFFFFFFFFFFFFFFFFFFFFFFFFFFFF AND MUL OR SWAP1 SSTORE POP POP JUMP JUMPDEST CALLER PUSH1 0x2 PUSH1 0x0 DUP3 PUSH20 0xFFFFFFFFFFFFFFFFFFFFFFFFFFFFFFFFFFFFFFFF AND PUSH20 0xFFFFFFFFFFFFFFFFFFFFFFFFFFFFFFFFFFFFFFFF AND DUP2 MSTORE PUSH1 0x20 ADD SWAP1 DUP2 MSTORE PUSH1 0x20 ADD PUSH1 0x0 KECCAK256 PUSH1 0x0 SWAP1 SLOAD SWAP1 PUSH2 0x100 EXP SWAP1 DIV PUSH1 0xFF AND PUSH2 0x2919 JUMPI PUSH1 0x40 MLOAD PUSH32 0x8C379A000000000000000000000000000000000000000000000000000000000 DUP2 MSTORE PUSH1 0x4 ADD PUSH2 0x2910 SWAP1 PUSH2 0x40F0 JUMP JUMPDEST PUSH1 0x40 MLOAD DUP1 SWAP2 SUB SWAP1 REVERT JUMPDEST PUSH1 0x4 PUSH1 0x0 PUSH1 0x1 PUSH1 0x14 SWAP1 SLOAD SWAP1 PUSH2 0x100 EXP SWAP1 DIV PUSH2 0xFFFF AND PUSH2 0xFFFF AND PUSH2 0xFFFF AND DUP2 MSTORE PUSH1 0x20 ADD SWAP1 DUP2 MSTORE PUSH1 0x20 ADD PUSH1 0x0 KECCAK256 PUSH1 0x4 ADD SLOAD NUMBER LT ISZERO PUSH2 0x298A JUMPI PUSH1 0x40 MLOAD PUSH32 0x8C379A000000000000000000000000000000000000000000000000000000000 DUP2 MSTORE PUSH1 0x4 ADD PUSH2 0x2981 SWAP1 PUSH2 0x40D0 JUMP JUMPDEST PUSH1 0x40 MLOAD DUP1 SWAP2 SUB SWAP1 REVERT JUMPDEST PUSH1 0x0 PUSH1 0x3 DUP2 GT ISZERO PUSH2 0x299E JUMPI PUSH2 0x299D PUSH2 0x461E JUMP JUMPDEST JUMPDEST PUSH1 0x4 PUSH1 0x0 PUSH1 0x1 PUSH1 0x14 SWAP1 SLOAD SWAP1 PUSH2 0x100 EXP SWAP1 DIV PUSH2 0xFFFF AND PUSH2 0xFFFF AND PUSH2 0xFFFF AND DUP2 MSTORE PUSH1 0x20 ADD SWAP1 DUP2 MSTORE PUSH1 0x20 ADD PUSH1 0x0 KECCAK256 PUSH1 0x6 ADD PUSH1 0x0 SWAP1 SLOAD SWAP1 PUSH2 0x100 EXP SWAP1 DIV PUSH1 0xFF AND PUSH1 0x3 DUP2 GT ISZERO PUSH2 0x29EC JUMPI PUSH2 0x29EB PUSH2 0x461E JUMP JUMPDEST JUMPDEST EQ ISZERO DUP1 ISZERO PUSH2 0x2A59 JUMPI POP PUSH1 0x3 DUP1 DUP2 GT ISZERO PUSH2 0x2A08 JUMPI PUSH2 0x2A07 PUSH2 0x461E JUMP JUMPDEST JUMPDEST PUSH1 0x4 PUSH1 0x0 PUSH1 0x1 PUSH1 0x14 SWAP1 SLOAD SWAP1 PUSH2 0x100 EXP SWAP1 DIV PUSH2 0xFFFF AND PUSH2 0xFFFF AND PUSH2 0xFFFF AND DUP2 MSTORE PUSH1 0x20 ADD SWAP1 DUP2 MSTORE PUSH1 0x20 ADD PUSH1 0x0 KECCAK256 PUSH1 0x6 ADD PUSH1 0x0 SWAP1 SLOAD SWAP1 PUSH2 0x100 EXP SWAP1 DIV PUSH1 0xFF AND PUSH1 0x3 DUP2 GT ISZERO PUSH2 0x2A56 JUMPI PUSH2 0x2A55 PUSH2 0x461E JUMP JUMPDEST JUMPDEST EQ ISZERO JUMPDEST PUSH2 0x2A62 JUMPI PUSH1 0x0 DUP1 REVERT JUMPDEST PUSH2 0x2A6A PUSH2 0x3361 JUMP JUMPDEST POP JUMP JUMPDEST PUSH1 0x0 PUSH1 0x3 PUSH1 0x0 PUSH1 0x1 PUSH1 0x14 SWAP1 SLOAD SWAP1 PUSH2 0x100 EXP SWAP1 DIV PUSH2 0xFFFF AND PUSH2 0xFFFF AND PUSH2 0xFFFF AND DUP2 MSTORE PUSH1 0x20 ADD SWAP1 DUP2 MSTORE PUSH1 0x20 ADD PUSH1 0x0 KECCAK256 PUSH1 0x0 CALLER PUSH20 0xFFFFFFFFFFFFFFFFFFFFFFFFFFFFFFFFFFFFFFFF AND PUSH20 0xFFFFFFFFFFFFFFFFFFFFFFFFFFFFFFFFFFFFFFFF AND DUP2 MSTORE PUSH1 0x20 ADD SWAP1 DUP2 MSTORE PUSH1 0x20 ADD PUSH1 0x0 KECCAK256 PUSH1 0x0 SWAP1 SLOAD SWAP1 PUSH2 0x100 EXP SWAP1 DIV PUSH1 0xFF AND SWAP1 POP SWAP1 JUMP JUMPDEST PUSH1 0x4 PUSH1 0x20 MSTORE DUP1 PUSH1 0x0 MSTORE PUSH1 0x40 PUSH1 0x0 KECCAK256 PUSH1 0x0 SWAP2 POP SWAP1 POP DUP1 PUSH1 0x0 ADD PUSH1 0x0 SWAP1 SLOAD SWAP1 PUSH2 0x100 EXP SWAP1 DIV PUSH2 0xFFFF AND SWAP1 DUP1 PUSH1 0x1 ADD DUP1 SLOAD PUSH2 0x2B21 SWAP1 PUSH2 0x4562 JUMP JUMPDEST DUP1 PUSH1 0x1F ADD PUSH1 0x20 DUP1 SWAP2 DIV MUL PUSH1 0x20 ADD PUSH1 0x40 MLOAD SWAP1 DUP2 ADD PUSH1 0x40 MSTORE DUP1 SWAP3 SWAP2 SWAP1 DUP2 DUP2 MSTORE PUSH1 0x20 ADD DUP3 DUP1 SLOAD PUSH2 0x2B4D SWAP1 PUSH2 0x4562 JUMP JUMPDEST DUP1 ISZERO PUSH2 0x2B9A JUMPI DUP1 PUSH1 0x1F LT PUSH2 0x2B6F JUMPI PUSH2 0x100 DUP1 DUP4 SLOAD DIV MUL DUP4 MSTORE SWAP2 PUSH1 0x20 ADD SWAP2 PUSH2 0x2B9A JUMP JUMPDEST DUP3 ADD SWAP2 SWAP1 PUSH1 0x0 MSTORE PUSH1 0x20 PUSH1 0x0 KECCAK256 SWAP1 JUMPDEST DUP2 SLOAD DUP2 MSTORE SWAP1 PUSH1 0x1 ADD SWAP1 PUSH1 0x20 ADD DUP1 DUP4 GT PUSH2 0x2B7D JUMPI DUP3 SWAP1 SUB PUSH1 0x1F AND DUP3 ADD SWAP2 JUMPDEST POP POP POP POP POP SWAP1 DUP1 PUSH1 0x2 ADD PUSH1 0x0 SWAP1 SLOAD SWAP1 PUSH2 0x100 EXP SWAP1 DIV PUSH4 0xFFFFFFFF AND SWAP1 DUP1 PUSH1 0x2 ADD PUSH1 0x4 SWAP1 SLOAD SWAP1 PUSH2 0x100 EXP SWAP1 DIV PUSH4 0xFFFFFFFF AND SWAP1 DUP1 PUSH1 0x2 ADD PUSH1 0x8 SWAP1 SLOAD SWAP1 PUSH2 0x100 EXP SWAP1 DIV PUSH20 0xFFFFFFFFFFFFFFFFFFFFFFFFFFFFFFFFFFFFFFFF AND SWAP1 DUP1 PUSH1 0x3 ADD SLOAD SWAP1 DUP1 PUSH1 0x4 ADD SLOAD SWAP1 DUP1 PUSH1 0x5 ADD SLOAD SWAP1 DUP1 PUSH1 0x6 ADD PUSH1 0x0 SWAP1 SLOAD SWAP1 PUSH2 0x100 EXP SWAP1 DIV PUSH1 0xFF AND SWAP1 POP DUP10 JUMP JUMPDEST PUSH1 0x1 PUSH1 0x0 SWAP1 SLOAD SWAP1 PUSH2 0x100 EXP SWAP1 DIV PUSH20 0xFFFFFFFFFFFFFFFFFFFFFFFFFFFFFFFFFFFFFFFF AND PUSH20 0xFFFFFFFFFFFFFFFFFFFFFFFFFFFFFFFFFFFFFFFF AND CALLER PUSH20 0xFFFFFFFFFFFFFFFFFFFFFFFFFFFFFFFFFFFFFFFF AND EQ PUSH2 0x2CAB JUMPI PUSH1 0x40 MLOAD PUSH32 0x8C379A000000000000000000000000000000000000000000000000000000000 DUP2 MSTORE PUSH1 0x4 ADD PUSH2 0x2CA2 SWAP1 PUSH2 0x3FD0 JUMP JUMPDEST PUSH1 0x40 MLOAD DUP1 SWAP2 SUB SWAP1 REVERT JUMPDEST DUP1 PUSH1 0x0 PUSH20 0xFFFFFFFFFFFFFFFFFFFFFFFFFFFFFFFFFFFFFFFF AND DUP2 PUSH20 0xFFFFFFFFFFFFFFFFFFFFFFFFFFFFFFFFFFFFFFFF AND EQ ISZERO PUSH2 0x2D1C JUMPI PUSH1 0x40 MLOAD PUSH32 0x8C379A000000000000000000000000000000000000000000000000000000000 DUP2 MSTORE PUSH1 0x4 ADD PUSH2 0x2D13 SWAP1 PUSH2 0x4030 JUMP JUMPDEST PUSH1 0x40 MLOAD DUP1 SWAP2 SUB SWAP1 REVERT JUMPDEST PUSH1 0x2 PUSH1 0x0 DUP4 PUSH20 0xFFFFFFFFFFFFFFFFFFFFFFFFFFFFFFFFFFFFFFFF AND PUSH20 0xFFFFFFFFFFFFFFFFFFFFFFFFFFFFFFFFFFFFFFFF AND DUP2 MSTORE PUSH1 0x20 ADD SWAP1 DUP2 MSTORE PUSH1 0x20 ADD PUSH1 0x0 KECCAK256 PUSH1 0x0 SWAP1 SLOAD SWAP1 PUSH2 0x100 EXP SWAP1 DIV PUSH1 0xFF AND ISZERO PUSH2 0x2DA9 JUMPI PUSH1 0x40 MLOAD PUSH32 0x8C379A000000000000000000000000000000000000000000000000000000000 DUP2 MSTORE PUSH1 0x4 ADD PUSH2 0x2DA0 SWAP1 PUSH2 0x3FF0 JUMP JUMPDEST PUSH1 0x40 MLOAD DUP1 SWAP2 SUB SWAP1 REVERT JUMPDEST PUSH1 0x1 PUSH1 0x5 PUSH1 0x0 SWAP1 SLOAD SWAP1 PUSH2 0x100 EXP SWAP1 DIV PUSH2 0xFFFF AND PUSH2 0x2DC6 SWAP2 SWAP1 PUSH2 0x42DF JUMP JUMPDEST PUSH1 0x5 PUSH1 0x0 PUSH2 0x100 EXP DUP2 SLOAD DUP2 PUSH2 0xFFFF MUL NOT AND SWAP1 DUP4 PUSH2 0xFFFF AND MUL OR SWAP1 SSTORE POP PUSH1 0x1 PUSH1 0x2 PUSH1 0x0 DUP5 PUSH20 0xFFFFFFFFFFFFFFFFFFFFFFFFFFFFFFFFFFFFFFFF AND PUSH20 0xFFFFFFFFFFFFFFFFFFFFFFFFFFFFFFFFFFFFFFFF AND DUP2 MSTORE PUSH1 0x20 ADD SWAP1 DUP2 MSTORE PUSH1 0x20 ADD PUSH1 0x0 KECCAK256 PUSH1 0x0 PUSH2 0x100 EXP DUP2 SLOAD DUP2 PUSH1 0xFF MUL NOT AND SWAP1 DUP4 ISZERO ISZERO MUL OR SWAP1 SSTORE POP POP POP JUMP JUMPDEST PUSH2 0x2E46 PUSH2 0x321F JUMP JUMPDEST PUSH1 0x0 PUSH20 0xFFFFFFFFFFFFFFFFFFFFFFFFFFFFFFFFFFFFFFFF AND DUP2 PUSH20 0xFFFFFFFFFFFFFFFFFFFFFFFFFFFFFFFFFFFFFFFF AND EQ ISZERO PUSH2 0x2EB6 JUMPI PUSH1 0x40 MLOAD PUSH32 0x8C379A000000000000000000000000000000000000000000000000000000000 DUP2 MSTORE PUSH1 0x4 ADD PUSH2 0x2EAD SWAP1 PUSH2 0x3F90 JUMP JUMPDEST PUSH1 0x40 MLOAD DUP1 SWAP2 SUB SWAP1 REVERT JUMPDEST PUSH2 0x2EBF DUP2 PUSH2 0x329D JUMP JUMPDEST POP JUMP JUMPDEST PUSH2 0x2ECA PUSH2 0x321F JUMP JUMPDEST PUSH1 0x0 PUSH1 0x3 DUP2 GT ISZERO PUSH2 0x2EDE JUMPI PUSH2 0x2EDD PUSH2 0x461E JUMP JUMPDEST JUMPDEST PUSH1 0x4 PUSH1 0x0 PUSH1 0x1 PUSH1 0x14 SWAP1 SLOAD SWAP1 PUSH2 0x100 EXP SWAP1 DIV PUSH2 0xFFFF AND PUSH2 0xFFFF AND PUSH2 0xFFFF AND DUP2 MSTORE PUSH1 0x20 ADD SWAP1 DUP2 MSTORE PUSH1 0x20 ADD PUSH1 0x0 KECCAK256 PUSH1 0x6 ADD PUSH1 0x0 SWAP1 SLOAD SWAP1 PUSH2 0x100 EXP SWAP1 DIV PUSH1 0xFF AND PUSH1 0x3 DUP2 GT ISZERO PUSH2 0x2F2C JUMPI PUSH2 0x2F2B PUSH2 0x461E JUMP JUMPDEST JUMPDEST EQ PUSH2 0x2F6C JUMPI PUSH1 0x40 MLOAD PUSH32 0x8C379A000000000000000000000000000000000000000000000000000000000 DUP2 MSTORE PUSH1 0x4 ADD PUSH2 0x2F63 SWAP1 PUSH2 0x40B0 JUMP JUMPDEST PUSH1 0x40 MLOAD DUP1 SWAP2 SUB SWAP1 REVERT JUMPDEST PUSH1 0x0 PUSH1 0x3 DUP2 GT ISZERO PUSH2 0x2F80 JUMPI PUSH2 0x2F7F PUSH2 0x461E JUMP JUMPDEST JUMPDEST DUP5 PUSH1 0x3 DUP2 GT ISZERO PUSH2 0x2F93 JUMPI PUSH2 0x2F92 PUSH2 0x461E JUMP JUMPDEST JUMPDEST EQ ISZERO PUSH2 0x2F9E JUMPI PUSH1 0x0 DUP1 REVERT JUMPDEST PUSH1 0x1 PUSH1 0x14 SWAP1 SLOAD SWAP1 PUSH2 0x100 EXP SWAP1 DIV PUSH2 0xFFFF AND PUSH1 0x4 PUSH1 0x0 PUSH1 0x1 PUSH1 0x14 SWAP1 SLOAD SWAP1 PUSH2 0x100 EXP SWAP1 DIV PUSH2 0xFFFF AND PUSH2 0xFFFF AND PUSH2 0xFFFF AND DUP2 MSTORE PUSH1 0x20 ADD SWAP1 DUP2 MSTORE PUSH1 0x20 ADD PUSH1 0x0 KECCAK256 PUSH1 0x0 ADD PUSH1 0x0 PUSH2 0x100 EXP DUP2 SLOAD DUP2 PUSH2 0xFFFF MUL NOT AND SWAP1 DUP4 PUSH2 0xFFFF AND MUL OR SWAP1 SSTORE POP CALLER PUSH1 0x4 PUSH1 0x0 PUSH1 0x1 PUSH1 0x14 SWAP1 SLOAD SWAP1 PUSH2 0x100 EXP SWAP1 DIV PUSH2 0xFFFF AND PUSH2 0xFFFF AND PUSH2 0xFFFF AND DUP2 MSTORE PUSH1 0x20 ADD SWAP1 DUP2 MSTORE PUSH1 0x20 ADD PUSH1 0x0 KECCAK256 PUSH1 0x2 ADD PUSH1 0x8 PUSH2 0x100 EXP DUP2 SLOAD DUP2 PUSH20 0xFFFFFFFFFFFFFFFFFFFFFFFFFFFFFFFFFFFFFFFF MUL NOT AND SWAP1 DUP4 PUSH20 0xFFFFFFFFFFFFFFFFFFFFFFFFFFFFFFFFFFFFFFFF AND MUL OR SWAP1 SSTORE POP DUP2 DUP2 PUSH1 0x4 PUSH1 0x0 PUSH1 0x1 PUSH1 0x14 SWAP1 SLOAD SWAP1 PUSH2 0x100 EXP SWAP1 DIV PUSH2 0xFFFF AND PUSH2 0xFFFF AND PUSH2 0xFFFF AND DUP2 MSTORE PUSH1 0x20 ADD SWAP1 DUP2 MSTORE PUSH1 0x20 ADD PUSH1 0x0 KECCAK256 PUSH1 0x1 ADD SWAP2 SWAP1 PUSH2 0x30A1 SWAP3 SWAP2 SWAP1 PUSH2 0x367E JUMP JUMPDEST POP NUMBER PUSH1 0x4 PUSH1 0x0 PUSH1 0x1 PUSH1 0x14 SWAP1 SLOAD SWAP1 PUSH2 0x100 EXP SWAP1 DIV PUSH2 0xFFFF AND PUSH2 0xFFFF AND PUSH2 0xFFFF AND DUP2 MSTORE PUSH1 0x20 ADD SWAP1 DUP2 MSTORE PUSH1 0x20 ADD PUSH1 0x0 KECCAK256 PUSH1 0x3 ADD DUP2 SWAP1 SSTORE POP DUP3 NUMBER PUSH2 0x30E1 SWAP2 SWAP1 PUSH2 0x4317 JUMP JUMPDEST PUSH1 0x4 PUSH1 0x0 PUSH1 0x1 PUSH1 0x14 SWAP1 SLOAD SWAP1 PUSH2 0x100 EXP SWAP1 DIV PUSH2 0xFFFF AND PUSH2 0xFFFF AND PUSH2 0xFFFF AND DUP2 MSTORE PUSH1 0x20 ADD SWAP1 DUP2 MSTORE PUSH1 0x20 ADD PUSH1 0x0 KECCAK256 PUSH1 0x4 ADD DUP2 SWAP1 SSTORE POP PUSH1 0x0 PUSH1 0x4 PUSH1 0x0 PUSH1 0x1 PUSH1 0x14 SWAP1 SLOAD SWAP1 PUSH2 0x100 EXP SWAP1 DIV PUSH2 0xFFFF AND PUSH2 0xFFFF AND PUSH2 0xFFFF AND DUP2 MSTORE PUSH1 0x20 ADD SWAP1 DUP2 MSTORE PUSH1 0x20 ADD PUSH1 0x0 KECCAK256 PUSH1 0x2 ADD PUSH1 0x4 PUSH2 0x100 EXP DUP2 SLOAD DUP2 PUSH4 0xFFFFFFFF MUL NOT AND SWAP1 DUP4 PUSH4 0xFFFFFFFF AND MUL OR SWAP1 SSTORE POP PUSH1 0x0 PUSH1 0x4 PUSH1 0x0 PUSH1 0x1 PUSH1 0x14 SWAP1 SLOAD SWAP1 PUSH2 0x100 EXP SWAP1 DIV PUSH2 0xFFFF AND PUSH2 0xFFFF AND PUSH2 0xFFFF AND DUP2 MSTORE PUSH1 0x20 ADD SWAP1 DUP2 MSTORE PUSH1 0x20 ADD PUSH1 0x0 KECCAK256 PUSH1 0x2 ADD PUSH1 0x0 PUSH2 0x100 EXP DUP2 SLOAD DUP2 PUSH4 0xFFFFFFFF MUL NOT AND SWAP1 DUP4 PUSH4 0xFFFFFFFF AND MUL OR SWAP1 SSTORE POP DUP4 PUSH1 0x4 PUSH1 0x0 PUSH1 0x1 PUSH1 0x14 SWAP1 SLOAD SWAP1 PUSH2 0x100 EXP SWAP1 DIV PUSH2 0xFFFF AND PUSH2 0xFFFF AND PUSH2 0xFFFF AND DUP2 MSTORE PUSH1 0x20 ADD SWAP1 DUP2 MSTORE PUSH1 0x20 ADD PUSH1 0x0 KECCAK256 PUSH1 0x6 ADD PUSH1 0x0 PUSH2 0x100 EXP DUP2 SLOAD DUP2 PUSH1 0xFF MUL NOT AND SWAP1 DUP4 PUSH1 0x3 DUP2 GT ISZERO PUSH2 0x3200 JUMPI PUSH2 0x31FF PUSH2 0x461E JUMP JUMPDEST JUMPDEST MUL OR SWAP1 SSTORE POP POP POP POP POP JUMP JUMPDEST PUSH1 0x1 PUSH1 0x14 SWAP1 SLOAD SWAP1 PUSH2 0x100 EXP SWAP1 DIV PUSH2 0xFFFF AND DUP2 JUMP JUMPDEST PUSH2 0x3227 PUSH2 0x34DF JUMP JUMPDEST PUSH20 0xFFFFFFFFFFFFFFFFFFFFFFFFFFFFFFFFFFFFFFFF AND PUSH2 0x3245 PUSH2 0x23A1 JUMP JUMPDEST PUSH20 0xFFFFFFFFFFFFFFFFFFFFFFFFFFFFFFFFFFFFFFFF AND EQ PUSH2 0x329B JUMPI PUSH1 0x40 MLOAD PUSH32 0x8C379A000000000000000000000000000000000000000000000000000000000 DUP2 MSTORE PUSH1 0x4 ADD PUSH2 0x3292 SWAP1 PUSH2 0x4010 JUMP JUMPDEST PUSH1 0x40 MLOAD DUP1 SWAP2 SUB SWAP1 REVERT JUMPDEST JUMP JUMPDEST PUSH1 0x0 DUP1 PUSH1 0x0 SWAP1 SLOAD SWAP1 PUSH2 0x100 EXP SWAP1 DIV PUSH20 0xFFFFFFFFFFFFFFFFFFFFFFFFFFFFFFFFFFFFFFFF AND SWAP1 POP DUP2 PUSH1 0x0 DUP1 PUSH2 0x100 EXP DUP2 SLOAD DUP2 PUSH20 0xFFFFFFFFFFFFFFFFFFFFFFFFFFFFFFFFFFFFFFFF MUL NOT AND SWAP1 DUP4 PUSH20 0xFFFFFFFFFFFFFFFFFFFFFFFFFFFFFFFFFFFFFFFF AND MUL OR SWAP1 SSTORE POP DUP2 PUSH20 0xFFFFFFFFFFFFFFFFFFFFFFFFFFFFFFFFFFFFFFFF AND DUP2 PUSH20 0xFFFFFFFFFFFFFFFFFFFFFFFFFFFFFFFFFFFFFFFF AND PUSH32 0x8BE0079C531659141344CD1FD0A4F28419497F9722A3DAAFE3B4186F6B6457E0 PUSH1 0x40 MLOAD PUSH1 0x40 MLOAD DUP1 SWAP2 SUB SWAP1 LOG3 POP POP JUMP JUMPDEST PUSH1 0x0 PUSH1 0x3 DUP2 GT ISZERO PUSH2 0x3375 JUMPI PUSH2 0x3374 PUSH2 0x461E JUMP JUMPDEST JUMPDEST PUSH1 0x4 PUSH1 0x0 PUSH1 0x1 PUSH1 0x14 SWAP1 SLOAD SWAP1 PUSH2 0x100 EXP SWAP1 DIV PUSH2 0xFFFF AND PUSH2 0xFFFF AND PUSH2 0xFFFF AND DUP2 MSTORE PUSH1 0x20 ADD SWAP1 DUP2 MSTORE PUSH1 0x20 ADD PUSH1 0x0 KECCAK256 PUSH1 0x6 ADD PUSH1 0x0 SWAP1 SLOAD SWAP1 PUSH2 0x100 EXP SWAP1 DIV PUSH1 0xFF AND PUSH1 0x3 DUP2 GT ISZERO PUSH2 0x33C3 JUMPI PUSH2 0x33C2 PUSH2 0x461E JUMP JUMPDEST JUMPDEST EQ ISZERO PUSH2 0x3404 JUMPI PUSH1 0x40 MLOAD PUSH32 0x8C379A000000000000000000000000000000000000000000000000000000000 DUP2 MSTORE PUSH1 0x4 ADD PUSH2 0x33FB SWAP1 PUSH2 0x3FB0 JUMP JUMPDEST PUSH1 0x40 MLOAD DUP1 SWAP2 SUB SWAP1 REVERT JUMPDEST PUSH1 0x1 DUP1 PUSH1 0x14 DUP3 DUP3 DUP3 SWAP1 SLOAD SWAP1 PUSH2 0x100 EXP SWAP1 DIV PUSH2 0xFFFF AND PUSH2 0x3423 SWAP2 SWAP1 PUSH2 0x42DF JUMP JUMPDEST SWAP3 POP PUSH2 0x100 EXP DUP2 SLOAD DUP2 PUSH2 0xFFFF MUL NOT AND SWAP1 DUP4 PUSH2 0xFFFF AND MUL OR SWAP1 SSTORE POP PUSH1 0x0 PUSH1 0x4 PUSH1 0x0 PUSH1 0x1 DUP1 PUSH1 0x14 SWAP1 SLOAD SWAP1 PUSH2 0x100 EXP SWAP1 DIV PUSH2 0xFFFF AND PUSH2 0x345F SWAP2 SWAP1 PUSH2 0x4420 JUMP JUMPDEST PUSH2 0xFFFF AND PUSH2 0xFFFF AND DUP2 MSTORE PUSH1 0x20 ADD SWAP1 DUP2 MSTORE PUSH1 0x20 ADD PUSH1 0x0 KECCAK256 PUSH1 0x6 ADD PUSH1 0x0 PUSH2 0x100 EXP DUP2 SLOAD DUP2 PUSH1 0xFF MUL NOT AND SWAP1 DUP4 PUSH1 0x3 DUP2 GT ISZERO PUSH2 0x349A JUMPI PUSH2 0x3499 PUSH2 0x461E JUMP JUMPDEST JUMPDEST MUL OR SWAP1 SSTORE POP NUMBER PUSH1 0x4 PUSH1 0x0 PUSH1 0x1 DUP1 PUSH1 0x14 SWAP1 SLOAD SWAP1 PUSH2 0x100 EXP SWAP1 DIV PUSH2 0xFFFF AND PUSH2 0x34C0 SWAP2 SWAP1 PUSH2 0x4420 JUMP JUMPDEST PUSH2 0xFFFF AND PUSH2 0xFFFF AND DUP2 MSTORE PUSH1 0x20 ADD SWAP1 DUP2 MSTORE PUSH1 0x20 ADD PUSH1 0x0 KECCAK256 PUSH1 0x5 ADD DUP2 SWAP1 SSTORE POP JUMP JUMPDEST PUSH1 0x0 CALLER SWAP1 POP SWAP1 JUMP JUMPDEST PUSH1 0x40 MLOAD DUP1 PUSH2 0x120 ADD PUSH1 0x40 MSTORE DUP1 PUSH1 0x0 PUSH2 0xFFFF AND DUP2 MSTORE PUSH1 0x20 ADD PUSH1 0x60 DUP2 MSTORE PUSH1 0x20 ADD PUSH1 0x0 PUSH4 0xFFFFFFFF AND DUP2 MSTORE PUSH1 0x20 ADD PUSH1 0x0 PUSH4 0xFFFFFFFF AND DUP2 MSTORE PUSH1 0x20 ADD PUSH1 0x0 PUSH20 0xFFFFFFFFFFFFFFFFFFFFFFFFFFFFFFFFFFFFFFFF AND DUP2 MSTORE PUSH1 0x20 ADD PUSH1 0x0 DUP2 MSTORE PUSH1 0x20 ADD PUSH1 0x0 DUP2 MSTORE PUSH1 0x20 ADD PUSH1 0x0 DUP2 MSTORE PUSH1 0x20 ADD PUSH1 0x0 PUSH1 0x3 DUP2 GT ISZERO PUSH2 0x3565 JUMPI PUSH2 0x3564 PUSH2 0x461E JUMP JUMPDEST JUMPDEST DUP2 MSTORE POP SWAP1 JUMP JUMPDEST DUP3 DUP1 SLOAD PUSH2 0x3577 SWAP1 PUSH2 0x4562 JUMP JUMPDEST SWAP1 PUSH1 0x0 MSTORE PUSH1 0x20 PUSH1 0x0 KECCAK256 SWAP1 PUSH1 0x1F ADD PUSH1 0x20 SWAP1 DIV DUP2 ADD SWAP3 DUP3 PUSH2 0x3599 JUMPI PUSH1 0x0 DUP6 SSTORE PUSH2 0x35E7 JUMP JUMPDEST DUP3 PUSH1 0x1F LT PUSH2 0x35AA JUMPI DUP1 SLOAD DUP6 SSTORE PUSH2 0x35E7 JUMP JUMPDEST DUP3 DUP1 ADD PUSH1 0x1 ADD DUP6 SSTORE DUP3 ISZERO PUSH2 0x35E7 JUMPI PUSH1 0x0 MSTORE PUSH1 0x20 PUSH1 0x0 KECCAK256 SWAP2 PUSH1 0x1F ADD PUSH1 0x20 SWAP1 DIV DUP3 ADD JUMPDEST DUP3 DUP2 GT ISZERO PUSH2 0x35E6 JUMPI DUP3 SLOAD DUP3 SSTORE SWAP2 PUSH1 0x1 ADD SWAP2 SWAP1 PUSH1 0x1 ADD SWAP1 PUSH2 0x35CB JUMP JUMPDEST JUMPDEST POP SWAP1 POP PUSH2 0x35F4 SWAP2 SWAP1 PUSH2 0x3704 JUMP JUMPDEST POP SWAP1 JUMP JUMPDEST DUP3 DUP1 SLOAD PUSH2 0x3604 SWAP1 PUSH2 0x4562 JUMP JUMPDEST SWAP1 PUSH1 0x0 MSTORE PUSH1 0x20 PUSH1 0x0 KECCAK256 SWAP1 PUSH1 0x1F ADD PUSH1 0x20 SWAP1 DIV DUP2 ADD SWAP3 DUP3 PUSH2 0x3626 JUMPI PUSH1 0x0 DUP6 SSTORE PUSH2 0x366D JUMP JUMPDEST DUP3 PUSH1 0x1F LT PUSH2 0x363F JUMPI DUP1 MLOAD PUSH1 0xFF NOT AND DUP4 DUP1 ADD OR DUP6 SSTORE PUSH2 0x366D JUMP JUMPDEST DUP3 DUP1 ADD PUSH1 0x1 ADD DUP6 SSTORE DUP3 ISZERO PUSH2 0x366D JUMPI SWAP2 DUP3 ADD JUMPDEST DUP3 DUP2 GT ISZERO PUSH2 0x366C JUMPI DUP3 MLOAD DUP3 SSTORE SWAP2 PUSH1 0x20 ADD SWAP2 SWAP1 PUSH1 0x1 ADD SWAP1 PUSH2 0x3651 JUMP JUMPDEST JUMPDEST POP SWAP1 POP PUSH2 0x367A SWAP2 SWAP1 PUSH2 0x3704 JUMP JUMPDEST POP SWAP1 JUMP JUMPDEST DUP3 DUP1 SLOAD PUSH2 0x368A SWAP1 PUSH2 0x4562 JUMP JUMPDEST SWAP1 PUSH1 0x0 MSTORE PUSH1 0x20 PUSH1 0x0 KECCAK256 SWAP1 PUSH1 0x1F ADD PUSH1 0x20 SWAP1 DIV DUP2 ADD SWAP3 DUP3 PUSH2 0x36AC JUMPI PUSH1 0x0 DUP6 SSTORE PUSH2 0x36F3 JUMP JUMPDEST DUP3 PUSH1 0x1F LT PUSH2 0x36C5 JUMPI DUP1 CALLDATALOAD PUSH1 0xFF NOT AND DUP4 DUP1 ADD OR DUP6 SSTORE PUSH2 0x36F3 JUMP JUMPDEST DUP3 DUP1 ADD PUSH1 0x1 ADD DUP6 SSTORE DUP3 ISZERO PUSH2 0x36F3 JUMPI SWAP2 DUP3 ADD JUMPDEST DUP3 DUP2 GT ISZERO PUSH2 0x36F2 JUMPI DUP3 CALLDATALOAD DUP3 SSTORE SWAP2 PUSH1 0x20 ADD SWAP2 SWAP1 PUSH1 0x1 ADD SWAP1 PUSH2 0x36D7 JUMP JUMPDEST JUMPDEST POP SWAP1 POP PUSH2 0x3700 SWAP2 SWAP1 PUSH2 0x3704 JUMP JUMPDEST POP SWAP1 JUMP JUMPDEST JUMPDEST DUP1 DUP3 GT ISZERO PUSH2 0x371D JUMPI PUSH1 0x0 DUP2 PUSH1 0x0 SWAP1 SSTORE POP PUSH1 0x1 ADD PUSH2 0x3705 JUMP JUMPDEST POP SWAP1 JUMP JUMPDEST PUSH1 0x0 PUSH2 0x3734 PUSH2 0x372F DUP5 PUSH2 0x4228 JUMP JUMPDEST PUSH2 0x4203 JUMP JUMPDEST SWAP1 POP DUP3 DUP2 MSTORE PUSH1 0x20 DUP2 ADD DUP5 DUP5 DUP5 ADD GT ISZERO PUSH2 0x3750 JUMPI PUSH2 0x374F PUSH2 0x46E9 JUMP JUMPDEST JUMPDEST PUSH2 0x375B DUP5 DUP3 DUP6 PUSH2 0x4520 JUMP JUMPDEST POP SWAP4 SWAP3 POP POP POP JUMP JUMPDEST PUSH1 0x0 DUP2 CALLDATALOAD SWAP1 POP PUSH2 0x3772 DUP2 PUSH2 0x4A68 JUMP JUMPDEST SWAP3 SWAP2 POP POP JUMP JUMPDEST PUSH1 0x0 DUP2 CALLDATALOAD SWAP1 POP PUSH2 0x3787 DUP2 PUSH2 0x4A7F JUMP JUMPDEST SWAP3 SWAP2 POP POP JUMP JUMPDEST PUSH1 0x0 DUP2 CALLDATALOAD SWAP1 POP PUSH2 0x379C DUP2 PUSH2 0x4A8F JUMP JUMPDEST SWAP3 SWAP2 POP POP JUMP JUMPDEST PUSH1 0x0 DUP1 DUP4 PUSH1 0x1F DUP5 ADD SLT PUSH2 0x37B8 JUMPI PUSH2 0x37B7 PUSH2 0x46DF JUMP JUMPDEST JUMPDEST DUP3 CALLDATALOAD SWAP1 POP PUSH8 0xFFFFFFFFFFFFFFFF DUP2 GT ISZERO PUSH2 0x37D5 JUMPI PUSH2 0x37D4 PUSH2 0x46DA JUMP JUMPDEST JUMPDEST PUSH1 0x20 DUP4 ADD SWAP2 POP DUP4 PUSH1 0x1 DUP3 MUL DUP4 ADD GT ISZERO PUSH2 0x37F1 JUMPI PUSH2 0x37F0 PUSH2 0x46E4 JUMP JUMPDEST JUMPDEST SWAP3 POP SWAP3 SWAP1 POP JUMP JUMPDEST PUSH1 0x0 DUP3 PUSH1 0x1F DUP4 ADD SLT PUSH2 0x380D JUMPI PUSH2 0x380C PUSH2 0x46DF JUMP JUMPDEST JUMPDEST DUP2 CALLDATALOAD PUSH2 0x381D DUP5 DUP3 PUSH1 0x20 DUP7 ADD PUSH2 0x3721 JUMP JUMPDEST SWAP2 POP POP SWAP3 SWAP2 POP POP JUMP JUMPDEST PUSH1 0x0 DUP2 CALLDATALOAD SWAP1 POP PUSH2 0x3835 DUP2 PUSH2 0x4A9F JUMP JUMPDEST SWAP3 SWAP2 POP POP JUMP JUMPDEST PUSH1 0x0 DUP2 CALLDATALOAD SWAP1 POP PUSH2 0x384A DUP2 PUSH2 0x4AB6 JUMP JUMPDEST SWAP3 SWAP2 POP POP JUMP JUMPDEST PUSH1 0x0 DUP2 CALLDATALOAD SWAP1 POP PUSH2 0x385F DUP2 PUSH2 0x4ACD JUMP JUMPDEST SWAP3 SWAP2 POP POP JUMP JUMPDEST PUSH1 0x0 PUSH1 0x20 DUP3 DUP5 SUB SLT ISZERO PUSH2 0x387B JUMPI PUSH2 0x387A PUSH2 0x46F3 JUMP JUMPDEST JUMPDEST PUSH1 0x0 PUSH2 0x3889 DUP5 DUP3 DUP6 ADD PUSH2 0x3763 JUMP JUMPDEST SWAP2 POP POP SWAP3 SWAP2 POP POP JUMP JUMPDEST PUSH1 0x0 PUSH1 0x20 DUP3 DUP5 SUB SLT ISZERO PUSH2 0x38A8 JUMPI PUSH2 0x38A7 PUSH2 0x46F3 JUMP JUMPDEST JUMPDEST PUSH1 0x0 PUSH2 0x38B6 DUP5 DUP3 DUP6 ADD PUSH2 0x3778 JUMP JUMPDEST SWAP2 POP POP SWAP3 SWAP2 POP POP JUMP JUMPDEST PUSH1 0x0 DUP1 PUSH1 0x0 DUP1 PUSH1 0x60 DUP6 DUP8 SUB SLT ISZERO PUSH2 0x38D9 JUMPI PUSH2 0x38D8 PUSH2 0x46F3 JUMP JUMPDEST JUMPDEST PUSH1 0x0 PUSH2 0x38E7 DUP8 DUP3 DUP9 ADD PUSH2 0x378D JUMP JUMPDEST SWAP5 POP POP PUSH1 0x20 PUSH2 0x38F8 DUP8 DUP3 DUP9 ADD PUSH2 0x383B JUMP JUMPDEST SWAP4 POP POP PUSH1 0x40 DUP6 ADD CALLDATALOAD PUSH8 0xFFFFFFFFFFFFFFFF DUP2 GT ISZERO PUSH2 0x3919 JUMPI PUSH2 0x3918 PUSH2 0x46EE JUMP JUMPDEST JUMPDEST PUSH2 0x3925 DUP8 DUP3 DUP9 ADD PUSH2 0x37A2 JUMP JUMPDEST SWAP3 POP SWAP3 POP POP SWAP3 SWAP6 SWAP2 SWAP5 POP SWAP3 POP JUMP JUMPDEST PUSH1 0x0 PUSH1 0x20 DUP3 DUP5 SUB SLT ISZERO PUSH2 0x3949 JUMPI PUSH2 0x3948 PUSH2 0x46F3 JUMP JUMPDEST JUMPDEST PUSH1 0x0 DUP3 ADD CALLDATALOAD PUSH8 0xFFFFFFFFFFFFFFFF DUP2 GT ISZERO PUSH2 0x3967 JUMPI PUSH2 0x3966 PUSH2 0x46EE JUMP JUMPDEST JUMPDEST PUSH2 0x3973 DUP5 DUP3 DUP6 ADD PUSH2 0x37F8 JUMP JUMPDEST SWAP2 POP POP SWAP3 SWAP2 POP POP JUMP JUMPDEST PUSH1 0x0 PUSH1 0x20 DUP3 DUP5 SUB SLT ISZERO PUSH2 0x3992 JUMPI PUSH2 0x3991 PUSH2 0x46F3 JUMP JUMPDEST JUMPDEST PUSH1 0x0 PUSH2 0x39A0 DUP5 DUP3 DUP6 ADD PUSH2 0x3826 JUMP JUMPDEST SWAP2 POP POP SWAP3 SWAP2 POP POP JUMP JUMPDEST PUSH1 0x0 PUSH1 0x20 DUP3 DUP5 SUB SLT ISZERO PUSH2 0x39BF JUMPI PUSH2 0x39BE PUSH2 0x46F3 JUMP JUMPDEST JUMPDEST PUSH1 0x0 PUSH2 0x39CD DUP5 DUP3 DUP6 ADD PUSH2 0x3850 JUMP JUMPDEST SWAP2 POP POP SWAP3 SWAP2 POP POP JUMP JUMPDEST PUSH1 0x0 PUSH2 0x39E2 DUP4 DUP4 PUSH2 0x3DA8 JUMP JUMPDEST SWAP1 POP SWAP3 SWAP2 POP POP JUMP JUMPDEST PUSH2 0x39F3 DUP2 PUSH2 0x4488 JUMP JUMPDEST DUP3 MSTORE POP POP JUMP JUMPDEST PUSH2 0x3A02 DUP2 PUSH2 0x4488 JUMP JUMPDEST DUP3 MSTORE POP POP JUMP JUMPDEST PUSH1 0x0 PUSH2 0x3A13 DUP3 PUSH2 0x427E JUMP JUMPDEST PUSH2 0x3A1D DUP2 DUP6 PUSH2 0x42A1 JUMP JUMPDEST SWAP4 POP DUP4 PUSH1 0x20 DUP3 MUL DUP6 ADD PUSH2 0x3A2F DUP6 PUSH2 0x4259 JUMP JUMPDEST DUP1 PUSH1 0x0 JUMPDEST DUP6 DUP2 LT ISZERO PUSH2 0x3A6B JUMPI DUP5 DUP5 SUB DUP10 MSTORE DUP2 MLOAD PUSH2 0x3A4C DUP6 DUP3 PUSH2 0x39D6 JUMP JUMPDEST SWAP5 POP PUSH2 0x3A57 DUP4 PUSH2 0x4294 JUMP JUMPDEST SWAP3 POP PUSH1 0x20 DUP11 ADD SWAP10 POP POP PUSH1 0x1 DUP2 ADD SWAP1 POP PUSH2 0x3A33 JUMP JUMPDEST POP DUP3 SWAP8 POP DUP8 SWAP6 POP POP POP POP POP POP SWAP3 SWAP2 POP POP JUMP JUMPDEST PUSH2 0x3A86 DUP2 PUSH2 0x449A JUMP JUMPDEST DUP3 MSTORE POP POP JUMP JUMPDEST PUSH2 0x3A95 DUP2 PUSH2 0x450E JUMP JUMPDEST DUP3 MSTORE POP POP JUMP JUMPDEST PUSH2 0x3AA4 DUP2 PUSH2 0x450E JUMP JUMPDEST DUP3 MSTORE POP POP JUMP JUMPDEST PUSH1 0x0 PUSH2 0x3AB5 DUP3 PUSH2 0x4289 JUMP JUMPDEST PUSH2 0x3ABF DUP2 DUP6 PUSH2 0x42B2 JUMP JUMPDEST SWAP4 POP PUSH2 0x3ACF DUP2 DUP6 PUSH1 0x20 DUP7 ADD PUSH2 0x452F JUMP JUMPDEST PUSH2 0x3AD8 DUP2 PUSH2 0x46F8 JUMP JUMPDEST DUP5 ADD SWAP2 POP POP SWAP3 SWAP2 POP POP JUMP JUMPDEST PUSH1 0x0 PUSH2 0x3AEE DUP3 PUSH2 0x4289 JUMP JUMPDEST PUSH2 0x3AF8 DUP2 DUP6 PUSH2 0x42C3 JUMP JUMPDEST SWAP4 POP PUSH2 0x3B08 DUP2 DUP6 PUSH1 0x20 DUP7 ADD PUSH2 0x452F JUMP JUMPDEST PUSH2 0x3B11 DUP2 PUSH2 0x46F8 JUMP JUMPDEST DUP5 ADD SWAP2 POP POP SWAP3 SWAP2 POP POP JUMP JUMPDEST PUSH1 0x0 DUP2 SLOAD PUSH2 0x3B29 DUP2 PUSH2 0x4562 JUMP JUMPDEST PUSH2 0x3B33 DUP2 DUP7 PUSH2 0x42D4 JUMP JUMPDEST SWAP5 POP PUSH1 0x1 DUP3 AND PUSH1 0x0 DUP2 EQ PUSH2 0x3B4E JUMPI PUSH1 0x1 DUP2 EQ PUSH2 0x3B5F JUMPI PUSH2 0x3B92 JUMP JUMPDEST PUSH1 0xFF NOT DUP4 AND DUP7 MSTORE DUP2 DUP7 ADD SWAP4 POP PUSH2 0x3B92 JUMP JUMPDEST PUSH2 0x3B68 DUP6 PUSH2 0x4269 JUMP JUMPDEST PUSH1 0x0 JUMPDEST DUP4 DUP2 LT ISZERO PUSH2 0x3B8A JUMPI DUP2 SLOAD DUP2 DUP10 ADD MSTORE PUSH1 0x1 DUP3 ADD SWAP2 POP PUSH1 0x20 DUP2 ADD SWAP1 POP PUSH2 0x3B6B JUMP JUMPDEST DUP4 DUP9 ADD SWAP6 POP POP POP JUMPDEST POP POP POP SWAP3 SWAP2 POP POP JUMP JUMPDEST PUSH1 0x0 PUSH2 0x3BA8 PUSH1 0x13 DUP4 PUSH2 0x42C3 JUMP JUMPDEST SWAP2 POP PUSH2 0x3BB3 DUP3 PUSH2 0x4709 JUMP JUMPDEST PUSH1 0x20 DUP3 ADD SWAP1 POP SWAP2 SWAP1 POP JUMP JUMPDEST PUSH1 0x0 PUSH2 0x3BCB PUSH1 0x2D DUP4 PUSH2 0x42C3 JUMP JUMPDEST SWAP2 POP PUSH2 0x3BD6 DUP3 PUSH2 0x4732 JUMP JUMPDEST PUSH1 0x40 DUP3 ADD SWAP1 POP SWAP2 SWAP1 POP JUMP JUMPDEST PUSH1 0x0 PUSH2 0x3BEE PUSH1 0x26 DUP4 PUSH2 0x42C3 JUMP JUMPDEST SWAP2 POP PUSH2 0x3BF9 DUP3 PUSH2 0x4781 JUMP JUMPDEST PUSH1 0x40 DUP3 ADD SWAP1 POP SWAP2 SWAP1 POP JUMP JUMPDEST PUSH1 0x0 PUSH2 0x3C11 PUSH1 0x12 DUP4 PUSH2 0x42C3 JUMP JUMPDEST SWAP2 POP PUSH2 0x3C1C DUP3 PUSH2 0x47D0 JUMP JUMPDEST PUSH1 0x20 DUP3 ADD SWAP1 POP SWAP2 SWAP1 POP JUMP JUMPDEST PUSH1 0x0 PUSH2 0x3C34 PUSH1 0x21 DUP4 PUSH2 0x42C3 JUMP JUMPDEST SWAP2 POP PUSH2 0x3C3F DUP3 PUSH2 0x47F9 JUMP JUMPDEST PUSH1 0x40 DUP3 ADD SWAP1 POP SWAP2 SWAP1 POP JUMP JUMPDEST PUSH1 0x0 PUSH2 0x3C57 PUSH1 0x21 DUP4 PUSH2 0x42C3 JUMP JUMPDEST SWAP2 POP PUSH2 0x3C62 DUP3 PUSH2 0x4848 JUMP JUMPDEST PUSH1 0x40 DUP3 ADD SWAP1 POP SWAP2 SWAP1 POP JUMP JUMPDEST PUSH1 0x0 PUSH2 0x3C7A PUSH1 0xA DUP4 PUSH2 0x42D4 JUMP JUMPDEST SWAP2 POP PUSH2 0x3C85 DUP3 PUSH2 0x4897 JUMP JUMPDEST PUSH1 0xA DUP3 ADD SWAP1 POP SWAP2 SWAP1 POP JUMP JUMPDEST PUSH1 0x0 PUSH2 0x3C9D PUSH1 0x20 DUP4 PUSH2 0x42C3 JUMP JUMPDEST SWAP2 POP PUSH2 0x3CA8 DUP3 PUSH2 0x48C0 JUMP JUMPDEST PUSH1 0x20 DUP3 ADD SWAP1 POP SWAP2 SWAP1 POP JUMP JUMPDEST PUSH1 0x0 PUSH2 0x3CC0 PUSH1 0x14 DUP4 PUSH2 0x42C3 JUMP JUMPDEST SWAP2 POP PUSH2 0x3CCB DUP3 PUSH2 0x48E9 JUMP JUMPDEST PUSH1 0x20 DUP3 ADD SWAP1 POP SWAP2 SWAP1 POP JUMP JUMPDEST PUSH1 0x0 PUSH2 0x3CE3 PUSH1 0x2C DUP4 PUSH2 0x42C3 JUMP JUMPDEST SWAP2 POP PUSH2 0x3CEE DUP3 PUSH2 0x4912 JUMP JUMPDEST PUSH1 0x40 DUP3 ADD SWAP1 POP SWAP2 SWAP1 POP JUMP JUMPDEST PUSH1 0x0 PUSH2 0x3D06 PUSH1 0x15 DUP4 PUSH2 0x42C3 JUMP JUMPDEST SWAP2 POP PUSH2 0x3D11 DUP3 PUSH2 0x4961 JUMP JUMPDEST PUSH1 0x20 DUP3 ADD SWAP1 POP SWAP2 SWAP1 POP JUMP JUMPDEST PUSH1 0x0 PUSH2 0x3D29 PUSH1 0x1C DUP4 PUSH2 0x42C3 JUMP JUMPDEST SWAP2 POP PUSH2 0x3D34 DUP3 PUSH2 0x498A JUMP JUMPDEST PUSH1 0x20 DUP3 ADD SWAP1 POP SWAP2 SWAP1 POP JUMP JUMPDEST PUSH1 0x0 PUSH2 0x3D4C PUSH1 0x20 DUP4 PUSH2 0x42C3 JUMP JUMPDEST SWAP2 POP PUSH2 0x3D57 DUP3 PUSH2 0x49B3 JUMP JUMPDEST PUSH1 0x20 DUP3 ADD SWAP1 POP SWAP2 SWAP1 POP JUMP JUMPDEST PUSH1 0x0 PUSH2 0x3D6F PUSH1 0x39 DUP4 PUSH2 0x42C3 JUMP JUMPDEST SWAP2 POP PUSH2 0x3D7A DUP3 PUSH2 0x49DC JUMP JUMPDEST PUSH1 0x40 DUP3 ADD SWAP1 POP SWAP2 SWAP1 POP JUMP JUMPDEST PUSH1 0x0 PUSH2 0x3D92 PUSH1 0x14 DUP4 PUSH2 0x42C3 JUMP JUMPDEST SWAP2 POP PUSH2 0x3D9D DUP3 PUSH2 0x4A2B JUMP JUMPDEST PUSH1 0x20 DUP3 ADD SWAP1 POP SWAP2 SWAP1 POP JUMP JUMPDEST PUSH1 0x0 PUSH2 0x120 DUP4 ADD PUSH1 0x0 DUP4 ADD MLOAD PUSH2 0x3DC1 PUSH1 0x0 DUP7 ADD DUP3 PUSH2 0x3E6D JUMP JUMPDEST POP PUSH1 0x20 DUP4 ADD MLOAD DUP5 DUP3 SUB PUSH1 0x20 DUP7 ADD MSTORE PUSH2 0x3DD9 DUP3 DUP3 PUSH2 0x3AAA JUMP JUMPDEST SWAP2 POP POP PUSH1 0x40 DUP4 ADD MLOAD PUSH2 0x3DEE PUSH1 0x40 DUP7 ADD DUP3 PUSH2 0x3EA9 JUMP JUMPDEST POP PUSH1 0x60 DUP4 ADD MLOAD PUSH2 0x3E01 PUSH1 0x60 DUP7 ADD DUP3 PUSH2 0x3EA9 JUMP JUMPDEST POP PUSH1 0x80 DUP4 ADD MLOAD PUSH2 0x3E14 PUSH1 0x80 DUP7 ADD DUP3 PUSH2 0x39EA JUMP JUMPDEST POP PUSH1 0xA0 DUP4 ADD MLOAD PUSH2 0x3E27 PUSH1 0xA0 DUP7 ADD DUP3 PUSH2 0x3E8B JUMP JUMPDEST POP PUSH1 0xC0 DUP4 ADD MLOAD PUSH2 0x3E3A PUSH1 0xC0 DUP7 ADD DUP3 PUSH2 0x3E8B JUMP JUMPDEST POP PUSH1 0xE0 DUP4 ADD MLOAD PUSH2 0x3E4D PUSH1 0xE0 DUP7 ADD DUP3 PUSH2 0x3E8B JUMP JUMPDEST POP PUSH2 0x100 DUP4 ADD MLOAD PUSH2 0x3E62 PUSH2 0x100 DUP7 ADD DUP3 PUSH2 0x3A8C JUMP JUMPDEST POP DUP1 SWAP2 POP POP SWAP3 SWAP2 POP POP JUMP JUMPDEST PUSH2 0x3E76 DUP2 PUSH2 0x44B9 JUMP JUMPDEST DUP3 MSTORE POP POP JUMP JUMPDEST PUSH2 0x3E85 DUP2 PUSH2 0x44B9 JUMP JUMPDEST DUP3 MSTORE POP POP JUMP JUMPDEST PUSH2 0x3E94 DUP2 PUSH2 0x44E7 JUMP JUMPDEST DUP3 MSTORE POP POP JUMP JUMPDEST PUSH2 0x3EA3 DUP2 PUSH2 0x44E7 JUMP JUMPDEST DUP3 MSTORE POP POP JUMP JUMPDEST PUSH2 0x3EB2 DUP2 PUSH2 0x44F1 JUMP JUMPDEST DUP3 MSTORE POP POP JUMP JUMPDEST PUSH2 0x3EC1 DUP2 PUSH2 0x44F1 JUMP JUMPDEST DUP3 MSTORE POP POP JUMP JUMPDEST PUSH2 0x3ED0 DUP2 PUSH2 0x4501 JUMP JUMPDEST DUP3 MSTORE POP POP JUMP JUMPDEST PUSH1 0x0 PUSH2 0x3EE1 DUP3 PUSH2 0x3C6D JUMP JUMPDEST SWAP2 POP PUSH2 0x3EED DUP3 DUP5 PUSH2 0x3B1C JUMP JUMPDEST SWAP2 POP DUP2 SWAP1 POP SWAP3 SWAP2 POP POP JUMP JUMPDEST PUSH1 0x0 PUSH1 0x20 DUP3 ADD SWAP1 POP PUSH2 0x3F0D PUSH1 0x0 DUP4 ADD DUP5 PUSH2 0x39F9 JUMP JUMPDEST SWAP3 SWAP2 POP POP JUMP JUMPDEST PUSH1 0x0 PUSH1 0x20 DUP3 ADD SWAP1 POP DUP2 DUP2 SUB PUSH1 0x0 DUP4 ADD MSTORE PUSH2 0x3F2D DUP2 DUP5 PUSH2 0x3A08 JUMP JUMPDEST SWAP1 POP SWAP3 SWAP2 POP POP JUMP JUMPDEST PUSH1 0x0 PUSH1 0x20 DUP3 ADD SWAP1 POP PUSH2 0x3F4A PUSH1 0x0 DUP4 ADD DUP5 PUSH2 0x3A7D JUMP JUMPDEST SWAP3 SWAP2 POP POP JUMP JUMPDEST PUSH1 0x0 PUSH1 0x20 DUP3 ADD SWAP1 POP DUP2 DUP2 SUB PUSH1 0x0 DUP4 ADD MSTORE PUSH2 0x3F69 DUP2 PUSH2 0x3B9B JUMP JUMPDEST SWAP1 POP SWAP2 SWAP1 POP JUMP JUMPDEST PUSH1 0x0 PUSH1 0x20 DUP3 ADD SWAP1 POP DUP2 DUP2 SUB PUSH1 0x0 DUP4 ADD MSTORE PUSH2 0x3F89 DUP2 PUSH2 0x3BBE JUMP JUMPDEST SWAP1 POP SWAP2 SWAP1 POP JUMP JUMPDEST PUSH1 0x0 PUSH1 0x20 DUP3 ADD SWAP1 POP DUP2 DUP2 SUB PUSH1 0x0 DUP4 ADD MSTORE PUSH2 0x3FA9 DUP2 PUSH2 0x3BE1 JUMP JUMPDEST SWAP1 POP SWAP2 SWAP1 POP JUMP JUMPDEST PUSH1 0x0 PUSH1 0x20 DUP3 ADD SWAP1 POP DUP2 DUP2 SUB PUSH1 0x0 DUP4 ADD MSTORE PUSH2 0x3FC9 DUP2 PUSH2 0x3C04 JUMP JUMPDEST SWAP1 POP SWAP2 SWAP1 POP JUMP JUMPDEST PUSH1 0x0 PUSH1 0x20 DUP3 ADD SWAP1 POP DUP2 DUP2 SUB PUSH1 0x0 DUP4 ADD MSTORE PUSH2 0x3FE9 DUP2 PUSH2 0x3C27 JUMP JUMPDEST SWAP1 POP SWAP2 SWAP1 POP JUMP JUMPDEST PUSH1 0x0 PUSH1 0x20 DUP3 ADD SWAP1 POP DUP2 DUP2 SUB PUSH1 0x0 DUP4 ADD MSTORE PUSH2 0x4009 DUP2 PUSH2 0x3C4A JUMP JUMPDEST SWAP1 POP SWAP2 SWAP1 POP JUMP JUMPDEST PUSH1 0x0 PUSH1 0x20 DUP3 ADD SWAP1 POP DUP2 DUP2 SUB PUSH1 0x0 DUP4 ADD MSTORE PUSH2 0x4029 DUP2 PUSH2 0x3C90 JUMP JUMPDEST SWAP1 POP SWAP2 SWAP1 POP JUMP JUMPDEST PUSH1 0x0 PUSH1 0x20 DUP3 ADD SWAP1 POP DUP2 DUP2 SUB PUSH1 0x0 DUP4 ADD MSTORE PUSH2 0x4049 DUP2 PUSH2 0x3CB3 JUMP JUMPDEST SWAP1 POP SWAP2 SWAP1 POP JUMP JUMPDEST PUSH1 0x0 PUSH1 0x20 DUP3 ADD SWAP1 POP DUP2 DUP2 SUB PUSH1 0x0 DUP4 ADD MSTORE PUSH2 0x4069 DUP2 PUSH2 0x3CD6 JUMP JUMPDEST SWAP1 POP SWAP2 SWAP1 POP JUMP JUMPDEST PUSH1 0x0 PUSH1 0x20 DUP3 ADD SWAP1 POP DUP2 DUP2 SUB PUSH1 0x0 DUP4 ADD MSTORE PUSH2 0x4089 DUP2 PUSH2 0x3CF9 JUMP JUMPDEST SWAP1 POP SWAP2 SWAP1 POP JUMP JUMPDEST PUSH1 0x0 PUSH1 0x20 DUP3 ADD SWAP1 POP DUP2 DUP2 SUB PUSH1 0x0 DUP4 ADD MSTORE PUSH2 0x40A9 DUP2 PUSH2 0x3D1C JUMP JUMPDEST SWAP1 POP SWAP2 SWAP1 POP JUMP JUMPDEST PUSH1 0x0 PUSH1 0x20 DUP3 ADD SWAP1 POP DUP2 DUP2 SUB PUSH1 0x0 DUP4 ADD MSTORE PUSH2 0x40C9 DUP2 PUSH2 0x3D3F JUMP JUMPDEST SWAP1 POP SWAP2 SWAP1 POP JUMP JUMPDEST PUSH1 0x0 PUSH1 0x20 DUP3 ADD SWAP1 POP DUP2 DUP2 SUB PUSH1 0x0 DUP4 ADD MSTORE PUSH2 0x40E9 DUP2 PUSH2 0x3D62 JUMP JUMPDEST SWAP1 POP SWAP2 SWAP1 POP JUMP JUMPDEST PUSH1 0x0 PUSH1 0x20 DUP3 ADD SWAP1 POP DUP2 DUP2 SUB PUSH1 0x0 DUP4 ADD MSTORE PUSH2 0x4109 DUP2 PUSH2 0x3D85 JUMP JUMPDEST SWAP1 POP SWAP2 SWAP1 POP JUMP JUMPDEST PUSH1 0x0 PUSH1 0x20 DUP3 ADD SWAP1 POP PUSH2 0x4125 PUSH1 0x0 DUP4 ADD DUP5 PUSH2 0x3E7C JUMP JUMPDEST SWAP3 SWAP2 POP POP JUMP JUMPDEST PUSH1 0x0 PUSH2 0x120 DUP3 ADD SWAP1 POP PUSH2 0x4141 PUSH1 0x0 DUP4 ADD DUP13 PUSH2 0x3E7C JUMP JUMPDEST DUP2 DUP2 SUB PUSH1 0x20 DUP4 ADD MSTORE PUSH2 0x4153 DUP2 DUP12 PUSH2 0x3AE3 JUMP JUMPDEST SWAP1 POP PUSH2 0x4162 PUSH1 0x40 DUP4 ADD DUP11 PUSH2 0x3EB8 JUMP JUMPDEST PUSH2 0x416F PUSH1 0x60 DUP4 ADD DUP10 PUSH2 0x3EB8 JUMP JUMPDEST PUSH2 0x417C PUSH1 0x80 DUP4 ADD DUP9 PUSH2 0x39F9 JUMP JUMPDEST PUSH2 0x4189 PUSH1 0xA0 DUP4 ADD DUP8 PUSH2 0x3E9A JUMP JUMPDEST PUSH2 0x4196 PUSH1 0xC0 DUP4 ADD DUP7 PUSH2 0x3E9A JUMP JUMPDEST PUSH2 0x41A3 PUSH1 0xE0 DUP4 ADD DUP6 PUSH2 0x3E9A JUMP JUMPDEST PUSH2 0x41B1 PUSH2 0x100 DUP4 ADD DUP5 PUSH2 0x3A9B JUMP JUMPDEST SWAP11 SWAP10 POP POP POP POP POP POP POP POP POP POP JUMP JUMPDEST PUSH1 0x0 PUSH1 0x40 DUP3 ADD SWAP1 POP PUSH2 0x41D4 PUSH1 0x0 DUP4 ADD DUP6 PUSH2 0x3EB8 JUMP JUMPDEST PUSH2 0x41E1 PUSH1 0x20 DUP4 ADD DUP5 PUSH2 0x3EB8 JUMP JUMPDEST SWAP4 SWAP3 POP POP POP JUMP JUMPDEST PUSH1 0x0 PUSH1 0x20 DUP3 ADD SWAP1 POP PUSH2 0x41FD PUSH1 0x0 DUP4 ADD DUP5 PUSH2 0x3EC7 JUMP JUMPDEST SWAP3 SWAP2 POP POP JUMP JUMPDEST PUSH1 0x0 PUSH2 0x420D PUSH2 0x421E JUMP JUMPDEST SWAP1 POP PUSH2 0x4219 DUP3 DUP3 PUSH2 0x4594 JUMP JUMPDEST SWAP2 SWAP1 POP JUMP JUMPDEST PUSH1 0x0 PUSH1 0x40 MLOAD SWAP1 POP SWAP1 JUMP JUMPDEST PUSH1 0x0 PUSH8 0xFFFFFFFFFFFFFFFF DUP3 GT ISZERO PUSH2 0x4243 JUMPI PUSH2 0x4242 PUSH2 0x46AB JUMP JUMPDEST JUMPDEST PUSH2 0x424C DUP3 PUSH2 0x46F8 JUMP JUMPDEST SWAP1 POP PUSH1 0x20 DUP2 ADD SWAP1 POP SWAP2 SWAP1 POP JUMP JUMPDEST PUSH1 0x0 DUP2 SWAP1 POP PUSH1 0x20 DUP3 ADD SWAP1 POP SWAP2 SWAP1 POP JUMP JUMPDEST PUSH1 0x0 DUP2 SWAP1 POP DUP2 PUSH1 0x0 MSTORE PUSH1 0x20 PUSH1 0x0 KECCAK256 SWAP1 POP SWAP2 SWAP1 POP JUMP JUMPDEST PUSH1 0x0 DUP2 MLOAD SWAP1 POP SWAP2 SWAP1 POP JUMP JUMPDEST PUSH1 0x0 DUP2 MLOAD SWAP1 POP SWAP2 SWAP1 POP JUMP JUMPDEST PUSH1 0x0 PUSH1 0x20 DUP3 ADD SWAP1 POP SWAP2 SWAP1 POP JUMP JUMPDEST PUSH1 0x0 DUP3 DUP3 MSTORE PUSH1 0x20 DUP3 ADD SWAP1 POP SWAP3 SWAP2 POP POP JUMP JUMPDEST PUSH1 0x0 DUP3 DUP3 MSTORE PUSH1 0x20 DUP3 ADD SWAP1 POP SWAP3 SWAP2 POP POP JUMP JUMPDEST PUSH1 0x0 DUP3 DUP3 MSTORE PUSH1 0x20 DUP3 ADD SWAP1 POP SWAP3 SWAP2 POP POP JUMP JUMPDEST PUSH1 0x0 DUP2 SWAP1 POP SWAP3 SWAP2 POP POP JUMP JUMPDEST PUSH1 0x0 PUSH2 0x42EA DUP3 PUSH2 0x44B9 JUMP JUMPDEST SWAP2 POP PUSH2 0x42F5 DUP4 PUSH2 0x44B9 JUMP JUMPDEST SWAP3 POP DUP3 PUSH2 0xFFFF SUB DUP3 GT ISZERO PUSH2 0x430C JUMPI PUSH2 0x430B PUSH2 0x45EF JUMP JUMPDEST JUMPDEST DUP3 DUP3 ADD SWAP1 POP SWAP3 SWAP2 POP POP JUMP JUMPDEST PUSH1 0x0 PUSH2 0x4322 DUP3 PUSH2 0x44E7 JUMP JUMPDEST SWAP2 POP PUSH2 0x432D DUP4 PUSH2 0x44E7 JUMP JUMPDEST SWAP3 POP DUP3 PUSH32 0xFFFFFFFFFFFFFFFFFFFFFFFFFFFFFFFFFFFFFFFFFFFFFFFFFFFFFFFFFFFFFFFF SUB DUP3 GT ISZERO PUSH2 0x4362 JUMPI PUSH2 0x4361 PUSH2 0x45EF JUMP JUMPDEST JUMPDEST DUP3 DUP3 ADD SWAP1 POP SWAP3 SWAP2 POP POP JUMP JUMPDEST PUSH1 0x0 PUSH2 0x4378 DUP3 PUSH2 0x44F1 JUMP JUMPDEST SWAP2 POP PUSH2 0x4383 DUP4 PUSH2 0x44F1 JUMP JUMPDEST SWAP3 POP DUP3 PUSH4 0xFFFFFFFF SUB DUP3 GT ISZERO PUSH2 0x439C JUMPI PUSH2 0x439B PUSH2 0x45EF JUMP JUMPDEST JUMPDEST DUP3 DUP3 ADD SWAP1 POP SWAP3 SWAP2 POP POP JUMP JUMPDEST PUSH1 0x0 PUSH2 0x43B2 DUP3 PUSH2 0x44F1 JUMP JUMPDEST SWAP2 POP PUSH2 0x43BD DUP4 PUSH2 0x44F1 JUMP JUMPDEST SWAP3 POP DUP2 PUSH4 0xFFFFFFFF DIV DUP4 GT DUP3 ISZERO ISZERO AND ISZERO PUSH2 0x43DA JUMPI PUSH2 0x43D9 PUSH2 0x45EF JUMP JUMPDEST JUMPDEST DUP3 DUP3 MUL SWAP1 POP SWAP3 SWAP2 POP POP JUMP JUMPDEST PUSH1 0x0 PUSH2 0x43F0 DUP3 PUSH2 0x4501 JUMP JUMPDEST SWAP2 POP PUSH2 0x43FB DUP4 PUSH2 0x4501 JUMP JUMPDEST SWAP3 POP DUP2 PUSH1 0xFF DIV DUP4 GT DUP3 ISZERO ISZERO AND ISZERO PUSH2 0x4415 JUMPI PUSH2 0x4414 PUSH2 0x45EF JUMP JUMPDEST JUMPDEST DUP3 DUP3 MUL SWAP1 POP SWAP3 SWAP2 POP POP JUMP JUMPDEST PUSH1 0x0 PUSH2 0x442B DUP3 PUSH2 0x44B9 JUMP JUMPDEST SWAP2 POP PUSH2 0x4436 DUP4 PUSH2 0x44B9 JUMP JUMPDEST SWAP3 POP DUP3 DUP3 LT ISZERO PUSH2 0x4449 JUMPI PUSH2 0x4448 PUSH2 0x45EF JUMP JUMPDEST JUMPDEST DUP3 DUP3 SUB SWAP1 POP SWAP3 SWAP2 POP POP JUMP JUMPDEST PUSH1 0x0 PUSH2 0x445F DUP3 PUSH2 0x4501 JUMP JUMPDEST SWAP2 POP PUSH2 0x446A DUP4 PUSH2 0x4501 JUMP JUMPDEST SWAP3 POP DUP3 DUP3 LT ISZERO PUSH2 0x447D JUMPI PUSH2 0x447C PUSH2 0x45EF JUMP JUMPDEST JUMPDEST DUP3 DUP3 SUB SWAP1 POP SWAP3 SWAP2 POP POP JUMP JUMPDEST PUSH1 0x0 PUSH2 0x4493 DUP3 PUSH2 0x44C7 JUMP JUMPDEST SWAP1 POP SWAP2 SWAP1 POP JUMP JUMPDEST PUSH1 0x0 DUP2 ISZERO ISZERO SWAP1 POP SWAP2 SWAP1 POP JUMP JUMPDEST PUSH1 0x0 DUP2 SWAP1 POP PUSH2 0x44B4 DUP3 PUSH2 0x4A54 JUMP JUMPDEST SWAP2 SWAP1 POP JUMP JUMPDEST PUSH1 0x0 PUSH2 0xFFFF DUP3 AND SWAP1 POP SWAP2 SWAP1 POP JUMP JUMPDEST PUSH1 0x0 PUSH20 0xFFFFFFFFFFFFFFFFFFFFFFFFFFFFFFFFFFFFFFFF DUP3 AND SWAP1 POP SWAP2 SWAP1 POP JUMP JUMPDEST PUSH1 0x0 DUP2 SWAP1 POP SWAP2 SWAP1 POP JUMP JUMPDEST PUSH1 0x0 PUSH4 0xFFFFFFFF DUP3 AND SWAP1 POP SWAP2 SWAP1 POP JUMP JUMPDEST PUSH1 0x0 PUSH1 0xFF DUP3 AND SWAP1 POP SWAP2 SWAP1 POP JUMP JUMPDEST PUSH1 0x0 PUSH2 0x4519 DUP3 PUSH2 0x44A6 JUMP JUMPDEST SWAP1 POP SWAP2 SWAP1 POP JUMP JUMPDEST DUP3 DUP2 DUP4 CALLDATACOPY PUSH1 0x0 DUP4 DUP4 ADD MSTORE POP POP POP JUMP JUMPDEST PUSH1 0x0 JUMPDEST DUP4 DUP2 LT ISZERO PUSH2 0x454D JUMPI DUP1 DUP3 ADD MLOAD DUP2 DUP5 ADD MSTORE PUSH1 0x20 DUP2 ADD SWAP1 POP PUSH2 0x4532 JUMP JUMPDEST DUP4 DUP2 GT ISZERO PUSH2 0x455C JUMPI PUSH1 0x0 DUP5 DUP5 ADD MSTORE JUMPDEST POP POP POP POP JUMP JUMPDEST PUSH1 0x0 PUSH1 0x2 DUP3 DIV SWAP1 POP PUSH1 0x1 DUP3 AND DUP1 PUSH2 0x457A JUMPI PUSH1 0x7F DUP3 AND SWAP2 POP JUMPDEST PUSH1 0x20 DUP3 LT DUP2 EQ ISZERO PUSH2 0x458E JUMPI PUSH2 0x458D PUSH2 0x464D JUMP JUMPDEST JUMPDEST POP SWAP2 SWAP1 POP JUMP JUMPDEST PUSH2 0x459D DUP3 PUSH2 0x46F8 JUMP JUMPDEST DUP2 ADD DUP2 DUP2 LT PUSH8 0xFFFFFFFFFFFFFFFF DUP3 GT OR ISZERO PUSH2 0x45BC JUMPI PUSH2 0x45BB PUSH2 0x46AB JUMP JUMPDEST JUMPDEST DUP1 PUSH1 0x40 MSTORE POP POP POP JUMP JUMPDEST PUSH1 0x0 PUSH2 0x45D0 DUP3 PUSH2 0x4501 JUMP JUMPDEST SWAP2 POP PUSH1 0xFF DUP3 EQ ISZERO PUSH2 0x45E4 JUMPI PUSH2 0x45E3 PUSH2 0x45EF JUMP JUMPDEST JUMPDEST PUSH1 0x1 DUP3 ADD SWAP1 POP SWAP2 SWAP1 POP JUMP JUMPDEST PUSH32 0x4E487B7100000000000000000000000000000000000000000000000000000000 PUSH1 0x0 MSTORE PUSH1 0x11 PUSH1 0x4 MSTORE PUSH1 0x24 PUSH1 0x0 REVERT JUMPDEST PUSH32 0x4E487B7100000000000000000000000000000000000000000000000000000000 PUSH1 0x0 MSTORE PUSH1 0x21 PUSH1 0x4 MSTORE PUSH1 0x24 PUSH1 0x0 REVERT JUMPDEST PUSH32 0x4E487B7100000000000000000000000000000000000000000000000000000000 PUSH1 0x0 MSTORE PUSH1 0x22 PUSH1 0x4 MSTORE PUSH1 0x24 PUSH1 0x0 REVERT JUMPDEST PUSH32 0x4E487B7100000000000000000000000000000000000000000000000000000000 PUSH1 0x0 MSTORE PUSH1 0x32 PUSH1 0x4 MSTORE PUSH1 0x24 PUSH1 0x0 REVERT JUMPDEST PUSH32 0x4E487B7100000000000000000000000000000000000000000000000000000000 PUSH1 0x0 MSTORE PUSH1 0x41 PUSH1 0x4 MSTORE PUSH1 0x24 PUSH1 0x0 REVERT JUMPDEST PUSH1 0x0 DUP1 REVERT JUMPDEST PUSH1 0x0 DUP1 REVERT JUMPDEST PUSH1 0x0 DUP1 REVERT JUMPDEST PUSH1 0x0 DUP1 REVERT JUMPDEST PUSH1 0x0 DUP1 REVERT JUMPDEST PUSH1 0x0 DUP1 REVERT JUMPDEST PUSH1 0x0 PUSH1 0x1F NOT PUSH1 0x1F DUP4 ADD AND SWAP1 POP SWAP2 SWAP1 POP JUMP JUMPDEST PUSH32 0x596F7520617265206E6F74206120766F74657200000000000000000000000000 PUSH1 0x0 DUP3 ADD MSTORE POP JUMP JUMPDEST PUSH32 0x43757272656E746C7920776520617265206E6F7420766F74696E67206F6E2074 PUSH1 0x0 DUP3 ADD MSTORE PUSH32 0x6869732066756E6374696F6E2E00000000000000000000000000000000000000 PUSH1 0x20 DUP3 ADD MSTORE POP JUMP JUMPDEST PUSH32 0x4F776E61626C653A206E6577206F776E657220697320746865207A65726F2061 PUSH1 0x0 DUP3 ADD MSTORE PUSH32 0x6464726573730000000000000000000000000000000000000000000000000000 PUSH1 0x20 DUP3 ADD MSTORE POP JUMP JUMPDEST PUSH32 0x5468657265206973206E6F20766F74696E670000000000000000000000000000 PUSH1 0x0 DUP3 ADD MSTORE POP JUMP JUMPDEST PUSH32 0x596F7520617265206E6F7420746865204B6579486F6C646572436F6E74726163 PUSH1 0x0 DUP3 ADD MSTORE PUSH32 0x7400000000000000000000000000000000000000000000000000000000000000 PUSH1 0x20 DUP3 ADD MSTORE POP JUMP JUMPDEST PUSH32 0x476976656E206164647265737320697320616C7265616479206120766F746572 PUSH1 0x0 DUP3 ADD MSTORE PUSH32 0x2E00000000000000000000000000000000000000000000000000000000000000 PUSH1 0x20 DUP3 ADD MSTORE POP JUMP JUMPDEST PUSH32 0x50726F706F73616C3A2000000000000000000000000000000000000000000000 PUSH1 0x0 DUP3 ADD MSTORE POP JUMP JUMPDEST PUSH32 0x4F776E61626C653A2063616C6C6572206973206E6F7420746865206F776E6572 PUSH1 0x0 DUP3 ADD MSTORE POP JUMP JUMPDEST PUSH32 0x5A65726F204164647265737320656E7465726564000000000000000000000000 PUSH1 0x0 DUP3 ADD MSTORE POP JUMP JUMPDEST PUSH32 0x5468657265206973206E6F20766F74696E67206F722C206974206973206E6F74 PUSH1 0x0 DUP3 ADD MSTORE PUSH32 0x20612070726F706F73616C2E0000000000000000000000000000000000000000 PUSH1 0x20 DUP3 ADD MSTORE POP JUMP JUMPDEST PUSH32 0x596F75206861766520766F746564206265666F72650000000000000000000000 PUSH1 0x0 DUP3 ADD MSTORE POP JUMP JUMPDEST PUSH32 0x506C6561736520766F7465206265747765656E203120746F2031302E00000000 PUSH1 0x0 DUP3 ADD MSTORE POP JUMP JUMPDEST PUSH32 0x43757272656E7420766F74696E67206973206E6F7420656E646564207965742E PUSH1 0x0 DUP3 ADD MSTORE POP JUMP JUMPDEST PUSH32 0x4576656E206F776E65722063616E6E6F7420656E6420766F74696E6720626566 PUSH1 0x0 DUP3 ADD MSTORE PUSH32 0x6F7265206974206861732064657369676E6174656420746F2E00000000000000 PUSH1 0x20 DUP3 ADD MSTORE POP JUMP JUMPDEST PUSH32 0x596F7520617265206E6F74206120766F74657272000000000000000000000000 PUSH1 0x0 DUP3 ADD MSTORE POP JUMP JUMPDEST PUSH1 0x4 DUP2 LT PUSH2 0x4A65 JUMPI PUSH2 0x4A64 PUSH2 0x461E JUMP JUMPDEST JUMPDEST POP JUMP JUMPDEST PUSH2 0x4A71 DUP2 PUSH2 0x4488 JUMP JUMPDEST DUP2 EQ PUSH2 0x4A7C JUMPI PUSH1 0x0 DUP1 REVERT JUMPDEST POP JUMP JUMPDEST PUSH1 0x2 DUP2 LT PUSH2 0x4A8C JUMPI PUSH1 0x0 DUP1 REVERT JUMPDEST POP JUMP JUMPDEST PUSH1 0x4 DUP2 LT PUSH2 0x4A9C JUMPI PUSH1 0x0 DUP1 REVERT JUMPDEST POP JUMP JUMPDEST PUSH2 0x4AA8 DUP2 PUSH2 0x44B9 JUMP JUMPDEST DUP2 EQ PUSH2 0x4AB3 JUMPI PUSH1 0x0 DUP1 REVERT JUMPDEST POP JUMP JUMPDEST PUSH2 0x4ABF DUP2 PUSH2 0x44E7 JUMP JUMPDEST DUP2 EQ PUSH2 0x4ACA JUMPI PUSH1 0x0 DUP1 REVERT JUMPDEST POP JUMP JUMPDEST PUSH2 0x4AD6 DUP2 PUSH2 0x4501 JUMP JUMPDEST DUP2 EQ PUSH2 0x4AE1 JUMPI PUSH1 0x0 DUP1 REVERT JUMPDEST POP JUMP INVALID LOG2 PUSH5 0x6970667358 0x22 SLT KECCAK256 PUSH16 0x4D716F64C62F796F733F0E531B160FCA 0xD2 0x5C JUMPDEST DUP6 CREATE DUP16 0xCB ADDRESS BYTE 0xD SELFBALANCE 0xFB REVERT MOD 0xA5 PUSH5 0x736F6C6343 STOP ADDMOD SMOD STOP CALLER "
				},
				"gasEstimates": {
					"creation": {
						"codeDepositCost": "3845200",
						"executionCost": "infinite",
						"totalCost": "infinite"
					},
					"external": {
						"amIVOTER()": "2592",
						"closeProposal()": "infinite",
						"closeVoting()": "infinite",
						"getLastVotings(uint8)": "infinite",
						"giveVotingPower(address)": "infinite",
						"keyHolder()": "2604",
						"openProposal(string)": "infinite",
						"openVoting(uint8,uint256,string)": "infinite",
						"owner()": "2545",
						"renounceOwnership()": "30509",
						"setKeyHolderAddress(address)": "27053",
						"totalVoterCount()": "2560",
						"transferOwnership(address)": "30813",
						"useVotePowerONE_TEN(uint8)": "infinite",
						"useVotePowerProposal(uint8)": "infinite",
						"useVotePowerYesNo(uint8)": "infinite",
						"voteId()": "2631",
						"votings(uint16)": "infinite",
						"whatDidIVote()": "4955"
					},
					"internal": {
						"_closeVoting()": "infinite"
					}
				},
				"methodIdentifiers": {
					"amIVOTER()": "04f397cf",
					"closeProposal()": "48f85451",
					"closeVoting()": "c631b292",
					"getLastVotings(uint8)": "41078167",
					"giveVotingPower(address)": "ea31a64c",
					"keyHolder()": "45e641d0",
					"openProposal(string)": "b0b121fe",
					"openVoting(uint8,uint256,string)": "f546278d",
					"owner()": "8da5cb5b",
					"renounceOwnership()": "715018a6",
					"setKeyHolderAddress(address)": "bf2aba79",
					"totalVoterCount()": "6f71e065",
					"transferOwnership(address)": "f2fde38b",
					"useVotePowerONE_TEN(uint8)": "6208ac9c",
					"useVotePowerProposal(uint8)": "25bc7747",
					"useVotePowerYesNo(uint8)": "4ddb37e1",
					"voteId()": "fbb39651",
					"votings(uint16)": "ddd2d1fd",
					"whatDidIVote()": "da92d1d9"
				}
			},
			"storageLayout": {
				"storage": [
					{
						"astId": 7,
						"contract": "contracts/Vote/VoterContract.sol:VoterContract",
						"label": "_owner",
						"offset": 0,
						"slot": "0",
						"type": "t_address"
					},
					{
						"astId": 141,
						"contract": "contracts/Vote/VoterContract.sol:VoterContract",
						"label": "keyHolder",
						"offset": 0,
						"slot": "1",
						"type": "t_address"
					},
					{
						"astId": 187,
						"contract": "contracts/Vote/VoterContract.sol:VoterContract",
						"label": "voteId",
						"offset": 20,
						"slot": "1",
						"type": "t_uint16"
					},
					{
						"astId": 191,
						"contract": "contracts/Vote/VoterContract.sol:VoterContract",
						"label": "__VOTERS__",
						"offset": 0,
						"slot": "2",
						"type": "t_mapping(t_address,t_bool)"
					},
					{
						"astId": 197,
						"contract": "contracts/Vote/VoterContract.sol:VoterContract",
						"label": "votePower",
						"offset": 0,
						"slot": "3",
						"type": "t_mapping(t_uint16,t_mapping(t_address,t_uint8))"
					},
					{
						"astId": 202,
						"contract": "contracts/Vote/VoterContract.sol:VoterContract",
						"label": "votings",
						"offset": 0,
						"slot": "4",
						"type": "t_mapping(t_uint16,t_struct(Voting)169_storage)"
					},
					{
						"astId": 205,
						"contract": "contracts/Vote/VoterContract.sol:VoterContract",
						"label": "totalVoterCount",
						"offset": 0,
						"slot": "5",
						"type": "t_uint16"
					}
				],
				"types": {
					"t_address": {
						"encoding": "inplace",
						"label": "address",
						"numberOfBytes": "20"
					},
					"t_bool": {
						"encoding": "inplace",
						"label": "bool",
						"numberOfBytes": "1"
					},
					"t_enum(VotingType)146": {
						"encoding": "inplace",
						"label": "enum VoterContract.VotingType",
						"numberOfBytes": "1"
					},
					"t_mapping(t_address,t_bool)": {
						"encoding": "mapping",
						"key": "t_address",
						"label": "mapping(address => bool)",
						"numberOfBytes": "32",
						"value": "t_bool"
					},
					"t_mapping(t_address,t_uint8)": {
						"encoding": "mapping",
						"key": "t_address",
						"label": "mapping(address => uint8)",
						"numberOfBytes": "32",
						"value": "t_uint8"
					},
					"t_mapping(t_uint16,t_mapping(t_address,t_uint8))": {
						"encoding": "mapping",
						"key": "t_uint16",
						"label": "mapping(uint16 => mapping(address => uint8))",
						"numberOfBytes": "32",
						"value": "t_mapping(t_address,t_uint8)"
					},
					"t_mapping(t_uint16,t_struct(Voting)169_storage)": {
						"encoding": "mapping",
						"key": "t_uint16",
						"label": "mapping(uint16 => struct VoterContract.Voting)",
						"numberOfBytes": "32",
						"value": "t_struct(Voting)169_storage"
					},
					"t_string_storage": {
						"encoding": "bytes",
						"label": "string",
						"numberOfBytes": "32"
					},
					"t_struct(Voting)169_storage": {
						"encoding": "inplace",
						"label": "struct VoterContract.Voting",
						"members": [
							{
								"astId": 151,
								"contract": "contracts/Vote/VoterContract.sol:VoterContract",
								"label": "id",
								"offset": 0,
								"slot": "0",
								"type": "t_uint16"
							},
							{
								"astId": 153,
								"contract": "contracts/Vote/VoterContract.sol:VoterContract",
								"label": "topic",
								"offset": 0,
								"slot": "1",
								"type": "t_string_storage"
							},
							{
								"astId": 155,
								"contract": "contracts/Vote/VoterContract.sol:VoterContract",
								"label": "voted",
								"offset": 0,
								"slot": "2",
								"type": "t_uint32"
							},
							{
								"astId": 157,
								"contract": "contracts/Vote/VoterContract.sol:VoterContract",
								"label": "result",
								"offset": 4,
								"slot": "2",
								"type": "t_uint32"
							},
							{
								"astId": 159,
								"contract": "contracts/Vote/VoterContract.sol:VoterContract",
								"label": "proposer",
								"offset": 8,
								"slot": "2",
								"type": "t_address"
							},
							{
								"astId": 161,
								"contract": "contracts/Vote/VoterContract.sol:VoterContract",
								"label": "blockNumberStarted",
								"offset": 0,
								"slot": "3",
								"type": "t_uint256"
							},
							{
								"astId": 163,
								"contract": "contracts/Vote/VoterContract.sol:VoterContract",
								"label": "blockNumberWillNotEndBefore",
								"offset": 0,
								"slot": "4",
								"type": "t_uint256"
							},
							{
								"astId": 165,
								"contract": "contracts/Vote/VoterContract.sol:VoterContract",
								"label": "blockNumberClosed",
								"offset": 0,
								"slot": "5",
								"type": "t_uint256"
							},
							{
								"astId": 168,
								"contract": "contracts/Vote/VoterContract.sol:VoterContract",
								"label": "votingType",
								"offset": 0,
								"slot": "6",
								"type": "t_enum(VotingType)146"
							}
						],
						"numberOfBytes": "224"
					},
					"t_uint16": {
						"encoding": "inplace",
						"label": "uint16",
						"numberOfBytes": "2"
					},
					"t_uint256": {
						"encoding": "inplace",
						"label": "uint256",
						"numberOfBytes": "32"
					},
					"t_uint32": {
						"encoding": "inplace",
						"label": "uint32",
						"numberOfBytes": "4"
					},
					"t_uint8": {
						"encoding": "inplace",
						"label": "uint8",
						"numberOfBytes": "1"
					}
				}
			},
			"userdoc": {
				"kind": "user",
				"methods": {},
				"version": 1
			}
		}
	}
}