{
	"contracts/Vote/VoterContract.sol": {
		"VoterContract": {
			"abi": [
				{
					"anonymous": false,
					"inputs": [
						{
							"indexed": true,
							"internalType": "address",
							"name": "previousOwner",
							"type": "address"
						},
						{
							"indexed": true,
							"internalType": "address",
							"name": "newOwner",
							"type": "address"
						}
					],
					"name": "OwnershipTransferred",
					"type": "event"
				},
				{
					"anonymous": false,
					"inputs": [
						{
							"indexed": true,
							"internalType": "uint16",
							"name": "proposalId",
							"type": "uint16"
						},
						{
							"indexed": false,
							"internalType": "string",
							"name": "topic",
							"type": "string"
						},
						{
							"indexed": false,
							"internalType": "uint32",
							"name": "voted",
							"type": "uint32"
						},
						{
							"indexed": false,
							"internalType": "uint32",
							"name": "result",
							"type": "uint32"
						}
					],
					"name": "ProposalEnded",
					"type": "event"
				},
				{
					"anonymous": false,
					"inputs": [
						{
							"indexed": true,
							"internalType": "uint16",
							"name": "proposalId",
							"type": "uint16"
						},
						{
							"indexed": false,
							"internalType": "string",
							"name": "topic",
							"type": "string"
						}
					],
					"name": "ProposalStarted",
					"type": "event"
				},
				{
					"anonymous": false,
					"inputs": [
						{
							"indexed": true,
							"internalType": "uint16",
							"name": "voteId",
							"type": "uint16"
						},
						{
							"indexed": false,
							"internalType": "string",
							"name": "topic",
							"type": "string"
						},
						{
							"indexed": false,
							"internalType": "uint32",
							"name": "voted",
							"type": "uint32"
						},
						{
							"indexed": false,
							"internalType": "uint32",
							"name": "result",
							"type": "uint32"
						}
					],
					"name": "VotingEnded",
					"type": "event"
				},
				{
					"anonymous": false,
					"inputs": [
						{
							"indexed": true,
							"internalType": "uint16",
							"name": "voteId",
							"type": "uint16"
						},
						{
							"indexed": false,
							"internalType": "string",
							"name": "topic",
							"type": "string"
						}
					],
					"name": "VotingStarted",
					"type": "event"
				},
				{
					"inputs": [],
					"name": "amIVOTER",
					"outputs": [
						{
							"internalType": "bool",
							"name": "",
							"type": "bool"
						}
					],
					"stateMutability": "view",
					"type": "function"
				},
				{
					"inputs": [
						{
							"internalType": "uint16",
							"name": "id",
							"type": "uint16"
						}
					],
					"name": "closeProposal",
					"outputs": [],
					"stateMutability": "nonpayable",
					"type": "function"
				},
				{
					"inputs": [
						{
							"internalType": "uint16",
							"name": "id",
							"type": "uint16"
						}
					],
					"name": "closeVoting",
					"outputs": [],
					"stateMutability": "nonpayable",
					"type": "function"
				},
				{
					"inputs": [
						{
							"internalType": "uint16",
							"name": "skip",
							"type": "uint16"
						},
						{
							"internalType": "uint16",
							"name": "take",
							"type": "uint16"
						}
					],
					"name": "getProposals",
					"outputs": [
						{
							"components": [
								{
									"internalType": "uint16",
									"name": "id",
									"type": "uint16"
								},
								{
									"internalType": "string",
									"name": "topic",
									"type": "string"
								},
								{
									"internalType": "uint32",
									"name": "voted",
									"type": "uint32"
								},
								{
									"internalType": "uint32",
									"name": "result",
									"type": "uint32"
								},
								{
									"internalType": "address",
									"name": "proposer",
									"type": "address"
								},
								{
									"internalType": "uint256",
									"name": "blockNumberStarted",
									"type": "uint256"
								},
								{
									"internalType": "uint256",
									"name": "blockNumberWillNotEndBefore",
									"type": "uint256"
								},
								{
									"internalType": "uint256",
									"name": "blockNumberClosed",
									"type": "uint256"
								},
								{
									"internalType": "enum VoterContract.VotingType",
									"name": "proposalType",
									"type": "uint8"
								}
							],
							"internalType": "struct VoterContract.Proposal[]",
							"name": "",
							"type": "tuple[]"
						}
					],
					"stateMutability": "view",
					"type": "function"
				},
				{
					"inputs": [
						{
							"internalType": "uint8",
							"name": "skip",
							"type": "uint8"
						},
						{
							"internalType": "uint8",
							"name": "take",
							"type": "uint8"
						}
					],
					"name": "getVotings",
					"outputs": [
						{
							"components": [
								{
									"internalType": "uint16",
									"name": "id",
									"type": "uint16"
								},
								{
									"internalType": "string",
									"name": "topic",
									"type": "string"
								},
								{
									"internalType": "uint32",
									"name": "voted",
									"type": "uint32"
								},
								{
									"internalType": "uint32",
									"name": "result",
									"type": "uint32"
								},
								{
									"internalType": "address",
									"name": "proposer",
									"type": "address"
								},
								{
									"internalType": "uint256",
									"name": "blockNumberStarted",
									"type": "uint256"
								},
								{
									"internalType": "uint256",
									"name": "blockNumberWillNotEndBefore",
									"type": "uint256"
								},
								{
									"internalType": "uint256",
									"name": "blockNumberClosed",
									"type": "uint256"
								},
								{
									"internalType": "enum VoterContract.VotingType",
									"name": "votingType",
									"type": "uint8"
								}
							],
							"internalType": "struct VoterContract.Voting[]",
							"name": "",
							"type": "tuple[]"
						}
					],
					"stateMutability": "view",
					"type": "function"
				},
				{
					"inputs": [
						{
							"internalType": "address",
							"name": "voterAddress",
							"type": "address"
						}
					],
					"name": "giveVotingPower",
					"outputs": [],
					"stateMutability": "nonpayable",
					"type": "function"
				},
				{
					"inputs": [],
					"name": "keyHolder",
					"outputs": [
						{
							"internalType": "address",
							"name": "",
							"type": "address"
						}
					],
					"stateMutability": "view",
					"type": "function"
				},
				{
					"inputs": [
						{
							"internalType": "enum VoterContract.VotingType",
							"name": "_proposalType",
							"type": "uint8"
						},
						{
							"internalType": "string",
							"name": "_topic",
							"type": "string"
						}
					],
					"name": "openProposal",
					"outputs": [],
					"stateMutability": "nonpayable",
					"type": "function"
				},
				{
					"inputs": [],
					"name": "owner",
					"outputs": [
						{
							"internalType": "address",
							"name": "",
							"type": "address"
						}
					],
					"stateMutability": "view",
					"type": "function"
				},
				{
					"inputs": [],
					"name": "proposalId",
					"outputs": [
						{
							"internalType": "uint16",
							"name": "",
							"type": "uint16"
						}
					],
					"stateMutability": "view",
					"type": "function"
				},
				{
					"inputs": [
						{
							"internalType": "uint16",
							"name": "",
							"type": "uint16"
						}
					],
					"name": "proposals",
					"outputs": [
						{
							"internalType": "uint16",
							"name": "id",
							"type": "uint16"
						},
						{
							"internalType": "string",
							"name": "topic",
							"type": "string"
						},
						{
							"internalType": "uint32",
							"name": "voted",
							"type": "uint32"
						},
						{
							"internalType": "uint32",
							"name": "result",
							"type": "uint32"
						},
						{
							"internalType": "address",
							"name": "proposer",
							"type": "address"
						},
						{
							"internalType": "uint256",
							"name": "blockNumberStarted",
							"type": "uint256"
						},
						{
							"internalType": "uint256",
							"name": "blockNumberWillNotEndBefore",
							"type": "uint256"
						},
						{
							"internalType": "uint256",
							"name": "blockNumberClosed",
							"type": "uint256"
						},
						{
							"internalType": "enum VoterContract.VotingType",
							"name": "proposalType",
							"type": "uint8"
						}
					],
					"stateMutability": "view",
					"type": "function"
				},
				{
					"inputs": [],
					"name": "renounceOwnership",
					"outputs": [],
					"stateMutability": "nonpayable",
					"type": "function"
				},
				{
					"inputs": [
						{
							"internalType": "address",
							"name": "adr",
							"type": "address"
						}
					],
					"name": "setKeyHolderAddress",
					"outputs": [],
					"stateMutability": "nonpayable",
					"type": "function"
				},
				{
					"inputs": [],
					"name": "totalVoterCount",
					"outputs": [
						{
							"internalType": "uint16",
							"name": "",
							"type": "uint16"
						}
					],
					"stateMutability": "view",
					"type": "function"
				},
				{
					"inputs": [
						{
							"internalType": "address",
							"name": "newOwner",
							"type": "address"
						}
					],
					"name": "transferOwnership",
					"outputs": [],
					"stateMutability": "nonpayable",
					"type": "function"
				},
				{
					"inputs": [
						{
							"internalType": "uint16",
							"name": "id",
							"type": "uint16"
						},
						{
							"internalType": "uint8",
							"name": "vote",
							"type": "uint8"
						}
					],
					"name": "useVotePowerOne2Ten",
					"outputs": [],
					"stateMutability": "nonpayable",
					"type": "function"
				},
				{
					"inputs": [
						{
							"internalType": "uint16",
							"name": "id",
							"type": "uint16"
						},
						{
							"internalType": "uint8",
							"name": "vote",
							"type": "uint8"
						}
					],
					"name": "useVotePowerProposalOne2Ten",
					"outputs": [],
					"stateMutability": "nonpayable",
					"type": "function"
				},
				{
					"inputs": [
						{
							"internalType": "uint16",
							"name": "id",
							"type": "uint16"
						},
						{
							"internalType": "enum VoterContract.NoYes",
							"name": "vote",
							"type": "uint8"
						}
					],
					"name": "useVotePowerProposalYesNo",
					"outputs": [],
					"stateMutability": "nonpayable",
					"type": "function"
				},
				{
					"inputs": [
						{
							"internalType": "uint16",
							"name": "id",
							"type": "uint16"
						},
						{
							"internalType": "enum VoterContract.NoYes",
							"name": "vote",
							"type": "uint8"
						}
					],
					"name": "useVotePowerYesNo",
					"outputs": [],
					"stateMutability": "nonpayable",
					"type": "function"
				},
				{
					"inputs": [],
					"name": "voteId",
					"outputs": [
						{
							"internalType": "uint16",
							"name": "",
							"type": "uint16"
						}
					],
					"stateMutability": "view",
					"type": "function"
				},
				{
					"inputs": [
						{
							"internalType": "uint16",
							"name": "",
							"type": "uint16"
						}
					],
					"name": "votings",
					"outputs": [
						{
							"internalType": "uint16",
							"name": "id",
							"type": "uint16"
						},
						{
							"internalType": "string",
							"name": "topic",
							"type": "string"
						},
						{
							"internalType": "uint32",
							"name": "voted",
							"type": "uint32"
						},
						{
							"internalType": "uint32",
							"name": "result",
							"type": "uint32"
						},
						{
							"internalType": "address",
							"name": "proposer",
							"type": "address"
						},
						{
							"internalType": "uint256",
							"name": "blockNumberStarted",
							"type": "uint256"
						},
						{
							"internalType": "uint256",
							"name": "blockNumberWillNotEndBefore",
							"type": "uint256"
						},
						{
							"internalType": "uint256",
							"name": "blockNumberClosed",
							"type": "uint256"
						},
						{
							"internalType": "enum VoterContract.VotingType",
							"name": "votingType",
							"type": "uint8"
						}
					],
					"stateMutability": "view",
					"type": "function"
				},
				{
					"inputs": [],
					"name": "whatDidIVote",
					"outputs": [
						{
							"internalType": "uint8",
							"name": "",
							"type": "uint8"
						}
					],
					"stateMutability": "view",
					"type": "function"
				}
			],
			"devdoc": {
				"kind": "dev",
				"methods": {
					"owner()": {
						"details": "Returns the address of the current owner."
					},
					"renounceOwnership()": {
						"details": "Leaves the contract without owner. It will not be possible to call `onlyOwner` functions. Can only be called by the current owner. NOTE: Renouncing ownership will leave the contract without an owner, thereby disabling any functionality that is only available to the owner."
					},
					"transferOwnership(address)": {
						"details": "Transfers ownership of the contract to a new account (`newOwner`). Can only be called by the current owner."
					}
				},
				"version": 1
			},
			"evm": {
				"assembly": "    /* \"contracts/Vote/VoterContract.sol\":120:9711  contract VoterContract is Ownable{\r... */\n  mstore(0x40, 0x80)\n    /* \"contracts/Vote/VoterContract.sol\":1644:1645  0 */\n  0x00\n    /* \"contracts/Vote/VoterContract.sol\":1621:1645  uint16 public voteId = 0 */\n  0x07\n  exp(0x0100, 0x00)\n  dup2\n  sload\n  dup2\n  0xffff\n  mul\n  not\n  and\n  swap1\n  dup4\n  0xffff\n  and\n  mul\n  or\n  swap1\n  sstore\n  pop\n    /* \"contracts/Vote/VoterContract.sol\":1679:1680  0 */\n  0x00\n    /* \"contracts/Vote/VoterContract.sol\":1652:1680  uint16 public proposalId = 0 */\n  0x07\n  exp(0x0100, 0x02)\n  dup2\n  sload\n  dup2\n  0xffff\n  mul\n  not\n  and\n  swap1\n  dup4\n  0xffff\n  and\n  mul\n  or\n  swap1\n  sstore\n  pop\n    /* \"contracts/Vote/VoterContract.sol\":1722:1723  0 */\n  0x00\n    /* \"contracts/Vote/VoterContract.sol\":1689:1723  uint16 public  totalVoterCount = 0 */\n  0x07\n  exp(0x0100, 0x04)\n  dup2\n  sload\n  dup2\n  0xffff\n  mul\n  not\n  and\n  swap1\n  dup4\n  0xffff\n  and\n  mul\n  or\n  swap1\n  sstore\n  pop\n    /* \"contracts/Vote/VoterContract.sol\":120:9711  contract VoterContract is Ownable{\r... */\n  callvalue\n  dup1\n  iszero\n  tag_1\n  jumpi\n  0x00\n  dup1\n  revert\ntag_1:\n  pop\n    /* \"@openzeppelin/contracts/access/Ownable.sol\":936:968  _transferOwnership(_msgSender()) */\n  tag_4\n    /* \"@openzeppelin/contracts/access/Ownable.sol\":955:967  _msgSender() */\n  tag_5\n    /* \"@openzeppelin/contracts/access/Ownable.sol\":955:965  _msgSender */\n  shl(0x20, tag_6)\n    /* \"@openzeppelin/contracts/access/Ownable.sol\":955:967  _msgSender() */\n  0x20\n  shr\n  jump\t// in\ntag_5:\n    /* \"@openzeppelin/contracts/access/Ownable.sol\":936:954  _transferOwnership */\n  shl(0x20, tag_7)\n    /* \"@openzeppelin/contracts/access/Ownable.sol\":936:968  _transferOwnership(_msgSender()) */\n  0x20\n  shr\n  jump\t// in\ntag_4:\n    /* \"contracts/Vote/VoterContract.sol\":120:9711  contract VoterContract is Ownable{\r... */\n  jump(tag_8)\n    /* \"@openzeppelin/contracts/utils/Context.sol\":640:736  function _msgSender() internal view virtual returns (address) {... */\ntag_6:\n    /* \"@openzeppelin/contracts/utils/Context.sol\":693:700  address */\n  0x00\n    /* \"@openzeppelin/contracts/utils/Context.sol\":719:729  msg.sender */\n  caller\n    /* \"@openzeppelin/contracts/utils/Context.sol\":712:729  return msg.sender */\n  swap1\n  pop\n    /* \"@openzeppelin/contracts/utils/Context.sol\":640:736  function _msgSender() internal view virtual returns (address) {... */\n  swap1\n  jump\t// out\n    /* \"@openzeppelin/contracts/access/Ownable.sol\":2426:2613  function _transferOwnership(address newOwner) internal virtual {... */\ntag_7:\n    /* \"@openzeppelin/contracts/access/Ownable.sol\":2499:2515  address oldOwner */\n  0x00\n    /* \"@openzeppelin/contracts/access/Ownable.sol\":2518:2524  _owner */\n  dup1\n  0x00\n  swap1\n  sload\n  swap1\n  0x0100\n  exp\n  swap1\n  div\n  0xffffffffffffffffffffffffffffffffffffffff\n  and\n    /* \"@openzeppelin/contracts/access/Ownable.sol\":2499:2524  address oldOwner = _owner */\n  swap1\n  pop\n    /* \"@openzeppelin/contracts/access/Ownable.sol\":2543:2551  newOwner */\n  dup2\n    /* \"@openzeppelin/contracts/access/Ownable.sol\":2534:2540  _owner */\n  0x00\n  dup1\n    /* \"@openzeppelin/contracts/access/Ownable.sol\":2534:2551  _owner = newOwner */\n  0x0100\n  exp\n  dup2\n  sload\n  dup2\n  0xffffffffffffffffffffffffffffffffffffffff\n  mul\n  not\n  and\n  swap1\n  dup4\n  0xffffffffffffffffffffffffffffffffffffffff\n  and\n  mul\n  or\n  swap1\n  sstore\n  pop\n    /* \"@openzeppelin/contracts/access/Ownable.sol\":2597:2605  newOwner */\n  dup2\n    /* \"@openzeppelin/contracts/access/Ownable.sol\":2566:2606  OwnershipTransferred(oldOwner, newOwner) */\n  0xffffffffffffffffffffffffffffffffffffffff\n  and\n    /* \"@openzeppelin/contracts/access/Ownable.sol\":2587:2595  oldOwner */\n  dup2\n    /* \"@openzeppelin/contracts/access/Ownable.sol\":2566:2606  OwnershipTransferred(oldOwner, newOwner) */\n  0xffffffffffffffffffffffffffffffffffffffff\n  and\n  0x8be0079c531659141344cd1fd0a4f28419497f9722a3daafe3b4186f6b6457e0\n  mload(0x40)\n  mload(0x40)\n  dup1\n  swap2\n  sub\n  swap1\n  log3\n    /* \"@openzeppelin/contracts/access/Ownable.sol\":2489:2613  {... */\n  pop\n    /* \"@openzeppelin/contracts/access/Ownable.sol\":2426:2613  function _transferOwnership(address newOwner) internal virtual {... */\n  pop\n  jump\t// out\n    /* \"contracts/Vote/VoterContract.sol\":120:9711  contract VoterContract is Ownable{\r... */\ntag_8:\n  dataSize(sub_0)\n  dup1\n  dataOffset(sub_0)\n  0x00\n  codecopy\n  0x00\n  return\nstop\n\nsub_0: assembly {\n        /* \"contracts/Vote/VoterContract.sol\":120:9711  contract VoterContract is Ownable{\r... */\n      mstore(0x40, 0x80)\n      callvalue\n      dup1\n      iszero\n      tag_1\n      jumpi\n      0x00\n      dup1\n      revert\n    tag_1:\n      pop\n      jumpi(tag_2, lt(calldatasize, 0x04))\n      shr(0xe0, calldataload(0x00))\n      dup1\n      0x9ea061c9\n      gt\n      tag_25\n      jumpi\n      dup1\n      0xddd2d1fd\n      gt\n      tag_26\n      jumpi\n      dup1\n      0xddd2d1fd\n      eq\n      tag_19\n      jumpi\n      dup1\n      0xde513e3d\n      eq\n      tag_20\n      jumpi\n      dup1\n      0xea31a64c\n      eq\n      tag_21\n      jumpi\n      dup1\n      0xf2fde38b\n      eq\n      tag_22\n      jumpi\n      dup1\n      0xfae04215\n      eq\n      tag_23\n      jumpi\n      dup1\n      0xfbb39651\n      eq\n      tag_24\n      jumpi\n      jump(tag_2)\n    tag_26:\n      dup1\n      0x9ea061c9\n      eq\n      tag_14\n      jumpi\n      dup1\n      0xbf2aba79\n      eq\n      tag_15\n      jumpi\n      dup1\n      0xc497efa3\n      eq\n      tag_16\n      jumpi\n      dup1\n      0xcf5ebb38\n      eq\n      tag_17\n      jumpi\n      dup1\n      0xda92d1d9\n      eq\n      tag_18\n      jumpi\n      jump(tag_2)\n    tag_25:\n      dup1\n      0x45e641d0\n      gt\n      tag_27\n      jumpi\n      dup1\n      0x45e641d0\n      eq\n      tag_8\n      jumpi\n      dup1\n      0x481aa215\n      eq\n      tag_9\n      jumpi\n      dup1\n      0x4d313bb8\n      eq\n      tag_10\n      jumpi\n      dup1\n      0x6f71e065\n      eq\n      tag_11\n      jumpi\n      dup1\n      0x715018a6\n      eq\n      tag_12\n      jumpi\n      dup1\n      0x8da5cb5b\n      eq\n      tag_13\n      jumpi\n      jump(tag_2)\n    tag_27:\n      dup1\n      0x04f397cf\n      eq\n      tag_3\n      jumpi\n      dup1\n      0x156c2da6\n      eq\n      tag_4\n      jumpi\n      dup1\n      0x1ffc5042\n      eq\n      tag_5\n      jumpi\n      dup1\n      0x2dfca445\n      eq\n      tag_6\n      jumpi\n      dup1\n      0x393a97ef\n      eq\n      tag_7\n      jumpi\n    tag_2:\n      0x00\n      dup1\n      revert\n        /* \"contracts/Vote/VoterContract.sol\":9613:9708  function amIVOTER() external view returns(bool){\r... */\n    tag_3:\n      tag_28\n      tag_29\n      jump\t// in\n    tag_28:\n      mload(0x40)\n      tag_30\n      swap2\n      swap1\n      tag_31\n      jump\t// in\n    tag_30:\n      mload(0x40)\n      dup1\n      swap2\n      sub\n      swap1\n      return\n        /* \"contracts/Vote/VoterContract.sol\":4735:4981  function closeVoting(uint16 id) public isVotingContinuing(id) onlyVoters(msg.sender) {\r... */\n    tag_4:\n      tag_32\n      0x04\n      dup1\n      calldatasize\n      sub\n      dup2\n      add\n      swap1\n      tag_33\n      swap2\n      swap1\n      tag_34\n      jump\t// in\n    tag_33:\n      tag_35\n      jump\t// in\n    tag_32:\n      stop\n        /* \"contracts/Vote/VoterContract.sol\":3673:4466  function openProposal(VotingType _proposalType ,string calldata _topic) public noEmptyString(_topic) onlyVoters(msg.sender){\r... */\n    tag_5:\n      tag_36\n      0x04\n      dup1\n      calldatasize\n      sub\n      dup2\n      add\n      swap1\n      tag_37\n      swap2\n      swap1\n      tag_38\n      jump\t// in\n    tag_37:\n      tag_39\n      jump\t// in\n    tag_36:\n      stop\n        /* \"contracts/Vote/VoterContract.sol\":1652:1680  uint16 public proposalId = 0 */\n    tag_6:\n      tag_40\n      tag_41\n      jump\t// in\n    tag_40:\n      mload(0x40)\n      tag_42\n      swap2\n      swap1\n      tag_43\n      jump\t// in\n    tag_42:\n      mload(0x40)\n      dup1\n      swap2\n      sub\n      swap1\n      return\n        /* \"contracts/Vote/VoterContract.sol\":8890:9492  function getProposals(uint16 skip, uint16 take) external view returns(Proposal[] memory){\r... */\n    tag_7:\n      tag_44\n      0x04\n      dup1\n      calldatasize\n      sub\n      dup2\n      add\n      swap1\n      tag_45\n      swap2\n      swap1\n      tag_46\n      jump\t// in\n    tag_45:\n      tag_47\n      jump\t// in\n    tag_44:\n      mload(0x40)\n      tag_48\n      swap2\n      swap1\n      tag_49\n      jump\t// in\n    tag_48:\n      mload(0x40)\n      dup1\n      swap2\n      sub\n      swap1\n      return\n        /* \"contracts/Vote/VoterContract.sol\":162:186  address public keyHolder */\n    tag_8:\n      tag_50\n      tag_51\n      jump\t// in\n    tag_50:\n      mload(0x40)\n      tag_52\n      swap2\n      swap1\n      tag_53\n      jump\t// in\n    tag_52:\n      mload(0x40)\n      dup1\n      swap2\n      sub\n      swap1\n      return\n        /* \"contracts/Vote/VoterContract.sol\":6431:6905  function useVotePowerYesNo(uint16 id,NoYes vote) external isVotingContinuing(id) onlyNotVotedVoters(id){\r... */\n    tag_9:\n      tag_54\n      0x04\n      dup1\n      calldatasize\n      sub\n      dup2\n      add\n      swap1\n      tag_55\n      swap2\n      swap1\n      tag_56\n      jump\t// in\n    tag_55:\n      tag_57\n      jump\t// in\n    tag_54:\n      stop\n        /* \"contracts/Vote/VoterContract.sol\":6917:7322  function useVotePowerOne2Ten(uint16 id,uint8 vote) external isVotingContinuing(id) onlyNotVotedVoters(id){\r... */\n    tag_10:\n      tag_58\n      0x04\n      dup1\n      calldatasize\n      sub\n      dup2\n      add\n      swap1\n      tag_59\n      swap2\n      swap1\n      tag_60\n      jump\t// in\n    tag_59:\n      tag_61\n      jump\t// in\n    tag_58:\n      stop\n        /* \"contracts/Vote/VoterContract.sol\":1689:1723  uint16 public  totalVoterCount = 0 */\n    tag_11:\n      tag_62\n      tag_63\n      jump\t// in\n    tag_62:\n      mload(0x40)\n      tag_64\n      swap2\n      swap1\n      tag_43\n      jump\t// in\n    tag_64:\n      mload(0x40)\n      dup1\n      swap2\n      sub\n      swap1\n      return\n        /* \"@openzeppelin/contracts/access/Ownable.sol\":1824:1925  function renounceOwnership() public virtual onlyOwner {... */\n    tag_12:\n      tag_65\n      tag_66\n      jump\t// in\n    tag_65:\n      stop\n        /* \"@openzeppelin/contracts/access/Ownable.sol\":1201:1286  function owner() public view virtual returns (address) {... */\n    tag_13:\n      tag_67\n      tag_68\n      jump\t// in\n    tag_67:\n      mload(0x40)\n      tag_69\n      swap2\n      swap1\n      tag_53\n      jump\t// in\n    tag_69:\n      mload(0x40)\n      dup1\n      swap2\n      sub\n      swap1\n      return\n        /* \"contracts/Vote/VoterContract.sol\":7861:8302  function useVotePowerProposalOne2Ten(uint16 id,uint8 vote) external isProposalContinuing(id) onlyNotVotedVoters(id){\r... */\n    tag_14:\n      tag_70\n      0x04\n      dup1\n      calldatasize\n      sub\n      dup2\n      add\n      swap1\n      tag_71\n      swap2\n      swap1\n      tag_60\n      jump\t// in\n    tag_71:\n      tag_72\n      jump\t// in\n    tag_70:\n      stop\n        /* \"contracts/Vote/VoterContract.sol\":3276:3370  function setKeyHolderAddress(address adr) external onlyOwner{\r... */\n    tag_15:\n      tag_73\n      0x04\n      dup1\n      calldatasize\n      sub\n      dup2\n      add\n      swap1\n      tag_74\n      swap2\n      swap1\n      tag_75\n      jump\t// in\n    tag_74:\n      tag_76\n      jump\t// in\n    tag_73:\n      stop\n        /* \"contracts/Vote/VoterContract.sol\":1514:1558  mapping(uint16 => Proposal) public proposals */\n    tag_16:\n      tag_77\n      0x04\n      dup1\n      calldatasize\n      sub\n      dup2\n      add\n      swap1\n      tag_78\n      swap2\n      swap1\n      tag_34\n      jump\t// in\n    tag_78:\n      tag_79\n      jump\t// in\n    tag_77:\n      mload(0x40)\n      tag_80\n      swap10\n      swap9\n      swap8\n      swap7\n      swap6\n      swap5\n      swap4\n      swap3\n      swap2\n      swap1\n      tag_81\n      jump\t// in\n    tag_80:\n      mload(0x40)\n      dup1\n      swap2\n      sub\n      swap1\n      return\n        /* \"contracts/Vote/VoterContract.sol\":7330:7853  function useVotePowerProposalYesNo(uint16 id,NoYes vote) external isProposalContinuing(id) onlyNotVotedVotersForProposal(id){\r... */\n    tag_17:\n      tag_82\n      0x04\n      dup1\n      calldatasize\n      sub\n      dup2\n      add\n      swap1\n      tag_83\n      swap2\n      swap1\n      tag_56\n      jump\t// in\n    tag_83:\n      tag_84\n      jump\t// in\n    tag_82:\n      stop\n        /* \"contracts/Vote/VoterContract.sol\":9500:9607  function whatDidIVote() external view returns(uint8){\r... */\n    tag_18:\n      tag_85\n      tag_86\n      jump\t// in\n    tag_85:\n      mload(0x40)\n      tag_87\n      swap2\n      swap1\n      tag_88\n      jump\t// in\n    tag_87:\n      mload(0x40)\n      dup1\n      swap2\n      sub\n      swap1\n      return\n        /* \"contracts/Vote/VoterContract.sol\":1388:1428  mapping(uint16 => Voting) public votings */\n    tag_19:\n      tag_89\n      0x04\n      dup1\n      calldatasize\n      sub\n      dup2\n      add\n      swap1\n      tag_90\n      swap2\n      swap1\n      tag_34\n      jump\t// in\n    tag_90:\n      tag_91\n      jump\t// in\n    tag_89:\n      mload(0x40)\n      tag_92\n      swap10\n      swap9\n      swap8\n      swap7\n      swap6\n      swap5\n      swap4\n      swap3\n      swap2\n      swap1\n      tag_81\n      jump\t// in\n    tag_92:\n      mload(0x40)\n      dup1\n      swap2\n      sub\n      swap1\n      return\n        /* \"contracts/Vote/VoterContract.sol\":4474:4727  function closeProposal(uint16 id) public isProposalContinuing(id) onlyVoters(msg.sender){\r... */\n    tag_20:\n      tag_93\n      0x04\n      dup1\n      calldatasize\n      sub\n      dup2\n      add\n      swap1\n      tag_94\n      swap2\n      swap1\n      tag_34\n      jump\t// in\n    tag_94:\n      tag_95\n      jump\t// in\n    tag_93:\n      stop\n        /* \"contracts/Vote/VoterContract.sol\":3388:3665  function giveVotingPower(address voterAddress) external onlyKeyHolder noZeroAddress(voterAddress) {\r... */\n    tag_21:\n      tag_96\n      0x04\n      dup1\n      calldatasize\n      sub\n      dup2\n      add\n      swap1\n      tag_97\n      swap2\n      swap1\n      tag_75\n      jump\t// in\n    tag_97:\n      tag_98\n      jump\t// in\n    tag_96:\n      stop\n        /* \"@openzeppelin/contracts/access/Ownable.sol\":2074:2272  function transferOwnership(address newOwner) public virtual onlyOwner {... */\n    tag_22:\n      tag_99\n      0x04\n      dup1\n      calldatasize\n      sub\n      dup2\n      add\n      swap1\n      tag_100\n      swap2\n      swap1\n      tag_75\n      jump\t// in\n    tag_100:\n      tag_101\n      jump\t// in\n    tag_99:\n      stop\n        /* \"contracts/Vote/VoterContract.sol\":8310:8882  function getVotings(uint8 skip, uint8 take) external view returns(Voting[] memory){\r... */\n    tag_23:\n      tag_102\n      0x04\n      dup1\n      calldatasize\n      sub\n      dup2\n      add\n      swap1\n      tag_103\n      swap2\n      swap1\n      tag_104\n      jump\t// in\n    tag_103:\n      tag_105\n      jump\t// in\n    tag_102:\n      mload(0x40)\n      tag_106\n      swap2\n      swap1\n      tag_107\n      jump\t// in\n    tag_106:\n      mload(0x40)\n      dup1\n      swap2\n      sub\n      swap1\n      return\n        /* \"contracts/Vote/VoterContract.sol\":1621:1645  uint16 public voteId = 0 */\n    tag_24:\n      tag_108\n      tag_109\n      jump\t// in\n    tag_108:\n      mload(0x40)\n      tag_110\n      swap2\n      swap1\n      tag_43\n      jump\t// in\n    tag_110:\n      mload(0x40)\n      dup1\n      swap2\n      sub\n      swap1\n      return\n        /* \"contracts/Vote/VoterContract.sol\":9613:9708  function amIVOTER() external view returns(bool){\r... */\n    tag_29:\n        /* \"contracts/Vote/VoterContract.sol\":9655:9659  bool */\n      0x00\n        /* \"contracts/Vote/VoterContract.sol\":9678:9688  __VOTERS__ */\n      0x02\n        /* \"contracts/Vote/VoterContract.sol\":9678:9700  __VOTERS__[msg.sender] */\n      0x00\n        /* \"contracts/Vote/VoterContract.sol\":9689:9699  msg.sender */\n      caller\n        /* \"contracts/Vote/VoterContract.sol\":9678:9700  __VOTERS__[msg.sender] */\n      0xffffffffffffffffffffffffffffffffffffffff\n      and\n      0xffffffffffffffffffffffffffffffffffffffff\n      and\n      dup2\n      mstore\n      0x20\n      add\n      swap1\n      dup2\n      mstore\n      0x20\n      add\n      0x00\n      keccak256\n      0x00\n      swap1\n      sload\n      swap1\n      0x0100\n      exp\n      swap1\n      div\n      0xff\n      and\n        /* \"contracts/Vote/VoterContract.sol\":9671:9700  return __VOTERS__[msg.sender] */\n      swap1\n      pop\n        /* \"contracts/Vote/VoterContract.sol\":9613:9708  function amIVOTER() external view returns(bool){\r... */\n      swap1\n      jump\t// out\n        /* \"contracts/Vote/VoterContract.sol\":4735:4981  function closeVoting(uint16 id) public isVotingContinuing(id) onlyVoters(msg.sender) {\r... */\n    tag_35:\n        /* \"contracts/Vote/VoterContract.sol\":4793:4795  id */\n      dup1\n        /* \"contracts/Vote/VoterContract.sol\":2706:2723  VotingType.Closed */\n      0x00\n        /* \"contracts/Vote/VoterContract.sol\":2682:2723  votings[id].votingType!=VotingType.Closed */\n      0x02\n      dup2\n      gt\n      iszero\n      tag_113\n      jumpi\n      tag_114\n      tag_115\n      jump\t// in\n    tag_114:\n    tag_113:\n        /* \"contracts/Vote/VoterContract.sol\":2682:2689  votings */\n      0x04\n        /* \"contracts/Vote/VoterContract.sol\":2682:2693  votings[id] */\n      0x00\n        /* \"contracts/Vote/VoterContract.sol\":2690:2692  id */\n      dup4\n        /* \"contracts/Vote/VoterContract.sol\":2682:2693  votings[id] */\n      0xffff\n      and\n      0xffff\n      and\n      dup2\n      mstore\n      0x20\n      add\n      swap1\n      dup2\n      mstore\n      0x20\n      add\n      0x00\n      keccak256\n        /* \"contracts/Vote/VoterContract.sol\":2682:2704  votings[id].votingType */\n      0x06\n      add\n      0x00\n      swap1\n      sload\n      swap1\n      0x0100\n      exp\n      swap1\n      div\n      0xff\n      and\n        /* \"contracts/Vote/VoterContract.sol\":2682:2723  votings[id].votingType!=VotingType.Closed */\n      0x02\n      dup2\n      gt\n      iszero\n      tag_116\n      jumpi\n      tag_117\n      tag_115\n      jump\t// in\n    tag_117:\n    tag_116:\n      eq\n      iszero\n        /* \"contracts/Vote/VoterContract.sol\":2674:2745  require(votings[id].votingType!=VotingType.Closed,\"There is no voting\") */\n      tag_118\n      jumpi\n      mload(0x40)\n      0x08c379a000000000000000000000000000000000000000000000000000000000\n      dup2\n      mstore\n      0x04\n      add\n      tag_119\n      swap1\n      tag_120\n      jump\t// in\n    tag_119:\n      mload(0x40)\n      dup1\n      swap2\n      sub\n      swap1\n      revert\n    tag_118:\n        /* \"contracts/Vote/VoterContract.sol\":4808:4818  msg.sender */\n      caller\n        /* \"contracts/Vote/VoterContract.sol\":2140:2150  __VOTERS__ */\n      0x02\n        /* \"contracts/Vote/VoterContract.sol\":2140:2155  __VOTERS__[adr] */\n      0x00\n        /* \"contracts/Vote/VoterContract.sol\":2151:2154  adr */\n      dup3\n        /* \"contracts/Vote/VoterContract.sol\":2140:2155  __VOTERS__[adr] */\n      0xffffffffffffffffffffffffffffffffffffffff\n      and\n      0xffffffffffffffffffffffffffffffffffffffff\n      and\n      dup2\n      mstore\n      0x20\n      add\n      swap1\n      dup2\n      mstore\n      0x20\n      add\n      0x00\n      keccak256\n      0x00\n      swap1\n      sload\n      swap1\n      0x0100\n      exp\n      swap1\n      div\n      0xff\n      and\n        /* \"contracts/Vote/VoterContract.sol\":2132:2179  require(__VOTERS__[adr],\"You are not a voterr\") */\n      tag_122\n      jumpi\n      mload(0x40)\n      0x08c379a000000000000000000000000000000000000000000000000000000000\n      dup2\n      mstore\n      0x04\n      add\n      tag_123\n      swap1\n      tag_124\n      jump\t// in\n    tag_123:\n      mload(0x40)\n      dup1\n      swap2\n      sub\n      swap1\n      revert\n    tag_122:\n        /* \"contracts/Vote/VoterContract.sol\":4853:4860  votings */\n      0x04\n        /* \"contracts/Vote/VoterContract.sol\":4853:4864  votings[id] */\n      0x00\n        /* \"contracts/Vote/VoterContract.sol\":4861:4863  id */\n      dup5\n        /* \"contracts/Vote/VoterContract.sol\":4853:4864  votings[id] */\n      0xffff\n      and\n      0xffff\n      and\n      dup2\n      mstore\n      0x20\n      add\n      swap1\n      dup2\n      mstore\n      0x20\n      add\n      0x00\n      keccak256\n        /* \"contracts/Vote/VoterContract.sol\":4853:4892  votings[id].blockNumberWillNotEndBefore */\n      0x04\n      add\n      sload\n        /* \"contracts/Vote/VoterContract.sol\":4839:4851  block.number */\n      number\n        /* \"contracts/Vote/VoterContract.sol\":4839:4892  block.number>=votings[id].blockNumberWillNotEndBefore */\n      lt\n      iszero\n        /* \"contracts/Vote/VoterContract.sol\":4831:4946  require(block.number>=votings[id].blockNumberWillNotEndBefore,\"Voting cannot be closed before it's designated to.\") */\n      tag_126\n      jumpi\n      mload(0x40)\n      0x08c379a000000000000000000000000000000000000000000000000000000000\n      dup2\n      mstore\n      0x04\n      add\n      tag_127\n      swap1\n      tag_128\n      jump\t// in\n    tag_127:\n      mload(0x40)\n      dup1\n      swap2\n      sub\n      swap1\n      revert\n    tag_126:\n        /* \"contracts/Vote/VoterContract.sol\":4957:4973  _closeVoting(id) */\n      tag_129\n        /* \"contracts/Vote/VoterContract.sol\":4970:4972  id */\n      dup4\n        /* \"contracts/Vote/VoterContract.sol\":4957:4969  _closeVoting */\n      tag_130\n        /* \"contracts/Vote/VoterContract.sol\":4957:4973  _closeVoting(id) */\n      jump\t// in\n    tag_129:\n        /* \"contracts/Vote/VoterContract.sol\":2756:2757  _ */\n      pop\n        /* \"contracts/Vote/VoterContract.sol\":4735:4981  function closeVoting(uint16 id) public isVotingContinuing(id) onlyVoters(msg.sender) {\r... */\n      pop\n      pop\n      jump\t// out\n        /* \"contracts/Vote/VoterContract.sol\":3673:4466  function openProposal(VotingType _proposalType ,string calldata _topic) public noEmptyString(_topic) onlyVoters(msg.sender){\r... */\n    tag_39:\n        /* \"contracts/Vote/VoterContract.sol\":3766:3772  _topic */\n      dup2\n      dup2\n        /* \"contracts/Vote/VoterContract.sol\":1734:1836  modifier noEmptyString(string memory str){\r... */\n      dup1\n      dup1\n      0x1f\n      add\n      0x20\n      dup1\n      swap2\n      div\n      mul\n      0x20\n      add\n      mload(0x40)\n      swap1\n      dup2\n      add\n      0x40\n      mstore\n      dup1\n      swap4\n      swap3\n      swap2\n      swap1\n      dup2\n      dup2\n      mstore\n      0x20\n      add\n      dup4\n      dup4\n      dup1\n      dup3\n      dup5\n      calldatacopy\n      0x00\n      dup2\n      dup5\n      add\n      mstore\n      not(0x1f)\n      0x1f\n      dup3\n      add\n      and\n      swap1\n      pop\n      dup1\n      dup4\n      add\n      swap3\n      pop\n      pop\n      pop\n      pop\n      pop\n      pop\n      pop\n        /* \"contracts/Vote/VoterContract.sol\":1814:1815  0 */\n      0x00\n        /* \"contracts/Vote/VoterContract.sol\":1800:1803  str */\n      dup2\n        /* \"contracts/Vote/VoterContract.sol\":1794:1811  bytes(str).length */\n      mload\n        /* \"contracts/Vote/VoterContract.sol\":1794:1815  bytes(str).length > 0 */\n      gt\n        /* \"contracts/Vote/VoterContract.sol\":1786:1816  require(bytes(str).length > 0) */\n      tag_132\n      jumpi\n      0x00\n      dup1\n      revert\n    tag_132:\n        /* \"contracts/Vote/VoterContract.sol\":3785:3795  msg.sender */\n      caller\n        /* \"contracts/Vote/VoterContract.sol\":2140:2150  __VOTERS__ */\n      0x02\n        /* \"contracts/Vote/VoterContract.sol\":2140:2155  __VOTERS__[adr] */\n      0x00\n        /* \"contracts/Vote/VoterContract.sol\":2151:2154  adr */\n      dup3\n        /* \"contracts/Vote/VoterContract.sol\":2140:2155  __VOTERS__[adr] */\n      0xffffffffffffffffffffffffffffffffffffffff\n      and\n      0xffffffffffffffffffffffffffffffffffffffff\n      and\n      dup2\n      mstore\n      0x20\n      add\n      swap1\n      dup2\n      mstore\n      0x20\n      add\n      0x00\n      keccak256\n      0x00\n      swap1\n      sload\n      swap1\n      0x0100\n      exp\n      swap1\n      div\n      0xff\n      and\n        /* \"contracts/Vote/VoterContract.sol\":2132:2179  require(__VOTERS__[adr],\"You are not a voterr\") */\n      tag_134\n      jumpi\n      mload(0x40)\n      0x08c379a000000000000000000000000000000000000000000000000000000000\n      dup2\n      mstore\n      0x04\n      add\n      tag_135\n      swap1\n      tag_124\n      jump\t// in\n    tag_135:\n      mload(0x40)\n      dup1\n      swap2\n      sub\n      swap1\n      revert\n    tag_134:\n        /* \"contracts/Vote/VoterContract.sol\":3832:3849  VotingType.Closed */\n      0x00\n        /* \"contracts/Vote/VoterContract.sol\":3815:3849  _proposalType != VotingType.Closed */\n      0x02\n      dup2\n      gt\n      iszero\n      tag_137\n      jumpi\n      tag_138\n      tag_115\n      jump\t// in\n    tag_138:\n    tag_137:\n        /* \"contracts/Vote/VoterContract.sol\":3815:3828  _proposalType */\n      dup6\n        /* \"contracts/Vote/VoterContract.sol\":3815:3849  _proposalType != VotingType.Closed */\n      0x02\n      dup2\n      gt\n      iszero\n      tag_139\n      jumpi\n      tag_140\n      tag_115\n      jump\t// in\n    tag_140:\n    tag_139:\n      eq\n      iszero\n        /* \"contracts/Vote/VoterContract.sol\":3807:3901  require(_proposalType != VotingType.Closed,\"Proposal Type cannot be closed at initial state.\") */\n      tag_141\n      jumpi\n      mload(0x40)\n      0x08c379a000000000000000000000000000000000000000000000000000000000\n      dup2\n      mstore\n      0x04\n      add\n      tag_142\n      swap1\n      tag_143\n      jump\t// in\n    tag_142:\n      mload(0x40)\n      dup1\n      swap2\n      sub\n      swap1\n      revert\n    tag_141:\n        /* \"contracts/Vote/VoterContract.sol\":3941:3951  proposalId */\n      0x07\n      0x02\n      swap1\n      sload\n      swap1\n      0x0100\n      exp\n      swap1\n      div\n      0xffff\n      and\n        /* \"contracts/Vote/VoterContract.sol\":3914:3923  proposals */\n      0x06\n        /* \"contracts/Vote/VoterContract.sol\":3914:3935  proposals[proposalId] */\n      0x00\n        /* \"contracts/Vote/VoterContract.sol\":3924:3934  proposalId */\n      0x07\n      0x02\n      swap1\n      sload\n      swap1\n      0x0100\n      exp\n      swap1\n      div\n      0xffff\n      and\n        /* \"contracts/Vote/VoterContract.sol\":3914:3935  proposals[proposalId] */\n      0xffff\n      and\n      0xffff\n      and\n      dup2\n      mstore\n      0x20\n      add\n      swap1\n      dup2\n      mstore\n      0x20\n      add\n      0x00\n      keccak256\n        /* \"contracts/Vote/VoterContract.sol\":3914:3938  proposals[proposalId].id */\n      0x00\n      add\n      0x00\n        /* \"contracts/Vote/VoterContract.sol\":3914:3951  proposals[proposalId].id = proposalId */\n      0x0100\n      exp\n      dup2\n      sload\n      dup2\n      0xffff\n      mul\n      not\n      and\n      swap1\n      dup4\n      0xffff\n      and\n      mul\n      or\n      swap1\n      sstore\n      pop\n        /* \"contracts/Vote/VoterContract.sol\":3992:3998  _topic */\n      dup4\n      dup4\n        /* \"contracts/Vote/VoterContract.sol\":3962:3971  proposals */\n      0x06\n        /* \"contracts/Vote/VoterContract.sol\":3962:3983  proposals[proposalId] */\n      0x00\n        /* \"contracts/Vote/VoterContract.sol\":3972:3982  proposalId */\n      0x07\n      0x02\n      swap1\n      sload\n      swap1\n      0x0100\n      exp\n      swap1\n      div\n      0xffff\n      and\n        /* \"contracts/Vote/VoterContract.sol\":3962:3983  proposals[proposalId] */\n      0xffff\n      and\n      0xffff\n      and\n      dup2\n      mstore\n      0x20\n      add\n      swap1\n      dup2\n      mstore\n      0x20\n      add\n      0x00\n      keccak256\n        /* \"contracts/Vote/VoterContract.sol\":3962:3989  proposals[proposalId].topic */\n      0x01\n      add\n        /* \"contracts/Vote/VoterContract.sol\":3962:3998  proposals[proposalId].topic = _topic */\n      swap2\n      swap1\n      tag_144\n      swap3\n      swap2\n      swap1\n      tag_145\n      jump\t// in\n    tag_144:\n      pop\n        /* \"contracts/Vote/VoterContract.sol\":4041:4042  0 */\n      0x00\n        /* \"contracts/Vote/VoterContract.sol\":4011:4020  proposals */\n      0x06\n        /* \"contracts/Vote/VoterContract.sol\":4011:4032  proposals[proposalId] */\n      0x00\n        /* \"contracts/Vote/VoterContract.sol\":4021:4031  proposalId */\n      0x07\n      0x02\n      swap1\n      sload\n      swap1\n      0x0100\n      exp\n      swap1\n      div\n      0xffff\n      and\n        /* \"contracts/Vote/VoterContract.sol\":4011:4032  proposals[proposalId] */\n      0xffff\n      and\n      0xffff\n      and\n      dup2\n      mstore\n      0x20\n      add\n      swap1\n      dup2\n      mstore\n      0x20\n      add\n      0x00\n      keccak256\n        /* \"contracts/Vote/VoterContract.sol\":4011:4038  proposals[proposalId].voted */\n      0x02\n      add\n      0x00\n        /* \"contracts/Vote/VoterContract.sol\":4011:4042  proposals[proposalId].voted = 0 */\n      0x0100\n      exp\n      dup2\n      sload\n      dup2\n      0xffffffff\n      mul\n      not\n      and\n      swap1\n      dup4\n      0xffffffff\n      and\n      mul\n      or\n      swap1\n      sstore\n      pop\n        /* \"contracts/Vote/VoterContract.sol\":4084:4085  0 */\n      0x00\n        /* \"contracts/Vote/VoterContract.sol\":4053:4062  proposals */\n      0x06\n        /* \"contracts/Vote/VoterContract.sol\":4053:4074  proposals[proposalId] */\n      0x00\n        /* \"contracts/Vote/VoterContract.sol\":4063:4073  proposalId */\n      0x07\n      0x02\n      swap1\n      sload\n      swap1\n      0x0100\n      exp\n      swap1\n      div\n      0xffff\n      and\n        /* \"contracts/Vote/VoterContract.sol\":4053:4074  proposals[proposalId] */\n      0xffff\n      and\n      0xffff\n      and\n      dup2\n      mstore\n      0x20\n      add\n      swap1\n      dup2\n      mstore\n      0x20\n      add\n      0x00\n      keccak256\n        /* \"contracts/Vote/VoterContract.sol\":4053:4081  proposals[proposalId].result */\n      0x02\n      add\n      0x04\n        /* \"contracts/Vote/VoterContract.sol\":4053:4085  proposals[proposalId].result = 0 */\n      0x0100\n      exp\n      dup2\n      sload\n      dup2\n      0xffffffff\n      mul\n      not\n      and\n      swap1\n      dup4\n      0xffffffff\n      and\n      mul\n      or\n      swap1\n      sstore\n      pop\n        /* \"contracts/Vote/VoterContract.sol\":4131:4141  msg.sender */\n      caller\n        /* \"contracts/Vote/VoterContract.sol\":4098:4107  proposals */\n      0x06\n        /* \"contracts/Vote/VoterContract.sol\":4098:4119  proposals[proposalId] */\n      0x00\n        /* \"contracts/Vote/VoterContract.sol\":4108:4118  proposalId */\n      0x07\n      0x02\n      swap1\n      sload\n      swap1\n      0x0100\n      exp\n      swap1\n      div\n      0xffff\n      and\n        /* \"contracts/Vote/VoterContract.sol\":4098:4119  proposals[proposalId] */\n      0xffff\n      and\n      0xffff\n      and\n      dup2\n      mstore\n      0x20\n      add\n      swap1\n      dup2\n      mstore\n      0x20\n      add\n      0x00\n      keccak256\n        /* \"contracts/Vote/VoterContract.sol\":4098:4128  proposals[proposalId].proposer */\n      0x02\n      add\n      0x08\n        /* \"contracts/Vote/VoterContract.sol\":4098:4141  proposals[proposalId].proposer = msg.sender */\n      0x0100\n      exp\n      dup2\n      sload\n      dup2\n      0xffffffffffffffffffffffffffffffffffffffff\n      mul\n      not\n      and\n      swap1\n      dup4\n      0xffffffffffffffffffffffffffffffffffffffff\n      and\n      mul\n      or\n      swap1\n      sstore\n      pop\n        /* \"contracts/Vote/VoterContract.sol\":4197:4209  block.number */\n      number\n        /* \"contracts/Vote/VoterContract.sol\":4154:4163  proposals */\n      0x06\n        /* \"contracts/Vote/VoterContract.sol\":4154:4175  proposals[proposalId] */\n      0x00\n        /* \"contracts/Vote/VoterContract.sol\":4164:4174  proposalId */\n      0x07\n      0x02\n      swap1\n      sload\n      swap1\n      0x0100\n      exp\n      swap1\n      div\n      0xffff\n      and\n        /* \"contracts/Vote/VoterContract.sol\":4154:4175  proposals[proposalId] */\n      0xffff\n      and\n      0xffff\n      and\n      dup2\n      mstore\n      0x20\n      add\n      swap1\n      dup2\n      mstore\n      0x20\n      add\n      0x00\n      keccak256\n        /* \"contracts/Vote/VoterContract.sol\":4154:4194  proposals[proposalId].blockNumberStarted */\n      0x03\n      add\n        /* \"contracts/Vote/VoterContract.sol\":4154:4209  proposals[proposalId].blockNumberStarted = block.number */\n      dup2\n      swap1\n      sstore\n      pop\n        /* \"contracts/Vote/VoterContract.sol\":1611:1612  1 */\n      0x01\n        /* \"contracts/Vote/VoterContract.sol\":4272:4303  block.number + minBlockDuration */\n      0xff\n      and\n        /* \"contracts/Vote/VoterContract.sol\":4272:4284  block.number */\n      number\n        /* \"contracts/Vote/VoterContract.sol\":4272:4303  block.number + minBlockDuration */\n      tag_146\n      swap2\n      swap1\n      tag_147\n      jump\t// in\n    tag_146:\n        /* \"contracts/Vote/VoterContract.sol\":4220:4229  proposals */\n      0x06\n        /* \"contracts/Vote/VoterContract.sol\":4220:4241  proposals[proposalId] */\n      0x00\n        /* \"contracts/Vote/VoterContract.sol\":4230:4240  proposalId */\n      0x07\n      0x02\n      swap1\n      sload\n      swap1\n      0x0100\n      exp\n      swap1\n      div\n      0xffff\n      and\n        /* \"contracts/Vote/VoterContract.sol\":4220:4241  proposals[proposalId] */\n      0xffff\n      and\n      0xffff\n      and\n      dup2\n      mstore\n      0x20\n      add\n      swap1\n      dup2\n      mstore\n      0x20\n      add\n      0x00\n      keccak256\n        /* \"contracts/Vote/VoterContract.sol\":4220:4269  proposals[proposalId].blockNumberWillNotEndBefore */\n      0x04\n      add\n        /* \"contracts/Vote/VoterContract.sol\":4220:4303  proposals[proposalId].blockNumberWillNotEndBefore = block.number + minBlockDuration */\n      dup2\n      swap1\n      sstore\n      pop\n        /* \"contracts/Vote/VoterContract.sol\":4366:4367  0 */\n      0x00\n        /* \"contracts/Vote/VoterContract.sol\":4324:4333  proposals */\n      0x06\n        /* \"contracts/Vote/VoterContract.sol\":4324:4345  proposals[proposalId] */\n      0x00\n        /* \"contracts/Vote/VoterContract.sol\":4334:4344  proposalId */\n      0x07\n      0x02\n      swap1\n      sload\n      swap1\n      0x0100\n      exp\n      swap1\n      div\n      0xffff\n      and\n        /* \"contracts/Vote/VoterContract.sol\":4324:4345  proposals[proposalId] */\n      0xffff\n      and\n      0xffff\n      and\n      dup2\n      mstore\n      0x20\n      add\n      swap1\n      dup2\n      mstore\n      0x20\n      add\n      0x00\n      keccak256\n        /* \"contracts/Vote/VoterContract.sol\":4324:4363  proposals[proposalId].blockNumberClosed */\n      0x05\n      add\n        /* \"contracts/Vote/VoterContract.sol\":4324:4367  proposals[proposalId].blockNumberClosed = 0 */\n      dup2\n      swap1\n      sstore\n      pop\n        /* \"contracts/Vote/VoterContract.sol\":4417:4430  _proposalType */\n      dup5\n        /* \"contracts/Vote/VoterContract.sol\":4380:4389  proposals */\n      0x06\n        /* \"contracts/Vote/VoterContract.sol\":4380:4401  proposals[proposalId] */\n      0x00\n        /* \"contracts/Vote/VoterContract.sol\":4390:4400  proposalId */\n      0x07\n      0x02\n      swap1\n      sload\n      swap1\n      0x0100\n      exp\n      swap1\n      div\n      0xffff\n      and\n        /* \"contracts/Vote/VoterContract.sol\":4380:4401  proposals[proposalId] */\n      0xffff\n      and\n      0xffff\n      and\n      dup2\n      mstore\n      0x20\n      add\n      swap1\n      dup2\n      mstore\n      0x20\n      add\n      0x00\n      keccak256\n        /* \"contracts/Vote/VoterContract.sol\":4380:4414  proposals[proposalId].proposalType */\n      0x06\n      add\n      0x00\n        /* \"contracts/Vote/VoterContract.sol\":4380:4430  proposals[proposalId].proposalType = _proposalType */\n      0x0100\n      exp\n      dup2\n      sload\n      dup2\n      0xff\n      mul\n      not\n      and\n      swap1\n      dup4\n      0x02\n      dup2\n      gt\n      iszero\n      tag_148\n      jumpi\n      tag_149\n      tag_115\n      jump\t// in\n    tag_149:\n    tag_148:\n      mul\n      or\n      swap1\n      sstore\n      pop\n        /* \"contracts/Vote/VoterContract.sol\":4457:4458  1 */\n      0x01\n        /* \"contracts/Vote/VoterContract.sol\":4443:4453  proposalId */\n      0x07\n      0x02\n        /* \"contracts/Vote/VoterContract.sol\":4443:4458  proposalId += 1 */\n      dup3\n      dup3\n      dup3\n      swap1\n      sload\n      swap1\n      0x0100\n      exp\n      swap1\n      div\n      0xffff\n      and\n      tag_150\n      swap2\n      swap1\n      tag_151\n      jump\t// in\n    tag_150:\n      swap3\n      pop\n      0x0100\n      exp\n      dup2\n      sload\n      dup2\n      0xffff\n      mul\n      not\n      and\n      swap1\n      dup4\n      0xffff\n      and\n      mul\n      or\n      swap1\n      sstore\n      pop\n        /* \"contracts/Vote/VoterContract.sol\":1827:1828  _ */\n      pop\n        /* \"contracts/Vote/VoterContract.sol\":3673:4466  function openProposal(VotingType _proposalType ,string calldata _topic) public noEmptyString(_topic) onlyVoters(msg.sender){\r... */\n      pop\n      pop\n      pop\n      pop\n      jump\t// out\n        /* \"contracts/Vote/VoterContract.sol\":1652:1680  uint16 public proposalId = 0 */\n    tag_41:\n      0x07\n      0x02\n      swap1\n      sload\n      swap1\n      0x0100\n      exp\n      swap1\n      div\n      0xffff\n      and\n      dup2\n      jump\t// out\n        /* \"contracts/Vote/VoterContract.sol\":8890:9492  function getProposals(uint16 skip, uint16 take) external view returns(Proposal[] memory){\r... */\n    tag_47:\n        /* \"contracts/Vote/VoterContract.sol\":8960:8977  Proposal[] memory */\n      0x60\n        /* \"contracts/Vote/VoterContract.sol\":8989:9017  Proposal[] memory _proposals */\n      0x00\n        /* \"contracts/Vote/VoterContract.sol\":9035:9039  take */\n      dup3\n        /* \"contracts/Vote/VoterContract.sol\":9020:9040  new Proposal[](take) */\n      0xffff\n      and\n      0xffffffffffffffff\n      dup2\n      gt\n      iszero\n      tag_153\n      jumpi\n      tag_154\n      tag_155\n      jump\t// in\n    tag_154:\n    tag_153:\n      mload(0x40)\n      swap1\n      dup1\n      dup3\n      mstore\n      dup1\n      0x20\n      mul\n      0x20\n      add\n      dup3\n      add\n      0x40\n      mstore\n      dup1\n      iszero\n      tag_156\n      jumpi\n      dup2\n      0x20\n      add\n    tag_157:\n      tag_158\n      tag_159\n      jump\t// in\n    tag_158:\n      dup2\n      mstore\n      0x20\n      add\n      swap1\n      0x01\n      swap1\n      sub\n      swap1\n      dup2\n      tag_157\n      jumpi\n      swap1\n      pop\n    tag_156:\n      pop\n        /* \"contracts/Vote/VoterContract.sol\":8989:9040  Proposal[] memory _proposals = new Proposal[](take) */\n      swap1\n      pop\n        /* \"contracts/Vote/VoterContract.sol\":9051:9060  uint16 pi */\n      0x00\n        /* \"contracts/Vote/VoterContract.sol\":9063:9073  proposalId */\n      0x07\n      0x02\n      swap1\n      sload\n      swap1\n      0x0100\n      exp\n      swap1\n      div\n      0xffff\n      and\n        /* \"contracts/Vote/VoterContract.sol\":9051:9073  uint16 pi = proposalId */\n      swap1\n      pop\n        /* \"contracts/Vote/VoterContract.sol\":9094:9096  pi */\n      dup1\n        /* \"contracts/Vote/VoterContract.sol\":9089:9096  skip>pi */\n      0xffff\n      and\n        /* \"contracts/Vote/VoterContract.sol\":9089:9093  skip */\n      dup6\n        /* \"contracts/Vote/VoterContract.sol\":9089:9096  skip>pi */\n      0xffff\n      and\n      gt\n        /* \"contracts/Vote/VoterContract.sol\":9086:9455  if(skip>pi){\r... */\n      iszero\n      tag_160\n      jumpi\n        /* \"contracts/Vote/VoterContract.sol\":9119:9129  _proposals */\n      dup2\n        /* \"contracts/Vote/VoterContract.sol\":9112:9129  return _proposals */\n      swap3\n      pop\n      pop\n      pop\n      jump(tag_152)\n        /* \"contracts/Vote/VoterContract.sol\":9086:9455  if(skip>pi){\r... */\n    tag_160:\n        /* \"contracts/Vote/VoterContract.sol\":9159:9161  pi */\n      dup1\n        /* \"contracts/Vote/VoterContract.sol\":9149:9161  skip+take>pi */\n      0xffff\n      and\n        /* \"contracts/Vote/VoterContract.sol\":9154:9158  take */\n      dup5\n        /* \"contracts/Vote/VoterContract.sol\":9149:9153  skip */\n      dup7\n        /* \"contracts/Vote/VoterContract.sol\":9149:9158  skip+take */\n      tag_162\n      swap2\n      swap1\n      tag_151\n      jump\t// in\n    tag_162:\n        /* \"contracts/Vote/VoterContract.sol\":9149:9161  skip+take>pi */\n      0xffff\n      and\n      gt\n        /* \"contracts/Vote/VoterContract.sol\":9146:9455  if(skip+take>pi){\r... */\n      iszero\n      tag_163\n      jumpi\n        /* \"contracts/Vote/VoterContract.sol\":9182:9190  uint16 i */\n      0x00\n        /* \"contracts/Vote/VoterContract.sol\":9193:9194  1 */\n      0x01\n        /* \"contracts/Vote/VoterContract.sol\":9182:9194  uint16 i = 1 */\n      swap1\n      pop\n        /* \"contracts/Vote/VoterContract.sol\":9177:9297  for (uint16 i = 1; i <= pi-skip; i++) \r... */\n    tag_164:\n        /* \"contracts/Vote/VoterContract.sol\":9204:9208  skip */\n      dup6\n        /* \"contracts/Vote/VoterContract.sol\":9201:9203  pi */\n      dup3\n        /* \"contracts/Vote/VoterContract.sol\":9201:9208  pi-skip */\n      tag_167\n      swap2\n      swap1\n      tag_168\n      jump\t// in\n    tag_167:\n        /* \"contracts/Vote/VoterContract.sol\":9196:9208  i <= pi-skip */\n      0xffff\n      and\n        /* \"contracts/Vote/VoterContract.sol\":9196:9197  i */\n      dup2\n        /* \"contracts/Vote/VoterContract.sol\":9196:9208  i <= pi-skip */\n      0xffff\n      and\n      gt\n        /* \"contracts/Vote/VoterContract.sol\":9177:9297  for (uint16 i = 1; i <= pi-skip; i++) \r... */\n      tag_165\n      jumpi\n        /* \"contracts/Vote/VoterContract.sol\":9266:9275  proposals */\n      0x06\n        /* \"contracts/Vote/VoterContract.sol\":9266:9281  proposals[pi-i] */\n      0x00\n        /* \"contracts/Vote/VoterContract.sol\":9279:9280  i */\n      dup3\n        /* \"contracts/Vote/VoterContract.sol\":9276:9278  pi */\n      dup5\n        /* \"contracts/Vote/VoterContract.sol\":9276:9280  pi-i */\n      tag_169\n      swap2\n      swap1\n      tag_168\n      jump\t// in\n    tag_169:\n        /* \"contracts/Vote/VoterContract.sol\":9266:9281  proposals[pi-i] */\n      0xffff\n      and\n      0xffff\n      and\n      dup2\n      mstore\n      0x20\n      add\n      swap1\n      dup2\n      mstore\n      0x20\n      add\n      0x00\n      keccak256\n        /* \"contracts/Vote/VoterContract.sol\":9248:9281  _proposals[i-1] = proposals[pi-i] */\n      mload(0x40)\n      dup1\n      0x0120\n      add\n      0x40\n      mstore\n      swap1\n      dup2\n      0x00\n      dup3\n      add\n      0x00\n      swap1\n      sload\n      swap1\n      0x0100\n      exp\n      swap1\n      div\n      0xffff\n      and\n      0xffff\n      and\n      0xffff\n      and\n      dup2\n      mstore\n      0x20\n      add\n      0x01\n      dup3\n      add\n      dup1\n      sload\n      tag_170\n      swap1\n      tag_171\n      jump\t// in\n    tag_170:\n      dup1\n      0x1f\n      add\n      0x20\n      dup1\n      swap2\n      div\n      mul\n      0x20\n      add\n      mload(0x40)\n      swap1\n      dup2\n      add\n      0x40\n      mstore\n      dup1\n      swap3\n      swap2\n      swap1\n      dup2\n      dup2\n      mstore\n      0x20\n      add\n      dup3\n      dup1\n      sload\n      tag_172\n      swap1\n      tag_171\n      jump\t// in\n    tag_172:\n      dup1\n      iszero\n      tag_173\n      jumpi\n      dup1\n      0x1f\n      lt\n      tag_174\n      jumpi\n      0x0100\n      dup1\n      dup4\n      sload\n      div\n      mul\n      dup4\n      mstore\n      swap2\n      0x20\n      add\n      swap2\n      jump(tag_173)\n    tag_174:\n      dup3\n      add\n      swap2\n      swap1\n      0x00\n      mstore\n      keccak256(0x00, 0x20)\n      swap1\n    tag_175:\n      dup2\n      sload\n      dup2\n      mstore\n      swap1\n      0x01\n      add\n      swap1\n      0x20\n      add\n      dup1\n      dup4\n      gt\n      tag_175\n      jumpi\n      dup3\n      swap1\n      sub\n      0x1f\n      and\n      dup3\n      add\n      swap2\n    tag_173:\n      pop\n      pop\n      pop\n      pop\n      pop\n      dup2\n      mstore\n      0x20\n      add\n      0x02\n      dup3\n      add\n      0x00\n      swap1\n      sload\n      swap1\n      0x0100\n      exp\n      swap1\n      div\n      0xffffffff\n      and\n      0xffffffff\n      and\n      0xffffffff\n      and\n      dup2\n      mstore\n      0x20\n      add\n      0x02\n      dup3\n      add\n      0x04\n      swap1\n      sload\n      swap1\n      0x0100\n      exp\n      swap1\n      div\n      0xffffffff\n      and\n      0xffffffff\n      and\n      0xffffffff\n      and\n      dup2\n      mstore\n      0x20\n      add\n      0x02\n      dup3\n      add\n      0x08\n      swap1\n      sload\n      swap1\n      0x0100\n      exp\n      swap1\n      div\n      0xffffffffffffffffffffffffffffffffffffffff\n      and\n      0xffffffffffffffffffffffffffffffffffffffff\n      and\n      0xffffffffffffffffffffffffffffffffffffffff\n      and\n      dup2\n      mstore\n      0x20\n      add\n      0x03\n      dup3\n      add\n      sload\n      dup2\n      mstore\n      0x20\n      add\n      0x04\n      dup3\n      add\n      sload\n      dup2\n      mstore\n      0x20\n      add\n      0x05\n      dup3\n      add\n      sload\n      dup2\n      mstore\n      0x20\n      add\n      0x06\n      dup3\n      add\n      0x00\n      swap1\n      sload\n      swap1\n      0x0100\n      exp\n      swap1\n      div\n      0xff\n      and\n      0x02\n      dup2\n      gt\n      iszero\n      tag_176\n      jumpi\n      tag_177\n      tag_115\n      jump\t// in\n    tag_177:\n    tag_176:\n      0x02\n      dup2\n      gt\n      iszero\n      tag_178\n      jumpi\n      tag_179\n      tag_115\n      jump\t// in\n    tag_179:\n    tag_178:\n      dup2\n      mstore\n      pop\n      pop\n        /* \"contracts/Vote/VoterContract.sol\":9248:9258  _proposals */\n      dup4\n        /* \"contracts/Vote/VoterContract.sol\":9261:9262  1 */\n      0x01\n        /* \"contracts/Vote/VoterContract.sol\":9259:9260  i */\n      dup4\n        /* \"contracts/Vote/VoterContract.sol\":9259:9262  i-1 */\n      tag_180\n      swap2\n      swap1\n      tag_168\n      jump\t// in\n    tag_180:\n        /* \"contracts/Vote/VoterContract.sol\":9248:9263  _proposals[i-1] */\n      0xffff\n      and\n      dup2\n      mload\n      dup2\n      lt\n      tag_181\n      jumpi\n      tag_182\n      tag_183\n      jump\t// in\n    tag_182:\n    tag_181:\n      0x20\n      mul\n      0x20\n      add\n      add\n        /* \"contracts/Vote/VoterContract.sol\":9248:9281  _proposals[i-1] = proposals[pi-i] */\n      dup2\n      swap1\n      mstore\n      pop\n        /* \"contracts/Vote/VoterContract.sol\":9210:9213  i++ */\n      dup1\n      dup1\n      tag_184\n      swap1\n      tag_185\n      jump\t// in\n    tag_184:\n      swap2\n      pop\n      pop\n        /* \"contracts/Vote/VoterContract.sol\":9177:9297  for (uint16 i = 1; i <= pi-skip; i++) \r... */\n      jump(tag_164)\n    tag_165:\n      pop\n        /* \"contracts/Vote/VoterContract.sol\":9146:9455  if(skip+take>pi){\r... */\n      jump(tag_186)\n    tag_163:\n        /* \"contracts/Vote/VoterContract.sol\":9332:9340  uint16 i */\n      0x00\n        /* \"contracts/Vote/VoterContract.sol\":9343:9344  1 */\n      0x01\n        /* \"contracts/Vote/VoterContract.sol\":9332:9344  uint16 i = 1 */\n      swap1\n      pop\n        /* \"contracts/Vote/VoterContract.sol\":9327:9444  for (uint16 i = 1; i <= take; i++) \r... */\n    tag_187:\n        /* \"contracts/Vote/VoterContract.sol\":9351:9355  take */\n      dup5\n        /* \"contracts/Vote/VoterContract.sol\":9346:9355  i <= take */\n      0xffff\n      and\n        /* \"contracts/Vote/VoterContract.sol\":9346:9347  i */\n      dup2\n        /* \"contracts/Vote/VoterContract.sol\":9346:9355  i <= take */\n      0xffff\n      and\n      gt\n        /* \"contracts/Vote/VoterContract.sol\":9327:9444  for (uint16 i = 1; i <= take; i++) \r... */\n      tag_188\n      jumpi\n        /* \"contracts/Vote/VoterContract.sol\":9413:9422  proposals */\n      0x06\n        /* \"contracts/Vote/VoterContract.sol\":9413:9428  proposals[pi-i] */\n      0x00\n        /* \"contracts/Vote/VoterContract.sol\":9426:9427  i */\n      dup3\n        /* \"contracts/Vote/VoterContract.sol\":9423:9425  pi */\n      dup5\n        /* \"contracts/Vote/VoterContract.sol\":9423:9427  pi-i */\n      tag_190\n      swap2\n      swap1\n      tag_168\n      jump\t// in\n    tag_190:\n        /* \"contracts/Vote/VoterContract.sol\":9413:9428  proposals[pi-i] */\n      0xffff\n      and\n      0xffff\n      and\n      dup2\n      mstore\n      0x20\n      add\n      swap1\n      dup2\n      mstore\n      0x20\n      add\n      0x00\n      keccak256\n        /* \"contracts/Vote/VoterContract.sol\":9395:9428  _proposals[i-1] = proposals[pi-i] */\n      mload(0x40)\n      dup1\n      0x0120\n      add\n      0x40\n      mstore\n      swap1\n      dup2\n      0x00\n      dup3\n      add\n      0x00\n      swap1\n      sload\n      swap1\n      0x0100\n      exp\n      swap1\n      div\n      0xffff\n      and\n      0xffff\n      and\n      0xffff\n      and\n      dup2\n      mstore\n      0x20\n      add\n      0x01\n      dup3\n      add\n      dup1\n      sload\n      tag_191\n      swap1\n      tag_171\n      jump\t// in\n    tag_191:\n      dup1\n      0x1f\n      add\n      0x20\n      dup1\n      swap2\n      div\n      mul\n      0x20\n      add\n      mload(0x40)\n      swap1\n      dup2\n      add\n      0x40\n      mstore\n      dup1\n      swap3\n      swap2\n      swap1\n      dup2\n      dup2\n      mstore\n      0x20\n      add\n      dup3\n      dup1\n      sload\n      tag_192\n      swap1\n      tag_171\n      jump\t// in\n    tag_192:\n      dup1\n      iszero\n      tag_193\n      jumpi\n      dup1\n      0x1f\n      lt\n      tag_194\n      jumpi\n      0x0100\n      dup1\n      dup4\n      sload\n      div\n      mul\n      dup4\n      mstore\n      swap2\n      0x20\n      add\n      swap2\n      jump(tag_193)\n    tag_194:\n      dup3\n      add\n      swap2\n      swap1\n      0x00\n      mstore\n      keccak256(0x00, 0x20)\n      swap1\n    tag_195:\n      dup2\n      sload\n      dup2\n      mstore\n      swap1\n      0x01\n      add\n      swap1\n      0x20\n      add\n      dup1\n      dup4\n      gt\n      tag_195\n      jumpi\n      dup3\n      swap1\n      sub\n      0x1f\n      and\n      dup3\n      add\n      swap2\n    tag_193:\n      pop\n      pop\n      pop\n      pop\n      pop\n      dup2\n      mstore\n      0x20\n      add\n      0x02\n      dup3\n      add\n      0x00\n      swap1\n      sload\n      swap1\n      0x0100\n      exp\n      swap1\n      div\n      0xffffffff\n      and\n      0xffffffff\n      and\n      0xffffffff\n      and\n      dup2\n      mstore\n      0x20\n      add\n      0x02\n      dup3\n      add\n      0x04\n      swap1\n      sload\n      swap1\n      0x0100\n      exp\n      swap1\n      div\n      0xffffffff\n      and\n      0xffffffff\n      and\n      0xffffffff\n      and\n      dup2\n      mstore\n      0x20\n      add\n      0x02\n      dup3\n      add\n      0x08\n      swap1\n      sload\n      swap1\n      0x0100\n      exp\n      swap1\n      div\n      0xffffffffffffffffffffffffffffffffffffffff\n      and\n      0xffffffffffffffffffffffffffffffffffffffff\n      and\n      0xffffffffffffffffffffffffffffffffffffffff\n      and\n      dup2\n      mstore\n      0x20\n      add\n      0x03\n      dup3\n      add\n      sload\n      dup2\n      mstore\n      0x20\n      add\n      0x04\n      dup3\n      add\n      sload\n      dup2\n      mstore\n      0x20\n      add\n      0x05\n      dup3\n      add\n      sload\n      dup2\n      mstore\n      0x20\n      add\n      0x06\n      dup3\n      add\n      0x00\n      swap1\n      sload\n      swap1\n      0x0100\n      exp\n      swap1\n      div\n      0xff\n      and\n      0x02\n      dup2\n      gt\n      iszero\n      tag_196\n      jumpi\n      tag_197\n      tag_115\n      jump\t// in\n    tag_197:\n    tag_196:\n      0x02\n      dup2\n      gt\n      iszero\n      tag_198\n      jumpi\n      tag_199\n      tag_115\n      jump\t// in\n    tag_199:\n    tag_198:\n      dup2\n      mstore\n      pop\n      pop\n        /* \"contracts/Vote/VoterContract.sol\":9395:9405  _proposals */\n      dup4\n        /* \"contracts/Vote/VoterContract.sol\":9408:9409  1 */\n      0x01\n        /* \"contracts/Vote/VoterContract.sol\":9406:9407  i */\n      dup4\n        /* \"contracts/Vote/VoterContract.sol\":9406:9409  i-1 */\n      tag_200\n      swap2\n      swap1\n      tag_168\n      jump\t// in\n    tag_200:\n        /* \"contracts/Vote/VoterContract.sol\":9395:9410  _proposals[i-1] */\n      0xffff\n      and\n      dup2\n      mload\n      dup2\n      lt\n      tag_201\n      jumpi\n      tag_202\n      tag_183\n      jump\t// in\n    tag_202:\n    tag_201:\n      0x20\n      mul\n      0x20\n      add\n      add\n        /* \"contracts/Vote/VoterContract.sol\":9395:9428  _proposals[i-1] = proposals[pi-i] */\n      dup2\n      swap1\n      mstore\n      pop\n        /* \"contracts/Vote/VoterContract.sol\":9357:9360  i++ */\n      dup1\n      dup1\n      tag_203\n      swap1\n      tag_185\n      jump\t// in\n    tag_203:\n      swap2\n      pop\n      pop\n        /* \"contracts/Vote/VoterContract.sol\":9327:9444  for (uint16 i = 1; i <= take; i++) \r... */\n      jump(tag_187)\n    tag_188:\n      pop\n        /* \"contracts/Vote/VoterContract.sol\":9146:9455  if(skip+take>pi){\r... */\n    tag_186:\n        /* \"contracts/Vote/VoterContract.sol\":9474:9484  _proposals */\n      dup2\n        /* \"contracts/Vote/VoterContract.sol\":9467:9484  return _proposals */\n      swap3\n      pop\n      pop\n      pop\n        /* \"contracts/Vote/VoterContract.sol\":8890:9492  function getProposals(uint16 skip, uint16 take) external view returns(Proposal[] memory){\r... */\n    tag_152:\n      swap3\n      swap2\n      pop\n      pop\n      jump\t// out\n        /* \"contracts/Vote/VoterContract.sol\":162:186  address public keyHolder */\n    tag_51:\n      0x01\n      0x00\n      swap1\n      sload\n      swap1\n      0x0100\n      exp\n      swap1\n      div\n      0xffffffffffffffffffffffffffffffffffffffff\n      and\n      dup2\n      jump\t// out\n        /* \"contracts/Vote/VoterContract.sol\":6431:6905  function useVotePowerYesNo(uint16 id,NoYes vote) external isVotingContinuing(id) onlyNotVotedVoters(id){\r... */\n    tag_57:\n        /* \"contracts/Vote/VoterContract.sol\":6508:6510  id */\n      dup2\n        /* \"contracts/Vote/VoterContract.sol\":2706:2723  VotingType.Closed */\n      0x00\n        /* \"contracts/Vote/VoterContract.sol\":2682:2723  votings[id].votingType!=VotingType.Closed */\n      0x02\n      dup2\n      gt\n      iszero\n      tag_205\n      jumpi\n      tag_206\n      tag_115\n      jump\t// in\n    tag_206:\n    tag_205:\n        /* \"contracts/Vote/VoterContract.sol\":2682:2689  votings */\n      0x04\n        /* \"contracts/Vote/VoterContract.sol\":2682:2693  votings[id] */\n      0x00\n        /* \"contracts/Vote/VoterContract.sol\":2690:2692  id */\n      dup4\n        /* \"contracts/Vote/VoterContract.sol\":2682:2693  votings[id] */\n      0xffff\n      and\n      0xffff\n      and\n      dup2\n      mstore\n      0x20\n      add\n      swap1\n      dup2\n      mstore\n      0x20\n      add\n      0x00\n      keccak256\n        /* \"contracts/Vote/VoterContract.sol\":2682:2704  votings[id].votingType */\n      0x06\n      add\n      0x00\n      swap1\n      sload\n      swap1\n      0x0100\n      exp\n      swap1\n      div\n      0xff\n      and\n        /* \"contracts/Vote/VoterContract.sol\":2682:2723  votings[id].votingType!=VotingType.Closed */\n      0x02\n      dup2\n      gt\n      iszero\n      tag_207\n      jumpi\n      tag_208\n      tag_115\n      jump\t// in\n    tag_208:\n    tag_207:\n      eq\n      iszero\n        /* \"contracts/Vote/VoterContract.sol\":2674:2745  require(votings[id].votingType!=VotingType.Closed,\"There is no voting\") */\n      tag_209\n      jumpi\n      mload(0x40)\n      0x08c379a000000000000000000000000000000000000000000000000000000000\n      dup2\n      mstore\n      0x04\n      add\n      tag_210\n      swap1\n      tag_120\n      jump\t// in\n    tag_210:\n      mload(0x40)\n      dup1\n      swap2\n      sub\n      swap1\n      revert\n    tag_209:\n        /* \"contracts/Vote/VoterContract.sol\":6531:6533  id */\n      dup3\n        /* \"contracts/Vote/VoterContract.sol\":2262:2272  __VOTERS__ */\n      0x02\n        /* \"contracts/Vote/VoterContract.sol\":2262:2284  __VOTERS__[msg.sender] */\n      0x00\n        /* \"contracts/Vote/VoterContract.sol\":2273:2283  msg.sender */\n      caller\n        /* \"contracts/Vote/VoterContract.sol\":2262:2284  __VOTERS__[msg.sender] */\n      0xffffffffffffffffffffffffffffffffffffffff\n      and\n      0xffffffffffffffffffffffffffffffffffffffff\n      and\n      dup2\n      mstore\n      0x20\n      add\n      swap1\n      dup2\n      mstore\n      0x20\n      add\n      0x00\n      keccak256\n      0x00\n      swap1\n      sload\n      swap1\n      0x0100\n      exp\n      swap1\n      div\n      0xff\n      and\n        /* \"contracts/Vote/VoterContract.sol\":2254:2307  require(__VOTERS__[msg.sender],\"You are not a voter\") */\n      tag_212\n      jumpi\n      mload(0x40)\n      0x08c379a000000000000000000000000000000000000000000000000000000000\n      dup2\n      mstore\n      0x04\n      add\n      tag_213\n      swap1\n      tag_214\n      jump\t// in\n    tag_213:\n      mload(0x40)\n      dup1\n      swap2\n      sub\n      swap1\n      revert\n    tag_212:\n        /* \"contracts/Vote/VoterContract.sol\":2353:2354  0 */\n      0x00\n        /* \"contracts/Vote/VoterContract.sol\":2326:2335  votePower */\n      0x03\n        /* \"contracts/Vote/VoterContract.sol\":2326:2339  votePower[id] */\n      0x00\n        /* \"contracts/Vote/VoterContract.sol\":2336:2338  id */\n      dup4\n        /* \"contracts/Vote/VoterContract.sol\":2326:2339  votePower[id] */\n      0xffff\n      and\n      0xffff\n      and\n      dup2\n      mstore\n      0x20\n      add\n      swap1\n      dup2\n      mstore\n      0x20\n      add\n      0x00\n      keccak256\n        /* \"contracts/Vote/VoterContract.sol\":2326:2351  votePower[id][msg.sender] */\n      0x00\n        /* \"contracts/Vote/VoterContract.sol\":2340:2350  msg.sender */\n      caller\n        /* \"contracts/Vote/VoterContract.sol\":2326:2351  votePower[id][msg.sender] */\n      0xffffffffffffffffffffffffffffffffffffffff\n      and\n      0xffffffffffffffffffffffffffffffffffffffff\n      and\n      dup2\n      mstore\n      0x20\n      add\n      swap1\n      dup2\n      mstore\n      0x20\n      add\n      0x00\n      keccak256\n      0x00\n      swap1\n      sload\n      swap1\n      0x0100\n      exp\n      swap1\n      div\n      0xff\n      and\n        /* \"contracts/Vote/VoterContract.sol\":2326:2354  votePower[id][msg.sender]==0 */\n      0xff\n      and\n      eq\n        /* \"contracts/Vote/VoterContract.sol\":2318:2379  require(votePower[id][msg.sender]==0,\"You have voted before\") */\n      tag_215\n      jumpi\n      mload(0x40)\n      0x08c379a000000000000000000000000000000000000000000000000000000000\n      dup2\n      mstore\n      0x04\n      add\n      tag_216\n      swap1\n      tag_217\n      jump\t// in\n    tag_216:\n      mload(0x40)\n      dup1\n      swap2\n      sub\n      swap1\n      revert\n    tag_215:\n        /* \"contracts/Vote/VoterContract.sol\":6577:6593  VotingType.YesNo */\n      0x01\n        /* \"contracts/Vote/VoterContract.sol\":6553:6593  votings[id].votingType==VotingType.YesNo */\n      0x02\n      dup2\n      gt\n      iszero\n      tag_219\n      jumpi\n      tag_220\n      tag_115\n      jump\t// in\n    tag_220:\n    tag_219:\n        /* \"contracts/Vote/VoterContract.sol\":6553:6560  votings */\n      0x04\n        /* \"contracts/Vote/VoterContract.sol\":6553:6564  votings[id] */\n      0x00\n        /* \"contracts/Vote/VoterContract.sol\":6561:6563  id */\n      dup7\n        /* \"contracts/Vote/VoterContract.sol\":6553:6564  votings[id] */\n      0xffff\n      and\n      0xffff\n      and\n      dup2\n      mstore\n      0x20\n      add\n      swap1\n      dup2\n      mstore\n      0x20\n      add\n      0x00\n      keccak256\n        /* \"contracts/Vote/VoterContract.sol\":6553:6575  votings[id].votingType */\n      0x06\n      add\n      0x00\n      swap1\n      sload\n      swap1\n      0x0100\n      exp\n      swap1\n      div\n      0xff\n      and\n        /* \"contracts/Vote/VoterContract.sol\":6553:6593  votings[id].votingType==VotingType.YesNo */\n      0x02\n      dup2\n      gt\n      iszero\n      tag_221\n      jumpi\n      tag_222\n      tag_115\n      jump\t// in\n    tag_222:\n    tag_221:\n      eq\n        /* \"contracts/Vote/VoterContract.sol\":6545:6642  require(votings[id].votingType==VotingType.YesNo,\"Currently we are not voting on this function.\") */\n      tag_223\n      jumpi\n      mload(0x40)\n      0x08c379a000000000000000000000000000000000000000000000000000000000\n      dup2\n      mstore\n      0x04\n      add\n      tag_224\n      swap1\n      tag_225\n      jump\t// in\n    tag_224:\n      mload(0x40)\n      dup1\n      swap2\n      sub\n      swap1\n      revert\n    tag_223:\n        /* \"contracts/Vote/VoterContract.sol\":6662:6670  NoYes.No */\n      0x00\n        /* \"contracts/Vote/VoterContract.sol\":6656:6670  vote==NoYes.No */\n      0x01\n      dup2\n      gt\n      iszero\n      tag_226\n      jumpi\n      tag_227\n      tag_115\n      jump\t// in\n    tag_227:\n    tag_226:\n        /* \"contracts/Vote/VoterContract.sol\":6656:6660  vote */\n      dup4\n        /* \"contracts/Vote/VoterContract.sol\":6656:6670  vote==NoYes.No */\n      0x01\n      dup2\n      gt\n      iszero\n      tag_228\n      jumpi\n      tag_229\n      tag_115\n      jump\t// in\n    tag_229:\n    tag_228:\n      eq\n        /* \"contracts/Vote/VoterContract.sol\":6653:6865  if(vote==NoYes.No){\r... */\n      iszero\n      tag_230\n      jumpi\n        /* \"contracts/Vote/VoterContract.sol\":6714:6715  1 */\n      0x01\n        /* \"contracts/Vote/VoterContract.sol\":6686:6695  votePower */\n      0x03\n        /* \"contracts/Vote/VoterContract.sol\":6686:6699  votePower[id] */\n      0x00\n        /* \"contracts/Vote/VoterContract.sol\":6696:6698  id */\n      dup7\n        /* \"contracts/Vote/VoterContract.sol\":6686:6699  votePower[id] */\n      0xffff\n      and\n      0xffff\n      and\n      dup2\n      mstore\n      0x20\n      add\n      swap1\n      dup2\n      mstore\n      0x20\n      add\n      0x00\n      keccak256\n        /* \"contracts/Vote/VoterContract.sol\":6686:6711  votePower[id][msg.sender] */\n      0x00\n        /* \"contracts/Vote/VoterContract.sol\":6700:6710  msg.sender */\n      caller\n        /* \"contracts/Vote/VoterContract.sol\":6686:6711  votePower[id][msg.sender] */\n      0xffffffffffffffffffffffffffffffffffffffff\n      and\n      0xffffffffffffffffffffffffffffffffffffffff\n      and\n      dup2\n      mstore\n      0x20\n      add\n      swap1\n      dup2\n      mstore\n      0x20\n      add\n      0x00\n      keccak256\n      0x00\n        /* \"contracts/Vote/VoterContract.sol\":6686:6715  votePower[id][msg.sender] = 1 */\n      0x0100\n      exp\n      dup2\n      sload\n      dup2\n      0xff\n      mul\n      not\n      and\n      swap1\n      dup4\n      0xff\n      and\n      mul\n      or\n      swap1\n      sstore\n      pop\n        /* \"contracts/Vote/VoterContract.sol\":6752:6753  1 */\n      0x01\n        /* \"contracts/Vote/VoterContract.sol\":6730:6737  votings */\n      0x04\n        /* \"contracts/Vote/VoterContract.sol\":6730:6741  votings[id] */\n      0x00\n        /* \"contracts/Vote/VoterContract.sol\":6738:6740  id */\n      dup7\n        /* \"contracts/Vote/VoterContract.sol\":6730:6741  votings[id] */\n      0xffff\n      and\n      0xffff\n      and\n      dup2\n      mstore\n      0x20\n      add\n      swap1\n      dup2\n      mstore\n      0x20\n      add\n      0x00\n      keccak256\n        /* \"contracts/Vote/VoterContract.sol\":6730:6748  votings[id].result */\n      0x02\n      add\n      0x04\n        /* \"contracts/Vote/VoterContract.sol\":6730:6753  votings[id].result += 1 */\n      dup3\n      dup3\n      dup3\n      swap1\n      sload\n      swap1\n      0x0100\n      exp\n      swap1\n      div\n      0xffffffff\n      and\n      tag_231\n      swap2\n      swap1\n      tag_232\n      jump\t// in\n    tag_231:\n      swap3\n      pop\n      0x0100\n      exp\n      dup2\n      sload\n      dup2\n      0xffffffff\n      mul\n      not\n      and\n      swap1\n      dup4\n      0xffffffff\n      and\n      mul\n      or\n      swap1\n      sstore\n      pop\n        /* \"contracts/Vote/VoterContract.sol\":6653:6865  if(vote==NoYes.No){\r... */\n      jump(tag_233)\n    tag_230:\n        /* \"contracts/Vote/VoterContract.sol\":6812:6814  10 */\n      0x0a\n        /* \"contracts/Vote/VoterContract.sol\":6784:6793  votePower */\n      0x03\n        /* \"contracts/Vote/VoterContract.sol\":6784:6797  votePower[id] */\n      0x00\n        /* \"contracts/Vote/VoterContract.sol\":6794:6796  id */\n      dup7\n        /* \"contracts/Vote/VoterContract.sol\":6784:6797  votePower[id] */\n      0xffff\n      and\n      0xffff\n      and\n      dup2\n      mstore\n      0x20\n      add\n      swap1\n      dup2\n      mstore\n      0x20\n      add\n      0x00\n      keccak256\n        /* \"contracts/Vote/VoterContract.sol\":6784:6809  votePower[id][msg.sender] */\n      0x00\n        /* \"contracts/Vote/VoterContract.sol\":6798:6808  msg.sender */\n      caller\n        /* \"contracts/Vote/VoterContract.sol\":6784:6809  votePower[id][msg.sender] */\n      0xffffffffffffffffffffffffffffffffffffffff\n      and\n      0xffffffffffffffffffffffffffffffffffffffff\n      and\n      dup2\n      mstore\n      0x20\n      add\n      swap1\n      dup2\n      mstore\n      0x20\n      add\n      0x00\n      keccak256\n      0x00\n        /* \"contracts/Vote/VoterContract.sol\":6784:6814  votePower[id][msg.sender] = 10 */\n      0x0100\n      exp\n      dup2\n      sload\n      dup2\n      0xff\n      mul\n      not\n      and\n      swap1\n      dup4\n      0xff\n      and\n      mul\n      or\n      swap1\n      sstore\n      pop\n        /* \"contracts/Vote/VoterContract.sol\":6851:6853  10 */\n      0x0a\n        /* \"contracts/Vote/VoterContract.sol\":6829:6836  votings */\n      0x04\n        /* \"contracts/Vote/VoterContract.sol\":6829:6840  votings[id] */\n      0x00\n        /* \"contracts/Vote/VoterContract.sol\":6837:6839  id */\n      dup7\n        /* \"contracts/Vote/VoterContract.sol\":6829:6840  votings[id] */\n      0xffff\n      and\n      0xffff\n      and\n      dup2\n      mstore\n      0x20\n      add\n      swap1\n      dup2\n      mstore\n      0x20\n      add\n      0x00\n      keccak256\n        /* \"contracts/Vote/VoterContract.sol\":6829:6847  votings[id].result */\n      0x02\n      add\n      0x04\n        /* \"contracts/Vote/VoterContract.sol\":6829:6853  votings[id].result += 10 */\n      dup3\n      dup3\n      dup3\n      swap1\n      sload\n      swap1\n      0x0100\n      exp\n      swap1\n      div\n      0xffffffff\n      and\n      tag_234\n      swap2\n      swap1\n      tag_232\n      jump\t// in\n    tag_234:\n      swap3\n      pop\n      0x0100\n      exp\n      dup2\n      sload\n      dup2\n      0xffffffff\n      mul\n      not\n      and\n      swap1\n      dup4\n      0xffffffff\n      and\n      mul\n      or\n      swap1\n      sstore\n      pop\n        /* \"contracts/Vote/VoterContract.sol\":6653:6865  if(vote==NoYes.No){\r... */\n    tag_233:\n        /* \"contracts/Vote/VoterContract.sol\":6896:6897  1 */\n      0x01\n        /* \"contracts/Vote/VoterContract.sol\":6875:6882  votings */\n      0x04\n        /* \"contracts/Vote/VoterContract.sol\":6875:6886  votings[id] */\n      0x00\n        /* \"contracts/Vote/VoterContract.sol\":6883:6885  id */\n      dup7\n        /* \"contracts/Vote/VoterContract.sol\":6875:6886  votings[id] */\n      0xffff\n      and\n      0xffff\n      and\n      dup2\n      mstore\n      0x20\n      add\n      swap1\n      dup2\n      mstore\n      0x20\n      add\n      0x00\n      keccak256\n        /* \"contracts/Vote/VoterContract.sol\":6875:6892  votings[id].voted */\n      0x02\n      add\n      0x00\n        /* \"contracts/Vote/VoterContract.sol\":6875:6897  votings[id].voted += 1 */\n      dup3\n      dup3\n      dup3\n      swap1\n      sload\n      swap1\n      0x0100\n      exp\n      swap1\n      div\n      0xffffffff\n      and\n      tag_235\n      swap2\n      swap1\n      tag_232\n      jump\t// in\n    tag_235:\n      swap3\n      pop\n      0x0100\n      exp\n      dup2\n      sload\n      dup2\n      0xffffffff\n      mul\n      not\n      and\n      swap1\n      dup4\n      0xffffffff\n      and\n      mul\n      or\n      swap1\n      sstore\n      pop\n        /* \"contracts/Vote/VoterContract.sol\":2756:2757  _ */\n      pop\n        /* \"contracts/Vote/VoterContract.sol\":6431:6905  function useVotePowerYesNo(uint16 id,NoYes vote) external isVotingContinuing(id) onlyNotVotedVoters(id){\r... */\n      pop\n      pop\n      pop\n      jump\t// out\n        /* \"contracts/Vote/VoterContract.sol\":6917:7322  function useVotePowerOne2Ten(uint16 id,uint8 vote) external isVotingContinuing(id) onlyNotVotedVoters(id){\r... */\n    tag_61:\n        /* \"contracts/Vote/VoterContract.sol\":6996:6998  id */\n      dup2\n        /* \"contracts/Vote/VoterContract.sol\":2706:2723  VotingType.Closed */\n      0x00\n        /* \"contracts/Vote/VoterContract.sol\":2682:2723  votings[id].votingType!=VotingType.Closed */\n      0x02\n      dup2\n      gt\n      iszero\n      tag_237\n      jumpi\n      tag_238\n      tag_115\n      jump\t// in\n    tag_238:\n    tag_237:\n        /* \"contracts/Vote/VoterContract.sol\":2682:2689  votings */\n      0x04\n        /* \"contracts/Vote/VoterContract.sol\":2682:2693  votings[id] */\n      0x00\n        /* \"contracts/Vote/VoterContract.sol\":2690:2692  id */\n      dup4\n        /* \"contracts/Vote/VoterContract.sol\":2682:2693  votings[id] */\n      0xffff\n      and\n      0xffff\n      and\n      dup2\n      mstore\n      0x20\n      add\n      swap1\n      dup2\n      mstore\n      0x20\n      add\n      0x00\n      keccak256\n        /* \"contracts/Vote/VoterContract.sol\":2682:2704  votings[id].votingType */\n      0x06\n      add\n      0x00\n      swap1\n      sload\n      swap1\n      0x0100\n      exp\n      swap1\n      div\n      0xff\n      and\n        /* \"contracts/Vote/VoterContract.sol\":2682:2723  votings[id].votingType!=VotingType.Closed */\n      0x02\n      dup2\n      gt\n      iszero\n      tag_239\n      jumpi\n      tag_240\n      tag_115\n      jump\t// in\n    tag_240:\n    tag_239:\n      eq\n      iszero\n        /* \"contracts/Vote/VoterContract.sol\":2674:2745  require(votings[id].votingType!=VotingType.Closed,\"There is no voting\") */\n      tag_241\n      jumpi\n      mload(0x40)\n      0x08c379a000000000000000000000000000000000000000000000000000000000\n      dup2\n      mstore\n      0x04\n      add\n      tag_242\n      swap1\n      tag_120\n      jump\t// in\n    tag_242:\n      mload(0x40)\n      dup1\n      swap2\n      sub\n      swap1\n      revert\n    tag_241:\n        /* \"contracts/Vote/VoterContract.sol\":7019:7021  id */\n      dup3\n        /* \"contracts/Vote/VoterContract.sol\":2262:2272  __VOTERS__ */\n      0x02\n        /* \"contracts/Vote/VoterContract.sol\":2262:2284  __VOTERS__[msg.sender] */\n      0x00\n        /* \"contracts/Vote/VoterContract.sol\":2273:2283  msg.sender */\n      caller\n        /* \"contracts/Vote/VoterContract.sol\":2262:2284  __VOTERS__[msg.sender] */\n      0xffffffffffffffffffffffffffffffffffffffff\n      and\n      0xffffffffffffffffffffffffffffffffffffffff\n      and\n      dup2\n      mstore\n      0x20\n      add\n      swap1\n      dup2\n      mstore\n      0x20\n      add\n      0x00\n      keccak256\n      0x00\n      swap1\n      sload\n      swap1\n      0x0100\n      exp\n      swap1\n      div\n      0xff\n      and\n        /* \"contracts/Vote/VoterContract.sol\":2254:2307  require(__VOTERS__[msg.sender],\"You are not a voter\") */\n      tag_244\n      jumpi\n      mload(0x40)\n      0x08c379a000000000000000000000000000000000000000000000000000000000\n      dup2\n      mstore\n      0x04\n      add\n      tag_245\n      swap1\n      tag_214\n      jump\t// in\n    tag_245:\n      mload(0x40)\n      dup1\n      swap2\n      sub\n      swap1\n      revert\n    tag_244:\n        /* \"contracts/Vote/VoterContract.sol\":2353:2354  0 */\n      0x00\n        /* \"contracts/Vote/VoterContract.sol\":2326:2335  votePower */\n      0x03\n        /* \"contracts/Vote/VoterContract.sol\":2326:2339  votePower[id] */\n      0x00\n        /* \"contracts/Vote/VoterContract.sol\":2336:2338  id */\n      dup4\n        /* \"contracts/Vote/VoterContract.sol\":2326:2339  votePower[id] */\n      0xffff\n      and\n      0xffff\n      and\n      dup2\n      mstore\n      0x20\n      add\n      swap1\n      dup2\n      mstore\n      0x20\n      add\n      0x00\n      keccak256\n        /* \"contracts/Vote/VoterContract.sol\":2326:2351  votePower[id][msg.sender] */\n      0x00\n        /* \"contracts/Vote/VoterContract.sol\":2340:2350  msg.sender */\n      caller\n        /* \"contracts/Vote/VoterContract.sol\":2326:2351  votePower[id][msg.sender] */\n      0xffffffffffffffffffffffffffffffffffffffff\n      and\n      0xffffffffffffffffffffffffffffffffffffffff\n      and\n      dup2\n      mstore\n      0x20\n      add\n      swap1\n      dup2\n      mstore\n      0x20\n      add\n      0x00\n      keccak256\n      0x00\n      swap1\n      sload\n      swap1\n      0x0100\n      exp\n      swap1\n      div\n      0xff\n      and\n        /* \"contracts/Vote/VoterContract.sol\":2326:2354  votePower[id][msg.sender]==0 */\n      0xff\n      and\n      eq\n        /* \"contracts/Vote/VoterContract.sol\":2318:2379  require(votePower[id][msg.sender]==0,\"You have voted before\") */\n      tag_246\n      jumpi\n      mload(0x40)\n      0x08c379a000000000000000000000000000000000000000000000000000000000\n      dup2\n      mstore\n      0x04\n      add\n      tag_247\n      swap1\n      tag_217\n      jump\t// in\n    tag_247:\n      mload(0x40)\n      dup1\n      swap2\n      sub\n      swap1\n      revert\n    tag_246:\n        /* \"contracts/Vote/VoterContract.sol\":7046:7047  0 */\n      0x00\n        /* \"contracts/Vote/VoterContract.sol\":7041:7045  vote */\n      dup4\n        /* \"contracts/Vote/VoterContract.sol\":7041:7047  vote>0 */\n      0xff\n      and\n      gt\n        /* \"contracts/Vote/VoterContract.sol\":7041:7056  vote>0&&vote<11 */\n      dup1\n      iszero\n      tag_249\n      jumpi\n      pop\n        /* \"contracts/Vote/VoterContract.sol\":7054:7056  11 */\n      0x0b\n        /* \"contracts/Vote/VoterContract.sol\":7049:7053  vote */\n      dup4\n        /* \"contracts/Vote/VoterContract.sol\":7049:7056  vote<11 */\n      0xff\n      and\n      lt\n        /* \"contracts/Vote/VoterContract.sol\":7041:7056  vote>0&&vote<11 */\n    tag_249:\n        /* \"contracts/Vote/VoterContract.sol\":7033:7088  require(vote>0&&vote<11,\"Please vote between 1 to 10.\") */\n      tag_250\n      jumpi\n      mload(0x40)\n      0x08c379a000000000000000000000000000000000000000000000000000000000\n      dup2\n      mstore\n      0x04\n      add\n      tag_251\n      swap1\n      tag_252\n      jump\t// in\n    tag_251:\n      mload(0x40)\n      dup1\n      swap2\n      sub\n      swap1\n      revert\n    tag_250:\n        /* \"contracts/Vote/VoterContract.sol\":7131:7150  VotingType.OneToTen */\n      0x02\n        /* \"contracts/Vote/VoterContract.sol\":7107:7150  votings[id].votingType==VotingType.OneToTen */\n      dup1\n      dup2\n      gt\n      iszero\n      tag_253\n      jumpi\n      tag_254\n      tag_115\n      jump\t// in\n    tag_254:\n    tag_253:\n        /* \"contracts/Vote/VoterContract.sol\":7107:7114  votings */\n      0x04\n        /* \"contracts/Vote/VoterContract.sol\":7107:7118  votings[id] */\n      0x00\n        /* \"contracts/Vote/VoterContract.sol\":7115:7117  id */\n      dup7\n        /* \"contracts/Vote/VoterContract.sol\":7107:7118  votings[id] */\n      0xffff\n      and\n      0xffff\n      and\n      dup2\n      mstore\n      0x20\n      add\n      swap1\n      dup2\n      mstore\n      0x20\n      add\n      0x00\n      keccak256\n        /* \"contracts/Vote/VoterContract.sol\":7107:7129  votings[id].votingType */\n      0x06\n      add\n      0x00\n      swap1\n      sload\n      swap1\n      0x0100\n      exp\n      swap1\n      div\n      0xff\n      and\n        /* \"contracts/Vote/VoterContract.sol\":7107:7150  votings[id].votingType==VotingType.OneToTen */\n      0x02\n      dup2\n      gt\n      iszero\n      tag_255\n      jumpi\n      tag_256\n      tag_115\n      jump\t// in\n    tag_256:\n    tag_255:\n      eq\n        /* \"contracts/Vote/VoterContract.sol\":7099:7199  require(votings[id].votingType==VotingType.OneToTen,\"Currently we are not voting on this function.\") */\n      tag_257\n      jumpi\n      mload(0x40)\n      0x08c379a000000000000000000000000000000000000000000000000000000000\n      dup2\n      mstore\n      0x04\n      add\n      tag_258\n      swap1\n      tag_225\n      jump\t// in\n    tag_258:\n      mload(0x40)\n      dup1\n      swap2\n      sub\n      swap1\n      revert\n    tag_257:\n        /* \"contracts/Vote/VoterContract.sol\":7240:7244  vote */\n      dup3\n        /* \"contracts/Vote/VoterContract.sol\":7212:7221  votePower */\n      0x03\n        /* \"contracts/Vote/VoterContract.sol\":7212:7225  votePower[id] */\n      0x00\n        /* \"contracts/Vote/VoterContract.sol\":7222:7224  id */\n      dup7\n        /* \"contracts/Vote/VoterContract.sol\":7212:7225  votePower[id] */\n      0xffff\n      and\n      0xffff\n      and\n      dup2\n      mstore\n      0x20\n      add\n      swap1\n      dup2\n      mstore\n      0x20\n      add\n      0x00\n      keccak256\n        /* \"contracts/Vote/VoterContract.sol\":7212:7237  votePower[id][msg.sender] */\n      0x00\n        /* \"contracts/Vote/VoterContract.sol\":7226:7236  msg.sender */\n      caller\n        /* \"contracts/Vote/VoterContract.sol\":7212:7237  votePower[id][msg.sender] */\n      0xffffffffffffffffffffffffffffffffffffffff\n      and\n      0xffffffffffffffffffffffffffffffffffffffff\n      and\n      dup2\n      mstore\n      0x20\n      add\n      swap1\n      dup2\n      mstore\n      0x20\n      add\n      0x00\n      keccak256\n      0x00\n        /* \"contracts/Vote/VoterContract.sol\":7212:7244  votePower[id][msg.sender] = vote */\n      0x0100\n      exp\n      dup2\n      sload\n      dup2\n      0xff\n      mul\n      not\n      and\n      swap1\n      dup4\n      0xff\n      and\n      mul\n      or\n      swap1\n      sstore\n      pop\n        /* \"contracts/Vote/VoterContract.sol\":7277:7281  vote */\n      dup3\n        /* \"contracts/Vote/VoterContract.sol\":7255:7281  votings[id].result += vote */\n      0xff\n      and\n        /* \"contracts/Vote/VoterContract.sol\":7255:7262  votings */\n      0x04\n        /* \"contracts/Vote/VoterContract.sol\":7255:7266  votings[id] */\n      0x00\n        /* \"contracts/Vote/VoterContract.sol\":7263:7265  id */\n      dup7\n        /* \"contracts/Vote/VoterContract.sol\":7255:7266  votings[id] */\n      0xffff\n      and\n      0xffff\n      and\n      dup2\n      mstore\n      0x20\n      add\n      swap1\n      dup2\n      mstore\n      0x20\n      add\n      0x00\n      keccak256\n        /* \"contracts/Vote/VoterContract.sol\":7255:7273  votings[id].result */\n      0x02\n      add\n      0x04\n        /* \"contracts/Vote/VoterContract.sol\":7255:7281  votings[id].result += vote */\n      dup3\n      dup3\n      dup3\n      swap1\n      sload\n      swap1\n      0x0100\n      exp\n      swap1\n      div\n      0xffffffff\n      and\n      tag_259\n      swap2\n      swap1\n      tag_232\n      jump\t// in\n    tag_259:\n      swap3\n      pop\n      0x0100\n      exp\n      dup2\n      sload\n      dup2\n      0xffffffff\n      mul\n      not\n      and\n      swap1\n      dup4\n      0xffffffff\n      and\n      mul\n      or\n      swap1\n      sstore\n      pop\n        /* \"contracts/Vote/VoterContract.sol\":7313:7314  1 */\n      0x01\n        /* \"contracts/Vote/VoterContract.sol\":7292:7299  votings */\n      0x04\n        /* \"contracts/Vote/VoterContract.sol\":7292:7303  votings[id] */\n      0x00\n        /* \"contracts/Vote/VoterContract.sol\":7300:7302  id */\n      dup7\n        /* \"contracts/Vote/VoterContract.sol\":7292:7303  votings[id] */\n      0xffff\n      and\n      0xffff\n      and\n      dup2\n      mstore\n      0x20\n      add\n      swap1\n      dup2\n      mstore\n      0x20\n      add\n      0x00\n      keccak256\n        /* \"contracts/Vote/VoterContract.sol\":7292:7309  votings[id].voted */\n      0x02\n      add\n      0x00\n        /* \"contracts/Vote/VoterContract.sol\":7292:7314  votings[id].voted += 1 */\n      dup3\n      dup3\n      dup3\n      swap1\n      sload\n      swap1\n      0x0100\n      exp\n      swap1\n      div\n      0xffffffff\n      and\n      tag_260\n      swap2\n      swap1\n      tag_232\n      jump\t// in\n    tag_260:\n      swap3\n      pop\n      0x0100\n      exp\n      dup2\n      sload\n      dup2\n      0xffffffff\n      mul\n      not\n      and\n      swap1\n      dup4\n      0xffffffff\n      and\n      mul\n      or\n      swap1\n      sstore\n      pop\n        /* \"contracts/Vote/VoterContract.sol\":2756:2757  _ */\n      pop\n        /* \"contracts/Vote/VoterContract.sol\":6917:7322  function useVotePowerOne2Ten(uint16 id,uint8 vote) external isVotingContinuing(id) onlyNotVotedVoters(id){\r... */\n      pop\n      pop\n      pop\n      jump\t// out\n        /* \"contracts/Vote/VoterContract.sol\":1689:1723  uint16 public  totalVoterCount = 0 */\n    tag_63:\n      0x07\n      0x04\n      swap1\n      sload\n      swap1\n      0x0100\n      exp\n      swap1\n      div\n      0xffff\n      and\n      dup2\n      jump\t// out\n        /* \"@openzeppelin/contracts/access/Ownable.sol\":1824:1925  function renounceOwnership() public virtual onlyOwner {... */\n    tag_66:\n        /* \"@openzeppelin/contracts/access/Ownable.sol\":1094:1107  _checkOwner() */\n      tag_262\n        /* \"@openzeppelin/contracts/access/Ownable.sol\":1094:1105  _checkOwner */\n      tag_263\n        /* \"@openzeppelin/contracts/access/Ownable.sol\":1094:1107  _checkOwner() */\n      jump\t// in\n    tag_262:\n        /* \"@openzeppelin/contracts/access/Ownable.sol\":1888:1918  _transferOwnership(address(0)) */\n      tag_265\n        /* \"@openzeppelin/contracts/access/Ownable.sol\":1915:1916  0 */\n      0x00\n        /* \"@openzeppelin/contracts/access/Ownable.sol\":1888:1906  _transferOwnership */\n      tag_266\n        /* \"@openzeppelin/contracts/access/Ownable.sol\":1888:1918  _transferOwnership(address(0)) */\n      jump\t// in\n    tag_265:\n        /* \"@openzeppelin/contracts/access/Ownable.sol\":1824:1925  function renounceOwnership() public virtual onlyOwner {... */\n      jump\t// out\n        /* \"@openzeppelin/contracts/access/Ownable.sol\":1201:1286  function owner() public view virtual returns (address) {... */\n    tag_68:\n        /* \"@openzeppelin/contracts/access/Ownable.sol\":1247:1254  address */\n      0x00\n        /* \"@openzeppelin/contracts/access/Ownable.sol\":1273:1279  _owner */\n      dup1\n      0x00\n      swap1\n      sload\n      swap1\n      0x0100\n      exp\n      swap1\n      div\n      0xffffffffffffffffffffffffffffffffffffffff\n      and\n        /* \"@openzeppelin/contracts/access/Ownable.sol\":1266:1279  return _owner */\n      swap1\n      pop\n        /* \"@openzeppelin/contracts/access/Ownable.sol\":1201:1286  function owner() public view virtual returns (address) {... */\n      swap1\n      jump\t// out\n        /* \"contracts/Vote/VoterContract.sol\":7861:8302  function useVotePowerProposalOne2Ten(uint16 id,uint8 vote) external isProposalContinuing(id) onlyNotVotedVoters(id){\r... */\n    tag_72:\n        /* \"contracts/Vote/VoterContract.sol\":7950:7952  id */\n      dup2\n        /* \"contracts/Vote/VoterContract.sol\":3015:3032  VotingType.Closed */\n      0x00\n        /* \"contracts/Vote/VoterContract.sol\":2987:3032  proposals[id].proposalType!=VotingType.Closed */\n      0x02\n      dup2\n      gt\n      iszero\n      tag_269\n      jumpi\n      tag_270\n      tag_115\n      jump\t// in\n    tag_270:\n    tag_269:\n        /* \"contracts/Vote/VoterContract.sol\":2987:2996  proposals */\n      0x06\n        /* \"contracts/Vote/VoterContract.sol\":2987:3000  proposals[id] */\n      0x00\n        /* \"contracts/Vote/VoterContract.sol\":2997:2999  id */\n      dup4\n        /* \"contracts/Vote/VoterContract.sol\":2987:3000  proposals[id] */\n      0xffff\n      and\n      0xffff\n      and\n      dup2\n      mstore\n      0x20\n      add\n      swap1\n      dup2\n      mstore\n      0x20\n      add\n      0x00\n      keccak256\n        /* \"contracts/Vote/VoterContract.sol\":2987:3013  proposals[id].proposalType */\n      0x06\n      add\n      0x00\n      swap1\n      sload\n      swap1\n      0x0100\n      exp\n      swap1\n      div\n      0xff\n      and\n        /* \"contracts/Vote/VoterContract.sol\":2987:3032  proposals[id].proposalType!=VotingType.Closed */\n      0x02\n      dup2\n      gt\n      iszero\n      tag_271\n      jumpi\n      tag_272\n      tag_115\n      jump\t// in\n    tag_272:\n    tag_271:\n      eq\n      iszero\n        /* \"contracts/Vote/VoterContract.sol\":2979:3054  require(proposals[id].proposalType!=VotingType.Closed,\"There is no voting\") */\n      tag_273\n      jumpi\n      mload(0x40)\n      0x08c379a000000000000000000000000000000000000000000000000000000000\n      dup2\n      mstore\n      0x04\n      add\n      tag_274\n      swap1\n      tag_120\n      jump\t// in\n    tag_274:\n      mload(0x40)\n      dup1\n      swap2\n      sub\n      swap1\n      revert\n    tag_273:\n        /* \"contracts/Vote/VoterContract.sol\":7973:7975  id */\n      dup3\n        /* \"contracts/Vote/VoterContract.sol\":2262:2272  __VOTERS__ */\n      0x02\n        /* \"contracts/Vote/VoterContract.sol\":2262:2284  __VOTERS__[msg.sender] */\n      0x00\n        /* \"contracts/Vote/VoterContract.sol\":2273:2283  msg.sender */\n      caller\n        /* \"contracts/Vote/VoterContract.sol\":2262:2284  __VOTERS__[msg.sender] */\n      0xffffffffffffffffffffffffffffffffffffffff\n      and\n      0xffffffffffffffffffffffffffffffffffffffff\n      and\n      dup2\n      mstore\n      0x20\n      add\n      swap1\n      dup2\n      mstore\n      0x20\n      add\n      0x00\n      keccak256\n      0x00\n      swap1\n      sload\n      swap1\n      0x0100\n      exp\n      swap1\n      div\n      0xff\n      and\n        /* \"contracts/Vote/VoterContract.sol\":2254:2307  require(__VOTERS__[msg.sender],\"You are not a voter\") */\n      tag_276\n      jumpi\n      mload(0x40)\n      0x08c379a000000000000000000000000000000000000000000000000000000000\n      dup2\n      mstore\n      0x04\n      add\n      tag_277\n      swap1\n      tag_214\n      jump\t// in\n    tag_277:\n      mload(0x40)\n      dup1\n      swap2\n      sub\n      swap1\n      revert\n    tag_276:\n        /* \"contracts/Vote/VoterContract.sol\":2353:2354  0 */\n      0x00\n        /* \"contracts/Vote/VoterContract.sol\":2326:2335  votePower */\n      0x03\n        /* \"contracts/Vote/VoterContract.sol\":2326:2339  votePower[id] */\n      0x00\n        /* \"contracts/Vote/VoterContract.sol\":2336:2338  id */\n      dup4\n        /* \"contracts/Vote/VoterContract.sol\":2326:2339  votePower[id] */\n      0xffff\n      and\n      0xffff\n      and\n      dup2\n      mstore\n      0x20\n      add\n      swap1\n      dup2\n      mstore\n      0x20\n      add\n      0x00\n      keccak256\n        /* \"contracts/Vote/VoterContract.sol\":2326:2351  votePower[id][msg.sender] */\n      0x00\n        /* \"contracts/Vote/VoterContract.sol\":2340:2350  msg.sender */\n      caller\n        /* \"contracts/Vote/VoterContract.sol\":2326:2351  votePower[id][msg.sender] */\n      0xffffffffffffffffffffffffffffffffffffffff\n      and\n      0xffffffffffffffffffffffffffffffffffffffff\n      and\n      dup2\n      mstore\n      0x20\n      add\n      swap1\n      dup2\n      mstore\n      0x20\n      add\n      0x00\n      keccak256\n      0x00\n      swap1\n      sload\n      swap1\n      0x0100\n      exp\n      swap1\n      div\n      0xff\n      and\n        /* \"contracts/Vote/VoterContract.sol\":2326:2354  votePower[id][msg.sender]==0 */\n      0xff\n      and\n      eq\n        /* \"contracts/Vote/VoterContract.sol\":2318:2379  require(votePower[id][msg.sender]==0,\"You have voted before\") */\n      tag_278\n      jumpi\n      mload(0x40)\n      0x08c379a000000000000000000000000000000000000000000000000000000000\n      dup2\n      mstore\n      0x04\n      add\n      tag_279\n      swap1\n      tag_217\n      jump\t// in\n    tag_279:\n      mload(0x40)\n      dup1\n      swap2\n      sub\n      swap1\n      revert\n    tag_278:\n        /* \"contracts/Vote/VoterContract.sol\":7997:8001  vote */\n      dup3\n        /* \"contracts/Vote/VoterContract.sol\":7995:8001  0<vote */\n      0xff\n      and\n        /* \"contracts/Vote/VoterContract.sol\":7995:7996  0 */\n      0x00\n        /* \"contracts/Vote/VoterContract.sol\":7995:8001  0<vote */\n      lt\n        /* \"contracts/Vote/VoterContract.sol\":7995:8010  0<vote&&vote<11 */\n      dup1\n      iszero\n      tag_281\n      jumpi\n      pop\n        /* \"contracts/Vote/VoterContract.sol\":8008:8010  11 */\n      0x0b\n        /* \"contracts/Vote/VoterContract.sol\":8003:8007  vote */\n      dup4\n        /* \"contracts/Vote/VoterContract.sol\":8003:8010  vote<11 */\n      0xff\n      and\n      lt\n        /* \"contracts/Vote/VoterContract.sol\":7995:8010  0<vote&&vote<11 */\n    tag_281:\n        /* \"contracts/Vote/VoterContract.sol\":7987:8042  require(0<vote&&vote<11,\"Please vote between 1 to 10.\") */\n      tag_282\n      jumpi\n      mload(0x40)\n      0x08c379a000000000000000000000000000000000000000000000000000000000\n      dup2\n      mstore\n      0x04\n      add\n      tag_283\n      swap1\n      tag_252\n      jump\t// in\n    tag_283:\n      mload(0x40)\n      dup1\n      swap2\n      sub\n      swap1\n      revert\n    tag_282:\n        /* \"contracts/Vote/VoterContract.sol\":8089:8108  VotingType.OneToTen */\n      0x02\n        /* \"contracts/Vote/VoterContract.sol\":8061:8108  proposals[id].proposalType==VotingType.OneToTen */\n      dup1\n      dup2\n      gt\n      iszero\n      tag_284\n      jumpi\n      tag_285\n      tag_115\n      jump\t// in\n    tag_285:\n    tag_284:\n        /* \"contracts/Vote/VoterContract.sol\":8061:8070  proposals */\n      0x06\n        /* \"contracts/Vote/VoterContract.sol\":8061:8074  proposals[id] */\n      0x00\n        /* \"contracts/Vote/VoterContract.sol\":8071:8073  id */\n      dup7\n        /* \"contracts/Vote/VoterContract.sol\":8061:8074  proposals[id] */\n      0xffff\n      and\n      0xffff\n      and\n      dup2\n      mstore\n      0x20\n      add\n      swap1\n      dup2\n      mstore\n      0x20\n      add\n      0x00\n      keccak256\n        /* \"contracts/Vote/VoterContract.sol\":8061:8087  proposals[id].proposalType */\n      0x06\n      add\n      0x00\n      swap1\n      sload\n      swap1\n      0x0100\n      exp\n      swap1\n      div\n      0xff\n      and\n        /* \"contracts/Vote/VoterContract.sol\":8061:8108  proposals[id].proposalType==VotingType.OneToTen */\n      0x02\n      dup2\n      gt\n      iszero\n      tag_286\n      jumpi\n      tag_287\n      tag_115\n      jump\t// in\n    tag_287:\n    tag_286:\n      eq\n        /* \"contracts/Vote/VoterContract.sol\":8053:8157  require(proposals[id].proposalType==VotingType.OneToTen,\"Currently we are not voting on this function.\") */\n      tag_288\n      jumpi\n      mload(0x40)\n      0x08c379a000000000000000000000000000000000000000000000000000000000\n      dup2\n      mstore\n      0x04\n      add\n      tag_289\n      swap1\n      tag_225\n      jump\t// in\n    tag_289:\n      mload(0x40)\n      dup1\n      swap2\n      sub\n      swap1\n      revert\n    tag_288:\n        /* \"contracts/Vote/VoterContract.sol\":8206:8210  vote */\n      dup3\n        /* \"contracts/Vote/VoterContract.sol\":8170:8187  proposalVotePower */\n      0x05\n        /* \"contracts/Vote/VoterContract.sol\":8170:8191  proposalVotePower[id] */\n      0x00\n        /* \"contracts/Vote/VoterContract.sol\":8188:8190  id */\n      dup7\n        /* \"contracts/Vote/VoterContract.sol\":8170:8191  proposalVotePower[id] */\n      0xffff\n      and\n      0xffff\n      and\n      dup2\n      mstore\n      0x20\n      add\n      swap1\n      dup2\n      mstore\n      0x20\n      add\n      0x00\n      keccak256\n        /* \"contracts/Vote/VoterContract.sol\":8170:8203  proposalVotePower[id][msg.sender] */\n      0x00\n        /* \"contracts/Vote/VoterContract.sol\":8192:8202  msg.sender */\n      caller\n        /* \"contracts/Vote/VoterContract.sol\":8170:8203  proposalVotePower[id][msg.sender] */\n      0xffffffffffffffffffffffffffffffffffffffff\n      and\n      0xffffffffffffffffffffffffffffffffffffffff\n      and\n      dup2\n      mstore\n      0x20\n      add\n      swap1\n      dup2\n      mstore\n      0x20\n      add\n      0x00\n      keccak256\n      0x00\n        /* \"contracts/Vote/VoterContract.sol\":8170:8210  proposalVotePower[id][msg.sender] = vote */\n      0x0100\n      exp\n      dup2\n      sload\n      dup2\n      0xff\n      mul\n      not\n      and\n      swap1\n      dup4\n      0xff\n      and\n      mul\n      or\n      swap1\n      sstore\n      pop\n        /* \"contracts/Vote/VoterContract.sol\":8255:8259  vote */\n      dup3\n        /* \"contracts/Vote/VoterContract.sol\":8231:8259  proposals[id].result += vote */\n      0xff\n      and\n        /* \"contracts/Vote/VoterContract.sol\":8231:8240  proposals */\n      0x06\n        /* \"contracts/Vote/VoterContract.sol\":8231:8244  proposals[id] */\n      0x00\n        /* \"contracts/Vote/VoterContract.sol\":8241:8243  id */\n      dup7\n        /* \"contracts/Vote/VoterContract.sol\":8231:8244  proposals[id] */\n      0xffff\n      and\n      0xffff\n      and\n      dup2\n      mstore\n      0x20\n      add\n      swap1\n      dup2\n      mstore\n      0x20\n      add\n      0x00\n      keccak256\n        /* \"contracts/Vote/VoterContract.sol\":8231:8251  proposals[id].result */\n      0x02\n      add\n      0x04\n        /* \"contracts/Vote/VoterContract.sol\":8231:8259  proposals[id].result += vote */\n      dup3\n      dup3\n      dup3\n      swap1\n      sload\n      swap1\n      0x0100\n      exp\n      swap1\n      div\n      0xffffffff\n      and\n      tag_290\n      swap2\n      swap1\n      tag_232\n      jump\t// in\n    tag_290:\n      swap3\n      pop\n      0x0100\n      exp\n      dup2\n      sload\n      dup2\n      0xffffffff\n      mul\n      not\n      and\n      swap1\n      dup4\n      0xffffffff\n      and\n      mul\n      or\n      swap1\n      sstore\n      pop\n        /* \"contracts/Vote/VoterContract.sol\":8293:8294  1 */\n      0x01\n        /* \"contracts/Vote/VoterContract.sol\":8270:8279  proposals */\n      0x06\n        /* \"contracts/Vote/VoterContract.sol\":8270:8283  proposals[id] */\n      0x00\n        /* \"contracts/Vote/VoterContract.sol\":8280:8282  id */\n      dup7\n        /* \"contracts/Vote/VoterContract.sol\":8270:8283  proposals[id] */\n      0xffff\n      and\n      0xffff\n      and\n      dup2\n      mstore\n      0x20\n      add\n      swap1\n      dup2\n      mstore\n      0x20\n      add\n      0x00\n      keccak256\n        /* \"contracts/Vote/VoterContract.sol\":8270:8289  proposals[id].voted */\n      0x02\n      add\n      0x00\n        /* \"contracts/Vote/VoterContract.sol\":8270:8294  proposals[id].voted += 1 */\n      dup3\n      dup3\n      dup3\n      swap1\n      sload\n      swap1\n      0x0100\n      exp\n      swap1\n      div\n      0xffffffff\n      and\n      tag_291\n      swap2\n      swap1\n      tag_232\n      jump\t// in\n    tag_291:\n      swap3\n      pop\n      0x0100\n      exp\n      dup2\n      sload\n      dup2\n      0xffffffff\n      mul\n      not\n      and\n      swap1\n      dup4\n      0xffffffff\n      and\n      mul\n      or\n      swap1\n      sstore\n      pop\n        /* \"contracts/Vote/VoterContract.sol\":3065:3066  _ */\n      pop\n        /* \"contracts/Vote/VoterContract.sol\":7861:8302  function useVotePowerProposalOne2Ten(uint16 id,uint8 vote) external isProposalContinuing(id) onlyNotVotedVoters(id){\r... */\n      pop\n      pop\n      pop\n      jump\t// out\n        /* \"contracts/Vote/VoterContract.sol\":3276:3370  function setKeyHolderAddress(address adr) external onlyOwner{\r... */\n    tag_76:\n        /* \"@openzeppelin/contracts/access/Ownable.sol\":1094:1107  _checkOwner() */\n      tag_293\n        /* \"@openzeppelin/contracts/access/Ownable.sol\":1094:1105  _checkOwner */\n      tag_263\n        /* \"@openzeppelin/contracts/access/Ownable.sol\":1094:1107  _checkOwner() */\n      jump\t// in\n    tag_293:\n        /* \"contracts/Vote/VoterContract.sol\":3359:3362  adr */\n      dup1\n        /* \"contracts/Vote/VoterContract.sol\":3347:3356  keyHolder */\n      0x01\n      0x00\n        /* \"contracts/Vote/VoterContract.sol\":3347:3362  keyHolder = adr */\n      0x0100\n      exp\n      dup2\n      sload\n      dup2\n      0xffffffffffffffffffffffffffffffffffffffff\n      mul\n      not\n      and\n      swap1\n      dup4\n      0xffffffffffffffffffffffffffffffffffffffff\n      and\n      mul\n      or\n      swap1\n      sstore\n      pop\n        /* \"contracts/Vote/VoterContract.sol\":3276:3370  function setKeyHolderAddress(address adr) external onlyOwner{\r... */\n      pop\n      jump\t// out\n        /* \"contracts/Vote/VoterContract.sol\":1514:1558  mapping(uint16 => Proposal) public proposals */\n    tag_79:\n      mstore(0x20, 0x06)\n      dup1\n      0x00\n      mstore\n      keccak256(0x00, 0x40)\n      0x00\n      swap2\n      pop\n      swap1\n      pop\n      dup1\n      0x00\n      add\n      0x00\n      swap1\n      sload\n      swap1\n      0x0100\n      exp\n      swap1\n      div\n      0xffff\n      and\n      swap1\n      dup1\n      0x01\n      add\n      dup1\n      sload\n      tag_295\n      swap1\n      tag_171\n      jump\t// in\n    tag_295:\n      dup1\n      0x1f\n      add\n      0x20\n      dup1\n      swap2\n      div\n      mul\n      0x20\n      add\n      mload(0x40)\n      swap1\n      dup2\n      add\n      0x40\n      mstore\n      dup1\n      swap3\n      swap2\n      swap1\n      dup2\n      dup2\n      mstore\n      0x20\n      add\n      dup3\n      dup1\n      sload\n      tag_296\n      swap1\n      tag_171\n      jump\t// in\n    tag_296:\n      dup1\n      iszero\n      tag_297\n      jumpi\n      dup1\n      0x1f\n      lt\n      tag_298\n      jumpi\n      0x0100\n      dup1\n      dup4\n      sload\n      div\n      mul\n      dup4\n      mstore\n      swap2\n      0x20\n      add\n      swap2\n      jump(tag_297)\n    tag_298:\n      dup3\n      add\n      swap2\n      swap1\n      0x00\n      mstore\n      keccak256(0x00, 0x20)\n      swap1\n    tag_299:\n      dup2\n      sload\n      dup2\n      mstore\n      swap1\n      0x01\n      add\n      swap1\n      0x20\n      add\n      dup1\n      dup4\n      gt\n      tag_299\n      jumpi\n      dup3\n      swap1\n      sub\n      0x1f\n      and\n      dup3\n      add\n      swap2\n    tag_297:\n      pop\n      pop\n      pop\n      pop\n      pop\n      swap1\n      dup1\n      0x02\n      add\n      0x00\n      swap1\n      sload\n      swap1\n      0x0100\n      exp\n      swap1\n      div\n      0xffffffff\n      and\n      swap1\n      dup1\n      0x02\n      add\n      0x04\n      swap1\n      sload\n      swap1\n      0x0100\n      exp\n      swap1\n      div\n      0xffffffff\n      and\n      swap1\n      dup1\n      0x02\n      add\n      0x08\n      swap1\n      sload\n      swap1\n      0x0100\n      exp\n      swap1\n      div\n      0xffffffffffffffffffffffffffffffffffffffff\n      and\n      swap1\n      dup1\n      0x03\n      add\n      sload\n      swap1\n      dup1\n      0x04\n      add\n      sload\n      swap1\n      dup1\n      0x05\n      add\n      sload\n      swap1\n      dup1\n      0x06\n      add\n      0x00\n      swap1\n      sload\n      swap1\n      0x0100\n      exp\n      swap1\n      div\n      0xff\n      and\n      swap1\n      pop\n      dup10\n      jump\t// out\n        /* \"contracts/Vote/VoterContract.sol\":7330:7853  function useVotePowerProposalYesNo(uint16 id,NoYes vote) external isProposalContinuing(id) onlyNotVotedVotersForProposal(id){\r... */\n    tag_84:\n        /* \"contracts/Vote/VoterContract.sol\":7417:7419  id */\n      dup2\n        /* \"contracts/Vote/VoterContract.sol\":3015:3032  VotingType.Closed */\n      0x00\n        /* \"contracts/Vote/VoterContract.sol\":2987:3032  proposals[id].proposalType!=VotingType.Closed */\n      0x02\n      dup2\n      gt\n      iszero\n      tag_301\n      jumpi\n      tag_302\n      tag_115\n      jump\t// in\n    tag_302:\n    tag_301:\n        /* \"contracts/Vote/VoterContract.sol\":2987:2996  proposals */\n      0x06\n        /* \"contracts/Vote/VoterContract.sol\":2987:3000  proposals[id] */\n      0x00\n        /* \"contracts/Vote/VoterContract.sol\":2997:2999  id */\n      dup4\n        /* \"contracts/Vote/VoterContract.sol\":2987:3000  proposals[id] */\n      0xffff\n      and\n      0xffff\n      and\n      dup2\n      mstore\n      0x20\n      add\n      swap1\n      dup2\n      mstore\n      0x20\n      add\n      0x00\n      keccak256\n        /* \"contracts/Vote/VoterContract.sol\":2987:3013  proposals[id].proposalType */\n      0x06\n      add\n      0x00\n      swap1\n      sload\n      swap1\n      0x0100\n      exp\n      swap1\n      div\n      0xff\n      and\n        /* \"contracts/Vote/VoterContract.sol\":2987:3032  proposals[id].proposalType!=VotingType.Closed */\n      0x02\n      dup2\n      gt\n      iszero\n      tag_303\n      jumpi\n      tag_304\n      tag_115\n      jump\t// in\n    tag_304:\n    tag_303:\n      eq\n      iszero\n        /* \"contracts/Vote/VoterContract.sol\":2979:3054  require(proposals[id].proposalType!=VotingType.Closed,\"There is no voting\") */\n      tag_305\n      jumpi\n      mload(0x40)\n      0x08c379a000000000000000000000000000000000000000000000000000000000\n      dup2\n      mstore\n      0x04\n      add\n      tag_306\n      swap1\n      tag_120\n      jump\t// in\n    tag_306:\n      mload(0x40)\n      dup1\n      swap2\n      sub\n      swap1\n      revert\n    tag_305:\n        /* \"contracts/Vote/VoterContract.sol\":7451:7453  id */\n      dup3\n        /* \"contracts/Vote/VoterContract.sol\":2473:2483  __VOTERS__ */\n      0x02\n        /* \"contracts/Vote/VoterContract.sol\":2473:2495  __VOTERS__[msg.sender] */\n      0x00\n        /* \"contracts/Vote/VoterContract.sol\":2484:2494  msg.sender */\n      caller\n        /* \"contracts/Vote/VoterContract.sol\":2473:2495  __VOTERS__[msg.sender] */\n      0xffffffffffffffffffffffffffffffffffffffff\n      and\n      0xffffffffffffffffffffffffffffffffffffffff\n      and\n      dup2\n      mstore\n      0x20\n      add\n      swap1\n      dup2\n      mstore\n      0x20\n      add\n      0x00\n      keccak256\n      0x00\n      swap1\n      sload\n      swap1\n      0x0100\n      exp\n      swap1\n      div\n      0xff\n      and\n        /* \"contracts/Vote/VoterContract.sol\":2465:2518  require(__VOTERS__[msg.sender],\"You are not a voter\") */\n      tag_308\n      jumpi\n      mload(0x40)\n      0x08c379a000000000000000000000000000000000000000000000000000000000\n      dup2\n      mstore\n      0x04\n      add\n      tag_309\n      swap1\n      tag_214\n      jump\t// in\n    tag_309:\n      mload(0x40)\n      dup1\n      swap2\n      sub\n      swap1\n      revert\n    tag_308:\n        /* \"contracts/Vote/VoterContract.sol\":2572:2573  0 */\n      0x00\n        /* \"contracts/Vote/VoterContract.sol\":2537:2554  proposalVotePower */\n      0x05\n        /* \"contracts/Vote/VoterContract.sol\":2537:2558  proposalVotePower[id] */\n      0x00\n        /* \"contracts/Vote/VoterContract.sol\":2555:2557  id */\n      dup4\n        /* \"contracts/Vote/VoterContract.sol\":2537:2558  proposalVotePower[id] */\n      0xffff\n      and\n      0xffff\n      and\n      dup2\n      mstore\n      0x20\n      add\n      swap1\n      dup2\n      mstore\n      0x20\n      add\n      0x00\n      keccak256\n        /* \"contracts/Vote/VoterContract.sol\":2537:2570  proposalVotePower[id][msg.sender] */\n      0x00\n        /* \"contracts/Vote/VoterContract.sol\":2559:2569  msg.sender */\n      caller\n        /* \"contracts/Vote/VoterContract.sol\":2537:2570  proposalVotePower[id][msg.sender] */\n      0xffffffffffffffffffffffffffffffffffffffff\n      and\n      0xffffffffffffffffffffffffffffffffffffffff\n      and\n      dup2\n      mstore\n      0x20\n      add\n      swap1\n      dup2\n      mstore\n      0x20\n      add\n      0x00\n      keccak256\n      0x00\n      swap1\n      sload\n      swap1\n      0x0100\n      exp\n      swap1\n      div\n      0xff\n      and\n        /* \"contracts/Vote/VoterContract.sol\":2537:2573  proposalVotePower[id][msg.sender]==0 */\n      0xff\n      and\n      eq\n        /* \"contracts/Vote/VoterContract.sol\":2529:2598  require(proposalVotePower[id][msg.sender]==0,\"You have voted before\") */\n      tag_310\n      jumpi\n      mload(0x40)\n      0x08c379a000000000000000000000000000000000000000000000000000000000\n      dup2\n      mstore\n      0x04\n      add\n      tag_311\n      swap1\n      tag_217\n      jump\t// in\n    tag_311:\n      mload(0x40)\n      dup1\n      swap2\n      sub\n      swap1\n      revert\n    tag_310:\n        /* \"contracts/Vote/VoterContract.sol\":7501:7517  VotingType.YesNo */\n      0x01\n        /* \"contracts/Vote/VoterContract.sol\":7473:7517  proposals[id].proposalType==VotingType.YesNo */\n      0x02\n      dup2\n      gt\n      iszero\n      tag_313\n      jumpi\n      tag_314\n      tag_115\n      jump\t// in\n    tag_314:\n    tag_313:\n        /* \"contracts/Vote/VoterContract.sol\":7473:7482  proposals */\n      0x06\n        /* \"contracts/Vote/VoterContract.sol\":7473:7486  proposals[id] */\n      0x00\n        /* \"contracts/Vote/VoterContract.sol\":7483:7485  id */\n      dup7\n        /* \"contracts/Vote/VoterContract.sol\":7473:7486  proposals[id] */\n      0xffff\n      and\n      0xffff\n      and\n      dup2\n      mstore\n      0x20\n      add\n      swap1\n      dup2\n      mstore\n      0x20\n      add\n      0x00\n      keccak256\n        /* \"contracts/Vote/VoterContract.sol\":7473:7499  proposals[id].proposalType */\n      0x06\n      add\n      0x00\n      swap1\n      sload\n      swap1\n      0x0100\n      exp\n      swap1\n      div\n      0xff\n      and\n        /* \"contracts/Vote/VoterContract.sol\":7473:7517  proposals[id].proposalType==VotingType.YesNo */\n      0x02\n      dup2\n      gt\n      iszero\n      tag_315\n      jumpi\n      tag_316\n      tag_115\n      jump\t// in\n    tag_316:\n    tag_315:\n      eq\n        /* \"contracts/Vote/VoterContract.sol\":7465:7566  require(proposals[id].proposalType==VotingType.YesNo,\"Currently we are not voting on this function.\") */\n      tag_317\n      jumpi\n      mload(0x40)\n      0x08c379a000000000000000000000000000000000000000000000000000000000\n      dup2\n      mstore\n      0x04\n      add\n      tag_318\n      swap1\n      tag_225\n      jump\t// in\n    tag_318:\n      mload(0x40)\n      dup1\n      swap2\n      sub\n      swap1\n      revert\n    tag_317:\n        /* \"contracts/Vote/VoterContract.sol\":7588:7596  NoYes.No */\n      0x00\n        /* \"contracts/Vote/VoterContract.sol\":7582:7596  vote==NoYes.No */\n      0x01\n      dup2\n      gt\n      iszero\n      tag_319\n      jumpi\n      tag_320\n      tag_115\n      jump\t// in\n    tag_320:\n    tag_319:\n        /* \"contracts/Vote/VoterContract.sol\":7582:7586  vote */\n      dup4\n        /* \"contracts/Vote/VoterContract.sol\":7582:7596  vote==NoYes.No */\n      0x01\n      dup2\n      gt\n      iszero\n      tag_321\n      jumpi\n      tag_322\n      tag_115\n      jump\t// in\n    tag_322:\n    tag_321:\n      eq\n        /* \"contracts/Vote/VoterContract.sol\":7579:7811  if(vote==NoYes.No){\r... */\n      iszero\n      tag_323\n      jumpi\n        /* \"contracts/Vote/VoterContract.sol\":7648:7649  1 */\n      0x01\n        /* \"contracts/Vote/VoterContract.sol\":7612:7629  proposalVotePower */\n      0x05\n        /* \"contracts/Vote/VoterContract.sol\":7612:7633  proposalVotePower[id] */\n      0x00\n        /* \"contracts/Vote/VoterContract.sol\":7630:7632  id */\n      dup7\n        /* \"contracts/Vote/VoterContract.sol\":7612:7633  proposalVotePower[id] */\n      0xffff\n      and\n      0xffff\n      and\n      dup2\n      mstore\n      0x20\n      add\n      swap1\n      dup2\n      mstore\n      0x20\n      add\n      0x00\n      keccak256\n        /* \"contracts/Vote/VoterContract.sol\":7612:7645  proposalVotePower[id][msg.sender] */\n      0x00\n        /* \"contracts/Vote/VoterContract.sol\":7634:7644  msg.sender */\n      caller\n        /* \"contracts/Vote/VoterContract.sol\":7612:7645  proposalVotePower[id][msg.sender] */\n      0xffffffffffffffffffffffffffffffffffffffff\n      and\n      0xffffffffffffffffffffffffffffffffffffffff\n      and\n      dup2\n      mstore\n      0x20\n      add\n      swap1\n      dup2\n      mstore\n      0x20\n      add\n      0x00\n      keccak256\n      0x00\n        /* \"contracts/Vote/VoterContract.sol\":7612:7649  proposalVotePower[id][msg.sender] = 1 */\n      0x0100\n      exp\n      dup2\n      sload\n      dup2\n      0xff\n      mul\n      not\n      and\n      swap1\n      dup4\n      0xff\n      and\n      mul\n      or\n      swap1\n      sstore\n      pop\n        /* \"contracts/Vote/VoterContract.sol\":7688:7689  1 */\n      0x01\n        /* \"contracts/Vote/VoterContract.sol\":7664:7673  proposals */\n      0x06\n        /* \"contracts/Vote/VoterContract.sol\":7664:7677  proposals[id] */\n      0x00\n        /* \"contracts/Vote/VoterContract.sol\":7674:7676  id */\n      dup7\n        /* \"contracts/Vote/VoterContract.sol\":7664:7677  proposals[id] */\n      0xffff\n      and\n      0xffff\n      and\n      dup2\n      mstore\n      0x20\n      add\n      swap1\n      dup2\n      mstore\n      0x20\n      add\n      0x00\n      keccak256\n        /* \"contracts/Vote/VoterContract.sol\":7664:7684  proposals[id].result */\n      0x02\n      add\n      0x04\n        /* \"contracts/Vote/VoterContract.sol\":7664:7689  proposals[id].result += 1 */\n      dup3\n      dup3\n      dup3\n      swap1\n      sload\n      swap1\n      0x0100\n      exp\n      swap1\n      div\n      0xffffffff\n      and\n      tag_324\n      swap2\n      swap1\n      tag_232\n      jump\t// in\n    tag_324:\n      swap3\n      pop\n      0x0100\n      exp\n      dup2\n      sload\n      dup2\n      0xffffffff\n      mul\n      not\n      and\n      swap1\n      dup4\n      0xffffffff\n      and\n      mul\n      or\n      swap1\n      sstore\n      pop\n        /* \"contracts/Vote/VoterContract.sol\":7579:7811  if(vote==NoYes.No){\r... */\n      jump(tag_325)\n    tag_323:\n        /* \"contracts/Vote/VoterContract.sol\":7756:7758  10 */\n      0x0a\n        /* \"contracts/Vote/VoterContract.sol\":7720:7737  proposalVotePower */\n      0x05\n        /* \"contracts/Vote/VoterContract.sol\":7720:7741  proposalVotePower[id] */\n      0x00\n        /* \"contracts/Vote/VoterContract.sol\":7738:7740  id */\n      dup7\n        /* \"contracts/Vote/VoterContract.sol\":7720:7741  proposalVotePower[id] */\n      0xffff\n      and\n      0xffff\n      and\n      dup2\n      mstore\n      0x20\n      add\n      swap1\n      dup2\n      mstore\n      0x20\n      add\n      0x00\n      keccak256\n        /* \"contracts/Vote/VoterContract.sol\":7720:7753  proposalVotePower[id][msg.sender] */\n      0x00\n        /* \"contracts/Vote/VoterContract.sol\":7742:7752  msg.sender */\n      caller\n        /* \"contracts/Vote/VoterContract.sol\":7720:7753  proposalVotePower[id][msg.sender] */\n      0xffffffffffffffffffffffffffffffffffffffff\n      and\n      0xffffffffffffffffffffffffffffffffffffffff\n      and\n      dup2\n      mstore\n      0x20\n      add\n      swap1\n      dup2\n      mstore\n      0x20\n      add\n      0x00\n      keccak256\n      0x00\n        /* \"contracts/Vote/VoterContract.sol\":7720:7758  proposalVotePower[id][msg.sender] = 10 */\n      0x0100\n      exp\n      dup2\n      sload\n      dup2\n      0xff\n      mul\n      not\n      and\n      swap1\n      dup4\n      0xff\n      and\n      mul\n      or\n      swap1\n      sstore\n      pop\n        /* \"contracts/Vote/VoterContract.sol\":7797:7799  10 */\n      0x0a\n        /* \"contracts/Vote/VoterContract.sol\":7773:7782  proposals */\n      0x06\n        /* \"contracts/Vote/VoterContract.sol\":7773:7786  proposals[id] */\n      0x00\n        /* \"contracts/Vote/VoterContract.sol\":7783:7785  id */\n      dup7\n        /* \"contracts/Vote/VoterContract.sol\":7773:7786  proposals[id] */\n      0xffff\n      and\n      0xffff\n      and\n      dup2\n      mstore\n      0x20\n      add\n      swap1\n      dup2\n      mstore\n      0x20\n      add\n      0x00\n      keccak256\n        /* \"contracts/Vote/VoterContract.sol\":7773:7793  proposals[id].result */\n      0x02\n      add\n      0x04\n        /* \"contracts/Vote/VoterContract.sol\":7773:7799  proposals[id].result += 10 */\n      dup3\n      dup3\n      dup3\n      swap1\n      sload\n      swap1\n      0x0100\n      exp\n      swap1\n      div\n      0xffffffff\n      and\n      tag_326\n      swap2\n      swap1\n      tag_232\n      jump\t// in\n    tag_326:\n      swap3\n      pop\n      0x0100\n      exp\n      dup2\n      sload\n      dup2\n      0xffffffff\n      mul\n      not\n      and\n      swap1\n      dup4\n      0xffffffff\n      and\n      mul\n      or\n      swap1\n      sstore\n      pop\n        /* \"contracts/Vote/VoterContract.sol\":7579:7811  if(vote==NoYes.No){\r... */\n    tag_325:\n        /* \"contracts/Vote/VoterContract.sol\":7844:7845  1 */\n      0x01\n        /* \"contracts/Vote/VoterContract.sol\":7821:7830  proposals */\n      0x06\n        /* \"contracts/Vote/VoterContract.sol\":7821:7834  proposals[id] */\n      0x00\n        /* \"contracts/Vote/VoterContract.sol\":7831:7833  id */\n      dup7\n        /* \"contracts/Vote/VoterContract.sol\":7821:7834  proposals[id] */\n      0xffff\n      and\n      0xffff\n      and\n      dup2\n      mstore\n      0x20\n      add\n      swap1\n      dup2\n      mstore\n      0x20\n      add\n      0x00\n      keccak256\n        /* \"contracts/Vote/VoterContract.sol\":7821:7840  proposals[id].voted */\n      0x02\n      add\n      0x00\n        /* \"contracts/Vote/VoterContract.sol\":7821:7845  proposals[id].voted += 1 */\n      dup3\n      dup3\n      dup3\n      swap1\n      sload\n      swap1\n      0x0100\n      exp\n      swap1\n      div\n      0xffffffff\n      and\n      tag_327\n      swap2\n      swap1\n      tag_232\n      jump\t// in\n    tag_327:\n      swap3\n      pop\n      0x0100\n      exp\n      dup2\n      sload\n      dup2\n      0xffffffff\n      mul\n      not\n      and\n      swap1\n      dup4\n      0xffffffff\n      and\n      mul\n      or\n      swap1\n      sstore\n      pop\n        /* \"contracts/Vote/VoterContract.sol\":3065:3066  _ */\n      pop\n        /* \"contracts/Vote/VoterContract.sol\":7330:7853  function useVotePowerProposalYesNo(uint16 id,NoYes vote) external isProposalContinuing(id) onlyNotVotedVotersForProposal(id){\r... */\n      pop\n      pop\n      pop\n      jump\t// out\n        /* \"contracts/Vote/VoterContract.sol\":9500:9607  function whatDidIVote() external view returns(uint8){\r... */\n    tag_86:\n        /* \"contracts/Vote/VoterContract.sol\":9546:9551  uint8 */\n      0x00\n        /* \"contracts/Vote/VoterContract.sol\":9570:9579  votePower */\n      0x03\n        /* \"contracts/Vote/VoterContract.sol\":9570:9587  votePower[voteId] */\n      0x00\n        /* \"contracts/Vote/VoterContract.sol\":9580:9586  voteId */\n      0x07\n      0x00\n      swap1\n      sload\n      swap1\n      0x0100\n      exp\n      swap1\n      div\n      0xffff\n      and\n        /* \"contracts/Vote/VoterContract.sol\":9570:9587  votePower[voteId] */\n      0xffff\n      and\n      0xffff\n      and\n      dup2\n      mstore\n      0x20\n      add\n      swap1\n      dup2\n      mstore\n      0x20\n      add\n      0x00\n      keccak256\n        /* \"contracts/Vote/VoterContract.sol\":9570:9599  votePower[voteId][msg.sender] */\n      0x00\n        /* \"contracts/Vote/VoterContract.sol\":9588:9598  msg.sender */\n      caller\n        /* \"contracts/Vote/VoterContract.sol\":9570:9599  votePower[voteId][msg.sender] */\n      0xffffffffffffffffffffffffffffffffffffffff\n      and\n      0xffffffffffffffffffffffffffffffffffffffff\n      and\n      dup2\n      mstore\n      0x20\n      add\n      swap1\n      dup2\n      mstore\n      0x20\n      add\n      0x00\n      keccak256\n      0x00\n      swap1\n      sload\n      swap1\n      0x0100\n      exp\n      swap1\n      div\n      0xff\n      and\n        /* \"contracts/Vote/VoterContract.sol\":9563:9599  return votePower[voteId][msg.sender] */\n      swap1\n      pop\n        /* \"contracts/Vote/VoterContract.sol\":9500:9607  function whatDidIVote() external view returns(uint8){\r... */\n      swap1\n      jump\t// out\n        /* \"contracts/Vote/VoterContract.sol\":1388:1428  mapping(uint16 => Voting) public votings */\n    tag_91:\n      mstore(0x20, 0x04)\n      dup1\n      0x00\n      mstore\n      keccak256(0x00, 0x40)\n      0x00\n      swap2\n      pop\n      swap1\n      pop\n      dup1\n      0x00\n      add\n      0x00\n      swap1\n      sload\n      swap1\n      0x0100\n      exp\n      swap1\n      div\n      0xffff\n      and\n      swap1\n      dup1\n      0x01\n      add\n      dup1\n      sload\n      tag_329\n      swap1\n      tag_171\n      jump\t// in\n    tag_329:\n      dup1\n      0x1f\n      add\n      0x20\n      dup1\n      swap2\n      div\n      mul\n      0x20\n      add\n      mload(0x40)\n      swap1\n      dup2\n      add\n      0x40\n      mstore\n      dup1\n      swap3\n      swap2\n      swap1\n      dup2\n      dup2\n      mstore\n      0x20\n      add\n      dup3\n      dup1\n      sload\n      tag_330\n      swap1\n      tag_171\n      jump\t// in\n    tag_330:\n      dup1\n      iszero\n      tag_331\n      jumpi\n      dup1\n      0x1f\n      lt\n      tag_332\n      jumpi\n      0x0100\n      dup1\n      dup4\n      sload\n      div\n      mul\n      dup4\n      mstore\n      swap2\n      0x20\n      add\n      swap2\n      jump(tag_331)\n    tag_332:\n      dup3\n      add\n      swap2\n      swap1\n      0x00\n      mstore\n      keccak256(0x00, 0x20)\n      swap1\n    tag_333:\n      dup2\n      sload\n      dup2\n      mstore\n      swap1\n      0x01\n      add\n      swap1\n      0x20\n      add\n      dup1\n      dup4\n      gt\n      tag_333\n      jumpi\n      dup3\n      swap1\n      sub\n      0x1f\n      and\n      dup3\n      add\n      swap2\n    tag_331:\n      pop\n      pop\n      pop\n      pop\n      pop\n      swap1\n      dup1\n      0x02\n      add\n      0x00\n      swap1\n      sload\n      swap1\n      0x0100\n      exp\n      swap1\n      div\n      0xffffffff\n      and\n      swap1\n      dup1\n      0x02\n      add\n      0x04\n      swap1\n      sload\n      swap1\n      0x0100\n      exp\n      swap1\n      div\n      0xffffffff\n      and\n      swap1\n      dup1\n      0x02\n      add\n      0x08\n      swap1\n      sload\n      swap1\n      0x0100\n      exp\n      swap1\n      div\n      0xffffffffffffffffffffffffffffffffffffffff\n      and\n      swap1\n      dup1\n      0x03\n      add\n      sload\n      swap1\n      dup1\n      0x04\n      add\n      sload\n      swap1\n      dup1\n      0x05\n      add\n      sload\n      swap1\n      dup1\n      0x06\n      add\n      0x00\n      swap1\n      sload\n      swap1\n      0x0100\n      exp\n      swap1\n      div\n      0xff\n      and\n      swap1\n      pop\n      dup10\n      jump\t// out\n        /* \"contracts/Vote/VoterContract.sol\":4474:4727  function closeProposal(uint16 id) public isProposalContinuing(id) onlyVoters(msg.sender){\r... */\n    tag_95:\n        /* \"contracts/Vote/VoterContract.sol\":4536:4538  id */\n      dup1\n        /* \"contracts/Vote/VoterContract.sol\":3015:3032  VotingType.Closed */\n      0x00\n        /* \"contracts/Vote/VoterContract.sol\":2987:3032  proposals[id].proposalType!=VotingType.Closed */\n      0x02\n      dup2\n      gt\n      iszero\n      tag_335\n      jumpi\n      tag_336\n      tag_115\n      jump\t// in\n    tag_336:\n    tag_335:\n        /* \"contracts/Vote/VoterContract.sol\":2987:2996  proposals */\n      0x06\n        /* \"contracts/Vote/VoterContract.sol\":2987:3000  proposals[id] */\n      0x00\n        /* \"contracts/Vote/VoterContract.sol\":2997:2999  id */\n      dup4\n        /* \"contracts/Vote/VoterContract.sol\":2987:3000  proposals[id] */\n      0xffff\n      and\n      0xffff\n      and\n      dup2\n      mstore\n      0x20\n      add\n      swap1\n      dup2\n      mstore\n      0x20\n      add\n      0x00\n      keccak256\n        /* \"contracts/Vote/VoterContract.sol\":2987:3013  proposals[id].proposalType */\n      0x06\n      add\n      0x00\n      swap1\n      sload\n      swap1\n      0x0100\n      exp\n      swap1\n      div\n      0xff\n      and\n        /* \"contracts/Vote/VoterContract.sol\":2987:3032  proposals[id].proposalType!=VotingType.Closed */\n      0x02\n      dup2\n      gt\n      iszero\n      tag_337\n      jumpi\n      tag_338\n      tag_115\n      jump\t// in\n    tag_338:\n    tag_337:\n      eq\n      iszero\n        /* \"contracts/Vote/VoterContract.sol\":2979:3054  require(proposals[id].proposalType!=VotingType.Closed,\"There is no voting\") */\n      tag_339\n      jumpi\n      mload(0x40)\n      0x08c379a000000000000000000000000000000000000000000000000000000000\n      dup2\n      mstore\n      0x04\n      add\n      tag_340\n      swap1\n      tag_120\n      jump\t// in\n    tag_340:\n      mload(0x40)\n      dup1\n      swap2\n      sub\n      swap1\n      revert\n    tag_339:\n        /* \"contracts/Vote/VoterContract.sol\":4551:4561  msg.sender */\n      caller\n        /* \"contracts/Vote/VoterContract.sol\":2140:2150  __VOTERS__ */\n      0x02\n        /* \"contracts/Vote/VoterContract.sol\":2140:2155  __VOTERS__[adr] */\n      0x00\n        /* \"contracts/Vote/VoterContract.sol\":2151:2154  adr */\n      dup3\n        /* \"contracts/Vote/VoterContract.sol\":2140:2155  __VOTERS__[adr] */\n      0xffffffffffffffffffffffffffffffffffffffff\n      and\n      0xffffffffffffffffffffffffffffffffffffffff\n      and\n      dup2\n      mstore\n      0x20\n      add\n      swap1\n      dup2\n      mstore\n      0x20\n      add\n      0x00\n      keccak256\n      0x00\n      swap1\n      sload\n      swap1\n      0x0100\n      exp\n      swap1\n      div\n      0xff\n      and\n        /* \"contracts/Vote/VoterContract.sol\":2132:2179  require(__VOTERS__[adr],\"You are not a voterr\") */\n      tag_342\n      jumpi\n      mload(0x40)\n      0x08c379a000000000000000000000000000000000000000000000000000000000\n      dup2\n      mstore\n      0x04\n      add\n      tag_343\n      swap1\n      tag_124\n      jump\t// in\n    tag_343:\n      mload(0x40)\n      dup1\n      swap2\n      sub\n      swap1\n      revert\n    tag_342:\n        /* \"contracts/Vote/VoterContract.sol\":4595:4604  proposals */\n      0x06\n        /* \"contracts/Vote/VoterContract.sol\":4595:4608  proposals[id] */\n      0x00\n        /* \"contracts/Vote/VoterContract.sol\":4605:4607  id */\n      dup5\n        /* \"contracts/Vote/VoterContract.sol\":4595:4608  proposals[id] */\n      0xffff\n      and\n      0xffff\n      and\n      dup2\n      mstore\n      0x20\n      add\n      swap1\n      dup2\n      mstore\n      0x20\n      add\n      0x00\n      keccak256\n        /* \"contracts/Vote/VoterContract.sol\":4595:4636  proposals[id].blockNumberWillNotEndBefore */\n      0x04\n      add\n      sload\n        /* \"contracts/Vote/VoterContract.sol\":4581:4593  block.number */\n      number\n        /* \"contracts/Vote/VoterContract.sol\":4581:4636  block.number>=proposals[id].blockNumberWillNotEndBefore */\n      lt\n      iszero\n        /* \"contracts/Vote/VoterContract.sol\":4573:4690  require(block.number>=proposals[id].blockNumberWillNotEndBefore,\"Voting cannot be closed before it's designated to.\") */\n      tag_345\n      jumpi\n      mload(0x40)\n      0x08c379a000000000000000000000000000000000000000000000000000000000\n      dup2\n      mstore\n      0x04\n      add\n      tag_346\n      swap1\n      tag_128\n      jump\t// in\n    tag_346:\n      mload(0x40)\n      dup1\n      swap2\n      sub\n      swap1\n      revert\n    tag_345:\n        /* \"contracts/Vote/VoterContract.sol\":4701:4719  _closeProposal(id) */\n      tag_347\n        /* \"contracts/Vote/VoterContract.sol\":4716:4718  id */\n      dup4\n        /* \"contracts/Vote/VoterContract.sol\":4701:4715  _closeProposal */\n      tag_348\n        /* \"contracts/Vote/VoterContract.sol\":4701:4719  _closeProposal(id) */\n      jump\t// in\n    tag_347:\n        /* \"contracts/Vote/VoterContract.sol\":3065:3066  _ */\n      pop\n        /* \"contracts/Vote/VoterContract.sol\":4474:4727  function closeProposal(uint16 id) public isProposalContinuing(id) onlyVoters(msg.sender){\r... */\n      pop\n      pop\n      jump\t// out\n        /* \"contracts/Vote/VoterContract.sol\":3388:3665  function giveVotingPower(address voterAddress) external onlyKeyHolder noZeroAddress(voterAddress) {\r... */\n    tag_98:\n        /* \"contracts/Vote/VoterContract.sol\":2017:2026  keyHolder */\n      0x01\n      0x00\n      swap1\n      sload\n      swap1\n      0x0100\n      exp\n      swap1\n      div\n      0xffffffffffffffffffffffffffffffffffffffff\n      and\n        /* \"contracts/Vote/VoterContract.sol\":2003:2026  msg.sender == keyHolder */\n      0xffffffffffffffffffffffffffffffffffffffff\n      and\n        /* \"contracts/Vote/VoterContract.sol\":2003:2013  msg.sender */\n      caller\n        /* \"contracts/Vote/VoterContract.sol\":2003:2026  msg.sender == keyHolder */\n      0xffffffffffffffffffffffffffffffffffffffff\n      and\n      eq\n        /* \"contracts/Vote/VoterContract.sol\":1995:2063  require(msg.sender == keyHolder,\"You are not the KeyHolderContract\") */\n      tag_350\n      jumpi\n      mload(0x40)\n      0x08c379a000000000000000000000000000000000000000000000000000000000\n      dup2\n      mstore\n      0x04\n      add\n      tag_351\n      swap1\n      tag_352\n      jump\t// in\n    tag_351:\n      mload(0x40)\n      dup1\n      swap2\n      sub\n      swap1\n      revert\n    tag_350:\n        /* \"contracts/Vote/VoterContract.sol\":3472:3484  voterAddress */\n      dup1\n        /* \"contracts/Vote/VoterContract.sol\":1909:1910  0 */\n      0x00\n        /* \"contracts/Vote/VoterContract.sol\":1896:1911  adr!=address(0) */\n      0xffffffffffffffffffffffffffffffffffffffff\n      and\n        /* \"contracts/Vote/VoterContract.sol\":1896:1899  adr */\n      dup2\n        /* \"contracts/Vote/VoterContract.sol\":1896:1911  adr!=address(0) */\n      0xffffffffffffffffffffffffffffffffffffffff\n      and\n      eq\n      iszero\n        /* \"contracts/Vote/VoterContract.sol\":1888:1935  require(adr!=address(0),\"Zero Address entered\") */\n      tag_354\n      jumpi\n      mload(0x40)\n      0x08c379a000000000000000000000000000000000000000000000000000000000\n      dup2\n      mstore\n      0x04\n      add\n      tag_355\n      swap1\n      tag_356\n      jump\t// in\n    tag_355:\n      mload(0x40)\n      dup1\n      swap2\n      sub\n      swap1\n      revert\n    tag_354:\n        /* \"contracts/Vote/VoterContract.sol\":3506:3516  __VOTERS__ */\n      0x02\n        /* \"contracts/Vote/VoterContract.sol\":3506:3530  __VOTERS__[voterAddress] */\n      0x00\n        /* \"contracts/Vote/VoterContract.sol\":3517:3529  voterAddress */\n      dup4\n        /* \"contracts/Vote/VoterContract.sol\":3506:3530  __VOTERS__[voterAddress] */\n      0xffffffffffffffffffffffffffffffffffffffff\n      and\n      0xffffffffffffffffffffffffffffffffffffffff\n      and\n      dup2\n      mstore\n      0x20\n      add\n      swap1\n      dup2\n      mstore\n      0x20\n      add\n      0x00\n      keccak256\n      0x00\n      swap1\n      sload\n      swap1\n      0x0100\n      exp\n      swap1\n      div\n      0xff\n      and\n        /* \"contracts/Vote/VoterContract.sol\":3505:3530  !__VOTERS__[voterAddress] */\n      iszero\n        /* \"contracts/Vote/VoterContract.sol\":3497:3567  require(!__VOTERS__[voterAddress],\"Given address is already a voter.\") */\n      tag_358\n      jumpi\n      mload(0x40)\n      0x08c379a000000000000000000000000000000000000000000000000000000000\n      dup2\n      mstore\n      0x04\n      add\n      tag_359\n      swap1\n      tag_360\n      jump\t// in\n    tag_359:\n      mload(0x40)\n      dup1\n      swap2\n      sub\n      swap1\n      revert\n    tag_358:\n        /* \"contracts/Vote/VoterContract.sol\":3614:3615  1 */\n      0x01\n        /* \"contracts/Vote/VoterContract.sol\":3596:3611  totalVoterCount */\n      0x07\n      0x04\n      swap1\n      sload\n      swap1\n      0x0100\n      exp\n      swap1\n      div\n      0xffff\n      and\n        /* \"contracts/Vote/VoterContract.sol\":3596:3615  totalVoterCount + 1 */\n      tag_361\n      swap2\n      swap1\n      tag_151\n      jump\t// in\n    tag_361:\n        /* \"contracts/Vote/VoterContract.sol\":3578:3593  totalVoterCount */\n      0x07\n      0x04\n        /* \"contracts/Vote/VoterContract.sol\":3578:3615  totalVoterCount = totalVoterCount + 1 */\n      0x0100\n      exp\n      dup2\n      sload\n      dup2\n      0xffff\n      mul\n      not\n      and\n      swap1\n      dup4\n      0xffff\n      and\n      mul\n      or\n      swap1\n      sstore\n      pop\n        /* \"contracts/Vote/VoterContract.sol\":3653:3657  true */\n      0x01\n        /* \"contracts/Vote/VoterContract.sol\":3626:3636  __VOTERS__ */\n      0x02\n        /* \"contracts/Vote/VoterContract.sol\":3626:3650  __VOTERS__[voterAddress] */\n      0x00\n        /* \"contracts/Vote/VoterContract.sol\":3637:3649  voterAddress */\n      dup5\n        /* \"contracts/Vote/VoterContract.sol\":3626:3650  __VOTERS__[voterAddress] */\n      0xffffffffffffffffffffffffffffffffffffffff\n      and\n      0xffffffffffffffffffffffffffffffffffffffff\n      and\n      dup2\n      mstore\n      0x20\n      add\n      swap1\n      dup2\n      mstore\n      0x20\n      add\n      0x00\n      keccak256\n      0x00\n        /* \"contracts/Vote/VoterContract.sol\":3626:3657  __VOTERS__[voterAddress] = true */\n      0x0100\n      exp\n      dup2\n      sload\n      dup2\n      0xff\n      mul\n      not\n      and\n      swap1\n      dup4\n      iszero\n      iszero\n      mul\n      or\n      swap1\n      sstore\n      pop\n        /* \"contracts/Vote/VoterContract.sol\":2074:2075  _ */\n      pop\n        /* \"contracts/Vote/VoterContract.sol\":3388:3665  function giveVotingPower(address voterAddress) external onlyKeyHolder noZeroAddress(voterAddress) {\r... */\n      pop\n      jump\t// out\n        /* \"@openzeppelin/contracts/access/Ownable.sol\":2074:2272  function transferOwnership(address newOwner) public virtual onlyOwner {... */\n    tag_101:\n        /* \"@openzeppelin/contracts/access/Ownable.sol\":1094:1107  _checkOwner() */\n      tag_363\n        /* \"@openzeppelin/contracts/access/Ownable.sol\":1094:1105  _checkOwner */\n      tag_263\n        /* \"@openzeppelin/contracts/access/Ownable.sol\":1094:1107  _checkOwner() */\n      jump\t// in\n    tag_363:\n        /* \"@openzeppelin/contracts/access/Ownable.sol\":2182:2183  0 */\n      0x00\n        /* \"@openzeppelin/contracts/access/Ownable.sol\":2162:2184  newOwner != address(0) */\n      0xffffffffffffffffffffffffffffffffffffffff\n      and\n        /* \"@openzeppelin/contracts/access/Ownable.sol\":2162:2170  newOwner */\n      dup2\n        /* \"@openzeppelin/contracts/access/Ownable.sol\":2162:2184  newOwner != address(0) */\n      0xffffffffffffffffffffffffffffffffffffffff\n      and\n      eq\n      iszero\n        /* \"@openzeppelin/contracts/access/Ownable.sol\":2154:2227  require(newOwner != address(0), \"Ownable: new owner is the zero address\") */\n      tag_365\n      jumpi\n      mload(0x40)\n      0x08c379a000000000000000000000000000000000000000000000000000000000\n      dup2\n      mstore\n      0x04\n      add\n      tag_366\n      swap1\n      tag_367\n      jump\t// in\n    tag_366:\n      mload(0x40)\n      dup1\n      swap2\n      sub\n      swap1\n      revert\n    tag_365:\n        /* \"@openzeppelin/contracts/access/Ownable.sol\":2237:2265  _transferOwnership(newOwner) */\n      tag_368\n        /* \"@openzeppelin/contracts/access/Ownable.sol\":2256:2264  newOwner */\n      dup2\n        /* \"@openzeppelin/contracts/access/Ownable.sol\":2237:2255  _transferOwnership */\n      tag_266\n        /* \"@openzeppelin/contracts/access/Ownable.sol\":2237:2265  _transferOwnership(newOwner) */\n      jump\t// in\n    tag_368:\n        /* \"@openzeppelin/contracts/access/Ownable.sol\":2074:2272  function transferOwnership(address newOwner) public virtual onlyOwner {... */\n      pop\n      jump\t// out\n        /* \"contracts/Vote/VoterContract.sol\":8310:8882  function getVotings(uint8 skip, uint8 take) external view returns(Voting[] memory){\r... */\n    tag_105:\n        /* \"contracts/Vote/VoterContract.sol\":8376:8391  Voting[] memory */\n      0x60\n        /* \"contracts/Vote/VoterContract.sol\":8403:8427  Voting[] memory _votings */\n      0x00\n        /* \"contracts/Vote/VoterContract.sol\":8443:8447  take */\n      dup3\n        /* \"contracts/Vote/VoterContract.sol\":8430:8448  new Voting[](take) */\n      0xff\n      and\n      0xffffffffffffffff\n      dup2\n      gt\n      iszero\n      tag_370\n      jumpi\n      tag_371\n      tag_155\n      jump\t// in\n    tag_371:\n    tag_370:\n      mload(0x40)\n      swap1\n      dup1\n      dup3\n      mstore\n      dup1\n      0x20\n      mul\n      0x20\n      add\n      dup3\n      add\n      0x40\n      mstore\n      dup1\n      iszero\n      tag_372\n      jumpi\n      dup2\n      0x20\n      add\n    tag_373:\n      tag_374\n      tag_375\n      jump\t// in\n    tag_374:\n      dup2\n      mstore\n      0x20\n      add\n      swap1\n      0x01\n      swap1\n      sub\n      swap1\n      dup2\n      tag_373\n      jumpi\n      swap1\n      pop\n    tag_372:\n      pop\n        /* \"contracts/Vote/VoterContract.sol\":8403:8448  Voting[] memory _votings = new Voting[](take) */\n      swap1\n      pop\n        /* \"contracts/Vote/VoterContract.sol\":8459:8468  uint16 vi */\n      0x00\n        /* \"contracts/Vote/VoterContract.sol\":8471:8477  voteId */\n      0x07\n      0x00\n      swap1\n      sload\n      swap1\n      0x0100\n      exp\n      swap1\n      div\n      0xffff\n      and\n        /* \"contracts/Vote/VoterContract.sol\":8459:8477  uint16 vi = voteId */\n      swap1\n      pop\n        /* \"contracts/Vote/VoterContract.sol\":8498:8500  vi */\n      dup1\n        /* \"contracts/Vote/VoterContract.sol\":8493:8500  skip>vi */\n      0xffff\n      and\n        /* \"contracts/Vote/VoterContract.sol\":8493:8497  skip */\n      dup6\n        /* \"contracts/Vote/VoterContract.sol\":8493:8500  skip>vi */\n      0xff\n      and\n      gt\n        /* \"contracts/Vote/VoterContract.sol\":8490:8847  if(skip>vi){\r... */\n      iszero\n      tag_376\n      jumpi\n        /* \"contracts/Vote/VoterContract.sol\":8523:8531  _votings */\n      dup2\n        /* \"contracts/Vote/VoterContract.sol\":8516:8531  return _votings */\n      swap3\n      pop\n      pop\n      pop\n      jump(tag_369)\n        /* \"contracts/Vote/VoterContract.sol\":8490:8847  if(skip>vi){\r... */\n    tag_376:\n        /* \"contracts/Vote/VoterContract.sol\":8561:8563  vi */\n      dup1\n        /* \"contracts/Vote/VoterContract.sol\":8551:8563  skip+take>vi */\n      0xffff\n      and\n        /* \"contracts/Vote/VoterContract.sol\":8556:8560  take */\n      dup5\n        /* \"contracts/Vote/VoterContract.sol\":8551:8555  skip */\n      dup7\n        /* \"contracts/Vote/VoterContract.sol\":8551:8560  skip+take */\n      tag_378\n      swap2\n      swap1\n      tag_379\n      jump\t// in\n    tag_378:\n        /* \"contracts/Vote/VoterContract.sol\":8551:8563  skip+take>vi */\n      0xff\n      and\n      gt\n        /* \"contracts/Vote/VoterContract.sol\":8548:8847  if(skip+take>vi){\r... */\n      iszero\n      tag_380\n      jumpi\n        /* \"contracts/Vote/VoterContract.sol\":8584:8591  uint8 i */\n      0x00\n        /* \"contracts/Vote/VoterContract.sol\":8594:8595  1 */\n      0x01\n        /* \"contracts/Vote/VoterContract.sol\":8584:8595  uint8 i = 1 */\n      swap1\n      pop\n        /* \"contracts/Vote/VoterContract.sol\":8579:8694  for (uint8 i = 1; i <= vi-skip; i++) \r... */\n    tag_381:\n        /* \"contracts/Vote/VoterContract.sol\":8605:8609  skip */\n      dup6\n        /* \"contracts/Vote/VoterContract.sol\":8602:8609  vi-skip */\n      0xff\n      and\n        /* \"contracts/Vote/VoterContract.sol\":8602:8604  vi */\n      dup3\n        /* \"contracts/Vote/VoterContract.sol\":8602:8609  vi-skip */\n      tag_384\n      swap2\n      swap1\n      tag_168\n      jump\t// in\n    tag_384:\n        /* \"contracts/Vote/VoterContract.sol\":8597:8609  i <= vi-skip */\n      0xffff\n      and\n        /* \"contracts/Vote/VoterContract.sol\":8597:8598  i */\n      dup2\n        /* \"contracts/Vote/VoterContract.sol\":8597:8609  i <= vi-skip */\n      0xff\n      and\n      gt\n        /* \"contracts/Vote/VoterContract.sol\":8579:8694  for (uint8 i = 1; i <= vi-skip; i++) \r... */\n      tag_382\n      jumpi\n        /* \"contracts/Vote/VoterContract.sol\":8665:8672  votings */\n      0x04\n        /* \"contracts/Vote/VoterContract.sol\":8665:8678  votings[vi-i] */\n      0x00\n        /* \"contracts/Vote/VoterContract.sol\":8676:8677  i */\n      dup3\n        /* \"contracts/Vote/VoterContract.sol\":8673:8677  vi-i */\n      0xff\n      and\n        /* \"contracts/Vote/VoterContract.sol\":8673:8675  vi */\n      dup5\n        /* \"contracts/Vote/VoterContract.sol\":8673:8677  vi-i */\n      tag_385\n      swap2\n      swap1\n      tag_168\n      jump\t// in\n    tag_385:\n        /* \"contracts/Vote/VoterContract.sol\":8665:8678  votings[vi-i] */\n      0xffff\n      and\n      0xffff\n      and\n      dup2\n      mstore\n      0x20\n      add\n      swap1\n      dup2\n      mstore\n      0x20\n      add\n      0x00\n      keccak256\n        /* \"contracts/Vote/VoterContract.sol\":8649:8678  _votings[i-1] = votings[vi-i] */\n      mload(0x40)\n      dup1\n      0x0120\n      add\n      0x40\n      mstore\n      swap1\n      dup2\n      0x00\n      dup3\n      add\n      0x00\n      swap1\n      sload\n      swap1\n      0x0100\n      exp\n      swap1\n      div\n      0xffff\n      and\n      0xffff\n      and\n      0xffff\n      and\n      dup2\n      mstore\n      0x20\n      add\n      0x01\n      dup3\n      add\n      dup1\n      sload\n      tag_386\n      swap1\n      tag_171\n      jump\t// in\n    tag_386:\n      dup1\n      0x1f\n      add\n      0x20\n      dup1\n      swap2\n      div\n      mul\n      0x20\n      add\n      mload(0x40)\n      swap1\n      dup2\n      add\n      0x40\n      mstore\n      dup1\n      swap3\n      swap2\n      swap1\n      dup2\n      dup2\n      mstore\n      0x20\n      add\n      dup3\n      dup1\n      sload\n      tag_387\n      swap1\n      tag_171\n      jump\t// in\n    tag_387:\n      dup1\n      iszero\n      tag_388\n      jumpi\n      dup1\n      0x1f\n      lt\n      tag_389\n      jumpi\n      0x0100\n      dup1\n      dup4\n      sload\n      div\n      mul\n      dup4\n      mstore\n      swap2\n      0x20\n      add\n      swap2\n      jump(tag_388)\n    tag_389:\n      dup3\n      add\n      swap2\n      swap1\n      0x00\n      mstore\n      keccak256(0x00, 0x20)\n      swap1\n    tag_390:\n      dup2\n      sload\n      dup2\n      mstore\n      swap1\n      0x01\n      add\n      swap1\n      0x20\n      add\n      dup1\n      dup4\n      gt\n      tag_390\n      jumpi\n      dup3\n      swap1\n      sub\n      0x1f\n      and\n      dup3\n      add\n      swap2\n    tag_388:\n      pop\n      pop\n      pop\n      pop\n      pop\n      dup2\n      mstore\n      0x20\n      add\n      0x02\n      dup3\n      add\n      0x00\n      swap1\n      sload\n      swap1\n      0x0100\n      exp\n      swap1\n      div\n      0xffffffff\n      and\n      0xffffffff\n      and\n      0xffffffff\n      and\n      dup2\n      mstore\n      0x20\n      add\n      0x02\n      dup3\n      add\n      0x04\n      swap1\n      sload\n      swap1\n      0x0100\n      exp\n      swap1\n      div\n      0xffffffff\n      and\n      0xffffffff\n      and\n      0xffffffff\n      and\n      dup2\n      mstore\n      0x20\n      add\n      0x02\n      dup3\n      add\n      0x08\n      swap1\n      sload\n      swap1\n      0x0100\n      exp\n      swap1\n      div\n      0xffffffffffffffffffffffffffffffffffffffff\n      and\n      0xffffffffffffffffffffffffffffffffffffffff\n      and\n      0xffffffffffffffffffffffffffffffffffffffff\n      and\n      dup2\n      mstore\n      0x20\n      add\n      0x03\n      dup3\n      add\n      sload\n      dup2\n      mstore\n      0x20\n      add\n      0x04\n      dup3\n      add\n      sload\n      dup2\n      mstore\n      0x20\n      add\n      0x05\n      dup3\n      add\n      sload\n      dup2\n      mstore\n      0x20\n      add\n      0x06\n      dup3\n      add\n      0x00\n      swap1\n      sload\n      swap1\n      0x0100\n      exp\n      swap1\n      div\n      0xff\n      and\n      0x02\n      dup2\n      gt\n      iszero\n      tag_391\n      jumpi\n      tag_392\n      tag_115\n      jump\t// in\n    tag_392:\n    tag_391:\n      0x02\n      dup2\n      gt\n      iszero\n      tag_393\n      jumpi\n      tag_394\n      tag_115\n      jump\t// in\n    tag_394:\n    tag_393:\n      dup2\n      mstore\n      pop\n      pop\n        /* \"contracts/Vote/VoterContract.sol\":8649:8657  _votings */\n      dup4\n        /* \"contracts/Vote/VoterContract.sol\":8660:8661  1 */\n      0x01\n        /* \"contracts/Vote/VoterContract.sol\":8658:8659  i */\n      dup4\n        /* \"contracts/Vote/VoterContract.sol\":8658:8661  i-1 */\n      tag_395\n      swap2\n      swap1\n      tag_396\n      jump\t// in\n    tag_395:\n        /* \"contracts/Vote/VoterContract.sol\":8649:8662  _votings[i-1] */\n      0xff\n      and\n      dup2\n      mload\n      dup2\n      lt\n      tag_397\n      jumpi\n      tag_398\n      tag_183\n      jump\t// in\n    tag_398:\n    tag_397:\n      0x20\n      mul\n      0x20\n      add\n      add\n        /* \"contracts/Vote/VoterContract.sol\":8649:8678  _votings[i-1] = votings[vi-i] */\n      dup2\n      swap1\n      mstore\n      pop\n        /* \"contracts/Vote/VoterContract.sol\":8611:8614  i++ */\n      dup1\n      dup1\n      tag_399\n      swap1\n      tag_400\n      jump\t// in\n    tag_399:\n      swap2\n      pop\n      pop\n        /* \"contracts/Vote/VoterContract.sol\":8579:8694  for (uint8 i = 1; i <= vi-skip; i++) \r... */\n      jump(tag_381)\n    tag_382:\n      pop\n        /* \"contracts/Vote/VoterContract.sol\":8548:8847  if(skip+take>vi){\r... */\n      jump(tag_401)\n    tag_380:\n        /* \"contracts/Vote/VoterContract.sol\":8729:8736  uint8 i */\n      0x00\n        /* \"contracts/Vote/VoterContract.sol\":8739:8740  1 */\n      0x01\n        /* \"contracts/Vote/VoterContract.sol\":8729:8740  uint8 i = 1 */\n      swap1\n      pop\n        /* \"contracts/Vote/VoterContract.sol\":8724:8836  for (uint8 i = 1; i <= take; i++) \r... */\n    tag_402:\n        /* \"contracts/Vote/VoterContract.sol\":8747:8751  take */\n      dup5\n        /* \"contracts/Vote/VoterContract.sol\":8742:8751  i <= take */\n      0xff\n      and\n        /* \"contracts/Vote/VoterContract.sol\":8742:8743  i */\n      dup2\n        /* \"contracts/Vote/VoterContract.sol\":8742:8751  i <= take */\n      0xff\n      and\n      gt\n        /* \"contracts/Vote/VoterContract.sol\":8724:8836  for (uint8 i = 1; i <= take; i++) \r... */\n      tag_403\n      jumpi\n        /* \"contracts/Vote/VoterContract.sol\":8807:8814  votings */\n      0x04\n        /* \"contracts/Vote/VoterContract.sol\":8807:8820  votings[vi-i] */\n      0x00\n        /* \"contracts/Vote/VoterContract.sol\":8818:8819  i */\n      dup3\n        /* \"contracts/Vote/VoterContract.sol\":8815:8819  vi-i */\n      0xff\n      and\n        /* \"contracts/Vote/VoterContract.sol\":8815:8817  vi */\n      dup5\n        /* \"contracts/Vote/VoterContract.sol\":8815:8819  vi-i */\n      tag_405\n      swap2\n      swap1\n      tag_168\n      jump\t// in\n    tag_405:\n        /* \"contracts/Vote/VoterContract.sol\":8807:8820  votings[vi-i] */\n      0xffff\n      and\n      0xffff\n      and\n      dup2\n      mstore\n      0x20\n      add\n      swap1\n      dup2\n      mstore\n      0x20\n      add\n      0x00\n      keccak256\n        /* \"contracts/Vote/VoterContract.sol\":8791:8820  _votings[i-1] = votings[vi-i] */\n      mload(0x40)\n      dup1\n      0x0120\n      add\n      0x40\n      mstore\n      swap1\n      dup2\n      0x00\n      dup3\n      add\n      0x00\n      swap1\n      sload\n      swap1\n      0x0100\n      exp\n      swap1\n      div\n      0xffff\n      and\n      0xffff\n      and\n      0xffff\n      and\n      dup2\n      mstore\n      0x20\n      add\n      0x01\n      dup3\n      add\n      dup1\n      sload\n      tag_406\n      swap1\n      tag_171\n      jump\t// in\n    tag_406:\n      dup1\n      0x1f\n      add\n      0x20\n      dup1\n      swap2\n      div\n      mul\n      0x20\n      add\n      mload(0x40)\n      swap1\n      dup2\n      add\n      0x40\n      mstore\n      dup1\n      swap3\n      swap2\n      swap1\n      dup2\n      dup2\n      mstore\n      0x20\n      add\n      dup3\n      dup1\n      sload\n      tag_407\n      swap1\n      tag_171\n      jump\t// in\n    tag_407:\n      dup1\n      iszero\n      tag_408\n      jumpi\n      dup1\n      0x1f\n      lt\n      tag_409\n      jumpi\n      0x0100\n      dup1\n      dup4\n      sload\n      div\n      mul\n      dup4\n      mstore\n      swap2\n      0x20\n      add\n      swap2\n      jump(tag_408)\n    tag_409:\n      dup3\n      add\n      swap2\n      swap1\n      0x00\n      mstore\n      keccak256(0x00, 0x20)\n      swap1\n    tag_410:\n      dup2\n      sload\n      dup2\n      mstore\n      swap1\n      0x01\n      add\n      swap1\n      0x20\n      add\n      dup1\n      dup4\n      gt\n      tag_410\n      jumpi\n      dup3\n      swap1\n      sub\n      0x1f\n      and\n      dup3\n      add\n      swap2\n    tag_408:\n      pop\n      pop\n      pop\n      pop\n      pop\n      dup2\n      mstore\n      0x20\n      add\n      0x02\n      dup3\n      add\n      0x00\n      swap1\n      sload\n      swap1\n      0x0100\n      exp\n      swap1\n      div\n      0xffffffff\n      and\n      0xffffffff\n      and\n      0xffffffff\n      and\n      dup2\n      mstore\n      0x20\n      add\n      0x02\n      dup3\n      add\n      0x04\n      swap1\n      sload\n      swap1\n      0x0100\n      exp\n      swap1\n      div\n      0xffffffff\n      and\n      0xffffffff\n      and\n      0xffffffff\n      and\n      dup2\n      mstore\n      0x20\n      add\n      0x02\n      dup3\n      add\n      0x08\n      swap1\n      sload\n      swap1\n      0x0100\n      exp\n      swap1\n      div\n      0xffffffffffffffffffffffffffffffffffffffff\n      and\n      0xffffffffffffffffffffffffffffffffffffffff\n      and\n      0xffffffffffffffffffffffffffffffffffffffff\n      and\n      dup2\n      mstore\n      0x20\n      add\n      0x03\n      dup3\n      add\n      sload\n      dup2\n      mstore\n      0x20\n      add\n      0x04\n      dup3\n      add\n      sload\n      dup2\n      mstore\n      0x20\n      add\n      0x05\n      dup3\n      add\n      sload\n      dup2\n      mstore\n      0x20\n      add\n      0x06\n      dup3\n      add\n      0x00\n      swap1\n      sload\n      swap1\n      0x0100\n      exp\n      swap1\n      div\n      0xff\n      and\n      0x02\n      dup2\n      gt\n      iszero\n      tag_411\n      jumpi\n      tag_412\n      tag_115\n      jump\t// in\n    tag_412:\n    tag_411:\n      0x02\n      dup2\n      gt\n      iszero\n      tag_413\n      jumpi\n      tag_414\n      tag_115\n      jump\t// in\n    tag_414:\n    tag_413:\n      dup2\n      mstore\n      pop\n      pop\n        /* \"contracts/Vote/VoterContract.sol\":8791:8799  _votings */\n      dup4\n        /* \"contracts/Vote/VoterContract.sol\":8802:8803  1 */\n      0x01\n        /* \"contracts/Vote/VoterContract.sol\":8800:8801  i */\n      dup4\n        /* \"contracts/Vote/VoterContract.sol\":8800:8803  i-1 */\n      tag_415\n      swap2\n      swap1\n      tag_396\n      jump\t// in\n    tag_415:\n        /* \"contracts/Vote/VoterContract.sol\":8791:8804  _votings[i-1] */\n      0xff\n      and\n      dup2\n      mload\n      dup2\n      lt\n      tag_416\n      jumpi\n      tag_417\n      tag_183\n      jump\t// in\n    tag_417:\n    tag_416:\n      0x20\n      mul\n      0x20\n      add\n      add\n        /* \"contracts/Vote/VoterContract.sol\":8791:8820  _votings[i-1] = votings[vi-i] */\n      dup2\n      swap1\n      mstore\n      pop\n        /* \"contracts/Vote/VoterContract.sol\":8753:8756  i++ */\n      dup1\n      dup1\n      tag_418\n      swap1\n      tag_400\n      jump\t// in\n    tag_418:\n      swap2\n      pop\n      pop\n        /* \"contracts/Vote/VoterContract.sol\":8724:8836  for (uint8 i = 1; i <= take; i++) \r... */\n      jump(tag_402)\n    tag_403:\n      pop\n        /* \"contracts/Vote/VoterContract.sol\":8548:8847  if(skip+take>vi){\r... */\n    tag_401:\n        /* \"contracts/Vote/VoterContract.sol\":8866:8874  _votings */\n      dup2\n        /* \"contracts/Vote/VoterContract.sol\":8859:8874  return _votings */\n      swap3\n      pop\n      pop\n      pop\n        /* \"contracts/Vote/VoterContract.sol\":8310:8882  function getVotings(uint8 skip, uint8 take) external view returns(Voting[] memory){\r... */\n    tag_369:\n      swap3\n      swap2\n      pop\n      pop\n      jump\t// out\n        /* \"contracts/Vote/VoterContract.sol\":1621:1645  uint16 public voteId = 0 */\n    tag_109:\n      0x07\n      0x00\n      swap1\n      sload\n      swap1\n      0x0100\n      exp\n      swap1\n      div\n      0xffff\n      and\n      dup2\n      jump\t// out\n        /* \"contracts/Vote/VoterContract.sol\":6175:6423  function _closeVoting(uint16 id) private {\r... */\n    tag_130:\n        /* \"contracts/Vote/VoterContract.sol\":6252:6269  VotingType.Closed */\n      0x00\n        /* \"contracts/Vote/VoterContract.sol\":6227:6234  votings */\n      0x04\n        /* \"contracts/Vote/VoterContract.sol\":6227:6238  votings[id] */\n      0x00\n        /* \"contracts/Vote/VoterContract.sol\":6235:6237  id */\n      dup4\n        /* \"contracts/Vote/VoterContract.sol\":6227:6238  votings[id] */\n      0xffff\n      and\n      0xffff\n      and\n      dup2\n      mstore\n      0x20\n      add\n      swap1\n      dup2\n      mstore\n      0x20\n      add\n      0x00\n      keccak256\n        /* \"contracts/Vote/VoterContract.sol\":6227:6249  votings[id].votingType */\n      0x06\n      add\n      0x00\n        /* \"contracts/Vote/VoterContract.sol\":6227:6269  votings[id].votingType = VotingType.Closed */\n      0x0100\n      exp\n      dup2\n      sload\n      dup2\n      0xff\n      mul\n      not\n      and\n      swap1\n      dup4\n      0x02\n      dup2\n      gt\n      iszero\n      tag_420\n      jumpi\n      tag_421\n      tag_115\n      jump\t// in\n    tag_421:\n    tag_420:\n      mul\n      or\n      swap1\n      sstore\n      pop\n        /* \"contracts/Vote/VoterContract.sol\":6312:6324  block.number */\n      number\n        /* \"contracts/Vote/VoterContract.sol\":6280:6287  votings */\n      0x04\n        /* \"contracts/Vote/VoterContract.sol\":6280:6291  votings[id] */\n      0x00\n        /* \"contracts/Vote/VoterContract.sol\":6288:6290  id */\n      dup4\n        /* \"contracts/Vote/VoterContract.sol\":6280:6291  votings[id] */\n      0xffff\n      and\n      0xffff\n      and\n      dup2\n      mstore\n      0x20\n      add\n      swap1\n      dup2\n      mstore\n      0x20\n      add\n      0x00\n      keccak256\n        /* \"contracts/Vote/VoterContract.sol\":6280:6309  votings[id].blockNumberClosed */\n      0x05\n      add\n        /* \"contracts/Vote/VoterContract.sol\":6280:6324  votings[id].blockNumberClosed = block.number */\n      dup2\n      swap1\n      sstore\n      pop\n        /* \"contracts/Vote/VoterContract.sol\":6354:6356  id */\n      dup1\n        /* \"contracts/Vote/VoterContract.sol\":6342:6415  VotingEnded(id, votings[id].topic, votings[id].voted, votings[id].result) */\n      0xffff\n      and\n      0x74067fe4d5e2e892aba66fd751ee80c00aadda7333e763e9084815a0c29f6ebe\n        /* \"contracts/Vote/VoterContract.sol\":6358:6365  votings */\n      0x04\n        /* \"contracts/Vote/VoterContract.sol\":6358:6369  votings[id] */\n      0x00\n        /* \"contracts/Vote/VoterContract.sol\":6366:6368  id */\n      dup5\n        /* \"contracts/Vote/VoterContract.sol\":6358:6369  votings[id] */\n      0xffff\n      and\n      0xffff\n      and\n      dup2\n      mstore\n      0x20\n      add\n      swap1\n      dup2\n      mstore\n      0x20\n      add\n      0x00\n      keccak256\n        /* \"contracts/Vote/VoterContract.sol\":6358:6375  votings[id].topic */\n      0x01\n      add\n        /* \"contracts/Vote/VoterContract.sol\":6377:6384  votings */\n      0x04\n        /* \"contracts/Vote/VoterContract.sol\":6377:6388  votings[id] */\n      0x00\n        /* \"contracts/Vote/VoterContract.sol\":6385:6387  id */\n      dup6\n        /* \"contracts/Vote/VoterContract.sol\":6377:6388  votings[id] */\n      0xffff\n      and\n      0xffff\n      and\n      dup2\n      mstore\n      0x20\n      add\n      swap1\n      dup2\n      mstore\n      0x20\n      add\n      0x00\n      keccak256\n        /* \"contracts/Vote/VoterContract.sol\":6377:6394  votings[id].voted */\n      0x02\n      add\n      0x00\n      swap1\n      sload\n      swap1\n      0x0100\n      exp\n      swap1\n      div\n      0xffffffff\n      and\n        /* \"contracts/Vote/VoterContract.sol\":6396:6403  votings */\n      0x04\n        /* \"contracts/Vote/VoterContract.sol\":6396:6407  votings[id] */\n      0x00\n        /* \"contracts/Vote/VoterContract.sol\":6404:6406  id */\n      dup7\n        /* \"contracts/Vote/VoterContract.sol\":6396:6407  votings[id] */\n      0xffff\n      and\n      0xffff\n      and\n      dup2\n      mstore\n      0x20\n      add\n      swap1\n      dup2\n      mstore\n      0x20\n      add\n      0x00\n      keccak256\n        /* \"contracts/Vote/VoterContract.sol\":6396:6414  votings[id].result */\n      0x02\n      add\n      0x04\n      swap1\n      sload\n      swap1\n      0x0100\n      exp\n      swap1\n      div\n      0xffffffff\n      and\n        /* \"contracts/Vote/VoterContract.sol\":6342:6415  VotingEnded(id, votings[id].topic, votings[id].voted, votings[id].result) */\n      mload(0x40)\n      tag_422\n      swap4\n      swap3\n      swap2\n      swap1\n      tag_423\n      jump\t// in\n    tag_422:\n      mload(0x40)\n      dup1\n      swap2\n      sub\n      swap1\n      log2\n        /* \"contracts/Vote/VoterContract.sol\":6175:6423  function _closeVoting(uint16 id) private {\r... */\n      pop\n      jump\t// out\n        /* \"@openzeppelin/contracts/access/Ownable.sol\":1359:1489  function _checkOwner() internal view virtual {... */\n    tag_263:\n        /* \"@openzeppelin/contracts/access/Ownable.sol\":1433:1445  _msgSender() */\n      tag_425\n        /* \"@openzeppelin/contracts/access/Ownable.sol\":1433:1443  _msgSender */\n      tag_426\n        /* \"@openzeppelin/contracts/access/Ownable.sol\":1433:1445  _msgSender() */\n      jump\t// in\n    tag_425:\n        /* \"@openzeppelin/contracts/access/Ownable.sol\":1422:1445  owner() == _msgSender() */\n      0xffffffffffffffffffffffffffffffffffffffff\n      and\n        /* \"@openzeppelin/contracts/access/Ownable.sol\":1422:1429  owner() */\n      tag_427\n        /* \"@openzeppelin/contracts/access/Ownable.sol\":1422:1427  owner */\n      tag_68\n        /* \"@openzeppelin/contracts/access/Ownable.sol\":1422:1429  owner() */\n      jump\t// in\n    tag_427:\n        /* \"@openzeppelin/contracts/access/Ownable.sol\":1422:1445  owner() == _msgSender() */\n      0xffffffffffffffffffffffffffffffffffffffff\n      and\n      eq\n        /* \"@openzeppelin/contracts/access/Ownable.sol\":1414:1482  require(owner() == _msgSender(), \"Ownable: caller is not the owner\") */\n      tag_428\n      jumpi\n      mload(0x40)\n      0x08c379a000000000000000000000000000000000000000000000000000000000\n      dup2\n      mstore\n      0x04\n      add\n      tag_429\n      swap1\n      tag_430\n      jump\t// in\n    tag_429:\n      mload(0x40)\n      dup1\n      swap2\n      sub\n      swap1\n      revert\n    tag_428:\n        /* \"@openzeppelin/contracts/access/Ownable.sol\":1359:1489  function _checkOwner() internal view virtual {... */\n      jump\t// out\n        /* \"@openzeppelin/contracts/access/Ownable.sol\":2426:2613  function _transferOwnership(address newOwner) internal virtual {... */\n    tag_266:\n        /* \"@openzeppelin/contracts/access/Ownable.sol\":2499:2515  address oldOwner */\n      0x00\n        /* \"@openzeppelin/contracts/access/Ownable.sol\":2518:2524  _owner */\n      dup1\n      0x00\n      swap1\n      sload\n      swap1\n      0x0100\n      exp\n      swap1\n      div\n      0xffffffffffffffffffffffffffffffffffffffff\n      and\n        /* \"@openzeppelin/contracts/access/Ownable.sol\":2499:2524  address oldOwner = _owner */\n      swap1\n      pop\n        /* \"@openzeppelin/contracts/access/Ownable.sol\":2543:2551  newOwner */\n      dup2\n        /* \"@openzeppelin/contracts/access/Ownable.sol\":2534:2540  _owner */\n      0x00\n      dup1\n        /* \"@openzeppelin/contracts/access/Ownable.sol\":2534:2551  _owner = newOwner */\n      0x0100\n      exp\n      dup2\n      sload\n      dup2\n      0xffffffffffffffffffffffffffffffffffffffff\n      mul\n      not\n      and\n      swap1\n      dup4\n      0xffffffffffffffffffffffffffffffffffffffff\n      and\n      mul\n      or\n      swap1\n      sstore\n      pop\n        /* \"@openzeppelin/contracts/access/Ownable.sol\":2597:2605  newOwner */\n      dup2\n        /* \"@openzeppelin/contracts/access/Ownable.sol\":2566:2606  OwnershipTransferred(oldOwner, newOwner) */\n      0xffffffffffffffffffffffffffffffffffffffff\n      and\n        /* \"@openzeppelin/contracts/access/Ownable.sol\":2587:2595  oldOwner */\n      dup2\n        /* \"@openzeppelin/contracts/access/Ownable.sol\":2566:2606  OwnershipTransferred(oldOwner, newOwner) */\n      0xffffffffffffffffffffffffffffffffffffffff\n      and\n      0x8be0079c531659141344cd1fd0a4f28419497f9722a3daafe3b4186f6b6457e0\n      mload(0x40)\n      mload(0x40)\n      dup1\n      swap2\n      sub\n      swap1\n      log3\n        /* \"@openzeppelin/contracts/access/Ownable.sol\":2489:2613  {... */\n      pop\n        /* \"@openzeppelin/contracts/access/Ownable.sol\":2426:2613  function _transferOwnership(address newOwner) internal virtual {... */\n      pop\n      jump\t// out\n        /* \"contracts/Vote/VoterContract.sol\":5044:5413  function _closeProposal(uint16 id) private {\r... */\n    tag_348:\n        /* \"contracts/Vote/VoterContract.sol\":5098:5120  VotingType _votingType */\n      0x00\n        /* \"contracts/Vote/VoterContract.sol\":5123:5132  proposals */\n      0x06\n        /* \"contracts/Vote/VoterContract.sol\":5123:5136  proposals[id] */\n      0x00\n        /* \"contracts/Vote/VoterContract.sol\":5133:5135  id */\n      dup4\n        /* \"contracts/Vote/VoterContract.sol\":5123:5136  proposals[id] */\n      0xffff\n      and\n      0xffff\n      and\n      dup2\n      mstore\n      0x20\n      add\n      swap1\n      dup2\n      mstore\n      0x20\n      add\n      0x00\n      keccak256\n        /* \"contracts/Vote/VoterContract.sol\":5123:5149  proposals[id].proposalType */\n      0x06\n      add\n      0x00\n      swap1\n      sload\n      swap1\n      0x0100\n      exp\n      swap1\n      div\n      0xff\n      and\n        /* \"contracts/Vote/VoterContract.sol\":5098:5149  VotingType _votingType = proposals[id].proposalType */\n      swap1\n      pop\n        /* \"contracts/Vote/VoterContract.sol\":5191:5208  VotingType.Closed */\n      0x00\n        /* \"contracts/Vote/VoterContract.sol\":5162:5171  proposals */\n      0x06\n        /* \"contracts/Vote/VoterContract.sol\":5162:5175  proposals[id] */\n      0x00\n        /* \"contracts/Vote/VoterContract.sol\":5172:5174  id */\n      dup5\n        /* \"contracts/Vote/VoterContract.sol\":5162:5175  proposals[id] */\n      0xffff\n      and\n      0xffff\n      and\n      dup2\n      mstore\n      0x20\n      add\n      swap1\n      dup2\n      mstore\n      0x20\n      add\n      0x00\n      keccak256\n        /* \"contracts/Vote/VoterContract.sol\":5162:5188  proposals[id].proposalType */\n      0x06\n      add\n      0x00\n        /* \"contracts/Vote/VoterContract.sol\":5162:5208  proposals[id].proposalType = VotingType.Closed */\n      0x0100\n      exp\n      dup2\n      sload\n      dup2\n      0xff\n      mul\n      not\n      and\n      swap1\n      dup4\n      0x02\n      dup2\n      gt\n      iszero\n      tag_433\n      jumpi\n      tag_434\n      tag_115\n      jump\t// in\n    tag_434:\n    tag_433:\n      mul\n      or\n      swap1\n      sstore\n      pop\n        /* \"contracts/Vote/VoterContract.sol\":5253:5265  block.number */\n      number\n        /* \"contracts/Vote/VoterContract.sol\":5219:5228  proposals */\n      0x06\n        /* \"contracts/Vote/VoterContract.sol\":5219:5232  proposals[id] */\n      0x00\n        /* \"contracts/Vote/VoterContract.sol\":5229:5231  id */\n      dup5\n        /* \"contracts/Vote/VoterContract.sol\":5219:5232  proposals[id] */\n      0xffff\n      and\n      0xffff\n      and\n      dup2\n      mstore\n      0x20\n      add\n      swap1\n      dup2\n      mstore\n      0x20\n      add\n      0x00\n      keccak256\n        /* \"contracts/Vote/VoterContract.sol\":5219:5250  proposals[id].blockNumberClosed */\n      0x05\n      add\n        /* \"contracts/Vote/VoterContract.sol\":5219:5265  proposals[id].blockNumberClosed = block.number */\n      dup2\n      swap1\n      sstore\n      pop\n        /* \"contracts/Vote/VoterContract.sol\":5278:5306  _openVoting(id, _votingType) */\n      tag_435\n        /* \"contracts/Vote/VoterContract.sol\":5290:5292  id */\n      dup3\n        /* \"contracts/Vote/VoterContract.sol\":5294:5305  _votingType */\n      dup3\n        /* \"contracts/Vote/VoterContract.sol\":5278:5289  _openVoting */\n      tag_436\n        /* \"contracts/Vote/VoterContract.sol\":5278:5306  _openVoting(id, _votingType) */\n      jump\t// in\n    tag_435:\n        /* \"contracts/Vote/VoterContract.sol\":5338:5340  id */\n      dup2\n        /* \"contracts/Vote/VoterContract.sol\":5324:5405  ProposalEnded(id, proposals[id].topic, proposals[id].voted, proposals[id].result) */\n      0xffff\n      and\n      0x5b96817333b28a477ad5fc2de22e1cb6bc0709c42895ac3180b16a8f8f04956d\n        /* \"contracts/Vote/VoterContract.sol\":5342:5351  proposals */\n      0x06\n        /* \"contracts/Vote/VoterContract.sol\":5342:5355  proposals[id] */\n      0x00\n        /* \"contracts/Vote/VoterContract.sol\":5352:5354  id */\n      dup6\n        /* \"contracts/Vote/VoterContract.sol\":5342:5355  proposals[id] */\n      0xffff\n      and\n      0xffff\n      and\n      dup2\n      mstore\n      0x20\n      add\n      swap1\n      dup2\n      mstore\n      0x20\n      add\n      0x00\n      keccak256\n        /* \"contracts/Vote/VoterContract.sol\":5342:5361  proposals[id].topic */\n      0x01\n      add\n        /* \"contracts/Vote/VoterContract.sol\":5363:5372  proposals */\n      0x06\n        /* \"contracts/Vote/VoterContract.sol\":5363:5376  proposals[id] */\n      0x00\n        /* \"contracts/Vote/VoterContract.sol\":5373:5375  id */\n      dup7\n        /* \"contracts/Vote/VoterContract.sol\":5363:5376  proposals[id] */\n      0xffff\n      and\n      0xffff\n      and\n      dup2\n      mstore\n      0x20\n      add\n      swap1\n      dup2\n      mstore\n      0x20\n      add\n      0x00\n      keccak256\n        /* \"contracts/Vote/VoterContract.sol\":5363:5382  proposals[id].voted */\n      0x02\n      add\n      0x00\n      swap1\n      sload\n      swap1\n      0x0100\n      exp\n      swap1\n      div\n      0xffffffff\n      and\n        /* \"contracts/Vote/VoterContract.sol\":5384:5393  proposals */\n      0x06\n        /* \"contracts/Vote/VoterContract.sol\":5384:5397  proposals[id] */\n      0x00\n        /* \"contracts/Vote/VoterContract.sol\":5394:5396  id */\n      dup8\n        /* \"contracts/Vote/VoterContract.sol\":5384:5397  proposals[id] */\n      0xffff\n      and\n      0xffff\n      and\n      dup2\n      mstore\n      0x20\n      add\n      swap1\n      dup2\n      mstore\n      0x20\n      add\n      0x00\n      keccak256\n        /* \"contracts/Vote/VoterContract.sol\":5384:5404  proposals[id].result */\n      0x02\n      add\n      0x04\n      swap1\n      sload\n      swap1\n      0x0100\n      exp\n      swap1\n      div\n      0xffffffff\n      and\n        /* \"contracts/Vote/VoterContract.sol\":5324:5405  ProposalEnded(id, proposals[id].topic, proposals[id].voted, proposals[id].result) */\n      mload(0x40)\n      tag_437\n      swap4\n      swap3\n      swap2\n      swap1\n      tag_423\n      jump\t// in\n    tag_437:\n      mload(0x40)\n      dup1\n      swap2\n      sub\n      swap1\n      log2\n        /* \"contracts/Vote/VoterContract.sol\":5087:5413  {\r... */\n      pop\n        /* \"contracts/Vote/VoterContract.sol\":5044:5413  function _closeProposal(uint16 id) private {\r... */\n      pop\n      jump\t// out\n        /* \"@openzeppelin/contracts/utils/Context.sol\":640:736  function _msgSender() internal view virtual returns (address) {... */\n    tag_426:\n        /* \"@openzeppelin/contracts/utils/Context.sol\":693:700  address */\n      0x00\n        /* \"@openzeppelin/contracts/utils/Context.sol\":719:729  msg.sender */\n      caller\n        /* \"@openzeppelin/contracts/utils/Context.sol\":712:729  return msg.sender */\n      swap1\n      pop\n        /* \"@openzeppelin/contracts/utils/Context.sol\":640:736  function _msgSender() internal view virtual returns (address) {... */\n      swap1\n      jump\t// out\n        /* \"contracts/Vote/VoterContract.sol\":5423:6167  function _openVoting(uint16 _proposalId, VotingType _votingType) private {\r... */\n    tag_436:\n        /* \"contracts/Vote/VoterContract.sol\":5530:5547  VotingType.Closed */\n      0x00\n        /* \"contracts/Vote/VoterContract.sol\":5515:5547  _votingType != VotingType.Closed */\n      0x02\n      dup2\n      gt\n      iszero\n      tag_440\n      jumpi\n      tag_441\n      tag_115\n      jump\t// in\n    tag_441:\n    tag_440:\n        /* \"contracts/Vote/VoterContract.sol\":5515:5526  _votingType */\n      dup2\n        /* \"contracts/Vote/VoterContract.sol\":5515:5547  _votingType != VotingType.Closed */\n      0x02\n      dup2\n      gt\n      iszero\n      tag_442\n      jumpi\n      tag_443\n      tag_115\n      jump\t// in\n    tag_443:\n    tag_442:\n      eq\n      iszero\n        /* \"contracts/Vote/VoterContract.sol\":5507:5597  require(_votingType != VotingType.Closed,\"Voting Type cannot be closed at initial state.\") */\n      tag_444\n      jumpi\n      mload(0x40)\n      0x08c379a000000000000000000000000000000000000000000000000000000000\n      dup2\n      mstore\n      0x04\n      add\n      tag_445\n      swap1\n      tag_446\n      jump\t// in\n    tag_445:\n      mload(0x40)\n      dup1\n      swap2\n      sub\n      swap1\n      revert\n    tag_444:\n        /* \"contracts/Vote/VoterContract.sol\":5639:5645  voteId */\n      0x07\n      0x00\n      swap1\n      sload\n      swap1\n      0x0100\n      exp\n      swap1\n      div\n      0xffff\n      and\n        /* \"contracts/Vote/VoterContract.sol\":5618:5625  votings */\n      0x04\n        /* \"contracts/Vote/VoterContract.sol\":5618:5633  votings[voteId] */\n      0x00\n        /* \"contracts/Vote/VoterContract.sol\":5626:5632  voteId */\n      0x07\n      0x00\n      swap1\n      sload\n      swap1\n      0x0100\n      exp\n      swap1\n      div\n      0xffff\n      and\n        /* \"contracts/Vote/VoterContract.sol\":5618:5633  votings[voteId] */\n      0xffff\n      and\n      0xffff\n      and\n      dup2\n      mstore\n      0x20\n      add\n      swap1\n      dup2\n      mstore\n      0x20\n      add\n      0x00\n      keccak256\n        /* \"contracts/Vote/VoterContract.sol\":5618:5636  votings[voteId].id */\n      0x00\n      add\n      0x00\n        /* \"contracts/Vote/VoterContract.sol\":5618:5645  votings[voteId].id = voteId */\n      0x0100\n      exp\n      dup2\n      sload\n      dup2\n      0xffff\n      mul\n      not\n      and\n      swap1\n      dup4\n      0xffff\n      and\n      mul\n      or\n      swap1\n      sstore\n      pop\n        /* \"contracts/Vote/VoterContract.sol\":5683:5692  proposals */\n      0x06\n        /* \"contracts/Vote/VoterContract.sol\":5683:5705  proposals[_proposalId] */\n      0x00\n        /* \"contracts/Vote/VoterContract.sol\":5693:5704  _proposalId */\n      dup4\n        /* \"contracts/Vote/VoterContract.sol\":5683:5705  proposals[_proposalId] */\n      0xffff\n      and\n      0xffff\n      and\n      dup2\n      mstore\n      0x20\n      add\n      swap1\n      dup2\n      mstore\n      0x20\n      add\n      0x00\n      keccak256\n        /* \"contracts/Vote/VoterContract.sol\":5683:5714  proposals[_proposalId].proposer */\n      0x02\n      add\n      0x08\n      swap1\n      sload\n      swap1\n      0x0100\n      exp\n      swap1\n      div\n      0xffffffffffffffffffffffffffffffffffffffff\n      and\n        /* \"contracts/Vote/VoterContract.sol\":5656:5663  votings */\n      0x04\n        /* \"contracts/Vote/VoterContract.sol\":5656:5671  votings[voteId] */\n      0x00\n        /* \"contracts/Vote/VoterContract.sol\":5664:5670  voteId */\n      0x07\n      0x00\n      swap1\n      sload\n      swap1\n      0x0100\n      exp\n      swap1\n      div\n      0xffff\n      and\n        /* \"contracts/Vote/VoterContract.sol\":5656:5671  votings[voteId] */\n      0xffff\n      and\n      0xffff\n      and\n      dup2\n      mstore\n      0x20\n      add\n      swap1\n      dup2\n      mstore\n      0x20\n      add\n      0x00\n      keccak256\n        /* \"contracts/Vote/VoterContract.sol\":5656:5680  votings[voteId].proposer */\n      0x02\n      add\n      0x08\n        /* \"contracts/Vote/VoterContract.sol\":5656:5714  votings[voteId].proposer = proposals[_proposalId].proposer */\n      0x0100\n      exp\n      dup2\n      sload\n      dup2\n      0xffffffffffffffffffffffffffffffffffffffff\n      mul\n      not\n      and\n      swap1\n      dup4\n      0xffffffffffffffffffffffffffffffffffffffff\n      and\n      mul\n      or\n      swap1\n      sstore\n      pop\n        /* \"contracts/Vote/VoterContract.sol\":5751:5760  proposals */\n      0x06\n        /* \"contracts/Vote/VoterContract.sol\":5751:5773  proposals[_proposalId] */\n      0x00\n        /* \"contracts/Vote/VoterContract.sol\":5761:5772  _proposalId */\n      dup4\n        /* \"contracts/Vote/VoterContract.sol\":5751:5773  proposals[_proposalId] */\n      0xffff\n      and\n      0xffff\n      and\n      dup2\n      mstore\n      0x20\n      add\n      swap1\n      dup2\n      mstore\n      0x20\n      add\n      0x00\n      keccak256\n        /* \"contracts/Vote/VoterContract.sol\":5751:5779  proposals[_proposalId].topic */\n      0x01\n      add\n        /* \"contracts/Vote/VoterContract.sol\":5727:5734  votings */\n      0x04\n        /* \"contracts/Vote/VoterContract.sol\":5727:5742  votings[voteId] */\n      0x00\n        /* \"contracts/Vote/VoterContract.sol\":5735:5741  voteId */\n      0x07\n      0x00\n      swap1\n      sload\n      swap1\n      0x0100\n      exp\n      swap1\n      div\n      0xffff\n      and\n        /* \"contracts/Vote/VoterContract.sol\":5727:5742  votings[voteId] */\n      0xffff\n      and\n      0xffff\n      and\n      dup2\n      mstore\n      0x20\n      add\n      swap1\n      dup2\n      mstore\n      0x20\n      add\n      0x00\n      keccak256\n        /* \"contracts/Vote/VoterContract.sol\":5727:5748  votings[voteId].topic */\n      0x01\n      add\n        /* \"contracts/Vote/VoterContract.sol\":5727:5779  votings[voteId].topic = proposals[_proposalId].topic */\n      swap1\n      dup1\n      sload\n      tag_447\n      swap1\n      tag_171\n      jump\t// in\n    tag_447:\n      tag_448\n      swap3\n      swap2\n      swap1\n      tag_449\n      jump\t// in\n    tag_448:\n      pop\n        /* \"contracts/Vote/VoterContract.sol\":5827:5839  block.number */\n      number\n        /* \"contracts/Vote/VoterContract.sol\":5790:5797  votings */\n      0x04\n        /* \"contracts/Vote/VoterContract.sol\":5790:5805  votings[voteId] */\n      0x00\n        /* \"contracts/Vote/VoterContract.sol\":5798:5804  voteId */\n      0x07\n      0x00\n      swap1\n      sload\n      swap1\n      0x0100\n      exp\n      swap1\n      div\n      0xffff\n      and\n        /* \"contracts/Vote/VoterContract.sol\":5790:5805  votings[voteId] */\n      0xffff\n      and\n      0xffff\n      and\n      dup2\n      mstore\n      0x20\n      add\n      swap1\n      dup2\n      mstore\n      0x20\n      add\n      0x00\n      keccak256\n        /* \"contracts/Vote/VoterContract.sol\":5790:5824  votings[voteId].blockNumberStarted */\n      0x03\n      add\n        /* \"contracts/Vote/VoterContract.sol\":5790:5839  votings[voteId].blockNumberStarted = block.number */\n      dup2\n      swap1\n      sstore\n      pop\n        /* \"contracts/Vote/VoterContract.sol\":1611:1612  1 */\n      0x01\n        /* \"contracts/Vote/VoterContract.sol\":5896:5927  block.number + minBlockDuration */\n      0xff\n      and\n        /* \"contracts/Vote/VoterContract.sol\":5896:5908  block.number */\n      number\n        /* \"contracts/Vote/VoterContract.sol\":5896:5927  block.number + minBlockDuration */\n      tag_450\n      swap2\n      swap1\n      tag_147\n      jump\t// in\n    tag_450:\n        /* \"contracts/Vote/VoterContract.sol\":5850:5857  votings */\n      0x04\n        /* \"contracts/Vote/VoterContract.sol\":5850:5865  votings[voteId] */\n      0x00\n        /* \"contracts/Vote/VoterContract.sol\":5858:5864  voteId */\n      0x07\n      0x00\n      swap1\n      sload\n      swap1\n      0x0100\n      exp\n      swap1\n      div\n      0xffff\n      and\n        /* \"contracts/Vote/VoterContract.sol\":5850:5865  votings[voteId] */\n      0xffff\n      and\n      0xffff\n      and\n      dup2\n      mstore\n      0x20\n      add\n      swap1\n      dup2\n      mstore\n      0x20\n      add\n      0x00\n      keccak256\n        /* \"contracts/Vote/VoterContract.sol\":5850:5893  votings[voteId].blockNumberWillNotEndBefore */\n      0x04\n      add\n        /* \"contracts/Vote/VoterContract.sol\":5850:5927  votings[voteId].blockNumberWillNotEndBefore = block.number + minBlockDuration */\n      dup2\n      swap1\n      sstore\n      pop\n        /* \"contracts/Vote/VoterContract.sol\":5967:5968  0 */\n      0x00\n        /* \"contracts/Vote/VoterContract.sol\":5942:5949  votings */\n      0x04\n        /* \"contracts/Vote/VoterContract.sol\":5942:5957  votings[voteId] */\n      0x00\n        /* \"contracts/Vote/VoterContract.sol\":5950:5956  voteId */\n      0x07\n      0x00\n      swap1\n      sload\n      swap1\n      0x0100\n      exp\n      swap1\n      div\n      0xffff\n      and\n        /* \"contracts/Vote/VoterContract.sol\":5942:5957  votings[voteId] */\n      0xffff\n      and\n      0xffff\n      and\n      dup2\n      mstore\n      0x20\n      add\n      swap1\n      dup2\n      mstore\n      0x20\n      add\n      0x00\n      keccak256\n        /* \"contracts/Vote/VoterContract.sol\":5942:5964  votings[voteId].result */\n      0x02\n      add\n      0x04\n        /* \"contracts/Vote/VoterContract.sol\":5942:5968  votings[voteId].result = 0 */\n      0x0100\n      exp\n      dup2\n      sload\n      dup2\n      0xffffffff\n      mul\n      not\n      and\n      swap1\n      dup4\n      0xffffffff\n      and\n      mul\n      or\n      swap1\n      sstore\n      pop\n        /* \"contracts/Vote/VoterContract.sol\":6003:6004  0 */\n      0x00\n        /* \"contracts/Vote/VoterContract.sol\":5979:5986  votings */\n      0x04\n        /* \"contracts/Vote/VoterContract.sol\":5979:5994  votings[voteId] */\n      0x00\n        /* \"contracts/Vote/VoterContract.sol\":5987:5993  voteId */\n      0x07\n      0x00\n      swap1\n      sload\n      swap1\n      0x0100\n      exp\n      swap1\n      div\n      0xffff\n      and\n        /* \"contracts/Vote/VoterContract.sol\":5979:5994  votings[voteId] */\n      0xffff\n      and\n      0xffff\n      and\n      dup2\n      mstore\n      0x20\n      add\n      swap1\n      dup2\n      mstore\n      0x20\n      add\n      0x00\n      keccak256\n        /* \"contracts/Vote/VoterContract.sol\":5979:6000  votings[voteId].voted */\n      0x02\n      add\n      0x00\n        /* \"contracts/Vote/VoterContract.sol\":5979:6004  votings[voteId].voted = 0 */\n      0x0100\n      exp\n      dup2\n      sload\n      dup2\n      0xffffffff\n      mul\n      not\n      and\n      swap1\n      dup4\n      0xffffffff\n      and\n      mul\n      or\n      swap1\n      sstore\n      pop\n        /* \"contracts/Vote/VoterContract.sol\":6046:6057  _votingType */\n      dup1\n        /* \"contracts/Vote/VoterContract.sol\":6017:6024  votings */\n      0x04\n        /* \"contracts/Vote/VoterContract.sol\":6017:6032  votings[voteId] */\n      0x00\n        /* \"contracts/Vote/VoterContract.sol\":6025:6031  voteId */\n      0x07\n      0x00\n      swap1\n      sload\n      swap1\n      0x0100\n      exp\n      swap1\n      div\n      0xffff\n      and\n        /* \"contracts/Vote/VoterContract.sol\":6017:6032  votings[voteId] */\n      0xffff\n      and\n      0xffff\n      and\n      dup2\n      mstore\n      0x20\n      add\n      swap1\n      dup2\n      mstore\n      0x20\n      add\n      0x00\n      keccak256\n        /* \"contracts/Vote/VoterContract.sol\":6017:6043  votings[voteId].votingType */\n      0x06\n      add\n      0x00\n        /* \"contracts/Vote/VoterContract.sol\":6017:6057  votings[voteId].votingType = _votingType */\n      0x0100\n      exp\n      dup2\n      sload\n      dup2\n      0xff\n      mul\n      not\n      and\n      swap1\n      dup4\n      0x02\n      dup2\n      gt\n      iszero\n      tag_451\n      jumpi\n      tag_452\n      tag_115\n      jump\t// in\n    tag_452:\n    tag_451:\n      mul\n      or\n      swap1\n      sstore\n      pop\n        /* \"contracts/Vote/VoterContract.sol\":6079:6080  1 */\n      0x01\n        /* \"contracts/Vote/VoterContract.sol\":6070:6076  voteId */\n      0x07\n      0x00\n        /* \"contracts/Vote/VoterContract.sol\":6070:6080  voteId +=1 */\n      dup3\n      dup3\n      dup3\n      swap1\n      sload\n      swap1\n      0x0100\n      exp\n      swap1\n      div\n      0xffff\n      and\n      tag_453\n      swap2\n      swap1\n      tag_151\n      jump\t// in\n    tag_453:\n      swap3\n      pop\n      0x0100\n      exp\n      dup2\n      sload\n      dup2\n      0xffff\n      mul\n      not\n      and\n      swap1\n      dup4\n      0xffff\n      and\n      mul\n      or\n      swap1\n      sstore\n      pop\n        /* \"contracts/Vote/VoterContract.sol\":6127:6128  1 */\n      0x01\n        /* \"contracts/Vote/VoterContract.sol\":6120:6126  voteId */\n      0x07\n      0x00\n      swap1\n      sload\n      swap1\n      0x0100\n      exp\n      swap1\n      div\n      0xffff\n      and\n        /* \"contracts/Vote/VoterContract.sol\":6120:6128  voteId-1 */\n      tag_454\n      swap2\n      swap1\n      tag_168\n      jump\t// in\n    tag_454:\n        /* \"contracts/Vote/VoterContract.sol\":6106:6159  VotingStarted(voteId-1, proposals[_proposalId].topic) */\n      0xffff\n      and\n      0x673c7227a10fc9c3b48d83ed5a3adbaf2bec2ceff9d15cf30c98816a3a16859e\n        /* \"contracts/Vote/VoterContract.sol\":6130:6139  proposals */\n      0x06\n        /* \"contracts/Vote/VoterContract.sol\":6130:6152  proposals[_proposalId] */\n      0x00\n        /* \"contracts/Vote/VoterContract.sol\":6140:6151  _proposalId */\n      dup6\n        /* \"contracts/Vote/VoterContract.sol\":6130:6152  proposals[_proposalId] */\n      0xffff\n      and\n      0xffff\n      and\n      dup2\n      mstore\n      0x20\n      add\n      swap1\n      dup2\n      mstore\n      0x20\n      add\n      0x00\n      keccak256\n        /* \"contracts/Vote/VoterContract.sol\":6130:6158  proposals[_proposalId].topic */\n      0x01\n      add\n        /* \"contracts/Vote/VoterContract.sol\":6106:6159  VotingStarted(voteId-1, proposals[_proposalId].topic) */\n      mload(0x40)\n      tag_455\n      swap2\n      swap1\n      tag_456\n      jump\t// in\n    tag_455:\n      mload(0x40)\n      dup1\n      swap2\n      sub\n      swap1\n      log2\n        /* \"contracts/Vote/VoterContract.sol\":5423:6167  function _openVoting(uint16 _proposalId, VotingType _votingType) private {\r... */\n      pop\n      pop\n      jump\t// out\n    tag_145:\n      dup3\n      dup1\n      sload\n      tag_457\n      swap1\n      tag_171\n      jump\t// in\n    tag_457:\n      swap1\n      0x00\n      mstore\n      keccak256(0x00, 0x20)\n      swap1\n      0x1f\n      add\n      0x20\n      swap1\n      div\n      dup2\n      add\n      swap3\n      dup3\n      tag_459\n      jumpi\n      0x00\n      dup6\n      sstore\n      jump(tag_458)\n    tag_459:\n      dup3\n      0x1f\n      lt\n      tag_460\n      jumpi\n      dup1\n      calldataload\n      not(0xff)\n      and\n      dup4\n      dup1\n      add\n      or\n      dup6\n      sstore\n      jump(tag_458)\n    tag_460:\n      dup3\n      dup1\n      add\n      0x01\n      add\n      dup6\n      sstore\n      dup3\n      iszero\n      tag_458\n      jumpi\n      swap2\n      dup3\n      add\n    tag_461:\n      dup3\n      dup2\n      gt\n      iszero\n      tag_462\n      jumpi\n      dup3\n      calldataload\n      dup3\n      sstore\n      swap2\n      0x20\n      add\n      swap2\n      swap1\n      0x01\n      add\n      swap1\n      jump(tag_461)\n    tag_462:\n    tag_458:\n      pop\n      swap1\n      pop\n      tag_463\n      swap2\n      swap1\n      tag_464\n      jump\t// in\n    tag_463:\n      pop\n      swap1\n      jump\t// out\n    tag_159:\n      mload(0x40)\n      dup1\n      0x0120\n      add\n      0x40\n      mstore\n      dup1\n      and(0xffff, 0x00)\n      dup2\n      mstore\n      0x20\n      add\n      0x60\n      dup2\n      mstore\n      0x20\n      add\n      and(0xffffffff, 0x00)\n      dup2\n      mstore\n      0x20\n      add\n      and(0xffffffff, 0x00)\n      dup2\n      mstore\n      0x20\n      add\n      and(0xffffffffffffffffffffffffffffffffffffffff, 0x00)\n      dup2\n      mstore\n      0x20\n      add\n      0x00\n      dup2\n      mstore\n      0x20\n      add\n      0x00\n      dup2\n      mstore\n      0x20\n      add\n      0x00\n      dup2\n      mstore\n      0x20\n      add\n      0x00\n      0x02\n      dup2\n      gt\n      iszero\n      tag_465\n      jumpi\n      tag_466\n      tag_115\n      jump\t// in\n    tag_466:\n    tag_465:\n      dup2\n      mstore\n      pop\n      swap1\n      jump\t// out\n    tag_375:\n      mload(0x40)\n      dup1\n      0x0120\n      add\n      0x40\n      mstore\n      dup1\n      and(0xffff, 0x00)\n      dup2\n      mstore\n      0x20\n      add\n      0x60\n      dup2\n      mstore\n      0x20\n      add\n      and(0xffffffff, 0x00)\n      dup2\n      mstore\n      0x20\n      add\n      and(0xffffffff, 0x00)\n      dup2\n      mstore\n      0x20\n      add\n      and(0xffffffffffffffffffffffffffffffffffffffff, 0x00)\n      dup2\n      mstore\n      0x20\n      add\n      0x00\n      dup2\n      mstore\n      0x20\n      add\n      0x00\n      dup2\n      mstore\n      0x20\n      add\n      0x00\n      dup2\n      mstore\n      0x20\n      add\n      0x00\n      0x02\n      dup2\n      gt\n      iszero\n      tag_467\n      jumpi\n      tag_468\n      tag_115\n      jump\t// in\n    tag_468:\n    tag_467:\n      dup2\n      mstore\n      pop\n      swap1\n      jump\t// out\n    tag_449:\n      dup3\n      dup1\n      sload\n      tag_469\n      swap1\n      tag_171\n      jump\t// in\n    tag_469:\n      swap1\n      0x00\n      mstore\n      keccak256(0x00, 0x20)\n      swap1\n      0x1f\n      add\n      0x20\n      swap1\n      div\n      dup2\n      add\n      swap3\n      dup3\n      tag_471\n      jumpi\n      0x00\n      dup6\n      sstore\n      jump(tag_470)\n    tag_471:\n      dup3\n      0x1f\n      lt\n      tag_472\n      jumpi\n      dup1\n      sload\n      dup6\n      sstore\n      jump(tag_470)\n    tag_472:\n      dup3\n      dup1\n      add\n      0x01\n      add\n      dup6\n      sstore\n      dup3\n      iszero\n      tag_470\n      jumpi\n      0x00\n      mstore\n      keccak256(0x00, 0x20)\n      swap2\n      0x1f\n      add\n      0x20\n      swap1\n      div\n      dup3\n      add\n    tag_473:\n      dup3\n      dup2\n      gt\n      iszero\n      tag_474\n      jumpi\n      dup3\n      sload\n      dup3\n      sstore\n      swap2\n      0x01\n      add\n      swap2\n      swap1\n      0x01\n      add\n      swap1\n      jump(tag_473)\n    tag_474:\n    tag_470:\n      pop\n      swap1\n      pop\n      tag_475\n      swap2\n      swap1\n      tag_464\n      jump\t// in\n    tag_475:\n      pop\n      swap1\n      jump\t// out\n    tag_464:\n    tag_476:\n      dup1\n      dup3\n      gt\n      iszero\n      tag_477\n      jumpi\n      0x00\n      dup2\n      0x00\n      swap1\n      sstore\n      pop\n      0x01\n      add\n      jump(tag_476)\n    tag_477:\n      pop\n      swap1\n      jump\t// out\n        /* \"#utility.yul\":7:146   */\n    tag_479:\n        /* \"#utility.yul\":53:58   */\n      0x00\n        /* \"#utility.yul\":91:97   */\n      dup2\n        /* \"#utility.yul\":78:98   */\n      calldataload\n        /* \"#utility.yul\":69:98   */\n      swap1\n      pop\n        /* \"#utility.yul\":107:140   */\n      tag_481\n        /* \"#utility.yul\":134:139   */\n      dup2\n        /* \"#utility.yul\":107:140   */\n      tag_482\n      jump\t// in\n    tag_481:\n        /* \"#utility.yul\":7:146   */\n      swap3\n      swap2\n      pop\n      pop\n      jump\t// out\n        /* \"#utility.yul\":152:309   */\n    tag_483:\n        /* \"#utility.yul\":207:212   */\n      0x00\n        /* \"#utility.yul\":245:251   */\n      dup2\n        /* \"#utility.yul\":232:252   */\n      calldataload\n        /* \"#utility.yul\":223:252   */\n      swap1\n      pop\n        /* \"#utility.yul\":261:303   */\n      tag_485\n        /* \"#utility.yul\":297:302   */\n      dup2\n        /* \"#utility.yul\":261:303   */\n      tag_486\n      jump\t// in\n    tag_485:\n        /* \"#utility.yul\":152:309   */\n      swap3\n      swap2\n      pop\n      pop\n      jump\t// out\n        /* \"#utility.yul\":315:482   */\n    tag_487:\n        /* \"#utility.yul\":375:380   */\n      0x00\n        /* \"#utility.yul\":413:419   */\n      dup2\n        /* \"#utility.yul\":400:420   */\n      calldataload\n        /* \"#utility.yul\":391:420   */\n      swap1\n      pop\n        /* \"#utility.yul\":429:476   */\n      tag_489\n        /* \"#utility.yul\":470:475   */\n      dup2\n        /* \"#utility.yul\":429:476   */\n      tag_490\n      jump\t// in\n    tag_489:\n        /* \"#utility.yul\":315:482   */\n      swap3\n      swap2\n      pop\n      pop\n      jump\t// out\n        /* \"#utility.yul\":502:1055   */\n    tag_491:\n        /* \"#utility.yul\":560:568   */\n      0x00\n        /* \"#utility.yul\":570:576   */\n      dup1\n        /* \"#utility.yul\":620:623   */\n      dup4\n        /* \"#utility.yul\":613:617   */\n      0x1f\n        /* \"#utility.yul\":605:611   */\n      dup5\n        /* \"#utility.yul\":601:618   */\n      add\n        /* \"#utility.yul\":597:624   */\n      slt\n        /* \"#utility.yul\":587:709   */\n      tag_493\n      jumpi\n        /* \"#utility.yul\":628:707   */\n      tag_494\n      tag_495\n      jump\t// in\n    tag_494:\n        /* \"#utility.yul\":587:709   */\n    tag_493:\n        /* \"#utility.yul\":741:747   */\n      dup3\n        /* \"#utility.yul\":728:748   */\n      calldataload\n        /* \"#utility.yul\":718:748   */\n      swap1\n      pop\n        /* \"#utility.yul\":771:789   */\n      0xffffffffffffffff\n        /* \"#utility.yul\":763:769   */\n      dup2\n        /* \"#utility.yul\":760:790   */\n      gt\n        /* \"#utility.yul\":757:874   */\n      iszero\n      tag_496\n      jumpi\n        /* \"#utility.yul\":793:872   */\n      tag_497\n      tag_498\n      jump\t// in\n    tag_497:\n        /* \"#utility.yul\":757:874   */\n    tag_496:\n        /* \"#utility.yul\":907:911   */\n      0x20\n        /* \"#utility.yul\":899:905   */\n      dup4\n        /* \"#utility.yul\":895:912   */\n      add\n        /* \"#utility.yul\":883:912   */\n      swap2\n      pop\n        /* \"#utility.yul\":961:964   */\n      dup4\n        /* \"#utility.yul\":953:957   */\n      0x01\n        /* \"#utility.yul\":945:951   */\n      dup3\n        /* \"#utility.yul\":941:958   */\n      mul\n        /* \"#utility.yul\":931:939   */\n      dup4\n        /* \"#utility.yul\":927:959   */\n      add\n        /* \"#utility.yul\":924:965   */\n      gt\n        /* \"#utility.yul\":921:1049   */\n      iszero\n      tag_499\n      jumpi\n        /* \"#utility.yul\":968:1047   */\n      tag_500\n      tag_501\n      jump\t// in\n    tag_500:\n        /* \"#utility.yul\":921:1049   */\n    tag_499:\n        /* \"#utility.yul\":502:1055   */\n      swap3\n      pop\n      swap3\n      swap1\n      pop\n      jump\t// out\n        /* \"#utility.yul\":1061:1198   */\n    tag_502:\n        /* \"#utility.yul\":1106:1111   */\n      0x00\n        /* \"#utility.yul\":1144:1150   */\n      dup2\n        /* \"#utility.yul\":1131:1151   */\n      calldataload\n        /* \"#utility.yul\":1122:1151   */\n      swap1\n      pop\n        /* \"#utility.yul\":1160:1192   */\n      tag_504\n        /* \"#utility.yul\":1186:1191   */\n      dup2\n        /* \"#utility.yul\":1160:1192   */\n      tag_505\n      jump\t// in\n    tag_504:\n        /* \"#utility.yul\":1061:1198   */\n      swap3\n      swap2\n      pop\n      pop\n      jump\t// out\n        /* \"#utility.yul\":1204:1339   */\n    tag_506:\n        /* \"#utility.yul\":1248:1253   */\n      0x00\n        /* \"#utility.yul\":1286:1292   */\n      dup2\n        /* \"#utility.yul\":1273:1293   */\n      calldataload\n        /* \"#utility.yul\":1264:1293   */\n      swap1\n      pop\n        /* \"#utility.yul\":1302:1333   */\n      tag_508\n        /* \"#utility.yul\":1327:1332   */\n      dup2\n        /* \"#utility.yul\":1302:1333   */\n      tag_509\n      jump\t// in\n    tag_508:\n        /* \"#utility.yul\":1204:1339   */\n      swap3\n      swap2\n      pop\n      pop\n      jump\t// out\n        /* \"#utility.yul\":1345:1674   */\n    tag_75:\n        /* \"#utility.yul\":1404:1410   */\n      0x00\n        /* \"#utility.yul\":1453:1455   */\n      0x20\n        /* \"#utility.yul\":1441:1450   */\n      dup3\n        /* \"#utility.yul\":1432:1439   */\n      dup5\n        /* \"#utility.yul\":1428:1451   */\n      sub\n        /* \"#utility.yul\":1424:1456   */\n      slt\n        /* \"#utility.yul\":1421:1540   */\n      iszero\n      tag_511\n      jumpi\n        /* \"#utility.yul\":1459:1538   */\n      tag_512\n      tag_513\n      jump\t// in\n    tag_512:\n        /* \"#utility.yul\":1421:1540   */\n    tag_511:\n        /* \"#utility.yul\":1579:1580   */\n      0x00\n        /* \"#utility.yul\":1604:1657   */\n      tag_514\n        /* \"#utility.yul\":1649:1656   */\n      dup5\n        /* \"#utility.yul\":1640:1646   */\n      dup3\n        /* \"#utility.yul\":1629:1638   */\n      dup6\n        /* \"#utility.yul\":1625:1647   */\n      add\n        /* \"#utility.yul\":1604:1657   */\n      tag_479\n      jump\t// in\n    tag_514:\n        /* \"#utility.yul\":1594:1657   */\n      swap2\n      pop\n        /* \"#utility.yul\":1550:1667   */\n      pop\n        /* \"#utility.yul\":1345:1674   */\n      swap3\n      swap2\n      pop\n      pop\n      jump\t// out\n        /* \"#utility.yul\":1680:2382   */\n    tag_38:\n        /* \"#utility.yul\":1774:1780   */\n      0x00\n        /* \"#utility.yul\":1782:1788   */\n      dup1\n        /* \"#utility.yul\":1790:1796   */\n      0x00\n        /* \"#utility.yul\":1839:1841   */\n      0x40\n        /* \"#utility.yul\":1827:1836   */\n      dup5\n        /* \"#utility.yul\":1818:1825   */\n      dup7\n        /* \"#utility.yul\":1814:1837   */\n      sub\n        /* \"#utility.yul\":1810:1842   */\n      slt\n        /* \"#utility.yul\":1807:1926   */\n      iszero\n      tag_516\n      jumpi\n        /* \"#utility.yul\":1845:1924   */\n      tag_517\n      tag_513\n      jump\t// in\n    tag_517:\n        /* \"#utility.yul\":1807:1926   */\n    tag_516:\n        /* \"#utility.yul\":1965:1966   */\n      0x00\n        /* \"#utility.yul\":1990:2057   */\n      tag_518\n        /* \"#utility.yul\":2049:2056   */\n      dup7\n        /* \"#utility.yul\":2040:2046   */\n      dup3\n        /* \"#utility.yul\":2029:2038   */\n      dup8\n        /* \"#utility.yul\":2025:2047   */\n      add\n        /* \"#utility.yul\":1990:2057   */\n      tag_487\n      jump\t// in\n    tag_518:\n        /* \"#utility.yul\":1980:2057   */\n      swap4\n      pop\n        /* \"#utility.yul\":1936:2067   */\n      pop\n        /* \"#utility.yul\":2134:2136   */\n      0x20\n        /* \"#utility.yul\":2123:2132   */\n      dup5\n        /* \"#utility.yul\":2119:2137   */\n      add\n        /* \"#utility.yul\":2106:2138   */\n      calldataload\n        /* \"#utility.yul\":2165:2183   */\n      0xffffffffffffffff\n        /* \"#utility.yul\":2157:2163   */\n      dup2\n        /* \"#utility.yul\":2154:2184   */\n      gt\n        /* \"#utility.yul\":2151:2268   */\n      iszero\n      tag_519\n      jumpi\n        /* \"#utility.yul\":2187:2266   */\n      tag_520\n      tag_521\n      jump\t// in\n    tag_520:\n        /* \"#utility.yul\":2151:2268   */\n    tag_519:\n        /* \"#utility.yul\":2300:2365   */\n      tag_522\n        /* \"#utility.yul\":2357:2364   */\n      dup7\n        /* \"#utility.yul\":2348:2354   */\n      dup3\n        /* \"#utility.yul\":2337:2346   */\n      dup8\n        /* \"#utility.yul\":2333:2355   */\n      add\n        /* \"#utility.yul\":2300:2365   */\n      tag_491\n      jump\t// in\n    tag_522:\n        /* \"#utility.yul\":2282:2365   */\n      swap3\n      pop\n      swap3\n      pop\n        /* \"#utility.yul\":2077:2375   */\n      pop\n        /* \"#utility.yul\":1680:2382   */\n      swap3\n      pop\n      swap3\n      pop\n      swap3\n      jump\t// out\n        /* \"#utility.yul\":2388:2715   */\n    tag_34:\n        /* \"#utility.yul\":2446:2452   */\n      0x00\n        /* \"#utility.yul\":2495:2497   */\n      0x20\n        /* \"#utility.yul\":2483:2492   */\n      dup3\n        /* \"#utility.yul\":2474:2481   */\n      dup5\n        /* \"#utility.yul\":2470:2493   */\n      sub\n        /* \"#utility.yul\":2466:2498   */\n      slt\n        /* \"#utility.yul\":2463:2582   */\n      iszero\n      tag_524\n      jumpi\n        /* \"#utility.yul\":2501:2580   */\n      tag_525\n      tag_513\n      jump\t// in\n    tag_525:\n        /* \"#utility.yul\":2463:2582   */\n    tag_524:\n        /* \"#utility.yul\":2621:2622   */\n      0x00\n        /* \"#utility.yul\":2646:2698   */\n      tag_526\n        /* \"#utility.yul\":2690:2697   */\n      dup5\n        /* \"#utility.yul\":2681:2687   */\n      dup3\n        /* \"#utility.yul\":2670:2679   */\n      dup6\n        /* \"#utility.yul\":2666:2688   */\n      add\n        /* \"#utility.yul\":2646:2698   */\n      tag_502\n      jump\t// in\n    tag_526:\n        /* \"#utility.yul\":2636:2698   */\n      swap2\n      pop\n        /* \"#utility.yul\":2592:2708   */\n      pop\n        /* \"#utility.yul\":2388:2715   */\n      swap3\n      swap2\n      pop\n      pop\n      jump\t// out\n        /* \"#utility.yul\":2721:3211   */\n    tag_56:\n        /* \"#utility.yul\":2797:2803   */\n      0x00\n        /* \"#utility.yul\":2805:2811   */\n      dup1\n        /* \"#utility.yul\":2854:2856   */\n      0x40\n        /* \"#utility.yul\":2842:2851   */\n      dup4\n        /* \"#utility.yul\":2833:2840   */\n      dup6\n        /* \"#utility.yul\":2829:2852   */\n      sub\n        /* \"#utility.yul\":2825:2857   */\n      slt\n        /* \"#utility.yul\":2822:2941   */\n      iszero\n      tag_528\n      jumpi\n        /* \"#utility.yul\":2860:2939   */\n      tag_529\n      tag_513\n      jump\t// in\n    tag_529:\n        /* \"#utility.yul\":2822:2941   */\n    tag_528:\n        /* \"#utility.yul\":2980:2981   */\n      0x00\n        /* \"#utility.yul\":3005:3057   */\n      tag_530\n        /* \"#utility.yul\":3049:3056   */\n      dup6\n        /* \"#utility.yul\":3040:3046   */\n      dup3\n        /* \"#utility.yul\":3029:3038   */\n      dup7\n        /* \"#utility.yul\":3025:3047   */\n      add\n        /* \"#utility.yul\":3005:3057   */\n      tag_502\n      jump\t// in\n    tag_530:\n        /* \"#utility.yul\":2995:3057   */\n      swap3\n      pop\n        /* \"#utility.yul\":2951:3067   */\n      pop\n        /* \"#utility.yul\":3106:3108   */\n      0x20\n        /* \"#utility.yul\":3132:3194   */\n      tag_531\n        /* \"#utility.yul\":3186:3193   */\n      dup6\n        /* \"#utility.yul\":3177:3183   */\n      dup3\n        /* \"#utility.yul\":3166:3175   */\n      dup7\n        /* \"#utility.yul\":3162:3184   */\n      add\n        /* \"#utility.yul\":3132:3194   */\n      tag_483\n      jump\t// in\n    tag_531:\n        /* \"#utility.yul\":3122:3194   */\n      swap2\n      pop\n        /* \"#utility.yul\":3077:3204   */\n      pop\n        /* \"#utility.yul\":2721:3211   */\n      swap3\n      pop\n      swap3\n      swap1\n      pop\n      jump\t// out\n        /* \"#utility.yul\":3217:3687   */\n    tag_46:\n        /* \"#utility.yul\":3283:3289   */\n      0x00\n        /* \"#utility.yul\":3291:3297   */\n      dup1\n        /* \"#utility.yul\":3340:3342   */\n      0x40\n        /* \"#utility.yul\":3328:3337   */\n      dup4\n        /* \"#utility.yul\":3319:3326   */\n      dup6\n        /* \"#utility.yul\":3315:3338   */\n      sub\n        /* \"#utility.yul\":3311:3343   */\n      slt\n        /* \"#utility.yul\":3308:3427   */\n      iszero\n      tag_533\n      jumpi\n        /* \"#utility.yul\":3346:3425   */\n      tag_534\n      tag_513\n      jump\t// in\n    tag_534:\n        /* \"#utility.yul\":3308:3427   */\n    tag_533:\n        /* \"#utility.yul\":3466:3467   */\n      0x00\n        /* \"#utility.yul\":3491:3543   */\n      tag_535\n        /* \"#utility.yul\":3535:3542   */\n      dup6\n        /* \"#utility.yul\":3526:3532   */\n      dup3\n        /* \"#utility.yul\":3515:3524   */\n      dup7\n        /* \"#utility.yul\":3511:3533   */\n      add\n        /* \"#utility.yul\":3491:3543   */\n      tag_502\n      jump\t// in\n    tag_535:\n        /* \"#utility.yul\":3481:3543   */\n      swap3\n      pop\n        /* \"#utility.yul\":3437:3553   */\n      pop\n        /* \"#utility.yul\":3592:3594   */\n      0x20\n        /* \"#utility.yul\":3618:3670   */\n      tag_536\n        /* \"#utility.yul\":3662:3669   */\n      dup6\n        /* \"#utility.yul\":3653:3659   */\n      dup3\n        /* \"#utility.yul\":3642:3651   */\n      dup7\n        /* \"#utility.yul\":3638:3660   */\n      add\n        /* \"#utility.yul\":3618:3670   */\n      tag_502\n      jump\t// in\n    tag_536:\n        /* \"#utility.yul\":3608:3670   */\n      swap2\n      pop\n        /* \"#utility.yul\":3563:3680   */\n      pop\n        /* \"#utility.yul\":3217:3687   */\n      swap3\n      pop\n      swap3\n      swap1\n      pop\n      jump\t// out\n        /* \"#utility.yul\":3693:4161   */\n    tag_60:\n        /* \"#utility.yul\":3758:3764   */\n      0x00\n        /* \"#utility.yul\":3766:3772   */\n      dup1\n        /* \"#utility.yul\":3815:3817   */\n      0x40\n        /* \"#utility.yul\":3803:3812   */\n      dup4\n        /* \"#utility.yul\":3794:3801   */\n      dup6\n        /* \"#utility.yul\":3790:3813   */\n      sub\n        /* \"#utility.yul\":3786:3818   */\n      slt\n        /* \"#utility.yul\":3783:3902   */\n      iszero\n      tag_538\n      jumpi\n        /* \"#utility.yul\":3821:3900   */\n      tag_539\n      tag_513\n      jump\t// in\n    tag_539:\n        /* \"#utility.yul\":3783:3902   */\n    tag_538:\n        /* \"#utility.yul\":3941:3942   */\n      0x00\n        /* \"#utility.yul\":3966:4018   */\n      tag_540\n        /* \"#utility.yul\":4010:4017   */\n      dup6\n        /* \"#utility.yul\":4001:4007   */\n      dup3\n        /* \"#utility.yul\":3990:3999   */\n      dup7\n        /* \"#utility.yul\":3986:4008   */\n      add\n        /* \"#utility.yul\":3966:4018   */\n      tag_502\n      jump\t// in\n    tag_540:\n        /* \"#utility.yul\":3956:4018   */\n      swap3\n      pop\n        /* \"#utility.yul\":3912:4028   */\n      pop\n        /* \"#utility.yul\":4067:4069   */\n      0x20\n        /* \"#utility.yul\":4093:4144   */\n      tag_541\n        /* \"#utility.yul\":4136:4143   */\n      dup6\n        /* \"#utility.yul\":4127:4133   */\n      dup3\n        /* \"#utility.yul\":4116:4125   */\n      dup7\n        /* \"#utility.yul\":4112:4134   */\n      add\n        /* \"#utility.yul\":4093:4144   */\n      tag_506\n      jump\t// in\n    tag_541:\n        /* \"#utility.yul\":4083:4144   */\n      swap2\n      pop\n        /* \"#utility.yul\":4038:4154   */\n      pop\n        /* \"#utility.yul\":3693:4161   */\n      swap3\n      pop\n      swap3\n      swap1\n      pop\n      jump\t// out\n        /* \"#utility.yul\":4167:4633   */\n    tag_104:\n        /* \"#utility.yul\":4231:4237   */\n      0x00\n        /* \"#utility.yul\":4239:4245   */\n      dup1\n        /* \"#utility.yul\":4288:4290   */\n      0x40\n        /* \"#utility.yul\":4276:4285   */\n      dup4\n        /* \"#utility.yul\":4267:4274   */\n      dup6\n        /* \"#utility.yul\":4263:4286   */\n      sub\n        /* \"#utility.yul\":4259:4291   */\n      slt\n        /* \"#utility.yul\":4256:4375   */\n      iszero\n      tag_543\n      jumpi\n        /* \"#utility.yul\":4294:4373   */\n      tag_544\n      tag_513\n      jump\t// in\n    tag_544:\n        /* \"#utility.yul\":4256:4375   */\n    tag_543:\n        /* \"#utility.yul\":4414:4415   */\n      0x00\n        /* \"#utility.yul\":4439:4490   */\n      tag_545\n        /* \"#utility.yul\":4482:4489   */\n      dup6\n        /* \"#utility.yul\":4473:4479   */\n      dup3\n        /* \"#utility.yul\":4462:4471   */\n      dup7\n        /* \"#utility.yul\":4458:4480   */\n      add\n        /* \"#utility.yul\":4439:4490   */\n      tag_506\n      jump\t// in\n    tag_545:\n        /* \"#utility.yul\":4429:4490   */\n      swap3\n      pop\n        /* \"#utility.yul\":4385:4500   */\n      pop\n        /* \"#utility.yul\":4539:4541   */\n      0x20\n        /* \"#utility.yul\":4565:4616   */\n      tag_546\n        /* \"#utility.yul\":4608:4615   */\n      dup6\n        /* \"#utility.yul\":4599:4605   */\n      dup3\n        /* \"#utility.yul\":4588:4597   */\n      dup7\n        /* \"#utility.yul\":4584:4606   */\n      add\n        /* \"#utility.yul\":4565:4616   */\n      tag_506\n      jump\t// in\n    tag_546:\n        /* \"#utility.yul\":4555:4616   */\n      swap2\n      pop\n        /* \"#utility.yul\":4510:4626   */\n      pop\n        /* \"#utility.yul\":4167:4633   */\n      swap3\n      pop\n      swap3\n      swap1\n      pop\n      jump\t// out\n        /* \"#utility.yul\":4639:4895   */\n    tag_547:\n        /* \"#utility.yul\":4758:4768   */\n      0x00\n        /* \"#utility.yul\":4793:4889   */\n      tag_549\n        /* \"#utility.yul\":4885:4888   */\n      dup4\n        /* \"#utility.yul\":4877:4883   */\n      dup4\n        /* \"#utility.yul\":4793:4889   */\n      tag_550\n      jump\t// in\n    tag_549:\n        /* \"#utility.yul\":4779:4889   */\n      swap1\n      pop\n        /* \"#utility.yul\":4639:4895   */\n      swap3\n      swap2\n      pop\n      pop\n      jump\t// out\n        /* \"#utility.yul\":4901:5149   */\n    tag_551:\n        /* \"#utility.yul\":5016:5026   */\n      0x00\n        /* \"#utility.yul\":5051:5143   */\n      tag_553\n        /* \"#utility.yul\":5139:5142   */\n      dup4\n        /* \"#utility.yul\":5131:5137   */\n      dup4\n        /* \"#utility.yul\":5051:5143   */\n      tag_554\n      jump\t// in\n    tag_553:\n        /* \"#utility.yul\":5037:5143   */\n      swap1\n      pop\n        /* \"#utility.yul\":4901:5149   */\n      swap3\n      swap2\n      pop\n      pop\n      jump\t// out\n        /* \"#utility.yul\":5155:5263   */\n    tag_555:\n        /* \"#utility.yul\":5232:5256   */\n      tag_557\n        /* \"#utility.yul\":5250:5255   */\n      dup2\n        /* \"#utility.yul\":5232:5256   */\n      tag_558\n      jump\t// in\n    tag_557:\n        /* \"#utility.yul\":5227:5230   */\n      dup3\n        /* \"#utility.yul\":5220:5257   */\n      mstore\n        /* \"#utility.yul\":5155:5263   */\n      pop\n      pop\n      jump\t// out\n        /* \"#utility.yul\":5269:5387   */\n    tag_559:\n        /* \"#utility.yul\":5356:5380   */\n      tag_561\n        /* \"#utility.yul\":5374:5379   */\n      dup2\n        /* \"#utility.yul\":5356:5380   */\n      tag_558\n      jump\t// in\n    tag_561:\n        /* \"#utility.yul\":5351:5354   */\n      dup3\n        /* \"#utility.yul\":5344:5381   */\n      mstore\n        /* \"#utility.yul\":5269:5387   */\n      pop\n      pop\n      jump\t// out\n        /* \"#utility.yul\":5467:6578   */\n    tag_562:\n        /* \"#utility.yul\":5636:5639   */\n      0x00\n        /* \"#utility.yul\":5665:5744   */\n      tag_564\n        /* \"#utility.yul\":5738:5743   */\n      dup3\n        /* \"#utility.yul\":5665:5744   */\n      tag_565\n      jump\t// in\n    tag_564:\n        /* \"#utility.yul\":5760:5871   */\n      tag_566\n        /* \"#utility.yul\":5864:5870   */\n      dup2\n        /* \"#utility.yul\":5859:5862   */\n      dup6\n        /* \"#utility.yul\":5760:5871   */\n      tag_567\n      jump\t// in\n    tag_566:\n        /* \"#utility.yul\":5753:5871   */\n      swap4\n      pop\n        /* \"#utility.yul\":5897:5900   */\n      dup4\n        /* \"#utility.yul\":5942:5946   */\n      0x20\n        /* \"#utility.yul\":5934:5940   */\n      dup3\n        /* \"#utility.yul\":5930:5947   */\n      mul\n        /* \"#utility.yul\":5925:5928   */\n      dup6\n        /* \"#utility.yul\":5921:5948   */\n      add\n        /* \"#utility.yul\":5972:6053   */\n      tag_568\n        /* \"#utility.yul\":6047:6052   */\n      dup6\n        /* \"#utility.yul\":5972:6053   */\n      tag_569\n      jump\t// in\n    tag_568:\n        /* \"#utility.yul\":6076:6083   */\n      dup1\n        /* \"#utility.yul\":6107:6108   */\n      0x00\n        /* \"#utility.yul\":6092:6533   */\n    tag_570:\n        /* \"#utility.yul\":6117:6123   */\n      dup6\n        /* \"#utility.yul\":6114:6115   */\n      dup2\n        /* \"#utility.yul\":6111:6124   */\n      lt\n        /* \"#utility.yul\":6092:6533   */\n      iszero\n      tag_572\n      jumpi\n        /* \"#utility.yul\":6188:6197   */\n      dup5\n        /* \"#utility.yul\":6182:6186   */\n      dup5\n        /* \"#utility.yul\":6178:6198   */\n      sub\n        /* \"#utility.yul\":6173:6176   */\n      dup10\n        /* \"#utility.yul\":6166:6199   */\n      mstore\n        /* \"#utility.yul\":6239:6245   */\n      dup2\n        /* \"#utility.yul\":6233:6246   */\n      mload\n        /* \"#utility.yul\":6267:6381   */\n      tag_573\n        /* \"#utility.yul\":6376:6380   */\n      dup6\n        /* \"#utility.yul\":6361:6374   */\n      dup3\n        /* \"#utility.yul\":6267:6381   */\n      tag_547\n      jump\t// in\n    tag_573:\n        /* \"#utility.yul\":6259:6381   */\n      swap5\n      pop\n        /* \"#utility.yul\":6404:6489   */\n      tag_574\n        /* \"#utility.yul\":6482:6488   */\n      dup4\n        /* \"#utility.yul\":6404:6489   */\n      tag_575\n      jump\t// in\n    tag_574:\n        /* \"#utility.yul\":6394:6489   */\n      swap3\n      pop\n        /* \"#utility.yul\":6518:6522   */\n      0x20\n        /* \"#utility.yul\":6513:6516   */\n      dup11\n        /* \"#utility.yul\":6509:6523   */\n      add\n        /* \"#utility.yul\":6502:6523   */\n      swap10\n      pop\n        /* \"#utility.yul\":6152:6533   */\n      pop\n        /* \"#utility.yul\":6139:6140   */\n      0x01\n        /* \"#utility.yul\":6136:6137   */\n      dup2\n        /* \"#utility.yul\":6132:6141   */\n      add\n        /* \"#utility.yul\":6127:6141   */\n      swap1\n      pop\n        /* \"#utility.yul\":6092:6533   */\n      jump(tag_570)\n    tag_572:\n        /* \"#utility.yul\":6096:6110   */\n      pop\n        /* \"#utility.yul\":6549:6553   */\n      dup3\n        /* \"#utility.yul\":6542:6553   */\n      swap8\n      pop\n        /* \"#utility.yul\":6569:6572   */\n      dup8\n        /* \"#utility.yul\":6562:6572   */\n      swap6\n      pop\n        /* \"#utility.yul\":5641:6578   */\n      pop\n      pop\n      pop\n      pop\n      pop\n        /* \"#utility.yul\":5467:6578   */\n      swap3\n      swap2\n      pop\n      pop\n      jump\t// out\n        /* \"#utility.yul\":6654:7749   */\n    tag_576:\n        /* \"#utility.yul\":6819:6822   */\n      0x00\n        /* \"#utility.yul\":6848:6925   */\n      tag_578\n        /* \"#utility.yul\":6919:6924   */\n      dup3\n        /* \"#utility.yul\":6848:6925   */\n      tag_579\n      jump\t// in\n    tag_578:\n        /* \"#utility.yul\":6941:7050   */\n      tag_580\n        /* \"#utility.yul\":7043:7049   */\n      dup2\n        /* \"#utility.yul\":7038:7041   */\n      dup6\n        /* \"#utility.yul\":6941:7050   */\n      tag_581\n      jump\t// in\n    tag_580:\n        /* \"#utility.yul\":6934:7050   */\n      swap4\n      pop\n        /* \"#utility.yul\":7076:7079   */\n      dup4\n        /* \"#utility.yul\":7121:7125   */\n      0x20\n        /* \"#utility.yul\":7113:7119   */\n      dup3\n        /* \"#utility.yul\":7109:7126   */\n      mul\n        /* \"#utility.yul\":7104:7107   */\n      dup6\n        /* \"#utility.yul\":7100:7127   */\n      add\n        /* \"#utility.yul\":7151:7230   */\n      tag_582\n        /* \"#utility.yul\":7224:7229   */\n      dup6\n        /* \"#utility.yul\":7151:7230   */\n      tag_583\n      jump\t// in\n    tag_582:\n        /* \"#utility.yul\":7253:7260   */\n      dup1\n        /* \"#utility.yul\":7284:7285   */\n      0x00\n        /* \"#utility.yul\":7269:7704   */\n    tag_584:\n        /* \"#utility.yul\":7294:7300   */\n      dup6\n        /* \"#utility.yul\":7291:7292   */\n      dup2\n        /* \"#utility.yul\":7288:7301   */\n      lt\n        /* \"#utility.yul\":7269:7704   */\n      iszero\n      tag_586\n      jumpi\n        /* \"#utility.yul\":7365:7374   */\n      dup5\n        /* \"#utility.yul\":7359:7363   */\n      dup5\n        /* \"#utility.yul\":7355:7375   */\n      sub\n        /* \"#utility.yul\":7350:7353   */\n      dup10\n        /* \"#utility.yul\":7343:7376   */\n      mstore\n        /* \"#utility.yul\":7416:7422   */\n      dup2\n        /* \"#utility.yul\":7410:7423   */\n      mload\n        /* \"#utility.yul\":7444:7554   */\n      tag_587\n        /* \"#utility.yul\":7549:7553   */\n      dup6\n        /* \"#utility.yul\":7534:7547   */\n      dup3\n        /* \"#utility.yul\":7444:7554   */\n      tag_551\n      jump\t// in\n    tag_587:\n        /* \"#utility.yul\":7436:7554   */\n      swap5\n      pop\n        /* \"#utility.yul\":7577:7660   */\n      tag_588\n        /* \"#utility.yul\":7653:7659   */\n      dup4\n        /* \"#utility.yul\":7577:7660   */\n      tag_589\n      jump\t// in\n    tag_588:\n        /* \"#utility.yul\":7567:7660   */\n      swap3\n      pop\n        /* \"#utility.yul\":7689:7693   */\n      0x20\n        /* \"#utility.yul\":7684:7687   */\n      dup11\n        /* \"#utility.yul\":7680:7694   */\n      add\n        /* \"#utility.yul\":7673:7694   */\n      swap10\n      pop\n        /* \"#utility.yul\":7329:7704   */\n      pop\n        /* \"#utility.yul\":7316:7317   */\n      0x01\n        /* \"#utility.yul\":7313:7314   */\n      dup2\n        /* \"#utility.yul\":7309:7318   */\n      add\n        /* \"#utility.yul\":7304:7318   */\n      swap1\n      pop\n        /* \"#utility.yul\":7269:7704   */\n      jump(tag_584)\n    tag_586:\n        /* \"#utility.yul\":7273:7287   */\n      pop\n        /* \"#utility.yul\":7720:7724   */\n      dup3\n        /* \"#utility.yul\":7713:7724   */\n      swap8\n      pop\n        /* \"#utility.yul\":7740:7743   */\n      dup8\n        /* \"#utility.yul\":7733:7743   */\n      swap6\n      pop\n        /* \"#utility.yul\":6824:7749   */\n      pop\n      pop\n      pop\n      pop\n      pop\n        /* \"#utility.yul\":6654:7749   */\n      swap3\n      swap2\n      pop\n      pop\n      jump\t// out\n        /* \"#utility.yul\":7755:7864   */\n    tag_590:\n        /* \"#utility.yul\":7836:7857   */\n      tag_592\n        /* \"#utility.yul\":7851:7856   */\n      dup2\n        /* \"#utility.yul\":7836:7857   */\n      tag_593\n      jump\t// in\n    tag_592:\n        /* \"#utility.yul\":7831:7834   */\n      dup3\n        /* \"#utility.yul\":7824:7858   */\n      mstore\n        /* \"#utility.yul\":7755:7864   */\n      pop\n      pop\n      jump\t// out\n        /* \"#utility.yul\":7870:8015   */\n    tag_594:\n        /* \"#utility.yul\":7959:8008   */\n      tag_596\n        /* \"#utility.yul\":8002:8007   */\n      dup2\n        /* \"#utility.yul\":7959:8008   */\n      tag_597\n      jump\t// in\n    tag_596:\n        /* \"#utility.yul\":7954:7957   */\n      dup3\n        /* \"#utility.yul\":7947:8009   */\n      mstore\n        /* \"#utility.yul\":7870:8015   */\n      pop\n      pop\n      jump\t// out\n        /* \"#utility.yul\":8021:8176   */\n    tag_598:\n        /* \"#utility.yul\":8120:8169   */\n      tag_600\n        /* \"#utility.yul\":8163:8168   */\n      dup2\n        /* \"#utility.yul\":8120:8169   */\n      tag_597\n      jump\t// in\n    tag_600:\n        /* \"#utility.yul\":8115:8118   */\n      dup3\n        /* \"#utility.yul\":8108:8170   */\n      mstore\n        /* \"#utility.yul\":8021:8176   */\n      pop\n      pop\n      jump\t// out\n        /* \"#utility.yul\":8182:8526   */\n    tag_601:\n        /* \"#utility.yul\":8260:8263   */\n      0x00\n        /* \"#utility.yul\":8288:8327   */\n      tag_603\n        /* \"#utility.yul\":8321:8326   */\n      dup3\n        /* \"#utility.yul\":8288:8327   */\n      tag_604\n      jump\t// in\n    tag_603:\n        /* \"#utility.yul\":8343:8404   */\n      tag_605\n        /* \"#utility.yul\":8397:8403   */\n      dup2\n        /* \"#utility.yul\":8392:8395   */\n      dup6\n        /* \"#utility.yul\":8343:8404   */\n      tag_606\n      jump\t// in\n    tag_605:\n        /* \"#utility.yul\":8336:8404   */\n      swap4\n      pop\n        /* \"#utility.yul\":8413:8465   */\n      tag_607\n        /* \"#utility.yul\":8458:8464   */\n      dup2\n        /* \"#utility.yul\":8453:8456   */\n      dup6\n        /* \"#utility.yul\":8446:8450   */\n      0x20\n        /* \"#utility.yul\":8439:8444   */\n      dup7\n        /* \"#utility.yul\":8435:8451   */\n      add\n        /* \"#utility.yul\":8413:8465   */\n      tag_608\n      jump\t// in\n    tag_607:\n        /* \"#utility.yul\":8490:8519   */\n      tag_609\n        /* \"#utility.yul\":8512:8518   */\n      dup2\n        /* \"#utility.yul\":8490:8519   */\n      tag_610\n      jump\t// in\n    tag_609:\n        /* \"#utility.yul\":8485:8488   */\n      dup5\n        /* \"#utility.yul\":8481:8520   */\n      add\n        /* \"#utility.yul\":8474:8520   */\n      swap2\n      pop\n        /* \"#utility.yul\":8264:8526   */\n      pop\n        /* \"#utility.yul\":8182:8526   */\n      swap3\n      swap2\n      pop\n      pop\n      jump\t// out\n        /* \"#utility.yul\":8532:8896   */\n    tag_611:\n        /* \"#utility.yul\":8620:8623   */\n      0x00\n        /* \"#utility.yul\":8648:8687   */\n      tag_613\n        /* \"#utility.yul\":8681:8686   */\n      dup3\n        /* \"#utility.yul\":8648:8687   */\n      tag_604\n      jump\t// in\n    tag_613:\n        /* \"#utility.yul\":8703:8774   */\n      tag_614\n        /* \"#utility.yul\":8767:8773   */\n      dup2\n        /* \"#utility.yul\":8762:8765   */\n      dup6\n        /* \"#utility.yul\":8703:8774   */\n      tag_615\n      jump\t// in\n    tag_614:\n        /* \"#utility.yul\":8696:8774   */\n      swap4\n      pop\n        /* \"#utility.yul\":8783:8835   */\n      tag_616\n        /* \"#utility.yul\":8828:8834   */\n      dup2\n        /* \"#utility.yul\":8823:8826   */\n      dup6\n        /* \"#utility.yul\":8816:8820   */\n      0x20\n        /* \"#utility.yul\":8809:8814   */\n      dup7\n        /* \"#utility.yul\":8805:8821   */\n      add\n        /* \"#utility.yul\":8783:8835   */\n      tag_608\n      jump\t// in\n    tag_616:\n        /* \"#utility.yul\":8860:8889   */\n      tag_617\n        /* \"#utility.yul\":8882:8888   */\n      dup2\n        /* \"#utility.yul\":8860:8889   */\n      tag_610\n      jump\t// in\n    tag_617:\n        /* \"#utility.yul\":8855:8858   */\n      dup5\n        /* \"#utility.yul\":8851:8890   */\n      add\n        /* \"#utility.yul\":8844:8890   */\n      swap2\n      pop\n        /* \"#utility.yul\":8624:8896   */\n      pop\n        /* \"#utility.yul\":8532:8896   */\n      swap3\n      swap2\n      pop\n      pop\n      jump\t// out\n        /* \"#utility.yul\":8926:9728   */\n    tag_618:\n        /* \"#utility.yul\":9011:9014   */\n      0x00\n        /* \"#utility.yul\":9048:9053   */\n      dup2\n        /* \"#utility.yul\":9042:9054   */\n      sload\n        /* \"#utility.yul\":9077:9113   */\n      tag_620\n        /* \"#utility.yul\":9103:9112   */\n      dup2\n        /* \"#utility.yul\":9077:9113   */\n      tag_171\n      jump\t// in\n    tag_620:\n        /* \"#utility.yul\":9129:9200   */\n      tag_621\n        /* \"#utility.yul\":9193:9199   */\n      dup2\n        /* \"#utility.yul\":9188:9191   */\n      dup7\n        /* \"#utility.yul\":9129:9200   */\n      tag_615\n      jump\t// in\n    tag_621:\n        /* \"#utility.yul\":9122:9200   */\n      swap5\n      pop\n        /* \"#utility.yul\":9231:9232   */\n      0x01\n        /* \"#utility.yul\":9220:9229   */\n      dup3\n        /* \"#utility.yul\":9216:9233   */\n      and\n        /* \"#utility.yul\":9247:9248   */\n      0x00\n        /* \"#utility.yul\":9242:9377   */\n      dup2\n      eq\n      tag_623\n      jumpi\n        /* \"#utility.yul\":9391:9392   */\n      0x01\n        /* \"#utility.yul\":9386:9722   */\n      dup2\n      eq\n      tag_624\n      jumpi\n        /* \"#utility.yul\":9209:9722   */\n      jump(tag_622)\n        /* \"#utility.yul\":9242:9377   */\n    tag_623:\n        /* \"#utility.yul\":9326:9330   */\n      0xff\n        /* \"#utility.yul\":9322:9331   */\n      not\n        /* \"#utility.yul\":9311:9320   */\n      dup4\n        /* \"#utility.yul\":9307:9332   */\n      and\n        /* \"#utility.yul\":9302:9305   */\n      dup7\n        /* \"#utility.yul\":9295:9333   */\n      mstore\n        /* \"#utility.yul\":9362:9366   */\n      0x20\n        /* \"#utility.yul\":9357:9360   */\n      dup7\n        /* \"#utility.yul\":9353:9367   */\n      add\n        /* \"#utility.yul\":9346:9367   */\n      swap4\n      pop\n        /* \"#utility.yul\":9242:9377   */\n      jump(tag_622)\n        /* \"#utility.yul\":9386:9722   */\n    tag_624:\n        /* \"#utility.yul\":9453:9491   */\n      tag_625\n        /* \"#utility.yul\":9485:9490   */\n      dup6\n        /* \"#utility.yul\":9453:9491   */\n      tag_626\n      jump\t// in\n    tag_625:\n        /* \"#utility.yul\":9513:9514   */\n      0x00\n        /* \"#utility.yul\":9527:9681   */\n    tag_627:\n        /* \"#utility.yul\":9541:9547   */\n      dup4\n        /* \"#utility.yul\":9538:9539   */\n      dup2\n        /* \"#utility.yul\":9535:9548   */\n      lt\n        /* \"#utility.yul\":9527:9681   */\n      iszero\n      tag_629\n      jumpi\n        /* \"#utility.yul\":9615:9622   */\n      dup2\n        /* \"#utility.yul\":9609:9623   */\n      sload\n        /* \"#utility.yul\":9605:9606   */\n      dup2\n        /* \"#utility.yul\":9600:9603   */\n      dup10\n        /* \"#utility.yul\":9596:9607   */\n      add\n        /* \"#utility.yul\":9589:9624   */\n      mstore\n        /* \"#utility.yul\":9665:9666   */\n      0x01\n        /* \"#utility.yul\":9656:9663   */\n      dup3\n        /* \"#utility.yul\":9652:9667   */\n      add\n        /* \"#utility.yul\":9641:9667   */\n      swap2\n      pop\n        /* \"#utility.yul\":9563:9567   */\n      0x20\n        /* \"#utility.yul\":9560:9561   */\n      dup2\n        /* \"#utility.yul\":9556:9568   */\n      add\n        /* \"#utility.yul\":9551:9568   */\n      swap1\n      pop\n        /* \"#utility.yul\":9527:9681   */\n      jump(tag_627)\n    tag_629:\n        /* \"#utility.yul\":9710:9711   */\n      dup1\n        /* \"#utility.yul\":9705:9708   */\n      dup9\n        /* \"#utility.yul\":9701:9712   */\n      add\n        /* \"#utility.yul\":9694:9712   */\n      swap6\n      pop\n        /* \"#utility.yul\":9393:9722   */\n      pop\n      pop\n        /* \"#utility.yul\":9209:9722   */\n    tag_622:\n      pop\n        /* \"#utility.yul\":9015:9728   */\n      pop\n      pop\n        /* \"#utility.yul\":8926:9728   */\n      swap3\n      swap2\n      pop\n      pop\n      jump\t// out\n        /* \"#utility.yul\":9734:10100   */\n    tag_630:\n        /* \"#utility.yul\":9876:9879   */\n      0x00\n        /* \"#utility.yul\":9897:9964   */\n      tag_632\n        /* \"#utility.yul\":9961:9963   */\n      0x2e\n        /* \"#utility.yul\":9956:9959   */\n      dup4\n        /* \"#utility.yul\":9897:9964   */\n      tag_615\n      jump\t// in\n    tag_632:\n        /* \"#utility.yul\":9890:9964   */\n      swap2\n      pop\n        /* \"#utility.yul\":9973:10066   */\n      tag_633\n        /* \"#utility.yul\":10062:10065   */\n      dup3\n        /* \"#utility.yul\":9973:10066   */\n      tag_634\n      jump\t// in\n    tag_633:\n        /* \"#utility.yul\":10091:10093   */\n      0x40\n        /* \"#utility.yul\":10086:10089   */\n      dup3\n        /* \"#utility.yul\":10082:10094   */\n      add\n        /* \"#utility.yul\":10075:10094   */\n      swap1\n      pop\n        /* \"#utility.yul\":9734:10100   */\n      swap2\n      swap1\n      pop\n      jump\t// out\n        /* \"#utility.yul\":10106:10472   */\n    tag_635:\n        /* \"#utility.yul\":10248:10251   */\n      0x00\n        /* \"#utility.yul\":10269:10336   */\n      tag_637\n        /* \"#utility.yul\":10333:10335   */\n      0x13\n        /* \"#utility.yul\":10328:10331   */\n      dup4\n        /* \"#utility.yul\":10269:10336   */\n      tag_615\n      jump\t// in\n    tag_637:\n        /* \"#utility.yul\":10262:10336   */\n      swap2\n      pop\n        /* \"#utility.yul\":10345:10438   */\n      tag_638\n        /* \"#utility.yul\":10434:10437   */\n      dup3\n        /* \"#utility.yul\":10345:10438   */\n      tag_639\n      jump\t// in\n    tag_638:\n        /* \"#utility.yul\":10463:10465   */\n      0x20\n        /* \"#utility.yul\":10458:10461   */\n      dup3\n        /* \"#utility.yul\":10454:10466   */\n      add\n        /* \"#utility.yul\":10447:10466   */\n      swap1\n      pop\n        /* \"#utility.yul\":10106:10472   */\n      swap2\n      swap1\n      pop\n      jump\t// out\n        /* \"#utility.yul\":10478:10844   */\n    tag_640:\n        /* \"#utility.yul\":10620:10623   */\n      0x00\n        /* \"#utility.yul\":10641:10708   */\n      tag_642\n        /* \"#utility.yul\":10705:10707   */\n      0x2d\n        /* \"#utility.yul\":10700:10703   */\n      dup4\n        /* \"#utility.yul\":10641:10708   */\n      tag_615\n      jump\t// in\n    tag_642:\n        /* \"#utility.yul\":10634:10708   */\n      swap2\n      pop\n        /* \"#utility.yul\":10717:10810   */\n      tag_643\n        /* \"#utility.yul\":10806:10809   */\n      dup3\n        /* \"#utility.yul\":10717:10810   */\n      tag_644\n      jump\t// in\n    tag_643:\n        /* \"#utility.yul\":10835:10837   */\n      0x40\n        /* \"#utility.yul\":10830:10833   */\n      dup3\n        /* \"#utility.yul\":10826:10838   */\n      add\n        /* \"#utility.yul\":10819:10838   */\n      swap1\n      pop\n        /* \"#utility.yul\":10478:10844   */\n      swap2\n      swap1\n      pop\n      jump\t// out\n        /* \"#utility.yul\":10850:11216   */\n    tag_645:\n        /* \"#utility.yul\":10992:10995   */\n      0x00\n        /* \"#utility.yul\":11013:11080   */\n      tag_647\n        /* \"#utility.yul\":11077:11079   */\n      0x26\n        /* \"#utility.yul\":11072:11075   */\n      dup4\n        /* \"#utility.yul\":11013:11080   */\n      tag_615\n      jump\t// in\n    tag_647:\n        /* \"#utility.yul\":11006:11080   */\n      swap2\n      pop\n        /* \"#utility.yul\":11089:11182   */\n      tag_648\n        /* \"#utility.yul\":11178:11181   */\n      dup3\n        /* \"#utility.yul\":11089:11182   */\n      tag_649\n      jump\t// in\n    tag_648:\n        /* \"#utility.yul\":11207:11209   */\n      0x40\n        /* \"#utility.yul\":11202:11205   */\n      dup3\n        /* \"#utility.yul\":11198:11210   */\n      add\n        /* \"#utility.yul\":11191:11210   */\n      swap1\n      pop\n        /* \"#utility.yul\":10850:11216   */\n      swap2\n      swap1\n      pop\n      jump\t// out\n        /* \"#utility.yul\":11222:11588   */\n    tag_650:\n        /* \"#utility.yul\":11364:11367   */\n      0x00\n        /* \"#utility.yul\":11385:11452   */\n      tag_652\n        /* \"#utility.yul\":11449:11451   */\n      0x12\n        /* \"#utility.yul\":11444:11447   */\n      dup4\n        /* \"#utility.yul\":11385:11452   */\n      tag_615\n      jump\t// in\n    tag_652:\n        /* \"#utility.yul\":11378:11452   */\n      swap2\n      pop\n        /* \"#utility.yul\":11461:11554   */\n      tag_653\n        /* \"#utility.yul\":11550:11553   */\n      dup3\n        /* \"#utility.yul\":11461:11554   */\n      tag_654\n      jump\t// in\n    tag_653:\n        /* \"#utility.yul\":11579:11581   */\n      0x20\n        /* \"#utility.yul\":11574:11577   */\n      dup3\n        /* \"#utility.yul\":11570:11582   */\n      add\n        /* \"#utility.yul\":11563:11582   */\n      swap1\n      pop\n        /* \"#utility.yul\":11222:11588   */\n      swap2\n      swap1\n      pop\n      jump\t// out\n        /* \"#utility.yul\":11594:11960   */\n    tag_655:\n        /* \"#utility.yul\":11736:11739   */\n      0x00\n        /* \"#utility.yul\":11757:11824   */\n      tag_657\n        /* \"#utility.yul\":11821:11823   */\n      0x30\n        /* \"#utility.yul\":11816:11819   */\n      dup4\n        /* \"#utility.yul\":11757:11824   */\n      tag_615\n      jump\t// in\n    tag_657:\n        /* \"#utility.yul\":11750:11824   */\n      swap2\n      pop\n        /* \"#utility.yul\":11833:11926   */\n      tag_658\n        /* \"#utility.yul\":11922:11925   */\n      dup3\n        /* \"#utility.yul\":11833:11926   */\n      tag_659\n      jump\t// in\n    tag_658:\n        /* \"#utility.yul\":11951:11953   */\n      0x40\n        /* \"#utility.yul\":11946:11949   */\n      dup3\n        /* \"#utility.yul\":11942:11954   */\n      add\n        /* \"#utility.yul\":11935:11954   */\n      swap1\n      pop\n        /* \"#utility.yul\":11594:11960   */\n      swap2\n      swap1\n      pop\n      jump\t// out\n        /* \"#utility.yul\":11966:12332   */\n    tag_660:\n        /* \"#utility.yul\":12108:12111   */\n      0x00\n        /* \"#utility.yul\":12129:12196   */\n      tag_662\n        /* \"#utility.yul\":12193:12195   */\n      0x21\n        /* \"#utility.yul\":12188:12191   */\n      dup4\n        /* \"#utility.yul\":12129:12196   */\n      tag_615\n      jump\t// in\n    tag_662:\n        /* \"#utility.yul\":12122:12196   */\n      swap2\n      pop\n        /* \"#utility.yul\":12205:12298   */\n      tag_663\n        /* \"#utility.yul\":12294:12297   */\n      dup3\n        /* \"#utility.yul\":12205:12298   */\n      tag_664\n      jump\t// in\n    tag_663:\n        /* \"#utility.yul\":12323:12325   */\n      0x40\n        /* \"#utility.yul\":12318:12321   */\n      dup3\n        /* \"#utility.yul\":12314:12326   */\n      add\n        /* \"#utility.yul\":12307:12326   */\n      swap1\n      pop\n        /* \"#utility.yul\":11966:12332   */\n      swap2\n      swap1\n      pop\n      jump\t// out\n        /* \"#utility.yul\":12338:12704   */\n    tag_665:\n        /* \"#utility.yul\":12480:12483   */\n      0x00\n        /* \"#utility.yul\":12501:12568   */\n      tag_667\n        /* \"#utility.yul\":12565:12567   */\n      0x21\n        /* \"#utility.yul\":12560:12563   */\n      dup4\n        /* \"#utility.yul\":12501:12568   */\n      tag_615\n      jump\t// in\n    tag_667:\n        /* \"#utility.yul\":12494:12568   */\n      swap2\n      pop\n        /* \"#utility.yul\":12577:12670   */\n      tag_668\n        /* \"#utility.yul\":12666:12669   */\n      dup3\n        /* \"#utility.yul\":12577:12670   */\n      tag_669\n      jump\t// in\n    tag_668:\n        /* \"#utility.yul\":12695:12697   */\n      0x40\n        /* \"#utility.yul\":12690:12693   */\n      dup3\n        /* \"#utility.yul\":12686:12698   */\n      add\n        /* \"#utility.yul\":12679:12698   */\n      swap1\n      pop\n        /* \"#utility.yul\":12338:12704   */\n      swap2\n      swap1\n      pop\n      jump\t// out\n        /* \"#utility.yul\":12710:13076   */\n    tag_670:\n        /* \"#utility.yul\":12852:12855   */\n      0x00\n        /* \"#utility.yul\":12873:12940   */\n      tag_672\n        /* \"#utility.yul\":12937:12939   */\n      0x20\n        /* \"#utility.yul\":12932:12935   */\n      dup4\n        /* \"#utility.yul\":12873:12940   */\n      tag_615\n      jump\t// in\n    tag_672:\n        /* \"#utility.yul\":12866:12940   */\n      swap2\n      pop\n        /* \"#utility.yul\":12949:13042   */\n      tag_673\n        /* \"#utility.yul\":13038:13041   */\n      dup3\n        /* \"#utility.yul\":12949:13042   */\n      tag_674\n      jump\t// in\n    tag_673:\n        /* \"#utility.yul\":13067:13069   */\n      0x20\n        /* \"#utility.yul\":13062:13065   */\n      dup3\n        /* \"#utility.yul\":13058:13070   */\n      add\n        /* \"#utility.yul\":13051:13070   */\n      swap1\n      pop\n        /* \"#utility.yul\":12710:13076   */\n      swap2\n      swap1\n      pop\n      jump\t// out\n        /* \"#utility.yul\":13082:13448   */\n    tag_675:\n        /* \"#utility.yul\":13224:13227   */\n      0x00\n        /* \"#utility.yul\":13245:13312   */\n      tag_677\n        /* \"#utility.yul\":13309:13311   */\n      0x14\n        /* \"#utility.yul\":13304:13307   */\n      dup4\n        /* \"#utility.yul\":13245:13312   */\n      tag_615\n      jump\t// in\n    tag_677:\n        /* \"#utility.yul\":13238:13312   */\n      swap2\n      pop\n        /* \"#utility.yul\":13321:13414   */\n      tag_678\n        /* \"#utility.yul\":13410:13413   */\n      dup3\n        /* \"#utility.yul\":13321:13414   */\n      tag_679\n      jump\t// in\n    tag_678:\n        /* \"#utility.yul\":13439:13441   */\n      0x20\n        /* \"#utility.yul\":13434:13437   */\n      dup3\n        /* \"#utility.yul\":13430:13442   */\n      add\n        /* \"#utility.yul\":13423:13442   */\n      swap1\n      pop\n        /* \"#utility.yul\":13082:13448   */\n      swap2\n      swap1\n      pop\n      jump\t// out\n        /* \"#utility.yul\":13454:13820   */\n    tag_680:\n        /* \"#utility.yul\":13596:13599   */\n      0x00\n        /* \"#utility.yul\":13617:13684   */\n      tag_682\n        /* \"#utility.yul\":13681:13683   */\n      0x15\n        /* \"#utility.yul\":13676:13679   */\n      dup4\n        /* \"#utility.yul\":13617:13684   */\n      tag_615\n      jump\t// in\n    tag_682:\n        /* \"#utility.yul\":13610:13684   */\n      swap2\n      pop\n        /* \"#utility.yul\":13693:13786   */\n      tag_683\n        /* \"#utility.yul\":13782:13785   */\n      dup3\n        /* \"#utility.yul\":13693:13786   */\n      tag_684\n      jump\t// in\n    tag_683:\n        /* \"#utility.yul\":13811:13813   */\n      0x20\n        /* \"#utility.yul\":13806:13809   */\n      dup3\n        /* \"#utility.yul\":13802:13814   */\n      add\n        /* \"#utility.yul\":13795:13814   */\n      swap1\n      pop\n        /* \"#utility.yul\":13454:13820   */\n      swap2\n      swap1\n      pop\n      jump\t// out\n        /* \"#utility.yul\":13826:14192   */\n    tag_685:\n        /* \"#utility.yul\":13968:13971   */\n      0x00\n        /* \"#utility.yul\":13989:14056   */\n      tag_687\n        /* \"#utility.yul\":14053:14055   */\n      0x1c\n        /* \"#utility.yul\":14048:14051   */\n      dup4\n        /* \"#utility.yul\":13989:14056   */\n      tag_615\n      jump\t// in\n    tag_687:\n        /* \"#utility.yul\":13982:14056   */\n      swap2\n      pop\n        /* \"#utility.yul\":14065:14158   */\n      tag_688\n        /* \"#utility.yul\":14154:14157   */\n      dup3\n        /* \"#utility.yul\":14065:14158   */\n      tag_689\n      jump\t// in\n    tag_688:\n        /* \"#utility.yul\":14183:14185   */\n      0x20\n        /* \"#utility.yul\":14178:14181   */\n      dup3\n        /* \"#utility.yul\":14174:14186   */\n      add\n        /* \"#utility.yul\":14167:14186   */\n      swap1\n      pop\n        /* \"#utility.yul\":13826:14192   */\n      swap2\n      swap1\n      pop\n      jump\t// out\n        /* \"#utility.yul\":14198:14564   */\n    tag_690:\n        /* \"#utility.yul\":14340:14343   */\n      0x00\n        /* \"#utility.yul\":14361:14428   */\n      tag_692\n        /* \"#utility.yul\":14425:14427   */\n      0x14\n        /* \"#utility.yul\":14420:14423   */\n      dup4\n        /* \"#utility.yul\":14361:14428   */\n      tag_615\n      jump\t// in\n    tag_692:\n        /* \"#utility.yul\":14354:14428   */\n      swap2\n      pop\n        /* \"#utility.yul\":14437:14530   */\n      tag_693\n        /* \"#utility.yul\":14526:14529   */\n      dup3\n        /* \"#utility.yul\":14437:14530   */\n      tag_694\n      jump\t// in\n    tag_693:\n        /* \"#utility.yul\":14555:14557   */\n      0x20\n        /* \"#utility.yul\":14550:14553   */\n      dup3\n        /* \"#utility.yul\":14546:14558   */\n      add\n        /* \"#utility.yul\":14539:14558   */\n      swap1\n      pop\n        /* \"#utility.yul\":14198:14564   */\n      swap2\n      swap1\n      pop\n      jump\t// out\n        /* \"#utility.yul\":14570:14936   */\n    tag_695:\n        /* \"#utility.yul\":14712:14715   */\n      0x00\n        /* \"#utility.yul\":14733:14800   */\n      tag_697\n        /* \"#utility.yul\":14797:14799   */\n      0x32\n        /* \"#utility.yul\":14792:14795   */\n      dup4\n        /* \"#utility.yul\":14733:14800   */\n      tag_615\n      jump\t// in\n    tag_697:\n        /* \"#utility.yul\":14726:14800   */\n      swap2\n      pop\n        /* \"#utility.yul\":14809:14902   */\n      tag_698\n        /* \"#utility.yul\":14898:14901   */\n      dup3\n        /* \"#utility.yul\":14809:14902   */\n      tag_699\n      jump\t// in\n    tag_698:\n        /* \"#utility.yul\":14927:14929   */\n      0x40\n        /* \"#utility.yul\":14922:14925   */\n      dup3\n        /* \"#utility.yul\":14918:14930   */\n      add\n        /* \"#utility.yul\":14911:14930   */\n      swap1\n      pop\n        /* \"#utility.yul\":14570:14936   */\n      swap2\n      swap1\n      pop\n      jump\t// out\n        /* \"#utility.yul\":15012:16902   */\n    tag_550:\n        /* \"#utility.yul\":15121:15124   */\n      0x00\n        /* \"#utility.yul\":15157:15163   */\n      0x0120\n        /* \"#utility.yul\":15152:15155   */\n      dup4\n        /* \"#utility.yul\":15148:15164   */\n      add\n        /* \"#utility.yul\":15244:15248   */\n      0x00\n        /* \"#utility.yul\":15237:15242   */\n      dup4\n        /* \"#utility.yul\":15233:15249   */\n      add\n        /* \"#utility.yul\":15227:15250   */\n      mload\n        /* \"#utility.yul\":15263:15324   */\n      tag_701\n        /* \"#utility.yul\":15318:15322   */\n      0x00\n        /* \"#utility.yul\":15313:15316   */\n      dup7\n        /* \"#utility.yul\":15309:15323   */\n      add\n        /* \"#utility.yul\":15295:15307   */\n      dup3\n        /* \"#utility.yul\":15263:15324   */\n      tag_702\n      jump\t// in\n    tag_701:\n        /* \"#utility.yul\":15174:15334   */\n      pop\n        /* \"#utility.yul\":15417:15421   */\n      0x20\n        /* \"#utility.yul\":15410:15415   */\n      dup4\n        /* \"#utility.yul\":15406:15422   */\n      add\n        /* \"#utility.yul\":15400:15423   */\n      mload\n        /* \"#utility.yul\":15470:15473   */\n      dup5\n        /* \"#utility.yul\":15464:15468   */\n      dup3\n        /* \"#utility.yul\":15460:15474   */\n      sub\n        /* \"#utility.yul\":15453:15457   */\n      0x20\n        /* \"#utility.yul\":15448:15451   */\n      dup7\n        /* \"#utility.yul\":15444:15458   */\n      add\n        /* \"#utility.yul\":15437:15475   */\n      mstore\n        /* \"#utility.yul\":15496:15569   */\n      tag_703\n        /* \"#utility.yul\":15564:15568   */\n      dup3\n        /* \"#utility.yul\":15550:15562   */\n      dup3\n        /* \"#utility.yul\":15496:15569   */\n      tag_601\n      jump\t// in\n    tag_703:\n        /* \"#utility.yul\":15488:15569   */\n      swap2\n      pop\n        /* \"#utility.yul\":15344:15580   */\n      pop\n        /* \"#utility.yul\":15663:15667   */\n      0x40\n        /* \"#utility.yul\":15656:15661   */\n      dup4\n        /* \"#utility.yul\":15652:15668   */\n      add\n        /* \"#utility.yul\":15646:15669   */\n      mload\n        /* \"#utility.yul\":15682:15743   */\n      tag_704\n        /* \"#utility.yul\":15737:15741   */\n      0x40\n        /* \"#utility.yul\":15732:15735   */\n      dup7\n        /* \"#utility.yul\":15728:15742   */\n      add\n        /* \"#utility.yul\":15714:15726   */\n      dup3\n        /* \"#utility.yul\":15682:15743   */\n      tag_705\n      jump\t// in\n    tag_704:\n        /* \"#utility.yul\":15590:15753   */\n      pop\n        /* \"#utility.yul\":15837:15841   */\n      0x60\n        /* \"#utility.yul\":15830:15835   */\n      dup4\n        /* \"#utility.yul\":15826:15842   */\n      add\n        /* \"#utility.yul\":15820:15843   */\n      mload\n        /* \"#utility.yul\":15856:15917   */\n      tag_706\n        /* \"#utility.yul\":15911:15915   */\n      0x60\n        /* \"#utility.yul\":15906:15909   */\n      dup7\n        /* \"#utility.yul\":15902:15916   */\n      add\n        /* \"#utility.yul\":15888:15900   */\n      dup3\n        /* \"#utility.yul\":15856:15917   */\n      tag_705\n      jump\t// in\n    tag_706:\n        /* \"#utility.yul\":15763:15927   */\n      pop\n        /* \"#utility.yul\":16013:16017   */\n      0x80\n        /* \"#utility.yul\":16006:16011   */\n      dup4\n        /* \"#utility.yul\":16002:16018   */\n      add\n        /* \"#utility.yul\":15996:16019   */\n      mload\n        /* \"#utility.yul\":16032:16095   */\n      tag_707\n        /* \"#utility.yul\":16089:16093   */\n      0x80\n        /* \"#utility.yul\":16084:16087   */\n      dup7\n        /* \"#utility.yul\":16080:16094   */\n      add\n        /* \"#utility.yul\":16066:16078   */\n      dup3\n        /* \"#utility.yul\":16032:16095   */\n      tag_555\n      jump\t// in\n    tag_707:\n        /* \"#utility.yul\":15937:16105   */\n      pop\n        /* \"#utility.yul\":16201:16205   */\n      0xa0\n        /* \"#utility.yul\":16194:16199   */\n      dup4\n        /* \"#utility.yul\":16190:16206   */\n      add\n        /* \"#utility.yul\":16184:16207   */\n      mload\n        /* \"#utility.yul\":16220:16283   */\n      tag_708\n        /* \"#utility.yul\":16277:16281   */\n      0xa0\n        /* \"#utility.yul\":16272:16275   */\n      dup7\n        /* \"#utility.yul\":16268:16282   */\n      add\n        /* \"#utility.yul\":16254:16266   */\n      dup3\n        /* \"#utility.yul\":16220:16283   */\n      tag_709\n      jump\t// in\n    tag_708:\n        /* \"#utility.yul\":16115:16293   */\n      pop\n        /* \"#utility.yul\":16398:16402   */\n      0xc0\n        /* \"#utility.yul\":16391:16396   */\n      dup4\n        /* \"#utility.yul\":16387:16403   */\n      add\n        /* \"#utility.yul\":16381:16404   */\n      mload\n        /* \"#utility.yul\":16417:16480   */\n      tag_710\n        /* \"#utility.yul\":16474:16478   */\n      0xc0\n        /* \"#utility.yul\":16469:16472   */\n      dup7\n        /* \"#utility.yul\":16465:16479   */\n      add\n        /* \"#utility.yul\":16451:16463   */\n      dup3\n        /* \"#utility.yul\":16417:16480   */\n      tag_709\n      jump\t// in\n    tag_710:\n        /* \"#utility.yul\":16303:16490   */\n      pop\n        /* \"#utility.yul\":16585:16589   */\n      0xe0\n        /* \"#utility.yul\":16578:16583   */\n      dup4\n        /* \"#utility.yul\":16574:16590   */\n      add\n        /* \"#utility.yul\":16568:16591   */\n      mload\n        /* \"#utility.yul\":16604:16667   */\n      tag_711\n        /* \"#utility.yul\":16661:16665   */\n      0xe0\n        /* \"#utility.yul\":16656:16659   */\n      dup7\n        /* \"#utility.yul\":16652:16666   */\n      add\n        /* \"#utility.yul\":16638:16650   */\n      dup3\n        /* \"#utility.yul\":16604:16667   */\n      tag_709\n      jump\t// in\n    tag_711:\n        /* \"#utility.yul\":16500:16677   */\n      pop\n        /* \"#utility.yul\":16767:16773   */\n      0x0100\n        /* \"#utility.yul\":16760:16765   */\n      dup4\n        /* \"#utility.yul\":16756:16774   */\n      add\n        /* \"#utility.yul\":16750:16775   */\n      mload\n        /* \"#utility.yul\":16788:16865   */\n      tag_712\n        /* \"#utility.yul\":16857:16863   */\n      0x0100\n        /* \"#utility.yul\":16852:16855   */\n      dup7\n        /* \"#utility.yul\":16848:16864   */\n      add\n        /* \"#utility.yul\":16834:16846   */\n      dup3\n        /* \"#utility.yul\":16788:16865   */\n      tag_594\n      jump\t// in\n    tag_712:\n        /* \"#utility.yul\":16687:16875   */\n      pop\n        /* \"#utility.yul\":16892:16896   */\n      dup1\n        /* \"#utility.yul\":16885:16896   */\n      swap2\n      pop\n        /* \"#utility.yul\":15126:16902   */\n      pop\n        /* \"#utility.yul\":15012:16902   */\n      swap3\n      swap2\n      pop\n      pop\n      jump\t// out\n        /* \"#utility.yul\":16974:18858   */\n    tag_554:\n        /* \"#utility.yul\":17079:17082   */\n      0x00\n        /* \"#utility.yul\":17115:17121   */\n      0x0120\n        /* \"#utility.yul\":17110:17113   */\n      dup4\n        /* \"#utility.yul\":17106:17122   */\n      add\n        /* \"#utility.yul\":17202:17206   */\n      0x00\n        /* \"#utility.yul\":17195:17200   */\n      dup4\n        /* \"#utility.yul\":17191:17207   */\n      add\n        /* \"#utility.yul\":17185:17208   */\n      mload\n        /* \"#utility.yul\":17221:17282   */\n      tag_714\n        /* \"#utility.yul\":17276:17280   */\n      0x00\n        /* \"#utility.yul\":17271:17274   */\n      dup7\n        /* \"#utility.yul\":17267:17281   */\n      add\n        /* \"#utility.yul\":17253:17265   */\n      dup3\n        /* \"#utility.yul\":17221:17282   */\n      tag_702\n      jump\t// in\n    tag_714:\n        /* \"#utility.yul\":17132:17292   */\n      pop\n        /* \"#utility.yul\":17375:17379   */\n      0x20\n        /* \"#utility.yul\":17368:17373   */\n      dup4\n        /* \"#utility.yul\":17364:17380   */\n      add\n        /* \"#utility.yul\":17358:17381   */\n      mload\n        /* \"#utility.yul\":17428:17431   */\n      dup5\n        /* \"#utility.yul\":17422:17426   */\n      dup3\n        /* \"#utility.yul\":17418:17432   */\n      sub\n        /* \"#utility.yul\":17411:17415   */\n      0x20\n        /* \"#utility.yul\":17406:17409   */\n      dup7\n        /* \"#utility.yul\":17402:17416   */\n      add\n        /* \"#utility.yul\":17395:17433   */\n      mstore\n        /* \"#utility.yul\":17454:17527   */\n      tag_715\n        /* \"#utility.yul\":17522:17526   */\n      dup3\n        /* \"#utility.yul\":17508:17520   */\n      dup3\n        /* \"#utility.yul\":17454:17527   */\n      tag_601\n      jump\t// in\n    tag_715:\n        /* \"#utility.yul\":17446:17527   */\n      swap2\n      pop\n        /* \"#utility.yul\":17302:17538   */\n      pop\n        /* \"#utility.yul\":17621:17625   */\n      0x40\n        /* \"#utility.yul\":17614:17619   */\n      dup4\n        /* \"#utility.yul\":17610:17626   */\n      add\n        /* \"#utility.yul\":17604:17627   */\n      mload\n        /* \"#utility.yul\":17640:17701   */\n      tag_716\n        /* \"#utility.yul\":17695:17699   */\n      0x40\n        /* \"#utility.yul\":17690:17693   */\n      dup7\n        /* \"#utility.yul\":17686:17700   */\n      add\n        /* \"#utility.yul\":17672:17684   */\n      dup3\n        /* \"#utility.yul\":17640:17701   */\n      tag_705\n      jump\t// in\n    tag_716:\n        /* \"#utility.yul\":17548:17711   */\n      pop\n        /* \"#utility.yul\":17795:17799   */\n      0x60\n        /* \"#utility.yul\":17788:17793   */\n      dup4\n        /* \"#utility.yul\":17784:17800   */\n      add\n        /* \"#utility.yul\":17778:17801   */\n      mload\n        /* \"#utility.yul\":17814:17875   */\n      tag_717\n        /* \"#utility.yul\":17869:17873   */\n      0x60\n        /* \"#utility.yul\":17864:17867   */\n      dup7\n        /* \"#utility.yul\":17860:17874   */\n      add\n        /* \"#utility.yul\":17846:17858   */\n      dup3\n        /* \"#utility.yul\":17814:17875   */\n      tag_705\n      jump\t// in\n    tag_717:\n        /* \"#utility.yul\":17721:17885   */\n      pop\n        /* \"#utility.yul\":17971:17975   */\n      0x80\n        /* \"#utility.yul\":17964:17969   */\n      dup4\n        /* \"#utility.yul\":17960:17976   */\n      add\n        /* \"#utility.yul\":17954:17977   */\n      mload\n        /* \"#utility.yul\":17990:18053   */\n      tag_718\n        /* \"#utility.yul\":18047:18051   */\n      0x80\n        /* \"#utility.yul\":18042:18045   */\n      dup7\n        /* \"#utility.yul\":18038:18052   */\n      add\n        /* \"#utility.yul\":18024:18036   */\n      dup3\n        /* \"#utility.yul\":17990:18053   */\n      tag_555\n      jump\t// in\n    tag_718:\n        /* \"#utility.yul\":17895:18063   */\n      pop\n        /* \"#utility.yul\":18159:18163   */\n      0xa0\n        /* \"#utility.yul\":18152:18157   */\n      dup4\n        /* \"#utility.yul\":18148:18164   */\n      add\n        /* \"#utility.yul\":18142:18165   */\n      mload\n        /* \"#utility.yul\":18178:18241   */\n      tag_719\n        /* \"#utility.yul\":18235:18239   */\n      0xa0\n        /* \"#utility.yul\":18230:18233   */\n      dup7\n        /* \"#utility.yul\":18226:18240   */\n      add\n        /* \"#utility.yul\":18212:18224   */\n      dup3\n        /* \"#utility.yul\":18178:18241   */\n      tag_709\n      jump\t// in\n    tag_719:\n        /* \"#utility.yul\":18073:18251   */\n      pop\n        /* \"#utility.yul\":18356:18360   */\n      0xc0\n        /* \"#utility.yul\":18349:18354   */\n      dup4\n        /* \"#utility.yul\":18345:18361   */\n      add\n        /* \"#utility.yul\":18339:18362   */\n      mload\n        /* \"#utility.yul\":18375:18438   */\n      tag_720\n        /* \"#utility.yul\":18432:18436   */\n      0xc0\n        /* \"#utility.yul\":18427:18430   */\n      dup7\n        /* \"#utility.yul\":18423:18437   */\n      add\n        /* \"#utility.yul\":18409:18421   */\n      dup3\n        /* \"#utility.yul\":18375:18438   */\n      tag_709\n      jump\t// in\n    tag_720:\n        /* \"#utility.yul\":18261:18448   */\n      pop\n        /* \"#utility.yul\":18543:18547   */\n      0xe0\n        /* \"#utility.yul\":18536:18541   */\n      dup4\n        /* \"#utility.yul\":18532:18548   */\n      add\n        /* \"#utility.yul\":18526:18549   */\n      mload\n        /* \"#utility.yul\":18562:18625   */\n      tag_721\n        /* \"#utility.yul\":18619:18623   */\n      0xe0\n        /* \"#utility.yul\":18614:18617   */\n      dup7\n        /* \"#utility.yul\":18610:18624   */\n      add\n        /* \"#utility.yul\":18596:18608   */\n      dup3\n        /* \"#utility.yul\":18562:18625   */\n      tag_709\n      jump\t// in\n    tag_721:\n        /* \"#utility.yul\":18458:18635   */\n      pop\n        /* \"#utility.yul\":18723:18729   */\n      0x0100\n        /* \"#utility.yul\":18716:18721   */\n      dup4\n        /* \"#utility.yul\":18712:18730   */\n      add\n        /* \"#utility.yul\":18706:18731   */\n      mload\n        /* \"#utility.yul\":18744:18821   */\n      tag_722\n        /* \"#utility.yul\":18813:18819   */\n      0x0100\n        /* \"#utility.yul\":18808:18811   */\n      dup7\n        /* \"#utility.yul\":18804:18820   */\n      add\n        /* \"#utility.yul\":18790:18802   */\n      dup3\n        /* \"#utility.yul\":18744:18821   */\n      tag_594\n      jump\t// in\n    tag_722:\n        /* \"#utility.yul\":18645:18831   */\n      pop\n        /* \"#utility.yul\":18848:18852   */\n      dup1\n        /* \"#utility.yul\":18841:18852   */\n      swap2\n      pop\n        /* \"#utility.yul\":17084:18858   */\n      pop\n        /* \"#utility.yul\":16974:18858   */\n      swap3\n      swap2\n      pop\n      pop\n      jump\t// out\n        /* \"#utility.yul\":18864:18969   */\n    tag_702:\n        /* \"#utility.yul\":18939:18962   */\n      tag_724\n        /* \"#utility.yul\":18956:18961   */\n      dup2\n        /* \"#utility.yul\":18939:18962   */\n      tag_725\n      jump\t// in\n    tag_724:\n        /* \"#utility.yul\":18934:18937   */\n      dup3\n        /* \"#utility.yul\":18927:18963   */\n      mstore\n        /* \"#utility.yul\":18864:18969   */\n      pop\n      pop\n      jump\t// out\n        /* \"#utility.yul\":18975:19090   */\n    tag_726:\n        /* \"#utility.yul\":19060:19083   */\n      tag_728\n        /* \"#utility.yul\":19077:19082   */\n      dup2\n        /* \"#utility.yul\":19060:19083   */\n      tag_725\n      jump\t// in\n    tag_728:\n        /* \"#utility.yul\":19055:19058   */\n      dup3\n        /* \"#utility.yul\":19048:19084   */\n      mstore\n        /* \"#utility.yul\":18975:19090   */\n      pop\n      pop\n      jump\t// out\n        /* \"#utility.yul\":19096:19204   */\n    tag_709:\n        /* \"#utility.yul\":19173:19197   */\n      tag_730\n        /* \"#utility.yul\":19191:19196   */\n      dup2\n        /* \"#utility.yul\":19173:19197   */\n      tag_731\n      jump\t// in\n    tag_730:\n        /* \"#utility.yul\":19168:19171   */\n      dup3\n        /* \"#utility.yul\":19161:19198   */\n      mstore\n        /* \"#utility.yul\":19096:19204   */\n      pop\n      pop\n      jump\t// out\n        /* \"#utility.yul\":19210:19328   */\n    tag_732:\n        /* \"#utility.yul\":19297:19321   */\n      tag_734\n        /* \"#utility.yul\":19315:19320   */\n      dup2\n        /* \"#utility.yul\":19297:19321   */\n      tag_731\n      jump\t// in\n    tag_734:\n        /* \"#utility.yul\":19292:19295   */\n      dup3\n        /* \"#utility.yul\":19285:19322   */\n      mstore\n        /* \"#utility.yul\":19210:19328   */\n      pop\n      pop\n      jump\t// out\n        /* \"#utility.yul\":19334:19439   */\n    tag_705:\n        /* \"#utility.yul\":19409:19432   */\n      tag_736\n        /* \"#utility.yul\":19426:19431   */\n      dup2\n        /* \"#utility.yul\":19409:19432   */\n      tag_737\n      jump\t// in\n    tag_736:\n        /* \"#utility.yul\":19404:19407   */\n      dup3\n        /* \"#utility.yul\":19397:19433   */\n      mstore\n        /* \"#utility.yul\":19334:19439   */\n      pop\n      pop\n      jump\t// out\n        /* \"#utility.yul\":19445:19560   */\n    tag_738:\n        /* \"#utility.yul\":19530:19553   */\n      tag_740\n        /* \"#utility.yul\":19547:19552   */\n      dup2\n        /* \"#utility.yul\":19530:19553   */\n      tag_737\n      jump\t// in\n    tag_740:\n        /* \"#utility.yul\":19525:19528   */\n      dup3\n        /* \"#utility.yul\":19518:19554   */\n      mstore\n        /* \"#utility.yul\":19445:19560   */\n      pop\n      pop\n      jump\t// out\n        /* \"#utility.yul\":19566:19678   */\n    tag_741:\n        /* \"#utility.yul\":19649:19671   */\n      tag_743\n        /* \"#utility.yul\":19665:19670   */\n      dup2\n        /* \"#utility.yul\":19649:19671   */\n      tag_744\n      jump\t// in\n    tag_743:\n        /* \"#utility.yul\":19644:19647   */\n      dup3\n        /* \"#utility.yul\":19637:19672   */\n      mstore\n        /* \"#utility.yul\":19566:19678   */\n      pop\n      pop\n      jump\t// out\n        /* \"#utility.yul\":19684:19906   */\n    tag_53:\n        /* \"#utility.yul\":19777:19781   */\n      0x00\n        /* \"#utility.yul\":19815:19817   */\n      0x20\n        /* \"#utility.yul\":19804:19813   */\n      dup3\n        /* \"#utility.yul\":19800:19818   */\n      add\n        /* \"#utility.yul\":19792:19818   */\n      swap1\n      pop\n        /* \"#utility.yul\":19828:19899   */\n      tag_746\n        /* \"#utility.yul\":19896:19897   */\n      0x00\n        /* \"#utility.yul\":19885:19894   */\n      dup4\n        /* \"#utility.yul\":19881:19898   */\n      add\n        /* \"#utility.yul\":19872:19878   */\n      dup5\n        /* \"#utility.yul\":19828:19899   */\n      tag_559\n      jump\t// in\n    tag_746:\n        /* \"#utility.yul\":19684:19906   */\n      swap3\n      swap2\n      pop\n      pop\n      jump\t// out\n        /* \"#utility.yul\":19912:20385   */\n    tag_49:\n        /* \"#utility.yul\":20105:20109   */\n      0x00\n        /* \"#utility.yul\":20143:20145   */\n      0x20\n        /* \"#utility.yul\":20132:20141   */\n      dup3\n        /* \"#utility.yul\":20128:20146   */\n      add\n        /* \"#utility.yul\":20120:20146   */\n      swap1\n      pop\n        /* \"#utility.yul\":20192:20201   */\n      dup2\n        /* \"#utility.yul\":20186:20190   */\n      dup2\n        /* \"#utility.yul\":20182:20202   */\n      sub\n        /* \"#utility.yul\":20178:20179   */\n      0x00\n        /* \"#utility.yul\":20167:20176   */\n      dup4\n        /* \"#utility.yul\":20163:20180   */\n      add\n        /* \"#utility.yul\":20156:20203   */\n      mstore\n        /* \"#utility.yul\":20220:20378   */\n      tag_748\n        /* \"#utility.yul\":20373:20377   */\n      dup2\n        /* \"#utility.yul\":20364:20370   */\n      dup5\n        /* \"#utility.yul\":20220:20378   */\n      tag_562\n      jump\t// in\n    tag_748:\n        /* \"#utility.yul\":20212:20378   */\n      swap1\n      pop\n        /* \"#utility.yul\":19912:20385   */\n      swap3\n      swap2\n      pop\n      pop\n      jump\t// out\n        /* \"#utility.yul\":20391:20856   */\n    tag_107:\n        /* \"#utility.yul\":20580:20584   */\n      0x00\n        /* \"#utility.yul\":20618:20620   */\n      0x20\n        /* \"#utility.yul\":20607:20616   */\n      dup3\n        /* \"#utility.yul\":20603:20621   */\n      add\n        /* \"#utility.yul\":20595:20621   */\n      swap1\n      pop\n        /* \"#utility.yul\":20667:20676   */\n      dup2\n        /* \"#utility.yul\":20661:20665   */\n      dup2\n        /* \"#utility.yul\":20657:20677   */\n      sub\n        /* \"#utility.yul\":20653:20654   */\n      0x00\n        /* \"#utility.yul\":20642:20651   */\n      dup4\n        /* \"#utility.yul\":20638:20655   */\n      add\n        /* \"#utility.yul\":20631:20678   */\n      mstore\n        /* \"#utility.yul\":20695:20849   */\n      tag_750\n        /* \"#utility.yul\":20844:20848   */\n      dup2\n        /* \"#utility.yul\":20835:20841   */\n      dup5\n        /* \"#utility.yul\":20695:20849   */\n      tag_576\n      jump\t// in\n    tag_750:\n        /* \"#utility.yul\":20687:20849   */\n      swap1\n      pop\n        /* \"#utility.yul\":20391:20856   */\n      swap3\n      swap2\n      pop\n      pop\n      jump\t// out\n        /* \"#utility.yul\":20862:21072   */\n    tag_31:\n        /* \"#utility.yul\":20949:20953   */\n      0x00\n        /* \"#utility.yul\":20987:20989   */\n      0x20\n        /* \"#utility.yul\":20976:20985   */\n      dup3\n        /* \"#utility.yul\":20972:20990   */\n      add\n        /* \"#utility.yul\":20964:20990   */\n      swap1\n      pop\n        /* \"#utility.yul\":21000:21065   */\n      tag_752\n        /* \"#utility.yul\":21062:21063   */\n      0x00\n        /* \"#utility.yul\":21051:21060   */\n      dup4\n        /* \"#utility.yul\":21047:21064   */\n      add\n        /* \"#utility.yul\":21038:21044   */\n      dup5\n        /* \"#utility.yul\":21000:21065   */\n      tag_590\n      jump\t// in\n    tag_752:\n        /* \"#utility.yul\":20862:21072   */\n      swap3\n      swap2\n      pop\n      pop\n      jump\t// out\n        /* \"#utility.yul\":21078:21385   */\n    tag_456:\n        /* \"#utility.yul\":21188:21192   */\n      0x00\n        /* \"#utility.yul\":21226:21228   */\n      0x20\n        /* \"#utility.yul\":21215:21224   */\n      dup3\n        /* \"#utility.yul\":21211:21229   */\n      add\n        /* \"#utility.yul\":21203:21229   */\n      swap1\n      pop\n        /* \"#utility.yul\":21275:21284   */\n      dup2\n        /* \"#utility.yul\":21269:21273   */\n      dup2\n        /* \"#utility.yul\":21265:21285   */\n      sub\n        /* \"#utility.yul\":21261:21262   */\n      0x00\n        /* \"#utility.yul\":21250:21259   */\n      dup4\n        /* \"#utility.yul\":21246:21263   */\n      add\n        /* \"#utility.yul\":21239:21286   */\n      mstore\n        /* \"#utility.yul\":21303:21378   */\n      tag_754\n        /* \"#utility.yul\":21373:21377   */\n      dup2\n        /* \"#utility.yul\":21364:21370   */\n      dup5\n        /* \"#utility.yul\":21303:21378   */\n      tag_618\n      jump\t// in\n    tag_754:\n        /* \"#utility.yul\":21295:21378   */\n      swap1\n      pop\n        /* \"#utility.yul\":21078:21385   */\n      swap3\n      swap2\n      pop\n      pop\n      jump\t// out\n        /* \"#utility.yul\":21391:21910   */\n    tag_423:\n        /* \"#utility.yul\":21553:21557   */\n      0x00\n        /* \"#utility.yul\":21591:21593   */\n      0x60\n        /* \"#utility.yul\":21580:21589   */\n      dup3\n        /* \"#utility.yul\":21576:21594   */\n      add\n        /* \"#utility.yul\":21568:21594   */\n      swap1\n      pop\n        /* \"#utility.yul\":21640:21649   */\n      dup2\n        /* \"#utility.yul\":21634:21638   */\n      dup2\n        /* \"#utility.yul\":21630:21650   */\n      sub\n        /* \"#utility.yul\":21626:21627   */\n      0x00\n        /* \"#utility.yul\":21615:21624   */\n      dup4\n        /* \"#utility.yul\":21611:21628   */\n      add\n        /* \"#utility.yul\":21604:21651   */\n      mstore\n        /* \"#utility.yul\":21668:21743   */\n      tag_756\n        /* \"#utility.yul\":21738:21742   */\n      dup2\n        /* \"#utility.yul\":21729:21735   */\n      dup7\n        /* \"#utility.yul\":21668:21743   */\n      tag_618\n      jump\t// in\n    tag_756:\n        /* \"#utility.yul\":21660:21743   */\n      swap1\n      pop\n        /* \"#utility.yul\":21753:21823   */\n      tag_757\n        /* \"#utility.yul\":21819:21821   */\n      0x20\n        /* \"#utility.yul\":21808:21817   */\n      dup4\n        /* \"#utility.yul\":21804:21822   */\n      add\n        /* \"#utility.yul\":21795:21801   */\n      dup6\n        /* \"#utility.yul\":21753:21823   */\n      tag_738\n      jump\t// in\n    tag_757:\n        /* \"#utility.yul\":21833:21903   */\n      tag_758\n        /* \"#utility.yul\":21899:21901   */\n      0x40\n        /* \"#utility.yul\":21888:21897   */\n      dup4\n        /* \"#utility.yul\":21884:21902   */\n      add\n        /* \"#utility.yul\":21875:21881   */\n      dup5\n        /* \"#utility.yul\":21833:21903   */\n      tag_738\n      jump\t// in\n    tag_758:\n        /* \"#utility.yul\":21391:21910   */\n      swap5\n      swap4\n      pop\n      pop\n      pop\n      pop\n      jump\t// out\n        /* \"#utility.yul\":21916:22335   */\n    tag_446:\n        /* \"#utility.yul\":22082:22086   */\n      0x00\n        /* \"#utility.yul\":22120:22122   */\n      0x20\n        /* \"#utility.yul\":22109:22118   */\n      dup3\n        /* \"#utility.yul\":22105:22123   */\n      add\n        /* \"#utility.yul\":22097:22123   */\n      swap1\n      pop\n        /* \"#utility.yul\":22169:22178   */\n      dup2\n        /* \"#utility.yul\":22163:22167   */\n      dup2\n        /* \"#utility.yul\":22159:22179   */\n      sub\n        /* \"#utility.yul\":22155:22156   */\n      0x00\n        /* \"#utility.yul\":22144:22153   */\n      dup4\n        /* \"#utility.yul\":22140:22157   */\n      add\n        /* \"#utility.yul\":22133:22180   */\n      mstore\n        /* \"#utility.yul\":22197:22328   */\n      tag_760\n        /* \"#utility.yul\":22323:22327   */\n      dup2\n        /* \"#utility.yul\":22197:22328   */\n      tag_630\n      jump\t// in\n    tag_760:\n        /* \"#utility.yul\":22189:22328   */\n      swap1\n      pop\n        /* \"#utility.yul\":21916:22335   */\n      swap2\n      swap1\n      pop\n      jump\t// out\n        /* \"#utility.yul\":22341:22760   */\n    tag_214:\n        /* \"#utility.yul\":22507:22511   */\n      0x00\n        /* \"#utility.yul\":22545:22547   */\n      0x20\n        /* \"#utility.yul\":22534:22543   */\n      dup3\n        /* \"#utility.yul\":22530:22548   */\n      add\n        /* \"#utility.yul\":22522:22548   */\n      swap1\n      pop\n        /* \"#utility.yul\":22594:22603   */\n      dup2\n        /* \"#utility.yul\":22588:22592   */\n      dup2\n        /* \"#utility.yul\":22584:22604   */\n      sub\n        /* \"#utility.yul\":22580:22581   */\n      0x00\n        /* \"#utility.yul\":22569:22578   */\n      dup4\n        /* \"#utility.yul\":22565:22582   */\n      add\n        /* \"#utility.yul\":22558:22605   */\n      mstore\n        /* \"#utility.yul\":22622:22753   */\n      tag_762\n        /* \"#utility.yul\":22748:22752   */\n      dup2\n        /* \"#utility.yul\":22622:22753   */\n      tag_635\n      jump\t// in\n    tag_762:\n        /* \"#utility.yul\":22614:22753   */\n      swap1\n      pop\n        /* \"#utility.yul\":22341:22760   */\n      swap2\n      swap1\n      pop\n      jump\t// out\n        /* \"#utility.yul\":22766:23185   */\n    tag_225:\n        /* \"#utility.yul\":22932:22936   */\n      0x00\n        /* \"#utility.yul\":22970:22972   */\n      0x20\n        /* \"#utility.yul\":22959:22968   */\n      dup3\n        /* \"#utility.yul\":22955:22973   */\n      add\n        /* \"#utility.yul\":22947:22973   */\n      swap1\n      pop\n        /* \"#utility.yul\":23019:23028   */\n      dup2\n        /* \"#utility.yul\":23013:23017   */\n      dup2\n        /* \"#utility.yul\":23009:23029   */\n      sub\n        /* \"#utility.yul\":23005:23006   */\n      0x00\n        /* \"#utility.yul\":22994:23003   */\n      dup4\n        /* \"#utility.yul\":22990:23007   */\n      add\n        /* \"#utility.yul\":22983:23030   */\n      mstore\n        /* \"#utility.yul\":23047:23178   */\n      tag_764\n        /* \"#utility.yul\":23173:23177   */\n      dup2\n        /* \"#utility.yul\":23047:23178   */\n      tag_640\n      jump\t// in\n    tag_764:\n        /* \"#utility.yul\":23039:23178   */\n      swap1\n      pop\n        /* \"#utility.yul\":22766:23185   */\n      swap2\n      swap1\n      pop\n      jump\t// out\n        /* \"#utility.yul\":23191:23610   */\n    tag_367:\n        /* \"#utility.yul\":23357:23361   */\n      0x00\n        /* \"#utility.yul\":23395:23397   */\n      0x20\n        /* \"#utility.yul\":23384:23393   */\n      dup3\n        /* \"#utility.yul\":23380:23398   */\n      add\n        /* \"#utility.yul\":23372:23398   */\n      swap1\n      pop\n        /* \"#utility.yul\":23444:23453   */\n      dup2\n        /* \"#utility.yul\":23438:23442   */\n      dup2\n        /* \"#utility.yul\":23434:23454   */\n      sub\n        /* \"#utility.yul\":23430:23431   */\n      0x00\n        /* \"#utility.yul\":23419:23428   */\n      dup4\n        /* \"#utility.yul\":23415:23432   */\n      add\n        /* \"#utility.yul\":23408:23455   */\n      mstore\n        /* \"#utility.yul\":23472:23603   */\n      tag_766\n        /* \"#utility.yul\":23598:23602   */\n      dup2\n        /* \"#utility.yul\":23472:23603   */\n      tag_645\n      jump\t// in\n    tag_766:\n        /* \"#utility.yul\":23464:23603   */\n      swap1\n      pop\n        /* \"#utility.yul\":23191:23610   */\n      swap2\n      swap1\n      pop\n      jump\t// out\n        /* \"#utility.yul\":23616:24035   */\n    tag_120:\n        /* \"#utility.yul\":23782:23786   */\n      0x00\n        /* \"#utility.yul\":23820:23822   */\n      0x20\n        /* \"#utility.yul\":23809:23818   */\n      dup3\n        /* \"#utility.yul\":23805:23823   */\n      add\n        /* \"#utility.yul\":23797:23823   */\n      swap1\n      pop\n        /* \"#utility.yul\":23869:23878   */\n      dup2\n        /* \"#utility.yul\":23863:23867   */\n      dup2\n        /* \"#utility.yul\":23859:23879   */\n      sub\n        /* \"#utility.yul\":23855:23856   */\n      0x00\n        /* \"#utility.yul\":23844:23853   */\n      dup4\n        /* \"#utility.yul\":23840:23857   */\n      add\n        /* \"#utility.yul\":23833:23880   */\n      mstore\n        /* \"#utility.yul\":23897:24028   */\n      tag_768\n        /* \"#utility.yul\":24023:24027   */\n      dup2\n        /* \"#utility.yul\":23897:24028   */\n      tag_650\n      jump\t// in\n    tag_768:\n        /* \"#utility.yul\":23889:24028   */\n      swap1\n      pop\n        /* \"#utility.yul\":23616:24035   */\n      swap2\n      swap1\n      pop\n      jump\t// out\n        /* \"#utility.yul\":24041:24460   */\n    tag_143:\n        /* \"#utility.yul\":24207:24211   */\n      0x00\n        /* \"#utility.yul\":24245:24247   */\n      0x20\n        /* \"#utility.yul\":24234:24243   */\n      dup3\n        /* \"#utility.yul\":24230:24248   */\n      add\n        /* \"#utility.yul\":24222:24248   */\n      swap1\n      pop\n        /* \"#utility.yul\":24294:24303   */\n      dup2\n        /* \"#utility.yul\":24288:24292   */\n      dup2\n        /* \"#utility.yul\":24284:24304   */\n      sub\n        /* \"#utility.yul\":24280:24281   */\n      0x00\n        /* \"#utility.yul\":24269:24278   */\n      dup4\n        /* \"#utility.yul\":24265:24282   */\n      add\n        /* \"#utility.yul\":24258:24305   */\n      mstore\n        /* \"#utility.yul\":24322:24453   */\n      tag_770\n        /* \"#utility.yul\":24448:24452   */\n      dup2\n        /* \"#utility.yul\":24322:24453   */\n      tag_655\n      jump\t// in\n    tag_770:\n        /* \"#utility.yul\":24314:24453   */\n      swap1\n      pop\n        /* \"#utility.yul\":24041:24460   */\n      swap2\n      swap1\n      pop\n      jump\t// out\n        /* \"#utility.yul\":24466:24885   */\n    tag_352:\n        /* \"#utility.yul\":24632:24636   */\n      0x00\n        /* \"#utility.yul\":24670:24672   */\n      0x20\n        /* \"#utility.yul\":24659:24668   */\n      dup3\n        /* \"#utility.yul\":24655:24673   */\n      add\n        /* \"#utility.yul\":24647:24673   */\n      swap1\n      pop\n        /* \"#utility.yul\":24719:24728   */\n      dup2\n        /* \"#utility.yul\":24713:24717   */\n      dup2\n        /* \"#utility.yul\":24709:24729   */\n      sub\n        /* \"#utility.yul\":24705:24706   */\n      0x00\n        /* \"#utility.yul\":24694:24703   */\n      dup4\n        /* \"#utility.yul\":24690:24707   */\n      add\n        /* \"#utility.yul\":24683:24730   */\n      mstore\n        /* \"#utility.yul\":24747:24878   */\n      tag_772\n        /* \"#utility.yul\":24873:24877   */\n      dup2\n        /* \"#utility.yul\":24747:24878   */\n      tag_660\n      jump\t// in\n    tag_772:\n        /* \"#utility.yul\":24739:24878   */\n      swap1\n      pop\n        /* \"#utility.yul\":24466:24885   */\n      swap2\n      swap1\n      pop\n      jump\t// out\n        /* \"#utility.yul\":24891:25310   */\n    tag_360:\n        /* \"#utility.yul\":25057:25061   */\n      0x00\n        /* \"#utility.yul\":25095:25097   */\n      0x20\n        /* \"#utility.yul\":25084:25093   */\n      dup3\n        /* \"#utility.yul\":25080:25098   */\n      add\n        /* \"#utility.yul\":25072:25098   */\n      swap1\n      pop\n        /* \"#utility.yul\":25144:25153   */\n      dup2\n        /* \"#utility.yul\":25138:25142   */\n      dup2\n        /* \"#utility.yul\":25134:25154   */\n      sub\n        /* \"#utility.yul\":25130:25131   */\n      0x00\n        /* \"#utility.yul\":25119:25128   */\n      dup4\n        /* \"#utility.yul\":25115:25132   */\n      add\n        /* \"#utility.yul\":25108:25155   */\n      mstore\n        /* \"#utility.yul\":25172:25303   */\n      tag_774\n        /* \"#utility.yul\":25298:25302   */\n      dup2\n        /* \"#utility.yul\":25172:25303   */\n      tag_665\n      jump\t// in\n    tag_774:\n        /* \"#utility.yul\":25164:25303   */\n      swap1\n      pop\n        /* \"#utility.yul\":24891:25310   */\n      swap2\n      swap1\n      pop\n      jump\t// out\n        /* \"#utility.yul\":25316:25735   */\n    tag_430:\n        /* \"#utility.yul\":25482:25486   */\n      0x00\n        /* \"#utility.yul\":25520:25522   */\n      0x20\n        /* \"#utility.yul\":25509:25518   */\n      dup3\n        /* \"#utility.yul\":25505:25523   */\n      add\n        /* \"#utility.yul\":25497:25523   */\n      swap1\n      pop\n        /* \"#utility.yul\":25569:25578   */\n      dup2\n        /* \"#utility.yul\":25563:25567   */\n      dup2\n        /* \"#utility.yul\":25559:25579   */\n      sub\n        /* \"#utility.yul\":25555:25556   */\n      0x00\n        /* \"#utility.yul\":25544:25553   */\n      dup4\n        /* \"#utility.yul\":25540:25557   */\n      add\n        /* \"#utility.yul\":25533:25580   */\n      mstore\n        /* \"#utility.yul\":25597:25728   */\n      tag_776\n        /* \"#utility.yul\":25723:25727   */\n      dup2\n        /* \"#utility.yul\":25597:25728   */\n      tag_670\n      jump\t// in\n    tag_776:\n        /* \"#utility.yul\":25589:25728   */\n      swap1\n      pop\n        /* \"#utility.yul\":25316:25735   */\n      swap2\n      swap1\n      pop\n      jump\t// out\n        /* \"#utility.yul\":25741:26160   */\n    tag_356:\n        /* \"#utility.yul\":25907:25911   */\n      0x00\n        /* \"#utility.yul\":25945:25947   */\n      0x20\n        /* \"#utility.yul\":25934:25943   */\n      dup3\n        /* \"#utility.yul\":25930:25948   */\n      add\n        /* \"#utility.yul\":25922:25948   */\n      swap1\n      pop\n        /* \"#utility.yul\":25994:26003   */\n      dup2\n        /* \"#utility.yul\":25988:25992   */\n      dup2\n        /* \"#utility.yul\":25984:26004   */\n      sub\n        /* \"#utility.yul\":25980:25981   */\n      0x00\n        /* \"#utility.yul\":25969:25978   */\n      dup4\n        /* \"#utility.yul\":25965:25982   */\n      add\n        /* \"#utility.yul\":25958:26005   */\n      mstore\n        /* \"#utility.yul\":26022:26153   */\n      tag_778\n        /* \"#utility.yul\":26148:26152   */\n      dup2\n        /* \"#utility.yul\":26022:26153   */\n      tag_675\n      jump\t// in\n    tag_778:\n        /* \"#utility.yul\":26014:26153   */\n      swap1\n      pop\n        /* \"#utility.yul\":25741:26160   */\n      swap2\n      swap1\n      pop\n      jump\t// out\n        /* \"#utility.yul\":26166:26585   */\n    tag_217:\n        /* \"#utility.yul\":26332:26336   */\n      0x00\n        /* \"#utility.yul\":26370:26372   */\n      0x20\n        /* \"#utility.yul\":26359:26368   */\n      dup3\n        /* \"#utility.yul\":26355:26373   */\n      add\n        /* \"#utility.yul\":26347:26373   */\n      swap1\n      pop\n        /* \"#utility.yul\":26419:26428   */\n      dup2\n        /* \"#utility.yul\":26413:26417   */\n      dup2\n        /* \"#utility.yul\":26409:26429   */\n      sub\n        /* \"#utility.yul\":26405:26406   */\n      0x00\n        /* \"#utility.yul\":26394:26403   */\n      dup4\n        /* \"#utility.yul\":26390:26407   */\n      add\n        /* \"#utility.yul\":26383:26430   */\n      mstore\n        /* \"#utility.yul\":26447:26578   */\n      tag_780\n        /* \"#utility.yul\":26573:26577   */\n      dup2\n        /* \"#utility.yul\":26447:26578   */\n      tag_680\n      jump\t// in\n    tag_780:\n        /* \"#utility.yul\":26439:26578   */\n      swap1\n      pop\n        /* \"#utility.yul\":26166:26585   */\n      swap2\n      swap1\n      pop\n      jump\t// out\n        /* \"#utility.yul\":26591:27010   */\n    tag_252:\n        /* \"#utility.yul\":26757:26761   */\n      0x00\n        /* \"#utility.yul\":26795:26797   */\n      0x20\n        /* \"#utility.yul\":26784:26793   */\n      dup3\n        /* \"#utility.yul\":26780:26798   */\n      add\n        /* \"#utility.yul\":26772:26798   */\n      swap1\n      pop\n        /* \"#utility.yul\":26844:26853   */\n      dup2\n        /* \"#utility.yul\":26838:26842   */\n      dup2\n        /* \"#utility.yul\":26834:26854   */\n      sub\n        /* \"#utility.yul\":26830:26831   */\n      0x00\n        /* \"#utility.yul\":26819:26828   */\n      dup4\n        /* \"#utility.yul\":26815:26832   */\n      add\n        /* \"#utility.yul\":26808:26855   */\n      mstore\n        /* \"#utility.yul\":26872:27003   */\n      tag_782\n        /* \"#utility.yul\":26998:27002   */\n      dup2\n        /* \"#utility.yul\":26872:27003   */\n      tag_685\n      jump\t// in\n    tag_782:\n        /* \"#utility.yul\":26864:27003   */\n      swap1\n      pop\n        /* \"#utility.yul\":26591:27010   */\n      swap2\n      swap1\n      pop\n      jump\t// out\n        /* \"#utility.yul\":27016:27435   */\n    tag_124:\n        /* \"#utility.yul\":27182:27186   */\n      0x00\n        /* \"#utility.yul\":27220:27222   */\n      0x20\n        /* \"#utility.yul\":27209:27218   */\n      dup3\n        /* \"#utility.yul\":27205:27223   */\n      add\n        /* \"#utility.yul\":27197:27223   */\n      swap1\n      pop\n        /* \"#utility.yul\":27269:27278   */\n      dup2\n        /* \"#utility.yul\":27263:27267   */\n      dup2\n        /* \"#utility.yul\":27259:27279   */\n      sub\n        /* \"#utility.yul\":27255:27256   */\n      0x00\n        /* \"#utility.yul\":27244:27253   */\n      dup4\n        /* \"#utility.yul\":27240:27257   */\n      add\n        /* \"#utility.yul\":27233:27280   */\n      mstore\n        /* \"#utility.yul\":27297:27428   */\n      tag_784\n        /* \"#utility.yul\":27423:27427   */\n      dup2\n        /* \"#utility.yul\":27297:27428   */\n      tag_690\n      jump\t// in\n    tag_784:\n        /* \"#utility.yul\":27289:27428   */\n      swap1\n      pop\n        /* \"#utility.yul\":27016:27435   */\n      swap2\n      swap1\n      pop\n      jump\t// out\n        /* \"#utility.yul\":27441:27860   */\n    tag_128:\n        /* \"#utility.yul\":27607:27611   */\n      0x00\n        /* \"#utility.yul\":27645:27647   */\n      0x20\n        /* \"#utility.yul\":27634:27643   */\n      dup3\n        /* \"#utility.yul\":27630:27648   */\n      add\n        /* \"#utility.yul\":27622:27648   */\n      swap1\n      pop\n        /* \"#utility.yul\":27694:27703   */\n      dup2\n        /* \"#utility.yul\":27688:27692   */\n      dup2\n        /* \"#utility.yul\":27684:27704   */\n      sub\n        /* \"#utility.yul\":27680:27681   */\n      0x00\n        /* \"#utility.yul\":27669:27678   */\n      dup4\n        /* \"#utility.yul\":27665:27682   */\n      add\n        /* \"#utility.yul\":27658:27705   */\n      mstore\n        /* \"#utility.yul\":27722:27853   */\n      tag_786\n        /* \"#utility.yul\":27848:27852   */\n      dup2\n        /* \"#utility.yul\":27722:27853   */\n      tag_695\n      jump\t// in\n    tag_786:\n        /* \"#utility.yul\":27714:27853   */\n      swap1\n      pop\n        /* \"#utility.yul\":27441:27860   */\n      swap2\n      swap1\n      pop\n      jump\t// out\n        /* \"#utility.yul\":27866:28084   */\n    tag_43:\n        /* \"#utility.yul\":27957:27961   */\n      0x00\n        /* \"#utility.yul\":27995:27997   */\n      0x20\n        /* \"#utility.yul\":27984:27993   */\n      dup3\n        /* \"#utility.yul\":27980:27998   */\n      add\n        /* \"#utility.yul\":27972:27998   */\n      swap1\n      pop\n        /* \"#utility.yul\":28008:28077   */\n      tag_788\n        /* \"#utility.yul\":28074:28075   */\n      0x00\n        /* \"#utility.yul\":28063:28072   */\n      dup4\n        /* \"#utility.yul\":28059:28076   */\n      add\n        /* \"#utility.yul\":28050:28056   */\n      dup5\n        /* \"#utility.yul\":28008:28077   */\n      tag_726\n      jump\t// in\n    tag_788:\n        /* \"#utility.yul\":27866:28084   */\n      swap3\n      swap2\n      pop\n      pop\n      jump\t// out\n        /* \"#utility.yul\":28090:29301   */\n    tag_81:\n        /* \"#utility.yul\":28433:28437   */\n      0x00\n        /* \"#utility.yul\":28471:28474   */\n      0x0120\n        /* \"#utility.yul\":28460:28469   */\n      dup3\n        /* \"#utility.yul\":28456:28475   */\n      add\n        /* \"#utility.yul\":28448:28475   */\n      swap1\n      pop\n        /* \"#utility.yul\":28485:28554   */\n      tag_790\n        /* \"#utility.yul\":28551:28552   */\n      0x00\n        /* \"#utility.yul\":28540:28549   */\n      dup4\n        /* \"#utility.yul\":28536:28553   */\n      add\n        /* \"#utility.yul\":28527:28533   */\n      dup13\n        /* \"#utility.yul\":28485:28554   */\n      tag_726\n      jump\t// in\n    tag_790:\n        /* \"#utility.yul\":28601:28610   */\n      dup2\n        /* \"#utility.yul\":28595:28599   */\n      dup2\n        /* \"#utility.yul\":28591:28611   */\n      sub\n        /* \"#utility.yul\":28586:28588   */\n      0x20\n        /* \"#utility.yul\":28575:28584   */\n      dup4\n        /* \"#utility.yul\":28571:28589   */\n      add\n        /* \"#utility.yul\":28564:28612   */\n      mstore\n        /* \"#utility.yul\":28629:28707   */\n      tag_791\n        /* \"#utility.yul\":28702:28706   */\n      dup2\n        /* \"#utility.yul\":28693:28699   */\n      dup12\n        /* \"#utility.yul\":28629:28707   */\n      tag_611\n      jump\t// in\n    tag_791:\n        /* \"#utility.yul\":28621:28707   */\n      swap1\n      pop\n        /* \"#utility.yul\":28717:28787   */\n      tag_792\n        /* \"#utility.yul\":28783:28785   */\n      0x40\n        /* \"#utility.yul\":28772:28781   */\n      dup4\n        /* \"#utility.yul\":28768:28786   */\n      add\n        /* \"#utility.yul\":28759:28765   */\n      dup11\n        /* \"#utility.yul\":28717:28787   */\n      tag_738\n      jump\t// in\n    tag_792:\n        /* \"#utility.yul\":28797:28867   */\n      tag_793\n        /* \"#utility.yul\":28863:28865   */\n      0x60\n        /* \"#utility.yul\":28852:28861   */\n      dup4\n        /* \"#utility.yul\":28848:28866   */\n      add\n        /* \"#utility.yul\":28839:28845   */\n      dup10\n        /* \"#utility.yul\":28797:28867   */\n      tag_738\n      jump\t// in\n    tag_793:\n        /* \"#utility.yul\":28877:28950   */\n      tag_794\n        /* \"#utility.yul\":28945:28948   */\n      0x80\n        /* \"#utility.yul\":28934:28943   */\n      dup4\n        /* \"#utility.yul\":28930:28949   */\n      add\n        /* \"#utility.yul\":28921:28927   */\n      dup9\n        /* \"#utility.yul\":28877:28950   */\n      tag_559\n      jump\t// in\n    tag_794:\n        /* \"#utility.yul\":28960:29033   */\n      tag_795\n        /* \"#utility.yul\":29028:29031   */\n      0xa0\n        /* \"#utility.yul\":29017:29026   */\n      dup4\n        /* \"#utility.yul\":29013:29032   */\n      add\n        /* \"#utility.yul\":29004:29010   */\n      dup8\n        /* \"#utility.yul\":28960:29033   */\n      tag_732\n      jump\t// in\n    tag_795:\n        /* \"#utility.yul\":29043:29116   */\n      tag_796\n        /* \"#utility.yul\":29111:29114   */\n      0xc0\n        /* \"#utility.yul\":29100:29109   */\n      dup4\n        /* \"#utility.yul\":29096:29115   */\n      add\n        /* \"#utility.yul\":29087:29093   */\n      dup7\n        /* \"#utility.yul\":29043:29116   */\n      tag_732\n      jump\t// in\n    tag_796:\n        /* \"#utility.yul\":29126:29199   */\n      tag_797\n        /* \"#utility.yul\":29194:29197   */\n      0xe0\n        /* \"#utility.yul\":29183:29192   */\n      dup4\n        /* \"#utility.yul\":29179:29198   */\n      add\n        /* \"#utility.yul\":29170:29176   */\n      dup6\n        /* \"#utility.yul\":29126:29199   */\n      tag_732\n      jump\t// in\n    tag_797:\n        /* \"#utility.yul\":29209:29294   */\n      tag_798\n        /* \"#utility.yul\":29289:29292   */\n      0x0100\n        /* \"#utility.yul\":29278:29287   */\n      dup4\n        /* \"#utility.yul\":29274:29293   */\n      add\n        /* \"#utility.yul\":29265:29271   */\n      dup5\n        /* \"#utility.yul\":29209:29294   */\n      tag_598\n      jump\t// in\n    tag_798:\n        /* \"#utility.yul\":28090:29301   */\n      swap11\n      swap10\n      pop\n      pop\n      pop\n      pop\n      pop\n      pop\n      pop\n      pop\n      pop\n      pop\n      jump\t// out\n        /* \"#utility.yul\":29307:29521   */\n    tag_88:\n        /* \"#utility.yul\":29396:29400   */\n      0x00\n        /* \"#utility.yul\":29434:29436   */\n      0x20\n        /* \"#utility.yul\":29423:29432   */\n      dup3\n        /* \"#utility.yul\":29419:29437   */\n      add\n        /* \"#utility.yul\":29411:29437   */\n      swap1\n      pop\n        /* \"#utility.yul\":29447:29514   */\n      tag_800\n        /* \"#utility.yul\":29511:29512   */\n      0x00\n        /* \"#utility.yul\":29500:29509   */\n      dup4\n        /* \"#utility.yul\":29496:29513   */\n      add\n        /* \"#utility.yul\":29487:29493   */\n      dup5\n        /* \"#utility.yul\":29447:29514   */\n      tag_741\n      jump\t// in\n    tag_800:\n        /* \"#utility.yul\":29307:29521   */\n      swap3\n      swap2\n      pop\n      pop\n      jump\t// out\n        /* \"#utility.yul\":29608:29765   */\n    tag_569:\n        /* \"#utility.yul\":29700:29704   */\n      0x00\n        /* \"#utility.yul\":29723:29726   */\n      dup2\n        /* \"#utility.yul\":29715:29726   */\n      swap1\n      pop\n        /* \"#utility.yul\":29753:29757   */\n      0x20\n        /* \"#utility.yul\":29748:29751   */\n      dup3\n        /* \"#utility.yul\":29744:29758   */\n      add\n        /* \"#utility.yul\":29736:29758   */\n      swap1\n      pop\n        /* \"#utility.yul\":29608:29765   */\n      swap2\n      swap1\n      pop\n      jump\t// out\n        /* \"#utility.yul\":29771:29926   */\n    tag_583:\n        /* \"#utility.yul\":29861:29865   */\n      0x00\n        /* \"#utility.yul\":29884:29887   */\n      dup2\n        /* \"#utility.yul\":29876:29887   */\n      swap1\n      pop\n        /* \"#utility.yul\":29914:29918   */\n      0x20\n        /* \"#utility.yul\":29909:29912   */\n      dup3\n        /* \"#utility.yul\":29905:29919   */\n      add\n        /* \"#utility.yul\":29897:29919   */\n      swap1\n      pop\n        /* \"#utility.yul\":29771:29926   */\n      swap2\n      swap1\n      pop\n      jump\t// out\n        /* \"#utility.yul\":29932:30073   */\n    tag_626:\n        /* \"#utility.yul\":29981:29985   */\n      0x00\n        /* \"#utility.yul\":30004:30007   */\n      dup2\n        /* \"#utility.yul\":29996:30007   */\n      swap1\n      pop\n        /* \"#utility.yul\":30027:30030   */\n      dup2\n        /* \"#utility.yul\":30024:30025   */\n      0x00\n        /* \"#utility.yul\":30017:30031   */\n      mstore\n        /* \"#utility.yul\":30061:30065   */\n      0x20\n        /* \"#utility.yul\":30058:30059   */\n      0x00\n        /* \"#utility.yul\":30048:30066   */\n      keccak256\n        /* \"#utility.yul\":30040:30066   */\n      swap1\n      pop\n        /* \"#utility.yul\":29932:30073   */\n      swap2\n      swap1\n      pop\n      jump\t// out\n        /* \"#utility.yul\":30079:30218   */\n    tag_565:\n        /* \"#utility.yul\":30171:30177   */\n      0x00\n        /* \"#utility.yul\":30205:30210   */\n      dup2\n        /* \"#utility.yul\":30199:30211   */\n      mload\n        /* \"#utility.yul\":30189:30211   */\n      swap1\n      pop\n        /* \"#utility.yul\":30079:30218   */\n      swap2\n      swap1\n      pop\n      jump\t// out\n        /* \"#utility.yul\":30224:30361   */\n    tag_579:\n        /* \"#utility.yul\":30314:30320   */\n      0x00\n        /* \"#utility.yul\":30348:30353   */\n      dup2\n        /* \"#utility.yul\":30342:30354   */\n      mload\n        /* \"#utility.yul\":30332:30354   */\n      swap1\n      pop\n        /* \"#utility.yul\":30224:30361   */\n      swap2\n      swap1\n      pop\n      jump\t// out\n        /* \"#utility.yul\":30367:30466   */\n    tag_604:\n        /* \"#utility.yul\":30419:30425   */\n      0x00\n        /* \"#utility.yul\":30453:30458   */\n      dup2\n        /* \"#utility.yul\":30447:30459   */\n      mload\n        /* \"#utility.yul\":30437:30459   */\n      swap1\n      pop\n        /* \"#utility.yul\":30367:30466   */\n      swap2\n      swap1\n      pop\n      jump\t// out\n        /* \"#utility.yul\":30472:30610   */\n    tag_575:\n        /* \"#utility.yul\":30567:30571   */\n      0x00\n        /* \"#utility.yul\":30599:30603   */\n      0x20\n        /* \"#utility.yul\":30594:30597   */\n      dup3\n        /* \"#utility.yul\":30590:30604   */\n      add\n        /* \"#utility.yul\":30582:30604   */\n      swap1\n      pop\n        /* \"#utility.yul\":30472:30610   */\n      swap2\n      swap1\n      pop\n      jump\t// out\n        /* \"#utility.yul\":30616:30752   */\n    tag_589:\n        /* \"#utility.yul\":30709:30713   */\n      0x00\n        /* \"#utility.yul\":30741:30745   */\n      0x20\n        /* \"#utility.yul\":30736:30739   */\n      dup3\n        /* \"#utility.yul\":30732:30746   */\n      add\n        /* \"#utility.yul\":30724:30746   */\n      swap1\n      pop\n        /* \"#utility.yul\":30616:30752   */\n      swap2\n      swap1\n      pop\n      jump\t// out\n        /* \"#utility.yul\":30758:30967   */\n    tag_567:\n        /* \"#utility.yul\":30882:30893   */\n      0x00\n        /* \"#utility.yul\":30916:30922   */\n      dup3\n        /* \"#utility.yul\":30911:30914   */\n      dup3\n        /* \"#utility.yul\":30904:30923   */\n      mstore\n        /* \"#utility.yul\":30956:30960   */\n      0x20\n        /* \"#utility.yul\":30951:30954   */\n      dup3\n        /* \"#utility.yul\":30947:30961   */\n      add\n        /* \"#utility.yul\":30932:30961   */\n      swap1\n      pop\n        /* \"#utility.yul\":30758:30967   */\n      swap3\n      swap2\n      pop\n      pop\n      jump\t// out\n        /* \"#utility.yul\":30973:31180   */\n    tag_581:\n        /* \"#utility.yul\":31095:31106   */\n      0x00\n        /* \"#utility.yul\":31129:31135   */\n      dup3\n        /* \"#utility.yul\":31124:31127   */\n      dup3\n        /* \"#utility.yul\":31117:31136   */\n      mstore\n        /* \"#utility.yul\":31169:31173   */\n      0x20\n        /* \"#utility.yul\":31164:31167   */\n      dup3\n        /* \"#utility.yul\":31160:31174   */\n      add\n        /* \"#utility.yul\":31145:31174   */\n      swap1\n      pop\n        /* \"#utility.yul\":30973:31180   */\n      swap3\n      swap2\n      pop\n      pop\n      jump\t// out\n        /* \"#utility.yul\":31186:31345   */\n    tag_606:\n        /* \"#utility.yul\":31260:31271   */\n      0x00\n        /* \"#utility.yul\":31294:31300   */\n      dup3\n        /* \"#utility.yul\":31289:31292   */\n      dup3\n        /* \"#utility.yul\":31282:31301   */\n      mstore\n        /* \"#utility.yul\":31334:31338   */\n      0x20\n        /* \"#utility.yul\":31329:31332   */\n      dup3\n        /* \"#utility.yul\":31325:31339   */\n      add\n        /* \"#utility.yul\":31310:31339   */\n      swap1\n      pop\n        /* \"#utility.yul\":31186:31345   */\n      swap3\n      swap2\n      pop\n      pop\n      jump\t// out\n        /* \"#utility.yul\":31351:31520   */\n    tag_615:\n        /* \"#utility.yul\":31435:31446   */\n      0x00\n        /* \"#utility.yul\":31469:31475   */\n      dup3\n        /* \"#utility.yul\":31464:31467   */\n      dup3\n        /* \"#utility.yul\":31457:31476   */\n      mstore\n        /* \"#utility.yul\":31509:31513   */\n      0x20\n        /* \"#utility.yul\":31504:31507   */\n      dup3\n        /* \"#utility.yul\":31500:31514   */\n      add\n        /* \"#utility.yul\":31485:31514   */\n      swap1\n      pop\n        /* \"#utility.yul\":31351:31520   */\n      swap3\n      swap2\n      pop\n      pop\n      jump\t// out\n        /* \"#utility.yul\":31526:31768   */\n    tag_151:\n        /* \"#utility.yul\":31565:31568   */\n      0x00\n        /* \"#utility.yul\":31584:31603   */\n      tag_816\n        /* \"#utility.yul\":31601:31602   */\n      dup3\n        /* \"#utility.yul\":31584:31603   */\n      tag_725\n      jump\t// in\n    tag_816:\n        /* \"#utility.yul\":31579:31603   */\n      swap2\n      pop\n        /* \"#utility.yul\":31617:31636   */\n      tag_817\n        /* \"#utility.yul\":31634:31635   */\n      dup4\n        /* \"#utility.yul\":31617:31636   */\n      tag_725\n      jump\t// in\n    tag_817:\n        /* \"#utility.yul\":31612:31636   */\n      swap3\n      pop\n        /* \"#utility.yul\":31710:31711   */\n      dup3\n        /* \"#utility.yul\":31702:31708   */\n      0xffff\n        /* \"#utility.yul\":31698:31712   */\n      sub\n        /* \"#utility.yul\":31695:31696   */\n      dup3\n        /* \"#utility.yul\":31692:31713   */\n      gt\n        /* \"#utility.yul\":31689:31736   */\n      iszero\n      tag_818\n      jumpi\n        /* \"#utility.yul\":31716:31734   */\n      tag_819\n      tag_820\n      jump\t// in\n    tag_819:\n        /* \"#utility.yul\":31689:31736   */\n    tag_818:\n        /* \"#utility.yul\":31760:31761   */\n      dup3\n        /* \"#utility.yul\":31757:31758   */\n      dup3\n        /* \"#utility.yul\":31753:31762   */\n      add\n        /* \"#utility.yul\":31746:31762   */\n      swap1\n      pop\n        /* \"#utility.yul\":31526:31768   */\n      swap3\n      swap2\n      pop\n      pop\n      jump\t// out\n        /* \"#utility.yul\":31774:32079   */\n    tag_147:\n        /* \"#utility.yul\":31814:31817   */\n      0x00\n        /* \"#utility.yul\":31833:31853   */\n      tag_822\n        /* \"#utility.yul\":31851:31852   */\n      dup3\n        /* \"#utility.yul\":31833:31853   */\n      tag_731\n      jump\t// in\n    tag_822:\n        /* \"#utility.yul\":31828:31853   */\n      swap2\n      pop\n        /* \"#utility.yul\":31867:31887   */\n      tag_823\n        /* \"#utility.yul\":31885:31886   */\n      dup4\n        /* \"#utility.yul\":31867:31887   */\n      tag_731\n      jump\t// in\n    tag_823:\n        /* \"#utility.yul\":31862:31887   */\n      swap3\n      pop\n        /* \"#utility.yul\":32021:32022   */\n      dup3\n        /* \"#utility.yul\":31953:32019   */\n      0xffffffffffffffffffffffffffffffffffffffffffffffffffffffffffffffff\n        /* \"#utility.yul\":31949:32023   */\n      sub\n        /* \"#utility.yul\":31946:31947   */\n      dup3\n        /* \"#utility.yul\":31943:32024   */\n      gt\n        /* \"#utility.yul\":31940:32047   */\n      iszero\n      tag_824\n      jumpi\n        /* \"#utility.yul\":32027:32045   */\n      tag_825\n      tag_820\n      jump\t// in\n    tag_825:\n        /* \"#utility.yul\":31940:32047   */\n    tag_824:\n        /* \"#utility.yul\":32071:32072   */\n      dup3\n        /* \"#utility.yul\":32068:32069   */\n      dup3\n        /* \"#utility.yul\":32064:32073   */\n      add\n        /* \"#utility.yul\":32057:32073   */\n      swap1\n      pop\n        /* \"#utility.yul\":31774:32079   */\n      swap3\n      swap2\n      pop\n      pop\n      jump\t// out\n        /* \"#utility.yul\":32085:32331   */\n    tag_232:\n        /* \"#utility.yul\":32124:32127   */\n      0x00\n        /* \"#utility.yul\":32143:32162   */\n      tag_827\n        /* \"#utility.yul\":32160:32161   */\n      dup3\n        /* \"#utility.yul\":32143:32162   */\n      tag_737\n      jump\t// in\n    tag_827:\n        /* \"#utility.yul\":32138:32162   */\n      swap2\n      pop\n        /* \"#utility.yul\":32176:32195   */\n      tag_828\n        /* \"#utility.yul\":32193:32194   */\n      dup4\n        /* \"#utility.yul\":32176:32195   */\n      tag_737\n      jump\t// in\n    tag_828:\n        /* \"#utility.yul\":32171:32195   */\n      swap3\n      pop\n        /* \"#utility.yul\":32273:32274   */\n      dup3\n        /* \"#utility.yul\":32261:32271   */\n      0xffffffff\n        /* \"#utility.yul\":32257:32275   */\n      sub\n        /* \"#utility.yul\":32254:32255   */\n      dup3\n        /* \"#utility.yul\":32251:32276   */\n      gt\n        /* \"#utility.yul\":32248:32299   */\n      iszero\n      tag_829\n      jumpi\n        /* \"#utility.yul\":32279:32297   */\n      tag_830\n      tag_820\n      jump\t// in\n    tag_830:\n        /* \"#utility.yul\":32248:32299   */\n    tag_829:\n        /* \"#utility.yul\":32323:32324   */\n      dup3\n        /* \"#utility.yul\":32320:32321   */\n      dup3\n        /* \"#utility.yul\":32316:32325   */\n      add\n        /* \"#utility.yul\":32309:32325   */\n      swap1\n      pop\n        /* \"#utility.yul\":32085:32331   */\n      swap3\n      swap2\n      pop\n      pop\n      jump\t// out\n        /* \"#utility.yul\":32337:32574   */\n    tag_379:\n        /* \"#utility.yul\":32375:32378   */\n      0x00\n        /* \"#utility.yul\":32394:32412   */\n      tag_832\n        /* \"#utility.yul\":32410:32411   */\n      dup3\n        /* \"#utility.yul\":32394:32412   */\n      tag_744\n      jump\t// in\n    tag_832:\n        /* \"#utility.yul\":32389:32412   */\n      swap2\n      pop\n        /* \"#utility.yul\":32426:32444   */\n      tag_833\n        /* \"#utility.yul\":32442:32443   */\n      dup4\n        /* \"#utility.yul\":32426:32444   */\n      tag_744\n      jump\t// in\n    tag_833:\n        /* \"#utility.yul\":32421:32444   */\n      swap3\n      pop\n        /* \"#utility.yul\":32516:32517   */\n      dup3\n        /* \"#utility.yul\":32510:32514   */\n      0xff\n        /* \"#utility.yul\":32506:32518   */\n      sub\n        /* \"#utility.yul\":32503:32504   */\n      dup3\n        /* \"#utility.yul\":32500:32519   */\n      gt\n        /* \"#utility.yul\":32497:32542   */\n      iszero\n      tag_834\n      jumpi\n        /* \"#utility.yul\":32522:32540   */\n      tag_835\n      tag_820\n      jump\t// in\n    tag_835:\n        /* \"#utility.yul\":32497:32542   */\n    tag_834:\n        /* \"#utility.yul\":32566:32567   */\n      dup3\n        /* \"#utility.yul\":32563:32564   */\n      dup3\n        /* \"#utility.yul\":32559:32568   */\n      add\n        /* \"#utility.yul\":32552:32568   */\n      swap1\n      pop\n        /* \"#utility.yul\":32337:32574   */\n      swap3\n      swap2\n      pop\n      pop\n      jump\t// out\n        /* \"#utility.yul\":32580:32768   */\n    tag_168:\n        /* \"#utility.yul\":32619:32623   */\n      0x00\n        /* \"#utility.yul\":32639:32658   */\n      tag_837\n        /* \"#utility.yul\":32656:32657   */\n      dup3\n        /* \"#utility.yul\":32639:32658   */\n      tag_725\n      jump\t// in\n    tag_837:\n        /* \"#utility.yul\":32634:32658   */\n      swap2\n      pop\n        /* \"#utility.yul\":32672:32691   */\n      tag_838\n        /* \"#utility.yul\":32689:32690   */\n      dup4\n        /* \"#utility.yul\":32672:32691   */\n      tag_725\n      jump\t// in\n    tag_838:\n        /* \"#utility.yul\":32667:32691   */\n      swap3\n      pop\n        /* \"#utility.yul\":32710:32711   */\n      dup3\n        /* \"#utility.yul\":32707:32708   */\n      dup3\n        /* \"#utility.yul\":32704:32712   */\n      lt\n        /* \"#utility.yul\":32701:32735   */\n      iszero\n      tag_839\n      jumpi\n        /* \"#utility.yul\":32715:32733   */\n      tag_840\n      tag_820\n      jump\t// in\n    tag_840:\n        /* \"#utility.yul\":32701:32735   */\n    tag_839:\n        /* \"#utility.yul\":32760:32761   */\n      dup3\n        /* \"#utility.yul\":32757:32758   */\n      dup3\n        /* \"#utility.yul\":32753:32762   */\n      sub\n        /* \"#utility.yul\":32745:32762   */\n      swap1\n      pop\n        /* \"#utility.yul\":32580:32768   */\n      swap3\n      swap2\n      pop\n      pop\n      jump\t// out\n        /* \"#utility.yul\":32774:32959   */\n    tag_396:\n        /* \"#utility.yul\":32812:32816   */\n      0x00\n        /* \"#utility.yul\":32832:32850   */\n      tag_842\n        /* \"#utility.yul\":32848:32849   */\n      dup3\n        /* \"#utility.yul\":32832:32850   */\n      tag_744\n      jump\t// in\n    tag_842:\n        /* \"#utility.yul\":32827:32850   */\n      swap2\n      pop\n        /* \"#utility.yul\":32864:32882   */\n      tag_843\n        /* \"#utility.yul\":32880:32881   */\n      dup4\n        /* \"#utility.yul\":32864:32882   */\n      tag_744\n      jump\t// in\n    tag_843:\n        /* \"#utility.yul\":32859:32882   */\n      swap3\n      pop\n        /* \"#utility.yul\":32901:32902   */\n      dup3\n        /* \"#utility.yul\":32898:32899   */\n      dup3\n        /* \"#utility.yul\":32895:32903   */\n      lt\n        /* \"#utility.yul\":32892:32926   */\n      iszero\n      tag_844\n      jumpi\n        /* \"#utility.yul\":32906:32924   */\n      tag_845\n      tag_820\n      jump\t// in\n    tag_845:\n        /* \"#utility.yul\":32892:32926   */\n    tag_844:\n        /* \"#utility.yul\":32951:32952   */\n      dup3\n        /* \"#utility.yul\":32948:32949   */\n      dup3\n        /* \"#utility.yul\":32944:32953   */\n      sub\n        /* \"#utility.yul\":32936:32953   */\n      swap1\n      pop\n        /* \"#utility.yul\":32774:32959   */\n      swap3\n      swap2\n      pop\n      pop\n      jump\t// out\n        /* \"#utility.yul\":32965:33061   */\n    tag_558:\n        /* \"#utility.yul\":33002:33009   */\n      0x00\n        /* \"#utility.yul\":33031:33055   */\n      tag_847\n        /* \"#utility.yul\":33049:33054   */\n      dup3\n        /* \"#utility.yul\":33031:33055   */\n      tag_848\n      jump\t// in\n    tag_847:\n        /* \"#utility.yul\":33020:33055   */\n      swap1\n      pop\n        /* \"#utility.yul\":32965:33061   */\n      swap2\n      swap1\n      pop\n      jump\t// out\n        /* \"#utility.yul\":33067:33157   */\n    tag_593:\n        /* \"#utility.yul\":33101:33108   */\n      0x00\n        /* \"#utility.yul\":33144:33149   */\n      dup2\n        /* \"#utility.yul\":33137:33150   */\n      iszero\n        /* \"#utility.yul\":33130:33151   */\n      iszero\n        /* \"#utility.yul\":33119:33151   */\n      swap1\n      pop\n        /* \"#utility.yul\":33067:33157   */\n      swap2\n      swap1\n      pop\n      jump\t// out\n        /* \"#utility.yul\":33163:33302   */\n    tag_850:\n        /* \"#utility.yul\":33214:33221   */\n      0x00\n        /* \"#utility.yul\":33243:33248   */\n      dup2\n        /* \"#utility.yul\":33232:33248   */\n      swap1\n      pop\n        /* \"#utility.yul\":33249:33296   */\n      tag_852\n        /* \"#utility.yul\":33290:33295   */\n      dup3\n        /* \"#utility.yul\":33249:33296   */\n      tag_853\n      jump\t// in\n    tag_852:\n        /* \"#utility.yul\":33163:33302   */\n      swap2\n      swap1\n      pop\n      jump\t// out\n        /* \"#utility.yul\":33308:33397   */\n    tag_725:\n        /* \"#utility.yul\":33344:33351   */\n      0x00\n        /* \"#utility.yul\":33384:33390   */\n      0xffff\n        /* \"#utility.yul\":33377:33382   */\n      dup3\n        /* \"#utility.yul\":33373:33391   */\n      and\n        /* \"#utility.yul\":33362:33391   */\n      swap1\n      pop\n        /* \"#utility.yul\":33308:33397   */\n      swap2\n      swap1\n      pop\n      jump\t// out\n        /* \"#utility.yul\":33403:33529   */\n    tag_848:\n        /* \"#utility.yul\":33440:33447   */\n      0x00\n        /* \"#utility.yul\":33480:33522   */\n      0xffffffffffffffffffffffffffffffffffffffff\n        /* \"#utility.yul\":33473:33478   */\n      dup3\n        /* \"#utility.yul\":33469:33523   */\n      and\n        /* \"#utility.yul\":33458:33523   */\n      swap1\n      pop\n        /* \"#utility.yul\":33403:33529   */\n      swap2\n      swap1\n      pop\n      jump\t// out\n        /* \"#utility.yul\":33535:33612   */\n    tag_731:\n        /* \"#utility.yul\":33572:33579   */\n      0x00\n        /* \"#utility.yul\":33601:33606   */\n      dup2\n        /* \"#utility.yul\":33590:33606   */\n      swap1\n      pop\n        /* \"#utility.yul\":33535:33612   */\n      swap2\n      swap1\n      pop\n      jump\t// out\n        /* \"#utility.yul\":33618:33711   */\n    tag_737:\n        /* \"#utility.yul\":33654:33661   */\n      0x00\n        /* \"#utility.yul\":33694:33704   */\n      0xffffffff\n        /* \"#utility.yul\":33687:33692   */\n      dup3\n        /* \"#utility.yul\":33683:33705   */\n      and\n        /* \"#utility.yul\":33672:33705   */\n      swap1\n      pop\n        /* \"#utility.yul\":33618:33711   */\n      swap2\n      swap1\n      pop\n      jump\t// out\n        /* \"#utility.yul\":33717:33803   */\n    tag_744:\n        /* \"#utility.yul\":33752:33759   */\n      0x00\n        /* \"#utility.yul\":33792:33796   */\n      0xff\n        /* \"#utility.yul\":33785:33790   */\n      dup3\n        /* \"#utility.yul\":33781:33797   */\n      and\n        /* \"#utility.yul\":33770:33797   */\n      swap1\n      pop\n        /* \"#utility.yul\":33717:33803   */\n      swap2\n      swap1\n      pop\n      jump\t// out\n        /* \"#utility.yul\":33809:33948   */\n    tag_597:\n        /* \"#utility.yul\":33871:33880   */\n      0x00\n        /* \"#utility.yul\":33904:33942   */\n      tag_860\n        /* \"#utility.yul\":33936:33941   */\n      dup3\n        /* \"#utility.yul\":33904:33942   */\n      tag_850\n      jump\t// in\n    tag_860:\n        /* \"#utility.yul\":33891:33942   */\n      swap1\n      pop\n        /* \"#utility.yul\":33809:33948   */\n      swap2\n      swap1\n      pop\n      jump\t// out\n        /* \"#utility.yul\":33954:34261   */\n    tag_608:\n        /* \"#utility.yul\":34022:34023   */\n      0x00\n        /* \"#utility.yul\":34032:34145   */\n    tag_862:\n        /* \"#utility.yul\":34046:34052   */\n      dup4\n        /* \"#utility.yul\":34043:34044   */\n      dup2\n        /* \"#utility.yul\":34040:34053   */\n      lt\n        /* \"#utility.yul\":34032:34145   */\n      iszero\n      tag_864\n      jumpi\n        /* \"#utility.yul\":34131:34132   */\n      dup1\n        /* \"#utility.yul\":34126:34129   */\n      dup3\n        /* \"#utility.yul\":34122:34133   */\n      add\n        /* \"#utility.yul\":34116:34134   */\n      mload\n        /* \"#utility.yul\":34112:34113   */\n      dup2\n        /* \"#utility.yul\":34107:34110   */\n      dup5\n        /* \"#utility.yul\":34103:34114   */\n      add\n        /* \"#utility.yul\":34096:34135   */\n      mstore\n        /* \"#utility.yul\":34068:34070   */\n      0x20\n        /* \"#utility.yul\":34065:34066   */\n      dup2\n        /* \"#utility.yul\":34061:34071   */\n      add\n        /* \"#utility.yul\":34056:34071   */\n      swap1\n      pop\n        /* \"#utility.yul\":34032:34145   */\n      jump(tag_862)\n    tag_864:\n        /* \"#utility.yul\":34163:34169   */\n      dup4\n        /* \"#utility.yul\":34160:34161   */\n      dup2\n        /* \"#utility.yul\":34157:34170   */\n      gt\n        /* \"#utility.yul\":34154:34255   */\n      iszero\n      tag_865\n      jumpi\n        /* \"#utility.yul\":34243:34244   */\n      0x00\n        /* \"#utility.yul\":34234:34240   */\n      dup5\n        /* \"#utility.yul\":34229:34232   */\n      dup5\n        /* \"#utility.yul\":34225:34241   */\n      add\n        /* \"#utility.yul\":34218:34245   */\n      mstore\n        /* \"#utility.yul\":34154:34255   */\n    tag_865:\n        /* \"#utility.yul\":34003:34261   */\n      pop\n        /* \"#utility.yul\":33954:34261   */\n      pop\n      pop\n      pop\n      jump\t// out\n        /* \"#utility.yul\":34267:34587   */\n    tag_171:\n        /* \"#utility.yul\":34311:34317   */\n      0x00\n        /* \"#utility.yul\":34348:34349   */\n      0x02\n        /* \"#utility.yul\":34342:34346   */\n      dup3\n        /* \"#utility.yul\":34338:34350   */\n      div\n        /* \"#utility.yul\":34328:34350   */\n      swap1\n      pop\n        /* \"#utility.yul\":34395:34396   */\n      0x01\n        /* \"#utility.yul\":34389:34393   */\n      dup3\n        /* \"#utility.yul\":34385:34397   */\n      and\n        /* \"#utility.yul\":34416:34434   */\n      dup1\n        /* \"#utility.yul\":34406:34487   */\n      tag_867\n      jumpi\n        /* \"#utility.yul\":34472:34476   */\n      0x7f\n        /* \"#utility.yul\":34464:34470   */\n      dup3\n        /* \"#utility.yul\":34460:34477   */\n      and\n        /* \"#utility.yul\":34450:34477   */\n      swap2\n      pop\n        /* \"#utility.yul\":34406:34487   */\n    tag_867:\n        /* \"#utility.yul\":34534:34536   */\n      0x20\n        /* \"#utility.yul\":34526:34532   */\n      dup3\n        /* \"#utility.yul\":34523:34537   */\n      lt\n        /* \"#utility.yul\":34503:34521   */\n      dup2\n        /* \"#utility.yul\":34500:34538   */\n      eq\n        /* \"#utility.yul\":34497:34581   */\n      iszero\n      tag_868\n      jumpi\n        /* \"#utility.yul\":34553:34571   */\n      tag_869\n      tag_870\n      jump\t// in\n    tag_869:\n        /* \"#utility.yul\":34497:34581   */\n    tag_868:\n        /* \"#utility.yul\":34318:34587   */\n      pop\n        /* \"#utility.yul\":34267:34587   */\n      swap2\n      swap1\n      pop\n      jump\t// out\n        /* \"#utility.yul\":34593:34764   */\n    tag_185:\n        /* \"#utility.yul\":34631:34634   */\n      0x00\n        /* \"#utility.yul\":34654:34677   */\n      tag_872\n        /* \"#utility.yul\":34671:34676   */\n      dup3\n        /* \"#utility.yul\":34654:34677   */\n      tag_725\n      jump\t// in\n    tag_872:\n        /* \"#utility.yul\":34645:34677   */\n      swap2\n      pop\n        /* \"#utility.yul\":34699:34705   */\n      0xffff\n        /* \"#utility.yul\":34692:34697   */\n      dup3\n        /* \"#utility.yul\":34689:34706   */\n      eq\n        /* \"#utility.yul\":34686:34729   */\n      iszero\n      tag_873\n      jumpi\n        /* \"#utility.yul\":34709:34727   */\n      tag_874\n      tag_820\n      jump\t// in\n    tag_874:\n        /* \"#utility.yul\":34686:34729   */\n    tag_873:\n        /* \"#utility.yul\":34756:34757   */\n      0x01\n        /* \"#utility.yul\":34749:34754   */\n      dup3\n        /* \"#utility.yul\":34745:34758   */\n      add\n        /* \"#utility.yul\":34738:34758   */\n      swap1\n      pop\n        /* \"#utility.yul\":34593:34764   */\n      swap2\n      swap1\n      pop\n      jump\t// out\n        /* \"#utility.yul\":34770:34937   */\n    tag_400:\n        /* \"#utility.yul\":34807:34810   */\n      0x00\n        /* \"#utility.yul\":34830:34852   */\n      tag_876\n        /* \"#utility.yul\":34846:34851   */\n      dup3\n        /* \"#utility.yul\":34830:34852   */\n      tag_744\n      jump\t// in\n    tag_876:\n        /* \"#utility.yul\":34821:34852   */\n      swap2\n      pop\n        /* \"#utility.yul\":34874:34878   */\n      0xff\n        /* \"#utility.yul\":34867:34872   */\n      dup3\n        /* \"#utility.yul\":34864:34879   */\n      eq\n        /* \"#utility.yul\":34861:34902   */\n      iszero\n      tag_877\n      jumpi\n        /* \"#utility.yul\":34882:34900   */\n      tag_878\n      tag_820\n      jump\t// in\n    tag_878:\n        /* \"#utility.yul\":34861:34902   */\n    tag_877:\n        /* \"#utility.yul\":34929:34930   */\n      0x01\n        /* \"#utility.yul\":34922:34927   */\n      dup3\n        /* \"#utility.yul\":34918:34931   */\n      add\n        /* \"#utility.yul\":34911:34931   */\n      swap1\n      pop\n        /* \"#utility.yul\":34770:34937   */\n      swap2\n      swap1\n      pop\n      jump\t// out\n        /* \"#utility.yul\":34943:35123   */\n    tag_820:\n        /* \"#utility.yul\":34991:35068   */\n      0x4e487b7100000000000000000000000000000000000000000000000000000000\n        /* \"#utility.yul\":34988:34989   */\n      0x00\n        /* \"#utility.yul\":34981:35069   */\n      mstore\n        /* \"#utility.yul\":35088:35092   */\n      0x11\n        /* \"#utility.yul\":35085:35086   */\n      0x04\n        /* \"#utility.yul\":35078:35093   */\n      mstore\n        /* \"#utility.yul\":35112:35116   */\n      0x24\n        /* \"#utility.yul\":35109:35110   */\n      0x00\n        /* \"#utility.yul\":35102:35117   */\n      revert\n        /* \"#utility.yul\":35129:35309   */\n    tag_115:\n        /* \"#utility.yul\":35177:35254   */\n      0x4e487b7100000000000000000000000000000000000000000000000000000000\n        /* \"#utility.yul\":35174:35175   */\n      0x00\n        /* \"#utility.yul\":35167:35255   */\n      mstore\n        /* \"#utility.yul\":35274:35278   */\n      0x21\n        /* \"#utility.yul\":35271:35272   */\n      0x04\n        /* \"#utility.yul\":35264:35279   */\n      mstore\n        /* \"#utility.yul\":35298:35302   */\n      0x24\n        /* \"#utility.yul\":35295:35296   */\n      0x00\n        /* \"#utility.yul\":35288:35303   */\n      revert\n        /* \"#utility.yul\":35315:35495   */\n    tag_870:\n        /* \"#utility.yul\":35363:35440   */\n      0x4e487b7100000000000000000000000000000000000000000000000000000000\n        /* \"#utility.yul\":35360:35361   */\n      0x00\n        /* \"#utility.yul\":35353:35441   */\n      mstore\n        /* \"#utility.yul\":35460:35464   */\n      0x22\n        /* \"#utility.yul\":35457:35458   */\n      0x04\n        /* \"#utility.yul\":35450:35465   */\n      mstore\n        /* \"#utility.yul\":35484:35488   */\n      0x24\n        /* \"#utility.yul\":35481:35482   */\n      0x00\n        /* \"#utility.yul\":35474:35489   */\n      revert\n        /* \"#utility.yul\":35501:35681   */\n    tag_183:\n        /* \"#utility.yul\":35549:35626   */\n      0x4e487b7100000000000000000000000000000000000000000000000000000000\n        /* \"#utility.yul\":35546:35547   */\n      0x00\n        /* \"#utility.yul\":35539:35627   */\n      mstore\n        /* \"#utility.yul\":35646:35650   */\n      0x32\n        /* \"#utility.yul\":35643:35644   */\n      0x04\n        /* \"#utility.yul\":35636:35651   */\n      mstore\n        /* \"#utility.yul\":35670:35674   */\n      0x24\n        /* \"#utility.yul\":35667:35668   */\n      0x00\n        /* \"#utility.yul\":35660:35675   */\n      revert\n        /* \"#utility.yul\":35687:35867   */\n    tag_155:\n        /* \"#utility.yul\":35735:35812   */\n      0x4e487b7100000000000000000000000000000000000000000000000000000000\n        /* \"#utility.yul\":35732:35733   */\n      0x00\n        /* \"#utility.yul\":35725:35813   */\n      mstore\n        /* \"#utility.yul\":35832:35836   */\n      0x41\n        /* \"#utility.yul\":35829:35830   */\n      0x04\n        /* \"#utility.yul\":35822:35837   */\n      mstore\n        /* \"#utility.yul\":35856:35860   */\n      0x24\n        /* \"#utility.yul\":35853:35854   */\n      0x00\n        /* \"#utility.yul\":35846:35861   */\n      revert\n        /* \"#utility.yul\":35873:35990   */\n    tag_498:\n        /* \"#utility.yul\":35982:35983   */\n      0x00\n        /* \"#utility.yul\":35979:35980   */\n      dup1\n        /* \"#utility.yul\":35972:35984   */\n      revert\n        /* \"#utility.yul\":35996:36113   */\n    tag_495:\n        /* \"#utility.yul\":36105:36106   */\n      0x00\n        /* \"#utility.yul\":36102:36103   */\n      dup1\n        /* \"#utility.yul\":36095:36107   */\n      revert\n        /* \"#utility.yul\":36119:36236   */\n    tag_501:\n        /* \"#utility.yul\":36228:36229   */\n      0x00\n        /* \"#utility.yul\":36225:36226   */\n      dup1\n        /* \"#utility.yul\":36218:36230   */\n      revert\n        /* \"#utility.yul\":36242:36359   */\n    tag_521:\n        /* \"#utility.yul\":36351:36352   */\n      0x00\n        /* \"#utility.yul\":36348:36349   */\n      dup1\n        /* \"#utility.yul\":36341:36353   */\n      revert\n        /* \"#utility.yul\":36365:36482   */\n    tag_513:\n        /* \"#utility.yul\":36474:36475   */\n      0x00\n        /* \"#utility.yul\":36471:36472   */\n      dup1\n        /* \"#utility.yul\":36464:36476   */\n      revert\n        /* \"#utility.yul\":36488:36590   */\n    tag_610:\n        /* \"#utility.yul\":36529:36535   */\n      0x00\n        /* \"#utility.yul\":36580:36582   */\n      0x1f\n        /* \"#utility.yul\":36576:36583   */\n      not\n        /* \"#utility.yul\":36571:36573   */\n      0x1f\n        /* \"#utility.yul\":36564:36569   */\n      dup4\n        /* \"#utility.yul\":36560:36574   */\n      add\n        /* \"#utility.yul\":36556:36584   */\n      and\n        /* \"#utility.yul\":36546:36584   */\n      swap1\n      pop\n        /* \"#utility.yul\":36488:36590   */\n      swap2\n      swap1\n      pop\n      jump\t// out\n        /* \"#utility.yul\":36596:36829   */\n    tag_634:\n        /* \"#utility.yul\":36736:36770   */\n      0x566f74696e6720547970652063616e6e6f7420626520636c6f73656420617420\n        /* \"#utility.yul\":36732:36733   */\n      0x00\n        /* \"#utility.yul\":36724:36730   */\n      dup3\n        /* \"#utility.yul\":36720:36734   */\n      add\n        /* \"#utility.yul\":36713:36771   */\n      mstore\n        /* \"#utility.yul\":36805:36821   */\n      0x696e697469616c2073746174652e000000000000000000000000000000000000\n        /* \"#utility.yul\":36800:36802   */\n      0x20\n        /* \"#utility.yul\":36792:36798   */\n      dup3\n        /* \"#utility.yul\":36788:36803   */\n      add\n        /* \"#utility.yul\":36781:36822   */\n      mstore\n        /* \"#utility.yul\":36596:36829   */\n      pop\n      jump\t// out\n        /* \"#utility.yul\":36835:37004   */\n    tag_639:\n        /* \"#utility.yul\":36975:36996   */\n      0x596f7520617265206e6f74206120766f74657200000000000000000000000000\n        /* \"#utility.yul\":36971:36972   */\n      0x00\n        /* \"#utility.yul\":36963:36969   */\n      dup3\n        /* \"#utility.yul\":36959:36973   */\n      add\n        /* \"#utility.yul\":36952:36997   */\n      mstore\n        /* \"#utility.yul\":36835:37004   */\n      pop\n      jump\t// out\n        /* \"#utility.yul\":37010:37242   */\n    tag_644:\n        /* \"#utility.yul\":37150:37184   */\n      0x43757272656e746c7920776520617265206e6f7420766f74696e67206f6e2074\n        /* \"#utility.yul\":37146:37147   */\n      0x00\n        /* \"#utility.yul\":37138:37144   */\n      dup3\n        /* \"#utility.yul\":37134:37148   */\n      add\n        /* \"#utility.yul\":37127:37185   */\n      mstore\n        /* \"#utility.yul\":37219:37234   */\n      0x6869732066756e6374696f6e2e00000000000000000000000000000000000000\n        /* \"#utility.yul\":37214:37216   */\n      0x20\n        /* \"#utility.yul\":37206:37212   */\n      dup3\n        /* \"#utility.yul\":37202:37217   */\n      add\n        /* \"#utility.yul\":37195:37235   */\n      mstore\n        /* \"#utility.yul\":37010:37242   */\n      pop\n      jump\t// out\n        /* \"#utility.yul\":37248:37473   */\n    tag_649:\n        /* \"#utility.yul\":37388:37422   */\n      0x4f776e61626c653a206e6577206f776e657220697320746865207a65726f2061\n        /* \"#utility.yul\":37384:37385   */\n      0x00\n        /* \"#utility.yul\":37376:37382   */\n      dup3\n        /* \"#utility.yul\":37372:37386   */\n      add\n        /* \"#utility.yul\":37365:37423   */\n      mstore\n        /* \"#utility.yul\":37457:37465   */\n      0x6464726573730000000000000000000000000000000000000000000000000000\n        /* \"#utility.yul\":37452:37454   */\n      0x20\n        /* \"#utility.yul\":37444:37450   */\n      dup3\n        /* \"#utility.yul\":37440:37455   */\n      add\n        /* \"#utility.yul\":37433:37466   */\n      mstore\n        /* \"#utility.yul\":37248:37473   */\n      pop\n      jump\t// out\n        /* \"#utility.yul\":37479:37647   */\n    tag_654:\n        /* \"#utility.yul\":37619:37639   */\n      0x5468657265206973206e6f20766f74696e670000000000000000000000000000\n        /* \"#utility.yul\":37615:37616   */\n      0x00\n        /* \"#utility.yul\":37607:37613   */\n      dup3\n        /* \"#utility.yul\":37603:37617   */\n      add\n        /* \"#utility.yul\":37596:37640   */\n      mstore\n        /* \"#utility.yul\":37479:37647   */\n      pop\n      jump\t// out\n        /* \"#utility.yul\":37653:37888   */\n    tag_659:\n        /* \"#utility.yul\":37793:37827   */\n      0x50726f706f73616c20547970652063616e6e6f7420626520636c6f7365642061\n        /* \"#utility.yul\":37789:37790   */\n      0x00\n        /* \"#utility.yul\":37781:37787   */\n      dup3\n        /* \"#utility.yul\":37777:37791   */\n      add\n        /* \"#utility.yul\":37770:37828   */\n      mstore\n        /* \"#utility.yul\":37862:37880   */\n      0x7420696e697469616c2073746174652e00000000000000000000000000000000\n        /* \"#utility.yul\":37857:37859   */\n      0x20\n        /* \"#utility.yul\":37849:37855   */\n      dup3\n        /* \"#utility.yul\":37845:37860   */\n      add\n        /* \"#utility.yul\":37838:37881   */\n      mstore\n        /* \"#utility.yul\":37653:37888   */\n      pop\n      jump\t// out\n        /* \"#utility.yul\":37894:38114   */\n    tag_664:\n        /* \"#utility.yul\":38034:38068   */\n      0x596f7520617265206e6f7420746865204b6579486f6c646572436f6e74726163\n        /* \"#utility.yul\":38030:38031   */\n      0x00\n        /* \"#utility.yul\":38022:38028   */\n      dup3\n        /* \"#utility.yul\":38018:38032   */\n      add\n        /* \"#utility.yul\":38011:38069   */\n      mstore\n        /* \"#utility.yul\":38103:38106   */\n      0x7400000000000000000000000000000000000000000000000000000000000000\n        /* \"#utility.yul\":38098:38100   */\n      0x20\n        /* \"#utility.yul\":38090:38096   */\n      dup3\n        /* \"#utility.yul\":38086:38101   */\n      add\n        /* \"#utility.yul\":38079:38107   */\n      mstore\n        /* \"#utility.yul\":37894:38114   */\n      pop\n      jump\t// out\n        /* \"#utility.yul\":38120:38340   */\n    tag_669:\n        /* \"#utility.yul\":38260:38294   */\n      0x476976656e206164647265737320697320616c7265616479206120766f746572\n        /* \"#utility.yul\":38256:38257   */\n      0x00\n        /* \"#utility.yul\":38248:38254   */\n      dup3\n        /* \"#utility.yul\":38244:38258   */\n      add\n        /* \"#utility.yul\":38237:38295   */\n      mstore\n        /* \"#utility.yul\":38329:38332   */\n      0x2e00000000000000000000000000000000000000000000000000000000000000\n        /* \"#utility.yul\":38324:38326   */\n      0x20\n        /* \"#utility.yul\":38316:38322   */\n      dup3\n        /* \"#utility.yul\":38312:38327   */\n      add\n        /* \"#utility.yul\":38305:38333   */\n      mstore\n        /* \"#utility.yul\":38120:38340   */\n      pop\n      jump\t// out\n        /* \"#utility.yul\":38346:38528   */\n    tag_674:\n        /* \"#utility.yul\":38486:38520   */\n      0x4f776e61626c653a2063616c6c6572206973206e6f7420746865206f776e6572\n        /* \"#utility.yul\":38482:38483   */\n      0x00\n        /* \"#utility.yul\":38474:38480   */\n      dup3\n        /* \"#utility.yul\":38470:38484   */\n      add\n        /* \"#utility.yul\":38463:38521   */\n      mstore\n        /* \"#utility.yul\":38346:38528   */\n      pop\n      jump\t// out\n        /* \"#utility.yul\":38534:38704   */\n    tag_679:\n        /* \"#utility.yul\":38674:38696   */\n      0x5a65726f204164647265737320656e7465726564000000000000000000000000\n        /* \"#utility.yul\":38670:38671   */\n      0x00\n        /* \"#utility.yul\":38662:38668   */\n      dup3\n        /* \"#utility.yul\":38658:38672   */\n      add\n        /* \"#utility.yul\":38651:38697   */\n      mstore\n        /* \"#utility.yul\":38534:38704   */\n      pop\n      jump\t// out\n        /* \"#utility.yul\":38710:38881   */\n    tag_684:\n        /* \"#utility.yul\":38850:38873   */\n      0x596f75206861766520766f746564206265666f72650000000000000000000000\n        /* \"#utility.yul\":38846:38847   */\n      0x00\n        /* \"#utility.yul\":38838:38844   */\n      dup3\n        /* \"#utility.yul\":38834:38848   */\n      add\n        /* \"#utility.yul\":38827:38874   */\n      mstore\n        /* \"#utility.yul\":38710:38881   */\n      pop\n      jump\t// out\n        /* \"#utility.yul\":38887:39065   */\n    tag_689:\n        /* \"#utility.yul\":39027:39057   */\n      0x506c6561736520766f7465206265747765656e203120746f2031302e00000000\n        /* \"#utility.yul\":39023:39024   */\n      0x00\n        /* \"#utility.yul\":39015:39021   */\n      dup3\n        /* \"#utility.yul\":39011:39025   */\n      add\n        /* \"#utility.yul\":39004:39058   */\n      mstore\n        /* \"#utility.yul\":38887:39065   */\n      pop\n      jump\t// out\n        /* \"#utility.yul\":39071:39241   */\n    tag_694:\n        /* \"#utility.yul\":39211:39233   */\n      0x596f7520617265206e6f74206120766f74657272000000000000000000000000\n        /* \"#utility.yul\":39207:39208   */\n      0x00\n        /* \"#utility.yul\":39199:39205   */\n      dup3\n        /* \"#utility.yul\":39195:39209   */\n      add\n        /* \"#utility.yul\":39188:39234   */\n      mstore\n        /* \"#utility.yul\":39071:39241   */\n      pop\n      jump\t// out\n        /* \"#utility.yul\":39247:39484   */\n    tag_699:\n        /* \"#utility.yul\":39387:39421   */\n      0x566f74696e672063616e6e6f7420626520636c6f736564206265666f72652069\n        /* \"#utility.yul\":39383:39384   */\n      0x00\n        /* \"#utility.yul\":39375:39381   */\n      dup3\n        /* \"#utility.yul\":39371:39385   */\n      add\n        /* \"#utility.yul\":39364:39422   */\n      mstore\n        /* \"#utility.yul\":39456:39476   */\n      0x7427732064657369676e6174656420746f2e0000000000000000000000000000\n        /* \"#utility.yul\":39451:39453   */\n      0x20\n        /* \"#utility.yul\":39443:39449   */\n      dup3\n        /* \"#utility.yul\":39439:39454   */\n      add\n        /* \"#utility.yul\":39432:39477   */\n      mstore\n        /* \"#utility.yul\":39247:39484   */\n      pop\n      jump\t// out\n        /* \"#utility.yul\":39490:39609   */\n    tag_853:\n        /* \"#utility.yul\":39577:39578   */\n      0x03\n        /* \"#utility.yul\":39570:39575   */\n      dup2\n        /* \"#utility.yul\":39567:39579   */\n      lt\n        /* \"#utility.yul\":39557:39603   */\n      tag_905\n      jumpi\n        /* \"#utility.yul\":39583:39601   */\n      tag_906\n      tag_115\n      jump\t// in\n    tag_906:\n        /* \"#utility.yul\":39557:39603   */\n    tag_905:\n        /* \"#utility.yul\":39490:39609   */\n      pop\n      jump\t// out\n        /* \"#utility.yul\":39615:39737   */\n    tag_482:\n        /* \"#utility.yul\":39688:39712   */\n      tag_908\n        /* \"#utility.yul\":39706:39711   */\n      dup2\n        /* \"#utility.yul\":39688:39712   */\n      tag_558\n      jump\t// in\n    tag_908:\n        /* \"#utility.yul\":39681:39686   */\n      dup2\n        /* \"#utility.yul\":39678:39713   */\n      eq\n        /* \"#utility.yul\":39668:39731   */\n      tag_909\n      jumpi\n        /* \"#utility.yul\":39727:39728   */\n      0x00\n        /* \"#utility.yul\":39724:39725   */\n      dup1\n        /* \"#utility.yul\":39717:39729   */\n      revert\n        /* \"#utility.yul\":39668:39731   */\n    tag_909:\n        /* \"#utility.yul\":39615:39737   */\n      pop\n      jump\t// out\n        /* \"#utility.yul\":39743:39851   */\n    tag_486:\n        /* \"#utility.yul\":39825:39826   */\n      0x02\n        /* \"#utility.yul\":39818:39823   */\n      dup2\n        /* \"#utility.yul\":39815:39827   */\n      lt\n        /* \"#utility.yul\":39805:39845   */\n      tag_911\n      jumpi\n        /* \"#utility.yul\":39841:39842   */\n      0x00\n        /* \"#utility.yul\":39838:39839   */\n      dup1\n        /* \"#utility.yul\":39831:39843   */\n      revert\n        /* \"#utility.yul\":39805:39845   */\n    tag_911:\n        /* \"#utility.yul\":39743:39851   */\n      pop\n      jump\t// out\n        /* \"#utility.yul\":39857:39970   */\n    tag_490:\n        /* \"#utility.yul\":39944:39945   */\n      0x03\n        /* \"#utility.yul\":39937:39942   */\n      dup2\n        /* \"#utility.yul\":39934:39946   */\n      lt\n        /* \"#utility.yul\":39924:39964   */\n      tag_913\n      jumpi\n        /* \"#utility.yul\":39960:39961   */\n      0x00\n        /* \"#utility.yul\":39957:39958   */\n      dup1\n        /* \"#utility.yul\":39950:39962   */\n      revert\n        /* \"#utility.yul\":39924:39964   */\n    tag_913:\n        /* \"#utility.yul\":39857:39970   */\n      pop\n      jump\t// out\n        /* \"#utility.yul\":39976:40096   */\n    tag_505:\n        /* \"#utility.yul\":40048:40071   */\n      tag_915\n        /* \"#utility.yul\":40065:40070   */\n      dup2\n        /* \"#utility.yul\":40048:40071   */\n      tag_725\n      jump\t// in\n    tag_915:\n        /* \"#utility.yul\":40041:40046   */\n      dup2\n        /* \"#utility.yul\":40038:40072   */\n      eq\n        /* \"#utility.yul\":40028:40090   */\n      tag_916\n      jumpi\n        /* \"#utility.yul\":40086:40087   */\n      0x00\n        /* \"#utility.yul\":40083:40084   */\n      dup1\n        /* \"#utility.yul\":40076:40088   */\n      revert\n        /* \"#utility.yul\":40028:40090   */\n    tag_916:\n        /* \"#utility.yul\":39976:40096   */\n      pop\n      jump\t// out\n        /* \"#utility.yul\":40102:40220   */\n    tag_509:\n        /* \"#utility.yul\":40173:40195   */\n      tag_918\n        /* \"#utility.yul\":40189:40194   */\n      dup2\n        /* \"#utility.yul\":40173:40195   */\n      tag_744\n      jump\t// in\n    tag_918:\n        /* \"#utility.yul\":40166:40171   */\n      dup2\n        /* \"#utility.yul\":40163:40196   */\n      eq\n        /* \"#utility.yul\":40153:40214   */\n      tag_919\n      jumpi\n        /* \"#utility.yul\":40210:40211   */\n      0x00\n        /* \"#utility.yul\":40207:40208   */\n      dup1\n        /* \"#utility.yul\":40200:40212   */\n      revert\n        /* \"#utility.yul\":40153:40214   */\n    tag_919:\n        /* \"#utility.yul\":40102:40220   */\n      pop\n      jump\t// out\n\n    auxdata: 0xa26469706673582212209ef6847fe650e20c7baa8cebd8f0534a2403c33c6c72d160c3785b425e4416f964736f6c63430008070033\n}\n",
				"bytecode": {
					"linkReferences": {},
					"object": "60806040526000600760006101000a81548161ffff021916908361ffff1602179055506000600760026101000a81548161ffff021916908361ffff1602179055506000600760046101000a81548161ffff021916908361ffff1602179055503480156200006b57600080fd5b506200008c620000806200009260201b60201c565b6200009a60201b60201c565b6200015e565b600033905090565b60008060009054906101000a900473ffffffffffffffffffffffffffffffffffffffff169050816000806101000a81548173ffffffffffffffffffffffffffffffffffffffff021916908373ffffffffffffffffffffffffffffffffffffffff1602179055508173ffffffffffffffffffffffffffffffffffffffff168173ffffffffffffffffffffffffffffffffffffffff167f8be0079c531659141344cd1fd0a4f28419497f9722a3daafe3b4186f6b6457e060405160405180910390a35050565b614bd8806200016e6000396000f3fe608060405234801561001057600080fd5b50600436106101425760003560e01c80639ea061c9116100b8578063ddd2d1fd1161007c578063ddd2d1fd14610331578063de513e3d14610369578063ea31a64c14610385578063f2fde38b146103a1578063fae04215146103bd578063fbb39651146103ed57610142565b80639ea061c914610287578063bf2aba79146102a3578063c497efa3146102bf578063cf5ebb38146102f7578063da92d1d91461031357610142565b806345e641d01161010a57806345e641d0146101eb578063481aa215146102095780634d313bb8146102255780636f71e06514610241578063715018a61461025f5780638da5cb5b1461026957610142565b806304f397cf14610147578063156c2da6146101655780631ffc5042146101815780632dfca4451461019d578063393a97ef146101bb575b600080fd5b61014f61040b565b60405161015c919061405a565b60405180910390f35b61017f600480360381019061017a91906138a2565b61045f565b005b61019b60048036038101906101969190613842565b6105ef565b005b6101a5610a17565b6040516101b29190614295565b60405180910390f35b6101d560048036038101906101d0919061390f565b610a2b565b6040516101e29190614016565b60405180910390f35b6101f3610f5e565b6040516102009190613ffb565b60405180910390f35b610223600480360381019061021e91906138cf565b610f84565b005b61023f600480360381019061023a919061394f565b611413565b005b6102496117f6565b6040516102569190614295565b60405180910390f35b61026761180a565b005b61027161181e565b60405161027e9190613ffb565b60405180910390f35b6102a1600480360381019061029c919061394f565b611847565b005b6102bd60048036038101906102b89190613815565b611c2a565b005b6102d960048036038101906102d491906138a2565b611c76565b6040516102ee999897969594939291906142b0565b60405180910390f35b610311600480360381019061030c91906138cf565b611da7565b005b61031b612236565b6040516103289190614344565b60405180910390f35b61034b600480360381019061034691906138a2565b6122b3565b604051610360999897969594939291906142b0565b60405180910390f35b610383600480360381019061037e91906138a2565b6123e4565b005b61039f600480360381019061039a9190613815565b612574565b005b6103bb60048036038101906103b69190613815565b612797565b005b6103d760048036038101906103d2919061398f565b61281b565b6040516103e49190614038565b60405180910390f35b6103f5612d4f565b6040516104029190614295565b60405180910390f35b6000600260003373ffffffffffffffffffffffffffffffffffffffff1673ffffffffffffffffffffffffffffffffffffffff16815260200190815260200160002060009054906101000a900460ff16905090565b8060006002811115610474576104736146fb565b5b600460008361ffff1661ffff16815260200190815260200160002060060160009054906101000a900460ff1660028111156104b2576104b16146fb565b5b14156104f3576040517f08c379a00000000000000000000000000000000000000000000000000000000081526004016104ea90614155565b60405180910390fd5b33600260008273ffffffffffffffffffffffffffffffffffffffff1673ffffffffffffffffffffffffffffffffffffffff16815260200190815260200160002060009054906101000a900460ff16610580576040517f08c379a000000000000000000000000000000000000000000000000000000000815260040161057790614255565b60405180910390fd5b600460008461ffff1661ffff168152602001908152602001600020600401544310156105e1576040517f08c379a00000000000000000000000000000000000000000000000000000000081526004016105d890614275565b60405180910390fd5b6105ea83612d63565b505050565b81818080601f016020809104026020016040519081016040528093929190818152602001838380828437600081840152601f19601f82011690508083019250505050505050600081511161064257600080fd5b33600260008273ffffffffffffffffffffffffffffffffffffffff1673ffffffffffffffffffffffffffffffffffffffff16815260200190815260200160002060009054906101000a900460ff166106cf576040517f08c379a00000000000000000000000000000000000000000000000000000000081526004016106c690614255565b60405180910390fd5b600060028111156106e3576106e26146fb565b5b8560028111156106f6576106f56146fb565b5b1415610737576040517f08c379a000000000000000000000000000000000000000000000000000000000815260040161072e90614175565b60405180910390fd5b600760029054906101000a900461ffff1660066000600760029054906101000a900461ffff1661ffff1661ffff16815260200190815260200160002060000160006101000a81548161ffff021916908361ffff160217905550838360066000600760029054906101000a900461ffff1661ffff1661ffff16815260200190815260200160002060010191906107cd92919061351e565b50600060066000600760029054906101000a900461ffff1661ffff1661ffff16815260200190815260200160002060020160006101000a81548163ffffffff021916908363ffffffff160217905550600060066000600760029054906101000a900461ffff1661ffff1661ffff16815260200190815260200160002060020160046101000a81548163ffffffff021916908363ffffffff1602179055503360066000600760029054906101000a900461ffff1661ffff1661ffff16815260200190815260200160002060020160086101000a81548173ffffffffffffffffffffffffffffffffffffffff021916908373ffffffffffffffffffffffffffffffffffffffff1602179055504360066000600760029054906101000a900461ffff1661ffff1661ffff16815260200190815260200160002060030181905550600160ff164361091a919061444b565b60066000600760029054906101000a900461ffff1661ffff1661ffff16815260200190815260200160002060040181905550600060066000600760029054906101000a900461ffff1661ffff1661ffff168152602001908152602001600020600501819055508460066000600760029054906101000a900461ffff1661ffff1661ffff16815260200190815260200160002060060160006101000a81548160ff021916908360028111156109d1576109d06146fb565b5b02179055506001600760028282829054906101000a900461ffff166109f69190614413565b92506101000a81548161ffff021916908361ffff1602179055505050505050565b600760029054906101000a900461ffff1681565b606060008261ffff1667ffffffffffffffff811115610a4d57610a4c614788565b5b604051908082528060200260200182016040528015610a8657816020015b610a736135a4565b815260200190600190039081610a6b5790505b5090506000600760029054906101000a900461ffff1690508061ffff168561ffff161115610ab8578192505050610f58565b8061ffff168486610ac99190614413565b61ffff161115610d1a576000600190505b8582610ae69190614512565b61ffff168161ffff1611610d1457600660008284610b049190614512565b61ffff1661ffff168152602001908152602001600020604051806101200160405290816000820160009054906101000a900461ffff1661ffff1661ffff168152602001600182018054610b5690614645565b80601f0160208091040260200160405190810160405280929190818152602001828054610b8290614645565b8015610bcf5780601f10610ba457610100808354040283529160200191610bcf565b820191906000526020600020905b815481529060010190602001808311610bb257829003601f168201915b505050505081526020016002820160009054906101000a900463ffffffff1663ffffffff1663ffffffff1681526020016002820160049054906101000a900463ffffffff1663ffffffff1663ffffffff1681526020016002820160089054906101000a900473ffffffffffffffffffffffffffffffffffffffff1673ffffffffffffffffffffffffffffffffffffffff1673ffffffffffffffffffffffffffffffffffffffff1681526020016003820154815260200160048201548152602001600582015481526020016006820160009054906101000a900460ff166002811115610cbd57610cbc6146fb565b5b6002811115610ccf57610cce6146fb565b5b8152505083600183610ce19190614512565b61ffff1681518110610cf657610cf5614759565b5b60200260200101819052508080610d0c90614677565b915050610ada565b50610f52565b6000600190505b8461ffff168161ffff1611610f5057600660008284610d409190614512565b61ffff1661ffff168152602001908152602001600020604051806101200160405290816000820160009054906101000a900461ffff1661ffff1661ffff168152602001600182018054610d9290614645565b80601f0160208091040260200160405190810160405280929190818152602001828054610dbe90614645565b8015610e0b5780601f10610de057610100808354040283529160200191610e0b565b820191906000526020600020905b815481529060010190602001808311610dee57829003601f168201915b505050505081526020016002820160009054906101000a900463ffffffff1663ffffffff1663ffffffff1681526020016002820160049054906101000a900463ffffffff1663ffffffff1663ffffffff1681526020016002820160089054906101000a900473ffffffffffffffffffffffffffffffffffffffff1673ffffffffffffffffffffffffffffffffffffffff1673ffffffffffffffffffffffffffffffffffffffff1681526020016003820154815260200160048201548152602001600582015481526020016006820160009054906101000a900460ff166002811115610ef957610ef86146fb565b5b6002811115610f0b57610f0a6146fb565b5b8152505083600183610f1d9190614512565b61ffff1681518110610f3257610f31614759565b5b60200260200101819052508080610f4890614677565b915050610d21565b505b81925050505b92915050565b600160009054906101000a900473ffffffffffffffffffffffffffffffffffffffff1681565b8160006002811115610f9957610f986146fb565b5b600460008361ffff1661ffff16815260200190815260200160002060060160009054906101000a900460ff166002811115610fd757610fd66146fb565b5b1415611018576040517f08c379a000000000000000000000000000000000000000000000000000000000815260040161100f90614155565b60405180910390fd5b82600260003373ffffffffffffffffffffffffffffffffffffffff1673ffffffffffffffffffffffffffffffffffffffff16815260200190815260200160002060009054906101000a900460ff166110a5576040517f08c379a000000000000000000000000000000000000000000000000000000000815260040161109c906140f5565b60405180910390fd5b6000600360008361ffff1661ffff16815260200190815260200160002060003373ffffffffffffffffffffffffffffffffffffffff1673ffffffffffffffffffffffffffffffffffffffff16815260200190815260200160002060009054906101000a900460ff1660ff1614611150576040517f08c379a000000000000000000000000000000000000000000000000000000000815260040161114790614215565b60405180910390fd5b60016002811115611164576111636146fb565b5b600460008661ffff1661ffff16815260200190815260200160002060060160009054906101000a900460ff1660028111156111a2576111a16146fb565b5b146111e2576040517f08c379a00000000000000000000000000000000000000000000000000000000081526004016111d990614115565b60405180910390fd5b600060018111156111f6576111f56146fb565b5b836001811115611209576112086146fb565b5b14156112e2576001600360008661ffff1661ffff16815260200190815260200160002060003373ffffffffffffffffffffffffffffffffffffffff1673ffffffffffffffffffffffffffffffffffffffff16815260200190815260200160002060006101000a81548160ff021916908360ff1602179055506001600460008661ffff1661ffff16815260200190815260200160002060020160048282829054906101000a900463ffffffff166112bf91906144a1565b92506101000a81548163ffffffff021916908363ffffffff1602179055506113b1565b600a600360008661ffff1661ffff16815260200190815260200160002060003373ffffffffffffffffffffffffffffffffffffffff1673ffffffffffffffffffffffffffffffffffffffff16815260200190815260200160002060006101000a81548160ff021916908360ff160217905550600a600460008661ffff1661ffff16815260200190815260200160002060020160048282829054906101000a900463ffffffff1661139291906144a1565b92506101000a81548163ffffffff021916908363ffffffff1602179055505b6001600460008661ffff1661ffff16815260200190815260200160002060020160008282829054906101000a900463ffffffff166113ef91906144a1565b92506101000a81548163ffffffff021916908363ffffffff16021790555050505050565b8160006002811115611428576114276146fb565b5b600460008361ffff1661ffff16815260200190815260200160002060060160009054906101000a900460ff166002811115611466576114656146fb565b5b14156114a7576040517f08c379a000000000000000000000000000000000000000000000000000000000815260040161149e90614155565b60405180910390fd5b82600260003373ffffffffffffffffffffffffffffffffffffffff1673ffffffffffffffffffffffffffffffffffffffff16815260200190815260200160002060009054906101000a900460ff16611534576040517f08c379a000000000000000000000000000000000000000000000000000000000815260040161152b906140f5565b60405180910390fd5b6000600360008361ffff1661ffff16815260200190815260200160002060003373ffffffffffffffffffffffffffffffffffffffff1673ffffffffffffffffffffffffffffffffffffffff16815260200190815260200160002060009054906101000a900460ff1660ff16146115df576040517f08c379a00000000000000000000000000000000000000000000000000000000081526004016115d690614215565b60405180910390fd5b60008360ff161180156115f55750600b8360ff16105b611634576040517f08c379a000000000000000000000000000000000000000000000000000000000815260040161162b90614235565b60405180910390fd5b600280811115611647576116466146fb565b5b600460008661ffff1661ffff16815260200190815260200160002060060160009054906101000a900460ff166002811115611685576116846146fb565b5b146116c5576040517f08c379a00000000000000000000000000000000000000000000000000000000081526004016116bc90614115565b60405180910390fd5b82600360008661ffff1661ffff16815260200190815260200160002060003373ffffffffffffffffffffffffffffffffffffffff1673ffffffffffffffffffffffffffffffffffffffff16815260200190815260200160002060006101000a81548160ff021916908360ff1602179055508260ff16600460008661ffff1661ffff16815260200190815260200160002060020160048282829054906101000a900463ffffffff1661177691906144a1565b92506101000a81548163ffffffff021916908363ffffffff1602179055506001600460008661ffff1661ffff16815260200190815260200160002060020160008282829054906101000a900463ffffffff166117d291906144a1565b92506101000a81548163ffffffff021916908363ffffffff16021790555050505050565b600760049054906101000a900461ffff1681565b611812612e89565b61181c6000612f07565b565b60008060009054906101000a900473ffffffffffffffffffffffffffffffffffffffff16905090565b816000600281111561185c5761185b6146fb565b5b600660008361ffff1661ffff16815260200190815260200160002060060160009054906101000a900460ff16600281111561189a576118996146fb565b5b14156118db576040517f08c379a00000000000000000000000000000000000000000000000000000000081526004016118d290614155565b60405180910390fd5b82600260003373ffffffffffffffffffffffffffffffffffffffff1673ffffffffffffffffffffffffffffffffffffffff16815260200190815260200160002060009054906101000a900460ff16611968576040517f08c379a000000000000000000000000000000000000000000000000000000000815260040161195f906140f5565b60405180910390fd5b6000600360008361ffff1661ffff16815260200190815260200160002060003373ffffffffffffffffffffffffffffffffffffffff1673ffffffffffffffffffffffffffffffffffffffff16815260200190815260200160002060009054906101000a900460ff1660ff1614611a13576040517f08c379a0000000000000000000000000000000000000000000000000000000008152600401611a0a90614215565b60405180910390fd5b8260ff166000108015611a295750600b8360ff16105b611a68576040517f08c379a0000000000000000000000000000000000000000000000000000000008152600401611a5f90614235565b60405180910390fd5b600280811115611a7b57611a7a6146fb565b5b600660008661ffff1661ffff16815260200190815260200160002060060160009054906101000a900460ff166002811115611ab957611ab86146fb565b5b14611af9576040517f08c379a0000000000000000000000000000000000000000000000000000000008152600401611af090614115565b60405180910390fd5b82600560008661ffff1661ffff16815260200190815260200160002060003373ffffffffffffffffffffffffffffffffffffffff1673ffffffffffffffffffffffffffffffffffffffff16815260200190815260200160002060006101000a81548160ff021916908360ff1602179055508260ff16600660008661ffff1661ffff16815260200190815260200160002060020160048282829054906101000a900463ffffffff16611baa91906144a1565b92506101000a81548163ffffffff021916908363ffffffff1602179055506001600660008661ffff1661ffff16815260200190815260200160002060020160008282829054906101000a900463ffffffff16611c0691906144a1565b92506101000a81548163ffffffff021916908363ffffffff16021790555050505050565b611c32612e89565b80600160006101000a81548173ffffffffffffffffffffffffffffffffffffffff021916908373ffffffffffffffffffffffffffffffffffffffff16021790555050565b60066020528060005260406000206000915090508060000160009054906101000a900461ffff1690806001018054611cad90614645565b80601f0160208091040260200160405190810160405280929190818152602001828054611cd990614645565b8015611d265780601f10611cfb57610100808354040283529160200191611d26565b820191906000526020600020905b815481529060010190602001808311611d0957829003601f168201915b5050505050908060020160009054906101000a900463ffffffff16908060020160049054906101000a900463ffffffff16908060020160089054906101000a900473ffffffffffffffffffffffffffffffffffffffff16908060030154908060040154908060050154908060060160009054906101000a900460ff16905089565b8160006002811115611dbc57611dbb6146fb565b5b600660008361ffff1661ffff16815260200190815260200160002060060160009054906101000a900460ff166002811115611dfa57611df96146fb565b5b1415611e3b576040517f08c379a0000000000000000000000000000000000000000000000000000000008152600401611e3290614155565b60405180910390fd5b82600260003373ffffffffffffffffffffffffffffffffffffffff1673ffffffffffffffffffffffffffffffffffffffff16815260200190815260200160002060009054906101000a900460ff16611ec8576040517f08c379a0000000000000000000000000000000000000000000000000000000008152600401611ebf906140f5565b60405180910390fd5b6000600560008361ffff1661ffff16815260200190815260200160002060003373ffffffffffffffffffffffffffffffffffffffff1673ffffffffffffffffffffffffffffffffffffffff16815260200190815260200160002060009054906101000a900460ff1660ff1614611f73576040517f08c379a0000000000000000000000000000000000000000000000000000000008152600401611f6a90614215565b60405180910390fd5b60016002811115611f8757611f866146fb565b5b600660008661ffff1661ffff16815260200190815260200160002060060160009054906101000a900460ff166002811115611fc557611fc46146fb565b5b14612005576040517f08c379a0000000000000000000000000000000000000000000000000000000008152600401611ffc90614115565b60405180910390fd5b60006001811115612019576120186146fb565b5b83600181111561202c5761202b6146fb565b5b1415612105576001600560008661ffff1661ffff16815260200190815260200160002060003373ffffffffffffffffffffffffffffffffffffffff1673ffffffffffffffffffffffffffffffffffffffff16815260200190815260200160002060006101000a81548160ff021916908360ff1602179055506001600660008661ffff1661ffff16815260200190815260200160002060020160048282829054906101000a900463ffffffff166120e291906144a1565b92506101000a81548163ffffffff021916908363ffffffff1602179055506121d4565b600a600560008661ffff1661ffff16815260200190815260200160002060003373ffffffffffffffffffffffffffffffffffffffff1673ffffffffffffffffffffffffffffffffffffffff16815260200190815260200160002060006101000a81548160ff021916908360ff160217905550600a600660008661ffff1661ffff16815260200190815260200160002060020160048282829054906101000a900463ffffffff166121b591906144a1565b92506101000a81548163ffffffff021916908363ffffffff1602179055505b6001600660008661ffff1661ffff16815260200190815260200160002060020160008282829054906101000a900463ffffffff1661221291906144a1565b92506101000a81548163ffffffff021916908363ffffffff16021790555050505050565b600060036000600760009054906101000a900461ffff1661ffff1661ffff16815260200190815260200160002060003373ffffffffffffffffffffffffffffffffffffffff1673ffffffffffffffffffffffffffffffffffffffff16815260200190815260200160002060009054906101000a900460ff16905090565b60046020528060005260406000206000915090508060000160009054906101000a900461ffff16908060010180546122ea90614645565b80601f016020809104026020016040519081016040528092919081815260200182805461231690614645565b80156123635780601f1061233857610100808354040283529160200191612363565b820191906000526020600020905b81548152906001019060200180831161234657829003601f168201915b5050505050908060020160009054906101000a900463ffffffff16908060020160049054906101000a900463ffffffff16908060020160089054906101000a900473ffffffffffffffffffffffffffffffffffffffff16908060030154908060040154908060050154908060060160009054906101000a900460ff16905089565b80600060028111156123f9576123f86146fb565b5b600660008361ffff1661ffff16815260200190815260200160002060060160009054906101000a900460ff166002811115612437576124366146fb565b5b1415612478576040517f08c379a000000000000000000000000000000000000000000000000000000000815260040161246f90614155565b60405180910390fd5b33600260008273ffffffffffffffffffffffffffffffffffffffff1673ffffffffffffffffffffffffffffffffffffffff16815260200190815260200160002060009054906101000a900460ff16612505576040517f08c379a00000000000000000000000000000000000000000000000000000000081526004016124fc90614255565b60405180910390fd5b600660008461ffff1661ffff16815260200190815260200160002060040154431015612566576040517f08c379a000000000000000000000000000000000000000000000000000000000815260040161255d90614275565b60405180910390fd5b61256f83612fcb565b505050565b600160009054906101000a900473ffffffffffffffffffffffffffffffffffffffff1673ffffffffffffffffffffffffffffffffffffffff163373ffffffffffffffffffffffffffffffffffffffff1614612604576040517f08c379a00000000000000000000000000000000000000000000000000000000081526004016125fb90614195565b60405180910390fd5b80600073ffffffffffffffffffffffffffffffffffffffff168173ffffffffffffffffffffffffffffffffffffffff161415612675576040517f08c379a000000000000000000000000000000000000000000000000000000000815260040161266c906141f5565b60405180910390fd5b600260008373ffffffffffffffffffffffffffffffffffffffff1673ffffffffffffffffffffffffffffffffffffffff16815260200190815260200160002060009054906101000a900460ff1615612702576040517f08c379a00000000000000000000000000000000000000000000000000000000081526004016126f9906141b5565b60405180910390fd5b6001600760049054906101000a900461ffff1661271f9190614413565b600760046101000a81548161ffff021916908361ffff1602179055506001600260008473ffffffffffffffffffffffffffffffffffffffff1673ffffffffffffffffffffffffffffffffffffffff16815260200190815260200160002060006101000a81548160ff0219169083151502179055505050565b61279f612e89565b600073ffffffffffffffffffffffffffffffffffffffff168173ffffffffffffffffffffffffffffffffffffffff16141561280f576040517f08c379a000000000000000000000000000000000000000000000000000000000815260040161280690614135565b60405180910390fd5b61281881612f07565b50565b606060008260ff1667ffffffffffffffff81111561283c5761283b614788565b5b60405190808252806020026020018201604052801561287557816020015b612862613628565b81526020019060019003908161285a5790505b5090506000600760009054906101000a900461ffff1690508061ffff168560ff1611156128a6578192505050612d49565b8061ffff1684866128b791906144db565b60ff161115612b0b576000600190505b8560ff16826128d69190614512565b61ffff168160ff1611612b0557600460008260ff16846128f69190614512565b61ffff1661ffff168152602001908152602001600020604051806101200160405290816000820160009054906101000a900461ffff1661ffff1661ffff16815260200160018201805461294890614645565b80601f016020809104026020016040519081016040528092919081815260200182805461297490614645565b80156129c15780601f10612996576101008083540402835291602001916129c1565b820191906000526020600020905b8154815290600101906020018083116129a457829003601f168201915b505050505081526020016002820160009054906101000a900463ffffffff1663ffffffff1663ffffffff1681526020016002820160049054906101000a900463ffffffff1663ffffffff1663ffffffff1681526020016002820160089054906101000a900473ffffffffffffffffffffffffffffffffffffffff1673ffffffffffffffffffffffffffffffffffffffff1673ffffffffffffffffffffffffffffffffffffffff1681526020016003820154815260200160048201548152602001600582015481526020016006820160009054906101000a900460ff166002811115612aaf57612aae6146fb565b5b6002811115612ac157612ac06146fb565b5b8152505083600183612ad39190614546565b60ff1681518110612ae757612ae6614759565b5b60200260200101819052508080612afd906146a2565b9150506128c7565b50612d43565b6000600190505b8460ff168160ff1611612d4157600460008260ff1684612b329190614512565b61ffff1661ffff168152602001908152602001600020604051806101200160405290816000820160009054906101000a900461ffff1661ffff1661ffff168152602001600182018054612b8490614645565b80601f0160208091040260200160405190810160405280929190818152602001828054612bb090614645565b8015612bfd5780601f10612bd257610100808354040283529160200191612bfd565b820191906000526020600020905b815481529060010190602001808311612be057829003601f168201915b505050505081526020016002820160009054906101000a900463ffffffff1663ffffffff1663ffffffff1681526020016002820160049054906101000a900463ffffffff1663ffffffff1663ffffffff1681526020016002820160089054906101000a900473ffffffffffffffffffffffffffffffffffffffff1673ffffffffffffffffffffffffffffffffffffffff1673ffffffffffffffffffffffffffffffffffffffff1681526020016003820154815260200160048201548152602001600582015481526020016006820160009054906101000a900460ff166002811115612ceb57612cea6146fb565b5b6002811115612cfd57612cfc6146fb565b5b8152505083600183612d0f9190614546565b60ff1681518110612d2357612d22614759565b5b60200260200101819052508080612d39906146a2565b915050612b12565b505b81925050505b92915050565b600760009054906101000a900461ffff1681565b6000600460008361ffff1661ffff16815260200190815260200160002060060160006101000a81548160ff02191690836002811115612da557612da46146fb565b5b021790555043600460008361ffff1661ffff168152602001908152602001600020600501819055508061ffff167f74067fe4d5e2e892aba66fd751ee80c00aadda7333e763e9084815a0c29f6ebe600460008461ffff1661ffff168152602001908152602001600020600101600460008561ffff1661ffff16815260200190815260200160002060020160009054906101000a900463ffffffff16600460008661ffff1661ffff16815260200190815260200160002060020160049054906101000a900463ffffffff16604051612e7e93929190614097565b60405180910390a250565b612e9161312c565b73ffffffffffffffffffffffffffffffffffffffff16612eaf61181e565b73ffffffffffffffffffffffffffffffffffffffff1614612f05576040517f08c379a0000000000000000000000000000000000000000000000000000000008152600401612efc906141d5565b60405180910390fd5b565b60008060009054906101000a900473ffffffffffffffffffffffffffffffffffffffff169050816000806101000a81548173ffffffffffffffffffffffffffffffffffffffff021916908373ffffffffffffffffffffffffffffffffffffffff1602179055508173ffffffffffffffffffffffffffffffffffffffff168173ffffffffffffffffffffffffffffffffffffffff167f8be0079c531659141344cd1fd0a4f28419497f9722a3daafe3b4186f6b6457e060405160405180910390a35050565b6000600660008361ffff1661ffff16815260200190815260200160002060060160009054906101000a900460ff1690506000600660008461ffff1661ffff16815260200190815260200160002060060160006101000a81548160ff0219169083600281111561303d5761303c6146fb565b5b021790555043600660008461ffff1661ffff1681526020019081526020016000206005018190555061306f8282613134565b8161ffff167f5b96817333b28a477ad5fc2de22e1cb6bc0709c42895ac3180b16a8f8f04956d600660008561ffff1661ffff168152602001908152602001600020600101600660008661ffff1661ffff16815260200190815260200160002060020160009054906101000a900463ffffffff16600660008761ffff1661ffff16815260200190815260200160002060020160049054906101000a900463ffffffff1660405161312093929190614097565b60405180910390a25050565b600033905090565b60006002811115613148576131476146fb565b5b81600281111561315b5761315a6146fb565b5b141561319c576040517f08c379a0000000000000000000000000000000000000000000000000000000008152600401613193906140d5565b60405180910390fd5b600760009054906101000a900461ffff1660046000600760009054906101000a900461ffff1661ffff1661ffff16815260200190815260200160002060000160006101000a81548161ffff021916908361ffff160217905550600660008361ffff1661ffff16815260200190815260200160002060020160089054906101000a900473ffffffffffffffffffffffffffffffffffffffff1660046000600760009054906101000a900461ffff1661ffff1661ffff16815260200190815260200160002060020160086101000a81548173ffffffffffffffffffffffffffffffffffffffff021916908373ffffffffffffffffffffffffffffffffffffffff160217905550600660008361ffff1661ffff16815260200190815260200160002060010160046000600760009054906101000a900461ffff1661ffff1661ffff1681526020019081526020016000206001019080546132f890614645565b6133039291906136ac565b504360046000600760009054906101000a900461ffff1661ffff1661ffff16815260200190815260200160002060030181905550600160ff1643613347919061444b565b60046000600760009054906101000a900461ffff1661ffff1661ffff16815260200190815260200160002060040181905550600060046000600760009054906101000a900461ffff1661ffff1661ffff16815260200190815260200160002060020160046101000a81548163ffffffff021916908363ffffffff160217905550600060046000600760009054906101000a900461ffff1661ffff1661ffff16815260200190815260200160002060020160006101000a81548163ffffffff021916908363ffffffff1602179055508060046000600760009054906101000a900461ffff1661ffff1661ffff16815260200190815260200160002060060160006101000a81548160ff02191690836002811115613466576134656146fb565b5b02179055506001600760008282829054906101000a900461ffff1661348b9190614413565b92506101000a81548161ffff021916908361ffff1602179055506001600760009054906101000a900461ffff166134c29190614512565b61ffff167f673c7227a10fc9c3b48d83ed5a3adbaf2bec2ceff9d15cf30c98816a3a16859e600660008561ffff1661ffff1681526020019081526020016000206001016040516135129190614075565b60405180910390a25050565b82805461352a90614645565b90600052602060002090601f01602090048101928261354c5760008555613593565b82601f1061356557803560ff1916838001178555613593565b82800160010185558215613593579182015b82811115613592578235825591602001919060010190613577565b5b5090506135a09190613739565b5090565b604051806101200160405280600061ffff16815260200160608152602001600063ffffffff168152602001600063ffffffff168152602001600073ffffffffffffffffffffffffffffffffffffffff16815260200160008152602001600081526020016000815260200160006002811115613622576136216146fb565b5b81525090565b604051806101200160405280600061ffff16815260200160608152602001600063ffffffff168152602001600063ffffffff168152602001600073ffffffffffffffffffffffffffffffffffffffff168152602001600081526020016000815260200160008152602001600060028111156136a6576136a56146fb565b5b81525090565b8280546136b890614645565b90600052602060002090601f0160209004810192826136da5760008555613728565b82601f106136eb5780548555613728565b8280016001018555821561372857600052602060002091601f016020900482015b8281111561372757825482559160010191906001019061370c565b5b5090506137359190613739565b5090565b5b8082111561375257600081600090555060010161373a565b5090565b60008135905061376581614b3d565b92915050565b60008135905061377a81614b54565b92915050565b60008135905061378f81614b64565b92915050565b60008083601f8401126137ab576137aa6147bc565b5b8235905067ffffffffffffffff8111156137c8576137c76147b7565b5b6020830191508360018202830111156137e4576137e36147c1565b5b9250929050565b6000813590506137fa81614b74565b92915050565b60008135905061380f81614b8b565b92915050565b60006020828403121561382b5761382a6147cb565b5b600061383984828501613756565b91505092915050565b60008060006040848603121561385b5761385a6147cb565b5b600061386986828701613780565b935050602084013567ffffffffffffffff81111561388a576138896147c6565b5b61389686828701613795565b92509250509250925092565b6000602082840312156138b8576138b76147cb565b5b60006138c6848285016137eb565b91505092915050565b600080604083850312156138e6576138e56147cb565b5b60006138f4858286016137eb565b92505060206139058582860161376b565b9150509250929050565b60008060408385031215613926576139256147cb565b5b6000613934858286016137eb565b9250506020613945858286016137eb565b9150509250929050565b60008060408385031215613966576139656147cb565b5b6000613974858286016137eb565b925050602061398585828601613800565b9150509250929050565b600080604083850312156139a6576139a56147cb565b5b60006139b485828601613800565b92505060206139c585828601613800565b9150509250929050565b60006139db8383613e08565b905092915050565b60006139ef8383613ecd565b905092915050565b613a008161457a565b82525050565b613a0f8161457a565b82525050565b6000613a2082614394565b613a2a81856143cf565b935083602082028501613a3c8561435f565b8060005b85811015613a785784840389528151613a5985826139cf565b9450613a64836143b5565b925060208a01995050600181019050613a40565b50829750879550505050505092915050565b6000613a958261439f565b613a9f81856143e0565b935083602082028501613ab18561436f565b8060005b85811015613aed5784840389528151613ace85826139e3565b9450613ad9836143c2565b925060208a01995050600181019050613ab5565b50829750879550505050505092915050565b613b088161458c565b82525050565b613b1781614600565b82525050565b613b2681614600565b82525050565b6000613b37826143aa565b613b4181856143f1565b9350613b51818560208601614612565b613b5a816147d0565b840191505092915050565b6000613b70826143aa565b613b7a8185614402565b9350613b8a818560208601614612565b613b93816147d0565b840191505092915050565b60008154613bab81614645565b613bb58186614402565b94506001821660008114613bd05760018114613be257613c15565b60ff1983168652602086019350613c15565b613beb8561437f565b60005b83811015613c0d57815481890152600182019150602081019050613bee565b808801955050505b50505092915050565b6000613c2b602e83614402565b9150613c36826147e1565b604082019050919050565b6000613c4e601383614402565b9150613c5982614830565b602082019050919050565b6000613c71602d83614402565b9150613c7c82614859565b604082019050919050565b6000613c94602683614402565b9150613c9f826148a8565b604082019050919050565b6000613cb7601283614402565b9150613cc2826148f7565b602082019050919050565b6000613cda603083614402565b9150613ce582614920565b604082019050919050565b6000613cfd602183614402565b9150613d088261496f565b604082019050919050565b6000613d20602183614402565b9150613d2b826149be565b604082019050919050565b6000613d43602083614402565b9150613d4e82614a0d565b602082019050919050565b6000613d66601483614402565b9150613d7182614a36565b602082019050919050565b6000613d89601583614402565b9150613d9482614a5f565b602082019050919050565b6000613dac601c83614402565b9150613db782614a88565b602082019050919050565b6000613dcf601483614402565b9150613dda82614ab1565b602082019050919050565b6000613df2603283614402565b9150613dfd82614ada565b604082019050919050565b600061012083016000830151613e216000860182613f92565b5060208301518482036020860152613e398282613b2c565b9150506040830151613e4e6040860182613fce565b506060830151613e616060860182613fce565b506080830151613e7460808601826139f7565b5060a0830151613e8760a0860182613fb0565b5060c0830151613e9a60c0860182613fb0565b5060e0830151613ead60e0860182613fb0565b50610100830151613ec2610100860182613b0e565b508091505092915050565b600061012083016000830151613ee66000860182613f92565b5060208301518482036020860152613efe8282613b2c565b9150506040830151613f136040860182613fce565b506060830151613f266060860182613fce565b506080830151613f3960808601826139f7565b5060a0830151613f4c60a0860182613fb0565b5060c0830151613f5f60c0860182613fb0565b5060e0830151613f7260e0860182613fb0565b50610100830151613f87610100860182613b0e565b508091505092915050565b613f9b816145ab565b82525050565b613faa816145ab565b82525050565b613fb9816145d9565b82525050565b613fc8816145d9565b82525050565b613fd7816145e3565b82525050565b613fe6816145e3565b82525050565b613ff5816145f3565b82525050565b60006020820190506140106000830184613a06565b92915050565b600060208201905081810360008301526140308184613a15565b905092915050565b600060208201905081810360008301526140528184613a8a565b905092915050565b600060208201905061406f6000830184613aff565b92915050565b6000602082019050818103600083015261408f8184613b9e565b905092915050565b600060608201905081810360008301526140b18186613b9e565b90506140c06020830185613fdd565b6140cd6040830184613fdd565b949350505050565b600060208201905081810360008301526140ee81613c1e565b9050919050565b6000602082019050818103600083015261410e81613c41565b9050919050565b6000602082019050818103600083015261412e81613c64565b9050919050565b6000602082019050818103600083015261414e81613c87565b9050919050565b6000602082019050818103600083015261416e81613caa565b9050919050565b6000602082019050818103600083015261418e81613ccd565b9050919050565b600060208201905081810360008301526141ae81613cf0565b9050919050565b600060208201905081810360008301526141ce81613d13565b9050919050565b600060208201905081810360008301526141ee81613d36565b9050919050565b6000602082019050818103600083015261420e81613d59565b9050919050565b6000602082019050818103600083015261422e81613d7c565b9050919050565b6000602082019050818103600083015261424e81613d9f565b9050919050565b6000602082019050818103600083015261426e81613dc2565b9050919050565b6000602082019050818103600083015261428e81613de5565b9050919050565b60006020820190506142aa6000830184613fa1565b92915050565b6000610120820190506142c6600083018c613fa1565b81810360208301526142d8818b613b65565b90506142e7604083018a613fdd565b6142f46060830189613fdd565b6143016080830188613a06565b61430e60a0830187613fbf565b61431b60c0830186613fbf565b61432860e0830185613fbf565b614336610100830184613b1d565b9a9950505050505050505050565b60006020820190506143596000830184613fec565b92915050565b6000819050602082019050919050565b6000819050602082019050919050565b60008190508160005260206000209050919050565b600081519050919050565b600081519050919050565b600081519050919050565b6000602082019050919050565b6000602082019050919050565b600082825260208201905092915050565b600082825260208201905092915050565b600082825260208201905092915050565b600082825260208201905092915050565b600061441e826145ab565b9150614429836145ab565b92508261ffff038211156144405761443f6146cc565b5b828201905092915050565b6000614456826145d9565b9150614461836145d9565b9250827fffffffffffffffffffffffffffffffffffffffffffffffffffffffffffffffff03821115614496576144956146cc565b5b828201905092915050565b60006144ac826145e3565b91506144b7836145e3565b92508263ffffffff038211156144d0576144cf6146cc565b5b828201905092915050565b60006144e6826145f3565b91506144f1836145f3565b92508260ff03821115614507576145066146cc565b5b828201905092915050565b600061451d826145ab565b9150614528836145ab565b92508282101561453b5761453a6146cc565b5b828203905092915050565b6000614551826145f3565b915061455c836145f3565b92508282101561456f5761456e6146cc565b5b828203905092915050565b6000614585826145b9565b9050919050565b60008115159050919050565b60008190506145a682614b29565b919050565b600061ffff82169050919050565b600073ffffffffffffffffffffffffffffffffffffffff82169050919050565b6000819050919050565b600063ffffffff82169050919050565b600060ff82169050919050565b600061460b82614598565b9050919050565b60005b83811015614630578082015181840152602081019050614615565b8381111561463f576000848401525b50505050565b6000600282049050600182168061465d57607f821691505b602082108114156146715761467061472a565b5b50919050565b6000614682826145ab565b915061ffff821415614697576146966146cc565b5b600182019050919050565b60006146ad826145f3565b915060ff8214156146c1576146c06146cc565b5b600182019050919050565b7f4e487b7100000000000000000000000000000000000000000000000000000000600052601160045260246000fd5b7f4e487b7100000000000000000000000000000000000000000000000000000000600052602160045260246000fd5b7f4e487b7100000000000000000000000000000000000000000000000000000000600052602260045260246000fd5b7f4e487b7100000000000000000000000000000000000000000000000000000000600052603260045260246000fd5b7f4e487b7100000000000000000000000000000000000000000000000000000000600052604160045260246000fd5b600080fd5b600080fd5b600080fd5b600080fd5b600080fd5b6000601f19601f8301169050919050565b7f566f74696e6720547970652063616e6e6f7420626520636c6f7365642061742060008201527f696e697469616c2073746174652e000000000000000000000000000000000000602082015250565b7f596f7520617265206e6f74206120766f74657200000000000000000000000000600082015250565b7f43757272656e746c7920776520617265206e6f7420766f74696e67206f6e207460008201527f6869732066756e6374696f6e2e00000000000000000000000000000000000000602082015250565b7f4f776e61626c653a206e6577206f776e657220697320746865207a65726f206160008201527f6464726573730000000000000000000000000000000000000000000000000000602082015250565b7f5468657265206973206e6f20766f74696e670000000000000000000000000000600082015250565b7f50726f706f73616c20547970652063616e6e6f7420626520636c6f736564206160008201527f7420696e697469616c2073746174652e00000000000000000000000000000000602082015250565b7f596f7520617265206e6f7420746865204b6579486f6c646572436f6e7472616360008201527f7400000000000000000000000000000000000000000000000000000000000000602082015250565b7f476976656e206164647265737320697320616c7265616479206120766f74657260008201527f2e00000000000000000000000000000000000000000000000000000000000000602082015250565b7f4f776e61626c653a2063616c6c6572206973206e6f7420746865206f776e6572600082015250565b7f5a65726f204164647265737320656e7465726564000000000000000000000000600082015250565b7f596f75206861766520766f746564206265666f72650000000000000000000000600082015250565b7f506c6561736520766f7465206265747765656e203120746f2031302e00000000600082015250565b7f596f7520617265206e6f74206120766f74657272000000000000000000000000600082015250565b7f566f74696e672063616e6e6f7420626520636c6f736564206265666f7265206960008201527f7427732064657369676e6174656420746f2e0000000000000000000000000000602082015250565b60038110614b3a57614b396146fb565b5b50565b614b468161457a565b8114614b5157600080fd5b50565b60028110614b6157600080fd5b50565b60038110614b7157600080fd5b50565b614b7d816145ab565b8114614b8857600080fd5b50565b614b94816145f3565b8114614b9f57600080fd5b5056fea26469706673582212209ef6847fe650e20c7baa8cebd8f0534a2403c33c6c72d160c3785b425e4416f964736f6c63430008070033",
					"opcodes": "PUSH1 0x80 PUSH1 0x40 MSTORE PUSH1 0x0 PUSH1 0x7 PUSH1 0x0 PUSH2 0x100 EXP DUP2 SLOAD DUP2 PUSH2 0xFFFF MUL NOT AND SWAP1 DUP4 PUSH2 0xFFFF AND MUL OR SWAP1 SSTORE POP PUSH1 0x0 PUSH1 0x7 PUSH1 0x2 PUSH2 0x100 EXP DUP2 SLOAD DUP2 PUSH2 0xFFFF MUL NOT AND SWAP1 DUP4 PUSH2 0xFFFF AND MUL OR SWAP1 SSTORE POP PUSH1 0x0 PUSH1 0x7 PUSH1 0x4 PUSH2 0x100 EXP DUP2 SLOAD DUP2 PUSH2 0xFFFF MUL NOT AND SWAP1 DUP4 PUSH2 0xFFFF AND MUL OR SWAP1 SSTORE POP CALLVALUE DUP1 ISZERO PUSH3 0x6B JUMPI PUSH1 0x0 DUP1 REVERT JUMPDEST POP PUSH3 0x8C PUSH3 0x80 PUSH3 0x92 PUSH1 0x20 SHL PUSH1 0x20 SHR JUMP JUMPDEST PUSH3 0x9A PUSH1 0x20 SHL PUSH1 0x20 SHR JUMP JUMPDEST PUSH3 0x15E JUMP JUMPDEST PUSH1 0x0 CALLER SWAP1 POP SWAP1 JUMP JUMPDEST PUSH1 0x0 DUP1 PUSH1 0x0 SWAP1 SLOAD SWAP1 PUSH2 0x100 EXP SWAP1 DIV PUSH20 0xFFFFFFFFFFFFFFFFFFFFFFFFFFFFFFFFFFFFFFFF AND SWAP1 POP DUP2 PUSH1 0x0 DUP1 PUSH2 0x100 EXP DUP2 SLOAD DUP2 PUSH20 0xFFFFFFFFFFFFFFFFFFFFFFFFFFFFFFFFFFFFFFFF MUL NOT AND SWAP1 DUP4 PUSH20 0xFFFFFFFFFFFFFFFFFFFFFFFFFFFFFFFFFFFFFFFF AND MUL OR SWAP1 SSTORE POP DUP2 PUSH20 0xFFFFFFFFFFFFFFFFFFFFFFFFFFFFFFFFFFFFFFFF AND DUP2 PUSH20 0xFFFFFFFFFFFFFFFFFFFFFFFFFFFFFFFFFFFFFFFF AND PUSH32 0x8BE0079C531659141344CD1FD0A4F28419497F9722A3DAAFE3B4186F6B6457E0 PUSH1 0x40 MLOAD PUSH1 0x40 MLOAD DUP1 SWAP2 SUB SWAP1 LOG3 POP POP JUMP JUMPDEST PUSH2 0x4BD8 DUP1 PUSH3 0x16E PUSH1 0x0 CODECOPY PUSH1 0x0 RETURN INVALID PUSH1 0x80 PUSH1 0x40 MSTORE CALLVALUE DUP1 ISZERO PUSH2 0x10 JUMPI PUSH1 0x0 DUP1 REVERT JUMPDEST POP PUSH1 0x4 CALLDATASIZE LT PUSH2 0x142 JUMPI PUSH1 0x0 CALLDATALOAD PUSH1 0xE0 SHR DUP1 PUSH4 0x9EA061C9 GT PUSH2 0xB8 JUMPI DUP1 PUSH4 0xDDD2D1FD GT PUSH2 0x7C JUMPI DUP1 PUSH4 0xDDD2D1FD EQ PUSH2 0x331 JUMPI DUP1 PUSH4 0xDE513E3D EQ PUSH2 0x369 JUMPI DUP1 PUSH4 0xEA31A64C EQ PUSH2 0x385 JUMPI DUP1 PUSH4 0xF2FDE38B EQ PUSH2 0x3A1 JUMPI DUP1 PUSH4 0xFAE04215 EQ PUSH2 0x3BD JUMPI DUP1 PUSH4 0xFBB39651 EQ PUSH2 0x3ED JUMPI PUSH2 0x142 JUMP JUMPDEST DUP1 PUSH4 0x9EA061C9 EQ PUSH2 0x287 JUMPI DUP1 PUSH4 0xBF2ABA79 EQ PUSH2 0x2A3 JUMPI DUP1 PUSH4 0xC497EFA3 EQ PUSH2 0x2BF JUMPI DUP1 PUSH4 0xCF5EBB38 EQ PUSH2 0x2F7 JUMPI DUP1 PUSH4 0xDA92D1D9 EQ PUSH2 0x313 JUMPI PUSH2 0x142 JUMP JUMPDEST DUP1 PUSH4 0x45E641D0 GT PUSH2 0x10A JUMPI DUP1 PUSH4 0x45E641D0 EQ PUSH2 0x1EB JUMPI DUP1 PUSH4 0x481AA215 EQ PUSH2 0x209 JUMPI DUP1 PUSH4 0x4D313BB8 EQ PUSH2 0x225 JUMPI DUP1 PUSH4 0x6F71E065 EQ PUSH2 0x241 JUMPI DUP1 PUSH4 0x715018A6 EQ PUSH2 0x25F JUMPI DUP1 PUSH4 0x8DA5CB5B EQ PUSH2 0x269 JUMPI PUSH2 0x142 JUMP JUMPDEST DUP1 PUSH4 0x4F397CF EQ PUSH2 0x147 JUMPI DUP1 PUSH4 0x156C2DA6 EQ PUSH2 0x165 JUMPI DUP1 PUSH4 0x1FFC5042 EQ PUSH2 0x181 JUMPI DUP1 PUSH4 0x2DFCA445 EQ PUSH2 0x19D JUMPI DUP1 PUSH4 0x393A97EF EQ PUSH2 0x1BB JUMPI JUMPDEST PUSH1 0x0 DUP1 REVERT JUMPDEST PUSH2 0x14F PUSH2 0x40B JUMP JUMPDEST PUSH1 0x40 MLOAD PUSH2 0x15C SWAP2 SWAP1 PUSH2 0x405A JUMP JUMPDEST PUSH1 0x40 MLOAD DUP1 SWAP2 SUB SWAP1 RETURN JUMPDEST PUSH2 0x17F PUSH1 0x4 DUP1 CALLDATASIZE SUB DUP2 ADD SWAP1 PUSH2 0x17A SWAP2 SWAP1 PUSH2 0x38A2 JUMP JUMPDEST PUSH2 0x45F JUMP JUMPDEST STOP JUMPDEST PUSH2 0x19B PUSH1 0x4 DUP1 CALLDATASIZE SUB DUP2 ADD SWAP1 PUSH2 0x196 SWAP2 SWAP1 PUSH2 0x3842 JUMP JUMPDEST PUSH2 0x5EF JUMP JUMPDEST STOP JUMPDEST PUSH2 0x1A5 PUSH2 0xA17 JUMP JUMPDEST PUSH1 0x40 MLOAD PUSH2 0x1B2 SWAP2 SWAP1 PUSH2 0x4295 JUMP JUMPDEST PUSH1 0x40 MLOAD DUP1 SWAP2 SUB SWAP1 RETURN JUMPDEST PUSH2 0x1D5 PUSH1 0x4 DUP1 CALLDATASIZE SUB DUP2 ADD SWAP1 PUSH2 0x1D0 SWAP2 SWAP1 PUSH2 0x390F JUMP JUMPDEST PUSH2 0xA2B JUMP JUMPDEST PUSH1 0x40 MLOAD PUSH2 0x1E2 SWAP2 SWAP1 PUSH2 0x4016 JUMP JUMPDEST PUSH1 0x40 MLOAD DUP1 SWAP2 SUB SWAP1 RETURN JUMPDEST PUSH2 0x1F3 PUSH2 0xF5E JUMP JUMPDEST PUSH1 0x40 MLOAD PUSH2 0x200 SWAP2 SWAP1 PUSH2 0x3FFB JUMP JUMPDEST PUSH1 0x40 MLOAD DUP1 SWAP2 SUB SWAP1 RETURN JUMPDEST PUSH2 0x223 PUSH1 0x4 DUP1 CALLDATASIZE SUB DUP2 ADD SWAP1 PUSH2 0x21E SWAP2 SWAP1 PUSH2 0x38CF JUMP JUMPDEST PUSH2 0xF84 JUMP JUMPDEST STOP JUMPDEST PUSH2 0x23F PUSH1 0x4 DUP1 CALLDATASIZE SUB DUP2 ADD SWAP1 PUSH2 0x23A SWAP2 SWAP1 PUSH2 0x394F JUMP JUMPDEST PUSH2 0x1413 JUMP JUMPDEST STOP JUMPDEST PUSH2 0x249 PUSH2 0x17F6 JUMP JUMPDEST PUSH1 0x40 MLOAD PUSH2 0x256 SWAP2 SWAP1 PUSH2 0x4295 JUMP JUMPDEST PUSH1 0x40 MLOAD DUP1 SWAP2 SUB SWAP1 RETURN JUMPDEST PUSH2 0x267 PUSH2 0x180A JUMP JUMPDEST STOP JUMPDEST PUSH2 0x271 PUSH2 0x181E JUMP JUMPDEST PUSH1 0x40 MLOAD PUSH2 0x27E SWAP2 SWAP1 PUSH2 0x3FFB JUMP JUMPDEST PUSH1 0x40 MLOAD DUP1 SWAP2 SUB SWAP1 RETURN JUMPDEST PUSH2 0x2A1 PUSH1 0x4 DUP1 CALLDATASIZE SUB DUP2 ADD SWAP1 PUSH2 0x29C SWAP2 SWAP1 PUSH2 0x394F JUMP JUMPDEST PUSH2 0x1847 JUMP JUMPDEST STOP JUMPDEST PUSH2 0x2BD PUSH1 0x4 DUP1 CALLDATASIZE SUB DUP2 ADD SWAP1 PUSH2 0x2B8 SWAP2 SWAP1 PUSH2 0x3815 JUMP JUMPDEST PUSH2 0x1C2A JUMP JUMPDEST STOP JUMPDEST PUSH2 0x2D9 PUSH1 0x4 DUP1 CALLDATASIZE SUB DUP2 ADD SWAP1 PUSH2 0x2D4 SWAP2 SWAP1 PUSH2 0x38A2 JUMP JUMPDEST PUSH2 0x1C76 JUMP JUMPDEST PUSH1 0x40 MLOAD PUSH2 0x2EE SWAP10 SWAP9 SWAP8 SWAP7 SWAP6 SWAP5 SWAP4 SWAP3 SWAP2 SWAP1 PUSH2 0x42B0 JUMP JUMPDEST PUSH1 0x40 MLOAD DUP1 SWAP2 SUB SWAP1 RETURN JUMPDEST PUSH2 0x311 PUSH1 0x4 DUP1 CALLDATASIZE SUB DUP2 ADD SWAP1 PUSH2 0x30C SWAP2 SWAP1 PUSH2 0x38CF JUMP JUMPDEST PUSH2 0x1DA7 JUMP JUMPDEST STOP JUMPDEST PUSH2 0x31B PUSH2 0x2236 JUMP JUMPDEST PUSH1 0x40 MLOAD PUSH2 0x328 SWAP2 SWAP1 PUSH2 0x4344 JUMP JUMPDEST PUSH1 0x40 MLOAD DUP1 SWAP2 SUB SWAP1 RETURN JUMPDEST PUSH2 0x34B PUSH1 0x4 DUP1 CALLDATASIZE SUB DUP2 ADD SWAP1 PUSH2 0x346 SWAP2 SWAP1 PUSH2 0x38A2 JUMP JUMPDEST PUSH2 0x22B3 JUMP JUMPDEST PUSH1 0x40 MLOAD PUSH2 0x360 SWAP10 SWAP9 SWAP8 SWAP7 SWAP6 SWAP5 SWAP4 SWAP3 SWAP2 SWAP1 PUSH2 0x42B0 JUMP JUMPDEST PUSH1 0x40 MLOAD DUP1 SWAP2 SUB SWAP1 RETURN JUMPDEST PUSH2 0x383 PUSH1 0x4 DUP1 CALLDATASIZE SUB DUP2 ADD SWAP1 PUSH2 0x37E SWAP2 SWAP1 PUSH2 0x38A2 JUMP JUMPDEST PUSH2 0x23E4 JUMP JUMPDEST STOP JUMPDEST PUSH2 0x39F PUSH1 0x4 DUP1 CALLDATASIZE SUB DUP2 ADD SWAP1 PUSH2 0x39A SWAP2 SWAP1 PUSH2 0x3815 JUMP JUMPDEST PUSH2 0x2574 JUMP JUMPDEST STOP JUMPDEST PUSH2 0x3BB PUSH1 0x4 DUP1 CALLDATASIZE SUB DUP2 ADD SWAP1 PUSH2 0x3B6 SWAP2 SWAP1 PUSH2 0x3815 JUMP JUMPDEST PUSH2 0x2797 JUMP JUMPDEST STOP JUMPDEST PUSH2 0x3D7 PUSH1 0x4 DUP1 CALLDATASIZE SUB DUP2 ADD SWAP1 PUSH2 0x3D2 SWAP2 SWAP1 PUSH2 0x398F JUMP JUMPDEST PUSH2 0x281B JUMP JUMPDEST PUSH1 0x40 MLOAD PUSH2 0x3E4 SWAP2 SWAP1 PUSH2 0x4038 JUMP JUMPDEST PUSH1 0x40 MLOAD DUP1 SWAP2 SUB SWAP1 RETURN JUMPDEST PUSH2 0x3F5 PUSH2 0x2D4F JUMP JUMPDEST PUSH1 0x40 MLOAD PUSH2 0x402 SWAP2 SWAP1 PUSH2 0x4295 JUMP JUMPDEST PUSH1 0x40 MLOAD DUP1 SWAP2 SUB SWAP1 RETURN JUMPDEST PUSH1 0x0 PUSH1 0x2 PUSH1 0x0 CALLER PUSH20 0xFFFFFFFFFFFFFFFFFFFFFFFFFFFFFFFFFFFFFFFF AND PUSH20 0xFFFFFFFFFFFFFFFFFFFFFFFFFFFFFFFFFFFFFFFF AND DUP2 MSTORE PUSH1 0x20 ADD SWAP1 DUP2 MSTORE PUSH1 0x20 ADD PUSH1 0x0 KECCAK256 PUSH1 0x0 SWAP1 SLOAD SWAP1 PUSH2 0x100 EXP SWAP1 DIV PUSH1 0xFF AND SWAP1 POP SWAP1 JUMP JUMPDEST DUP1 PUSH1 0x0 PUSH1 0x2 DUP2 GT ISZERO PUSH2 0x474 JUMPI PUSH2 0x473 PUSH2 0x46FB JUMP JUMPDEST JUMPDEST PUSH1 0x4 PUSH1 0x0 DUP4 PUSH2 0xFFFF AND PUSH2 0xFFFF AND DUP2 MSTORE PUSH1 0x20 ADD SWAP1 DUP2 MSTORE PUSH1 0x20 ADD PUSH1 0x0 KECCAK256 PUSH1 0x6 ADD PUSH1 0x0 SWAP1 SLOAD SWAP1 PUSH2 0x100 EXP SWAP1 DIV PUSH1 0xFF AND PUSH1 0x2 DUP2 GT ISZERO PUSH2 0x4B2 JUMPI PUSH2 0x4B1 PUSH2 0x46FB JUMP JUMPDEST JUMPDEST EQ ISZERO PUSH2 0x4F3 JUMPI PUSH1 0x40 MLOAD PUSH32 0x8C379A000000000000000000000000000000000000000000000000000000000 DUP2 MSTORE PUSH1 0x4 ADD PUSH2 0x4EA SWAP1 PUSH2 0x4155 JUMP JUMPDEST PUSH1 0x40 MLOAD DUP1 SWAP2 SUB SWAP1 REVERT JUMPDEST CALLER PUSH1 0x2 PUSH1 0x0 DUP3 PUSH20 0xFFFFFFFFFFFFFFFFFFFFFFFFFFFFFFFFFFFFFFFF AND PUSH20 0xFFFFFFFFFFFFFFFFFFFFFFFFFFFFFFFFFFFFFFFF AND DUP2 MSTORE PUSH1 0x20 ADD SWAP1 DUP2 MSTORE PUSH1 0x20 ADD PUSH1 0x0 KECCAK256 PUSH1 0x0 SWAP1 SLOAD SWAP1 PUSH2 0x100 EXP SWAP1 DIV PUSH1 0xFF AND PUSH2 0x580 JUMPI PUSH1 0x40 MLOAD PUSH32 0x8C379A000000000000000000000000000000000000000000000000000000000 DUP2 MSTORE PUSH1 0x4 ADD PUSH2 0x577 SWAP1 PUSH2 0x4255 JUMP JUMPDEST PUSH1 0x40 MLOAD DUP1 SWAP2 SUB SWAP1 REVERT JUMPDEST PUSH1 0x4 PUSH1 0x0 DUP5 PUSH2 0xFFFF AND PUSH2 0xFFFF AND DUP2 MSTORE PUSH1 0x20 ADD SWAP1 DUP2 MSTORE PUSH1 0x20 ADD PUSH1 0x0 KECCAK256 PUSH1 0x4 ADD SLOAD NUMBER LT ISZERO PUSH2 0x5E1 JUMPI PUSH1 0x40 MLOAD PUSH32 0x8C379A000000000000000000000000000000000000000000000000000000000 DUP2 MSTORE PUSH1 0x4 ADD PUSH2 0x5D8 SWAP1 PUSH2 0x4275 JUMP JUMPDEST PUSH1 0x40 MLOAD DUP1 SWAP2 SUB SWAP1 REVERT JUMPDEST PUSH2 0x5EA DUP4 PUSH2 0x2D63 JUMP JUMPDEST POP POP POP JUMP JUMPDEST DUP2 DUP2 DUP1 DUP1 PUSH1 0x1F ADD PUSH1 0x20 DUP1 SWAP2 DIV MUL PUSH1 0x20 ADD PUSH1 0x40 MLOAD SWAP1 DUP2 ADD PUSH1 0x40 MSTORE DUP1 SWAP4 SWAP3 SWAP2 SWAP1 DUP2 DUP2 MSTORE PUSH1 0x20 ADD DUP4 DUP4 DUP1 DUP3 DUP5 CALLDATACOPY PUSH1 0x0 DUP2 DUP5 ADD MSTORE PUSH1 0x1F NOT PUSH1 0x1F DUP3 ADD AND SWAP1 POP DUP1 DUP4 ADD SWAP3 POP POP POP POP POP POP POP PUSH1 0x0 DUP2 MLOAD GT PUSH2 0x642 JUMPI PUSH1 0x0 DUP1 REVERT JUMPDEST CALLER PUSH1 0x2 PUSH1 0x0 DUP3 PUSH20 0xFFFFFFFFFFFFFFFFFFFFFFFFFFFFFFFFFFFFFFFF AND PUSH20 0xFFFFFFFFFFFFFFFFFFFFFFFFFFFFFFFFFFFFFFFF AND DUP2 MSTORE PUSH1 0x20 ADD SWAP1 DUP2 MSTORE PUSH1 0x20 ADD PUSH1 0x0 KECCAK256 PUSH1 0x0 SWAP1 SLOAD SWAP1 PUSH2 0x100 EXP SWAP1 DIV PUSH1 0xFF AND PUSH2 0x6CF JUMPI PUSH1 0x40 MLOAD PUSH32 0x8C379A000000000000000000000000000000000000000000000000000000000 DUP2 MSTORE PUSH1 0x4 ADD PUSH2 0x6C6 SWAP1 PUSH2 0x4255 JUMP JUMPDEST PUSH1 0x40 MLOAD DUP1 SWAP2 SUB SWAP1 REVERT JUMPDEST PUSH1 0x0 PUSH1 0x2 DUP2 GT ISZERO PUSH2 0x6E3 JUMPI PUSH2 0x6E2 PUSH2 0x46FB JUMP JUMPDEST JUMPDEST DUP6 PUSH1 0x2 DUP2 GT ISZERO PUSH2 0x6F6 JUMPI PUSH2 0x6F5 PUSH2 0x46FB JUMP JUMPDEST JUMPDEST EQ ISZERO PUSH2 0x737 JUMPI PUSH1 0x40 MLOAD PUSH32 0x8C379A000000000000000000000000000000000000000000000000000000000 DUP2 MSTORE PUSH1 0x4 ADD PUSH2 0x72E SWAP1 PUSH2 0x4175 JUMP JUMPDEST PUSH1 0x40 MLOAD DUP1 SWAP2 SUB SWAP1 REVERT JUMPDEST PUSH1 0x7 PUSH1 0x2 SWAP1 SLOAD SWAP1 PUSH2 0x100 EXP SWAP1 DIV PUSH2 0xFFFF AND PUSH1 0x6 PUSH1 0x0 PUSH1 0x7 PUSH1 0x2 SWAP1 SLOAD SWAP1 PUSH2 0x100 EXP SWAP1 DIV PUSH2 0xFFFF AND PUSH2 0xFFFF AND PUSH2 0xFFFF AND DUP2 MSTORE PUSH1 0x20 ADD SWAP1 DUP2 MSTORE PUSH1 0x20 ADD PUSH1 0x0 KECCAK256 PUSH1 0x0 ADD PUSH1 0x0 PUSH2 0x100 EXP DUP2 SLOAD DUP2 PUSH2 0xFFFF MUL NOT AND SWAP1 DUP4 PUSH2 0xFFFF AND MUL OR SWAP1 SSTORE POP DUP4 DUP4 PUSH1 0x6 PUSH1 0x0 PUSH1 0x7 PUSH1 0x2 SWAP1 SLOAD SWAP1 PUSH2 0x100 EXP SWAP1 DIV PUSH2 0xFFFF AND PUSH2 0xFFFF AND PUSH2 0xFFFF AND DUP2 MSTORE PUSH1 0x20 ADD SWAP1 DUP2 MSTORE PUSH1 0x20 ADD PUSH1 0x0 KECCAK256 PUSH1 0x1 ADD SWAP2 SWAP1 PUSH2 0x7CD SWAP3 SWAP2 SWAP1 PUSH2 0x351E JUMP JUMPDEST POP PUSH1 0x0 PUSH1 0x6 PUSH1 0x0 PUSH1 0x7 PUSH1 0x2 SWAP1 SLOAD SWAP1 PUSH2 0x100 EXP SWAP1 DIV PUSH2 0xFFFF AND PUSH2 0xFFFF AND PUSH2 0xFFFF AND DUP2 MSTORE PUSH1 0x20 ADD SWAP1 DUP2 MSTORE PUSH1 0x20 ADD PUSH1 0x0 KECCAK256 PUSH1 0x2 ADD PUSH1 0x0 PUSH2 0x100 EXP DUP2 SLOAD DUP2 PUSH4 0xFFFFFFFF MUL NOT AND SWAP1 DUP4 PUSH4 0xFFFFFFFF AND MUL OR SWAP1 SSTORE POP PUSH1 0x0 PUSH1 0x6 PUSH1 0x0 PUSH1 0x7 PUSH1 0x2 SWAP1 SLOAD SWAP1 PUSH2 0x100 EXP SWAP1 DIV PUSH2 0xFFFF AND PUSH2 0xFFFF AND PUSH2 0xFFFF AND DUP2 MSTORE PUSH1 0x20 ADD SWAP1 DUP2 MSTORE PUSH1 0x20 ADD PUSH1 0x0 KECCAK256 PUSH1 0x2 ADD PUSH1 0x4 PUSH2 0x100 EXP DUP2 SLOAD DUP2 PUSH4 0xFFFFFFFF MUL NOT AND SWAP1 DUP4 PUSH4 0xFFFFFFFF AND MUL OR SWAP1 SSTORE POP CALLER PUSH1 0x6 PUSH1 0x0 PUSH1 0x7 PUSH1 0x2 SWAP1 SLOAD SWAP1 PUSH2 0x100 EXP SWAP1 DIV PUSH2 0xFFFF AND PUSH2 0xFFFF AND PUSH2 0xFFFF AND DUP2 MSTORE PUSH1 0x20 ADD SWAP1 DUP2 MSTORE PUSH1 0x20 ADD PUSH1 0x0 KECCAK256 PUSH1 0x2 ADD PUSH1 0x8 PUSH2 0x100 EXP DUP2 SLOAD DUP2 PUSH20 0xFFFFFFFFFFFFFFFFFFFFFFFFFFFFFFFFFFFFFFFF MUL NOT AND SWAP1 DUP4 PUSH20 0xFFFFFFFFFFFFFFFFFFFFFFFFFFFFFFFFFFFFFFFF AND MUL OR SWAP1 SSTORE POP NUMBER PUSH1 0x6 PUSH1 0x0 PUSH1 0x7 PUSH1 0x2 SWAP1 SLOAD SWAP1 PUSH2 0x100 EXP SWAP1 DIV PUSH2 0xFFFF AND PUSH2 0xFFFF AND PUSH2 0xFFFF AND DUP2 MSTORE PUSH1 0x20 ADD SWAP1 DUP2 MSTORE PUSH1 0x20 ADD PUSH1 0x0 KECCAK256 PUSH1 0x3 ADD DUP2 SWAP1 SSTORE POP PUSH1 0x1 PUSH1 0xFF AND NUMBER PUSH2 0x91A SWAP2 SWAP1 PUSH2 0x444B JUMP JUMPDEST PUSH1 0x6 PUSH1 0x0 PUSH1 0x7 PUSH1 0x2 SWAP1 SLOAD SWAP1 PUSH2 0x100 EXP SWAP1 DIV PUSH2 0xFFFF AND PUSH2 0xFFFF AND PUSH2 0xFFFF AND DUP2 MSTORE PUSH1 0x20 ADD SWAP1 DUP2 MSTORE PUSH1 0x20 ADD PUSH1 0x0 KECCAK256 PUSH1 0x4 ADD DUP2 SWAP1 SSTORE POP PUSH1 0x0 PUSH1 0x6 PUSH1 0x0 PUSH1 0x7 PUSH1 0x2 SWAP1 SLOAD SWAP1 PUSH2 0x100 EXP SWAP1 DIV PUSH2 0xFFFF AND PUSH2 0xFFFF AND PUSH2 0xFFFF AND DUP2 MSTORE PUSH1 0x20 ADD SWAP1 DUP2 MSTORE PUSH1 0x20 ADD PUSH1 0x0 KECCAK256 PUSH1 0x5 ADD DUP2 SWAP1 SSTORE POP DUP5 PUSH1 0x6 PUSH1 0x0 PUSH1 0x7 PUSH1 0x2 SWAP1 SLOAD SWAP1 PUSH2 0x100 EXP SWAP1 DIV PUSH2 0xFFFF AND PUSH2 0xFFFF AND PUSH2 0xFFFF AND DUP2 MSTORE PUSH1 0x20 ADD SWAP1 DUP2 MSTORE PUSH1 0x20 ADD PUSH1 0x0 KECCAK256 PUSH1 0x6 ADD PUSH1 0x0 PUSH2 0x100 EXP DUP2 SLOAD DUP2 PUSH1 0xFF MUL NOT AND SWAP1 DUP4 PUSH1 0x2 DUP2 GT ISZERO PUSH2 0x9D1 JUMPI PUSH2 0x9D0 PUSH2 0x46FB JUMP JUMPDEST JUMPDEST MUL OR SWAP1 SSTORE POP PUSH1 0x1 PUSH1 0x7 PUSH1 0x2 DUP3 DUP3 DUP3 SWAP1 SLOAD SWAP1 PUSH2 0x100 EXP SWAP1 DIV PUSH2 0xFFFF AND PUSH2 0x9F6 SWAP2 SWAP1 PUSH2 0x4413 JUMP JUMPDEST SWAP3 POP PUSH2 0x100 EXP DUP2 SLOAD DUP2 PUSH2 0xFFFF MUL NOT AND SWAP1 DUP4 PUSH2 0xFFFF AND MUL OR SWAP1 SSTORE POP POP POP POP POP POP JUMP JUMPDEST PUSH1 0x7 PUSH1 0x2 SWAP1 SLOAD SWAP1 PUSH2 0x100 EXP SWAP1 DIV PUSH2 0xFFFF AND DUP2 JUMP JUMPDEST PUSH1 0x60 PUSH1 0x0 DUP3 PUSH2 0xFFFF AND PUSH8 0xFFFFFFFFFFFFFFFF DUP2 GT ISZERO PUSH2 0xA4D JUMPI PUSH2 0xA4C PUSH2 0x4788 JUMP JUMPDEST JUMPDEST PUSH1 0x40 MLOAD SWAP1 DUP1 DUP3 MSTORE DUP1 PUSH1 0x20 MUL PUSH1 0x20 ADD DUP3 ADD PUSH1 0x40 MSTORE DUP1 ISZERO PUSH2 0xA86 JUMPI DUP2 PUSH1 0x20 ADD JUMPDEST PUSH2 0xA73 PUSH2 0x35A4 JUMP JUMPDEST DUP2 MSTORE PUSH1 0x20 ADD SWAP1 PUSH1 0x1 SWAP1 SUB SWAP1 DUP2 PUSH2 0xA6B JUMPI SWAP1 POP JUMPDEST POP SWAP1 POP PUSH1 0x0 PUSH1 0x7 PUSH1 0x2 SWAP1 SLOAD SWAP1 PUSH2 0x100 EXP SWAP1 DIV PUSH2 0xFFFF AND SWAP1 POP DUP1 PUSH2 0xFFFF AND DUP6 PUSH2 0xFFFF AND GT ISZERO PUSH2 0xAB8 JUMPI DUP2 SWAP3 POP POP POP PUSH2 0xF58 JUMP JUMPDEST DUP1 PUSH2 0xFFFF AND DUP5 DUP7 PUSH2 0xAC9 SWAP2 SWAP1 PUSH2 0x4413 JUMP JUMPDEST PUSH2 0xFFFF AND GT ISZERO PUSH2 0xD1A JUMPI PUSH1 0x0 PUSH1 0x1 SWAP1 POP JUMPDEST DUP6 DUP3 PUSH2 0xAE6 SWAP2 SWAP1 PUSH2 0x4512 JUMP JUMPDEST PUSH2 0xFFFF AND DUP2 PUSH2 0xFFFF AND GT PUSH2 0xD14 JUMPI PUSH1 0x6 PUSH1 0x0 DUP3 DUP5 PUSH2 0xB04 SWAP2 SWAP1 PUSH2 0x4512 JUMP JUMPDEST PUSH2 0xFFFF AND PUSH2 0xFFFF AND DUP2 MSTORE PUSH1 0x20 ADD SWAP1 DUP2 MSTORE PUSH1 0x20 ADD PUSH1 0x0 KECCAK256 PUSH1 0x40 MLOAD DUP1 PUSH2 0x120 ADD PUSH1 0x40 MSTORE SWAP1 DUP2 PUSH1 0x0 DUP3 ADD PUSH1 0x0 SWAP1 SLOAD SWAP1 PUSH2 0x100 EXP SWAP1 DIV PUSH2 0xFFFF AND PUSH2 0xFFFF AND PUSH2 0xFFFF AND DUP2 MSTORE PUSH1 0x20 ADD PUSH1 0x1 DUP3 ADD DUP1 SLOAD PUSH2 0xB56 SWAP1 PUSH2 0x4645 JUMP JUMPDEST DUP1 PUSH1 0x1F ADD PUSH1 0x20 DUP1 SWAP2 DIV MUL PUSH1 0x20 ADD PUSH1 0x40 MLOAD SWAP1 DUP2 ADD PUSH1 0x40 MSTORE DUP1 SWAP3 SWAP2 SWAP1 DUP2 DUP2 MSTORE PUSH1 0x20 ADD DUP3 DUP1 SLOAD PUSH2 0xB82 SWAP1 PUSH2 0x4645 JUMP JUMPDEST DUP1 ISZERO PUSH2 0xBCF JUMPI DUP1 PUSH1 0x1F LT PUSH2 0xBA4 JUMPI PUSH2 0x100 DUP1 DUP4 SLOAD DIV MUL DUP4 MSTORE SWAP2 PUSH1 0x20 ADD SWAP2 PUSH2 0xBCF JUMP JUMPDEST DUP3 ADD SWAP2 SWAP1 PUSH1 0x0 MSTORE PUSH1 0x20 PUSH1 0x0 KECCAK256 SWAP1 JUMPDEST DUP2 SLOAD DUP2 MSTORE SWAP1 PUSH1 0x1 ADD SWAP1 PUSH1 0x20 ADD DUP1 DUP4 GT PUSH2 0xBB2 JUMPI DUP3 SWAP1 SUB PUSH1 0x1F AND DUP3 ADD SWAP2 JUMPDEST POP POP POP POP POP DUP2 MSTORE PUSH1 0x20 ADD PUSH1 0x2 DUP3 ADD PUSH1 0x0 SWAP1 SLOAD SWAP1 PUSH2 0x100 EXP SWAP1 DIV PUSH4 0xFFFFFFFF AND PUSH4 0xFFFFFFFF AND PUSH4 0xFFFFFFFF AND DUP2 MSTORE PUSH1 0x20 ADD PUSH1 0x2 DUP3 ADD PUSH1 0x4 SWAP1 SLOAD SWAP1 PUSH2 0x100 EXP SWAP1 DIV PUSH4 0xFFFFFFFF AND PUSH4 0xFFFFFFFF AND PUSH4 0xFFFFFFFF AND DUP2 MSTORE PUSH1 0x20 ADD PUSH1 0x2 DUP3 ADD PUSH1 0x8 SWAP1 SLOAD SWAP1 PUSH2 0x100 EXP SWAP1 DIV PUSH20 0xFFFFFFFFFFFFFFFFFFFFFFFFFFFFFFFFFFFFFFFF AND PUSH20 0xFFFFFFFFFFFFFFFFFFFFFFFFFFFFFFFFFFFFFFFF AND PUSH20 0xFFFFFFFFFFFFFFFFFFFFFFFFFFFFFFFFFFFFFFFF AND DUP2 MSTORE PUSH1 0x20 ADD PUSH1 0x3 DUP3 ADD SLOAD DUP2 MSTORE PUSH1 0x20 ADD PUSH1 0x4 DUP3 ADD SLOAD DUP2 MSTORE PUSH1 0x20 ADD PUSH1 0x5 DUP3 ADD SLOAD DUP2 MSTORE PUSH1 0x20 ADD PUSH1 0x6 DUP3 ADD PUSH1 0x0 SWAP1 SLOAD SWAP1 PUSH2 0x100 EXP SWAP1 DIV PUSH1 0xFF AND PUSH1 0x2 DUP2 GT ISZERO PUSH2 0xCBD JUMPI PUSH2 0xCBC PUSH2 0x46FB JUMP JUMPDEST JUMPDEST PUSH1 0x2 DUP2 GT ISZERO PUSH2 0xCCF JUMPI PUSH2 0xCCE PUSH2 0x46FB JUMP JUMPDEST JUMPDEST DUP2 MSTORE POP POP DUP4 PUSH1 0x1 DUP4 PUSH2 0xCE1 SWAP2 SWAP1 PUSH2 0x4512 JUMP JUMPDEST PUSH2 0xFFFF AND DUP2 MLOAD DUP2 LT PUSH2 0xCF6 JUMPI PUSH2 0xCF5 PUSH2 0x4759 JUMP JUMPDEST JUMPDEST PUSH1 0x20 MUL PUSH1 0x20 ADD ADD DUP2 SWAP1 MSTORE POP DUP1 DUP1 PUSH2 0xD0C SWAP1 PUSH2 0x4677 JUMP JUMPDEST SWAP2 POP POP PUSH2 0xADA JUMP JUMPDEST POP PUSH2 0xF52 JUMP JUMPDEST PUSH1 0x0 PUSH1 0x1 SWAP1 POP JUMPDEST DUP5 PUSH2 0xFFFF AND DUP2 PUSH2 0xFFFF AND GT PUSH2 0xF50 JUMPI PUSH1 0x6 PUSH1 0x0 DUP3 DUP5 PUSH2 0xD40 SWAP2 SWAP1 PUSH2 0x4512 JUMP JUMPDEST PUSH2 0xFFFF AND PUSH2 0xFFFF AND DUP2 MSTORE PUSH1 0x20 ADD SWAP1 DUP2 MSTORE PUSH1 0x20 ADD PUSH1 0x0 KECCAK256 PUSH1 0x40 MLOAD DUP1 PUSH2 0x120 ADD PUSH1 0x40 MSTORE SWAP1 DUP2 PUSH1 0x0 DUP3 ADD PUSH1 0x0 SWAP1 SLOAD SWAP1 PUSH2 0x100 EXP SWAP1 DIV PUSH2 0xFFFF AND PUSH2 0xFFFF AND PUSH2 0xFFFF AND DUP2 MSTORE PUSH1 0x20 ADD PUSH1 0x1 DUP3 ADD DUP1 SLOAD PUSH2 0xD92 SWAP1 PUSH2 0x4645 JUMP JUMPDEST DUP1 PUSH1 0x1F ADD PUSH1 0x20 DUP1 SWAP2 DIV MUL PUSH1 0x20 ADD PUSH1 0x40 MLOAD SWAP1 DUP2 ADD PUSH1 0x40 MSTORE DUP1 SWAP3 SWAP2 SWAP1 DUP2 DUP2 MSTORE PUSH1 0x20 ADD DUP3 DUP1 SLOAD PUSH2 0xDBE SWAP1 PUSH2 0x4645 JUMP JUMPDEST DUP1 ISZERO PUSH2 0xE0B JUMPI DUP1 PUSH1 0x1F LT PUSH2 0xDE0 JUMPI PUSH2 0x100 DUP1 DUP4 SLOAD DIV MUL DUP4 MSTORE SWAP2 PUSH1 0x20 ADD SWAP2 PUSH2 0xE0B JUMP JUMPDEST DUP3 ADD SWAP2 SWAP1 PUSH1 0x0 MSTORE PUSH1 0x20 PUSH1 0x0 KECCAK256 SWAP1 JUMPDEST DUP2 SLOAD DUP2 MSTORE SWAP1 PUSH1 0x1 ADD SWAP1 PUSH1 0x20 ADD DUP1 DUP4 GT PUSH2 0xDEE JUMPI DUP3 SWAP1 SUB PUSH1 0x1F AND DUP3 ADD SWAP2 JUMPDEST POP POP POP POP POP DUP2 MSTORE PUSH1 0x20 ADD PUSH1 0x2 DUP3 ADD PUSH1 0x0 SWAP1 SLOAD SWAP1 PUSH2 0x100 EXP SWAP1 DIV PUSH4 0xFFFFFFFF AND PUSH4 0xFFFFFFFF AND PUSH4 0xFFFFFFFF AND DUP2 MSTORE PUSH1 0x20 ADD PUSH1 0x2 DUP3 ADD PUSH1 0x4 SWAP1 SLOAD SWAP1 PUSH2 0x100 EXP SWAP1 DIV PUSH4 0xFFFFFFFF AND PUSH4 0xFFFFFFFF AND PUSH4 0xFFFFFFFF AND DUP2 MSTORE PUSH1 0x20 ADD PUSH1 0x2 DUP3 ADD PUSH1 0x8 SWAP1 SLOAD SWAP1 PUSH2 0x100 EXP SWAP1 DIV PUSH20 0xFFFFFFFFFFFFFFFFFFFFFFFFFFFFFFFFFFFFFFFF AND PUSH20 0xFFFFFFFFFFFFFFFFFFFFFFFFFFFFFFFFFFFFFFFF AND PUSH20 0xFFFFFFFFFFFFFFFFFFFFFFFFFFFFFFFFFFFFFFFF AND DUP2 MSTORE PUSH1 0x20 ADD PUSH1 0x3 DUP3 ADD SLOAD DUP2 MSTORE PUSH1 0x20 ADD PUSH1 0x4 DUP3 ADD SLOAD DUP2 MSTORE PUSH1 0x20 ADD PUSH1 0x5 DUP3 ADD SLOAD DUP2 MSTORE PUSH1 0x20 ADD PUSH1 0x6 DUP3 ADD PUSH1 0x0 SWAP1 SLOAD SWAP1 PUSH2 0x100 EXP SWAP1 DIV PUSH1 0xFF AND PUSH1 0x2 DUP2 GT ISZERO PUSH2 0xEF9 JUMPI PUSH2 0xEF8 PUSH2 0x46FB JUMP JUMPDEST JUMPDEST PUSH1 0x2 DUP2 GT ISZERO PUSH2 0xF0B JUMPI PUSH2 0xF0A PUSH2 0x46FB JUMP JUMPDEST JUMPDEST DUP2 MSTORE POP POP DUP4 PUSH1 0x1 DUP4 PUSH2 0xF1D SWAP2 SWAP1 PUSH2 0x4512 JUMP JUMPDEST PUSH2 0xFFFF AND DUP2 MLOAD DUP2 LT PUSH2 0xF32 JUMPI PUSH2 0xF31 PUSH2 0x4759 JUMP JUMPDEST JUMPDEST PUSH1 0x20 MUL PUSH1 0x20 ADD ADD DUP2 SWAP1 MSTORE POP DUP1 DUP1 PUSH2 0xF48 SWAP1 PUSH2 0x4677 JUMP JUMPDEST SWAP2 POP POP PUSH2 0xD21 JUMP JUMPDEST POP JUMPDEST DUP2 SWAP3 POP POP POP JUMPDEST SWAP3 SWAP2 POP POP JUMP JUMPDEST PUSH1 0x1 PUSH1 0x0 SWAP1 SLOAD SWAP1 PUSH2 0x100 EXP SWAP1 DIV PUSH20 0xFFFFFFFFFFFFFFFFFFFFFFFFFFFFFFFFFFFFFFFF AND DUP2 JUMP JUMPDEST DUP2 PUSH1 0x0 PUSH1 0x2 DUP2 GT ISZERO PUSH2 0xF99 JUMPI PUSH2 0xF98 PUSH2 0x46FB JUMP JUMPDEST JUMPDEST PUSH1 0x4 PUSH1 0x0 DUP4 PUSH2 0xFFFF AND PUSH2 0xFFFF AND DUP2 MSTORE PUSH1 0x20 ADD SWAP1 DUP2 MSTORE PUSH1 0x20 ADD PUSH1 0x0 KECCAK256 PUSH1 0x6 ADD PUSH1 0x0 SWAP1 SLOAD SWAP1 PUSH2 0x100 EXP SWAP1 DIV PUSH1 0xFF AND PUSH1 0x2 DUP2 GT ISZERO PUSH2 0xFD7 JUMPI PUSH2 0xFD6 PUSH2 0x46FB JUMP JUMPDEST JUMPDEST EQ ISZERO PUSH2 0x1018 JUMPI PUSH1 0x40 MLOAD PUSH32 0x8C379A000000000000000000000000000000000000000000000000000000000 DUP2 MSTORE PUSH1 0x4 ADD PUSH2 0x100F SWAP1 PUSH2 0x4155 JUMP JUMPDEST PUSH1 0x40 MLOAD DUP1 SWAP2 SUB SWAP1 REVERT JUMPDEST DUP3 PUSH1 0x2 PUSH1 0x0 CALLER PUSH20 0xFFFFFFFFFFFFFFFFFFFFFFFFFFFFFFFFFFFFFFFF AND PUSH20 0xFFFFFFFFFFFFFFFFFFFFFFFFFFFFFFFFFFFFFFFF AND DUP2 MSTORE PUSH1 0x20 ADD SWAP1 DUP2 MSTORE PUSH1 0x20 ADD PUSH1 0x0 KECCAK256 PUSH1 0x0 SWAP1 SLOAD SWAP1 PUSH2 0x100 EXP SWAP1 DIV PUSH1 0xFF AND PUSH2 0x10A5 JUMPI PUSH1 0x40 MLOAD PUSH32 0x8C379A000000000000000000000000000000000000000000000000000000000 DUP2 MSTORE PUSH1 0x4 ADD PUSH2 0x109C SWAP1 PUSH2 0x40F5 JUMP JUMPDEST PUSH1 0x40 MLOAD DUP1 SWAP2 SUB SWAP1 REVERT JUMPDEST PUSH1 0x0 PUSH1 0x3 PUSH1 0x0 DUP4 PUSH2 0xFFFF AND PUSH2 0xFFFF AND DUP2 MSTORE PUSH1 0x20 ADD SWAP1 DUP2 MSTORE PUSH1 0x20 ADD PUSH1 0x0 KECCAK256 PUSH1 0x0 CALLER PUSH20 0xFFFFFFFFFFFFFFFFFFFFFFFFFFFFFFFFFFFFFFFF AND PUSH20 0xFFFFFFFFFFFFFFFFFFFFFFFFFFFFFFFFFFFFFFFF AND DUP2 MSTORE PUSH1 0x20 ADD SWAP1 DUP2 MSTORE PUSH1 0x20 ADD PUSH1 0x0 KECCAK256 PUSH1 0x0 SWAP1 SLOAD SWAP1 PUSH2 0x100 EXP SWAP1 DIV PUSH1 0xFF AND PUSH1 0xFF AND EQ PUSH2 0x1150 JUMPI PUSH1 0x40 MLOAD PUSH32 0x8C379A000000000000000000000000000000000000000000000000000000000 DUP2 MSTORE PUSH1 0x4 ADD PUSH2 0x1147 SWAP1 PUSH2 0x4215 JUMP JUMPDEST PUSH1 0x40 MLOAD DUP1 SWAP2 SUB SWAP1 REVERT JUMPDEST PUSH1 0x1 PUSH1 0x2 DUP2 GT ISZERO PUSH2 0x1164 JUMPI PUSH2 0x1163 PUSH2 0x46FB JUMP JUMPDEST JUMPDEST PUSH1 0x4 PUSH1 0x0 DUP7 PUSH2 0xFFFF AND PUSH2 0xFFFF AND DUP2 MSTORE PUSH1 0x20 ADD SWAP1 DUP2 MSTORE PUSH1 0x20 ADD PUSH1 0x0 KECCAK256 PUSH1 0x6 ADD PUSH1 0x0 SWAP1 SLOAD SWAP1 PUSH2 0x100 EXP SWAP1 DIV PUSH1 0xFF AND PUSH1 0x2 DUP2 GT ISZERO PUSH2 0x11A2 JUMPI PUSH2 0x11A1 PUSH2 0x46FB JUMP JUMPDEST JUMPDEST EQ PUSH2 0x11E2 JUMPI PUSH1 0x40 MLOAD PUSH32 0x8C379A000000000000000000000000000000000000000000000000000000000 DUP2 MSTORE PUSH1 0x4 ADD PUSH2 0x11D9 SWAP1 PUSH2 0x4115 JUMP JUMPDEST PUSH1 0x40 MLOAD DUP1 SWAP2 SUB SWAP1 REVERT JUMPDEST PUSH1 0x0 PUSH1 0x1 DUP2 GT ISZERO PUSH2 0x11F6 JUMPI PUSH2 0x11F5 PUSH2 0x46FB JUMP JUMPDEST JUMPDEST DUP4 PUSH1 0x1 DUP2 GT ISZERO PUSH2 0x1209 JUMPI PUSH2 0x1208 PUSH2 0x46FB JUMP JUMPDEST JUMPDEST EQ ISZERO PUSH2 0x12E2 JUMPI PUSH1 0x1 PUSH1 0x3 PUSH1 0x0 DUP7 PUSH2 0xFFFF AND PUSH2 0xFFFF AND DUP2 MSTORE PUSH1 0x20 ADD SWAP1 DUP2 MSTORE PUSH1 0x20 ADD PUSH1 0x0 KECCAK256 PUSH1 0x0 CALLER PUSH20 0xFFFFFFFFFFFFFFFFFFFFFFFFFFFFFFFFFFFFFFFF AND PUSH20 0xFFFFFFFFFFFFFFFFFFFFFFFFFFFFFFFFFFFFFFFF AND DUP2 MSTORE PUSH1 0x20 ADD SWAP1 DUP2 MSTORE PUSH1 0x20 ADD PUSH1 0x0 KECCAK256 PUSH1 0x0 PUSH2 0x100 EXP DUP2 SLOAD DUP2 PUSH1 0xFF MUL NOT AND SWAP1 DUP4 PUSH1 0xFF AND MUL OR SWAP1 SSTORE POP PUSH1 0x1 PUSH1 0x4 PUSH1 0x0 DUP7 PUSH2 0xFFFF AND PUSH2 0xFFFF AND DUP2 MSTORE PUSH1 0x20 ADD SWAP1 DUP2 MSTORE PUSH1 0x20 ADD PUSH1 0x0 KECCAK256 PUSH1 0x2 ADD PUSH1 0x4 DUP3 DUP3 DUP3 SWAP1 SLOAD SWAP1 PUSH2 0x100 EXP SWAP1 DIV PUSH4 0xFFFFFFFF AND PUSH2 0x12BF SWAP2 SWAP1 PUSH2 0x44A1 JUMP JUMPDEST SWAP3 POP PUSH2 0x100 EXP DUP2 SLOAD DUP2 PUSH4 0xFFFFFFFF MUL NOT AND SWAP1 DUP4 PUSH4 0xFFFFFFFF AND MUL OR SWAP1 SSTORE POP PUSH2 0x13B1 JUMP JUMPDEST PUSH1 0xA PUSH1 0x3 PUSH1 0x0 DUP7 PUSH2 0xFFFF AND PUSH2 0xFFFF AND DUP2 MSTORE PUSH1 0x20 ADD SWAP1 DUP2 MSTORE PUSH1 0x20 ADD PUSH1 0x0 KECCAK256 PUSH1 0x0 CALLER PUSH20 0xFFFFFFFFFFFFFFFFFFFFFFFFFFFFFFFFFFFFFFFF AND PUSH20 0xFFFFFFFFFFFFFFFFFFFFFFFFFFFFFFFFFFFFFFFF AND DUP2 MSTORE PUSH1 0x20 ADD SWAP1 DUP2 MSTORE PUSH1 0x20 ADD PUSH1 0x0 KECCAK256 PUSH1 0x0 PUSH2 0x100 EXP DUP2 SLOAD DUP2 PUSH1 0xFF MUL NOT AND SWAP1 DUP4 PUSH1 0xFF AND MUL OR SWAP1 SSTORE POP PUSH1 0xA PUSH1 0x4 PUSH1 0x0 DUP7 PUSH2 0xFFFF AND PUSH2 0xFFFF AND DUP2 MSTORE PUSH1 0x20 ADD SWAP1 DUP2 MSTORE PUSH1 0x20 ADD PUSH1 0x0 KECCAK256 PUSH1 0x2 ADD PUSH1 0x4 DUP3 DUP3 DUP3 SWAP1 SLOAD SWAP1 PUSH2 0x100 EXP SWAP1 DIV PUSH4 0xFFFFFFFF AND PUSH2 0x1392 SWAP2 SWAP1 PUSH2 0x44A1 JUMP JUMPDEST SWAP3 POP PUSH2 0x100 EXP DUP2 SLOAD DUP2 PUSH4 0xFFFFFFFF MUL NOT AND SWAP1 DUP4 PUSH4 0xFFFFFFFF AND MUL OR SWAP1 SSTORE POP JUMPDEST PUSH1 0x1 PUSH1 0x4 PUSH1 0x0 DUP7 PUSH2 0xFFFF AND PUSH2 0xFFFF AND DUP2 MSTORE PUSH1 0x20 ADD SWAP1 DUP2 MSTORE PUSH1 0x20 ADD PUSH1 0x0 KECCAK256 PUSH1 0x2 ADD PUSH1 0x0 DUP3 DUP3 DUP3 SWAP1 SLOAD SWAP1 PUSH2 0x100 EXP SWAP1 DIV PUSH4 0xFFFFFFFF AND PUSH2 0x13EF SWAP2 SWAP1 PUSH2 0x44A1 JUMP JUMPDEST SWAP3 POP PUSH2 0x100 EXP DUP2 SLOAD DUP2 PUSH4 0xFFFFFFFF MUL NOT AND SWAP1 DUP4 PUSH4 0xFFFFFFFF AND MUL OR SWAP1 SSTORE POP POP POP POP POP JUMP JUMPDEST DUP2 PUSH1 0x0 PUSH1 0x2 DUP2 GT ISZERO PUSH2 0x1428 JUMPI PUSH2 0x1427 PUSH2 0x46FB JUMP JUMPDEST JUMPDEST PUSH1 0x4 PUSH1 0x0 DUP4 PUSH2 0xFFFF AND PUSH2 0xFFFF AND DUP2 MSTORE PUSH1 0x20 ADD SWAP1 DUP2 MSTORE PUSH1 0x20 ADD PUSH1 0x0 KECCAK256 PUSH1 0x6 ADD PUSH1 0x0 SWAP1 SLOAD SWAP1 PUSH2 0x100 EXP SWAP1 DIV PUSH1 0xFF AND PUSH1 0x2 DUP2 GT ISZERO PUSH2 0x1466 JUMPI PUSH2 0x1465 PUSH2 0x46FB JUMP JUMPDEST JUMPDEST EQ ISZERO PUSH2 0x14A7 JUMPI PUSH1 0x40 MLOAD PUSH32 0x8C379A000000000000000000000000000000000000000000000000000000000 DUP2 MSTORE PUSH1 0x4 ADD PUSH2 0x149E SWAP1 PUSH2 0x4155 JUMP JUMPDEST PUSH1 0x40 MLOAD DUP1 SWAP2 SUB SWAP1 REVERT JUMPDEST DUP3 PUSH1 0x2 PUSH1 0x0 CALLER PUSH20 0xFFFFFFFFFFFFFFFFFFFFFFFFFFFFFFFFFFFFFFFF AND PUSH20 0xFFFFFFFFFFFFFFFFFFFFFFFFFFFFFFFFFFFFFFFF AND DUP2 MSTORE PUSH1 0x20 ADD SWAP1 DUP2 MSTORE PUSH1 0x20 ADD PUSH1 0x0 KECCAK256 PUSH1 0x0 SWAP1 SLOAD SWAP1 PUSH2 0x100 EXP SWAP1 DIV PUSH1 0xFF AND PUSH2 0x1534 JUMPI PUSH1 0x40 MLOAD PUSH32 0x8C379A000000000000000000000000000000000000000000000000000000000 DUP2 MSTORE PUSH1 0x4 ADD PUSH2 0x152B SWAP1 PUSH2 0x40F5 JUMP JUMPDEST PUSH1 0x40 MLOAD DUP1 SWAP2 SUB SWAP1 REVERT JUMPDEST PUSH1 0x0 PUSH1 0x3 PUSH1 0x0 DUP4 PUSH2 0xFFFF AND PUSH2 0xFFFF AND DUP2 MSTORE PUSH1 0x20 ADD SWAP1 DUP2 MSTORE PUSH1 0x20 ADD PUSH1 0x0 KECCAK256 PUSH1 0x0 CALLER PUSH20 0xFFFFFFFFFFFFFFFFFFFFFFFFFFFFFFFFFFFFFFFF AND PUSH20 0xFFFFFFFFFFFFFFFFFFFFFFFFFFFFFFFFFFFFFFFF AND DUP2 MSTORE PUSH1 0x20 ADD SWAP1 DUP2 MSTORE PUSH1 0x20 ADD PUSH1 0x0 KECCAK256 PUSH1 0x0 SWAP1 SLOAD SWAP1 PUSH2 0x100 EXP SWAP1 DIV PUSH1 0xFF AND PUSH1 0xFF AND EQ PUSH2 0x15DF JUMPI PUSH1 0x40 MLOAD PUSH32 0x8C379A000000000000000000000000000000000000000000000000000000000 DUP2 MSTORE PUSH1 0x4 ADD PUSH2 0x15D6 SWAP1 PUSH2 0x4215 JUMP JUMPDEST PUSH1 0x40 MLOAD DUP1 SWAP2 SUB SWAP1 REVERT JUMPDEST PUSH1 0x0 DUP4 PUSH1 0xFF AND GT DUP1 ISZERO PUSH2 0x15F5 JUMPI POP PUSH1 0xB DUP4 PUSH1 0xFF AND LT JUMPDEST PUSH2 0x1634 JUMPI PUSH1 0x40 MLOAD PUSH32 0x8C379A000000000000000000000000000000000000000000000000000000000 DUP2 MSTORE PUSH1 0x4 ADD PUSH2 0x162B SWAP1 PUSH2 0x4235 JUMP JUMPDEST PUSH1 0x40 MLOAD DUP1 SWAP2 SUB SWAP1 REVERT JUMPDEST PUSH1 0x2 DUP1 DUP2 GT ISZERO PUSH2 0x1647 JUMPI PUSH2 0x1646 PUSH2 0x46FB JUMP JUMPDEST JUMPDEST PUSH1 0x4 PUSH1 0x0 DUP7 PUSH2 0xFFFF AND PUSH2 0xFFFF AND DUP2 MSTORE PUSH1 0x20 ADD SWAP1 DUP2 MSTORE PUSH1 0x20 ADD PUSH1 0x0 KECCAK256 PUSH1 0x6 ADD PUSH1 0x0 SWAP1 SLOAD SWAP1 PUSH2 0x100 EXP SWAP1 DIV PUSH1 0xFF AND PUSH1 0x2 DUP2 GT ISZERO PUSH2 0x1685 JUMPI PUSH2 0x1684 PUSH2 0x46FB JUMP JUMPDEST JUMPDEST EQ PUSH2 0x16C5 JUMPI PUSH1 0x40 MLOAD PUSH32 0x8C379A000000000000000000000000000000000000000000000000000000000 DUP2 MSTORE PUSH1 0x4 ADD PUSH2 0x16BC SWAP1 PUSH2 0x4115 JUMP JUMPDEST PUSH1 0x40 MLOAD DUP1 SWAP2 SUB SWAP1 REVERT JUMPDEST DUP3 PUSH1 0x3 PUSH1 0x0 DUP7 PUSH2 0xFFFF AND PUSH2 0xFFFF AND DUP2 MSTORE PUSH1 0x20 ADD SWAP1 DUP2 MSTORE PUSH1 0x20 ADD PUSH1 0x0 KECCAK256 PUSH1 0x0 CALLER PUSH20 0xFFFFFFFFFFFFFFFFFFFFFFFFFFFFFFFFFFFFFFFF AND PUSH20 0xFFFFFFFFFFFFFFFFFFFFFFFFFFFFFFFFFFFFFFFF AND DUP2 MSTORE PUSH1 0x20 ADD SWAP1 DUP2 MSTORE PUSH1 0x20 ADD PUSH1 0x0 KECCAK256 PUSH1 0x0 PUSH2 0x100 EXP DUP2 SLOAD DUP2 PUSH1 0xFF MUL NOT AND SWAP1 DUP4 PUSH1 0xFF AND MUL OR SWAP1 SSTORE POP DUP3 PUSH1 0xFF AND PUSH1 0x4 PUSH1 0x0 DUP7 PUSH2 0xFFFF AND PUSH2 0xFFFF AND DUP2 MSTORE PUSH1 0x20 ADD SWAP1 DUP2 MSTORE PUSH1 0x20 ADD PUSH1 0x0 KECCAK256 PUSH1 0x2 ADD PUSH1 0x4 DUP3 DUP3 DUP3 SWAP1 SLOAD SWAP1 PUSH2 0x100 EXP SWAP1 DIV PUSH4 0xFFFFFFFF AND PUSH2 0x1776 SWAP2 SWAP1 PUSH2 0x44A1 JUMP JUMPDEST SWAP3 POP PUSH2 0x100 EXP DUP2 SLOAD DUP2 PUSH4 0xFFFFFFFF MUL NOT AND SWAP1 DUP4 PUSH4 0xFFFFFFFF AND MUL OR SWAP1 SSTORE POP PUSH1 0x1 PUSH1 0x4 PUSH1 0x0 DUP7 PUSH2 0xFFFF AND PUSH2 0xFFFF AND DUP2 MSTORE PUSH1 0x20 ADD SWAP1 DUP2 MSTORE PUSH1 0x20 ADD PUSH1 0x0 KECCAK256 PUSH1 0x2 ADD PUSH1 0x0 DUP3 DUP3 DUP3 SWAP1 SLOAD SWAP1 PUSH2 0x100 EXP SWAP1 DIV PUSH4 0xFFFFFFFF AND PUSH2 0x17D2 SWAP2 SWAP1 PUSH2 0x44A1 JUMP JUMPDEST SWAP3 POP PUSH2 0x100 EXP DUP2 SLOAD DUP2 PUSH4 0xFFFFFFFF MUL NOT AND SWAP1 DUP4 PUSH4 0xFFFFFFFF AND MUL OR SWAP1 SSTORE POP POP POP POP POP JUMP JUMPDEST PUSH1 0x7 PUSH1 0x4 SWAP1 SLOAD SWAP1 PUSH2 0x100 EXP SWAP1 DIV PUSH2 0xFFFF AND DUP2 JUMP JUMPDEST PUSH2 0x1812 PUSH2 0x2E89 JUMP JUMPDEST PUSH2 0x181C PUSH1 0x0 PUSH2 0x2F07 JUMP JUMPDEST JUMP JUMPDEST PUSH1 0x0 DUP1 PUSH1 0x0 SWAP1 SLOAD SWAP1 PUSH2 0x100 EXP SWAP1 DIV PUSH20 0xFFFFFFFFFFFFFFFFFFFFFFFFFFFFFFFFFFFFFFFF AND SWAP1 POP SWAP1 JUMP JUMPDEST DUP2 PUSH1 0x0 PUSH1 0x2 DUP2 GT ISZERO PUSH2 0x185C JUMPI PUSH2 0x185B PUSH2 0x46FB JUMP JUMPDEST JUMPDEST PUSH1 0x6 PUSH1 0x0 DUP4 PUSH2 0xFFFF AND PUSH2 0xFFFF AND DUP2 MSTORE PUSH1 0x20 ADD SWAP1 DUP2 MSTORE PUSH1 0x20 ADD PUSH1 0x0 KECCAK256 PUSH1 0x6 ADD PUSH1 0x0 SWAP1 SLOAD SWAP1 PUSH2 0x100 EXP SWAP1 DIV PUSH1 0xFF AND PUSH1 0x2 DUP2 GT ISZERO PUSH2 0x189A JUMPI PUSH2 0x1899 PUSH2 0x46FB JUMP JUMPDEST JUMPDEST EQ ISZERO PUSH2 0x18DB JUMPI PUSH1 0x40 MLOAD PUSH32 0x8C379A000000000000000000000000000000000000000000000000000000000 DUP2 MSTORE PUSH1 0x4 ADD PUSH2 0x18D2 SWAP1 PUSH2 0x4155 JUMP JUMPDEST PUSH1 0x40 MLOAD DUP1 SWAP2 SUB SWAP1 REVERT JUMPDEST DUP3 PUSH1 0x2 PUSH1 0x0 CALLER PUSH20 0xFFFFFFFFFFFFFFFFFFFFFFFFFFFFFFFFFFFFFFFF AND PUSH20 0xFFFFFFFFFFFFFFFFFFFFFFFFFFFFFFFFFFFFFFFF AND DUP2 MSTORE PUSH1 0x20 ADD SWAP1 DUP2 MSTORE PUSH1 0x20 ADD PUSH1 0x0 KECCAK256 PUSH1 0x0 SWAP1 SLOAD SWAP1 PUSH2 0x100 EXP SWAP1 DIV PUSH1 0xFF AND PUSH2 0x1968 JUMPI PUSH1 0x40 MLOAD PUSH32 0x8C379A000000000000000000000000000000000000000000000000000000000 DUP2 MSTORE PUSH1 0x4 ADD PUSH2 0x195F SWAP1 PUSH2 0x40F5 JUMP JUMPDEST PUSH1 0x40 MLOAD DUP1 SWAP2 SUB SWAP1 REVERT JUMPDEST PUSH1 0x0 PUSH1 0x3 PUSH1 0x0 DUP4 PUSH2 0xFFFF AND PUSH2 0xFFFF AND DUP2 MSTORE PUSH1 0x20 ADD SWAP1 DUP2 MSTORE PUSH1 0x20 ADD PUSH1 0x0 KECCAK256 PUSH1 0x0 CALLER PUSH20 0xFFFFFFFFFFFFFFFFFFFFFFFFFFFFFFFFFFFFFFFF AND PUSH20 0xFFFFFFFFFFFFFFFFFFFFFFFFFFFFFFFFFFFFFFFF AND DUP2 MSTORE PUSH1 0x20 ADD SWAP1 DUP2 MSTORE PUSH1 0x20 ADD PUSH1 0x0 KECCAK256 PUSH1 0x0 SWAP1 SLOAD SWAP1 PUSH2 0x100 EXP SWAP1 DIV PUSH1 0xFF AND PUSH1 0xFF AND EQ PUSH2 0x1A13 JUMPI PUSH1 0x40 MLOAD PUSH32 0x8C379A000000000000000000000000000000000000000000000000000000000 DUP2 MSTORE PUSH1 0x4 ADD PUSH2 0x1A0A SWAP1 PUSH2 0x4215 JUMP JUMPDEST PUSH1 0x40 MLOAD DUP1 SWAP2 SUB SWAP1 REVERT JUMPDEST DUP3 PUSH1 0xFF AND PUSH1 0x0 LT DUP1 ISZERO PUSH2 0x1A29 JUMPI POP PUSH1 0xB DUP4 PUSH1 0xFF AND LT JUMPDEST PUSH2 0x1A68 JUMPI PUSH1 0x40 MLOAD PUSH32 0x8C379A000000000000000000000000000000000000000000000000000000000 DUP2 MSTORE PUSH1 0x4 ADD PUSH2 0x1A5F SWAP1 PUSH2 0x4235 JUMP JUMPDEST PUSH1 0x40 MLOAD DUP1 SWAP2 SUB SWAP1 REVERT JUMPDEST PUSH1 0x2 DUP1 DUP2 GT ISZERO PUSH2 0x1A7B JUMPI PUSH2 0x1A7A PUSH2 0x46FB JUMP JUMPDEST JUMPDEST PUSH1 0x6 PUSH1 0x0 DUP7 PUSH2 0xFFFF AND PUSH2 0xFFFF AND DUP2 MSTORE PUSH1 0x20 ADD SWAP1 DUP2 MSTORE PUSH1 0x20 ADD PUSH1 0x0 KECCAK256 PUSH1 0x6 ADD PUSH1 0x0 SWAP1 SLOAD SWAP1 PUSH2 0x100 EXP SWAP1 DIV PUSH1 0xFF AND PUSH1 0x2 DUP2 GT ISZERO PUSH2 0x1AB9 JUMPI PUSH2 0x1AB8 PUSH2 0x46FB JUMP JUMPDEST JUMPDEST EQ PUSH2 0x1AF9 JUMPI PUSH1 0x40 MLOAD PUSH32 0x8C379A000000000000000000000000000000000000000000000000000000000 DUP2 MSTORE PUSH1 0x4 ADD PUSH2 0x1AF0 SWAP1 PUSH2 0x4115 JUMP JUMPDEST PUSH1 0x40 MLOAD DUP1 SWAP2 SUB SWAP1 REVERT JUMPDEST DUP3 PUSH1 0x5 PUSH1 0x0 DUP7 PUSH2 0xFFFF AND PUSH2 0xFFFF AND DUP2 MSTORE PUSH1 0x20 ADD SWAP1 DUP2 MSTORE PUSH1 0x20 ADD PUSH1 0x0 KECCAK256 PUSH1 0x0 CALLER PUSH20 0xFFFFFFFFFFFFFFFFFFFFFFFFFFFFFFFFFFFFFFFF AND PUSH20 0xFFFFFFFFFFFFFFFFFFFFFFFFFFFFFFFFFFFFFFFF AND DUP2 MSTORE PUSH1 0x20 ADD SWAP1 DUP2 MSTORE PUSH1 0x20 ADD PUSH1 0x0 KECCAK256 PUSH1 0x0 PUSH2 0x100 EXP DUP2 SLOAD DUP2 PUSH1 0xFF MUL NOT AND SWAP1 DUP4 PUSH1 0xFF AND MUL OR SWAP1 SSTORE POP DUP3 PUSH1 0xFF AND PUSH1 0x6 PUSH1 0x0 DUP7 PUSH2 0xFFFF AND PUSH2 0xFFFF AND DUP2 MSTORE PUSH1 0x20 ADD SWAP1 DUP2 MSTORE PUSH1 0x20 ADD PUSH1 0x0 KECCAK256 PUSH1 0x2 ADD PUSH1 0x4 DUP3 DUP3 DUP3 SWAP1 SLOAD SWAP1 PUSH2 0x100 EXP SWAP1 DIV PUSH4 0xFFFFFFFF AND PUSH2 0x1BAA SWAP2 SWAP1 PUSH2 0x44A1 JUMP JUMPDEST SWAP3 POP PUSH2 0x100 EXP DUP2 SLOAD DUP2 PUSH4 0xFFFFFFFF MUL NOT AND SWAP1 DUP4 PUSH4 0xFFFFFFFF AND MUL OR SWAP1 SSTORE POP PUSH1 0x1 PUSH1 0x6 PUSH1 0x0 DUP7 PUSH2 0xFFFF AND PUSH2 0xFFFF AND DUP2 MSTORE PUSH1 0x20 ADD SWAP1 DUP2 MSTORE PUSH1 0x20 ADD PUSH1 0x0 KECCAK256 PUSH1 0x2 ADD PUSH1 0x0 DUP3 DUP3 DUP3 SWAP1 SLOAD SWAP1 PUSH2 0x100 EXP SWAP1 DIV PUSH4 0xFFFFFFFF AND PUSH2 0x1C06 SWAP2 SWAP1 PUSH2 0x44A1 JUMP JUMPDEST SWAP3 POP PUSH2 0x100 EXP DUP2 SLOAD DUP2 PUSH4 0xFFFFFFFF MUL NOT AND SWAP1 DUP4 PUSH4 0xFFFFFFFF AND MUL OR SWAP1 SSTORE POP POP POP POP POP JUMP JUMPDEST PUSH2 0x1C32 PUSH2 0x2E89 JUMP JUMPDEST DUP1 PUSH1 0x1 PUSH1 0x0 PUSH2 0x100 EXP DUP2 SLOAD DUP2 PUSH20 0xFFFFFFFFFFFFFFFFFFFFFFFFFFFFFFFFFFFFFFFF MUL NOT AND SWAP1 DUP4 PUSH20 0xFFFFFFFFFFFFFFFFFFFFFFFFFFFFFFFFFFFFFFFF AND MUL OR SWAP1 SSTORE POP POP JUMP JUMPDEST PUSH1 0x6 PUSH1 0x20 MSTORE DUP1 PUSH1 0x0 MSTORE PUSH1 0x40 PUSH1 0x0 KECCAK256 PUSH1 0x0 SWAP2 POP SWAP1 POP DUP1 PUSH1 0x0 ADD PUSH1 0x0 SWAP1 SLOAD SWAP1 PUSH2 0x100 EXP SWAP1 DIV PUSH2 0xFFFF AND SWAP1 DUP1 PUSH1 0x1 ADD DUP1 SLOAD PUSH2 0x1CAD SWAP1 PUSH2 0x4645 JUMP JUMPDEST DUP1 PUSH1 0x1F ADD PUSH1 0x20 DUP1 SWAP2 DIV MUL PUSH1 0x20 ADD PUSH1 0x40 MLOAD SWAP1 DUP2 ADD PUSH1 0x40 MSTORE DUP1 SWAP3 SWAP2 SWAP1 DUP2 DUP2 MSTORE PUSH1 0x20 ADD DUP3 DUP1 SLOAD PUSH2 0x1CD9 SWAP1 PUSH2 0x4645 JUMP JUMPDEST DUP1 ISZERO PUSH2 0x1D26 JUMPI DUP1 PUSH1 0x1F LT PUSH2 0x1CFB JUMPI PUSH2 0x100 DUP1 DUP4 SLOAD DIV MUL DUP4 MSTORE SWAP2 PUSH1 0x20 ADD SWAP2 PUSH2 0x1D26 JUMP JUMPDEST DUP3 ADD SWAP2 SWAP1 PUSH1 0x0 MSTORE PUSH1 0x20 PUSH1 0x0 KECCAK256 SWAP1 JUMPDEST DUP2 SLOAD DUP2 MSTORE SWAP1 PUSH1 0x1 ADD SWAP1 PUSH1 0x20 ADD DUP1 DUP4 GT PUSH2 0x1D09 JUMPI DUP3 SWAP1 SUB PUSH1 0x1F AND DUP3 ADD SWAP2 JUMPDEST POP POP POP POP POP SWAP1 DUP1 PUSH1 0x2 ADD PUSH1 0x0 SWAP1 SLOAD SWAP1 PUSH2 0x100 EXP SWAP1 DIV PUSH4 0xFFFFFFFF AND SWAP1 DUP1 PUSH1 0x2 ADD PUSH1 0x4 SWAP1 SLOAD SWAP1 PUSH2 0x100 EXP SWAP1 DIV PUSH4 0xFFFFFFFF AND SWAP1 DUP1 PUSH1 0x2 ADD PUSH1 0x8 SWAP1 SLOAD SWAP1 PUSH2 0x100 EXP SWAP1 DIV PUSH20 0xFFFFFFFFFFFFFFFFFFFFFFFFFFFFFFFFFFFFFFFF AND SWAP1 DUP1 PUSH1 0x3 ADD SLOAD SWAP1 DUP1 PUSH1 0x4 ADD SLOAD SWAP1 DUP1 PUSH1 0x5 ADD SLOAD SWAP1 DUP1 PUSH1 0x6 ADD PUSH1 0x0 SWAP1 SLOAD SWAP1 PUSH2 0x100 EXP SWAP1 DIV PUSH1 0xFF AND SWAP1 POP DUP10 JUMP JUMPDEST DUP2 PUSH1 0x0 PUSH1 0x2 DUP2 GT ISZERO PUSH2 0x1DBC JUMPI PUSH2 0x1DBB PUSH2 0x46FB JUMP JUMPDEST JUMPDEST PUSH1 0x6 PUSH1 0x0 DUP4 PUSH2 0xFFFF AND PUSH2 0xFFFF AND DUP2 MSTORE PUSH1 0x20 ADD SWAP1 DUP2 MSTORE PUSH1 0x20 ADD PUSH1 0x0 KECCAK256 PUSH1 0x6 ADD PUSH1 0x0 SWAP1 SLOAD SWAP1 PUSH2 0x100 EXP SWAP1 DIV PUSH1 0xFF AND PUSH1 0x2 DUP2 GT ISZERO PUSH2 0x1DFA JUMPI PUSH2 0x1DF9 PUSH2 0x46FB JUMP JUMPDEST JUMPDEST EQ ISZERO PUSH2 0x1E3B JUMPI PUSH1 0x40 MLOAD PUSH32 0x8C379A000000000000000000000000000000000000000000000000000000000 DUP2 MSTORE PUSH1 0x4 ADD PUSH2 0x1E32 SWAP1 PUSH2 0x4155 JUMP JUMPDEST PUSH1 0x40 MLOAD DUP1 SWAP2 SUB SWAP1 REVERT JUMPDEST DUP3 PUSH1 0x2 PUSH1 0x0 CALLER PUSH20 0xFFFFFFFFFFFFFFFFFFFFFFFFFFFFFFFFFFFFFFFF AND PUSH20 0xFFFFFFFFFFFFFFFFFFFFFFFFFFFFFFFFFFFFFFFF AND DUP2 MSTORE PUSH1 0x20 ADD SWAP1 DUP2 MSTORE PUSH1 0x20 ADD PUSH1 0x0 KECCAK256 PUSH1 0x0 SWAP1 SLOAD SWAP1 PUSH2 0x100 EXP SWAP1 DIV PUSH1 0xFF AND PUSH2 0x1EC8 JUMPI PUSH1 0x40 MLOAD PUSH32 0x8C379A000000000000000000000000000000000000000000000000000000000 DUP2 MSTORE PUSH1 0x4 ADD PUSH2 0x1EBF SWAP1 PUSH2 0x40F5 JUMP JUMPDEST PUSH1 0x40 MLOAD DUP1 SWAP2 SUB SWAP1 REVERT JUMPDEST PUSH1 0x0 PUSH1 0x5 PUSH1 0x0 DUP4 PUSH2 0xFFFF AND PUSH2 0xFFFF AND DUP2 MSTORE PUSH1 0x20 ADD SWAP1 DUP2 MSTORE PUSH1 0x20 ADD PUSH1 0x0 KECCAK256 PUSH1 0x0 CALLER PUSH20 0xFFFFFFFFFFFFFFFFFFFFFFFFFFFFFFFFFFFFFFFF AND PUSH20 0xFFFFFFFFFFFFFFFFFFFFFFFFFFFFFFFFFFFFFFFF AND DUP2 MSTORE PUSH1 0x20 ADD SWAP1 DUP2 MSTORE PUSH1 0x20 ADD PUSH1 0x0 KECCAK256 PUSH1 0x0 SWAP1 SLOAD SWAP1 PUSH2 0x100 EXP SWAP1 DIV PUSH1 0xFF AND PUSH1 0xFF AND EQ PUSH2 0x1F73 JUMPI PUSH1 0x40 MLOAD PUSH32 0x8C379A000000000000000000000000000000000000000000000000000000000 DUP2 MSTORE PUSH1 0x4 ADD PUSH2 0x1F6A SWAP1 PUSH2 0x4215 JUMP JUMPDEST PUSH1 0x40 MLOAD DUP1 SWAP2 SUB SWAP1 REVERT JUMPDEST PUSH1 0x1 PUSH1 0x2 DUP2 GT ISZERO PUSH2 0x1F87 JUMPI PUSH2 0x1F86 PUSH2 0x46FB JUMP JUMPDEST JUMPDEST PUSH1 0x6 PUSH1 0x0 DUP7 PUSH2 0xFFFF AND PUSH2 0xFFFF AND DUP2 MSTORE PUSH1 0x20 ADD SWAP1 DUP2 MSTORE PUSH1 0x20 ADD PUSH1 0x0 KECCAK256 PUSH1 0x6 ADD PUSH1 0x0 SWAP1 SLOAD SWAP1 PUSH2 0x100 EXP SWAP1 DIV PUSH1 0xFF AND PUSH1 0x2 DUP2 GT ISZERO PUSH2 0x1FC5 JUMPI PUSH2 0x1FC4 PUSH2 0x46FB JUMP JUMPDEST JUMPDEST EQ PUSH2 0x2005 JUMPI PUSH1 0x40 MLOAD PUSH32 0x8C379A000000000000000000000000000000000000000000000000000000000 DUP2 MSTORE PUSH1 0x4 ADD PUSH2 0x1FFC SWAP1 PUSH2 0x4115 JUMP JUMPDEST PUSH1 0x40 MLOAD DUP1 SWAP2 SUB SWAP1 REVERT JUMPDEST PUSH1 0x0 PUSH1 0x1 DUP2 GT ISZERO PUSH2 0x2019 JUMPI PUSH2 0x2018 PUSH2 0x46FB JUMP JUMPDEST JUMPDEST DUP4 PUSH1 0x1 DUP2 GT ISZERO PUSH2 0x202C JUMPI PUSH2 0x202B PUSH2 0x46FB JUMP JUMPDEST JUMPDEST EQ ISZERO PUSH2 0x2105 JUMPI PUSH1 0x1 PUSH1 0x5 PUSH1 0x0 DUP7 PUSH2 0xFFFF AND PUSH2 0xFFFF AND DUP2 MSTORE PUSH1 0x20 ADD SWAP1 DUP2 MSTORE PUSH1 0x20 ADD PUSH1 0x0 KECCAK256 PUSH1 0x0 CALLER PUSH20 0xFFFFFFFFFFFFFFFFFFFFFFFFFFFFFFFFFFFFFFFF AND PUSH20 0xFFFFFFFFFFFFFFFFFFFFFFFFFFFFFFFFFFFFFFFF AND DUP2 MSTORE PUSH1 0x20 ADD SWAP1 DUP2 MSTORE PUSH1 0x20 ADD PUSH1 0x0 KECCAK256 PUSH1 0x0 PUSH2 0x100 EXP DUP2 SLOAD DUP2 PUSH1 0xFF MUL NOT AND SWAP1 DUP4 PUSH1 0xFF AND MUL OR SWAP1 SSTORE POP PUSH1 0x1 PUSH1 0x6 PUSH1 0x0 DUP7 PUSH2 0xFFFF AND PUSH2 0xFFFF AND DUP2 MSTORE PUSH1 0x20 ADD SWAP1 DUP2 MSTORE PUSH1 0x20 ADD PUSH1 0x0 KECCAK256 PUSH1 0x2 ADD PUSH1 0x4 DUP3 DUP3 DUP3 SWAP1 SLOAD SWAP1 PUSH2 0x100 EXP SWAP1 DIV PUSH4 0xFFFFFFFF AND PUSH2 0x20E2 SWAP2 SWAP1 PUSH2 0x44A1 JUMP JUMPDEST SWAP3 POP PUSH2 0x100 EXP DUP2 SLOAD DUP2 PUSH4 0xFFFFFFFF MUL NOT AND SWAP1 DUP4 PUSH4 0xFFFFFFFF AND MUL OR SWAP1 SSTORE POP PUSH2 0x21D4 JUMP JUMPDEST PUSH1 0xA PUSH1 0x5 PUSH1 0x0 DUP7 PUSH2 0xFFFF AND PUSH2 0xFFFF AND DUP2 MSTORE PUSH1 0x20 ADD SWAP1 DUP2 MSTORE PUSH1 0x20 ADD PUSH1 0x0 KECCAK256 PUSH1 0x0 CALLER PUSH20 0xFFFFFFFFFFFFFFFFFFFFFFFFFFFFFFFFFFFFFFFF AND PUSH20 0xFFFFFFFFFFFFFFFFFFFFFFFFFFFFFFFFFFFFFFFF AND DUP2 MSTORE PUSH1 0x20 ADD SWAP1 DUP2 MSTORE PUSH1 0x20 ADD PUSH1 0x0 KECCAK256 PUSH1 0x0 PUSH2 0x100 EXP DUP2 SLOAD DUP2 PUSH1 0xFF MUL NOT AND SWAP1 DUP4 PUSH1 0xFF AND MUL OR SWAP1 SSTORE POP PUSH1 0xA PUSH1 0x6 PUSH1 0x0 DUP7 PUSH2 0xFFFF AND PUSH2 0xFFFF AND DUP2 MSTORE PUSH1 0x20 ADD SWAP1 DUP2 MSTORE PUSH1 0x20 ADD PUSH1 0x0 KECCAK256 PUSH1 0x2 ADD PUSH1 0x4 DUP3 DUP3 DUP3 SWAP1 SLOAD SWAP1 PUSH2 0x100 EXP SWAP1 DIV PUSH4 0xFFFFFFFF AND PUSH2 0x21B5 SWAP2 SWAP1 PUSH2 0x44A1 JUMP JUMPDEST SWAP3 POP PUSH2 0x100 EXP DUP2 SLOAD DUP2 PUSH4 0xFFFFFFFF MUL NOT AND SWAP1 DUP4 PUSH4 0xFFFFFFFF AND MUL OR SWAP1 SSTORE POP JUMPDEST PUSH1 0x1 PUSH1 0x6 PUSH1 0x0 DUP7 PUSH2 0xFFFF AND PUSH2 0xFFFF AND DUP2 MSTORE PUSH1 0x20 ADD SWAP1 DUP2 MSTORE PUSH1 0x20 ADD PUSH1 0x0 KECCAK256 PUSH1 0x2 ADD PUSH1 0x0 DUP3 DUP3 DUP3 SWAP1 SLOAD SWAP1 PUSH2 0x100 EXP SWAP1 DIV PUSH4 0xFFFFFFFF AND PUSH2 0x2212 SWAP2 SWAP1 PUSH2 0x44A1 JUMP JUMPDEST SWAP3 POP PUSH2 0x100 EXP DUP2 SLOAD DUP2 PUSH4 0xFFFFFFFF MUL NOT AND SWAP1 DUP4 PUSH4 0xFFFFFFFF AND MUL OR SWAP1 SSTORE POP POP POP POP POP JUMP JUMPDEST PUSH1 0x0 PUSH1 0x3 PUSH1 0x0 PUSH1 0x7 PUSH1 0x0 SWAP1 SLOAD SWAP1 PUSH2 0x100 EXP SWAP1 DIV PUSH2 0xFFFF AND PUSH2 0xFFFF AND PUSH2 0xFFFF AND DUP2 MSTORE PUSH1 0x20 ADD SWAP1 DUP2 MSTORE PUSH1 0x20 ADD PUSH1 0x0 KECCAK256 PUSH1 0x0 CALLER PUSH20 0xFFFFFFFFFFFFFFFFFFFFFFFFFFFFFFFFFFFFFFFF AND PUSH20 0xFFFFFFFFFFFFFFFFFFFFFFFFFFFFFFFFFFFFFFFF AND DUP2 MSTORE PUSH1 0x20 ADD SWAP1 DUP2 MSTORE PUSH1 0x20 ADD PUSH1 0x0 KECCAK256 PUSH1 0x0 SWAP1 SLOAD SWAP1 PUSH2 0x100 EXP SWAP1 DIV PUSH1 0xFF AND SWAP1 POP SWAP1 JUMP JUMPDEST PUSH1 0x4 PUSH1 0x20 MSTORE DUP1 PUSH1 0x0 MSTORE PUSH1 0x40 PUSH1 0x0 KECCAK256 PUSH1 0x0 SWAP2 POP SWAP1 POP DUP1 PUSH1 0x0 ADD PUSH1 0x0 SWAP1 SLOAD SWAP1 PUSH2 0x100 EXP SWAP1 DIV PUSH2 0xFFFF AND SWAP1 DUP1 PUSH1 0x1 ADD DUP1 SLOAD PUSH2 0x22EA SWAP1 PUSH2 0x4645 JUMP JUMPDEST DUP1 PUSH1 0x1F ADD PUSH1 0x20 DUP1 SWAP2 DIV MUL PUSH1 0x20 ADD PUSH1 0x40 MLOAD SWAP1 DUP2 ADD PUSH1 0x40 MSTORE DUP1 SWAP3 SWAP2 SWAP1 DUP2 DUP2 MSTORE PUSH1 0x20 ADD DUP3 DUP1 SLOAD PUSH2 0x2316 SWAP1 PUSH2 0x4645 JUMP JUMPDEST DUP1 ISZERO PUSH2 0x2363 JUMPI DUP1 PUSH1 0x1F LT PUSH2 0x2338 JUMPI PUSH2 0x100 DUP1 DUP4 SLOAD DIV MUL DUP4 MSTORE SWAP2 PUSH1 0x20 ADD SWAP2 PUSH2 0x2363 JUMP JUMPDEST DUP3 ADD SWAP2 SWAP1 PUSH1 0x0 MSTORE PUSH1 0x20 PUSH1 0x0 KECCAK256 SWAP1 JUMPDEST DUP2 SLOAD DUP2 MSTORE SWAP1 PUSH1 0x1 ADD SWAP1 PUSH1 0x20 ADD DUP1 DUP4 GT PUSH2 0x2346 JUMPI DUP3 SWAP1 SUB PUSH1 0x1F AND DUP3 ADD SWAP2 JUMPDEST POP POP POP POP POP SWAP1 DUP1 PUSH1 0x2 ADD PUSH1 0x0 SWAP1 SLOAD SWAP1 PUSH2 0x100 EXP SWAP1 DIV PUSH4 0xFFFFFFFF AND SWAP1 DUP1 PUSH1 0x2 ADD PUSH1 0x4 SWAP1 SLOAD SWAP1 PUSH2 0x100 EXP SWAP1 DIV PUSH4 0xFFFFFFFF AND SWAP1 DUP1 PUSH1 0x2 ADD PUSH1 0x8 SWAP1 SLOAD SWAP1 PUSH2 0x100 EXP SWAP1 DIV PUSH20 0xFFFFFFFFFFFFFFFFFFFFFFFFFFFFFFFFFFFFFFFF AND SWAP1 DUP1 PUSH1 0x3 ADD SLOAD SWAP1 DUP1 PUSH1 0x4 ADD SLOAD SWAP1 DUP1 PUSH1 0x5 ADD SLOAD SWAP1 DUP1 PUSH1 0x6 ADD PUSH1 0x0 SWAP1 SLOAD SWAP1 PUSH2 0x100 EXP SWAP1 DIV PUSH1 0xFF AND SWAP1 POP DUP10 JUMP JUMPDEST DUP1 PUSH1 0x0 PUSH1 0x2 DUP2 GT ISZERO PUSH2 0x23F9 JUMPI PUSH2 0x23F8 PUSH2 0x46FB JUMP JUMPDEST JUMPDEST PUSH1 0x6 PUSH1 0x0 DUP4 PUSH2 0xFFFF AND PUSH2 0xFFFF AND DUP2 MSTORE PUSH1 0x20 ADD SWAP1 DUP2 MSTORE PUSH1 0x20 ADD PUSH1 0x0 KECCAK256 PUSH1 0x6 ADD PUSH1 0x0 SWAP1 SLOAD SWAP1 PUSH2 0x100 EXP SWAP1 DIV PUSH1 0xFF AND PUSH1 0x2 DUP2 GT ISZERO PUSH2 0x2437 JUMPI PUSH2 0x2436 PUSH2 0x46FB JUMP JUMPDEST JUMPDEST EQ ISZERO PUSH2 0x2478 JUMPI PUSH1 0x40 MLOAD PUSH32 0x8C379A000000000000000000000000000000000000000000000000000000000 DUP2 MSTORE PUSH1 0x4 ADD PUSH2 0x246F SWAP1 PUSH2 0x4155 JUMP JUMPDEST PUSH1 0x40 MLOAD DUP1 SWAP2 SUB SWAP1 REVERT JUMPDEST CALLER PUSH1 0x2 PUSH1 0x0 DUP3 PUSH20 0xFFFFFFFFFFFFFFFFFFFFFFFFFFFFFFFFFFFFFFFF AND PUSH20 0xFFFFFFFFFFFFFFFFFFFFFFFFFFFFFFFFFFFFFFFF AND DUP2 MSTORE PUSH1 0x20 ADD SWAP1 DUP2 MSTORE PUSH1 0x20 ADD PUSH1 0x0 KECCAK256 PUSH1 0x0 SWAP1 SLOAD SWAP1 PUSH2 0x100 EXP SWAP1 DIV PUSH1 0xFF AND PUSH2 0x2505 JUMPI PUSH1 0x40 MLOAD PUSH32 0x8C379A000000000000000000000000000000000000000000000000000000000 DUP2 MSTORE PUSH1 0x4 ADD PUSH2 0x24FC SWAP1 PUSH2 0x4255 JUMP JUMPDEST PUSH1 0x40 MLOAD DUP1 SWAP2 SUB SWAP1 REVERT JUMPDEST PUSH1 0x6 PUSH1 0x0 DUP5 PUSH2 0xFFFF AND PUSH2 0xFFFF AND DUP2 MSTORE PUSH1 0x20 ADD SWAP1 DUP2 MSTORE PUSH1 0x20 ADD PUSH1 0x0 KECCAK256 PUSH1 0x4 ADD SLOAD NUMBER LT ISZERO PUSH2 0x2566 JUMPI PUSH1 0x40 MLOAD PUSH32 0x8C379A000000000000000000000000000000000000000000000000000000000 DUP2 MSTORE PUSH1 0x4 ADD PUSH2 0x255D SWAP1 PUSH2 0x4275 JUMP JUMPDEST PUSH1 0x40 MLOAD DUP1 SWAP2 SUB SWAP1 REVERT JUMPDEST PUSH2 0x256F DUP4 PUSH2 0x2FCB JUMP JUMPDEST POP POP POP JUMP JUMPDEST PUSH1 0x1 PUSH1 0x0 SWAP1 SLOAD SWAP1 PUSH2 0x100 EXP SWAP1 DIV PUSH20 0xFFFFFFFFFFFFFFFFFFFFFFFFFFFFFFFFFFFFFFFF AND PUSH20 0xFFFFFFFFFFFFFFFFFFFFFFFFFFFFFFFFFFFFFFFF AND CALLER PUSH20 0xFFFFFFFFFFFFFFFFFFFFFFFFFFFFFFFFFFFFFFFF AND EQ PUSH2 0x2604 JUMPI PUSH1 0x40 MLOAD PUSH32 0x8C379A000000000000000000000000000000000000000000000000000000000 DUP2 MSTORE PUSH1 0x4 ADD PUSH2 0x25FB SWAP1 PUSH2 0x4195 JUMP JUMPDEST PUSH1 0x40 MLOAD DUP1 SWAP2 SUB SWAP1 REVERT JUMPDEST DUP1 PUSH1 0x0 PUSH20 0xFFFFFFFFFFFFFFFFFFFFFFFFFFFFFFFFFFFFFFFF AND DUP2 PUSH20 0xFFFFFFFFFFFFFFFFFFFFFFFFFFFFFFFFFFFFFFFF AND EQ ISZERO PUSH2 0x2675 JUMPI PUSH1 0x40 MLOAD PUSH32 0x8C379A000000000000000000000000000000000000000000000000000000000 DUP2 MSTORE PUSH1 0x4 ADD PUSH2 0x266C SWAP1 PUSH2 0x41F5 JUMP JUMPDEST PUSH1 0x40 MLOAD DUP1 SWAP2 SUB SWAP1 REVERT JUMPDEST PUSH1 0x2 PUSH1 0x0 DUP4 PUSH20 0xFFFFFFFFFFFFFFFFFFFFFFFFFFFFFFFFFFFFFFFF AND PUSH20 0xFFFFFFFFFFFFFFFFFFFFFFFFFFFFFFFFFFFFFFFF AND DUP2 MSTORE PUSH1 0x20 ADD SWAP1 DUP2 MSTORE PUSH1 0x20 ADD PUSH1 0x0 KECCAK256 PUSH1 0x0 SWAP1 SLOAD SWAP1 PUSH2 0x100 EXP SWAP1 DIV PUSH1 0xFF AND ISZERO PUSH2 0x2702 JUMPI PUSH1 0x40 MLOAD PUSH32 0x8C379A000000000000000000000000000000000000000000000000000000000 DUP2 MSTORE PUSH1 0x4 ADD PUSH2 0x26F9 SWAP1 PUSH2 0x41B5 JUMP JUMPDEST PUSH1 0x40 MLOAD DUP1 SWAP2 SUB SWAP1 REVERT JUMPDEST PUSH1 0x1 PUSH1 0x7 PUSH1 0x4 SWAP1 SLOAD SWAP1 PUSH2 0x100 EXP SWAP1 DIV PUSH2 0xFFFF AND PUSH2 0x271F SWAP2 SWAP1 PUSH2 0x4413 JUMP JUMPDEST PUSH1 0x7 PUSH1 0x4 PUSH2 0x100 EXP DUP2 SLOAD DUP2 PUSH2 0xFFFF MUL NOT AND SWAP1 DUP4 PUSH2 0xFFFF AND MUL OR SWAP1 SSTORE POP PUSH1 0x1 PUSH1 0x2 PUSH1 0x0 DUP5 PUSH20 0xFFFFFFFFFFFFFFFFFFFFFFFFFFFFFFFFFFFFFFFF AND PUSH20 0xFFFFFFFFFFFFFFFFFFFFFFFFFFFFFFFFFFFFFFFF AND DUP2 MSTORE PUSH1 0x20 ADD SWAP1 DUP2 MSTORE PUSH1 0x20 ADD PUSH1 0x0 KECCAK256 PUSH1 0x0 PUSH2 0x100 EXP DUP2 SLOAD DUP2 PUSH1 0xFF MUL NOT AND SWAP1 DUP4 ISZERO ISZERO MUL OR SWAP1 SSTORE POP POP POP JUMP JUMPDEST PUSH2 0x279F PUSH2 0x2E89 JUMP JUMPDEST PUSH1 0x0 PUSH20 0xFFFFFFFFFFFFFFFFFFFFFFFFFFFFFFFFFFFFFFFF AND DUP2 PUSH20 0xFFFFFFFFFFFFFFFFFFFFFFFFFFFFFFFFFFFFFFFF AND EQ ISZERO PUSH2 0x280F JUMPI PUSH1 0x40 MLOAD PUSH32 0x8C379A000000000000000000000000000000000000000000000000000000000 DUP2 MSTORE PUSH1 0x4 ADD PUSH2 0x2806 SWAP1 PUSH2 0x4135 JUMP JUMPDEST PUSH1 0x40 MLOAD DUP1 SWAP2 SUB SWAP1 REVERT JUMPDEST PUSH2 0x2818 DUP2 PUSH2 0x2F07 JUMP JUMPDEST POP JUMP JUMPDEST PUSH1 0x60 PUSH1 0x0 DUP3 PUSH1 0xFF AND PUSH8 0xFFFFFFFFFFFFFFFF DUP2 GT ISZERO PUSH2 0x283C JUMPI PUSH2 0x283B PUSH2 0x4788 JUMP JUMPDEST JUMPDEST PUSH1 0x40 MLOAD SWAP1 DUP1 DUP3 MSTORE DUP1 PUSH1 0x20 MUL PUSH1 0x20 ADD DUP3 ADD PUSH1 0x40 MSTORE DUP1 ISZERO PUSH2 0x2875 JUMPI DUP2 PUSH1 0x20 ADD JUMPDEST PUSH2 0x2862 PUSH2 0x3628 JUMP JUMPDEST DUP2 MSTORE PUSH1 0x20 ADD SWAP1 PUSH1 0x1 SWAP1 SUB SWAP1 DUP2 PUSH2 0x285A JUMPI SWAP1 POP JUMPDEST POP SWAP1 POP PUSH1 0x0 PUSH1 0x7 PUSH1 0x0 SWAP1 SLOAD SWAP1 PUSH2 0x100 EXP SWAP1 DIV PUSH2 0xFFFF AND SWAP1 POP DUP1 PUSH2 0xFFFF AND DUP6 PUSH1 0xFF AND GT ISZERO PUSH2 0x28A6 JUMPI DUP2 SWAP3 POP POP POP PUSH2 0x2D49 JUMP JUMPDEST DUP1 PUSH2 0xFFFF AND DUP5 DUP7 PUSH2 0x28B7 SWAP2 SWAP1 PUSH2 0x44DB JUMP JUMPDEST PUSH1 0xFF AND GT ISZERO PUSH2 0x2B0B JUMPI PUSH1 0x0 PUSH1 0x1 SWAP1 POP JUMPDEST DUP6 PUSH1 0xFF AND DUP3 PUSH2 0x28D6 SWAP2 SWAP1 PUSH2 0x4512 JUMP JUMPDEST PUSH2 0xFFFF AND DUP2 PUSH1 0xFF AND GT PUSH2 0x2B05 JUMPI PUSH1 0x4 PUSH1 0x0 DUP3 PUSH1 0xFF AND DUP5 PUSH2 0x28F6 SWAP2 SWAP1 PUSH2 0x4512 JUMP JUMPDEST PUSH2 0xFFFF AND PUSH2 0xFFFF AND DUP2 MSTORE PUSH1 0x20 ADD SWAP1 DUP2 MSTORE PUSH1 0x20 ADD PUSH1 0x0 KECCAK256 PUSH1 0x40 MLOAD DUP1 PUSH2 0x120 ADD PUSH1 0x40 MSTORE SWAP1 DUP2 PUSH1 0x0 DUP3 ADD PUSH1 0x0 SWAP1 SLOAD SWAP1 PUSH2 0x100 EXP SWAP1 DIV PUSH2 0xFFFF AND PUSH2 0xFFFF AND PUSH2 0xFFFF AND DUP2 MSTORE PUSH1 0x20 ADD PUSH1 0x1 DUP3 ADD DUP1 SLOAD PUSH2 0x2948 SWAP1 PUSH2 0x4645 JUMP JUMPDEST DUP1 PUSH1 0x1F ADD PUSH1 0x20 DUP1 SWAP2 DIV MUL PUSH1 0x20 ADD PUSH1 0x40 MLOAD SWAP1 DUP2 ADD PUSH1 0x40 MSTORE DUP1 SWAP3 SWAP2 SWAP1 DUP2 DUP2 MSTORE PUSH1 0x20 ADD DUP3 DUP1 SLOAD PUSH2 0x2974 SWAP1 PUSH2 0x4645 JUMP JUMPDEST DUP1 ISZERO PUSH2 0x29C1 JUMPI DUP1 PUSH1 0x1F LT PUSH2 0x2996 JUMPI PUSH2 0x100 DUP1 DUP4 SLOAD DIV MUL DUP4 MSTORE SWAP2 PUSH1 0x20 ADD SWAP2 PUSH2 0x29C1 JUMP JUMPDEST DUP3 ADD SWAP2 SWAP1 PUSH1 0x0 MSTORE PUSH1 0x20 PUSH1 0x0 KECCAK256 SWAP1 JUMPDEST DUP2 SLOAD DUP2 MSTORE SWAP1 PUSH1 0x1 ADD SWAP1 PUSH1 0x20 ADD DUP1 DUP4 GT PUSH2 0x29A4 JUMPI DUP3 SWAP1 SUB PUSH1 0x1F AND DUP3 ADD SWAP2 JUMPDEST POP POP POP POP POP DUP2 MSTORE PUSH1 0x20 ADD PUSH1 0x2 DUP3 ADD PUSH1 0x0 SWAP1 SLOAD SWAP1 PUSH2 0x100 EXP SWAP1 DIV PUSH4 0xFFFFFFFF AND PUSH4 0xFFFFFFFF AND PUSH4 0xFFFFFFFF AND DUP2 MSTORE PUSH1 0x20 ADD PUSH1 0x2 DUP3 ADD PUSH1 0x4 SWAP1 SLOAD SWAP1 PUSH2 0x100 EXP SWAP1 DIV PUSH4 0xFFFFFFFF AND PUSH4 0xFFFFFFFF AND PUSH4 0xFFFFFFFF AND DUP2 MSTORE PUSH1 0x20 ADD PUSH1 0x2 DUP3 ADD PUSH1 0x8 SWAP1 SLOAD SWAP1 PUSH2 0x100 EXP SWAP1 DIV PUSH20 0xFFFFFFFFFFFFFFFFFFFFFFFFFFFFFFFFFFFFFFFF AND PUSH20 0xFFFFFFFFFFFFFFFFFFFFFFFFFFFFFFFFFFFFFFFF AND PUSH20 0xFFFFFFFFFFFFFFFFFFFFFFFFFFFFFFFFFFFFFFFF AND DUP2 MSTORE PUSH1 0x20 ADD PUSH1 0x3 DUP3 ADD SLOAD DUP2 MSTORE PUSH1 0x20 ADD PUSH1 0x4 DUP3 ADD SLOAD DUP2 MSTORE PUSH1 0x20 ADD PUSH1 0x5 DUP3 ADD SLOAD DUP2 MSTORE PUSH1 0x20 ADD PUSH1 0x6 DUP3 ADD PUSH1 0x0 SWAP1 SLOAD SWAP1 PUSH2 0x100 EXP SWAP1 DIV PUSH1 0xFF AND PUSH1 0x2 DUP2 GT ISZERO PUSH2 0x2AAF JUMPI PUSH2 0x2AAE PUSH2 0x46FB JUMP JUMPDEST JUMPDEST PUSH1 0x2 DUP2 GT ISZERO PUSH2 0x2AC1 JUMPI PUSH2 0x2AC0 PUSH2 0x46FB JUMP JUMPDEST JUMPDEST DUP2 MSTORE POP POP DUP4 PUSH1 0x1 DUP4 PUSH2 0x2AD3 SWAP2 SWAP1 PUSH2 0x4546 JUMP JUMPDEST PUSH1 0xFF AND DUP2 MLOAD DUP2 LT PUSH2 0x2AE7 JUMPI PUSH2 0x2AE6 PUSH2 0x4759 JUMP JUMPDEST JUMPDEST PUSH1 0x20 MUL PUSH1 0x20 ADD ADD DUP2 SWAP1 MSTORE POP DUP1 DUP1 PUSH2 0x2AFD SWAP1 PUSH2 0x46A2 JUMP JUMPDEST SWAP2 POP POP PUSH2 0x28C7 JUMP JUMPDEST POP PUSH2 0x2D43 JUMP JUMPDEST PUSH1 0x0 PUSH1 0x1 SWAP1 POP JUMPDEST DUP5 PUSH1 0xFF AND DUP2 PUSH1 0xFF AND GT PUSH2 0x2D41 JUMPI PUSH1 0x4 PUSH1 0x0 DUP3 PUSH1 0xFF AND DUP5 PUSH2 0x2B32 SWAP2 SWAP1 PUSH2 0x4512 JUMP JUMPDEST PUSH2 0xFFFF AND PUSH2 0xFFFF AND DUP2 MSTORE PUSH1 0x20 ADD SWAP1 DUP2 MSTORE PUSH1 0x20 ADD PUSH1 0x0 KECCAK256 PUSH1 0x40 MLOAD DUP1 PUSH2 0x120 ADD PUSH1 0x40 MSTORE SWAP1 DUP2 PUSH1 0x0 DUP3 ADD PUSH1 0x0 SWAP1 SLOAD SWAP1 PUSH2 0x100 EXP SWAP1 DIV PUSH2 0xFFFF AND PUSH2 0xFFFF AND PUSH2 0xFFFF AND DUP2 MSTORE PUSH1 0x20 ADD PUSH1 0x1 DUP3 ADD DUP1 SLOAD PUSH2 0x2B84 SWAP1 PUSH2 0x4645 JUMP JUMPDEST DUP1 PUSH1 0x1F ADD PUSH1 0x20 DUP1 SWAP2 DIV MUL PUSH1 0x20 ADD PUSH1 0x40 MLOAD SWAP1 DUP2 ADD PUSH1 0x40 MSTORE DUP1 SWAP3 SWAP2 SWAP1 DUP2 DUP2 MSTORE PUSH1 0x20 ADD DUP3 DUP1 SLOAD PUSH2 0x2BB0 SWAP1 PUSH2 0x4645 JUMP JUMPDEST DUP1 ISZERO PUSH2 0x2BFD JUMPI DUP1 PUSH1 0x1F LT PUSH2 0x2BD2 JUMPI PUSH2 0x100 DUP1 DUP4 SLOAD DIV MUL DUP4 MSTORE SWAP2 PUSH1 0x20 ADD SWAP2 PUSH2 0x2BFD JUMP JUMPDEST DUP3 ADD SWAP2 SWAP1 PUSH1 0x0 MSTORE PUSH1 0x20 PUSH1 0x0 KECCAK256 SWAP1 JUMPDEST DUP2 SLOAD DUP2 MSTORE SWAP1 PUSH1 0x1 ADD SWAP1 PUSH1 0x20 ADD DUP1 DUP4 GT PUSH2 0x2BE0 JUMPI DUP3 SWAP1 SUB PUSH1 0x1F AND DUP3 ADD SWAP2 JUMPDEST POP POP POP POP POP DUP2 MSTORE PUSH1 0x20 ADD PUSH1 0x2 DUP3 ADD PUSH1 0x0 SWAP1 SLOAD SWAP1 PUSH2 0x100 EXP SWAP1 DIV PUSH4 0xFFFFFFFF AND PUSH4 0xFFFFFFFF AND PUSH4 0xFFFFFFFF AND DUP2 MSTORE PUSH1 0x20 ADD PUSH1 0x2 DUP3 ADD PUSH1 0x4 SWAP1 SLOAD SWAP1 PUSH2 0x100 EXP SWAP1 DIV PUSH4 0xFFFFFFFF AND PUSH4 0xFFFFFFFF AND PUSH4 0xFFFFFFFF AND DUP2 MSTORE PUSH1 0x20 ADD PUSH1 0x2 DUP3 ADD PUSH1 0x8 SWAP1 SLOAD SWAP1 PUSH2 0x100 EXP SWAP1 DIV PUSH20 0xFFFFFFFFFFFFFFFFFFFFFFFFFFFFFFFFFFFFFFFF AND PUSH20 0xFFFFFFFFFFFFFFFFFFFFFFFFFFFFFFFFFFFFFFFF AND PUSH20 0xFFFFFFFFFFFFFFFFFFFFFFFFFFFFFFFFFFFFFFFF AND DUP2 MSTORE PUSH1 0x20 ADD PUSH1 0x3 DUP3 ADD SLOAD DUP2 MSTORE PUSH1 0x20 ADD PUSH1 0x4 DUP3 ADD SLOAD DUP2 MSTORE PUSH1 0x20 ADD PUSH1 0x5 DUP3 ADD SLOAD DUP2 MSTORE PUSH1 0x20 ADD PUSH1 0x6 DUP3 ADD PUSH1 0x0 SWAP1 SLOAD SWAP1 PUSH2 0x100 EXP SWAP1 DIV PUSH1 0xFF AND PUSH1 0x2 DUP2 GT ISZERO PUSH2 0x2CEB JUMPI PUSH2 0x2CEA PUSH2 0x46FB JUMP JUMPDEST JUMPDEST PUSH1 0x2 DUP2 GT ISZERO PUSH2 0x2CFD JUMPI PUSH2 0x2CFC PUSH2 0x46FB JUMP JUMPDEST JUMPDEST DUP2 MSTORE POP POP DUP4 PUSH1 0x1 DUP4 PUSH2 0x2D0F SWAP2 SWAP1 PUSH2 0x4546 JUMP JUMPDEST PUSH1 0xFF AND DUP2 MLOAD DUP2 LT PUSH2 0x2D23 JUMPI PUSH2 0x2D22 PUSH2 0x4759 JUMP JUMPDEST JUMPDEST PUSH1 0x20 MUL PUSH1 0x20 ADD ADD DUP2 SWAP1 MSTORE POP DUP1 DUP1 PUSH2 0x2D39 SWAP1 PUSH2 0x46A2 JUMP JUMPDEST SWAP2 POP POP PUSH2 0x2B12 JUMP JUMPDEST POP JUMPDEST DUP2 SWAP3 POP POP POP JUMPDEST SWAP3 SWAP2 POP POP JUMP JUMPDEST PUSH1 0x7 PUSH1 0x0 SWAP1 SLOAD SWAP1 PUSH2 0x100 EXP SWAP1 DIV PUSH2 0xFFFF AND DUP2 JUMP JUMPDEST PUSH1 0x0 PUSH1 0x4 PUSH1 0x0 DUP4 PUSH2 0xFFFF AND PUSH2 0xFFFF AND DUP2 MSTORE PUSH1 0x20 ADD SWAP1 DUP2 MSTORE PUSH1 0x20 ADD PUSH1 0x0 KECCAK256 PUSH1 0x6 ADD PUSH1 0x0 PUSH2 0x100 EXP DUP2 SLOAD DUP2 PUSH1 0xFF MUL NOT AND SWAP1 DUP4 PUSH1 0x2 DUP2 GT ISZERO PUSH2 0x2DA5 JUMPI PUSH2 0x2DA4 PUSH2 0x46FB JUMP JUMPDEST JUMPDEST MUL OR SWAP1 SSTORE POP NUMBER PUSH1 0x4 PUSH1 0x0 DUP4 PUSH2 0xFFFF AND PUSH2 0xFFFF AND DUP2 MSTORE PUSH1 0x20 ADD SWAP1 DUP2 MSTORE PUSH1 0x20 ADD PUSH1 0x0 KECCAK256 PUSH1 0x5 ADD DUP2 SWAP1 SSTORE POP DUP1 PUSH2 0xFFFF AND PUSH32 0x74067FE4D5E2E892ABA66FD751EE80C00AADDA7333E763E9084815A0C29F6EBE PUSH1 0x4 PUSH1 0x0 DUP5 PUSH2 0xFFFF AND PUSH2 0xFFFF AND DUP2 MSTORE PUSH1 0x20 ADD SWAP1 DUP2 MSTORE PUSH1 0x20 ADD PUSH1 0x0 KECCAK256 PUSH1 0x1 ADD PUSH1 0x4 PUSH1 0x0 DUP6 PUSH2 0xFFFF AND PUSH2 0xFFFF AND DUP2 MSTORE PUSH1 0x20 ADD SWAP1 DUP2 MSTORE PUSH1 0x20 ADD PUSH1 0x0 KECCAK256 PUSH1 0x2 ADD PUSH1 0x0 SWAP1 SLOAD SWAP1 PUSH2 0x100 EXP SWAP1 DIV PUSH4 0xFFFFFFFF AND PUSH1 0x4 PUSH1 0x0 DUP7 PUSH2 0xFFFF AND PUSH2 0xFFFF AND DUP2 MSTORE PUSH1 0x20 ADD SWAP1 DUP2 MSTORE PUSH1 0x20 ADD PUSH1 0x0 KECCAK256 PUSH1 0x2 ADD PUSH1 0x4 SWAP1 SLOAD SWAP1 PUSH2 0x100 EXP SWAP1 DIV PUSH4 0xFFFFFFFF AND PUSH1 0x40 MLOAD PUSH2 0x2E7E SWAP4 SWAP3 SWAP2 SWAP1 PUSH2 0x4097 JUMP JUMPDEST PUSH1 0x40 MLOAD DUP1 SWAP2 SUB SWAP1 LOG2 POP JUMP JUMPDEST PUSH2 0x2E91 PUSH2 0x312C JUMP JUMPDEST PUSH20 0xFFFFFFFFFFFFFFFFFFFFFFFFFFFFFFFFFFFFFFFF AND PUSH2 0x2EAF PUSH2 0x181E JUMP JUMPDEST PUSH20 0xFFFFFFFFFFFFFFFFFFFFFFFFFFFFFFFFFFFFFFFF AND EQ PUSH2 0x2F05 JUMPI PUSH1 0x40 MLOAD PUSH32 0x8C379A000000000000000000000000000000000000000000000000000000000 DUP2 MSTORE PUSH1 0x4 ADD PUSH2 0x2EFC SWAP1 PUSH2 0x41D5 JUMP JUMPDEST PUSH1 0x40 MLOAD DUP1 SWAP2 SUB SWAP1 REVERT JUMPDEST JUMP JUMPDEST PUSH1 0x0 DUP1 PUSH1 0x0 SWAP1 SLOAD SWAP1 PUSH2 0x100 EXP SWAP1 DIV PUSH20 0xFFFFFFFFFFFFFFFFFFFFFFFFFFFFFFFFFFFFFFFF AND SWAP1 POP DUP2 PUSH1 0x0 DUP1 PUSH2 0x100 EXP DUP2 SLOAD DUP2 PUSH20 0xFFFFFFFFFFFFFFFFFFFFFFFFFFFFFFFFFFFFFFFF MUL NOT AND SWAP1 DUP4 PUSH20 0xFFFFFFFFFFFFFFFFFFFFFFFFFFFFFFFFFFFFFFFF AND MUL OR SWAP1 SSTORE POP DUP2 PUSH20 0xFFFFFFFFFFFFFFFFFFFFFFFFFFFFFFFFFFFFFFFF AND DUP2 PUSH20 0xFFFFFFFFFFFFFFFFFFFFFFFFFFFFFFFFFFFFFFFF AND PUSH32 0x8BE0079C531659141344CD1FD0A4F28419497F9722A3DAAFE3B4186F6B6457E0 PUSH1 0x40 MLOAD PUSH1 0x40 MLOAD DUP1 SWAP2 SUB SWAP1 LOG3 POP POP JUMP JUMPDEST PUSH1 0x0 PUSH1 0x6 PUSH1 0x0 DUP4 PUSH2 0xFFFF AND PUSH2 0xFFFF AND DUP2 MSTORE PUSH1 0x20 ADD SWAP1 DUP2 MSTORE PUSH1 0x20 ADD PUSH1 0x0 KECCAK256 PUSH1 0x6 ADD PUSH1 0x0 SWAP1 SLOAD SWAP1 PUSH2 0x100 EXP SWAP1 DIV PUSH1 0xFF AND SWAP1 POP PUSH1 0x0 PUSH1 0x6 PUSH1 0x0 DUP5 PUSH2 0xFFFF AND PUSH2 0xFFFF AND DUP2 MSTORE PUSH1 0x20 ADD SWAP1 DUP2 MSTORE PUSH1 0x20 ADD PUSH1 0x0 KECCAK256 PUSH1 0x6 ADD PUSH1 0x0 PUSH2 0x100 EXP DUP2 SLOAD DUP2 PUSH1 0xFF MUL NOT AND SWAP1 DUP4 PUSH1 0x2 DUP2 GT ISZERO PUSH2 0x303D JUMPI PUSH2 0x303C PUSH2 0x46FB JUMP JUMPDEST JUMPDEST MUL OR SWAP1 SSTORE POP NUMBER PUSH1 0x6 PUSH1 0x0 DUP5 PUSH2 0xFFFF AND PUSH2 0xFFFF AND DUP2 MSTORE PUSH1 0x20 ADD SWAP1 DUP2 MSTORE PUSH1 0x20 ADD PUSH1 0x0 KECCAK256 PUSH1 0x5 ADD DUP2 SWAP1 SSTORE POP PUSH2 0x306F DUP3 DUP3 PUSH2 0x3134 JUMP JUMPDEST DUP2 PUSH2 0xFFFF AND PUSH32 0x5B96817333B28A477AD5FC2DE22E1CB6BC0709C42895AC3180B16A8F8F04956D PUSH1 0x6 PUSH1 0x0 DUP6 PUSH2 0xFFFF AND PUSH2 0xFFFF AND DUP2 MSTORE PUSH1 0x20 ADD SWAP1 DUP2 MSTORE PUSH1 0x20 ADD PUSH1 0x0 KECCAK256 PUSH1 0x1 ADD PUSH1 0x6 PUSH1 0x0 DUP7 PUSH2 0xFFFF AND PUSH2 0xFFFF AND DUP2 MSTORE PUSH1 0x20 ADD SWAP1 DUP2 MSTORE PUSH1 0x20 ADD PUSH1 0x0 KECCAK256 PUSH1 0x2 ADD PUSH1 0x0 SWAP1 SLOAD SWAP1 PUSH2 0x100 EXP SWAP1 DIV PUSH4 0xFFFFFFFF AND PUSH1 0x6 PUSH1 0x0 DUP8 PUSH2 0xFFFF AND PUSH2 0xFFFF AND DUP2 MSTORE PUSH1 0x20 ADD SWAP1 DUP2 MSTORE PUSH1 0x20 ADD PUSH1 0x0 KECCAK256 PUSH1 0x2 ADD PUSH1 0x4 SWAP1 SLOAD SWAP1 PUSH2 0x100 EXP SWAP1 DIV PUSH4 0xFFFFFFFF AND PUSH1 0x40 MLOAD PUSH2 0x3120 SWAP4 SWAP3 SWAP2 SWAP1 PUSH2 0x4097 JUMP JUMPDEST PUSH1 0x40 MLOAD DUP1 SWAP2 SUB SWAP1 LOG2 POP POP JUMP JUMPDEST PUSH1 0x0 CALLER SWAP1 POP SWAP1 JUMP JUMPDEST PUSH1 0x0 PUSH1 0x2 DUP2 GT ISZERO PUSH2 0x3148 JUMPI PUSH2 0x3147 PUSH2 0x46FB JUMP JUMPDEST JUMPDEST DUP2 PUSH1 0x2 DUP2 GT ISZERO PUSH2 0x315B JUMPI PUSH2 0x315A PUSH2 0x46FB JUMP JUMPDEST JUMPDEST EQ ISZERO PUSH2 0x319C JUMPI PUSH1 0x40 MLOAD PUSH32 0x8C379A000000000000000000000000000000000000000000000000000000000 DUP2 MSTORE PUSH1 0x4 ADD PUSH2 0x3193 SWAP1 PUSH2 0x40D5 JUMP JUMPDEST PUSH1 0x40 MLOAD DUP1 SWAP2 SUB SWAP1 REVERT JUMPDEST PUSH1 0x7 PUSH1 0x0 SWAP1 SLOAD SWAP1 PUSH2 0x100 EXP SWAP1 DIV PUSH2 0xFFFF AND PUSH1 0x4 PUSH1 0x0 PUSH1 0x7 PUSH1 0x0 SWAP1 SLOAD SWAP1 PUSH2 0x100 EXP SWAP1 DIV PUSH2 0xFFFF AND PUSH2 0xFFFF AND PUSH2 0xFFFF AND DUP2 MSTORE PUSH1 0x20 ADD SWAP1 DUP2 MSTORE PUSH1 0x20 ADD PUSH1 0x0 KECCAK256 PUSH1 0x0 ADD PUSH1 0x0 PUSH2 0x100 EXP DUP2 SLOAD DUP2 PUSH2 0xFFFF MUL NOT AND SWAP1 DUP4 PUSH2 0xFFFF AND MUL OR SWAP1 SSTORE POP PUSH1 0x6 PUSH1 0x0 DUP4 PUSH2 0xFFFF AND PUSH2 0xFFFF AND DUP2 MSTORE PUSH1 0x20 ADD SWAP1 DUP2 MSTORE PUSH1 0x20 ADD PUSH1 0x0 KECCAK256 PUSH1 0x2 ADD PUSH1 0x8 SWAP1 SLOAD SWAP1 PUSH2 0x100 EXP SWAP1 DIV PUSH20 0xFFFFFFFFFFFFFFFFFFFFFFFFFFFFFFFFFFFFFFFF AND PUSH1 0x4 PUSH1 0x0 PUSH1 0x7 PUSH1 0x0 SWAP1 SLOAD SWAP1 PUSH2 0x100 EXP SWAP1 DIV PUSH2 0xFFFF AND PUSH2 0xFFFF AND PUSH2 0xFFFF AND DUP2 MSTORE PUSH1 0x20 ADD SWAP1 DUP2 MSTORE PUSH1 0x20 ADD PUSH1 0x0 KECCAK256 PUSH1 0x2 ADD PUSH1 0x8 PUSH2 0x100 EXP DUP2 SLOAD DUP2 PUSH20 0xFFFFFFFFFFFFFFFFFFFFFFFFFFFFFFFFFFFFFFFF MUL NOT AND SWAP1 DUP4 PUSH20 0xFFFFFFFFFFFFFFFFFFFFFFFFFFFFFFFFFFFFFFFF AND MUL OR SWAP1 SSTORE POP PUSH1 0x6 PUSH1 0x0 DUP4 PUSH2 0xFFFF AND PUSH2 0xFFFF AND DUP2 MSTORE PUSH1 0x20 ADD SWAP1 DUP2 MSTORE PUSH1 0x20 ADD PUSH1 0x0 KECCAK256 PUSH1 0x1 ADD PUSH1 0x4 PUSH1 0x0 PUSH1 0x7 PUSH1 0x0 SWAP1 SLOAD SWAP1 PUSH2 0x100 EXP SWAP1 DIV PUSH2 0xFFFF AND PUSH2 0xFFFF AND PUSH2 0xFFFF AND DUP2 MSTORE PUSH1 0x20 ADD SWAP1 DUP2 MSTORE PUSH1 0x20 ADD PUSH1 0x0 KECCAK256 PUSH1 0x1 ADD SWAP1 DUP1 SLOAD PUSH2 0x32F8 SWAP1 PUSH2 0x4645 JUMP JUMPDEST PUSH2 0x3303 SWAP3 SWAP2 SWAP1 PUSH2 0x36AC JUMP JUMPDEST POP NUMBER PUSH1 0x4 PUSH1 0x0 PUSH1 0x7 PUSH1 0x0 SWAP1 SLOAD SWAP1 PUSH2 0x100 EXP SWAP1 DIV PUSH2 0xFFFF AND PUSH2 0xFFFF AND PUSH2 0xFFFF AND DUP2 MSTORE PUSH1 0x20 ADD SWAP1 DUP2 MSTORE PUSH1 0x20 ADD PUSH1 0x0 KECCAK256 PUSH1 0x3 ADD DUP2 SWAP1 SSTORE POP PUSH1 0x1 PUSH1 0xFF AND NUMBER PUSH2 0x3347 SWAP2 SWAP1 PUSH2 0x444B JUMP JUMPDEST PUSH1 0x4 PUSH1 0x0 PUSH1 0x7 PUSH1 0x0 SWAP1 SLOAD SWAP1 PUSH2 0x100 EXP SWAP1 DIV PUSH2 0xFFFF AND PUSH2 0xFFFF AND PUSH2 0xFFFF AND DUP2 MSTORE PUSH1 0x20 ADD SWAP1 DUP2 MSTORE PUSH1 0x20 ADD PUSH1 0x0 KECCAK256 PUSH1 0x4 ADD DUP2 SWAP1 SSTORE POP PUSH1 0x0 PUSH1 0x4 PUSH1 0x0 PUSH1 0x7 PUSH1 0x0 SWAP1 SLOAD SWAP1 PUSH2 0x100 EXP SWAP1 DIV PUSH2 0xFFFF AND PUSH2 0xFFFF AND PUSH2 0xFFFF AND DUP2 MSTORE PUSH1 0x20 ADD SWAP1 DUP2 MSTORE PUSH1 0x20 ADD PUSH1 0x0 KECCAK256 PUSH1 0x2 ADD PUSH1 0x4 PUSH2 0x100 EXP DUP2 SLOAD DUP2 PUSH4 0xFFFFFFFF MUL NOT AND SWAP1 DUP4 PUSH4 0xFFFFFFFF AND MUL OR SWAP1 SSTORE POP PUSH1 0x0 PUSH1 0x4 PUSH1 0x0 PUSH1 0x7 PUSH1 0x0 SWAP1 SLOAD SWAP1 PUSH2 0x100 EXP SWAP1 DIV PUSH2 0xFFFF AND PUSH2 0xFFFF AND PUSH2 0xFFFF AND DUP2 MSTORE PUSH1 0x20 ADD SWAP1 DUP2 MSTORE PUSH1 0x20 ADD PUSH1 0x0 KECCAK256 PUSH1 0x2 ADD PUSH1 0x0 PUSH2 0x100 EXP DUP2 SLOAD DUP2 PUSH4 0xFFFFFFFF MUL NOT AND SWAP1 DUP4 PUSH4 0xFFFFFFFF AND MUL OR SWAP1 SSTORE POP DUP1 PUSH1 0x4 PUSH1 0x0 PUSH1 0x7 PUSH1 0x0 SWAP1 SLOAD SWAP1 PUSH2 0x100 EXP SWAP1 DIV PUSH2 0xFFFF AND PUSH2 0xFFFF AND PUSH2 0xFFFF AND DUP2 MSTORE PUSH1 0x20 ADD SWAP1 DUP2 MSTORE PUSH1 0x20 ADD PUSH1 0x0 KECCAK256 PUSH1 0x6 ADD PUSH1 0x0 PUSH2 0x100 EXP DUP2 SLOAD DUP2 PUSH1 0xFF MUL NOT AND SWAP1 DUP4 PUSH1 0x2 DUP2 GT ISZERO PUSH2 0x3466 JUMPI PUSH2 0x3465 PUSH2 0x46FB JUMP JUMPDEST JUMPDEST MUL OR SWAP1 SSTORE POP PUSH1 0x1 PUSH1 0x7 PUSH1 0x0 DUP3 DUP3 DUP3 SWAP1 SLOAD SWAP1 PUSH2 0x100 EXP SWAP1 DIV PUSH2 0xFFFF AND PUSH2 0x348B SWAP2 SWAP1 PUSH2 0x4413 JUMP JUMPDEST SWAP3 POP PUSH2 0x100 EXP DUP2 SLOAD DUP2 PUSH2 0xFFFF MUL NOT AND SWAP1 DUP4 PUSH2 0xFFFF AND MUL OR SWAP1 SSTORE POP PUSH1 0x1 PUSH1 0x7 PUSH1 0x0 SWAP1 SLOAD SWAP1 PUSH2 0x100 EXP SWAP1 DIV PUSH2 0xFFFF AND PUSH2 0x34C2 SWAP2 SWAP1 PUSH2 0x4512 JUMP JUMPDEST PUSH2 0xFFFF AND PUSH32 0x673C7227A10FC9C3B48D83ED5A3ADBAF2BEC2CEFF9D15CF30C98816A3A16859E PUSH1 0x6 PUSH1 0x0 DUP6 PUSH2 0xFFFF AND PUSH2 0xFFFF AND DUP2 MSTORE PUSH1 0x20 ADD SWAP1 DUP2 MSTORE PUSH1 0x20 ADD PUSH1 0x0 KECCAK256 PUSH1 0x1 ADD PUSH1 0x40 MLOAD PUSH2 0x3512 SWAP2 SWAP1 PUSH2 0x4075 JUMP JUMPDEST PUSH1 0x40 MLOAD DUP1 SWAP2 SUB SWAP1 LOG2 POP POP JUMP JUMPDEST DUP3 DUP1 SLOAD PUSH2 0x352A SWAP1 PUSH2 0x4645 JUMP JUMPDEST SWAP1 PUSH1 0x0 MSTORE PUSH1 0x20 PUSH1 0x0 KECCAK256 SWAP1 PUSH1 0x1F ADD PUSH1 0x20 SWAP1 DIV DUP2 ADD SWAP3 DUP3 PUSH2 0x354C JUMPI PUSH1 0x0 DUP6 SSTORE PUSH2 0x3593 JUMP JUMPDEST DUP3 PUSH1 0x1F LT PUSH2 0x3565 JUMPI DUP1 CALLDATALOAD PUSH1 0xFF NOT AND DUP4 DUP1 ADD OR DUP6 SSTORE PUSH2 0x3593 JUMP JUMPDEST DUP3 DUP1 ADD PUSH1 0x1 ADD DUP6 SSTORE DUP3 ISZERO PUSH2 0x3593 JUMPI SWAP2 DUP3 ADD JUMPDEST DUP3 DUP2 GT ISZERO PUSH2 0x3592 JUMPI DUP3 CALLDATALOAD DUP3 SSTORE SWAP2 PUSH1 0x20 ADD SWAP2 SWAP1 PUSH1 0x1 ADD SWAP1 PUSH2 0x3577 JUMP JUMPDEST JUMPDEST POP SWAP1 POP PUSH2 0x35A0 SWAP2 SWAP1 PUSH2 0x3739 JUMP JUMPDEST POP SWAP1 JUMP JUMPDEST PUSH1 0x40 MLOAD DUP1 PUSH2 0x120 ADD PUSH1 0x40 MSTORE DUP1 PUSH1 0x0 PUSH2 0xFFFF AND DUP2 MSTORE PUSH1 0x20 ADD PUSH1 0x60 DUP2 MSTORE PUSH1 0x20 ADD PUSH1 0x0 PUSH4 0xFFFFFFFF AND DUP2 MSTORE PUSH1 0x20 ADD PUSH1 0x0 PUSH4 0xFFFFFFFF AND DUP2 MSTORE PUSH1 0x20 ADD PUSH1 0x0 PUSH20 0xFFFFFFFFFFFFFFFFFFFFFFFFFFFFFFFFFFFFFFFF AND DUP2 MSTORE PUSH1 0x20 ADD PUSH1 0x0 DUP2 MSTORE PUSH1 0x20 ADD PUSH1 0x0 DUP2 MSTORE PUSH1 0x20 ADD PUSH1 0x0 DUP2 MSTORE PUSH1 0x20 ADD PUSH1 0x0 PUSH1 0x2 DUP2 GT ISZERO PUSH2 0x3622 JUMPI PUSH2 0x3621 PUSH2 0x46FB JUMP JUMPDEST JUMPDEST DUP2 MSTORE POP SWAP1 JUMP JUMPDEST PUSH1 0x40 MLOAD DUP1 PUSH2 0x120 ADD PUSH1 0x40 MSTORE DUP1 PUSH1 0x0 PUSH2 0xFFFF AND DUP2 MSTORE PUSH1 0x20 ADD PUSH1 0x60 DUP2 MSTORE PUSH1 0x20 ADD PUSH1 0x0 PUSH4 0xFFFFFFFF AND DUP2 MSTORE PUSH1 0x20 ADD PUSH1 0x0 PUSH4 0xFFFFFFFF AND DUP2 MSTORE PUSH1 0x20 ADD PUSH1 0x0 PUSH20 0xFFFFFFFFFFFFFFFFFFFFFFFFFFFFFFFFFFFFFFFF AND DUP2 MSTORE PUSH1 0x20 ADD PUSH1 0x0 DUP2 MSTORE PUSH1 0x20 ADD PUSH1 0x0 DUP2 MSTORE PUSH1 0x20 ADD PUSH1 0x0 DUP2 MSTORE PUSH1 0x20 ADD PUSH1 0x0 PUSH1 0x2 DUP2 GT ISZERO PUSH2 0x36A6 JUMPI PUSH2 0x36A5 PUSH2 0x46FB JUMP JUMPDEST JUMPDEST DUP2 MSTORE POP SWAP1 JUMP JUMPDEST DUP3 DUP1 SLOAD PUSH2 0x36B8 SWAP1 PUSH2 0x4645 JUMP JUMPDEST SWAP1 PUSH1 0x0 MSTORE PUSH1 0x20 PUSH1 0x0 KECCAK256 SWAP1 PUSH1 0x1F ADD PUSH1 0x20 SWAP1 DIV DUP2 ADD SWAP3 DUP3 PUSH2 0x36DA JUMPI PUSH1 0x0 DUP6 SSTORE PUSH2 0x3728 JUMP JUMPDEST DUP3 PUSH1 0x1F LT PUSH2 0x36EB JUMPI DUP1 SLOAD DUP6 SSTORE PUSH2 0x3728 JUMP JUMPDEST DUP3 DUP1 ADD PUSH1 0x1 ADD DUP6 SSTORE DUP3 ISZERO PUSH2 0x3728 JUMPI PUSH1 0x0 MSTORE PUSH1 0x20 PUSH1 0x0 KECCAK256 SWAP2 PUSH1 0x1F ADD PUSH1 0x20 SWAP1 DIV DUP3 ADD JUMPDEST DUP3 DUP2 GT ISZERO PUSH2 0x3727 JUMPI DUP3 SLOAD DUP3 SSTORE SWAP2 PUSH1 0x1 ADD SWAP2 SWAP1 PUSH1 0x1 ADD SWAP1 PUSH2 0x370C JUMP JUMPDEST JUMPDEST POP SWAP1 POP PUSH2 0x3735 SWAP2 SWAP1 PUSH2 0x3739 JUMP JUMPDEST POP SWAP1 JUMP JUMPDEST JUMPDEST DUP1 DUP3 GT ISZERO PUSH2 0x3752 JUMPI PUSH1 0x0 DUP2 PUSH1 0x0 SWAP1 SSTORE POP PUSH1 0x1 ADD PUSH2 0x373A JUMP JUMPDEST POP SWAP1 JUMP JUMPDEST PUSH1 0x0 DUP2 CALLDATALOAD SWAP1 POP PUSH2 0x3765 DUP2 PUSH2 0x4B3D JUMP JUMPDEST SWAP3 SWAP2 POP POP JUMP JUMPDEST PUSH1 0x0 DUP2 CALLDATALOAD SWAP1 POP PUSH2 0x377A DUP2 PUSH2 0x4B54 JUMP JUMPDEST SWAP3 SWAP2 POP POP JUMP JUMPDEST PUSH1 0x0 DUP2 CALLDATALOAD SWAP1 POP PUSH2 0x378F DUP2 PUSH2 0x4B64 JUMP JUMPDEST SWAP3 SWAP2 POP POP JUMP JUMPDEST PUSH1 0x0 DUP1 DUP4 PUSH1 0x1F DUP5 ADD SLT PUSH2 0x37AB JUMPI PUSH2 0x37AA PUSH2 0x47BC JUMP JUMPDEST JUMPDEST DUP3 CALLDATALOAD SWAP1 POP PUSH8 0xFFFFFFFFFFFFFFFF DUP2 GT ISZERO PUSH2 0x37C8 JUMPI PUSH2 0x37C7 PUSH2 0x47B7 JUMP JUMPDEST JUMPDEST PUSH1 0x20 DUP4 ADD SWAP2 POP DUP4 PUSH1 0x1 DUP3 MUL DUP4 ADD GT ISZERO PUSH2 0x37E4 JUMPI PUSH2 0x37E3 PUSH2 0x47C1 JUMP JUMPDEST JUMPDEST SWAP3 POP SWAP3 SWAP1 POP JUMP JUMPDEST PUSH1 0x0 DUP2 CALLDATALOAD SWAP1 POP PUSH2 0x37FA DUP2 PUSH2 0x4B74 JUMP JUMPDEST SWAP3 SWAP2 POP POP JUMP JUMPDEST PUSH1 0x0 DUP2 CALLDATALOAD SWAP1 POP PUSH2 0x380F DUP2 PUSH2 0x4B8B JUMP JUMPDEST SWAP3 SWAP2 POP POP JUMP JUMPDEST PUSH1 0x0 PUSH1 0x20 DUP3 DUP5 SUB SLT ISZERO PUSH2 0x382B JUMPI PUSH2 0x382A PUSH2 0x47CB JUMP JUMPDEST JUMPDEST PUSH1 0x0 PUSH2 0x3839 DUP5 DUP3 DUP6 ADD PUSH2 0x3756 JUMP JUMPDEST SWAP2 POP POP SWAP3 SWAP2 POP POP JUMP JUMPDEST PUSH1 0x0 DUP1 PUSH1 0x0 PUSH1 0x40 DUP5 DUP7 SUB SLT ISZERO PUSH2 0x385B JUMPI PUSH2 0x385A PUSH2 0x47CB JUMP JUMPDEST JUMPDEST PUSH1 0x0 PUSH2 0x3869 DUP7 DUP3 DUP8 ADD PUSH2 0x3780 JUMP JUMPDEST SWAP4 POP POP PUSH1 0x20 DUP5 ADD CALLDATALOAD PUSH8 0xFFFFFFFFFFFFFFFF DUP2 GT ISZERO PUSH2 0x388A JUMPI PUSH2 0x3889 PUSH2 0x47C6 JUMP JUMPDEST JUMPDEST PUSH2 0x3896 DUP7 DUP3 DUP8 ADD PUSH2 0x3795 JUMP JUMPDEST SWAP3 POP SWAP3 POP POP SWAP3 POP SWAP3 POP SWAP3 JUMP JUMPDEST PUSH1 0x0 PUSH1 0x20 DUP3 DUP5 SUB SLT ISZERO PUSH2 0x38B8 JUMPI PUSH2 0x38B7 PUSH2 0x47CB JUMP JUMPDEST JUMPDEST PUSH1 0x0 PUSH2 0x38C6 DUP5 DUP3 DUP6 ADD PUSH2 0x37EB JUMP JUMPDEST SWAP2 POP POP SWAP3 SWAP2 POP POP JUMP JUMPDEST PUSH1 0x0 DUP1 PUSH1 0x40 DUP4 DUP6 SUB SLT ISZERO PUSH2 0x38E6 JUMPI PUSH2 0x38E5 PUSH2 0x47CB JUMP JUMPDEST JUMPDEST PUSH1 0x0 PUSH2 0x38F4 DUP6 DUP3 DUP7 ADD PUSH2 0x37EB JUMP JUMPDEST SWAP3 POP POP PUSH1 0x20 PUSH2 0x3905 DUP6 DUP3 DUP7 ADD PUSH2 0x376B JUMP JUMPDEST SWAP2 POP POP SWAP3 POP SWAP3 SWAP1 POP JUMP JUMPDEST PUSH1 0x0 DUP1 PUSH1 0x40 DUP4 DUP6 SUB SLT ISZERO PUSH2 0x3926 JUMPI PUSH2 0x3925 PUSH2 0x47CB JUMP JUMPDEST JUMPDEST PUSH1 0x0 PUSH2 0x3934 DUP6 DUP3 DUP7 ADD PUSH2 0x37EB JUMP JUMPDEST SWAP3 POP POP PUSH1 0x20 PUSH2 0x3945 DUP6 DUP3 DUP7 ADD PUSH2 0x37EB JUMP JUMPDEST SWAP2 POP POP SWAP3 POP SWAP3 SWAP1 POP JUMP JUMPDEST PUSH1 0x0 DUP1 PUSH1 0x40 DUP4 DUP6 SUB SLT ISZERO PUSH2 0x3966 JUMPI PUSH2 0x3965 PUSH2 0x47CB JUMP JUMPDEST JUMPDEST PUSH1 0x0 PUSH2 0x3974 DUP6 DUP3 DUP7 ADD PUSH2 0x37EB JUMP JUMPDEST SWAP3 POP POP PUSH1 0x20 PUSH2 0x3985 DUP6 DUP3 DUP7 ADD PUSH2 0x3800 JUMP JUMPDEST SWAP2 POP POP SWAP3 POP SWAP3 SWAP1 POP JUMP JUMPDEST PUSH1 0x0 DUP1 PUSH1 0x40 DUP4 DUP6 SUB SLT ISZERO PUSH2 0x39A6 JUMPI PUSH2 0x39A5 PUSH2 0x47CB JUMP JUMPDEST JUMPDEST PUSH1 0x0 PUSH2 0x39B4 DUP6 DUP3 DUP7 ADD PUSH2 0x3800 JUMP JUMPDEST SWAP3 POP POP PUSH1 0x20 PUSH2 0x39C5 DUP6 DUP3 DUP7 ADD PUSH2 0x3800 JUMP JUMPDEST SWAP2 POP POP SWAP3 POP SWAP3 SWAP1 POP JUMP JUMPDEST PUSH1 0x0 PUSH2 0x39DB DUP4 DUP4 PUSH2 0x3E08 JUMP JUMPDEST SWAP1 POP SWAP3 SWAP2 POP POP JUMP JUMPDEST PUSH1 0x0 PUSH2 0x39EF DUP4 DUP4 PUSH2 0x3ECD JUMP JUMPDEST SWAP1 POP SWAP3 SWAP2 POP POP JUMP JUMPDEST PUSH2 0x3A00 DUP2 PUSH2 0x457A JUMP JUMPDEST DUP3 MSTORE POP POP JUMP JUMPDEST PUSH2 0x3A0F DUP2 PUSH2 0x457A JUMP JUMPDEST DUP3 MSTORE POP POP JUMP JUMPDEST PUSH1 0x0 PUSH2 0x3A20 DUP3 PUSH2 0x4394 JUMP JUMPDEST PUSH2 0x3A2A DUP2 DUP6 PUSH2 0x43CF JUMP JUMPDEST SWAP4 POP DUP4 PUSH1 0x20 DUP3 MUL DUP6 ADD PUSH2 0x3A3C DUP6 PUSH2 0x435F JUMP JUMPDEST DUP1 PUSH1 0x0 JUMPDEST DUP6 DUP2 LT ISZERO PUSH2 0x3A78 JUMPI DUP5 DUP5 SUB DUP10 MSTORE DUP2 MLOAD PUSH2 0x3A59 DUP6 DUP3 PUSH2 0x39CF JUMP JUMPDEST SWAP5 POP PUSH2 0x3A64 DUP4 PUSH2 0x43B5 JUMP JUMPDEST SWAP3 POP PUSH1 0x20 DUP11 ADD SWAP10 POP POP PUSH1 0x1 DUP2 ADD SWAP1 POP PUSH2 0x3A40 JUMP JUMPDEST POP DUP3 SWAP8 POP DUP8 SWAP6 POP POP POP POP POP POP SWAP3 SWAP2 POP POP JUMP JUMPDEST PUSH1 0x0 PUSH2 0x3A95 DUP3 PUSH2 0x439F JUMP JUMPDEST PUSH2 0x3A9F DUP2 DUP6 PUSH2 0x43E0 JUMP JUMPDEST SWAP4 POP DUP4 PUSH1 0x20 DUP3 MUL DUP6 ADD PUSH2 0x3AB1 DUP6 PUSH2 0x436F JUMP JUMPDEST DUP1 PUSH1 0x0 JUMPDEST DUP6 DUP2 LT ISZERO PUSH2 0x3AED JUMPI DUP5 DUP5 SUB DUP10 MSTORE DUP2 MLOAD PUSH2 0x3ACE DUP6 DUP3 PUSH2 0x39E3 JUMP JUMPDEST SWAP5 POP PUSH2 0x3AD9 DUP4 PUSH2 0x43C2 JUMP JUMPDEST SWAP3 POP PUSH1 0x20 DUP11 ADD SWAP10 POP POP PUSH1 0x1 DUP2 ADD SWAP1 POP PUSH2 0x3AB5 JUMP JUMPDEST POP DUP3 SWAP8 POP DUP8 SWAP6 POP POP POP POP POP POP SWAP3 SWAP2 POP POP JUMP JUMPDEST PUSH2 0x3B08 DUP2 PUSH2 0x458C JUMP JUMPDEST DUP3 MSTORE POP POP JUMP JUMPDEST PUSH2 0x3B17 DUP2 PUSH2 0x4600 JUMP JUMPDEST DUP3 MSTORE POP POP JUMP JUMPDEST PUSH2 0x3B26 DUP2 PUSH2 0x4600 JUMP JUMPDEST DUP3 MSTORE POP POP JUMP JUMPDEST PUSH1 0x0 PUSH2 0x3B37 DUP3 PUSH2 0x43AA JUMP JUMPDEST PUSH2 0x3B41 DUP2 DUP6 PUSH2 0x43F1 JUMP JUMPDEST SWAP4 POP PUSH2 0x3B51 DUP2 DUP6 PUSH1 0x20 DUP7 ADD PUSH2 0x4612 JUMP JUMPDEST PUSH2 0x3B5A DUP2 PUSH2 0x47D0 JUMP JUMPDEST DUP5 ADD SWAP2 POP POP SWAP3 SWAP2 POP POP JUMP JUMPDEST PUSH1 0x0 PUSH2 0x3B70 DUP3 PUSH2 0x43AA JUMP JUMPDEST PUSH2 0x3B7A DUP2 DUP6 PUSH2 0x4402 JUMP JUMPDEST SWAP4 POP PUSH2 0x3B8A DUP2 DUP6 PUSH1 0x20 DUP7 ADD PUSH2 0x4612 JUMP JUMPDEST PUSH2 0x3B93 DUP2 PUSH2 0x47D0 JUMP JUMPDEST DUP5 ADD SWAP2 POP POP SWAP3 SWAP2 POP POP JUMP JUMPDEST PUSH1 0x0 DUP2 SLOAD PUSH2 0x3BAB DUP2 PUSH2 0x4645 JUMP JUMPDEST PUSH2 0x3BB5 DUP2 DUP7 PUSH2 0x4402 JUMP JUMPDEST SWAP5 POP PUSH1 0x1 DUP3 AND PUSH1 0x0 DUP2 EQ PUSH2 0x3BD0 JUMPI PUSH1 0x1 DUP2 EQ PUSH2 0x3BE2 JUMPI PUSH2 0x3C15 JUMP JUMPDEST PUSH1 0xFF NOT DUP4 AND DUP7 MSTORE PUSH1 0x20 DUP7 ADD SWAP4 POP PUSH2 0x3C15 JUMP JUMPDEST PUSH2 0x3BEB DUP6 PUSH2 0x437F JUMP JUMPDEST PUSH1 0x0 JUMPDEST DUP4 DUP2 LT ISZERO PUSH2 0x3C0D JUMPI DUP2 SLOAD DUP2 DUP10 ADD MSTORE PUSH1 0x1 DUP3 ADD SWAP2 POP PUSH1 0x20 DUP2 ADD SWAP1 POP PUSH2 0x3BEE JUMP JUMPDEST DUP1 DUP9 ADD SWAP6 POP POP POP JUMPDEST POP POP POP SWAP3 SWAP2 POP POP JUMP JUMPDEST PUSH1 0x0 PUSH2 0x3C2B PUSH1 0x2E DUP4 PUSH2 0x4402 JUMP JUMPDEST SWAP2 POP PUSH2 0x3C36 DUP3 PUSH2 0x47E1 JUMP JUMPDEST PUSH1 0x40 DUP3 ADD SWAP1 POP SWAP2 SWAP1 POP JUMP JUMPDEST PUSH1 0x0 PUSH2 0x3C4E PUSH1 0x13 DUP4 PUSH2 0x4402 JUMP JUMPDEST SWAP2 POP PUSH2 0x3C59 DUP3 PUSH2 0x4830 JUMP JUMPDEST PUSH1 0x20 DUP3 ADD SWAP1 POP SWAP2 SWAP1 POP JUMP JUMPDEST PUSH1 0x0 PUSH2 0x3C71 PUSH1 0x2D DUP4 PUSH2 0x4402 JUMP JUMPDEST SWAP2 POP PUSH2 0x3C7C DUP3 PUSH2 0x4859 JUMP JUMPDEST PUSH1 0x40 DUP3 ADD SWAP1 POP SWAP2 SWAP1 POP JUMP JUMPDEST PUSH1 0x0 PUSH2 0x3C94 PUSH1 0x26 DUP4 PUSH2 0x4402 JUMP JUMPDEST SWAP2 POP PUSH2 0x3C9F DUP3 PUSH2 0x48A8 JUMP JUMPDEST PUSH1 0x40 DUP3 ADD SWAP1 POP SWAP2 SWAP1 POP JUMP JUMPDEST PUSH1 0x0 PUSH2 0x3CB7 PUSH1 0x12 DUP4 PUSH2 0x4402 JUMP JUMPDEST SWAP2 POP PUSH2 0x3CC2 DUP3 PUSH2 0x48F7 JUMP JUMPDEST PUSH1 0x20 DUP3 ADD SWAP1 POP SWAP2 SWAP1 POP JUMP JUMPDEST PUSH1 0x0 PUSH2 0x3CDA PUSH1 0x30 DUP4 PUSH2 0x4402 JUMP JUMPDEST SWAP2 POP PUSH2 0x3CE5 DUP3 PUSH2 0x4920 JUMP JUMPDEST PUSH1 0x40 DUP3 ADD SWAP1 POP SWAP2 SWAP1 POP JUMP JUMPDEST PUSH1 0x0 PUSH2 0x3CFD PUSH1 0x21 DUP4 PUSH2 0x4402 JUMP JUMPDEST SWAP2 POP PUSH2 0x3D08 DUP3 PUSH2 0x496F JUMP JUMPDEST PUSH1 0x40 DUP3 ADD SWAP1 POP SWAP2 SWAP1 POP JUMP JUMPDEST PUSH1 0x0 PUSH2 0x3D20 PUSH1 0x21 DUP4 PUSH2 0x4402 JUMP JUMPDEST SWAP2 POP PUSH2 0x3D2B DUP3 PUSH2 0x49BE JUMP JUMPDEST PUSH1 0x40 DUP3 ADD SWAP1 POP SWAP2 SWAP1 POP JUMP JUMPDEST PUSH1 0x0 PUSH2 0x3D43 PUSH1 0x20 DUP4 PUSH2 0x4402 JUMP JUMPDEST SWAP2 POP PUSH2 0x3D4E DUP3 PUSH2 0x4A0D JUMP JUMPDEST PUSH1 0x20 DUP3 ADD SWAP1 POP SWAP2 SWAP1 POP JUMP JUMPDEST PUSH1 0x0 PUSH2 0x3D66 PUSH1 0x14 DUP4 PUSH2 0x4402 JUMP JUMPDEST SWAP2 POP PUSH2 0x3D71 DUP3 PUSH2 0x4A36 JUMP JUMPDEST PUSH1 0x20 DUP3 ADD SWAP1 POP SWAP2 SWAP1 POP JUMP JUMPDEST PUSH1 0x0 PUSH2 0x3D89 PUSH1 0x15 DUP4 PUSH2 0x4402 JUMP JUMPDEST SWAP2 POP PUSH2 0x3D94 DUP3 PUSH2 0x4A5F JUMP JUMPDEST PUSH1 0x20 DUP3 ADD SWAP1 POP SWAP2 SWAP1 POP JUMP JUMPDEST PUSH1 0x0 PUSH2 0x3DAC PUSH1 0x1C DUP4 PUSH2 0x4402 JUMP JUMPDEST SWAP2 POP PUSH2 0x3DB7 DUP3 PUSH2 0x4A88 JUMP JUMPDEST PUSH1 0x20 DUP3 ADD SWAP1 POP SWAP2 SWAP1 POP JUMP JUMPDEST PUSH1 0x0 PUSH2 0x3DCF PUSH1 0x14 DUP4 PUSH2 0x4402 JUMP JUMPDEST SWAP2 POP PUSH2 0x3DDA DUP3 PUSH2 0x4AB1 JUMP JUMPDEST PUSH1 0x20 DUP3 ADD SWAP1 POP SWAP2 SWAP1 POP JUMP JUMPDEST PUSH1 0x0 PUSH2 0x3DF2 PUSH1 0x32 DUP4 PUSH2 0x4402 JUMP JUMPDEST SWAP2 POP PUSH2 0x3DFD DUP3 PUSH2 0x4ADA JUMP JUMPDEST PUSH1 0x40 DUP3 ADD SWAP1 POP SWAP2 SWAP1 POP JUMP JUMPDEST PUSH1 0x0 PUSH2 0x120 DUP4 ADD PUSH1 0x0 DUP4 ADD MLOAD PUSH2 0x3E21 PUSH1 0x0 DUP7 ADD DUP3 PUSH2 0x3F92 JUMP JUMPDEST POP PUSH1 0x20 DUP4 ADD MLOAD DUP5 DUP3 SUB PUSH1 0x20 DUP7 ADD MSTORE PUSH2 0x3E39 DUP3 DUP3 PUSH2 0x3B2C JUMP JUMPDEST SWAP2 POP POP PUSH1 0x40 DUP4 ADD MLOAD PUSH2 0x3E4E PUSH1 0x40 DUP7 ADD DUP3 PUSH2 0x3FCE JUMP JUMPDEST POP PUSH1 0x60 DUP4 ADD MLOAD PUSH2 0x3E61 PUSH1 0x60 DUP7 ADD DUP3 PUSH2 0x3FCE JUMP JUMPDEST POP PUSH1 0x80 DUP4 ADD MLOAD PUSH2 0x3E74 PUSH1 0x80 DUP7 ADD DUP3 PUSH2 0x39F7 JUMP JUMPDEST POP PUSH1 0xA0 DUP4 ADD MLOAD PUSH2 0x3E87 PUSH1 0xA0 DUP7 ADD DUP3 PUSH2 0x3FB0 JUMP JUMPDEST POP PUSH1 0xC0 DUP4 ADD MLOAD PUSH2 0x3E9A PUSH1 0xC0 DUP7 ADD DUP3 PUSH2 0x3FB0 JUMP JUMPDEST POP PUSH1 0xE0 DUP4 ADD MLOAD PUSH2 0x3EAD PUSH1 0xE0 DUP7 ADD DUP3 PUSH2 0x3FB0 JUMP JUMPDEST POP PUSH2 0x100 DUP4 ADD MLOAD PUSH2 0x3EC2 PUSH2 0x100 DUP7 ADD DUP3 PUSH2 0x3B0E JUMP JUMPDEST POP DUP1 SWAP2 POP POP SWAP3 SWAP2 POP POP JUMP JUMPDEST PUSH1 0x0 PUSH2 0x120 DUP4 ADD PUSH1 0x0 DUP4 ADD MLOAD PUSH2 0x3EE6 PUSH1 0x0 DUP7 ADD DUP3 PUSH2 0x3F92 JUMP JUMPDEST POP PUSH1 0x20 DUP4 ADD MLOAD DUP5 DUP3 SUB PUSH1 0x20 DUP7 ADD MSTORE PUSH2 0x3EFE DUP3 DUP3 PUSH2 0x3B2C JUMP JUMPDEST SWAP2 POP POP PUSH1 0x40 DUP4 ADD MLOAD PUSH2 0x3F13 PUSH1 0x40 DUP7 ADD DUP3 PUSH2 0x3FCE JUMP JUMPDEST POP PUSH1 0x60 DUP4 ADD MLOAD PUSH2 0x3F26 PUSH1 0x60 DUP7 ADD DUP3 PUSH2 0x3FCE JUMP JUMPDEST POP PUSH1 0x80 DUP4 ADD MLOAD PUSH2 0x3F39 PUSH1 0x80 DUP7 ADD DUP3 PUSH2 0x39F7 JUMP JUMPDEST POP PUSH1 0xA0 DUP4 ADD MLOAD PUSH2 0x3F4C PUSH1 0xA0 DUP7 ADD DUP3 PUSH2 0x3FB0 JUMP JUMPDEST POP PUSH1 0xC0 DUP4 ADD MLOAD PUSH2 0x3F5F PUSH1 0xC0 DUP7 ADD DUP3 PUSH2 0x3FB0 JUMP JUMPDEST POP PUSH1 0xE0 DUP4 ADD MLOAD PUSH2 0x3F72 PUSH1 0xE0 DUP7 ADD DUP3 PUSH2 0x3FB0 JUMP JUMPDEST POP PUSH2 0x100 DUP4 ADD MLOAD PUSH2 0x3F87 PUSH2 0x100 DUP7 ADD DUP3 PUSH2 0x3B0E JUMP JUMPDEST POP DUP1 SWAP2 POP POP SWAP3 SWAP2 POP POP JUMP JUMPDEST PUSH2 0x3F9B DUP2 PUSH2 0x45AB JUMP JUMPDEST DUP3 MSTORE POP POP JUMP JUMPDEST PUSH2 0x3FAA DUP2 PUSH2 0x45AB JUMP JUMPDEST DUP3 MSTORE POP POP JUMP JUMPDEST PUSH2 0x3FB9 DUP2 PUSH2 0x45D9 JUMP JUMPDEST DUP3 MSTORE POP POP JUMP JUMPDEST PUSH2 0x3FC8 DUP2 PUSH2 0x45D9 JUMP JUMPDEST DUP3 MSTORE POP POP JUMP JUMPDEST PUSH2 0x3FD7 DUP2 PUSH2 0x45E3 JUMP JUMPDEST DUP3 MSTORE POP POP JUMP JUMPDEST PUSH2 0x3FE6 DUP2 PUSH2 0x45E3 JUMP JUMPDEST DUP3 MSTORE POP POP JUMP JUMPDEST PUSH2 0x3FF5 DUP2 PUSH2 0x45F3 JUMP JUMPDEST DUP3 MSTORE POP POP JUMP JUMPDEST PUSH1 0x0 PUSH1 0x20 DUP3 ADD SWAP1 POP PUSH2 0x4010 PUSH1 0x0 DUP4 ADD DUP5 PUSH2 0x3A06 JUMP JUMPDEST SWAP3 SWAP2 POP POP JUMP JUMPDEST PUSH1 0x0 PUSH1 0x20 DUP3 ADD SWAP1 POP DUP2 DUP2 SUB PUSH1 0x0 DUP4 ADD MSTORE PUSH2 0x4030 DUP2 DUP5 PUSH2 0x3A15 JUMP JUMPDEST SWAP1 POP SWAP3 SWAP2 POP POP JUMP JUMPDEST PUSH1 0x0 PUSH1 0x20 DUP3 ADD SWAP1 POP DUP2 DUP2 SUB PUSH1 0x0 DUP4 ADD MSTORE PUSH2 0x4052 DUP2 DUP5 PUSH2 0x3A8A JUMP JUMPDEST SWAP1 POP SWAP3 SWAP2 POP POP JUMP JUMPDEST PUSH1 0x0 PUSH1 0x20 DUP3 ADD SWAP1 POP PUSH2 0x406F PUSH1 0x0 DUP4 ADD DUP5 PUSH2 0x3AFF JUMP JUMPDEST SWAP3 SWAP2 POP POP JUMP JUMPDEST PUSH1 0x0 PUSH1 0x20 DUP3 ADD SWAP1 POP DUP2 DUP2 SUB PUSH1 0x0 DUP4 ADD MSTORE PUSH2 0x408F DUP2 DUP5 PUSH2 0x3B9E JUMP JUMPDEST SWAP1 POP SWAP3 SWAP2 POP POP JUMP JUMPDEST PUSH1 0x0 PUSH1 0x60 DUP3 ADD SWAP1 POP DUP2 DUP2 SUB PUSH1 0x0 DUP4 ADD MSTORE PUSH2 0x40B1 DUP2 DUP7 PUSH2 0x3B9E JUMP JUMPDEST SWAP1 POP PUSH2 0x40C0 PUSH1 0x20 DUP4 ADD DUP6 PUSH2 0x3FDD JUMP JUMPDEST PUSH2 0x40CD PUSH1 0x40 DUP4 ADD DUP5 PUSH2 0x3FDD JUMP JUMPDEST SWAP5 SWAP4 POP POP POP POP JUMP JUMPDEST PUSH1 0x0 PUSH1 0x20 DUP3 ADD SWAP1 POP DUP2 DUP2 SUB PUSH1 0x0 DUP4 ADD MSTORE PUSH2 0x40EE DUP2 PUSH2 0x3C1E JUMP JUMPDEST SWAP1 POP SWAP2 SWAP1 POP JUMP JUMPDEST PUSH1 0x0 PUSH1 0x20 DUP3 ADD SWAP1 POP DUP2 DUP2 SUB PUSH1 0x0 DUP4 ADD MSTORE PUSH2 0x410E DUP2 PUSH2 0x3C41 JUMP JUMPDEST SWAP1 POP SWAP2 SWAP1 POP JUMP JUMPDEST PUSH1 0x0 PUSH1 0x20 DUP3 ADD SWAP1 POP DUP2 DUP2 SUB PUSH1 0x0 DUP4 ADD MSTORE PUSH2 0x412E DUP2 PUSH2 0x3C64 JUMP JUMPDEST SWAP1 POP SWAP2 SWAP1 POP JUMP JUMPDEST PUSH1 0x0 PUSH1 0x20 DUP3 ADD SWAP1 POP DUP2 DUP2 SUB PUSH1 0x0 DUP4 ADD MSTORE PUSH2 0x414E DUP2 PUSH2 0x3C87 JUMP JUMPDEST SWAP1 POP SWAP2 SWAP1 POP JUMP JUMPDEST PUSH1 0x0 PUSH1 0x20 DUP3 ADD SWAP1 POP DUP2 DUP2 SUB PUSH1 0x0 DUP4 ADD MSTORE PUSH2 0x416E DUP2 PUSH2 0x3CAA JUMP JUMPDEST SWAP1 POP SWAP2 SWAP1 POP JUMP JUMPDEST PUSH1 0x0 PUSH1 0x20 DUP3 ADD SWAP1 POP DUP2 DUP2 SUB PUSH1 0x0 DUP4 ADD MSTORE PUSH2 0x418E DUP2 PUSH2 0x3CCD JUMP JUMPDEST SWAP1 POP SWAP2 SWAP1 POP JUMP JUMPDEST PUSH1 0x0 PUSH1 0x20 DUP3 ADD SWAP1 POP DUP2 DUP2 SUB PUSH1 0x0 DUP4 ADD MSTORE PUSH2 0x41AE DUP2 PUSH2 0x3CF0 JUMP JUMPDEST SWAP1 POP SWAP2 SWAP1 POP JUMP JUMPDEST PUSH1 0x0 PUSH1 0x20 DUP3 ADD SWAP1 POP DUP2 DUP2 SUB PUSH1 0x0 DUP4 ADD MSTORE PUSH2 0x41CE DUP2 PUSH2 0x3D13 JUMP JUMPDEST SWAP1 POP SWAP2 SWAP1 POP JUMP JUMPDEST PUSH1 0x0 PUSH1 0x20 DUP3 ADD SWAP1 POP DUP2 DUP2 SUB PUSH1 0x0 DUP4 ADD MSTORE PUSH2 0x41EE DUP2 PUSH2 0x3D36 JUMP JUMPDEST SWAP1 POP SWAP2 SWAP1 POP JUMP JUMPDEST PUSH1 0x0 PUSH1 0x20 DUP3 ADD SWAP1 POP DUP2 DUP2 SUB PUSH1 0x0 DUP4 ADD MSTORE PUSH2 0x420E DUP2 PUSH2 0x3D59 JUMP JUMPDEST SWAP1 POP SWAP2 SWAP1 POP JUMP JUMPDEST PUSH1 0x0 PUSH1 0x20 DUP3 ADD SWAP1 POP DUP2 DUP2 SUB PUSH1 0x0 DUP4 ADD MSTORE PUSH2 0x422E DUP2 PUSH2 0x3D7C JUMP JUMPDEST SWAP1 POP SWAP2 SWAP1 POP JUMP JUMPDEST PUSH1 0x0 PUSH1 0x20 DUP3 ADD SWAP1 POP DUP2 DUP2 SUB PUSH1 0x0 DUP4 ADD MSTORE PUSH2 0x424E DUP2 PUSH2 0x3D9F JUMP JUMPDEST SWAP1 POP SWAP2 SWAP1 POP JUMP JUMPDEST PUSH1 0x0 PUSH1 0x20 DUP3 ADD SWAP1 POP DUP2 DUP2 SUB PUSH1 0x0 DUP4 ADD MSTORE PUSH2 0x426E DUP2 PUSH2 0x3DC2 JUMP JUMPDEST SWAP1 POP SWAP2 SWAP1 POP JUMP JUMPDEST PUSH1 0x0 PUSH1 0x20 DUP3 ADD SWAP1 POP DUP2 DUP2 SUB PUSH1 0x0 DUP4 ADD MSTORE PUSH2 0x428E DUP2 PUSH2 0x3DE5 JUMP JUMPDEST SWAP1 POP SWAP2 SWAP1 POP JUMP JUMPDEST PUSH1 0x0 PUSH1 0x20 DUP3 ADD SWAP1 POP PUSH2 0x42AA PUSH1 0x0 DUP4 ADD DUP5 PUSH2 0x3FA1 JUMP JUMPDEST SWAP3 SWAP2 POP POP JUMP JUMPDEST PUSH1 0x0 PUSH2 0x120 DUP3 ADD SWAP1 POP PUSH2 0x42C6 PUSH1 0x0 DUP4 ADD DUP13 PUSH2 0x3FA1 JUMP JUMPDEST DUP2 DUP2 SUB PUSH1 0x20 DUP4 ADD MSTORE PUSH2 0x42D8 DUP2 DUP12 PUSH2 0x3B65 JUMP JUMPDEST SWAP1 POP PUSH2 0x42E7 PUSH1 0x40 DUP4 ADD DUP11 PUSH2 0x3FDD JUMP JUMPDEST PUSH2 0x42F4 PUSH1 0x60 DUP4 ADD DUP10 PUSH2 0x3FDD JUMP JUMPDEST PUSH2 0x4301 PUSH1 0x80 DUP4 ADD DUP9 PUSH2 0x3A06 JUMP JUMPDEST PUSH2 0x430E PUSH1 0xA0 DUP4 ADD DUP8 PUSH2 0x3FBF JUMP JUMPDEST PUSH2 0x431B PUSH1 0xC0 DUP4 ADD DUP7 PUSH2 0x3FBF JUMP JUMPDEST PUSH2 0x4328 PUSH1 0xE0 DUP4 ADD DUP6 PUSH2 0x3FBF JUMP JUMPDEST PUSH2 0x4336 PUSH2 0x100 DUP4 ADD DUP5 PUSH2 0x3B1D JUMP JUMPDEST SWAP11 SWAP10 POP POP POP POP POP POP POP POP POP POP JUMP JUMPDEST PUSH1 0x0 PUSH1 0x20 DUP3 ADD SWAP1 POP PUSH2 0x4359 PUSH1 0x0 DUP4 ADD DUP5 PUSH2 0x3FEC JUMP JUMPDEST SWAP3 SWAP2 POP POP JUMP JUMPDEST PUSH1 0x0 DUP2 SWAP1 POP PUSH1 0x20 DUP3 ADD SWAP1 POP SWAP2 SWAP1 POP JUMP JUMPDEST PUSH1 0x0 DUP2 SWAP1 POP PUSH1 0x20 DUP3 ADD SWAP1 POP SWAP2 SWAP1 POP JUMP JUMPDEST PUSH1 0x0 DUP2 SWAP1 POP DUP2 PUSH1 0x0 MSTORE PUSH1 0x20 PUSH1 0x0 KECCAK256 SWAP1 POP SWAP2 SWAP1 POP JUMP JUMPDEST PUSH1 0x0 DUP2 MLOAD SWAP1 POP SWAP2 SWAP1 POP JUMP JUMPDEST PUSH1 0x0 DUP2 MLOAD SWAP1 POP SWAP2 SWAP1 POP JUMP JUMPDEST PUSH1 0x0 DUP2 MLOAD SWAP1 POP SWAP2 SWAP1 POP JUMP JUMPDEST PUSH1 0x0 PUSH1 0x20 DUP3 ADD SWAP1 POP SWAP2 SWAP1 POP JUMP JUMPDEST PUSH1 0x0 PUSH1 0x20 DUP3 ADD SWAP1 POP SWAP2 SWAP1 POP JUMP JUMPDEST PUSH1 0x0 DUP3 DUP3 MSTORE PUSH1 0x20 DUP3 ADD SWAP1 POP SWAP3 SWAP2 POP POP JUMP JUMPDEST PUSH1 0x0 DUP3 DUP3 MSTORE PUSH1 0x20 DUP3 ADD SWAP1 POP SWAP3 SWAP2 POP POP JUMP JUMPDEST PUSH1 0x0 DUP3 DUP3 MSTORE PUSH1 0x20 DUP3 ADD SWAP1 POP SWAP3 SWAP2 POP POP JUMP JUMPDEST PUSH1 0x0 DUP3 DUP3 MSTORE PUSH1 0x20 DUP3 ADD SWAP1 POP SWAP3 SWAP2 POP POP JUMP JUMPDEST PUSH1 0x0 PUSH2 0x441E DUP3 PUSH2 0x45AB JUMP JUMPDEST SWAP2 POP PUSH2 0x4429 DUP4 PUSH2 0x45AB JUMP JUMPDEST SWAP3 POP DUP3 PUSH2 0xFFFF SUB DUP3 GT ISZERO PUSH2 0x4440 JUMPI PUSH2 0x443F PUSH2 0x46CC JUMP JUMPDEST JUMPDEST DUP3 DUP3 ADD SWAP1 POP SWAP3 SWAP2 POP POP JUMP JUMPDEST PUSH1 0x0 PUSH2 0x4456 DUP3 PUSH2 0x45D9 JUMP JUMPDEST SWAP2 POP PUSH2 0x4461 DUP4 PUSH2 0x45D9 JUMP JUMPDEST SWAP3 POP DUP3 PUSH32 0xFFFFFFFFFFFFFFFFFFFFFFFFFFFFFFFFFFFFFFFFFFFFFFFFFFFFFFFFFFFFFFFF SUB DUP3 GT ISZERO PUSH2 0x4496 JUMPI PUSH2 0x4495 PUSH2 0x46CC JUMP JUMPDEST JUMPDEST DUP3 DUP3 ADD SWAP1 POP SWAP3 SWAP2 POP POP JUMP JUMPDEST PUSH1 0x0 PUSH2 0x44AC DUP3 PUSH2 0x45E3 JUMP JUMPDEST SWAP2 POP PUSH2 0x44B7 DUP4 PUSH2 0x45E3 JUMP JUMPDEST SWAP3 POP DUP3 PUSH4 0xFFFFFFFF SUB DUP3 GT ISZERO PUSH2 0x44D0 JUMPI PUSH2 0x44CF PUSH2 0x46CC JUMP JUMPDEST JUMPDEST DUP3 DUP3 ADD SWAP1 POP SWAP3 SWAP2 POP POP JUMP JUMPDEST PUSH1 0x0 PUSH2 0x44E6 DUP3 PUSH2 0x45F3 JUMP JUMPDEST SWAP2 POP PUSH2 0x44F1 DUP4 PUSH2 0x45F3 JUMP JUMPDEST SWAP3 POP DUP3 PUSH1 0xFF SUB DUP3 GT ISZERO PUSH2 0x4507 JUMPI PUSH2 0x4506 PUSH2 0x46CC JUMP JUMPDEST JUMPDEST DUP3 DUP3 ADD SWAP1 POP SWAP3 SWAP2 POP POP JUMP JUMPDEST PUSH1 0x0 PUSH2 0x451D DUP3 PUSH2 0x45AB JUMP JUMPDEST SWAP2 POP PUSH2 0x4528 DUP4 PUSH2 0x45AB JUMP JUMPDEST SWAP3 POP DUP3 DUP3 LT ISZERO PUSH2 0x453B JUMPI PUSH2 0x453A PUSH2 0x46CC JUMP JUMPDEST JUMPDEST DUP3 DUP3 SUB SWAP1 POP SWAP3 SWAP2 POP POP JUMP JUMPDEST PUSH1 0x0 PUSH2 0x4551 DUP3 PUSH2 0x45F3 JUMP JUMPDEST SWAP2 POP PUSH2 0x455C DUP4 PUSH2 0x45F3 JUMP JUMPDEST SWAP3 POP DUP3 DUP3 LT ISZERO PUSH2 0x456F JUMPI PUSH2 0x456E PUSH2 0x46CC JUMP JUMPDEST JUMPDEST DUP3 DUP3 SUB SWAP1 POP SWAP3 SWAP2 POP POP JUMP JUMPDEST PUSH1 0x0 PUSH2 0x4585 DUP3 PUSH2 0x45B9 JUMP JUMPDEST SWAP1 POP SWAP2 SWAP1 POP JUMP JUMPDEST PUSH1 0x0 DUP2 ISZERO ISZERO SWAP1 POP SWAP2 SWAP1 POP JUMP JUMPDEST PUSH1 0x0 DUP2 SWAP1 POP PUSH2 0x45A6 DUP3 PUSH2 0x4B29 JUMP JUMPDEST SWAP2 SWAP1 POP JUMP JUMPDEST PUSH1 0x0 PUSH2 0xFFFF DUP3 AND SWAP1 POP SWAP2 SWAP1 POP JUMP JUMPDEST PUSH1 0x0 PUSH20 0xFFFFFFFFFFFFFFFFFFFFFFFFFFFFFFFFFFFFFFFF DUP3 AND SWAP1 POP SWAP2 SWAP1 POP JUMP JUMPDEST PUSH1 0x0 DUP2 SWAP1 POP SWAP2 SWAP1 POP JUMP JUMPDEST PUSH1 0x0 PUSH4 0xFFFFFFFF DUP3 AND SWAP1 POP SWAP2 SWAP1 POP JUMP JUMPDEST PUSH1 0x0 PUSH1 0xFF DUP3 AND SWAP1 POP SWAP2 SWAP1 POP JUMP JUMPDEST PUSH1 0x0 PUSH2 0x460B DUP3 PUSH2 0x4598 JUMP JUMPDEST SWAP1 POP SWAP2 SWAP1 POP JUMP JUMPDEST PUSH1 0x0 JUMPDEST DUP4 DUP2 LT ISZERO PUSH2 0x4630 JUMPI DUP1 DUP3 ADD MLOAD DUP2 DUP5 ADD MSTORE PUSH1 0x20 DUP2 ADD SWAP1 POP PUSH2 0x4615 JUMP JUMPDEST DUP4 DUP2 GT ISZERO PUSH2 0x463F JUMPI PUSH1 0x0 DUP5 DUP5 ADD MSTORE JUMPDEST POP POP POP POP JUMP JUMPDEST PUSH1 0x0 PUSH1 0x2 DUP3 DIV SWAP1 POP PUSH1 0x1 DUP3 AND DUP1 PUSH2 0x465D JUMPI PUSH1 0x7F DUP3 AND SWAP2 POP JUMPDEST PUSH1 0x20 DUP3 LT DUP2 EQ ISZERO PUSH2 0x4671 JUMPI PUSH2 0x4670 PUSH2 0x472A JUMP JUMPDEST JUMPDEST POP SWAP2 SWAP1 POP JUMP JUMPDEST PUSH1 0x0 PUSH2 0x4682 DUP3 PUSH2 0x45AB JUMP JUMPDEST SWAP2 POP PUSH2 0xFFFF DUP3 EQ ISZERO PUSH2 0x4697 JUMPI PUSH2 0x4696 PUSH2 0x46CC JUMP JUMPDEST JUMPDEST PUSH1 0x1 DUP3 ADD SWAP1 POP SWAP2 SWAP1 POP JUMP JUMPDEST PUSH1 0x0 PUSH2 0x46AD DUP3 PUSH2 0x45F3 JUMP JUMPDEST SWAP2 POP PUSH1 0xFF DUP3 EQ ISZERO PUSH2 0x46C1 JUMPI PUSH2 0x46C0 PUSH2 0x46CC JUMP JUMPDEST JUMPDEST PUSH1 0x1 DUP3 ADD SWAP1 POP SWAP2 SWAP1 POP JUMP JUMPDEST PUSH32 0x4E487B7100000000000000000000000000000000000000000000000000000000 PUSH1 0x0 MSTORE PUSH1 0x11 PUSH1 0x4 MSTORE PUSH1 0x24 PUSH1 0x0 REVERT JUMPDEST PUSH32 0x4E487B7100000000000000000000000000000000000000000000000000000000 PUSH1 0x0 MSTORE PUSH1 0x21 PUSH1 0x4 MSTORE PUSH1 0x24 PUSH1 0x0 REVERT JUMPDEST PUSH32 0x4E487B7100000000000000000000000000000000000000000000000000000000 PUSH1 0x0 MSTORE PUSH1 0x22 PUSH1 0x4 MSTORE PUSH1 0x24 PUSH1 0x0 REVERT JUMPDEST PUSH32 0x4E487B7100000000000000000000000000000000000000000000000000000000 PUSH1 0x0 MSTORE PUSH1 0x32 PUSH1 0x4 MSTORE PUSH1 0x24 PUSH1 0x0 REVERT JUMPDEST PUSH32 0x4E487B7100000000000000000000000000000000000000000000000000000000 PUSH1 0x0 MSTORE PUSH1 0x41 PUSH1 0x4 MSTORE PUSH1 0x24 PUSH1 0x0 REVERT JUMPDEST PUSH1 0x0 DUP1 REVERT JUMPDEST PUSH1 0x0 DUP1 REVERT JUMPDEST PUSH1 0x0 DUP1 REVERT JUMPDEST PUSH1 0x0 DUP1 REVERT JUMPDEST PUSH1 0x0 DUP1 REVERT JUMPDEST PUSH1 0x0 PUSH1 0x1F NOT PUSH1 0x1F DUP4 ADD AND SWAP1 POP SWAP2 SWAP1 POP JUMP JUMPDEST PUSH32 0x566F74696E6720547970652063616E6E6F7420626520636C6F73656420617420 PUSH1 0x0 DUP3 ADD MSTORE PUSH32 0x696E697469616C2073746174652E000000000000000000000000000000000000 PUSH1 0x20 DUP3 ADD MSTORE POP JUMP JUMPDEST PUSH32 0x596F7520617265206E6F74206120766F74657200000000000000000000000000 PUSH1 0x0 DUP3 ADD MSTORE POP JUMP JUMPDEST PUSH32 0x43757272656E746C7920776520617265206E6F7420766F74696E67206F6E2074 PUSH1 0x0 DUP3 ADD MSTORE PUSH32 0x6869732066756E6374696F6E2E00000000000000000000000000000000000000 PUSH1 0x20 DUP3 ADD MSTORE POP JUMP JUMPDEST PUSH32 0x4F776E61626C653A206E6577206F776E657220697320746865207A65726F2061 PUSH1 0x0 DUP3 ADD MSTORE PUSH32 0x6464726573730000000000000000000000000000000000000000000000000000 PUSH1 0x20 DUP3 ADD MSTORE POP JUMP JUMPDEST PUSH32 0x5468657265206973206E6F20766F74696E670000000000000000000000000000 PUSH1 0x0 DUP3 ADD MSTORE POP JUMP JUMPDEST PUSH32 0x50726F706F73616C20547970652063616E6E6F7420626520636C6F7365642061 PUSH1 0x0 DUP3 ADD MSTORE PUSH32 0x7420696E697469616C2073746174652E00000000000000000000000000000000 PUSH1 0x20 DUP3 ADD MSTORE POP JUMP JUMPDEST PUSH32 0x596F7520617265206E6F7420746865204B6579486F6C646572436F6E74726163 PUSH1 0x0 DUP3 ADD MSTORE PUSH32 0x7400000000000000000000000000000000000000000000000000000000000000 PUSH1 0x20 DUP3 ADD MSTORE POP JUMP JUMPDEST PUSH32 0x476976656E206164647265737320697320616C7265616479206120766F746572 PUSH1 0x0 DUP3 ADD MSTORE PUSH32 0x2E00000000000000000000000000000000000000000000000000000000000000 PUSH1 0x20 DUP3 ADD MSTORE POP JUMP JUMPDEST PUSH32 0x4F776E61626C653A2063616C6C6572206973206E6F7420746865206F776E6572 PUSH1 0x0 DUP3 ADD MSTORE POP JUMP JUMPDEST PUSH32 0x5A65726F204164647265737320656E7465726564000000000000000000000000 PUSH1 0x0 DUP3 ADD MSTORE POP JUMP JUMPDEST PUSH32 0x596F75206861766520766F746564206265666F72650000000000000000000000 PUSH1 0x0 DUP3 ADD MSTORE POP JUMP JUMPDEST PUSH32 0x506C6561736520766F7465206265747765656E203120746F2031302E00000000 PUSH1 0x0 DUP3 ADD MSTORE POP JUMP JUMPDEST PUSH32 0x596F7520617265206E6F74206120766F74657272000000000000000000000000 PUSH1 0x0 DUP3 ADD MSTORE POP JUMP JUMPDEST PUSH32 0x566F74696E672063616E6E6F7420626520636C6F736564206265666F72652069 PUSH1 0x0 DUP3 ADD MSTORE PUSH32 0x7427732064657369676E6174656420746F2E0000000000000000000000000000 PUSH1 0x20 DUP3 ADD MSTORE POP JUMP JUMPDEST PUSH1 0x3 DUP2 LT PUSH2 0x4B3A JUMPI PUSH2 0x4B39 PUSH2 0x46FB JUMP JUMPDEST JUMPDEST POP JUMP JUMPDEST PUSH2 0x4B46 DUP2 PUSH2 0x457A JUMP JUMPDEST DUP2 EQ PUSH2 0x4B51 JUMPI PUSH1 0x0 DUP1 REVERT JUMPDEST POP JUMP JUMPDEST PUSH1 0x2 DUP2 LT PUSH2 0x4B61 JUMPI PUSH1 0x0 DUP1 REVERT JUMPDEST POP JUMP JUMPDEST PUSH1 0x3 DUP2 LT PUSH2 0x4B71 JUMPI PUSH1 0x0 DUP1 REVERT JUMPDEST POP JUMP JUMPDEST PUSH2 0x4B7D DUP2 PUSH2 0x45AB JUMP JUMPDEST DUP2 EQ PUSH2 0x4B88 JUMPI PUSH1 0x0 DUP1 REVERT JUMPDEST POP JUMP JUMPDEST PUSH2 0x4B94 DUP2 PUSH2 0x45F3 JUMP JUMPDEST DUP2 EQ PUSH2 0x4B9F JUMPI PUSH1 0x0 DUP1 REVERT JUMPDEST POP JUMP INVALID LOG2 PUSH5 0x6970667358 0x22 SLT KECCAK256 SWAP15 0xF6 DUP5 PUSH32 0xE650E20C7BAA8CEBD8F0534A2403C33C6C72D160C3785B425E4416F964736F6C PUSH4 0x43000807 STOP CALLER "
				},
				"gasEstimates": {
					"creation": {
						"codeDepositCost": "3883200",
						"executionCost": "infinite",
						"totalCost": "infinite"
					},
					"external": {
						"amIVOTER()": "2592",
						"closeProposal(uint16)": "infinite",
						"closeVoting(uint16)": "infinite",
						"getProposals(uint16,uint16)": "infinite",
						"getVotings(uint8,uint8)": "infinite",
						"giveVotingPower(address)": "infinite",
						"keyHolder()": "2537",
						"openProposal(uint8,string)": "infinite",
						"owner()": "2655",
						"proposalId()": "2611",
						"proposals(uint16)": "infinite",
						"renounceOwnership()": "30509",
						"setKeyHolderAddress(address)": "27031",
						"totalVoterCount()": "2610",
						"transferOwnership(address)": "30835",
						"useVotePowerOne2Ten(uint16,uint8)": "infinite",
						"useVotePowerProposalOne2Ten(uint16,uint8)": "infinite",
						"useVotePowerProposalYesNo(uint16,uint8)": "infinite",
						"useVotePowerYesNo(uint16,uint8)": "infinite",
						"voteId()": "2603",
						"votings(uint16)": "infinite",
						"whatDidIVote()": "4905"
					},
					"internal": {
						"_closeProposal(uint16)": "infinite",
						"_closeVoting(uint16)": "infinite",
						"_openVoting(uint16,enum VoterContract.VotingType)": "infinite"
					}
				},
				"methodIdentifiers": {
					"amIVOTER()": "04f397cf",
					"closeProposal(uint16)": "de513e3d",
					"closeVoting(uint16)": "156c2da6",
					"getProposals(uint16,uint16)": "393a97ef",
					"getVotings(uint8,uint8)": "fae04215",
					"giveVotingPower(address)": "ea31a64c",
					"keyHolder()": "45e641d0",
					"openProposal(uint8,string)": "1ffc5042",
					"owner()": "8da5cb5b",
					"proposalId()": "2dfca445",
					"proposals(uint16)": "c497efa3",
					"renounceOwnership()": "715018a6",
					"setKeyHolderAddress(address)": "bf2aba79",
					"totalVoterCount()": "6f71e065",
					"transferOwnership(address)": "f2fde38b",
					"useVotePowerOne2Ten(uint16,uint8)": "4d313bb8",
					"useVotePowerProposalOne2Ten(uint16,uint8)": "9ea061c9",
					"useVotePowerProposalYesNo(uint16,uint8)": "cf5ebb38",
					"useVotePowerYesNo(uint16,uint8)": "481aa215",
					"voteId()": "fbb39651",
					"votings(uint16)": "ddd2d1fd",
					"whatDidIVote()": "da92d1d9"
				}
			},
			"storageLayout": {
				"storage": [
					{
						"astId": 7,
						"contract": "contracts/Vote/VoterContract.sol:VoterContract",
						"label": "_owner",
						"offset": 0,
						"slot": "0",
						"type": "t_address"
					},
					{
						"astId": 313,
						"contract": "contracts/Vote/VoterContract.sol:VoterContract",
						"label": "keyHolder",
						"offset": 0,
						"slot": "1",
						"type": "t_address"
					},
					{
						"astId": 396,
						"contract": "contracts/Vote/VoterContract.sol:VoterContract",
						"label": "__VOTERS__",
						"offset": 0,
						"slot": "2",
						"type": "t_mapping(t_address,t_bool)"
					},
					{
						"astId": 402,
						"contract": "contracts/Vote/VoterContract.sol:VoterContract",
						"label": "votePower",
						"offset": 0,
						"slot": "3",
						"type": "t_mapping(t_uint16,t_mapping(t_address,t_uint8))"
					},
					{
						"astId": 407,
						"contract": "contracts/Vote/VoterContract.sol:VoterContract",
						"label": "votings",
						"offset": 0,
						"slot": "4",
						"type": "t_mapping(t_uint16,t_struct(Voting)372_storage)"
					},
					{
						"astId": 413,
						"contract": "contracts/Vote/VoterContract.sol:VoterContract",
						"label": "proposalVotePower",
						"offset": 0,
						"slot": "5",
						"type": "t_mapping(t_uint16,t_mapping(t_address,t_uint8))"
					},
					{
						"astId": 418,
						"contract": "contracts/Vote/VoterContract.sol:VoterContract",
						"label": "proposals",
						"offset": 0,
						"slot": "6",
						"type": "t_mapping(t_uint16,t_struct(Proposal)392_storage)"
					},
					{
						"astId": 424,
						"contract": "contracts/Vote/VoterContract.sol:VoterContract",
						"label": "voteId",
						"offset": 0,
						"slot": "7",
						"type": "t_uint16"
					},
					{
						"astId": 427,
						"contract": "contracts/Vote/VoterContract.sol:VoterContract",
						"label": "proposalId",
						"offset": 2,
						"slot": "7",
						"type": "t_uint16"
					},
					{
						"astId": 430,
						"contract": "contracts/Vote/VoterContract.sol:VoterContract",
						"label": "totalVoterCount",
						"offset": 4,
						"slot": "7",
						"type": "t_uint16"
					}
				],
				"types": {
					"t_address": {
						"encoding": "inplace",
						"label": "address",
						"numberOfBytes": "20"
					},
					"t_bool": {
						"encoding": "inplace",
						"label": "bool",
						"numberOfBytes": "1"
					},
					"t_enum(VotingType)349": {
						"encoding": "inplace",
						"label": "enum VoterContract.VotingType",
						"numberOfBytes": "1"
					},
					"t_mapping(t_address,t_bool)": {
						"encoding": "mapping",
						"key": "t_address",
						"label": "mapping(address => bool)",
						"numberOfBytes": "32",
						"value": "t_bool"
					},
					"t_mapping(t_address,t_uint8)": {
						"encoding": "mapping",
						"key": "t_address",
						"label": "mapping(address => uint8)",
						"numberOfBytes": "32",
						"value": "t_uint8"
					},
					"t_mapping(t_uint16,t_mapping(t_address,t_uint8))": {
						"encoding": "mapping",
						"key": "t_uint16",
						"label": "mapping(uint16 => mapping(address => uint8))",
						"numberOfBytes": "32",
						"value": "t_mapping(t_address,t_uint8)"
					},
					"t_mapping(t_uint16,t_struct(Proposal)392_storage)": {
						"encoding": "mapping",
						"key": "t_uint16",
						"label": "mapping(uint16 => struct VoterContract.Proposal)",
						"numberOfBytes": "32",
						"value": "t_struct(Proposal)392_storage"
					},
					"t_mapping(t_uint16,t_struct(Voting)372_storage)": {
						"encoding": "mapping",
						"key": "t_uint16",
						"label": "mapping(uint16 => struct VoterContract.Voting)",
						"numberOfBytes": "32",
						"value": "t_struct(Voting)372_storage"
					},
					"t_string_storage": {
						"encoding": "bytes",
						"label": "string",
						"numberOfBytes": "32"
					},
					"t_struct(Proposal)392_storage": {
						"encoding": "inplace",
						"label": "struct VoterContract.Proposal",
						"members": [
							{
								"astId": 374,
								"contract": "contracts/Vote/VoterContract.sol:VoterContract",
								"label": "id",
								"offset": 0,
								"slot": "0",
								"type": "t_uint16"
							},
							{
								"astId": 376,
								"contract": "contracts/Vote/VoterContract.sol:VoterContract",
								"label": "topic",
								"offset": 0,
								"slot": "1",
								"type": "t_string_storage"
							},
							{
								"astId": 378,
								"contract": "contracts/Vote/VoterContract.sol:VoterContract",
								"label": "voted",
								"offset": 0,
								"slot": "2",
								"type": "t_uint32"
							},
							{
								"astId": 380,
								"contract": "contracts/Vote/VoterContract.sol:VoterContract",
								"label": "result",
								"offset": 4,
								"slot": "2",
								"type": "t_uint32"
							},
							{
								"astId": 382,
								"contract": "contracts/Vote/VoterContract.sol:VoterContract",
								"label": "proposer",
								"offset": 8,
								"slot": "2",
								"type": "t_address"
							},
							{
								"astId": 384,
								"contract": "contracts/Vote/VoterContract.sol:VoterContract",
								"label": "blockNumberStarted",
								"offset": 0,
								"slot": "3",
								"type": "t_uint256"
							},
							{
								"astId": 386,
								"contract": "contracts/Vote/VoterContract.sol:VoterContract",
								"label": "blockNumberWillNotEndBefore",
								"offset": 0,
								"slot": "4",
								"type": "t_uint256"
							},
							{
								"astId": 388,
								"contract": "contracts/Vote/VoterContract.sol:VoterContract",
								"label": "blockNumberClosed",
								"offset": 0,
								"slot": "5",
								"type": "t_uint256"
							},
							{
								"astId": 391,
								"contract": "contracts/Vote/VoterContract.sol:VoterContract",
								"label": "proposalType",
								"offset": 0,
								"slot": "6",
								"type": "t_enum(VotingType)349"
							}
						],
						"numberOfBytes": "224"
					},
					"t_struct(Voting)372_storage": {
						"encoding": "inplace",
						"label": "struct VoterContract.Voting",
						"members": [
							{
								"astId": 354,
								"contract": "contracts/Vote/VoterContract.sol:VoterContract",
								"label": "id",
								"offset": 0,
								"slot": "0",
								"type": "t_uint16"
							},
							{
								"astId": 356,
								"contract": "contracts/Vote/VoterContract.sol:VoterContract",
								"label": "topic",
								"offset": 0,
								"slot": "1",
								"type": "t_string_storage"
							},
							{
								"astId": 358,
								"contract": "contracts/Vote/VoterContract.sol:VoterContract",
								"label": "voted",
								"offset": 0,
								"slot": "2",
								"type": "t_uint32"
							},
							{
								"astId": 360,
								"contract": "contracts/Vote/VoterContract.sol:VoterContract",
								"label": "result",
								"offset": 4,
								"slot": "2",
								"type": "t_uint32"
							},
							{
								"astId": 362,
								"contract": "contracts/Vote/VoterContract.sol:VoterContract",
								"label": "proposer",
								"offset": 8,
								"slot": "2",
								"type": "t_address"
							},
							{
								"astId": 364,
								"contract": "contracts/Vote/VoterContract.sol:VoterContract",
								"label": "blockNumberStarted",
								"offset": 0,
								"slot": "3",
								"type": "t_uint256"
							},
							{
								"astId": 366,
								"contract": "contracts/Vote/VoterContract.sol:VoterContract",
								"label": "blockNumberWillNotEndBefore",
								"offset": 0,
								"slot": "4",
								"type": "t_uint256"
							},
							{
								"astId": 368,
								"contract": "contracts/Vote/VoterContract.sol:VoterContract",
								"label": "blockNumberClosed",
								"offset": 0,
								"slot": "5",
								"type": "t_uint256"
							},
							{
								"astId": 371,
								"contract": "contracts/Vote/VoterContract.sol:VoterContract",
								"label": "votingType",
								"offset": 0,
								"slot": "6",
								"type": "t_enum(VotingType)349"
							}
						],
						"numberOfBytes": "224"
					},
					"t_uint16": {
						"encoding": "inplace",
						"label": "uint16",
						"numberOfBytes": "2"
					},
					"t_uint256": {
						"encoding": "inplace",
						"label": "uint256",
						"numberOfBytes": "32"
					},
					"t_uint32": {
						"encoding": "inplace",
						"label": "uint32",
						"numberOfBytes": "4"
					},
					"t_uint8": {
						"encoding": "inplace",
						"label": "uint8",
						"numberOfBytes": "1"
					}
				}
			},
			"userdoc": {
				"kind": "user",
				"methods": {},
				"version": 1
			}
		}
	}
}