{
	"contracts/Vote/Voter.sol": {
		"VoterContract": {
			"abi": [
				{
					"inputs": [],
					"stateMutability": "nonpayable",
					"type": "constructor"
				},
				{
					"inputs": [
						{
							"internalType": "address",
							"name": "adr",
							"type": "address"
						}
					],
					"name": "changeKeyHolder",
					"outputs": [],
					"stateMutability": "nonpayable",
					"type": "function"
				},
				{
					"inputs": [],
					"name": "closeVoting",
					"outputs": [],
					"stateMutability": "nonpayable",
					"type": "function"
				},
				{
					"inputs": [],
					"name": "getResult",
					"outputs": [
						{
							"internalType": "uint256",
							"name": "",
							"type": "uint256"
						}
					],
					"stateMutability": "view",
					"type": "function"
				},
				{
					"inputs": [],
					"name": "getVoted",
					"outputs": [
						{
							"internalType": "uint256",
							"name": "",
							"type": "uint256"
						}
					],
					"stateMutability": "view",
					"type": "function"
				},
				{
					"inputs": [
						{
							"internalType": "address",
							"name": "voterAddress",
							"type": "address"
						}
					],
					"name": "giveVotingPower",
					"outputs": [],
					"stateMutability": "nonpayable",
					"type": "function"
				},
				{
					"inputs": [
						{
							"internalType": "uint8",
							"name": "_votingType",
							"type": "uint8"
						}
					],
					"name": "openVoting",
					"outputs": [],
					"stateMutability": "nonpayable",
					"type": "function"
				},
				{
					"inputs": [],
					"name": "topic",
					"outputs": [
						{
							"internalType": "string",
							"name": "",
							"type": "string"
						}
					],
					"stateMutability": "view",
					"type": "function"
				},
				{
					"inputs": [
						{
							"internalType": "uint256",
							"name": "vote",
							"type": "uint256"
						}
					],
					"name": "useVotePowerONE_TEN",
					"outputs": [],
					"stateMutability": "nonpayable",
					"type": "function"
				},
				{
					"inputs": [
						{
							"internalType": "bool",
							"name": "vote",
							"type": "bool"
						}
					],
					"name": "useVotePowerYesNo",
					"outputs": [],
					"stateMutability": "nonpayable",
					"type": "function"
				}
			],
			"devdoc": {
				"kind": "dev",
				"methods": {},
				"version": 1
			},
			"evm": {
				"assembly": "    /* \"contracts/Vote/Voter.sol\":64:2726  contract VoterContract{\r... */\n  mstore(0x40, 0x80)\n    /* \"contracts/Vote/Voter.sol\":151:193  0xd9145CCE52D386f254917e481eB44e9943F39138 */\n  0xd9145cce52d386f254917e481eb44e9943f39138\n    /* \"contracts/Vote/Voter.sol\":123:193  address private keyHolder = 0xd9145CCE52D386f254917e481eB44e9943F39138 */\n  0x01\n  exp(0x0100, 0x00)\n  dup2\n  sload\n  dup2\n  0xffffffffffffffffffffffffffffffffffffffff\n  mul\n  not\n  and\n  swap1\n  dup4\n  0xffffffffffffffffffffffffffffffffffffffff\n  and\n  mul\n  or\n  swap1\n  sstore\n  pop\n    /* \"contracts/Vote/Voter.sol\":509:510  0 */\n  0x00\n    /* \"contracts/Vote/Voter.sol\":485:510  uint16 private voteId = 0 */\n  0x05\n  exp(0x0100, 0x00)\n  dup2\n  sload\n  dup2\n  0xffff\n  mul\n  not\n  and\n  swap1\n  dup4\n  0xffff\n  and\n  mul\n  or\n  swap1\n  sstore\n  pop\n    /* \"contracts/Vote/Voter.sol\":544:545  0 */\n  0x00\n    /* \"contracts/Vote/Voter.sol\":517:545  uint8 private votingType = 0 */\n  0x05\n  exp(0x0100, 0x02)\n  dup2\n  sload\n  dup2\n  0xff\n  mul\n  not\n  and\n  swap1\n  dup4\n  0xff\n  and\n  mul\n  or\n  swap1\n  sstore\n  pop\n    /* \"contracts/Vote/Voter.sol\":587:588  0 */\n  0x00\n    /* \"contracts/Vote/Voter.sol\":554:588  uint16 private totalVoterCount = 0 */\n  0x05\n  exp(0x0100, 0x03)\n  dup2\n  sload\n  dup2\n  0xffff\n  mul\n  not\n  and\n  swap1\n  dup4\n  0xffff\n  and\n  mul\n  or\n  swap1\n  sstore\n  pop\n    /* \"contracts/Vote/Voter.sol\":618:619  0 */\n  0x00\n    /* \"contracts/Vote/Voter.sol\":595:619  uint16 private voted = 0 */\n  0x05\n  dup1\n  0x0100\n  exp\n  dup2\n  sload\n  dup2\n  0xffff\n  mul\n  not\n  and\n  swap1\n  dup4\n  0xffff\n  and\n  mul\n  or\n  swap1\n  sstore\n  pop\n    /* \"contracts/Vote/Voter.sol\":653:654  0 */\n  0x00\n    /* \"contracts/Vote/Voter.sol\":628:654  uint256 private result = 0 */\n  0x06\n  sstore\n    /* \"contracts/Vote/Voter.sol\":663:714  constructor() {\r... */\n  callvalue\n  dup1\n  iszero\n  tag_1\n  jumpi\n  0x00\n  dup1\n  revert\ntag_1:\n  pop\n    /* \"contracts/Vote/Voter.sol\":696:706  msg.sender */\n  caller\n    /* \"contracts/Vote/Voter.sol\":688:693  owner */\n  0x00\n  dup1\n    /* \"contracts/Vote/Voter.sol\":688:706  owner = msg.sender */\n  0x0100\n  exp\n  dup2\n  sload\n  dup2\n  0xffffffffffffffffffffffffffffffffffffffff\n  mul\n  not\n  and\n  swap1\n  dup4\n  0xffffffffffffffffffffffffffffffffffffffff\n  and\n  mul\n  or\n  swap1\n  sstore\n  pop\n    /* \"contracts/Vote/Voter.sol\":64:2726  contract VoterContract{\r... */\n  dataSize(sub_0)\n  dup1\n  dataOffset(sub_0)\n  0x00\n  codecopy\n  0x00\n  return\nstop\n\nsub_0: assembly {\n        /* \"contracts/Vote/Voter.sol\":64:2726  contract VoterContract{\r... */\n      mstore(0x40, 0x80)\n      callvalue\n      dup1\n      iszero\n      tag_1\n      jumpi\n      0x00\n      dup1\n      revert\n    tag_1:\n      pop\n      jumpi(tag_2, lt(calldatasize, 0x04))\n      shr(0xe0, calldataload(0x00))\n      dup1\n      0xa69799fc\n      gt\n      tag_12\n      jumpi\n      dup1\n      0xa69799fc\n      eq\n      tag_7\n      jumpi\n      dup1\n      0xbf63a577\n      eq\n      tag_8\n      jumpi\n      dup1\n      0xc631b292\n      eq\n      tag_9\n      jumpi\n      dup1\n      0xde292789\n      eq\n      tag_10\n      jumpi\n      dup1\n      0xea31a64c\n      eq\n      tag_11\n      jumpi\n      jump(tag_2)\n    tag_12:\n      dup1\n      0x3ac65b66\n      eq\n      tag_3\n      jumpi\n      dup1\n      0x54e82dfd\n      eq\n      tag_4\n      jumpi\n      dup1\n      0x72bfc77b\n      eq\n      tag_5\n      jumpi\n      dup1\n      0xa28b8d26\n      eq\n      tag_6\n      jumpi\n    tag_2:\n      0x00\n      dup1\n      revert\n        /* \"contracts/Vote/Voter.sol\":2511:2723  function useVotePowerONE_TEN(uint256 vote) external votingStarted onlyNotVotedVoters{\r... */\n    tag_3:\n      tag_13\n      0x04\n      dup1\n      calldatasize\n      sub\n      dup2\n      add\n      swap1\n      tag_14\n      swap2\n      swap1\n      tag_15\n      jump\t// in\n    tag_14:\n      tag_16\n      jump\t// in\n    tag_13:\n      stop\n        /* \"contracts/Vote/Voter.sol\":1695:1867  function openVoting(uint8 _votingType) external onlyOwner votingStarted {\r... */\n    tag_4:\n      tag_17\n      0x04\n      dup1\n      calldatasize\n      sub\n      dup2\n      add\n      swap1\n      tag_18\n      swap2\n      swap1\n      tag_19\n      jump\t// in\n    tag_18:\n      tag_20\n      jump\t// in\n    tag_17:\n      stop\n        /* \"contracts/Vote/Voter.sol\":2193:2499  function useVotePowerYesNo(bool vote) external votingStarted onlyNotVotedVoters{\r... */\n    tag_5:\n      tag_21\n      0x04\n      dup1\n      calldatasize\n      sub\n      dup2\n      add\n      swap1\n      tag_22\n      swap2\n      swap1\n      tag_23\n      jump\t// in\n    tag_22:\n      tag_24\n      jump\t// in\n    tag_21:\n      stop\n        /* \"contracts/Vote/Voter.sol\":1397:1487  function changeKeyHolder(address adr) external onlyOwner{\r... */\n    tag_6:\n      tag_25\n      0x04\n      dup1\n      calldatasize\n      sub\n      dup2\n      add\n      swap1\n      tag_26\n      swap2\n      swap1\n      tag_27\n      jump\t// in\n    tag_26:\n      tag_28\n      jump\t// in\n    tag_25:\n      stop\n        /* \"contracts/Vote/Voter.sol\":2104:2185  function getVoted() external view returns(uint256){\r... */\n    tag_7:\n      tag_29\n      tag_30\n      jump\t// in\n    tag_29:\n      mload(0x40)\n      tag_31\n      swap2\n      swap1\n      tag_32\n      jump\t// in\n    tag_31:\n      mload(0x40)\n      dup1\n      swap2\n      sub\n      swap1\n      return\n        /* \"contracts/Vote/Voter.sol\":457:476  string public topic */\n    tag_8:\n      tag_33\n      tag_34\n      jump\t// in\n    tag_33:\n      mload(0x40)\n      tag_35\n      swap2\n      swap1\n      tag_36\n      jump\t// in\n    tag_35:\n      mload(0x40)\n      dup1\n      swap2\n      sub\n      swap1\n      return\n        /* \"contracts/Vote/Voter.sol\":1875:2005  function closeVoting() external onlyOwner votingEnded{\r... */\n    tag_9:\n      tag_37\n      tag_38\n      jump\t// in\n    tag_37:\n      stop\n        /* \"contracts/Vote/Voter.sol\":2013:2096  function getResult() external view returns(uint256){\r... */\n    tag_10:\n      tag_39\n      tag_40\n      jump\t// in\n    tag_39:\n      mload(0x40)\n      tag_41\n      swap2\n      swap1\n      tag_32\n      jump\t// in\n    tag_41:\n      mload(0x40)\n      dup1\n      swap2\n      sub\n      swap1\n      return\n        /* \"contracts/Vote/Voter.sol\":1495:1687  function giveVotingPower(address voterAddress) external onlyKeyHolder noZeroAddress(voterAddress) {\r... */\n    tag_11:\n      tag_42\n      0x04\n      dup1\n      calldatasize\n      sub\n      dup2\n      add\n      swap1\n      tag_43\n      swap2\n      swap1\n      tag_27\n      jump\t// in\n    tag_43:\n      tag_44\n      jump\t// in\n    tag_42:\n      stop\n        /* \"contracts/Vote/Voter.sol\":2511:2723  function useVotePowerONE_TEN(uint256 vote) external votingStarted onlyNotVotedVoters{\r... */\n    tag_16:\n        /* \"contracts/Vote/Voter.sol\":1285:1286  0 */\n      0x00\n        /* \"contracts/Vote/Voter.sol\":1273:1283  votingType */\n      0x05\n      0x02\n      swap1\n      sload\n      swap1\n      0x0100\n      exp\n      swap1\n      div\n      0xff\n      and\n        /* \"contracts/Vote/Voter.sol\":1273:1286  votingType!=0 */\n      0xff\n      and\n      eq\n      iszero\n        /* \"contracts/Vote/Voter.sol\":1265:1287  require(votingType!=0) */\n      tag_46\n      jumpi\n      0x00\n      dup1\n      revert\n    tag_46:\n        /* \"contracts/Vote/Voter.sol\":1134:1140  VOTERS */\n      0x02\n        /* \"contracts/Vote/Voter.sol\":1134:1152  VOTERS[msg.sender] */\n      0x00\n        /* \"contracts/Vote/Voter.sol\":1141:1151  msg.sender */\n      caller\n        /* \"contracts/Vote/Voter.sol\":1134:1152  VOTERS[msg.sender] */\n      0xffffffffffffffffffffffffffffffffffffffff\n      and\n      0xffffffffffffffffffffffffffffffffffffffff\n      and\n      dup2\n      mstore\n      0x20\n      add\n      swap1\n      dup2\n      mstore\n      0x20\n      add\n      0x00\n      keccak256\n      0x00\n      swap1\n      sload\n      swap1\n      0x0100\n      exp\n      swap1\n      div\n      0xff\n      and\n        /* \"contracts/Vote/Voter.sol\":1126:1153  require(VOTERS[msg.sender]) */\n      tag_48\n      jumpi\n      0x00\n      dup1\n      revert\n    tag_48:\n        /* \"contracts/Vote/Voter.sol\":1203:1204  0 */\n      0x00\n        /* \"contracts/Vote/Voter.sol\":1172:1181  votePower */\n      0x03\n        /* \"contracts/Vote/Voter.sol\":1172:1189  votePower[voteId] */\n      0x00\n        /* \"contracts/Vote/Voter.sol\":1182:1188  voteId */\n      0x05\n      0x00\n      swap1\n      sload\n      swap1\n      0x0100\n      exp\n      swap1\n      div\n      0xffff\n      and\n        /* \"contracts/Vote/Voter.sol\":1172:1189  votePower[voteId] */\n      0xffff\n      and\n      0xffff\n      and\n      dup2\n      mstore\n      0x20\n      add\n      swap1\n      dup2\n      mstore\n      0x20\n      add\n      0x00\n      keccak256\n        /* \"contracts/Vote/Voter.sol\":1172:1201  votePower[voteId][msg.sender] */\n      0x00\n        /* \"contracts/Vote/Voter.sol\":1190:1200  msg.sender */\n      caller\n        /* \"contracts/Vote/Voter.sol\":1172:1201  votePower[voteId][msg.sender] */\n      0xffffffffffffffffffffffffffffffffffffffff\n      and\n      0xffffffffffffffffffffffffffffffffffffffff\n      and\n      dup2\n      mstore\n      0x20\n      add\n      swap1\n      dup2\n      mstore\n      0x20\n      add\n      0x00\n      keccak256\n      sload\n        /* \"contracts/Vote/Voter.sol\":1172:1204  votePower[voteId][msg.sender]==0 */\n      eq\n        /* \"contracts/Vote/Voter.sol\":1164:1205  require(votePower[voteId][msg.sender]==0) */\n      tag_49\n      jumpi\n      0x00\n      dup1\n      revert\n    tag_49:\n        /* \"contracts/Vote/Voter.sol\":2619:2621  11 */\n      0x0b\n        /* \"contracts/Vote/Voter.sol\":2614:2618  vote */\n      dup2\n        /* \"contracts/Vote/Voter.sol\":2614:2621  vote<11 */\n      lt\n        /* \"contracts/Vote/Voter.sol\":2606:2622  require(vote<11) */\n      tag_51\n      jumpi\n      0x00\n      dup1\n      revert\n    tag_51:\n        /* \"contracts/Vote/Voter.sol\":2643:2647  vote */\n      dup1\n        /* \"contracts/Vote/Voter.sol\":2633:2639  result */\n      0x06\n      0x00\n        /* \"contracts/Vote/Voter.sol\":2633:2647  result += vote */\n      dup3\n      dup3\n      sload\n      tag_52\n      swap2\n      swap1\n      tag_53\n      jump\t// in\n    tag_52:\n      swap3\n      pop\n      pop\n      dup2\n      swap1\n      sstore\n      pop\n        /* \"contracts/Vote/Voter.sol\":2667:2668  1 */\n      0x01\n        /* \"contracts/Vote/Voter.sol\":2658:2663  voted */\n      0x05\n      dup1\n        /* \"contracts/Vote/Voter.sol\":2658:2668  voted += 1 */\n      dup3\n      dup3\n      dup3\n      swap1\n      sload\n      swap1\n      0x0100\n      exp\n      swap1\n      div\n      0xffff\n      and\n      tag_54\n      swap2\n      swap1\n      tag_55\n      jump\t// in\n    tag_54:\n      swap3\n      pop\n      0x0100\n      exp\n      dup2\n      sload\n      dup2\n      0xffff\n      mul\n      not\n      and\n      swap1\n      dup4\n      0xffff\n      and\n      mul\n      or\n      swap1\n      sstore\n      pop\n        /* \"contracts/Vote/Voter.sol\":2711:2715  vote */\n      dup1\n        /* \"contracts/Vote/Voter.sol\":2679:2688  votePower */\n      0x03\n        /* \"contracts/Vote/Voter.sol\":2679:2696  votePower[voteId] */\n      0x00\n        /* \"contracts/Vote/Voter.sol\":2689:2695  voteId */\n      0x05\n      0x00\n      swap1\n      sload\n      swap1\n      0x0100\n      exp\n      swap1\n      div\n      0xffff\n      and\n        /* \"contracts/Vote/Voter.sol\":2679:2696  votePower[voteId] */\n      0xffff\n      and\n      0xffff\n      and\n      dup2\n      mstore\n      0x20\n      add\n      swap1\n      dup2\n      mstore\n      0x20\n      add\n      0x00\n      keccak256\n        /* \"contracts/Vote/Voter.sol\":2679:2708  votePower[voteId][msg.sender] */\n      0x00\n        /* \"contracts/Vote/Voter.sol\":2697:2707  msg.sender */\n      caller\n        /* \"contracts/Vote/Voter.sol\":2679:2708  votePower[voteId][msg.sender] */\n      0xffffffffffffffffffffffffffffffffffffffff\n      and\n      0xffffffffffffffffffffffffffffffffffffffff\n      and\n      dup2\n      mstore\n      0x20\n      add\n      swap1\n      dup2\n      mstore\n      0x20\n      add\n      0x00\n      keccak256\n        /* \"contracts/Vote/Voter.sol\":2679:2715  votePower[voteId][msg.sender] = vote */\n      dup2\n      swap1\n      sstore\n      pop\n        /* \"contracts/Vote/Voter.sol\":2511:2723  function useVotePowerONE_TEN(uint256 vote) external votingStarted onlyNotVotedVoters{\r... */\n      pop\n      jump\t// out\n        /* \"contracts/Vote/Voter.sol\":1695:1867  function openVoting(uint8 _votingType) external onlyOwner votingStarted {\r... */\n    tag_20:\n        /* \"contracts/Vote/Voter.sol\":867:872  owner */\n      0x00\n      dup1\n      sload\n      swap1\n      0x0100\n      exp\n      swap1\n      div\n      0xffffffffffffffffffffffffffffffffffffffff\n      and\n        /* \"contracts/Vote/Voter.sol\":853:872  msg.sender == owner */\n      0xffffffffffffffffffffffffffffffffffffffff\n      and\n        /* \"contracts/Vote/Voter.sol\":853:863  msg.sender */\n      caller\n        /* \"contracts/Vote/Voter.sol\":853:872  msg.sender == owner */\n      0xffffffffffffffffffffffffffffffffffffffff\n      and\n      eq\n        /* \"contracts/Vote/Voter.sol\":845:873  require(msg.sender == owner) */\n      tag_57\n      jumpi\n      0x00\n      dup1\n      revert\n    tag_57:\n        /* \"contracts/Vote/Voter.sol\":1285:1286  0 */\n      0x00\n        /* \"contracts/Vote/Voter.sol\":1273:1283  votingType */\n      0x05\n      0x02\n      swap1\n      sload\n      swap1\n      0x0100\n      exp\n      swap1\n      div\n      0xff\n      and\n        /* \"contracts/Vote/Voter.sol\":1273:1286  votingType!=0 */\n      0xff\n      and\n      eq\n      iszero\n        /* \"contracts/Vote/Voter.sol\":1265:1287  require(votingType!=0) */\n      tag_59\n      jumpi\n      0x00\n      dup1\n      revert\n    tag_59:\n        /* \"contracts/Vote/Voter.sol\":1791:1802  _votingType */\n      dup1\n        /* \"contracts/Vote/Voter.sol\":1778:1788  votingType */\n      0x05\n      0x02\n        /* \"contracts/Vote/Voter.sol\":1778:1802  votingType = _votingType */\n      0x0100\n      exp\n      dup2\n      sload\n      dup2\n      0xff\n      mul\n      not\n      and\n      swap1\n      dup4\n      0xff\n      and\n      mul\n      or\n      swap1\n      sstore\n      pop\n        /* \"contracts/Vote/Voter.sol\":1822:1823  0 */\n      0x00\n        /* \"contracts/Vote/Voter.sol\":1813:1819  result */\n      0x06\n        /* \"contracts/Vote/Voter.sol\":1813:1823  result = 0 */\n      dup2\n      swap1\n      sstore\n      pop\n        /* \"contracts/Vote/Voter.sol\":1842:1843  0 */\n      0x00\n        /* \"contracts/Vote/Voter.sol\":1834:1839  voted */\n      0x05\n      dup1\n        /* \"contracts/Vote/Voter.sol\":1834:1843  voted = 0 */\n      0x0100\n      exp\n      dup2\n      sload\n      dup2\n      0xffff\n      mul\n      not\n      and\n      swap1\n      dup4\n      0xffff\n      and\n      mul\n      or\n      swap1\n      sstore\n      pop\n        /* \"contracts/Vote/Voter.sol\":1695:1867  function openVoting(uint8 _votingType) external onlyOwner votingStarted {\r... */\n      pop\n      jump\t// out\n        /* \"contracts/Vote/Voter.sol\":2193:2499  function useVotePowerYesNo(bool vote) external votingStarted onlyNotVotedVoters{\r... */\n    tag_24:\n        /* \"contracts/Vote/Voter.sol\":1285:1286  0 */\n      0x00\n        /* \"contracts/Vote/Voter.sol\":1273:1283  votingType */\n      0x05\n      0x02\n      swap1\n      sload\n      swap1\n      0x0100\n      exp\n      swap1\n      div\n      0xff\n      and\n        /* \"contracts/Vote/Voter.sol\":1273:1286  votingType!=0 */\n      0xff\n      and\n      eq\n      iszero\n        /* \"contracts/Vote/Voter.sol\":1265:1287  require(votingType!=0) */\n      tag_62\n      jumpi\n      0x00\n      dup1\n      revert\n    tag_62:\n        /* \"contracts/Vote/Voter.sol\":1134:1140  VOTERS */\n      0x02\n        /* \"contracts/Vote/Voter.sol\":1134:1152  VOTERS[msg.sender] */\n      0x00\n        /* \"contracts/Vote/Voter.sol\":1141:1151  msg.sender */\n      caller\n        /* \"contracts/Vote/Voter.sol\":1134:1152  VOTERS[msg.sender] */\n      0xffffffffffffffffffffffffffffffffffffffff\n      and\n      0xffffffffffffffffffffffffffffffffffffffff\n      and\n      dup2\n      mstore\n      0x20\n      add\n      swap1\n      dup2\n      mstore\n      0x20\n      add\n      0x00\n      keccak256\n      0x00\n      swap1\n      sload\n      swap1\n      0x0100\n      exp\n      swap1\n      div\n      0xff\n      and\n        /* \"contracts/Vote/Voter.sol\":1126:1153  require(VOTERS[msg.sender]) */\n      tag_64\n      jumpi\n      0x00\n      dup1\n      revert\n    tag_64:\n        /* \"contracts/Vote/Voter.sol\":1203:1204  0 */\n      0x00\n        /* \"contracts/Vote/Voter.sol\":1172:1181  votePower */\n      0x03\n        /* \"contracts/Vote/Voter.sol\":1172:1189  votePower[voteId] */\n      0x00\n        /* \"contracts/Vote/Voter.sol\":1182:1188  voteId */\n      0x05\n      0x00\n      swap1\n      sload\n      swap1\n      0x0100\n      exp\n      swap1\n      div\n      0xffff\n      and\n        /* \"contracts/Vote/Voter.sol\":1172:1189  votePower[voteId] */\n      0xffff\n      and\n      0xffff\n      and\n      dup2\n      mstore\n      0x20\n      add\n      swap1\n      dup2\n      mstore\n      0x20\n      add\n      0x00\n      keccak256\n        /* \"contracts/Vote/Voter.sol\":1172:1201  votePower[voteId][msg.sender] */\n      0x00\n        /* \"contracts/Vote/Voter.sol\":1190:1200  msg.sender */\n      caller\n        /* \"contracts/Vote/Voter.sol\":1172:1201  votePower[voteId][msg.sender] */\n      0xffffffffffffffffffffffffffffffffffffffff\n      and\n      0xffffffffffffffffffffffffffffffffffffffff\n      and\n      dup2\n      mstore\n      0x20\n      add\n      swap1\n      dup2\n      mstore\n      0x20\n      add\n      0x00\n      keccak256\n      sload\n        /* \"contracts/Vote/Voter.sol\":1172:1204  votePower[voteId][msg.sender]==0 */\n      eq\n        /* \"contracts/Vote/Voter.sol\":1164:1205  require(votePower[voteId][msg.sender]==0) */\n      tag_65\n      jumpi\n      0x00\n      dup1\n      revert\n    tag_65:\n        /* \"contracts/Vote/Voter.sol\":2286:2290  vote */\n      dup1\n        /* \"contracts/Vote/Voter.sol\":2283:2469  if(vote){\r... */\n      iszero\n      tag_67\n      jumpi\n        /* \"contracts/Vote/Voter.sol\":2338:2339  1 */\n      0x01\n        /* \"contracts/Vote/Voter.sol\":2306:2315  votePower */\n      0x03\n        /* \"contracts/Vote/Voter.sol\":2306:2323  votePower[voteId] */\n      0x00\n        /* \"contracts/Vote/Voter.sol\":2316:2322  voteId */\n      0x05\n      0x00\n      swap1\n      sload\n      swap1\n      0x0100\n      exp\n      swap1\n      div\n      0xffff\n      and\n        /* \"contracts/Vote/Voter.sol\":2306:2323  votePower[voteId] */\n      0xffff\n      and\n      0xffff\n      and\n      dup2\n      mstore\n      0x20\n      add\n      swap1\n      dup2\n      mstore\n      0x20\n      add\n      0x00\n      keccak256\n        /* \"contracts/Vote/Voter.sol\":2306:2335  votePower[voteId][msg.sender] */\n      0x00\n        /* \"contracts/Vote/Voter.sol\":2324:2334  msg.sender */\n      caller\n        /* \"contracts/Vote/Voter.sol\":2306:2335  votePower[voteId][msg.sender] */\n      0xffffffffffffffffffffffffffffffffffffffff\n      and\n      0xffffffffffffffffffffffffffffffffffffffff\n      and\n      dup2\n      mstore\n      0x20\n      add\n      swap1\n      dup2\n      mstore\n      0x20\n      add\n      0x00\n      keccak256\n        /* \"contracts/Vote/Voter.sol\":2306:2339  votePower[voteId][msg.sender] = 1 */\n      dup2\n      swap1\n      sstore\n      pop\n        /* \"contracts/Vote/Voter.sol\":2364:2365  1 */\n      0x01\n        /* \"contracts/Vote/Voter.sol\":2354:2360  result */\n      0x06\n      0x00\n        /* \"contracts/Vote/Voter.sol\":2354:2365  result += 1 */\n      dup3\n      dup3\n      sload\n      tag_68\n      swap2\n      swap1\n      tag_53\n      jump\t// in\n    tag_68:\n      swap3\n      pop\n      pop\n      dup2\n      swap1\n      sstore\n      pop\n        /* \"contracts/Vote/Voter.sol\":2283:2469  if(vote){\r... */\n      jump(tag_69)\n    tag_67:\n        /* \"contracts/Vote/Voter.sol\":2428:2430  10 */\n      0x0a\n        /* \"contracts/Vote/Voter.sol\":2396:2405  votePower */\n      0x03\n        /* \"contracts/Vote/Voter.sol\":2396:2413  votePower[voteId] */\n      0x00\n        /* \"contracts/Vote/Voter.sol\":2406:2412  voteId */\n      0x05\n      0x00\n      swap1\n      sload\n      swap1\n      0x0100\n      exp\n      swap1\n      div\n      0xffff\n      and\n        /* \"contracts/Vote/Voter.sol\":2396:2413  votePower[voteId] */\n      0xffff\n      and\n      0xffff\n      and\n      dup2\n      mstore\n      0x20\n      add\n      swap1\n      dup2\n      mstore\n      0x20\n      add\n      0x00\n      keccak256\n        /* \"contracts/Vote/Voter.sol\":2396:2425  votePower[voteId][msg.sender] */\n      0x00\n        /* \"contracts/Vote/Voter.sol\":2414:2424  msg.sender */\n      caller\n        /* \"contracts/Vote/Voter.sol\":2396:2425  votePower[voteId][msg.sender] */\n      0xffffffffffffffffffffffffffffffffffffffff\n      and\n      0xffffffffffffffffffffffffffffffffffffffff\n      and\n      dup2\n      mstore\n      0x20\n      add\n      swap1\n      dup2\n      mstore\n      0x20\n      add\n      0x00\n      keccak256\n        /* \"contracts/Vote/Voter.sol\":2396:2430  votePower[voteId][msg.sender] = 10 */\n      dup2\n      swap1\n      sstore\n      pop\n        /* \"contracts/Vote/Voter.sol\":2455:2457  10 */\n      0x0a\n        /* \"contracts/Vote/Voter.sol\":2445:2451  result */\n      0x06\n      0x00\n        /* \"contracts/Vote/Voter.sol\":2445:2457  result += 10 */\n      dup3\n      dup3\n      sload\n      tag_70\n      swap2\n      swap1\n      tag_53\n      jump\t// in\n    tag_70:\n      swap3\n      pop\n      pop\n      dup2\n      swap1\n      sstore\n      pop\n        /* \"contracts/Vote/Voter.sol\":2283:2469  if(vote){\r... */\n    tag_69:\n        /* \"contracts/Vote/Voter.sol\":2490:2491  1 */\n      0x01\n        /* \"contracts/Vote/Voter.sol\":2481:2486  voted */\n      0x05\n      dup1\n        /* \"contracts/Vote/Voter.sol\":2481:2491  voted += 1 */\n      dup3\n      dup3\n      dup3\n      swap1\n      sload\n      swap1\n      0x0100\n      exp\n      swap1\n      div\n      0xffff\n      and\n      tag_71\n      swap2\n      swap1\n      tag_55\n      jump\t// in\n    tag_71:\n      swap3\n      pop\n      0x0100\n      exp\n      dup2\n      sload\n      dup2\n      0xffff\n      mul\n      not\n      and\n      swap1\n      dup4\n      0xffff\n      and\n      mul\n      or\n      swap1\n      sstore\n      pop\n        /* \"contracts/Vote/Voter.sol\":2193:2499  function useVotePowerYesNo(bool vote) external votingStarted onlyNotVotedVoters{\r... */\n      pop\n      jump\t// out\n        /* \"contracts/Vote/Voter.sol\":1397:1487  function changeKeyHolder(address adr) external onlyOwner{\r... */\n    tag_28:\n        /* \"contracts/Vote/Voter.sol\":867:872  owner */\n      0x00\n      dup1\n      sload\n      swap1\n      0x0100\n      exp\n      swap1\n      div\n      0xffffffffffffffffffffffffffffffffffffffff\n      and\n        /* \"contracts/Vote/Voter.sol\":853:872  msg.sender == owner */\n      0xffffffffffffffffffffffffffffffffffffffff\n      and\n        /* \"contracts/Vote/Voter.sol\":853:863  msg.sender */\n      caller\n        /* \"contracts/Vote/Voter.sol\":853:872  msg.sender == owner */\n      0xffffffffffffffffffffffffffffffffffffffff\n      and\n      eq\n        /* \"contracts/Vote/Voter.sol\":845:873  require(msg.sender == owner) */\n      tag_73\n      jumpi\n      0x00\n      dup1\n      revert\n    tag_73:\n        /* \"contracts/Vote/Voter.sol\":1476:1479  adr */\n      dup1\n        /* \"contracts/Vote/Voter.sol\":1464:1473  keyHolder */\n      0x01\n      0x00\n        /* \"contracts/Vote/Voter.sol\":1464:1479  keyHolder = adr */\n      0x0100\n      exp\n      dup2\n      sload\n      dup2\n      0xffffffffffffffffffffffffffffffffffffffff\n      mul\n      not\n      and\n      swap1\n      dup4\n      0xffffffffffffffffffffffffffffffffffffffff\n      and\n      mul\n      or\n      swap1\n      sstore\n      pop\n        /* \"contracts/Vote/Voter.sol\":1397:1487  function changeKeyHolder(address adr) external onlyOwner{\r... */\n      pop\n      jump\t// out\n        /* \"contracts/Vote/Voter.sol\":2104:2185  function getVoted() external view returns(uint256){\r... */\n    tag_30:\n        /* \"contracts/Vote/Voter.sol\":2146:2153  uint256 */\n      0x00\n        /* \"contracts/Vote/Voter.sol\":2172:2177  voted */\n      0x05\n      dup1\n      sload\n      swap1\n      0x0100\n      exp\n      swap1\n      div\n      0xffff\n      and\n        /* \"contracts/Vote/Voter.sol\":2165:2177  return voted */\n      0xffff\n      and\n      swap1\n      pop\n        /* \"contracts/Vote/Voter.sol\":2104:2185  function getVoted() external view returns(uint256){\r... */\n      swap1\n      jump\t// out\n        /* \"contracts/Vote/Voter.sol\":457:476  string public topic */\n    tag_34:\n      0x04\n      dup1\n      sload\n      tag_76\n      swap1\n      tag_77\n      jump\t// in\n    tag_76:\n      dup1\n      0x1f\n      add\n      0x20\n      dup1\n      swap2\n      div\n      mul\n      0x20\n      add\n      mload(0x40)\n      swap1\n      dup2\n      add\n      0x40\n      mstore\n      dup1\n      swap3\n      swap2\n      swap1\n      dup2\n      dup2\n      mstore\n      0x20\n      add\n      dup3\n      dup1\n      sload\n      tag_78\n      swap1\n      tag_77\n      jump\t// in\n    tag_78:\n      dup1\n      iszero\n      tag_79\n      jumpi\n      dup1\n      0x1f\n      lt\n      tag_80\n      jumpi\n      0x0100\n      dup1\n      dup4\n      sload\n      div\n      mul\n      dup4\n      mstore\n      swap2\n      0x20\n      add\n      swap2\n      jump(tag_79)\n    tag_80:\n      dup3\n      add\n      swap2\n      swap1\n      0x00\n      mstore\n      keccak256(0x00, 0x20)\n      swap1\n    tag_81:\n      dup2\n      sload\n      dup2\n      mstore\n      swap1\n      0x01\n      add\n      swap1\n      0x20\n      add\n      dup1\n      dup4\n      gt\n      tag_81\n      jumpi\n      dup3\n      swap1\n      sub\n      0x1f\n      and\n      dup3\n      add\n      swap2\n    tag_79:\n      pop\n      pop\n      pop\n      pop\n      pop\n      dup2\n      jump\t// out\n        /* \"contracts/Vote/Voter.sol\":1875:2005  function closeVoting() external onlyOwner votingEnded{\r... */\n    tag_38:\n        /* \"contracts/Vote/Voter.sol\":867:872  owner */\n      0x00\n      dup1\n      sload\n      swap1\n      0x0100\n      exp\n      swap1\n      div\n      0xffffffffffffffffffffffffffffffffffffffff\n      and\n        /* \"contracts/Vote/Voter.sol\":853:872  msg.sender == owner */\n      0xffffffffffffffffffffffffffffffffffffffff\n      and\n        /* \"contracts/Vote/Voter.sol\":853:863  msg.sender */\n      caller\n        /* \"contracts/Vote/Voter.sol\":853:872  msg.sender == owner */\n      0xffffffffffffffffffffffffffffffffffffffff\n      and\n      eq\n        /* \"contracts/Vote/Voter.sol\":845:873  require(msg.sender == owner) */\n      tag_83\n      jumpi\n      0x00\n      dup1\n      revert\n    tag_83:\n        /* \"contracts/Vote/Voter.sol\":1367:1368  0 */\n      0x00\n        /* \"contracts/Vote/Voter.sol\":1355:1365  votingType */\n      0x05\n      0x02\n      swap1\n      sload\n      swap1\n      0x0100\n      exp\n      swap1\n      div\n      0xff\n      and\n        /* \"contracts/Vote/Voter.sol\":1355:1368  votingType!=0 */\n      0xff\n      and\n      eq\n      iszero\n        /* \"contracts/Vote/Voter.sol\":1347:1369  require(votingType!=0) */\n      tag_85\n      jumpi\n      0x00\n      dup1\n      revert\n    tag_85:\n        /* \"contracts/Vote/Voter.sol\":1952:1953  0 */\n      0x00\n        /* \"contracts/Vote/Voter.sol\":1939:1949  votingType */\n      0x05\n      0x02\n        /* \"contracts/Vote/Voter.sol\":1939:1953  votingType = 0 */\n      0x0100\n      exp\n      dup2\n      sload\n      dup2\n      0xff\n      mul\n      not\n      and\n      swap1\n      dup4\n      0xff\n      and\n      mul\n      or\n      swap1\n      sstore\n      pop\n        /* \"contracts/Vote/Voter.sol\":1980:1981  1 */\n      0x01\n        /* \"contracts/Vote/Voter.sol\":1973:1979  voteId */\n      0x05\n      0x00\n      swap1\n      sload\n      swap1\n      0x0100\n      exp\n      swap1\n      div\n      0xffff\n      and\n        /* \"contracts/Vote/Voter.sol\":1973:1981  voteId+1 */\n      tag_87\n      swap2\n      swap1\n      tag_55\n      jump\t// in\n    tag_87:\n        /* \"contracts/Vote/Voter.sol\":1964:1970  voteId */\n      0x05\n      0x00\n        /* \"contracts/Vote/Voter.sol\":1964:1981  voteId = voteId+1 */\n      0x0100\n      exp\n      dup2\n      sload\n      dup2\n      0xffff\n      mul\n      not\n      and\n      swap1\n      dup4\n      0xffff\n      and\n      mul\n      or\n      swap1\n      sstore\n      pop\n        /* \"contracts/Vote/Voter.sol\":1875:2005  function closeVoting() external onlyOwner votingEnded{\r... */\n      jump\t// out\n        /* \"contracts/Vote/Voter.sol\":2013:2096  function getResult() external view returns(uint256){\r... */\n    tag_40:\n        /* \"contracts/Vote/Voter.sol\":2056:2063  uint256 */\n      0x00\n        /* \"contracts/Vote/Voter.sol\":2082:2088  result */\n      sload(0x06)\n        /* \"contracts/Vote/Voter.sol\":2075:2088  return result */\n      swap1\n      pop\n        /* \"contracts/Vote/Voter.sol\":2013:2096  function getResult() external view returns(uint256){\r... */\n      swap1\n      jump\t// out\n        /* \"contracts/Vote/Voter.sol\":1495:1687  function giveVotingPower(address voterAddress) external onlyKeyHolder noZeroAddress(voterAddress) {\r... */\n    tag_44:\n        /* \"contracts/Vote/Voter.sol\":778:787  keyHolder */\n      0x01\n      0x00\n      swap1\n      sload\n      swap1\n      0x0100\n      exp\n      swap1\n      div\n      0xffffffffffffffffffffffffffffffffffffffff\n      and\n        /* \"contracts/Vote/Voter.sol\":764:787  msg.sender == keyHolder */\n      0xffffffffffffffffffffffffffffffffffffffff\n      and\n        /* \"contracts/Vote/Voter.sol\":764:774  msg.sender */\n      caller\n        /* \"contracts/Vote/Voter.sol\":764:787  msg.sender == keyHolder */\n      0xffffffffffffffffffffffffffffffffffffffff\n      and\n      eq\n        /* \"contracts/Vote/Voter.sol\":756:788  require(msg.sender == keyHolder) */\n      tag_90\n      jumpi\n      0x00\n      dup1\n      revert\n    tag_90:\n        /* \"contracts/Vote/Voter.sol\":1579:1591  voterAddress */\n      dup1\n        /* \"contracts/Vote/Voter.sol\":968:969  0 */\n      0x00\n        /* \"contracts/Vote/Voter.sol\":955:970  adr!=address(0) */\n      0xffffffffffffffffffffffffffffffffffffffff\n      and\n        /* \"contracts/Vote/Voter.sol\":955:958  adr */\n      dup2\n        /* \"contracts/Vote/Voter.sol\":955:970  adr!=address(0) */\n      0xffffffffffffffffffffffffffffffffffffffff\n      and\n      eq\n      iszero\n        /* \"contracts/Vote/Voter.sol\":947:971  require(adr!=address(0)) */\n      tag_92\n      jumpi\n      0x00\n      dup1\n      revert\n    tag_92:\n        /* \"contracts/Vote/Voter.sol\":1640:1641  1 */\n      0x01\n        /* \"contracts/Vote/Voter.sol\":1622:1637  totalVoterCount */\n      0x05\n      0x03\n      swap1\n      sload\n      swap1\n      0x0100\n      exp\n      swap1\n      div\n      0xffff\n      and\n        /* \"contracts/Vote/Voter.sol\":1622:1641  totalVoterCount + 1 */\n      tag_94\n      swap2\n      swap1\n      tag_55\n      jump\t// in\n    tag_94:\n        /* \"contracts/Vote/Voter.sol\":1604:1619  totalVoterCount */\n      0x05\n      0x03\n        /* \"contracts/Vote/Voter.sol\":1604:1641  totalVoterCount = totalVoterCount + 1 */\n      0x0100\n      exp\n      dup2\n      sload\n      dup2\n      0xffff\n      mul\n      not\n      and\n      swap1\n      dup4\n      0xffff\n      and\n      mul\n      or\n      swap1\n      sstore\n      pop\n        /* \"contracts/Vote/Voter.sol\":1675:1679  true */\n      0x01\n        /* \"contracts/Vote/Voter.sol\":1652:1658  VOTERS */\n      0x02\n        /* \"contracts/Vote/Voter.sol\":1652:1672  VOTERS[voterAddress] */\n      0x00\n        /* \"contracts/Vote/Voter.sol\":1659:1671  voterAddress */\n      dup5\n        /* \"contracts/Vote/Voter.sol\":1652:1672  VOTERS[voterAddress] */\n      0xffffffffffffffffffffffffffffffffffffffff\n      and\n      0xffffffffffffffffffffffffffffffffffffffff\n      and\n      dup2\n      mstore\n      0x20\n      add\n      swap1\n      dup2\n      mstore\n      0x20\n      add\n      0x00\n      keccak256\n      0x00\n        /* \"contracts/Vote/Voter.sol\":1652:1679  VOTERS[voterAddress] = true */\n      0x0100\n      exp\n      dup2\n      sload\n      dup2\n      0xff\n      mul\n      not\n      and\n      swap1\n      dup4\n      iszero\n      iszero\n      mul\n      or\n      swap1\n      sstore\n      pop\n        /* \"contracts/Vote/Voter.sol\":799:800  _ */\n      pop\n        /* \"contracts/Vote/Voter.sol\":1495:1687  function giveVotingPower(address voterAddress) external onlyKeyHolder noZeroAddress(voterAddress) {\r... */\n      pop\n      jump\t// out\n        /* \"#utility.yul\":7:146   */\n    tag_96:\n        /* \"#utility.yul\":53:58   */\n      0x00\n        /* \"#utility.yul\":91:97   */\n      dup2\n        /* \"#utility.yul\":78:98   */\n      calldataload\n        /* \"#utility.yul\":69:98   */\n      swap1\n      pop\n        /* \"#utility.yul\":107:140   */\n      tag_98\n        /* \"#utility.yul\":134:139   */\n      dup2\n        /* \"#utility.yul\":107:140   */\n      tag_99\n      jump\t// in\n    tag_98:\n        /* \"#utility.yul\":7:146   */\n      swap3\n      swap2\n      pop\n      pop\n      jump\t// out\n        /* \"#utility.yul\":152:285   */\n    tag_100:\n        /* \"#utility.yul\":195:200   */\n      0x00\n        /* \"#utility.yul\":233:239   */\n      dup2\n        /* \"#utility.yul\":220:240   */\n      calldataload\n        /* \"#utility.yul\":211:240   */\n      swap1\n      pop\n        /* \"#utility.yul\":249:279   */\n      tag_102\n        /* \"#utility.yul\":273:278   */\n      dup2\n        /* \"#utility.yul\":249:279   */\n      tag_103\n      jump\t// in\n    tag_102:\n        /* \"#utility.yul\":152:285   */\n      swap3\n      swap2\n      pop\n      pop\n      jump\t// out\n        /* \"#utility.yul\":291:430   */\n    tag_104:\n        /* \"#utility.yul\":337:342   */\n      0x00\n        /* \"#utility.yul\":375:381   */\n      dup2\n        /* \"#utility.yul\":362:382   */\n      calldataload\n        /* \"#utility.yul\":353:382   */\n      swap1\n      pop\n        /* \"#utility.yul\":391:424   */\n      tag_106\n        /* \"#utility.yul\":418:423   */\n      dup2\n        /* \"#utility.yul\":391:424   */\n      tag_107\n      jump\t// in\n    tag_106:\n        /* \"#utility.yul\":291:430   */\n      swap3\n      swap2\n      pop\n      pop\n      jump\t// out\n        /* \"#utility.yul\":436:571   */\n    tag_108:\n        /* \"#utility.yul\":480:485   */\n      0x00\n        /* \"#utility.yul\":518:524   */\n      dup2\n        /* \"#utility.yul\":505:525   */\n      calldataload\n        /* \"#utility.yul\":496:525   */\n      swap1\n      pop\n        /* \"#utility.yul\":534:565   */\n      tag_110\n        /* \"#utility.yul\":559:564   */\n      dup2\n        /* \"#utility.yul\":534:565   */\n      tag_111\n      jump\t// in\n    tag_110:\n        /* \"#utility.yul\":436:571   */\n      swap3\n      swap2\n      pop\n      pop\n      jump\t// out\n        /* \"#utility.yul\":577:906   */\n    tag_27:\n        /* \"#utility.yul\":636:642   */\n      0x00\n        /* \"#utility.yul\":685:687   */\n      0x20\n        /* \"#utility.yul\":673:682   */\n      dup3\n        /* \"#utility.yul\":664:671   */\n      dup5\n        /* \"#utility.yul\":660:683   */\n      sub\n        /* \"#utility.yul\":656:688   */\n      slt\n        /* \"#utility.yul\":653:772   */\n      iszero\n      tag_113\n      jumpi\n        /* \"#utility.yul\":691:770   */\n      tag_114\n      tag_115\n      jump\t// in\n    tag_114:\n        /* \"#utility.yul\":653:772   */\n    tag_113:\n        /* \"#utility.yul\":811:812   */\n      0x00\n        /* \"#utility.yul\":836:889   */\n      tag_116\n        /* \"#utility.yul\":881:888   */\n      dup5\n        /* \"#utility.yul\":872:878   */\n      dup3\n        /* \"#utility.yul\":861:870   */\n      dup6\n        /* \"#utility.yul\":857:879   */\n      add\n        /* \"#utility.yul\":836:889   */\n      tag_96\n      jump\t// in\n    tag_116:\n        /* \"#utility.yul\":826:889   */\n      swap2\n      pop\n        /* \"#utility.yul\":782:899   */\n      pop\n        /* \"#utility.yul\":577:906   */\n      swap3\n      swap2\n      pop\n      pop\n      jump\t// out\n        /* \"#utility.yul\":912:1235   */\n    tag_23:\n        /* \"#utility.yul\":968:974   */\n      0x00\n        /* \"#utility.yul\":1017:1019   */\n      0x20\n        /* \"#utility.yul\":1005:1014   */\n      dup3\n        /* \"#utility.yul\":996:1003   */\n      dup5\n        /* \"#utility.yul\":992:1015   */\n      sub\n        /* \"#utility.yul\":988:1020   */\n      slt\n        /* \"#utility.yul\":985:1104   */\n      iszero\n      tag_118\n      jumpi\n        /* \"#utility.yul\":1023:1102   */\n      tag_119\n      tag_115\n      jump\t// in\n    tag_119:\n        /* \"#utility.yul\":985:1104   */\n    tag_118:\n        /* \"#utility.yul\":1143:1144   */\n      0x00\n        /* \"#utility.yul\":1168:1218   */\n      tag_120\n        /* \"#utility.yul\":1210:1217   */\n      dup5\n        /* \"#utility.yul\":1201:1207   */\n      dup3\n        /* \"#utility.yul\":1190:1199   */\n      dup6\n        /* \"#utility.yul\":1186:1208   */\n      add\n        /* \"#utility.yul\":1168:1218   */\n      tag_100\n      jump\t// in\n    tag_120:\n        /* \"#utility.yul\":1158:1218   */\n      swap2\n      pop\n        /* \"#utility.yul\":1114:1228   */\n      pop\n        /* \"#utility.yul\":912:1235   */\n      swap3\n      swap2\n      pop\n      pop\n      jump\t// out\n        /* \"#utility.yul\":1241:1570   */\n    tag_15:\n        /* \"#utility.yul\":1300:1306   */\n      0x00\n        /* \"#utility.yul\":1349:1351   */\n      0x20\n        /* \"#utility.yul\":1337:1346   */\n      dup3\n        /* \"#utility.yul\":1328:1335   */\n      dup5\n        /* \"#utility.yul\":1324:1347   */\n      sub\n        /* \"#utility.yul\":1320:1352   */\n      slt\n        /* \"#utility.yul\":1317:1436   */\n      iszero\n      tag_122\n      jumpi\n        /* \"#utility.yul\":1355:1434   */\n      tag_123\n      tag_115\n      jump\t// in\n    tag_123:\n        /* \"#utility.yul\":1317:1436   */\n    tag_122:\n        /* \"#utility.yul\":1475:1476   */\n      0x00\n        /* \"#utility.yul\":1500:1553   */\n      tag_124\n        /* \"#utility.yul\":1545:1552   */\n      dup5\n        /* \"#utility.yul\":1536:1542   */\n      dup3\n        /* \"#utility.yul\":1525:1534   */\n      dup6\n        /* \"#utility.yul\":1521:1543   */\n      add\n        /* \"#utility.yul\":1500:1553   */\n      tag_104\n      jump\t// in\n    tag_124:\n        /* \"#utility.yul\":1490:1553   */\n      swap2\n      pop\n        /* \"#utility.yul\":1446:1563   */\n      pop\n        /* \"#utility.yul\":1241:1570   */\n      swap3\n      swap2\n      pop\n      pop\n      jump\t// out\n        /* \"#utility.yul\":1576:1901   */\n    tag_19:\n        /* \"#utility.yul\":1633:1639   */\n      0x00\n        /* \"#utility.yul\":1682:1684   */\n      0x20\n        /* \"#utility.yul\":1670:1679   */\n      dup3\n        /* \"#utility.yul\":1661:1668   */\n      dup5\n        /* \"#utility.yul\":1657:1680   */\n      sub\n        /* \"#utility.yul\":1653:1685   */\n      slt\n        /* \"#utility.yul\":1650:1769   */\n      iszero\n      tag_126\n      jumpi\n        /* \"#utility.yul\":1688:1767   */\n      tag_127\n      tag_115\n      jump\t// in\n    tag_127:\n        /* \"#utility.yul\":1650:1769   */\n    tag_126:\n        /* \"#utility.yul\":1808:1809   */\n      0x00\n        /* \"#utility.yul\":1833:1884   */\n      tag_128\n        /* \"#utility.yul\":1876:1883   */\n      dup5\n        /* \"#utility.yul\":1867:1873   */\n      dup3\n        /* \"#utility.yul\":1856:1865   */\n      dup6\n        /* \"#utility.yul\":1852:1874   */\n      add\n        /* \"#utility.yul\":1833:1884   */\n      tag_108\n      jump\t// in\n    tag_128:\n        /* \"#utility.yul\":1823:1884   */\n      swap2\n      pop\n        /* \"#utility.yul\":1779:1894   */\n      pop\n        /* \"#utility.yul\":1576:1901   */\n      swap3\n      swap2\n      pop\n      pop\n      jump\t// out\n        /* \"#utility.yul\":1907:2271   */\n    tag_129:\n        /* \"#utility.yul\":1995:1998   */\n      0x00\n        /* \"#utility.yul\":2023:2062   */\n      tag_131\n        /* \"#utility.yul\":2056:2061   */\n      dup3\n        /* \"#utility.yul\":2023:2062   */\n      tag_132\n      jump\t// in\n    tag_131:\n        /* \"#utility.yul\":2078:2149   */\n      tag_133\n        /* \"#utility.yul\":2142:2148   */\n      dup2\n        /* \"#utility.yul\":2137:2140   */\n      dup6\n        /* \"#utility.yul\":2078:2149   */\n      tag_134\n      jump\t// in\n    tag_133:\n        /* \"#utility.yul\":2071:2149   */\n      swap4\n      pop\n        /* \"#utility.yul\":2158:2210   */\n      tag_135\n        /* \"#utility.yul\":2203:2209   */\n      dup2\n        /* \"#utility.yul\":2198:2201   */\n      dup6\n        /* \"#utility.yul\":2191:2195   */\n      0x20\n        /* \"#utility.yul\":2184:2189   */\n      dup7\n        /* \"#utility.yul\":2180:2196   */\n      add\n        /* \"#utility.yul\":2158:2210   */\n      tag_136\n      jump\t// in\n    tag_135:\n        /* \"#utility.yul\":2235:2264   */\n      tag_137\n        /* \"#utility.yul\":2257:2263   */\n      dup2\n        /* \"#utility.yul\":2235:2264   */\n      tag_138\n      jump\t// in\n    tag_137:\n        /* \"#utility.yul\":2230:2233   */\n      dup5\n        /* \"#utility.yul\":2226:2265   */\n      add\n        /* \"#utility.yul\":2219:2265   */\n      swap2\n      pop\n        /* \"#utility.yul\":1999:2271   */\n      pop\n        /* \"#utility.yul\":1907:2271   */\n      swap3\n      swap2\n      pop\n      pop\n      jump\t// out\n        /* \"#utility.yul\":2277:2395   */\n    tag_139:\n        /* \"#utility.yul\":2364:2388   */\n      tag_141\n        /* \"#utility.yul\":2382:2387   */\n      dup2\n        /* \"#utility.yul\":2364:2388   */\n      tag_142\n      jump\t// in\n    tag_141:\n        /* \"#utility.yul\":2359:2362   */\n      dup3\n        /* \"#utility.yul\":2352:2389   */\n      mstore\n        /* \"#utility.yul\":2277:2395   */\n      pop\n      pop\n      jump\t// out\n        /* \"#utility.yul\":2401:2714   */\n    tag_36:\n        /* \"#utility.yul\":2514:2518   */\n      0x00\n        /* \"#utility.yul\":2552:2554   */\n      0x20\n        /* \"#utility.yul\":2541:2550   */\n      dup3\n        /* \"#utility.yul\":2537:2555   */\n      add\n        /* \"#utility.yul\":2529:2555   */\n      swap1\n      pop\n        /* \"#utility.yul\":2601:2610   */\n      dup2\n        /* \"#utility.yul\":2595:2599   */\n      dup2\n        /* \"#utility.yul\":2591:2611   */\n      sub\n        /* \"#utility.yul\":2587:2588   */\n      0x00\n        /* \"#utility.yul\":2576:2585   */\n      dup4\n        /* \"#utility.yul\":2572:2589   */\n      add\n        /* \"#utility.yul\":2565:2612   */\n      mstore\n        /* \"#utility.yul\":2629:2707   */\n      tag_144\n        /* \"#utility.yul\":2702:2706   */\n      dup2\n        /* \"#utility.yul\":2693:2699   */\n      dup5\n        /* \"#utility.yul\":2629:2707   */\n      tag_129\n      jump\t// in\n    tag_144:\n        /* \"#utility.yul\":2621:2707   */\n      swap1\n      pop\n        /* \"#utility.yul\":2401:2714   */\n      swap3\n      swap2\n      pop\n      pop\n      jump\t// out\n        /* \"#utility.yul\":2720:2942   */\n    tag_32:\n        /* \"#utility.yul\":2813:2817   */\n      0x00\n        /* \"#utility.yul\":2851:2853   */\n      0x20\n        /* \"#utility.yul\":2840:2849   */\n      dup3\n        /* \"#utility.yul\":2836:2854   */\n      add\n        /* \"#utility.yul\":2828:2854   */\n      swap1\n      pop\n        /* \"#utility.yul\":2864:2935   */\n      tag_146\n        /* \"#utility.yul\":2932:2933   */\n      0x00\n        /* \"#utility.yul\":2921:2930   */\n      dup4\n        /* \"#utility.yul\":2917:2934   */\n      add\n        /* \"#utility.yul\":2908:2914   */\n      dup5\n        /* \"#utility.yul\":2864:2935   */\n      tag_139\n      jump\t// in\n    tag_146:\n        /* \"#utility.yul\":2720:2942   */\n      swap3\n      swap2\n      pop\n      pop\n      jump\t// out\n        /* \"#utility.yul\":3029:3128   */\n    tag_132:\n        /* \"#utility.yul\":3081:3087   */\n      0x00\n        /* \"#utility.yul\":3115:3120   */\n      dup2\n        /* \"#utility.yul\":3109:3121   */\n      mload\n        /* \"#utility.yul\":3099:3121   */\n      swap1\n      pop\n        /* \"#utility.yul\":3029:3128   */\n      swap2\n      swap1\n      pop\n      jump\t// out\n        /* \"#utility.yul\":3134:3303   */\n    tag_134:\n        /* \"#utility.yul\":3218:3229   */\n      0x00\n        /* \"#utility.yul\":3252:3258   */\n      dup3\n        /* \"#utility.yul\":3247:3250   */\n      dup3\n        /* \"#utility.yul\":3240:3259   */\n      mstore\n        /* \"#utility.yul\":3292:3296   */\n      0x20\n        /* \"#utility.yul\":3287:3290   */\n      dup3\n        /* \"#utility.yul\":3283:3297   */\n      add\n        /* \"#utility.yul\":3268:3297   */\n      swap1\n      pop\n        /* \"#utility.yul\":3134:3303   */\n      swap3\n      swap2\n      pop\n      pop\n      jump\t// out\n        /* \"#utility.yul\":3309:3551   */\n    tag_55:\n        /* \"#utility.yul\":3348:3351   */\n      0x00\n        /* \"#utility.yul\":3367:3386   */\n      tag_152\n        /* \"#utility.yul\":3384:3385   */\n      dup3\n        /* \"#utility.yul\":3367:3386   */\n      tag_153\n      jump\t// in\n    tag_152:\n        /* \"#utility.yul\":3362:3386   */\n      swap2\n      pop\n        /* \"#utility.yul\":3400:3419   */\n      tag_154\n        /* \"#utility.yul\":3417:3418   */\n      dup4\n        /* \"#utility.yul\":3400:3419   */\n      tag_153\n      jump\t// in\n    tag_154:\n        /* \"#utility.yul\":3395:3419   */\n      swap3\n      pop\n        /* \"#utility.yul\":3493:3494   */\n      dup3\n        /* \"#utility.yul\":3485:3491   */\n      0xffff\n        /* \"#utility.yul\":3481:3495   */\n      sub\n        /* \"#utility.yul\":3478:3479   */\n      dup3\n        /* \"#utility.yul\":3475:3496   */\n      gt\n        /* \"#utility.yul\":3472:3519   */\n      iszero\n      tag_155\n      jumpi\n        /* \"#utility.yul\":3499:3517   */\n      tag_156\n      tag_157\n      jump\t// in\n    tag_156:\n        /* \"#utility.yul\":3472:3519   */\n    tag_155:\n        /* \"#utility.yul\":3543:3544   */\n      dup3\n        /* \"#utility.yul\":3540:3541   */\n      dup3\n        /* \"#utility.yul\":3536:3545   */\n      add\n        /* \"#utility.yul\":3529:3545   */\n      swap1\n      pop\n        /* \"#utility.yul\":3309:3551   */\n      swap3\n      swap2\n      pop\n      pop\n      jump\t// out\n        /* \"#utility.yul\":3557:3862   */\n    tag_53:\n        /* \"#utility.yul\":3597:3600   */\n      0x00\n        /* \"#utility.yul\":3616:3636   */\n      tag_159\n        /* \"#utility.yul\":3634:3635   */\n      dup3\n        /* \"#utility.yul\":3616:3636   */\n      tag_142\n      jump\t// in\n    tag_159:\n        /* \"#utility.yul\":3611:3636   */\n      swap2\n      pop\n        /* \"#utility.yul\":3650:3670   */\n      tag_160\n        /* \"#utility.yul\":3668:3669   */\n      dup4\n        /* \"#utility.yul\":3650:3670   */\n      tag_142\n      jump\t// in\n    tag_160:\n        /* \"#utility.yul\":3645:3670   */\n      swap3\n      pop\n        /* \"#utility.yul\":3804:3805   */\n      dup3\n        /* \"#utility.yul\":3736:3802   */\n      0xffffffffffffffffffffffffffffffffffffffffffffffffffffffffffffffff\n        /* \"#utility.yul\":3732:3806   */\n      sub\n        /* \"#utility.yul\":3729:3730   */\n      dup3\n        /* \"#utility.yul\":3726:3807   */\n      gt\n        /* \"#utility.yul\":3723:3830   */\n      iszero\n      tag_161\n      jumpi\n        /* \"#utility.yul\":3810:3828   */\n      tag_162\n      tag_157\n      jump\t// in\n    tag_162:\n        /* \"#utility.yul\":3723:3830   */\n    tag_161:\n        /* \"#utility.yul\":3854:3855   */\n      dup3\n        /* \"#utility.yul\":3851:3852   */\n      dup3\n        /* \"#utility.yul\":3847:3856   */\n      add\n        /* \"#utility.yul\":3840:3856   */\n      swap1\n      pop\n        /* \"#utility.yul\":3557:3862   */\n      swap3\n      swap2\n      pop\n      pop\n      jump\t// out\n        /* \"#utility.yul\":3868:3964   */\n    tag_163:\n        /* \"#utility.yul\":3905:3912   */\n      0x00\n        /* \"#utility.yul\":3934:3958   */\n      tag_165\n        /* \"#utility.yul\":3952:3957   */\n      dup3\n        /* \"#utility.yul\":3934:3958   */\n      tag_166\n      jump\t// in\n    tag_165:\n        /* \"#utility.yul\":3923:3958   */\n      swap1\n      pop\n        /* \"#utility.yul\":3868:3964   */\n      swap2\n      swap1\n      pop\n      jump\t// out\n        /* \"#utility.yul\":3970:4060   */\n    tag_167:\n        /* \"#utility.yul\":4004:4011   */\n      0x00\n        /* \"#utility.yul\":4047:4052   */\n      dup2\n        /* \"#utility.yul\":4040:4053   */\n      iszero\n        /* \"#utility.yul\":4033:4054   */\n      iszero\n        /* \"#utility.yul\":4022:4054   */\n      swap1\n      pop\n        /* \"#utility.yul\":3970:4060   */\n      swap2\n      swap1\n      pop\n      jump\t// out\n        /* \"#utility.yul\":4066:4155   */\n    tag_153:\n        /* \"#utility.yul\":4102:4109   */\n      0x00\n        /* \"#utility.yul\":4142:4148   */\n      0xffff\n        /* \"#utility.yul\":4135:4140   */\n      dup3\n        /* \"#utility.yul\":4131:4149   */\n      and\n        /* \"#utility.yul\":4120:4149   */\n      swap1\n      pop\n        /* \"#utility.yul\":4066:4155   */\n      swap2\n      swap1\n      pop\n      jump\t// out\n        /* \"#utility.yul\":4161:4287   */\n    tag_166:\n        /* \"#utility.yul\":4198:4205   */\n      0x00\n        /* \"#utility.yul\":4238:4280   */\n      0xffffffffffffffffffffffffffffffffffffffff\n        /* \"#utility.yul\":4231:4236   */\n      dup3\n        /* \"#utility.yul\":4227:4281   */\n      and\n        /* \"#utility.yul\":4216:4281   */\n      swap1\n      pop\n        /* \"#utility.yul\":4161:4287   */\n      swap2\n      swap1\n      pop\n      jump\t// out\n        /* \"#utility.yul\":4293:4370   */\n    tag_142:\n        /* \"#utility.yul\":4330:4337   */\n      0x00\n        /* \"#utility.yul\":4359:4364   */\n      dup2\n        /* \"#utility.yul\":4348:4364   */\n      swap1\n      pop\n        /* \"#utility.yul\":4293:4370   */\n      swap2\n      swap1\n      pop\n      jump\t// out\n        /* \"#utility.yul\":4376:4462   */\n    tag_172:\n        /* \"#utility.yul\":4411:4418   */\n      0x00\n        /* \"#utility.yul\":4451:4455   */\n      0xff\n        /* \"#utility.yul\":4444:4449   */\n      dup3\n        /* \"#utility.yul\":4440:4456   */\n      and\n        /* \"#utility.yul\":4429:4456   */\n      swap1\n      pop\n        /* \"#utility.yul\":4376:4462   */\n      swap2\n      swap1\n      pop\n      jump\t// out\n        /* \"#utility.yul\":4468:4775   */\n    tag_136:\n        /* \"#utility.yul\":4536:4537   */\n      0x00\n        /* \"#utility.yul\":4546:4659   */\n    tag_175:\n        /* \"#utility.yul\":4560:4566   */\n      dup4\n        /* \"#utility.yul\":4557:4558   */\n      dup2\n        /* \"#utility.yul\":4554:4567   */\n      lt\n        /* \"#utility.yul\":4546:4659   */\n      iszero\n      tag_177\n      jumpi\n        /* \"#utility.yul\":4645:4646   */\n      dup1\n        /* \"#utility.yul\":4640:4643   */\n      dup3\n        /* \"#utility.yul\":4636:4647   */\n      add\n        /* \"#utility.yul\":4630:4648   */\n      mload\n        /* \"#utility.yul\":4626:4627   */\n      dup2\n        /* \"#utility.yul\":4621:4624   */\n      dup5\n        /* \"#utility.yul\":4617:4628   */\n      add\n        /* \"#utility.yul\":4610:4649   */\n      mstore\n        /* \"#utility.yul\":4582:4584   */\n      0x20\n        /* \"#utility.yul\":4579:4580   */\n      dup2\n        /* \"#utility.yul\":4575:4585   */\n      add\n        /* \"#utility.yul\":4570:4585   */\n      swap1\n      pop\n        /* \"#utility.yul\":4546:4659   */\n      jump(tag_175)\n    tag_177:\n        /* \"#utility.yul\":4677:4683   */\n      dup4\n        /* \"#utility.yul\":4674:4675   */\n      dup2\n        /* \"#utility.yul\":4671:4684   */\n      gt\n        /* \"#utility.yul\":4668:4769   */\n      iszero\n      tag_178\n      jumpi\n        /* \"#utility.yul\":4757:4758   */\n      0x00\n        /* \"#utility.yul\":4748:4754   */\n      dup5\n        /* \"#utility.yul\":4743:4746   */\n      dup5\n        /* \"#utility.yul\":4739:4755   */\n      add\n        /* \"#utility.yul\":4732:4759   */\n      mstore\n        /* \"#utility.yul\":4668:4769   */\n    tag_178:\n        /* \"#utility.yul\":4517:4775   */\n      pop\n        /* \"#utility.yul\":4468:4775   */\n      pop\n      pop\n      pop\n      jump\t// out\n        /* \"#utility.yul\":4781:5101   */\n    tag_77:\n        /* \"#utility.yul\":4825:4831   */\n      0x00\n        /* \"#utility.yul\":4862:4863   */\n      0x02\n        /* \"#utility.yul\":4856:4860   */\n      dup3\n        /* \"#utility.yul\":4852:4864   */\n      div\n        /* \"#utility.yul\":4842:4864   */\n      swap1\n      pop\n        /* \"#utility.yul\":4909:4910   */\n      0x01\n        /* \"#utility.yul\":4903:4907   */\n      dup3\n        /* \"#utility.yul\":4899:4911   */\n      and\n        /* \"#utility.yul\":4930:4948   */\n      dup1\n        /* \"#utility.yul\":4920:5001   */\n      tag_180\n      jumpi\n        /* \"#utility.yul\":4986:4990   */\n      0x7f\n        /* \"#utility.yul\":4978:4984   */\n      dup3\n        /* \"#utility.yul\":4974:4991   */\n      and\n        /* \"#utility.yul\":4964:4991   */\n      swap2\n      pop\n        /* \"#utility.yul\":4920:5001   */\n    tag_180:\n        /* \"#utility.yul\":5048:5050   */\n      0x20\n        /* \"#utility.yul\":5040:5046   */\n      dup3\n        /* \"#utility.yul\":5037:5051   */\n      lt\n        /* \"#utility.yul\":5017:5035   */\n      dup2\n        /* \"#utility.yul\":5014:5052   */\n      eq\n        /* \"#utility.yul\":5011:5095   */\n      iszero\n      tag_181\n      jumpi\n        /* \"#utility.yul\":5067:5085   */\n      tag_182\n      tag_183\n      jump\t// in\n    tag_182:\n        /* \"#utility.yul\":5011:5095   */\n    tag_181:\n        /* \"#utility.yul\":4832:5101   */\n      pop\n        /* \"#utility.yul\":4781:5101   */\n      swap2\n      swap1\n      pop\n      jump\t// out\n        /* \"#utility.yul\":5107:5287   */\n    tag_157:\n        /* \"#utility.yul\":5155:5232   */\n      0x4e487b7100000000000000000000000000000000000000000000000000000000\n        /* \"#utility.yul\":5152:5153   */\n      0x00\n        /* \"#utility.yul\":5145:5233   */\n      mstore\n        /* \"#utility.yul\":5252:5256   */\n      0x11\n        /* \"#utility.yul\":5249:5250   */\n      0x04\n        /* \"#utility.yul\":5242:5257   */\n      mstore\n        /* \"#utility.yul\":5276:5280   */\n      0x24\n        /* \"#utility.yul\":5273:5274   */\n      0x00\n        /* \"#utility.yul\":5266:5281   */\n      revert\n        /* \"#utility.yul\":5293:5473   */\n    tag_183:\n        /* \"#utility.yul\":5341:5418   */\n      0x4e487b7100000000000000000000000000000000000000000000000000000000\n        /* \"#utility.yul\":5338:5339   */\n      0x00\n        /* \"#utility.yul\":5331:5419   */\n      mstore\n        /* \"#utility.yul\":5438:5442   */\n      0x22\n        /* \"#utility.yul\":5435:5436   */\n      0x04\n        /* \"#utility.yul\":5428:5443   */\n      mstore\n        /* \"#utility.yul\":5462:5466   */\n      0x24\n        /* \"#utility.yul\":5459:5460   */\n      0x00\n        /* \"#utility.yul\":5452:5467   */\n      revert\n        /* \"#utility.yul\":5602:5719   */\n    tag_115:\n        /* \"#utility.yul\":5711:5712   */\n      0x00\n        /* \"#utility.yul\":5708:5709   */\n      dup1\n        /* \"#utility.yul\":5701:5713   */\n      revert\n        /* \"#utility.yul\":5725:5827   */\n    tag_138:\n        /* \"#utility.yul\":5766:5772   */\n      0x00\n        /* \"#utility.yul\":5817:5819   */\n      0x1f\n        /* \"#utility.yul\":5813:5820   */\n      not\n        /* \"#utility.yul\":5808:5810   */\n      0x1f\n        /* \"#utility.yul\":5801:5806   */\n      dup4\n        /* \"#utility.yul\":5797:5811   */\n      add\n        /* \"#utility.yul\":5793:5821   */\n      and\n        /* \"#utility.yul\":5783:5821   */\n      swap1\n      pop\n        /* \"#utility.yul\":5725:5827   */\n      swap2\n      swap1\n      pop\n      jump\t// out\n        /* \"#utility.yul\":5833:5955   */\n    tag_99:\n        /* \"#utility.yul\":5906:5930   */\n      tag_191\n        /* \"#utility.yul\":5924:5929   */\n      dup2\n        /* \"#utility.yul\":5906:5930   */\n      tag_163\n      jump\t// in\n    tag_191:\n        /* \"#utility.yul\":5899:5904   */\n      dup2\n        /* \"#utility.yul\":5896:5931   */\n      eq\n        /* \"#utility.yul\":5886:5949   */\n      tag_192\n      jumpi\n        /* \"#utility.yul\":5945:5946   */\n      0x00\n        /* \"#utility.yul\":5942:5943   */\n      dup1\n        /* \"#utility.yul\":5935:5947   */\n      revert\n        /* \"#utility.yul\":5886:5949   */\n    tag_192:\n        /* \"#utility.yul\":5833:5955   */\n      pop\n      jump\t// out\n        /* \"#utility.yul\":5961:6077   */\n    tag_103:\n        /* \"#utility.yul\":6031:6052   */\n      tag_194\n        /* \"#utility.yul\":6046:6051   */\n      dup2\n        /* \"#utility.yul\":6031:6052   */\n      tag_167\n      jump\t// in\n    tag_194:\n        /* \"#utility.yul\":6024:6029   */\n      dup2\n        /* \"#utility.yul\":6021:6053   */\n      eq\n        /* \"#utility.yul\":6011:6071   */\n      tag_195\n      jumpi\n        /* \"#utility.yul\":6067:6068   */\n      0x00\n        /* \"#utility.yul\":6064:6065   */\n      dup1\n        /* \"#utility.yul\":6057:6069   */\n      revert\n        /* \"#utility.yul\":6011:6071   */\n    tag_195:\n        /* \"#utility.yul\":5961:6077   */\n      pop\n      jump\t// out\n        /* \"#utility.yul\":6083:6205   */\n    tag_107:\n        /* \"#utility.yul\":6156:6180   */\n      tag_197\n        /* \"#utility.yul\":6174:6179   */\n      dup2\n        /* \"#utility.yul\":6156:6180   */\n      tag_142\n      jump\t// in\n    tag_197:\n        /* \"#utility.yul\":6149:6154   */\n      dup2\n        /* \"#utility.yul\":6146:6181   */\n      eq\n        /* \"#utility.yul\":6136:6199   */\n      tag_198\n      jumpi\n        /* \"#utility.yul\":6195:6196   */\n      0x00\n        /* \"#utility.yul\":6192:6193   */\n      dup1\n        /* \"#utility.yul\":6185:6197   */\n      revert\n        /* \"#utility.yul\":6136:6199   */\n    tag_198:\n        /* \"#utility.yul\":6083:6205   */\n      pop\n      jump\t// out\n        /* \"#utility.yul\":6211:6329   */\n    tag_111:\n        /* \"#utility.yul\":6282:6304   */\n      tag_200\n        /* \"#utility.yul\":6298:6303   */\n      dup2\n        /* \"#utility.yul\":6282:6304   */\n      tag_172\n      jump\t// in\n    tag_200:\n        /* \"#utility.yul\":6275:6280   */\n      dup2\n        /* \"#utility.yul\":6272:6305   */\n      eq\n        /* \"#utility.yul\":6262:6323   */\n      tag_201\n      jumpi\n        /* \"#utility.yul\":6319:6320   */\n      0x00\n        /* \"#utility.yul\":6316:6317   */\n      dup1\n        /* \"#utility.yul\":6309:6321   */\n      revert\n        /* \"#utility.yul\":6262:6323   */\n    tag_201:\n        /* \"#utility.yul\":6211:6329   */\n      pop\n      jump\t// out\n\n    auxdata: 0xa26469706673582212200cc60858f587cd32dd50b69fabe43008046bdae242a0a2182e142deb8baca3ba64736f6c63430008070033\n}\n",
				"bytecode": {
					"linkReferences": {},
					"object": "608060405273d9145cce52d386f254917e481eb44e9943f39138600160006101000a81548173ffffffffffffffffffffffffffffffffffffffff021916908373ffffffffffffffffffffffffffffffffffffffff1602179055506000600560006101000a81548161ffff021916908361ffff1602179055506000600560026101000a81548160ff021916908360ff1602179055506000600560036101000a81548161ffff021916908361ffff16021790555060006005806101000a81548161ffff021916908361ffff16021790555060006006553480156100df57600080fd5b50336000806101000a81548173ffffffffffffffffffffffffffffffffffffffff021916908373ffffffffffffffffffffffffffffffffffffffff160217905550610d8c8061012f6000396000f3fe608060405234801561001057600080fd5b50600436106100935760003560e01c8063a69799fc11610066578063a69799fc14610108578063bf63a57714610126578063c631b29214610144578063de2927891461014e578063ea31a64c1461016c57610093565b80633ac65b661461009857806354e82dfd146100b457806372bfc77b146100d0578063a28b8d26146100ec575b600080fd5b6100b260048036038101906100ad9190610a35565b610188565b005b6100ce60048036038101906100c99190610a62565b610342565b005b6100ea60048036038101906100e59190610a08565b6103fd565b005b610106600480360381019061010191906109db565b610640565b005b6101106106dc565b60405161011d9190610af9565b60405180910390f35b61012e6106f6565b60405161013b9190610ad7565b60405180910390f35b61014c610784565b005b610156610853565b6040516101639190610af9565b60405180910390f35b610186600480360381019061018191906109db565b61085d565b005b6000600560029054906101000a900460ff1660ff1614156101a857600080fd5b600260003373ffffffffffffffffffffffffffffffffffffffff1673ffffffffffffffffffffffffffffffffffffffff16815260200190815260200160002060009054906101000a900460ff166101fe57600080fd5b600060036000600560009054906101000a900461ffff1661ffff1661ffff16815260200190815260200160002060003373ffffffffffffffffffffffffffffffffffffffff1673ffffffffffffffffffffffffffffffffffffffff168152602001908152602001600020541461027357600080fd5b600b811061028057600080fd5b80600660008282546102929190610b68565b9250508190555060016005808282829054906101000a900461ffff166102b89190610b30565b92506101000a81548161ffff021916908361ffff1602179055508060036000600560009054906101000a900461ffff1661ffff1661ffff16815260200190815260200160002060003373ffffffffffffffffffffffffffffffffffffffff1673ffffffffffffffffffffffffffffffffffffffff1681526020019081526020016000208190555050565b60008054906101000a900473ffffffffffffffffffffffffffffffffffffffff1673ffffffffffffffffffffffffffffffffffffffff163373ffffffffffffffffffffffffffffffffffffffff161461039a57600080fd5b6000600560029054906101000a900460ff1660ff1614156103ba57600080fd5b80600560026101000a81548160ff021916908360ff160217905550600060068190555060006005806101000a81548161ffff021916908361ffff16021790555050565b6000600560029054906101000a900460ff1660ff16141561041d57600080fd5b600260003373ffffffffffffffffffffffffffffffffffffffff1673ffffffffffffffffffffffffffffffffffffffff16815260200190815260200160002060009054906101000a900460ff1661047357600080fd5b600060036000600560009054906101000a900461ffff1661ffff1661ffff16815260200190815260200160002060003373ffffffffffffffffffffffffffffffffffffffff1673ffffffffffffffffffffffffffffffffffffffff16815260200190815260200160002054146104e857600080fd5b801561057b57600160036000600560009054906101000a900461ffff1661ffff1661ffff16815260200190815260200160002060003373ffffffffffffffffffffffffffffffffffffffff1673ffffffffffffffffffffffffffffffffffffffff1681526020019081526020016000208190555060016006600082825461056f9190610b68565b92505081905550610604565b600a60036000600560009054906101000a900461ffff1661ffff1661ffff16815260200190815260200160002060003373ffffffffffffffffffffffffffffffffffffffff1673ffffffffffffffffffffffffffffffffffffffff16815260200190815260200160002081905550600a600660008282546105fc9190610b68565b925050819055505b60016005808282829054906101000a900461ffff166106239190610b30565b92506101000a81548161ffff021916908361ffff16021790555050565b60008054906101000a900473ffffffffffffffffffffffffffffffffffffffff1673ffffffffffffffffffffffffffffffffffffffff163373ffffffffffffffffffffffffffffffffffffffff161461069857600080fd5b80600160006101000a81548173ffffffffffffffffffffffffffffffffffffffff021916908373ffffffffffffffffffffffffffffffffffffffff16021790555050565b600060058054906101000a900461ffff1661ffff16905090565b6004805461070390610c54565b80601f016020809104026020016040519081016040528092919081815260200182805461072f90610c54565b801561077c5780601f106107515761010080835404028352916020019161077c565b820191906000526020600020905b81548152906001019060200180831161075f57829003601f168201915b505050505081565b60008054906101000a900473ffffffffffffffffffffffffffffffffffffffff1673ffffffffffffffffffffffffffffffffffffffff163373ffffffffffffffffffffffffffffffffffffffff16146107dc57600080fd5b6000600560029054906101000a900460ff1660ff1614156107fc57600080fd5b6000600560026101000a81548160ff021916908360ff1602179055506001600560009054906101000a900461ffff166108359190610b30565b600560006101000a81548161ffff021916908361ffff160217905550565b6000600654905090565b600160009054906101000a900473ffffffffffffffffffffffffffffffffffffffff1673ffffffffffffffffffffffffffffffffffffffff163373ffffffffffffffffffffffffffffffffffffffff16146108b757600080fd5b80600073ffffffffffffffffffffffffffffffffffffffff168173ffffffffffffffffffffffffffffffffffffffff1614156108f257600080fd5b6001600560039054906101000a900461ffff1661090f9190610b30565b600560036101000a81548161ffff021916908361ffff1602179055506001600260008473ffffffffffffffffffffffffffffffffffffffff1673ffffffffffffffffffffffffffffffffffffffff16815260200190815260200160002060006101000a81548160ff0219169083151502179055505050565b60008135905061099681610cfa565b92915050565b6000813590506109ab81610d11565b92915050565b6000813590506109c081610d28565b92915050565b6000813590506109d581610d3f565b92915050565b6000602082840312156109f1576109f0610ce4565b5b60006109ff84828501610987565b91505092915050565b600060208284031215610a1e57610a1d610ce4565b5b6000610a2c8482850161099c565b91505092915050565b600060208284031215610a4b57610a4a610ce4565b5b6000610a59848285016109b1565b91505092915050565b600060208284031215610a7857610a77610ce4565b5b6000610a86848285016109c6565b91505092915050565b6000610a9a82610b14565b610aa48185610b1f565b9350610ab4818560208601610c21565b610abd81610ce9565b840191505092915050565b610ad181610c0a565b82525050565b60006020820190508181036000830152610af18184610a8f565b905092915050565b6000602082019050610b0e6000830184610ac8565b92915050565b600081519050919050565b600082825260208201905092915050565b6000610b3b82610bdc565b9150610b4683610bdc565b92508261ffff03821115610b5d57610b5c610c86565b5b828201905092915050565b6000610b7382610c0a565b9150610b7e83610c0a565b9250827fffffffffffffffffffffffffffffffffffffffffffffffffffffffffffffffff03821115610bb357610bb2610c86565b5b828201905092915050565b6000610bc982610bea565b9050919050565b60008115159050919050565b600061ffff82169050919050565b600073ffffffffffffffffffffffffffffffffffffffff82169050919050565b6000819050919050565b600060ff82169050919050565b60005b83811015610c3f578082015181840152602081019050610c24565b83811115610c4e576000848401525b50505050565b60006002820490506001821680610c6c57607f821691505b60208210811415610c8057610c7f610cb5565b5b50919050565b7f4e487b7100000000000000000000000000000000000000000000000000000000600052601160045260246000fd5b7f4e487b7100000000000000000000000000000000000000000000000000000000600052602260045260246000fd5b600080fd5b6000601f19601f8301169050919050565b610d0381610bbe565b8114610d0e57600080fd5b50565b610d1a81610bd0565b8114610d2557600080fd5b50565b610d3181610c0a565b8114610d3c57600080fd5b50565b610d4881610c14565b8114610d5357600080fd5b5056fea26469706673582212200cc60858f587cd32dd50b69fabe43008046bdae242a0a2182e142deb8baca3ba64736f6c63430008070033",
					"opcodes": "PUSH1 0x80 PUSH1 0x40 MSTORE PUSH20 0xD9145CCE52D386F254917E481EB44E9943F39138 PUSH1 0x1 PUSH1 0x0 PUSH2 0x100 EXP DUP2 SLOAD DUP2 PUSH20 0xFFFFFFFFFFFFFFFFFFFFFFFFFFFFFFFFFFFFFFFF MUL NOT AND SWAP1 DUP4 PUSH20 0xFFFFFFFFFFFFFFFFFFFFFFFFFFFFFFFFFFFFFFFF AND MUL OR SWAP1 SSTORE POP PUSH1 0x0 PUSH1 0x5 PUSH1 0x0 PUSH2 0x100 EXP DUP2 SLOAD DUP2 PUSH2 0xFFFF MUL NOT AND SWAP1 DUP4 PUSH2 0xFFFF AND MUL OR SWAP1 SSTORE POP PUSH1 0x0 PUSH1 0x5 PUSH1 0x2 PUSH2 0x100 EXP DUP2 SLOAD DUP2 PUSH1 0xFF MUL NOT AND SWAP1 DUP4 PUSH1 0xFF AND MUL OR SWAP1 SSTORE POP PUSH1 0x0 PUSH1 0x5 PUSH1 0x3 PUSH2 0x100 EXP DUP2 SLOAD DUP2 PUSH2 0xFFFF MUL NOT AND SWAP1 DUP4 PUSH2 0xFFFF AND MUL OR SWAP1 SSTORE POP PUSH1 0x0 PUSH1 0x5 DUP1 PUSH2 0x100 EXP DUP2 SLOAD DUP2 PUSH2 0xFFFF MUL NOT AND SWAP1 DUP4 PUSH2 0xFFFF AND MUL OR SWAP1 SSTORE POP PUSH1 0x0 PUSH1 0x6 SSTORE CALLVALUE DUP1 ISZERO PUSH2 0xDF JUMPI PUSH1 0x0 DUP1 REVERT JUMPDEST POP CALLER PUSH1 0x0 DUP1 PUSH2 0x100 EXP DUP2 SLOAD DUP2 PUSH20 0xFFFFFFFFFFFFFFFFFFFFFFFFFFFFFFFFFFFFFFFF MUL NOT AND SWAP1 DUP4 PUSH20 0xFFFFFFFFFFFFFFFFFFFFFFFFFFFFFFFFFFFFFFFF AND MUL OR SWAP1 SSTORE POP PUSH2 0xD8C DUP1 PUSH2 0x12F PUSH1 0x0 CODECOPY PUSH1 0x0 RETURN INVALID PUSH1 0x80 PUSH1 0x40 MSTORE CALLVALUE DUP1 ISZERO PUSH2 0x10 JUMPI PUSH1 0x0 DUP1 REVERT JUMPDEST POP PUSH1 0x4 CALLDATASIZE LT PUSH2 0x93 JUMPI PUSH1 0x0 CALLDATALOAD PUSH1 0xE0 SHR DUP1 PUSH4 0xA69799FC GT PUSH2 0x66 JUMPI DUP1 PUSH4 0xA69799FC EQ PUSH2 0x108 JUMPI DUP1 PUSH4 0xBF63A577 EQ PUSH2 0x126 JUMPI DUP1 PUSH4 0xC631B292 EQ PUSH2 0x144 JUMPI DUP1 PUSH4 0xDE292789 EQ PUSH2 0x14E JUMPI DUP1 PUSH4 0xEA31A64C EQ PUSH2 0x16C JUMPI PUSH2 0x93 JUMP JUMPDEST DUP1 PUSH4 0x3AC65B66 EQ PUSH2 0x98 JUMPI DUP1 PUSH4 0x54E82DFD EQ PUSH2 0xB4 JUMPI DUP1 PUSH4 0x72BFC77B EQ PUSH2 0xD0 JUMPI DUP1 PUSH4 0xA28B8D26 EQ PUSH2 0xEC JUMPI JUMPDEST PUSH1 0x0 DUP1 REVERT JUMPDEST PUSH2 0xB2 PUSH1 0x4 DUP1 CALLDATASIZE SUB DUP2 ADD SWAP1 PUSH2 0xAD SWAP2 SWAP1 PUSH2 0xA35 JUMP JUMPDEST PUSH2 0x188 JUMP JUMPDEST STOP JUMPDEST PUSH2 0xCE PUSH1 0x4 DUP1 CALLDATASIZE SUB DUP2 ADD SWAP1 PUSH2 0xC9 SWAP2 SWAP1 PUSH2 0xA62 JUMP JUMPDEST PUSH2 0x342 JUMP JUMPDEST STOP JUMPDEST PUSH2 0xEA PUSH1 0x4 DUP1 CALLDATASIZE SUB DUP2 ADD SWAP1 PUSH2 0xE5 SWAP2 SWAP1 PUSH2 0xA08 JUMP JUMPDEST PUSH2 0x3FD JUMP JUMPDEST STOP JUMPDEST PUSH2 0x106 PUSH1 0x4 DUP1 CALLDATASIZE SUB DUP2 ADD SWAP1 PUSH2 0x101 SWAP2 SWAP1 PUSH2 0x9DB JUMP JUMPDEST PUSH2 0x640 JUMP JUMPDEST STOP JUMPDEST PUSH2 0x110 PUSH2 0x6DC JUMP JUMPDEST PUSH1 0x40 MLOAD PUSH2 0x11D SWAP2 SWAP1 PUSH2 0xAF9 JUMP JUMPDEST PUSH1 0x40 MLOAD DUP1 SWAP2 SUB SWAP1 RETURN JUMPDEST PUSH2 0x12E PUSH2 0x6F6 JUMP JUMPDEST PUSH1 0x40 MLOAD PUSH2 0x13B SWAP2 SWAP1 PUSH2 0xAD7 JUMP JUMPDEST PUSH1 0x40 MLOAD DUP1 SWAP2 SUB SWAP1 RETURN JUMPDEST PUSH2 0x14C PUSH2 0x784 JUMP JUMPDEST STOP JUMPDEST PUSH2 0x156 PUSH2 0x853 JUMP JUMPDEST PUSH1 0x40 MLOAD PUSH2 0x163 SWAP2 SWAP1 PUSH2 0xAF9 JUMP JUMPDEST PUSH1 0x40 MLOAD DUP1 SWAP2 SUB SWAP1 RETURN JUMPDEST PUSH2 0x186 PUSH1 0x4 DUP1 CALLDATASIZE SUB DUP2 ADD SWAP1 PUSH2 0x181 SWAP2 SWAP1 PUSH2 0x9DB JUMP JUMPDEST PUSH2 0x85D JUMP JUMPDEST STOP JUMPDEST PUSH1 0x0 PUSH1 0x5 PUSH1 0x2 SWAP1 SLOAD SWAP1 PUSH2 0x100 EXP SWAP1 DIV PUSH1 0xFF AND PUSH1 0xFF AND EQ ISZERO PUSH2 0x1A8 JUMPI PUSH1 0x0 DUP1 REVERT JUMPDEST PUSH1 0x2 PUSH1 0x0 CALLER PUSH20 0xFFFFFFFFFFFFFFFFFFFFFFFFFFFFFFFFFFFFFFFF AND PUSH20 0xFFFFFFFFFFFFFFFFFFFFFFFFFFFFFFFFFFFFFFFF AND DUP2 MSTORE PUSH1 0x20 ADD SWAP1 DUP2 MSTORE PUSH1 0x20 ADD PUSH1 0x0 KECCAK256 PUSH1 0x0 SWAP1 SLOAD SWAP1 PUSH2 0x100 EXP SWAP1 DIV PUSH1 0xFF AND PUSH2 0x1FE JUMPI PUSH1 0x0 DUP1 REVERT JUMPDEST PUSH1 0x0 PUSH1 0x3 PUSH1 0x0 PUSH1 0x5 PUSH1 0x0 SWAP1 SLOAD SWAP1 PUSH2 0x100 EXP SWAP1 DIV PUSH2 0xFFFF AND PUSH2 0xFFFF AND PUSH2 0xFFFF AND DUP2 MSTORE PUSH1 0x20 ADD SWAP1 DUP2 MSTORE PUSH1 0x20 ADD PUSH1 0x0 KECCAK256 PUSH1 0x0 CALLER PUSH20 0xFFFFFFFFFFFFFFFFFFFFFFFFFFFFFFFFFFFFFFFF AND PUSH20 0xFFFFFFFFFFFFFFFFFFFFFFFFFFFFFFFFFFFFFFFF AND DUP2 MSTORE PUSH1 0x20 ADD SWAP1 DUP2 MSTORE PUSH1 0x20 ADD PUSH1 0x0 KECCAK256 SLOAD EQ PUSH2 0x273 JUMPI PUSH1 0x0 DUP1 REVERT JUMPDEST PUSH1 0xB DUP2 LT PUSH2 0x280 JUMPI PUSH1 0x0 DUP1 REVERT JUMPDEST DUP1 PUSH1 0x6 PUSH1 0x0 DUP3 DUP3 SLOAD PUSH2 0x292 SWAP2 SWAP1 PUSH2 0xB68 JUMP JUMPDEST SWAP3 POP POP DUP2 SWAP1 SSTORE POP PUSH1 0x1 PUSH1 0x5 DUP1 DUP3 DUP3 DUP3 SWAP1 SLOAD SWAP1 PUSH2 0x100 EXP SWAP1 DIV PUSH2 0xFFFF AND PUSH2 0x2B8 SWAP2 SWAP1 PUSH2 0xB30 JUMP JUMPDEST SWAP3 POP PUSH2 0x100 EXP DUP2 SLOAD DUP2 PUSH2 0xFFFF MUL NOT AND SWAP1 DUP4 PUSH2 0xFFFF AND MUL OR SWAP1 SSTORE POP DUP1 PUSH1 0x3 PUSH1 0x0 PUSH1 0x5 PUSH1 0x0 SWAP1 SLOAD SWAP1 PUSH2 0x100 EXP SWAP1 DIV PUSH2 0xFFFF AND PUSH2 0xFFFF AND PUSH2 0xFFFF AND DUP2 MSTORE PUSH1 0x20 ADD SWAP1 DUP2 MSTORE PUSH1 0x20 ADD PUSH1 0x0 KECCAK256 PUSH1 0x0 CALLER PUSH20 0xFFFFFFFFFFFFFFFFFFFFFFFFFFFFFFFFFFFFFFFF AND PUSH20 0xFFFFFFFFFFFFFFFFFFFFFFFFFFFFFFFFFFFFFFFF AND DUP2 MSTORE PUSH1 0x20 ADD SWAP1 DUP2 MSTORE PUSH1 0x20 ADD PUSH1 0x0 KECCAK256 DUP2 SWAP1 SSTORE POP POP JUMP JUMPDEST PUSH1 0x0 DUP1 SLOAD SWAP1 PUSH2 0x100 EXP SWAP1 DIV PUSH20 0xFFFFFFFFFFFFFFFFFFFFFFFFFFFFFFFFFFFFFFFF AND PUSH20 0xFFFFFFFFFFFFFFFFFFFFFFFFFFFFFFFFFFFFFFFF AND CALLER PUSH20 0xFFFFFFFFFFFFFFFFFFFFFFFFFFFFFFFFFFFFFFFF AND EQ PUSH2 0x39A JUMPI PUSH1 0x0 DUP1 REVERT JUMPDEST PUSH1 0x0 PUSH1 0x5 PUSH1 0x2 SWAP1 SLOAD SWAP1 PUSH2 0x100 EXP SWAP1 DIV PUSH1 0xFF AND PUSH1 0xFF AND EQ ISZERO PUSH2 0x3BA JUMPI PUSH1 0x0 DUP1 REVERT JUMPDEST DUP1 PUSH1 0x5 PUSH1 0x2 PUSH2 0x100 EXP DUP2 SLOAD DUP2 PUSH1 0xFF MUL NOT AND SWAP1 DUP4 PUSH1 0xFF AND MUL OR SWAP1 SSTORE POP PUSH1 0x0 PUSH1 0x6 DUP2 SWAP1 SSTORE POP PUSH1 0x0 PUSH1 0x5 DUP1 PUSH2 0x100 EXP DUP2 SLOAD DUP2 PUSH2 0xFFFF MUL NOT AND SWAP1 DUP4 PUSH2 0xFFFF AND MUL OR SWAP1 SSTORE POP POP JUMP JUMPDEST PUSH1 0x0 PUSH1 0x5 PUSH1 0x2 SWAP1 SLOAD SWAP1 PUSH2 0x100 EXP SWAP1 DIV PUSH1 0xFF AND PUSH1 0xFF AND EQ ISZERO PUSH2 0x41D JUMPI PUSH1 0x0 DUP1 REVERT JUMPDEST PUSH1 0x2 PUSH1 0x0 CALLER PUSH20 0xFFFFFFFFFFFFFFFFFFFFFFFFFFFFFFFFFFFFFFFF AND PUSH20 0xFFFFFFFFFFFFFFFFFFFFFFFFFFFFFFFFFFFFFFFF AND DUP2 MSTORE PUSH1 0x20 ADD SWAP1 DUP2 MSTORE PUSH1 0x20 ADD PUSH1 0x0 KECCAK256 PUSH1 0x0 SWAP1 SLOAD SWAP1 PUSH2 0x100 EXP SWAP1 DIV PUSH1 0xFF AND PUSH2 0x473 JUMPI PUSH1 0x0 DUP1 REVERT JUMPDEST PUSH1 0x0 PUSH1 0x3 PUSH1 0x0 PUSH1 0x5 PUSH1 0x0 SWAP1 SLOAD SWAP1 PUSH2 0x100 EXP SWAP1 DIV PUSH2 0xFFFF AND PUSH2 0xFFFF AND PUSH2 0xFFFF AND DUP2 MSTORE PUSH1 0x20 ADD SWAP1 DUP2 MSTORE PUSH1 0x20 ADD PUSH1 0x0 KECCAK256 PUSH1 0x0 CALLER PUSH20 0xFFFFFFFFFFFFFFFFFFFFFFFFFFFFFFFFFFFFFFFF AND PUSH20 0xFFFFFFFFFFFFFFFFFFFFFFFFFFFFFFFFFFFFFFFF AND DUP2 MSTORE PUSH1 0x20 ADD SWAP1 DUP2 MSTORE PUSH1 0x20 ADD PUSH1 0x0 KECCAK256 SLOAD EQ PUSH2 0x4E8 JUMPI PUSH1 0x0 DUP1 REVERT JUMPDEST DUP1 ISZERO PUSH2 0x57B JUMPI PUSH1 0x1 PUSH1 0x3 PUSH1 0x0 PUSH1 0x5 PUSH1 0x0 SWAP1 SLOAD SWAP1 PUSH2 0x100 EXP SWAP1 DIV PUSH2 0xFFFF AND PUSH2 0xFFFF AND PUSH2 0xFFFF AND DUP2 MSTORE PUSH1 0x20 ADD SWAP1 DUP2 MSTORE PUSH1 0x20 ADD PUSH1 0x0 KECCAK256 PUSH1 0x0 CALLER PUSH20 0xFFFFFFFFFFFFFFFFFFFFFFFFFFFFFFFFFFFFFFFF AND PUSH20 0xFFFFFFFFFFFFFFFFFFFFFFFFFFFFFFFFFFFFFFFF AND DUP2 MSTORE PUSH1 0x20 ADD SWAP1 DUP2 MSTORE PUSH1 0x20 ADD PUSH1 0x0 KECCAK256 DUP2 SWAP1 SSTORE POP PUSH1 0x1 PUSH1 0x6 PUSH1 0x0 DUP3 DUP3 SLOAD PUSH2 0x56F SWAP2 SWAP1 PUSH2 0xB68 JUMP JUMPDEST SWAP3 POP POP DUP2 SWAP1 SSTORE POP PUSH2 0x604 JUMP JUMPDEST PUSH1 0xA PUSH1 0x3 PUSH1 0x0 PUSH1 0x5 PUSH1 0x0 SWAP1 SLOAD SWAP1 PUSH2 0x100 EXP SWAP1 DIV PUSH2 0xFFFF AND PUSH2 0xFFFF AND PUSH2 0xFFFF AND DUP2 MSTORE PUSH1 0x20 ADD SWAP1 DUP2 MSTORE PUSH1 0x20 ADD PUSH1 0x0 KECCAK256 PUSH1 0x0 CALLER PUSH20 0xFFFFFFFFFFFFFFFFFFFFFFFFFFFFFFFFFFFFFFFF AND PUSH20 0xFFFFFFFFFFFFFFFFFFFFFFFFFFFFFFFFFFFFFFFF AND DUP2 MSTORE PUSH1 0x20 ADD SWAP1 DUP2 MSTORE PUSH1 0x20 ADD PUSH1 0x0 KECCAK256 DUP2 SWAP1 SSTORE POP PUSH1 0xA PUSH1 0x6 PUSH1 0x0 DUP3 DUP3 SLOAD PUSH2 0x5FC SWAP2 SWAP1 PUSH2 0xB68 JUMP JUMPDEST SWAP3 POP POP DUP2 SWAP1 SSTORE POP JUMPDEST PUSH1 0x1 PUSH1 0x5 DUP1 DUP3 DUP3 DUP3 SWAP1 SLOAD SWAP1 PUSH2 0x100 EXP SWAP1 DIV PUSH2 0xFFFF AND PUSH2 0x623 SWAP2 SWAP1 PUSH2 0xB30 JUMP JUMPDEST SWAP3 POP PUSH2 0x100 EXP DUP2 SLOAD DUP2 PUSH2 0xFFFF MUL NOT AND SWAP1 DUP4 PUSH2 0xFFFF AND MUL OR SWAP1 SSTORE POP POP JUMP JUMPDEST PUSH1 0x0 DUP1 SLOAD SWAP1 PUSH2 0x100 EXP SWAP1 DIV PUSH20 0xFFFFFFFFFFFFFFFFFFFFFFFFFFFFFFFFFFFFFFFF AND PUSH20 0xFFFFFFFFFFFFFFFFFFFFFFFFFFFFFFFFFFFFFFFF AND CALLER PUSH20 0xFFFFFFFFFFFFFFFFFFFFFFFFFFFFFFFFFFFFFFFF AND EQ PUSH2 0x698 JUMPI PUSH1 0x0 DUP1 REVERT JUMPDEST DUP1 PUSH1 0x1 PUSH1 0x0 PUSH2 0x100 EXP DUP2 SLOAD DUP2 PUSH20 0xFFFFFFFFFFFFFFFFFFFFFFFFFFFFFFFFFFFFFFFF MUL NOT AND SWAP1 DUP4 PUSH20 0xFFFFFFFFFFFFFFFFFFFFFFFFFFFFFFFFFFFFFFFF AND MUL OR SWAP1 SSTORE POP POP JUMP JUMPDEST PUSH1 0x0 PUSH1 0x5 DUP1 SLOAD SWAP1 PUSH2 0x100 EXP SWAP1 DIV PUSH2 0xFFFF AND PUSH2 0xFFFF AND SWAP1 POP SWAP1 JUMP JUMPDEST PUSH1 0x4 DUP1 SLOAD PUSH2 0x703 SWAP1 PUSH2 0xC54 JUMP JUMPDEST DUP1 PUSH1 0x1F ADD PUSH1 0x20 DUP1 SWAP2 DIV MUL PUSH1 0x20 ADD PUSH1 0x40 MLOAD SWAP1 DUP2 ADD PUSH1 0x40 MSTORE DUP1 SWAP3 SWAP2 SWAP1 DUP2 DUP2 MSTORE PUSH1 0x20 ADD DUP3 DUP1 SLOAD PUSH2 0x72F SWAP1 PUSH2 0xC54 JUMP JUMPDEST DUP1 ISZERO PUSH2 0x77C JUMPI DUP1 PUSH1 0x1F LT PUSH2 0x751 JUMPI PUSH2 0x100 DUP1 DUP4 SLOAD DIV MUL DUP4 MSTORE SWAP2 PUSH1 0x20 ADD SWAP2 PUSH2 0x77C JUMP JUMPDEST DUP3 ADD SWAP2 SWAP1 PUSH1 0x0 MSTORE PUSH1 0x20 PUSH1 0x0 KECCAK256 SWAP1 JUMPDEST DUP2 SLOAD DUP2 MSTORE SWAP1 PUSH1 0x1 ADD SWAP1 PUSH1 0x20 ADD DUP1 DUP4 GT PUSH2 0x75F JUMPI DUP3 SWAP1 SUB PUSH1 0x1F AND DUP3 ADD SWAP2 JUMPDEST POP POP POP POP POP DUP2 JUMP JUMPDEST PUSH1 0x0 DUP1 SLOAD SWAP1 PUSH2 0x100 EXP SWAP1 DIV PUSH20 0xFFFFFFFFFFFFFFFFFFFFFFFFFFFFFFFFFFFFFFFF AND PUSH20 0xFFFFFFFFFFFFFFFFFFFFFFFFFFFFFFFFFFFFFFFF AND CALLER PUSH20 0xFFFFFFFFFFFFFFFFFFFFFFFFFFFFFFFFFFFFFFFF AND EQ PUSH2 0x7DC JUMPI PUSH1 0x0 DUP1 REVERT JUMPDEST PUSH1 0x0 PUSH1 0x5 PUSH1 0x2 SWAP1 SLOAD SWAP1 PUSH2 0x100 EXP SWAP1 DIV PUSH1 0xFF AND PUSH1 0xFF AND EQ ISZERO PUSH2 0x7FC JUMPI PUSH1 0x0 DUP1 REVERT JUMPDEST PUSH1 0x0 PUSH1 0x5 PUSH1 0x2 PUSH2 0x100 EXP DUP2 SLOAD DUP2 PUSH1 0xFF MUL NOT AND SWAP1 DUP4 PUSH1 0xFF AND MUL OR SWAP1 SSTORE POP PUSH1 0x1 PUSH1 0x5 PUSH1 0x0 SWAP1 SLOAD SWAP1 PUSH2 0x100 EXP SWAP1 DIV PUSH2 0xFFFF AND PUSH2 0x835 SWAP2 SWAP1 PUSH2 0xB30 JUMP JUMPDEST PUSH1 0x5 PUSH1 0x0 PUSH2 0x100 EXP DUP2 SLOAD DUP2 PUSH2 0xFFFF MUL NOT AND SWAP1 DUP4 PUSH2 0xFFFF AND MUL OR SWAP1 SSTORE POP JUMP JUMPDEST PUSH1 0x0 PUSH1 0x6 SLOAD SWAP1 POP SWAP1 JUMP JUMPDEST PUSH1 0x1 PUSH1 0x0 SWAP1 SLOAD SWAP1 PUSH2 0x100 EXP SWAP1 DIV PUSH20 0xFFFFFFFFFFFFFFFFFFFFFFFFFFFFFFFFFFFFFFFF AND PUSH20 0xFFFFFFFFFFFFFFFFFFFFFFFFFFFFFFFFFFFFFFFF AND CALLER PUSH20 0xFFFFFFFFFFFFFFFFFFFFFFFFFFFFFFFFFFFFFFFF AND EQ PUSH2 0x8B7 JUMPI PUSH1 0x0 DUP1 REVERT JUMPDEST DUP1 PUSH1 0x0 PUSH20 0xFFFFFFFFFFFFFFFFFFFFFFFFFFFFFFFFFFFFFFFF AND DUP2 PUSH20 0xFFFFFFFFFFFFFFFFFFFFFFFFFFFFFFFFFFFFFFFF AND EQ ISZERO PUSH2 0x8F2 JUMPI PUSH1 0x0 DUP1 REVERT JUMPDEST PUSH1 0x1 PUSH1 0x5 PUSH1 0x3 SWAP1 SLOAD SWAP1 PUSH2 0x100 EXP SWAP1 DIV PUSH2 0xFFFF AND PUSH2 0x90F SWAP2 SWAP1 PUSH2 0xB30 JUMP JUMPDEST PUSH1 0x5 PUSH1 0x3 PUSH2 0x100 EXP DUP2 SLOAD DUP2 PUSH2 0xFFFF MUL NOT AND SWAP1 DUP4 PUSH2 0xFFFF AND MUL OR SWAP1 SSTORE POP PUSH1 0x1 PUSH1 0x2 PUSH1 0x0 DUP5 PUSH20 0xFFFFFFFFFFFFFFFFFFFFFFFFFFFFFFFFFFFFFFFF AND PUSH20 0xFFFFFFFFFFFFFFFFFFFFFFFFFFFFFFFFFFFFFFFF AND DUP2 MSTORE PUSH1 0x20 ADD SWAP1 DUP2 MSTORE PUSH1 0x20 ADD PUSH1 0x0 KECCAK256 PUSH1 0x0 PUSH2 0x100 EXP DUP2 SLOAD DUP2 PUSH1 0xFF MUL NOT AND SWAP1 DUP4 ISZERO ISZERO MUL OR SWAP1 SSTORE POP POP POP JUMP JUMPDEST PUSH1 0x0 DUP2 CALLDATALOAD SWAP1 POP PUSH2 0x996 DUP2 PUSH2 0xCFA JUMP JUMPDEST SWAP3 SWAP2 POP POP JUMP JUMPDEST PUSH1 0x0 DUP2 CALLDATALOAD SWAP1 POP PUSH2 0x9AB DUP2 PUSH2 0xD11 JUMP JUMPDEST SWAP3 SWAP2 POP POP JUMP JUMPDEST PUSH1 0x0 DUP2 CALLDATALOAD SWAP1 POP PUSH2 0x9C0 DUP2 PUSH2 0xD28 JUMP JUMPDEST SWAP3 SWAP2 POP POP JUMP JUMPDEST PUSH1 0x0 DUP2 CALLDATALOAD SWAP1 POP PUSH2 0x9D5 DUP2 PUSH2 0xD3F JUMP JUMPDEST SWAP3 SWAP2 POP POP JUMP JUMPDEST PUSH1 0x0 PUSH1 0x20 DUP3 DUP5 SUB SLT ISZERO PUSH2 0x9F1 JUMPI PUSH2 0x9F0 PUSH2 0xCE4 JUMP JUMPDEST JUMPDEST PUSH1 0x0 PUSH2 0x9FF DUP5 DUP3 DUP6 ADD PUSH2 0x987 JUMP JUMPDEST SWAP2 POP POP SWAP3 SWAP2 POP POP JUMP JUMPDEST PUSH1 0x0 PUSH1 0x20 DUP3 DUP5 SUB SLT ISZERO PUSH2 0xA1E JUMPI PUSH2 0xA1D PUSH2 0xCE4 JUMP JUMPDEST JUMPDEST PUSH1 0x0 PUSH2 0xA2C DUP5 DUP3 DUP6 ADD PUSH2 0x99C JUMP JUMPDEST SWAP2 POP POP SWAP3 SWAP2 POP POP JUMP JUMPDEST PUSH1 0x0 PUSH1 0x20 DUP3 DUP5 SUB SLT ISZERO PUSH2 0xA4B JUMPI PUSH2 0xA4A PUSH2 0xCE4 JUMP JUMPDEST JUMPDEST PUSH1 0x0 PUSH2 0xA59 DUP5 DUP3 DUP6 ADD PUSH2 0x9B1 JUMP JUMPDEST SWAP2 POP POP SWAP3 SWAP2 POP POP JUMP JUMPDEST PUSH1 0x0 PUSH1 0x20 DUP3 DUP5 SUB SLT ISZERO PUSH2 0xA78 JUMPI PUSH2 0xA77 PUSH2 0xCE4 JUMP JUMPDEST JUMPDEST PUSH1 0x0 PUSH2 0xA86 DUP5 DUP3 DUP6 ADD PUSH2 0x9C6 JUMP JUMPDEST SWAP2 POP POP SWAP3 SWAP2 POP POP JUMP JUMPDEST PUSH1 0x0 PUSH2 0xA9A DUP3 PUSH2 0xB14 JUMP JUMPDEST PUSH2 0xAA4 DUP2 DUP6 PUSH2 0xB1F JUMP JUMPDEST SWAP4 POP PUSH2 0xAB4 DUP2 DUP6 PUSH1 0x20 DUP7 ADD PUSH2 0xC21 JUMP JUMPDEST PUSH2 0xABD DUP2 PUSH2 0xCE9 JUMP JUMPDEST DUP5 ADD SWAP2 POP POP SWAP3 SWAP2 POP POP JUMP JUMPDEST PUSH2 0xAD1 DUP2 PUSH2 0xC0A JUMP JUMPDEST DUP3 MSTORE POP POP JUMP JUMPDEST PUSH1 0x0 PUSH1 0x20 DUP3 ADD SWAP1 POP DUP2 DUP2 SUB PUSH1 0x0 DUP4 ADD MSTORE PUSH2 0xAF1 DUP2 DUP5 PUSH2 0xA8F JUMP JUMPDEST SWAP1 POP SWAP3 SWAP2 POP POP JUMP JUMPDEST PUSH1 0x0 PUSH1 0x20 DUP3 ADD SWAP1 POP PUSH2 0xB0E PUSH1 0x0 DUP4 ADD DUP5 PUSH2 0xAC8 JUMP JUMPDEST SWAP3 SWAP2 POP POP JUMP JUMPDEST PUSH1 0x0 DUP2 MLOAD SWAP1 POP SWAP2 SWAP1 POP JUMP JUMPDEST PUSH1 0x0 DUP3 DUP3 MSTORE PUSH1 0x20 DUP3 ADD SWAP1 POP SWAP3 SWAP2 POP POP JUMP JUMPDEST PUSH1 0x0 PUSH2 0xB3B DUP3 PUSH2 0xBDC JUMP JUMPDEST SWAP2 POP PUSH2 0xB46 DUP4 PUSH2 0xBDC JUMP JUMPDEST SWAP3 POP DUP3 PUSH2 0xFFFF SUB DUP3 GT ISZERO PUSH2 0xB5D JUMPI PUSH2 0xB5C PUSH2 0xC86 JUMP JUMPDEST JUMPDEST DUP3 DUP3 ADD SWAP1 POP SWAP3 SWAP2 POP POP JUMP JUMPDEST PUSH1 0x0 PUSH2 0xB73 DUP3 PUSH2 0xC0A JUMP JUMPDEST SWAP2 POP PUSH2 0xB7E DUP4 PUSH2 0xC0A JUMP JUMPDEST SWAP3 POP DUP3 PUSH32 0xFFFFFFFFFFFFFFFFFFFFFFFFFFFFFFFFFFFFFFFFFFFFFFFFFFFFFFFFFFFFFFFF SUB DUP3 GT ISZERO PUSH2 0xBB3 JUMPI PUSH2 0xBB2 PUSH2 0xC86 JUMP JUMPDEST JUMPDEST DUP3 DUP3 ADD SWAP1 POP SWAP3 SWAP2 POP POP JUMP JUMPDEST PUSH1 0x0 PUSH2 0xBC9 DUP3 PUSH2 0xBEA JUMP JUMPDEST SWAP1 POP SWAP2 SWAP1 POP JUMP JUMPDEST PUSH1 0x0 DUP2 ISZERO ISZERO SWAP1 POP SWAP2 SWAP1 POP JUMP JUMPDEST PUSH1 0x0 PUSH2 0xFFFF DUP3 AND SWAP1 POP SWAP2 SWAP1 POP JUMP JUMPDEST PUSH1 0x0 PUSH20 0xFFFFFFFFFFFFFFFFFFFFFFFFFFFFFFFFFFFFFFFF DUP3 AND SWAP1 POP SWAP2 SWAP1 POP JUMP JUMPDEST PUSH1 0x0 DUP2 SWAP1 POP SWAP2 SWAP1 POP JUMP JUMPDEST PUSH1 0x0 PUSH1 0xFF DUP3 AND SWAP1 POP SWAP2 SWAP1 POP JUMP JUMPDEST PUSH1 0x0 JUMPDEST DUP4 DUP2 LT ISZERO PUSH2 0xC3F JUMPI DUP1 DUP3 ADD MLOAD DUP2 DUP5 ADD MSTORE PUSH1 0x20 DUP2 ADD SWAP1 POP PUSH2 0xC24 JUMP JUMPDEST DUP4 DUP2 GT ISZERO PUSH2 0xC4E JUMPI PUSH1 0x0 DUP5 DUP5 ADD MSTORE JUMPDEST POP POP POP POP JUMP JUMPDEST PUSH1 0x0 PUSH1 0x2 DUP3 DIV SWAP1 POP PUSH1 0x1 DUP3 AND DUP1 PUSH2 0xC6C JUMPI PUSH1 0x7F DUP3 AND SWAP2 POP JUMPDEST PUSH1 0x20 DUP3 LT DUP2 EQ ISZERO PUSH2 0xC80 JUMPI PUSH2 0xC7F PUSH2 0xCB5 JUMP JUMPDEST JUMPDEST POP SWAP2 SWAP1 POP JUMP JUMPDEST PUSH32 0x4E487B7100000000000000000000000000000000000000000000000000000000 PUSH1 0x0 MSTORE PUSH1 0x11 PUSH1 0x4 MSTORE PUSH1 0x24 PUSH1 0x0 REVERT JUMPDEST PUSH32 0x4E487B7100000000000000000000000000000000000000000000000000000000 PUSH1 0x0 MSTORE PUSH1 0x22 PUSH1 0x4 MSTORE PUSH1 0x24 PUSH1 0x0 REVERT JUMPDEST PUSH1 0x0 DUP1 REVERT JUMPDEST PUSH1 0x0 PUSH1 0x1F NOT PUSH1 0x1F DUP4 ADD AND SWAP1 POP SWAP2 SWAP1 POP JUMP JUMPDEST PUSH2 0xD03 DUP2 PUSH2 0xBBE JUMP JUMPDEST DUP2 EQ PUSH2 0xD0E JUMPI PUSH1 0x0 DUP1 REVERT JUMPDEST POP JUMP JUMPDEST PUSH2 0xD1A DUP2 PUSH2 0xBD0 JUMP JUMPDEST DUP2 EQ PUSH2 0xD25 JUMPI PUSH1 0x0 DUP1 REVERT JUMPDEST POP JUMP JUMPDEST PUSH2 0xD31 DUP2 PUSH2 0xC0A JUMP JUMPDEST DUP2 EQ PUSH2 0xD3C JUMPI PUSH1 0x0 DUP1 REVERT JUMPDEST POP JUMP JUMPDEST PUSH2 0xD48 DUP2 PUSH2 0xC14 JUMP JUMPDEST DUP2 EQ PUSH2 0xD53 JUMPI PUSH1 0x0 DUP1 REVERT JUMPDEST POP JUMP INVALID LOG2 PUSH5 0x6970667358 0x22 SLT KECCAK256 0xC 0xC6 ADDMOD PC CREATE2 DUP8 0xCD ORIGIN 0xDD POP 0xB6 SWAP16 0xAB 0xE4 ADDRESS ADDMOD DIV PUSH12 0xDAE242A0A2182E142DEB8BAC LOG3 0xBA PUSH5 0x736F6C6343 STOP ADDMOD SMOD STOP CALLER "
				},
				"gasEstimates": {
					"creation": {
						"codeDepositCost": "693600",
						"executionCost": "151485",
						"totalCost": "845085"
					},
					"external": {
						"changeKeyHolder(address)": "26956",
						"closeVoting()": "infinite",
						"getResult()": "2503",
						"getVoted()": "2526",
						"giveVotingPower(address)": "infinite",
						"openVoting(uint8)": "58468",
						"topic()": "infinite",
						"useVotePowerONE_TEN(uint256)": "infinite",
						"useVotePowerYesNo(bool)": "infinite"
					}
				},
				"methodIdentifiers": {
					"changeKeyHolder(address)": "a28b8d26",
					"closeVoting()": "c631b292",
					"getResult()": "de292789",
					"getVoted()": "a69799fc",
					"giveVotingPower(address)": "ea31a64c",
					"openVoting(uint8)": "54e82dfd",
					"topic()": "bf63a577",
					"useVotePowerONE_TEN(uint256)": "3ac65b66",
					"useVotePowerYesNo(bool)": "72bfc77b"
				}
			},
			"storageLayout": {
				"storage": [
					{
						"astId": 3,
						"contract": "contracts/Vote/Voter.sol:VoterContract",
						"label": "owner",
						"offset": 0,
						"slot": "0",
						"type": "t_address"
					},
					{
						"astId": 6,
						"contract": "contracts/Vote/Voter.sol:VoterContract",
						"label": "keyHolder",
						"offset": 0,
						"slot": "1",
						"type": "t_address"
					},
					{
						"astId": 10,
						"contract": "contracts/Vote/Voter.sol:VoterContract",
						"label": "VOTERS",
						"offset": 0,
						"slot": "2",
						"type": "t_mapping(t_address,t_bool)"
					},
					{
						"astId": 16,
						"contract": "contracts/Vote/Voter.sol:VoterContract",
						"label": "votePower",
						"offset": 0,
						"slot": "3",
						"type": "t_mapping(t_uint16,t_mapping(t_address,t_uint256))"
					},
					{
						"astId": 18,
						"contract": "contracts/Vote/Voter.sol:VoterContract",
						"label": "topic",
						"offset": 0,
						"slot": "4",
						"type": "t_string_storage"
					},
					{
						"astId": 21,
						"contract": "contracts/Vote/Voter.sol:VoterContract",
						"label": "voteId",
						"offset": 0,
						"slot": "5",
						"type": "t_uint16"
					},
					{
						"astId": 24,
						"contract": "contracts/Vote/Voter.sol:VoterContract",
						"label": "votingType",
						"offset": 2,
						"slot": "5",
						"type": "t_uint8"
					},
					{
						"astId": 27,
						"contract": "contracts/Vote/Voter.sol:VoterContract",
						"label": "totalVoterCount",
						"offset": 3,
						"slot": "5",
						"type": "t_uint16"
					},
					{
						"astId": 30,
						"contract": "contracts/Vote/Voter.sol:VoterContract",
						"label": "voted",
						"offset": 5,
						"slot": "5",
						"type": "t_uint16"
					},
					{
						"astId": 33,
						"contract": "contracts/Vote/Voter.sol:VoterContract",
						"label": "result",
						"offset": 0,
						"slot": "6",
						"type": "t_uint256"
					}
				],
				"types": {
					"t_address": {
						"encoding": "inplace",
						"label": "address",
						"numberOfBytes": "20"
					},
					"t_bool": {
						"encoding": "inplace",
						"label": "bool",
						"numberOfBytes": "1"
					},
					"t_mapping(t_address,t_bool)": {
						"encoding": "mapping",
						"key": "t_address",
						"label": "mapping(address => bool)",
						"numberOfBytes": "32",
						"value": "t_bool"
					},
					"t_mapping(t_address,t_uint256)": {
						"encoding": "mapping",
						"key": "t_address",
						"label": "mapping(address => uint256)",
						"numberOfBytes": "32",
						"value": "t_uint256"
					},
					"t_mapping(t_uint16,t_mapping(t_address,t_uint256))": {
						"encoding": "mapping",
						"key": "t_uint16",
						"label": "mapping(uint16 => mapping(address => uint256))",
						"numberOfBytes": "32",
						"value": "t_mapping(t_address,t_uint256)"
					},
					"t_string_storage": {
						"encoding": "bytes",
						"label": "string",
						"numberOfBytes": "32"
					},
					"t_uint16": {
						"encoding": "inplace",
						"label": "uint16",
						"numberOfBytes": "2"
					},
					"t_uint256": {
						"encoding": "inplace",
						"label": "uint256",
						"numberOfBytes": "32"
					},
					"t_uint8": {
						"encoding": "inplace",
						"label": "uint8",
						"numberOfBytes": "1"
					}
				}
			},
			"userdoc": {
				"kind": "user",
				"methods": {},
				"version": 1
			}
		}
	}
}