{
	"contracts/Vote/VoterContract.sol": {
		"VoterContract": {
			"abi": [
				{
					"anonymous": false,
					"inputs": [
						{
							"indexed": true,
							"internalType": "address",
							"name": "previousOwner",
							"type": "address"
						},
						{
							"indexed": true,
							"internalType": "address",
							"name": "newOwner",
							"type": "address"
						}
					],
					"name": "OwnershipTransferred",
					"type": "event"
				},
				{
					"anonymous": false,
					"inputs": [
						{
							"indexed": true,
							"internalType": "uint16",
							"name": "proposalId",
							"type": "uint16"
						},
						{
							"indexed": false,
							"internalType": "string",
							"name": "topic",
							"type": "string"
						},
						{
							"indexed": false,
							"internalType": "uint32",
							"name": "voted",
							"type": "uint32"
						},
						{
							"indexed": false,
							"internalType": "uint32",
							"name": "result",
							"type": "uint32"
						}
					],
					"name": "ProposalEnded",
					"type": "event"
				},
				{
					"anonymous": false,
					"inputs": [
						{
							"indexed": true,
							"internalType": "uint16",
							"name": "proposalId",
							"type": "uint16"
						},
						{
							"indexed": false,
							"internalType": "string",
							"name": "topic",
							"type": "string"
						}
					],
					"name": "ProposalStarted",
					"type": "event"
				},
				{
					"anonymous": false,
					"inputs": [
						{
							"indexed": true,
							"internalType": "uint16",
							"name": "voteId",
							"type": "uint16"
						},
						{
							"indexed": false,
							"internalType": "string",
							"name": "topic",
							"type": "string"
						},
						{
							"indexed": false,
							"internalType": "uint32",
							"name": "voted",
							"type": "uint32"
						},
						{
							"indexed": false,
							"internalType": "uint32",
							"name": "result",
							"type": "uint32"
						}
					],
					"name": "VotingEnded",
					"type": "event"
				},
				{
					"anonymous": false,
					"inputs": [
						{
							"indexed": true,
							"internalType": "uint16",
							"name": "voteId",
							"type": "uint16"
						},
						{
							"indexed": false,
							"internalType": "string",
							"name": "topic",
							"type": "string"
						}
					],
					"name": "VotingStarted",
					"type": "event"
				},
				{
					"inputs": [],
					"name": "amIVOTER",
					"outputs": [
						{
							"internalType": "bool",
							"name": "",
							"type": "bool"
						}
					],
					"stateMutability": "view",
					"type": "function"
				},
				{
					"inputs": [
						{
							"internalType": "uint16",
							"name": "id",
							"type": "uint16"
						}
					],
					"name": "closeProposal",
					"outputs": [],
					"stateMutability": "nonpayable",
					"type": "function"
				},
				{
					"inputs": [
						{
							"internalType": "uint16",
							"name": "id",
							"type": "uint16"
						}
					],
					"name": "closeVoting",
					"outputs": [],
					"stateMutability": "nonpayable",
					"type": "function"
				},
				{
					"inputs": [
						{
							"internalType": "uint16",
							"name": "skip",
							"type": "uint16"
						},
						{
							"internalType": "uint16",
							"name": "take",
							"type": "uint16"
						}
					],
					"name": "getProposals",
					"outputs": [
						{
							"components": [
								{
									"internalType": "uint16",
									"name": "id",
									"type": "uint16"
								},
								{
									"internalType": "string",
									"name": "topic",
									"type": "string"
								},
								{
									"internalType": "uint32",
									"name": "voted",
									"type": "uint32"
								},
								{
									"internalType": "uint32",
									"name": "result",
									"type": "uint32"
								},
								{
									"internalType": "address",
									"name": "proposer",
									"type": "address"
								},
								{
									"internalType": "uint256",
									"name": "blockNumberStarted",
									"type": "uint256"
								},
								{
									"internalType": "uint256",
									"name": "blockNumberWillNotEndBefore",
									"type": "uint256"
								},
								{
									"internalType": "uint256",
									"name": "blockNumberClosed",
									"type": "uint256"
								},
								{
									"internalType": "enum VoterContract.VotingType",
									"name": "proposalType",
									"type": "uint8"
								}
							],
							"internalType": "struct VoterContract.Proposal[]",
							"name": "",
							"type": "tuple[]"
						}
					],
					"stateMutability": "view",
					"type": "function"
				},
				{
					"inputs": [
						{
							"internalType": "uint8",
							"name": "skip",
							"type": "uint8"
						},
						{
							"internalType": "uint8",
							"name": "take",
							"type": "uint8"
						}
					],
					"name": "getVotings",
					"outputs": [
						{
							"components": [
								{
									"internalType": "uint16",
									"name": "id",
									"type": "uint16"
								},
								{
									"internalType": "string",
									"name": "topic",
									"type": "string"
								},
								{
									"internalType": "uint32",
									"name": "voted",
									"type": "uint32"
								},
								{
									"internalType": "uint32",
									"name": "result",
									"type": "uint32"
								},
								{
									"internalType": "address",
									"name": "proposer",
									"type": "address"
								},
								{
									"internalType": "uint256",
									"name": "blockNumberStarted",
									"type": "uint256"
								},
								{
									"internalType": "uint256",
									"name": "blockNumberWillNotEndBefore",
									"type": "uint256"
								},
								{
									"internalType": "uint256",
									"name": "blockNumberClosed",
									"type": "uint256"
								},
								{
									"internalType": "enum VoterContract.VotingType",
									"name": "votingType",
									"type": "uint8"
								}
							],
							"internalType": "struct VoterContract.Voting[]",
							"name": "",
							"type": "tuple[]"
						}
					],
					"stateMutability": "view",
					"type": "function"
				},
				{
					"inputs": [
						{
							"internalType": "address",
							"name": "voterAddress",
							"type": "address"
						}
					],
					"name": "giveVotingPower",
					"outputs": [],
					"stateMutability": "nonpayable",
					"type": "function"
				},
				{
					"inputs": [],
					"name": "keyHolder",
					"outputs": [
						{
							"internalType": "address",
							"name": "",
							"type": "address"
						}
					],
					"stateMutability": "view",
					"type": "function"
				},
				{
					"inputs": [
						{
							"internalType": "enum VoterContract.VotingType",
							"name": "_proposalType",
							"type": "uint8"
						},
						{
							"internalType": "string",
							"name": "_topic",
							"type": "string"
						}
					],
					"name": "openProposal",
					"outputs": [],
					"stateMutability": "nonpayable",
					"type": "function"
				},
				{
					"inputs": [],
					"name": "owner",
					"outputs": [
						{
							"internalType": "address",
							"name": "",
							"type": "address"
						}
					],
					"stateMutability": "view",
					"type": "function"
				},
				{
					"inputs": [],
					"name": "proposalId",
					"outputs": [
						{
							"internalType": "uint16",
							"name": "",
							"type": "uint16"
						}
					],
					"stateMutability": "view",
					"type": "function"
				},
				{
					"inputs": [
						{
							"internalType": "uint16",
							"name": "",
							"type": "uint16"
						}
					],
					"name": "proposals",
					"outputs": [
						{
							"internalType": "uint16",
							"name": "id",
							"type": "uint16"
						},
						{
							"internalType": "string",
							"name": "topic",
							"type": "string"
						},
						{
							"internalType": "uint32",
							"name": "voted",
							"type": "uint32"
						},
						{
							"internalType": "uint32",
							"name": "result",
							"type": "uint32"
						},
						{
							"internalType": "address",
							"name": "proposer",
							"type": "address"
						},
						{
							"internalType": "uint256",
							"name": "blockNumberStarted",
							"type": "uint256"
						},
						{
							"internalType": "uint256",
							"name": "blockNumberWillNotEndBefore",
							"type": "uint256"
						},
						{
							"internalType": "uint256",
							"name": "blockNumberClosed",
							"type": "uint256"
						},
						{
							"internalType": "enum VoterContract.VotingType",
							"name": "proposalType",
							"type": "uint8"
						}
					],
					"stateMutability": "view",
					"type": "function"
				},
				{
					"inputs": [],
					"name": "renounceOwnership",
					"outputs": [],
					"stateMutability": "nonpayable",
					"type": "function"
				},
				{
					"inputs": [
						{
							"internalType": "address",
							"name": "adr",
							"type": "address"
						}
					],
					"name": "setKeyHolderAddress",
					"outputs": [],
					"stateMutability": "nonpayable",
					"type": "function"
				},
				{
					"inputs": [],
					"name": "totalVoterCount",
					"outputs": [
						{
							"internalType": "uint16",
							"name": "",
							"type": "uint16"
						}
					],
					"stateMutability": "view",
					"type": "function"
				},
				{
					"inputs": [
						{
							"internalType": "address",
							"name": "newOwner",
							"type": "address"
						}
					],
					"name": "transferOwnership",
					"outputs": [],
					"stateMutability": "nonpayable",
					"type": "function"
				},
				{
					"inputs": [
						{
							"internalType": "uint16",
							"name": "id",
							"type": "uint16"
						},
						{
							"internalType": "uint8",
							"name": "vote",
							"type": "uint8"
						}
					],
					"name": "useVotePowerOne2Ten",
					"outputs": [],
					"stateMutability": "nonpayable",
					"type": "function"
				},
				{
					"inputs": [
						{
							"internalType": "uint16",
							"name": "id",
							"type": "uint16"
						},
						{
							"internalType": "uint8",
							"name": "vote",
							"type": "uint8"
						}
					],
					"name": "useVotePowerProposalOne2Ten",
					"outputs": [],
					"stateMutability": "nonpayable",
					"type": "function"
				},
				{
					"inputs": [
						{
							"internalType": "uint16",
							"name": "id",
							"type": "uint16"
						},
						{
							"internalType": "enum VoterContract.NoYes",
							"name": "vote",
							"type": "uint8"
						}
					],
					"name": "useVotePowerProposalYesNo",
					"outputs": [],
					"stateMutability": "nonpayable",
					"type": "function"
				},
				{
					"inputs": [
						{
							"internalType": "uint16",
							"name": "id",
							"type": "uint16"
						},
						{
							"internalType": "enum VoterContract.NoYes",
							"name": "vote",
							"type": "uint8"
						}
					],
					"name": "useVotePowerYesNo",
					"outputs": [],
					"stateMutability": "nonpayable",
					"type": "function"
				},
				{
					"inputs": [],
					"name": "voteId",
					"outputs": [
						{
							"internalType": "uint16",
							"name": "",
							"type": "uint16"
						}
					],
					"stateMutability": "view",
					"type": "function"
				},
				{
					"inputs": [
						{
							"internalType": "uint16",
							"name": "",
							"type": "uint16"
						}
					],
					"name": "votings",
					"outputs": [
						{
							"internalType": "uint16",
							"name": "id",
							"type": "uint16"
						},
						{
							"internalType": "string",
							"name": "topic",
							"type": "string"
						},
						{
							"internalType": "uint32",
							"name": "voted",
							"type": "uint32"
						},
						{
							"internalType": "uint32",
							"name": "result",
							"type": "uint32"
						},
						{
							"internalType": "address",
							"name": "proposer",
							"type": "address"
						},
						{
							"internalType": "uint256",
							"name": "blockNumberStarted",
							"type": "uint256"
						},
						{
							"internalType": "uint256",
							"name": "blockNumberWillNotEndBefore",
							"type": "uint256"
						},
						{
							"internalType": "uint256",
							"name": "blockNumberClosed",
							"type": "uint256"
						},
						{
							"internalType": "enum VoterContract.VotingType",
							"name": "votingType",
							"type": "uint8"
						}
					],
					"stateMutability": "view",
					"type": "function"
				},
				{
					"inputs": [
						{
							"internalType": "uint16[]",
							"name": "idList",
							"type": "uint16[]"
						}
					],
					"name": "whatDidIVote",
					"outputs": [
						{
							"internalType": "uint8[]",
							"name": "",
							"type": "uint8[]"
						}
					],
					"stateMutability": "view",
					"type": "function"
				},
				{
					"inputs": [
						{
							"internalType": "uint16[]",
							"name": "idList",
							"type": "uint16[]"
						}
					],
					"name": "whatDidIVoteForProposals",
					"outputs": [
						{
							"internalType": "uint8[]",
							"name": "",
							"type": "uint8[]"
						}
					],
					"stateMutability": "view",
					"type": "function"
				}
			],
			"devdoc": {
				"kind": "dev",
				"methods": {
					"owner()": {
						"details": "Returns the address of the current owner."
					},
					"renounceOwnership()": {
						"details": "Leaves the contract without owner. It will not be possible to call `onlyOwner` functions. Can only be called by the current owner. NOTE: Renouncing ownership will leave the contract without an owner, thereby disabling any functionality that is only available to the owner."
					},
					"transferOwnership(address)": {
						"details": "Transfers ownership of the contract to a new account (`newOwner`). Can only be called by the current owner."
					}
				},
				"version": 1
			},
			"evm": {
				"assembly": "    /* \"contracts/Vote/VoterContract.sol\":120:10287  contract VoterContract is Ownable{\r... */\n  mstore(0x40, 0x80)\n    /* \"contracts/Vote/VoterContract.sol\":1644:1645  0 */\n  0x00\n    /* \"contracts/Vote/VoterContract.sol\":1621:1645  uint16 public voteId = 0 */\n  0x07\n  exp(0x0100, 0x00)\n  dup2\n  sload\n  dup2\n  0xffff\n  mul\n  not\n  and\n  swap1\n  dup4\n  0xffff\n  and\n  mul\n  or\n  swap1\n  sstore\n  pop\n    /* \"contracts/Vote/VoterContract.sol\":1679:1680  0 */\n  0x00\n    /* \"contracts/Vote/VoterContract.sol\":1652:1680  uint16 public proposalId = 0 */\n  0x07\n  exp(0x0100, 0x02)\n  dup2\n  sload\n  dup2\n  0xffff\n  mul\n  not\n  and\n  swap1\n  dup4\n  0xffff\n  and\n  mul\n  or\n  swap1\n  sstore\n  pop\n    /* \"contracts/Vote/VoterContract.sol\":1722:1723  0 */\n  0x00\n    /* \"contracts/Vote/VoterContract.sol\":1689:1723  uint16 public  totalVoterCount = 0 */\n  0x07\n  exp(0x0100, 0x04)\n  dup2\n  sload\n  dup2\n  0xffff\n  mul\n  not\n  and\n  swap1\n  dup4\n  0xffff\n  and\n  mul\n  or\n  swap1\n  sstore\n  pop\n    /* \"contracts/Vote/VoterContract.sol\":120:10287  contract VoterContract is Ownable{\r... */\n  callvalue\n  dup1\n  iszero\n  tag_1\n  jumpi\n  0x00\n  dup1\n  revert\ntag_1:\n  pop\n    /* \"@openzeppelin/contracts/access/Ownable.sol\":936:968  _transferOwnership(_msgSender()) */\n  tag_4\n    /* \"@openzeppelin/contracts/access/Ownable.sol\":955:967  _msgSender() */\n  tag_5\n    /* \"@openzeppelin/contracts/access/Ownable.sol\":955:965  _msgSender */\n  shl(0x20, tag_6)\n    /* \"@openzeppelin/contracts/access/Ownable.sol\":955:967  _msgSender() */\n  0x20\n  shr\n  jump\t// in\ntag_5:\n    /* \"@openzeppelin/contracts/access/Ownable.sol\":936:954  _transferOwnership */\n  shl(0x20, tag_7)\n    /* \"@openzeppelin/contracts/access/Ownable.sol\":936:968  _transferOwnership(_msgSender()) */\n  0x20\n  shr\n  jump\t// in\ntag_4:\n    /* \"contracts/Vote/VoterContract.sol\":120:10287  contract VoterContract is Ownable{\r... */\n  jump(tag_8)\n    /* \"@openzeppelin/contracts/utils/Context.sol\":640:736  function _msgSender() internal view virtual returns (address) {... */\ntag_6:\n    /* \"@openzeppelin/contracts/utils/Context.sol\":693:700  address */\n  0x00\n    /* \"@openzeppelin/contracts/utils/Context.sol\":719:729  msg.sender */\n  caller\n    /* \"@openzeppelin/contracts/utils/Context.sol\":712:729  return msg.sender */\n  swap1\n  pop\n    /* \"@openzeppelin/contracts/utils/Context.sol\":640:736  function _msgSender() internal view virtual returns (address) {... */\n  swap1\n  jump\t// out\n    /* \"@openzeppelin/contracts/access/Ownable.sol\":2426:2613  function _transferOwnership(address newOwner) internal virtual {... */\ntag_7:\n    /* \"@openzeppelin/contracts/access/Ownable.sol\":2499:2515  address oldOwner */\n  0x00\n    /* \"@openzeppelin/contracts/access/Ownable.sol\":2518:2524  _owner */\n  dup1\n  0x00\n  swap1\n  sload\n  swap1\n  0x0100\n  exp\n  swap1\n  div\n  0xffffffffffffffffffffffffffffffffffffffff\n  and\n    /* \"@openzeppelin/contracts/access/Ownable.sol\":2499:2524  address oldOwner = _owner */\n  swap1\n  pop\n    /* \"@openzeppelin/contracts/access/Ownable.sol\":2543:2551  newOwner */\n  dup2\n    /* \"@openzeppelin/contracts/access/Ownable.sol\":2534:2540  _owner */\n  0x00\n  dup1\n    /* \"@openzeppelin/contracts/access/Ownable.sol\":2534:2551  _owner = newOwner */\n  0x0100\n  exp\n  dup2\n  sload\n  dup2\n  0xffffffffffffffffffffffffffffffffffffffff\n  mul\n  not\n  and\n  swap1\n  dup4\n  0xffffffffffffffffffffffffffffffffffffffff\n  and\n  mul\n  or\n  swap1\n  sstore\n  pop\n    /* \"@openzeppelin/contracts/access/Ownable.sol\":2597:2605  newOwner */\n  dup2\n    /* \"@openzeppelin/contracts/access/Ownable.sol\":2566:2606  OwnershipTransferred(oldOwner, newOwner) */\n  0xffffffffffffffffffffffffffffffffffffffff\n  and\n    /* \"@openzeppelin/contracts/access/Ownable.sol\":2587:2595  oldOwner */\n  dup2\n    /* \"@openzeppelin/contracts/access/Ownable.sol\":2566:2606  OwnershipTransferred(oldOwner, newOwner) */\n  0xffffffffffffffffffffffffffffffffffffffff\n  and\n  0x8be0079c531659141344cd1fd0a4f28419497f9722a3daafe3b4186f6b6457e0\n  mload(0x40)\n  mload(0x40)\n  dup1\n  swap2\n  sub\n  swap1\n  log3\n    /* \"@openzeppelin/contracts/access/Ownable.sol\":2489:2613  {... */\n  pop\n    /* \"@openzeppelin/contracts/access/Ownable.sol\":2426:2613  function _transferOwnership(address newOwner) internal virtual {... */\n  pop\n  jump\t// out\n    /* \"contracts/Vote/VoterContract.sol\":120:10287  contract VoterContract is Ownable{\r... */\ntag_8:\n  dataSize(sub_0)\n  dup1\n  dataOffset(sub_0)\n  0x00\n  codecopy\n  0x00\n  return\nstop\n\nsub_0: assembly {\n        /* \"contracts/Vote/VoterContract.sol\":120:10287  contract VoterContract is Ownable{\r... */\n      mstore(0x40, 0x80)\n      callvalue\n      dup1\n      iszero\n      tag_1\n      jumpi\n      0x00\n      dup1\n      revert\n    tag_1:\n      pop\n      jumpi(tag_2, lt(calldatasize, 0x04))\n      shr(0xe0, calldataload(0x00))\n      dup1\n      0x985224d6\n      gt\n      tag_26\n      jumpi\n      dup1\n      0xde513e3d\n      gt\n      tag_27\n      jumpi\n      dup1\n      0xde513e3d\n      eq\n      tag_20\n      jumpi\n      dup1\n      0xea31a64c\n      eq\n      tag_21\n      jumpi\n      dup1\n      0xf2fde38b\n      eq\n      tag_22\n      jumpi\n      dup1\n      0xfae04215\n      eq\n      tag_23\n      jumpi\n      dup1\n      0xfbb39651\n      eq\n      tag_24\n      jumpi\n      dup1\n      0xfce96911\n      eq\n      tag_25\n      jumpi\n      jump(tag_2)\n    tag_27:\n      dup1\n      0x985224d6\n      eq\n      tag_14\n      jumpi\n      dup1\n      0x9ea061c9\n      eq\n      tag_15\n      jumpi\n      dup1\n      0xbf2aba79\n      eq\n      tag_16\n      jumpi\n      dup1\n      0xc497efa3\n      eq\n      tag_17\n      jumpi\n      dup1\n      0xcf5ebb38\n      eq\n      tag_18\n      jumpi\n      dup1\n      0xddd2d1fd\n      eq\n      tag_19\n      jumpi\n      jump(tag_2)\n    tag_26:\n      dup1\n      0x45e641d0\n      gt\n      tag_28\n      jumpi\n      dup1\n      0x45e641d0\n      eq\n      tag_8\n      jumpi\n      dup1\n      0x481aa215\n      eq\n      tag_9\n      jumpi\n      dup1\n      0x4d313bb8\n      eq\n      tag_10\n      jumpi\n      dup1\n      0x6f71e065\n      eq\n      tag_11\n      jumpi\n      dup1\n      0x715018a6\n      eq\n      tag_12\n      jumpi\n      dup1\n      0x8da5cb5b\n      eq\n      tag_13\n      jumpi\n      jump(tag_2)\n    tag_28:\n      dup1\n      0x04f397cf\n      eq\n      tag_3\n      jumpi\n      dup1\n      0x156c2da6\n      eq\n      tag_4\n      jumpi\n      dup1\n      0x1ffc5042\n      eq\n      tag_5\n      jumpi\n      dup1\n      0x2dfca445\n      eq\n      tag_6\n      jumpi\n      dup1\n      0x393a97ef\n      eq\n      tag_7\n      jumpi\n    tag_2:\n      0x00\n      dup1\n      revert\n        /* \"contracts/Vote/VoterContract.sol\":10189:10284  function amIVOTER() external view returns(bool){\r... */\n    tag_3:\n      tag_29\n      tag_30\n      jump\t// in\n    tag_29:\n      mload(0x40)\n      tag_31\n      swap2\n      swap1\n      tag_32\n      jump\t// in\n    tag_31:\n      mload(0x40)\n      dup1\n      swap2\n      sub\n      swap1\n      return\n        /* \"contracts/Vote/VoterContract.sol\":4725:4971  function closeVoting(uint16 id) public isVotingContinuing(id) onlyVoters(msg.sender) {\r... */\n    tag_4:\n      tag_33\n      0x04\n      dup1\n      calldatasize\n      sub\n      dup2\n      add\n      swap1\n      tag_34\n      swap2\n      swap1\n      tag_35\n      jump\t// in\n    tag_34:\n      tag_36\n      jump\t// in\n    tag_33:\n      stop\n        /* \"contracts/Vote/VoterContract.sol\":3663:4456  function openProposal(VotingType _proposalType ,string calldata _topic) public noEmptyString(_topic) onlyVoters(msg.sender){\r... */\n    tag_5:\n      tag_37\n      0x04\n      dup1\n      calldatasize\n      sub\n      dup2\n      add\n      swap1\n      tag_38\n      swap2\n      swap1\n      tag_39\n      jump\t// in\n    tag_38:\n      tag_40\n      jump\t// in\n    tag_37:\n      stop\n        /* \"contracts/Vote/VoterContract.sol\":1652:1680  uint16 public proposalId = 0 */\n    tag_6:\n      tag_41\n      tag_42\n      jump\t// in\n    tag_41:\n      mload(0x40)\n      tag_43\n      swap2\n      swap1\n      tag_44\n      jump\t// in\n    tag_43:\n      mload(0x40)\n      dup1\n      swap2\n      sub\n      swap1\n      return\n        /* \"contracts/Vote/VoterContract.sol\":8919:9557  function getProposals(uint16 skip, uint16 take) external view returns(Proposal[] memory){\r... */\n    tag_7:\n      tag_45\n      0x04\n      dup1\n      calldatasize\n      sub\n      dup2\n      add\n      swap1\n      tag_46\n      swap2\n      swap1\n      tag_47\n      jump\t// in\n    tag_46:\n      tag_48\n      jump\t// in\n    tag_45:\n      mload(0x40)\n      tag_49\n      swap2\n      swap1\n      tag_50\n      jump\t// in\n    tag_49:\n      mload(0x40)\n      dup1\n      swap2\n      sub\n      swap1\n      return\n        /* \"contracts/Vote/VoterContract.sol\":162:186  address public keyHolder */\n    tag_8:\n      tag_51\n      tag_52\n      jump\t// in\n    tag_51:\n      mload(0x40)\n      tag_53\n      swap2\n      swap1\n      tag_54\n      jump\t// in\n    tag_53:\n      mload(0x40)\n      dup1\n      swap2\n      sub\n      swap1\n      return\n        /* \"contracts/Vote/VoterContract.sol\":6421:6895  function useVotePowerYesNo(uint16 id,NoYes vote) external isVotingContinuing(id) onlyNotVotedVoters(id){\r... */\n    tag_9:\n      tag_55\n      0x04\n      dup1\n      calldatasize\n      sub\n      dup2\n      add\n      swap1\n      tag_56\n      swap2\n      swap1\n      tag_57\n      jump\t// in\n    tag_56:\n      tag_58\n      jump\t// in\n    tag_55:\n      stop\n        /* \"contracts/Vote/VoterContract.sol\":6907:7312  function useVotePowerOne2Ten(uint16 id,uint8 vote) external isVotingContinuing(id) onlyNotVotedVoters(id){\r... */\n    tag_10:\n      tag_59\n      0x04\n      dup1\n      calldatasize\n      sub\n      dup2\n      add\n      swap1\n      tag_60\n      swap2\n      swap1\n      tag_61\n      jump\t// in\n    tag_60:\n      tag_62\n      jump\t// in\n    tag_59:\n      stop\n        /* \"contracts/Vote/VoterContract.sol\":1689:1723  uint16 public  totalVoterCount = 0 */\n    tag_11:\n      tag_63\n      tag_64\n      jump\t// in\n    tag_63:\n      mload(0x40)\n      tag_65\n      swap2\n      swap1\n      tag_44\n      jump\t// in\n    tag_65:\n      mload(0x40)\n      dup1\n      swap2\n      sub\n      swap1\n      return\n        /* \"@openzeppelin/contracts/access/Ownable.sol\":1824:1925  function renounceOwnership() public virtual onlyOwner {... */\n    tag_12:\n      tag_66\n      tag_67\n      jump\t// in\n    tag_66:\n      stop\n        /* \"@openzeppelin/contracts/access/Ownable.sol\":1201:1286  function owner() public view virtual returns (address) {... */\n    tag_13:\n      tag_68\n      tag_69\n      jump\t// in\n    tag_68:\n      mload(0x40)\n      tag_70\n      swap2\n      swap1\n      tag_54\n      jump\t// in\n    tag_70:\n      mload(0x40)\n      dup1\n      swap2\n      sub\n      swap1\n      return\n        /* \"contracts/Vote/VoterContract.sol\":9867:10181  function whatDidIVoteForProposals(uint16[] memory idList) external view returns(uint8[] memory){\r... */\n    tag_14:\n      tag_71\n      0x04\n      dup1\n      calldatasize\n      sub\n      dup2\n      add\n      swap1\n      tag_72\n      swap2\n      swap1\n      tag_73\n      jump\t// in\n    tag_72:\n      tag_74\n      jump\t// in\n    tag_71:\n      mload(0x40)\n      tag_75\n      swap2\n      swap1\n      tag_76\n      jump\t// in\n    tag_75:\n      mload(0x40)\n      dup1\n      swap2\n      sub\n      swap1\n      return\n        /* \"contracts/Vote/VoterContract.sol\":7851:8303  function useVotePowerProposalOne2Ten(uint16 id,uint8 vote) external isProposalContinuing(id) onlyNotVotedVotersForProposal(id){\r... */\n    tag_15:\n      tag_77\n      0x04\n      dup1\n      calldatasize\n      sub\n      dup2\n      add\n      swap1\n      tag_78\n      swap2\n      swap1\n      tag_61\n      jump\t// in\n    tag_78:\n      tag_79\n      jump\t// in\n    tag_77:\n      stop\n        /* \"contracts/Vote/VoterContract.sol\":3276:3370  function setKeyHolderAddress(address adr) external onlyOwner{\r... */\n    tag_16:\n      tag_80\n      0x04\n      dup1\n      calldatasize\n      sub\n      dup2\n      add\n      swap1\n      tag_81\n      swap2\n      swap1\n      tag_82\n      jump\t// in\n    tag_81:\n      tag_83\n      jump\t// in\n    tag_80:\n      stop\n        /* \"contracts/Vote/VoterContract.sol\":1514:1558  mapping(uint16 => Proposal) public proposals */\n    tag_17:\n      tag_84\n      0x04\n      dup1\n      calldatasize\n      sub\n      dup2\n      add\n      swap1\n      tag_85\n      swap2\n      swap1\n      tag_35\n      jump\t// in\n    tag_85:\n      tag_86\n      jump\t// in\n    tag_84:\n      mload(0x40)\n      tag_87\n      swap10\n      swap9\n      swap8\n      swap7\n      swap6\n      swap5\n      swap4\n      swap3\n      swap2\n      swap1\n      tag_88\n      jump\t// in\n    tag_87:\n      mload(0x40)\n      dup1\n      swap2\n      sub\n      swap1\n      return\n        /* \"contracts/Vote/VoterContract.sol\":7320:7843  function useVotePowerProposalYesNo(uint16 id,NoYes vote) external isProposalContinuing(id) onlyNotVotedVotersForProposal(id){\r... */\n    tag_18:\n      tag_89\n      0x04\n      dup1\n      calldatasize\n      sub\n      dup2\n      add\n      swap1\n      tag_90\n      swap2\n      swap1\n      tag_57\n      jump\t// in\n    tag_90:\n      tag_91\n      jump\t// in\n    tag_89:\n      stop\n        /* \"contracts/Vote/VoterContract.sol\":1388:1428  mapping(uint16 => Voting) public votings */\n    tag_19:\n      tag_92\n      0x04\n      dup1\n      calldatasize\n      sub\n      dup2\n      add\n      swap1\n      tag_93\n      swap2\n      swap1\n      tag_35\n      jump\t// in\n    tag_93:\n      tag_94\n      jump\t// in\n    tag_92:\n      mload(0x40)\n      tag_95\n      swap10\n      swap9\n      swap8\n      swap7\n      swap6\n      swap5\n      swap4\n      swap3\n      swap2\n      swap1\n      tag_88\n      jump\t// in\n    tag_95:\n      mload(0x40)\n      dup1\n      swap2\n      sub\n      swap1\n      return\n        /* \"contracts/Vote/VoterContract.sol\":4464:4717  function closeProposal(uint16 id) public isProposalContinuing(id) onlyVoters(msg.sender){\r... */\n    tag_20:\n      tag_96\n      0x04\n      dup1\n      calldatasize\n      sub\n      dup2\n      add\n      swap1\n      tag_97\n      swap2\n      swap1\n      tag_35\n      jump\t// in\n    tag_97:\n      tag_98\n      jump\t// in\n    tag_96:\n      stop\n        /* \"contracts/Vote/VoterContract.sol\":3378:3655  function giveVotingPower(address voterAddress) external onlyKeyHolder noZeroAddress(voterAddress) {\r... */\n    tag_21:\n      tag_99\n      0x04\n      dup1\n      calldatasize\n      sub\n      dup2\n      add\n      swap1\n      tag_100\n      swap2\n      swap1\n      tag_82\n      jump\t// in\n    tag_100:\n      tag_101\n      jump\t// in\n    tag_99:\n      stop\n        /* \"@openzeppelin/contracts/access/Ownable.sol\":2074:2272  function transferOwnership(address newOwner) public virtual onlyOwner {... */\n    tag_22:\n      tag_102\n      0x04\n      dup1\n      calldatasize\n      sub\n      dup2\n      add\n      swap1\n      tag_103\n      swap2\n      swap1\n      tag_82\n      jump\t// in\n    tag_103:\n      tag_104\n      jump\t// in\n    tag_102:\n      stop\n        /* \"contracts/Vote/VoterContract.sol\":8311:8911  function getVotings(uint8 skip, uint8 take) external view returns(Voting[] memory){\r... */\n    tag_23:\n      tag_105\n      0x04\n      dup1\n      calldatasize\n      sub\n      dup2\n      add\n      swap1\n      tag_106\n      swap2\n      swap1\n      tag_107\n      jump\t// in\n    tag_106:\n      tag_108\n      jump\t// in\n    tag_105:\n      mload(0x40)\n      tag_109\n      swap2\n      swap1\n      tag_110\n      jump\t// in\n    tag_109:\n      mload(0x40)\n      dup1\n      swap2\n      sub\n      swap1\n      return\n        /* \"contracts/Vote/VoterContract.sol\":1621:1645  uint16 public voteId = 0 */\n    tag_24:\n      tag_111\n      tag_112\n      jump\t// in\n    tag_111:\n      mload(0x40)\n      tag_113\n      swap2\n      swap1\n      tag_44\n      jump\t// in\n    tag_113:\n      mload(0x40)\n      dup1\n      swap2\n      sub\n      swap1\n      return\n        /* \"contracts/Vote/VoterContract.sol\":9565:9859  function whatDidIVote(uint16[] memory idList) external view returns(uint8[] memory){\r... */\n    tag_25:\n      tag_114\n      0x04\n      dup1\n      calldatasize\n      sub\n      dup2\n      add\n      swap1\n      tag_115\n      swap2\n      swap1\n      tag_73\n      jump\t// in\n    tag_115:\n      tag_116\n      jump\t// in\n    tag_114:\n      mload(0x40)\n      tag_117\n      swap2\n      swap1\n      tag_76\n      jump\t// in\n    tag_117:\n      mload(0x40)\n      dup1\n      swap2\n      sub\n      swap1\n      return\n        /* \"contracts/Vote/VoterContract.sol\":10189:10284  function amIVOTER() external view returns(bool){\r... */\n    tag_30:\n        /* \"contracts/Vote/VoterContract.sol\":10231:10235  bool */\n      0x00\n        /* \"contracts/Vote/VoterContract.sol\":10254:10264  __VOTERS__ */\n      0x02\n        /* \"contracts/Vote/VoterContract.sol\":10254:10276  __VOTERS__[msg.sender] */\n      0x00\n        /* \"contracts/Vote/VoterContract.sol\":10265:10275  msg.sender */\n      caller\n        /* \"contracts/Vote/VoterContract.sol\":10254:10276  __VOTERS__[msg.sender] */\n      0xffffffffffffffffffffffffffffffffffffffff\n      and\n      0xffffffffffffffffffffffffffffffffffffffff\n      and\n      dup2\n      mstore\n      0x20\n      add\n      swap1\n      dup2\n      mstore\n      0x20\n      add\n      0x00\n      keccak256\n      0x00\n      swap1\n      sload\n      swap1\n      0x0100\n      exp\n      swap1\n      div\n      0xff\n      and\n        /* \"contracts/Vote/VoterContract.sol\":10247:10276  return __VOTERS__[msg.sender] */\n      swap1\n      pop\n        /* \"contracts/Vote/VoterContract.sol\":10189:10284  function amIVOTER() external view returns(bool){\r... */\n      swap1\n      jump\t// out\n        /* \"contracts/Vote/VoterContract.sol\":4725:4971  function closeVoting(uint16 id) public isVotingContinuing(id) onlyVoters(msg.sender) {\r... */\n    tag_36:\n        /* \"contracts/Vote/VoterContract.sol\":4783:4785  id */\n      dup1\n        /* \"contracts/Vote/VoterContract.sol\":2706:2723  VotingType.Closed */\n      0x00\n        /* \"contracts/Vote/VoterContract.sol\":2682:2723  votings[id].votingType!=VotingType.Closed */\n      0x02\n      dup2\n      gt\n      iszero\n      tag_120\n      jumpi\n      tag_121\n      tag_122\n      jump\t// in\n    tag_121:\n    tag_120:\n        /* \"contracts/Vote/VoterContract.sol\":2682:2689  votings */\n      0x04\n        /* \"contracts/Vote/VoterContract.sol\":2682:2693  votings[id] */\n      0x00\n        /* \"contracts/Vote/VoterContract.sol\":2690:2692  id */\n      dup4\n        /* \"contracts/Vote/VoterContract.sol\":2682:2693  votings[id] */\n      0xffff\n      and\n      0xffff\n      and\n      dup2\n      mstore\n      0x20\n      add\n      swap1\n      dup2\n      mstore\n      0x20\n      add\n      0x00\n      keccak256\n        /* \"contracts/Vote/VoterContract.sol\":2682:2704  votings[id].votingType */\n      0x06\n      add\n      0x00\n      swap1\n      sload\n      swap1\n      0x0100\n      exp\n      swap1\n      div\n      0xff\n      and\n        /* \"contracts/Vote/VoterContract.sol\":2682:2723  votings[id].votingType!=VotingType.Closed */\n      0x02\n      dup2\n      gt\n      iszero\n      tag_123\n      jumpi\n      tag_124\n      tag_122\n      jump\t// in\n    tag_124:\n    tag_123:\n      eq\n      iszero\n        /* \"contracts/Vote/VoterContract.sol\":2674:2745  require(votings[id].votingType!=VotingType.Closed,\"There is no voting\") */\n      tag_125\n      jumpi\n      mload(0x40)\n      0x08c379a000000000000000000000000000000000000000000000000000000000\n      dup2\n      mstore\n      0x04\n      add\n      tag_126\n      swap1\n      tag_127\n      jump\t// in\n    tag_126:\n      mload(0x40)\n      dup1\n      swap2\n      sub\n      swap1\n      revert\n    tag_125:\n        /* \"contracts/Vote/VoterContract.sol\":4798:4808  msg.sender */\n      caller\n        /* \"contracts/Vote/VoterContract.sol\":2140:2150  __VOTERS__ */\n      0x02\n        /* \"contracts/Vote/VoterContract.sol\":2140:2155  __VOTERS__[adr] */\n      0x00\n        /* \"contracts/Vote/VoterContract.sol\":2151:2154  adr */\n      dup3\n        /* \"contracts/Vote/VoterContract.sol\":2140:2155  __VOTERS__[adr] */\n      0xffffffffffffffffffffffffffffffffffffffff\n      and\n      0xffffffffffffffffffffffffffffffffffffffff\n      and\n      dup2\n      mstore\n      0x20\n      add\n      swap1\n      dup2\n      mstore\n      0x20\n      add\n      0x00\n      keccak256\n      0x00\n      swap1\n      sload\n      swap1\n      0x0100\n      exp\n      swap1\n      div\n      0xff\n      and\n        /* \"contracts/Vote/VoterContract.sol\":2132:2179  require(__VOTERS__[adr],\"You are not a voterr\") */\n      tag_129\n      jumpi\n      mload(0x40)\n      0x08c379a000000000000000000000000000000000000000000000000000000000\n      dup2\n      mstore\n      0x04\n      add\n      tag_130\n      swap1\n      tag_131\n      jump\t// in\n    tag_130:\n      mload(0x40)\n      dup1\n      swap2\n      sub\n      swap1\n      revert\n    tag_129:\n        /* \"contracts/Vote/VoterContract.sol\":4843:4850  votings */\n      0x04\n        /* \"contracts/Vote/VoterContract.sol\":4843:4854  votings[id] */\n      0x00\n        /* \"contracts/Vote/VoterContract.sol\":4851:4853  id */\n      dup5\n        /* \"contracts/Vote/VoterContract.sol\":4843:4854  votings[id] */\n      0xffff\n      and\n      0xffff\n      and\n      dup2\n      mstore\n      0x20\n      add\n      swap1\n      dup2\n      mstore\n      0x20\n      add\n      0x00\n      keccak256\n        /* \"contracts/Vote/VoterContract.sol\":4843:4882  votings[id].blockNumberWillNotEndBefore */\n      0x04\n      add\n      sload\n        /* \"contracts/Vote/VoterContract.sol\":4829:4841  block.number */\n      number\n        /* \"contracts/Vote/VoterContract.sol\":4829:4882  block.number>=votings[id].blockNumberWillNotEndBefore */\n      lt\n      iszero\n        /* \"contracts/Vote/VoterContract.sol\":4821:4936  require(block.number>=votings[id].blockNumberWillNotEndBefore,\"Voting cannot be closed before it's designated to.\") */\n      tag_133\n      jumpi\n      mload(0x40)\n      0x08c379a000000000000000000000000000000000000000000000000000000000\n      dup2\n      mstore\n      0x04\n      add\n      tag_134\n      swap1\n      tag_135\n      jump\t// in\n    tag_134:\n      mload(0x40)\n      dup1\n      swap2\n      sub\n      swap1\n      revert\n    tag_133:\n        /* \"contracts/Vote/VoterContract.sol\":4947:4963  _closeVoting(id) */\n      tag_136\n        /* \"contracts/Vote/VoterContract.sol\":4960:4962  id */\n      dup4\n        /* \"contracts/Vote/VoterContract.sol\":4947:4959  _closeVoting */\n      tag_137\n        /* \"contracts/Vote/VoterContract.sol\":4947:4963  _closeVoting(id) */\n      jump\t// in\n    tag_136:\n        /* \"contracts/Vote/VoterContract.sol\":2756:2757  _ */\n      pop\n        /* \"contracts/Vote/VoterContract.sol\":4725:4971  function closeVoting(uint16 id) public isVotingContinuing(id) onlyVoters(msg.sender) {\r... */\n      pop\n      pop\n      jump\t// out\n        /* \"contracts/Vote/VoterContract.sol\":3663:4456  function openProposal(VotingType _proposalType ,string calldata _topic) public noEmptyString(_topic) onlyVoters(msg.sender){\r... */\n    tag_40:\n        /* \"contracts/Vote/VoterContract.sol\":3756:3762  _topic */\n      dup2\n      dup2\n        /* \"contracts/Vote/VoterContract.sol\":1734:1836  modifier noEmptyString(string memory str){\r... */\n      dup1\n      dup1\n      0x1f\n      add\n      0x20\n      dup1\n      swap2\n      div\n      mul\n      0x20\n      add\n      mload(0x40)\n      swap1\n      dup2\n      add\n      0x40\n      mstore\n      dup1\n      swap4\n      swap3\n      swap2\n      swap1\n      dup2\n      dup2\n      mstore\n      0x20\n      add\n      dup4\n      dup4\n      dup1\n      dup3\n      dup5\n      calldatacopy\n      0x00\n      dup2\n      dup5\n      add\n      mstore\n      not(0x1f)\n      0x1f\n      dup3\n      add\n      and\n      swap1\n      pop\n      dup1\n      dup4\n      add\n      swap3\n      pop\n      pop\n      pop\n      pop\n      pop\n      pop\n      pop\n        /* \"contracts/Vote/VoterContract.sol\":1814:1815  0 */\n      0x00\n        /* \"contracts/Vote/VoterContract.sol\":1800:1803  str */\n      dup2\n        /* \"contracts/Vote/VoterContract.sol\":1794:1811  bytes(str).length */\n      mload\n        /* \"contracts/Vote/VoterContract.sol\":1794:1815  bytes(str).length > 0 */\n      gt\n        /* \"contracts/Vote/VoterContract.sol\":1786:1816  require(bytes(str).length > 0) */\n      tag_139\n      jumpi\n      0x00\n      dup1\n      revert\n    tag_139:\n        /* \"contracts/Vote/VoterContract.sol\":3775:3785  msg.sender */\n      caller\n        /* \"contracts/Vote/VoterContract.sol\":2140:2150  __VOTERS__ */\n      0x02\n        /* \"contracts/Vote/VoterContract.sol\":2140:2155  __VOTERS__[adr] */\n      0x00\n        /* \"contracts/Vote/VoterContract.sol\":2151:2154  adr */\n      dup3\n        /* \"contracts/Vote/VoterContract.sol\":2140:2155  __VOTERS__[adr] */\n      0xffffffffffffffffffffffffffffffffffffffff\n      and\n      0xffffffffffffffffffffffffffffffffffffffff\n      and\n      dup2\n      mstore\n      0x20\n      add\n      swap1\n      dup2\n      mstore\n      0x20\n      add\n      0x00\n      keccak256\n      0x00\n      swap1\n      sload\n      swap1\n      0x0100\n      exp\n      swap1\n      div\n      0xff\n      and\n        /* \"contracts/Vote/VoterContract.sol\":2132:2179  require(__VOTERS__[adr],\"You are not a voterr\") */\n      tag_141\n      jumpi\n      mload(0x40)\n      0x08c379a000000000000000000000000000000000000000000000000000000000\n      dup2\n      mstore\n      0x04\n      add\n      tag_142\n      swap1\n      tag_131\n      jump\t// in\n    tag_142:\n      mload(0x40)\n      dup1\n      swap2\n      sub\n      swap1\n      revert\n    tag_141:\n        /* \"contracts/Vote/VoterContract.sol\":3822:3839  VotingType.Closed */\n      0x00\n        /* \"contracts/Vote/VoterContract.sol\":3805:3839  _proposalType != VotingType.Closed */\n      0x02\n      dup2\n      gt\n      iszero\n      tag_144\n      jumpi\n      tag_145\n      tag_122\n      jump\t// in\n    tag_145:\n    tag_144:\n        /* \"contracts/Vote/VoterContract.sol\":3805:3818  _proposalType */\n      dup6\n        /* \"contracts/Vote/VoterContract.sol\":3805:3839  _proposalType != VotingType.Closed */\n      0x02\n      dup2\n      gt\n      iszero\n      tag_146\n      jumpi\n      tag_147\n      tag_122\n      jump\t// in\n    tag_147:\n    tag_146:\n      eq\n      iszero\n        /* \"contracts/Vote/VoterContract.sol\":3797:3891  require(_proposalType != VotingType.Closed,\"Proposal Type cannot be closed at initial state.\") */\n      tag_148\n      jumpi\n      mload(0x40)\n      0x08c379a000000000000000000000000000000000000000000000000000000000\n      dup2\n      mstore\n      0x04\n      add\n      tag_149\n      swap1\n      tag_150\n      jump\t// in\n    tag_149:\n      mload(0x40)\n      dup1\n      swap2\n      sub\n      swap1\n      revert\n    tag_148:\n        /* \"contracts/Vote/VoterContract.sol\":3931:3941  proposalId */\n      0x07\n      0x02\n      swap1\n      sload\n      swap1\n      0x0100\n      exp\n      swap1\n      div\n      0xffff\n      and\n        /* \"contracts/Vote/VoterContract.sol\":3904:3913  proposals */\n      0x06\n        /* \"contracts/Vote/VoterContract.sol\":3904:3925  proposals[proposalId] */\n      0x00\n        /* \"contracts/Vote/VoterContract.sol\":3914:3924  proposalId */\n      0x07\n      0x02\n      swap1\n      sload\n      swap1\n      0x0100\n      exp\n      swap1\n      div\n      0xffff\n      and\n        /* \"contracts/Vote/VoterContract.sol\":3904:3925  proposals[proposalId] */\n      0xffff\n      and\n      0xffff\n      and\n      dup2\n      mstore\n      0x20\n      add\n      swap1\n      dup2\n      mstore\n      0x20\n      add\n      0x00\n      keccak256\n        /* \"contracts/Vote/VoterContract.sol\":3904:3928  proposals[proposalId].id */\n      0x00\n      add\n      0x00\n        /* \"contracts/Vote/VoterContract.sol\":3904:3941  proposals[proposalId].id = proposalId */\n      0x0100\n      exp\n      dup2\n      sload\n      dup2\n      0xffff\n      mul\n      not\n      and\n      swap1\n      dup4\n      0xffff\n      and\n      mul\n      or\n      swap1\n      sstore\n      pop\n        /* \"contracts/Vote/VoterContract.sol\":3982:3988  _topic */\n      dup4\n      dup4\n        /* \"contracts/Vote/VoterContract.sol\":3952:3961  proposals */\n      0x06\n        /* \"contracts/Vote/VoterContract.sol\":3952:3973  proposals[proposalId] */\n      0x00\n        /* \"contracts/Vote/VoterContract.sol\":3962:3972  proposalId */\n      0x07\n      0x02\n      swap1\n      sload\n      swap1\n      0x0100\n      exp\n      swap1\n      div\n      0xffff\n      and\n        /* \"contracts/Vote/VoterContract.sol\":3952:3973  proposals[proposalId] */\n      0xffff\n      and\n      0xffff\n      and\n      dup2\n      mstore\n      0x20\n      add\n      swap1\n      dup2\n      mstore\n      0x20\n      add\n      0x00\n      keccak256\n        /* \"contracts/Vote/VoterContract.sol\":3952:3979  proposals[proposalId].topic */\n      0x01\n      add\n        /* \"contracts/Vote/VoterContract.sol\":3952:3988  proposals[proposalId].topic = _topic */\n      swap2\n      swap1\n      tag_151\n      swap3\n      swap2\n      swap1\n      tag_152\n      jump\t// in\n    tag_151:\n      pop\n        /* \"contracts/Vote/VoterContract.sol\":4031:4032  0 */\n      0x00\n        /* \"contracts/Vote/VoterContract.sol\":4001:4010  proposals */\n      0x06\n        /* \"contracts/Vote/VoterContract.sol\":4001:4022  proposals[proposalId] */\n      0x00\n        /* \"contracts/Vote/VoterContract.sol\":4011:4021  proposalId */\n      0x07\n      0x02\n      swap1\n      sload\n      swap1\n      0x0100\n      exp\n      swap1\n      div\n      0xffff\n      and\n        /* \"contracts/Vote/VoterContract.sol\":4001:4022  proposals[proposalId] */\n      0xffff\n      and\n      0xffff\n      and\n      dup2\n      mstore\n      0x20\n      add\n      swap1\n      dup2\n      mstore\n      0x20\n      add\n      0x00\n      keccak256\n        /* \"contracts/Vote/VoterContract.sol\":4001:4028  proposals[proposalId].voted */\n      0x02\n      add\n      0x00\n        /* \"contracts/Vote/VoterContract.sol\":4001:4032  proposals[proposalId].voted = 0 */\n      0x0100\n      exp\n      dup2\n      sload\n      dup2\n      0xffffffff\n      mul\n      not\n      and\n      swap1\n      dup4\n      0xffffffff\n      and\n      mul\n      or\n      swap1\n      sstore\n      pop\n        /* \"contracts/Vote/VoterContract.sol\":4074:4075  0 */\n      0x00\n        /* \"contracts/Vote/VoterContract.sol\":4043:4052  proposals */\n      0x06\n        /* \"contracts/Vote/VoterContract.sol\":4043:4064  proposals[proposalId] */\n      0x00\n        /* \"contracts/Vote/VoterContract.sol\":4053:4063  proposalId */\n      0x07\n      0x02\n      swap1\n      sload\n      swap1\n      0x0100\n      exp\n      swap1\n      div\n      0xffff\n      and\n        /* \"contracts/Vote/VoterContract.sol\":4043:4064  proposals[proposalId] */\n      0xffff\n      and\n      0xffff\n      and\n      dup2\n      mstore\n      0x20\n      add\n      swap1\n      dup2\n      mstore\n      0x20\n      add\n      0x00\n      keccak256\n        /* \"contracts/Vote/VoterContract.sol\":4043:4071  proposals[proposalId].result */\n      0x02\n      add\n      0x04\n        /* \"contracts/Vote/VoterContract.sol\":4043:4075  proposals[proposalId].result = 0 */\n      0x0100\n      exp\n      dup2\n      sload\n      dup2\n      0xffffffff\n      mul\n      not\n      and\n      swap1\n      dup4\n      0xffffffff\n      and\n      mul\n      or\n      swap1\n      sstore\n      pop\n        /* \"contracts/Vote/VoterContract.sol\":4121:4131  msg.sender */\n      caller\n        /* \"contracts/Vote/VoterContract.sol\":4088:4097  proposals */\n      0x06\n        /* \"contracts/Vote/VoterContract.sol\":4088:4109  proposals[proposalId] */\n      0x00\n        /* \"contracts/Vote/VoterContract.sol\":4098:4108  proposalId */\n      0x07\n      0x02\n      swap1\n      sload\n      swap1\n      0x0100\n      exp\n      swap1\n      div\n      0xffff\n      and\n        /* \"contracts/Vote/VoterContract.sol\":4088:4109  proposals[proposalId] */\n      0xffff\n      and\n      0xffff\n      and\n      dup2\n      mstore\n      0x20\n      add\n      swap1\n      dup2\n      mstore\n      0x20\n      add\n      0x00\n      keccak256\n        /* \"contracts/Vote/VoterContract.sol\":4088:4118  proposals[proposalId].proposer */\n      0x02\n      add\n      0x08\n        /* \"contracts/Vote/VoterContract.sol\":4088:4131  proposals[proposalId].proposer = msg.sender */\n      0x0100\n      exp\n      dup2\n      sload\n      dup2\n      0xffffffffffffffffffffffffffffffffffffffff\n      mul\n      not\n      and\n      swap1\n      dup4\n      0xffffffffffffffffffffffffffffffffffffffff\n      and\n      mul\n      or\n      swap1\n      sstore\n      pop\n        /* \"contracts/Vote/VoterContract.sol\":4187:4199  block.number */\n      number\n        /* \"contracts/Vote/VoterContract.sol\":4144:4153  proposals */\n      0x06\n        /* \"contracts/Vote/VoterContract.sol\":4144:4165  proposals[proposalId] */\n      0x00\n        /* \"contracts/Vote/VoterContract.sol\":4154:4164  proposalId */\n      0x07\n      0x02\n      swap1\n      sload\n      swap1\n      0x0100\n      exp\n      swap1\n      div\n      0xffff\n      and\n        /* \"contracts/Vote/VoterContract.sol\":4144:4165  proposals[proposalId] */\n      0xffff\n      and\n      0xffff\n      and\n      dup2\n      mstore\n      0x20\n      add\n      swap1\n      dup2\n      mstore\n      0x20\n      add\n      0x00\n      keccak256\n        /* \"contracts/Vote/VoterContract.sol\":4144:4184  proposals[proposalId].blockNumberStarted */\n      0x03\n      add\n        /* \"contracts/Vote/VoterContract.sol\":4144:4199  proposals[proposalId].blockNumberStarted = block.number */\n      dup2\n      swap1\n      sstore\n      pop\n        /* \"contracts/Vote/VoterContract.sol\":1611:1612  1 */\n      0x01\n        /* \"contracts/Vote/VoterContract.sol\":4262:4293  block.number + minBlockDuration */\n      0xff\n      and\n        /* \"contracts/Vote/VoterContract.sol\":4262:4274  block.number */\n      number\n        /* \"contracts/Vote/VoterContract.sol\":4262:4293  block.number + minBlockDuration */\n      tag_153\n      swap2\n      swap1\n      tag_154\n      jump\t// in\n    tag_153:\n        /* \"contracts/Vote/VoterContract.sol\":4210:4219  proposals */\n      0x06\n        /* \"contracts/Vote/VoterContract.sol\":4210:4231  proposals[proposalId] */\n      0x00\n        /* \"contracts/Vote/VoterContract.sol\":4220:4230  proposalId */\n      0x07\n      0x02\n      swap1\n      sload\n      swap1\n      0x0100\n      exp\n      swap1\n      div\n      0xffff\n      and\n        /* \"contracts/Vote/VoterContract.sol\":4210:4231  proposals[proposalId] */\n      0xffff\n      and\n      0xffff\n      and\n      dup2\n      mstore\n      0x20\n      add\n      swap1\n      dup2\n      mstore\n      0x20\n      add\n      0x00\n      keccak256\n        /* \"contracts/Vote/VoterContract.sol\":4210:4259  proposals[proposalId].blockNumberWillNotEndBefore */\n      0x04\n      add\n        /* \"contracts/Vote/VoterContract.sol\":4210:4293  proposals[proposalId].blockNumberWillNotEndBefore = block.number + minBlockDuration */\n      dup2\n      swap1\n      sstore\n      pop\n        /* \"contracts/Vote/VoterContract.sol\":4356:4357  0 */\n      0x00\n        /* \"contracts/Vote/VoterContract.sol\":4314:4323  proposals */\n      0x06\n        /* \"contracts/Vote/VoterContract.sol\":4314:4335  proposals[proposalId] */\n      0x00\n        /* \"contracts/Vote/VoterContract.sol\":4324:4334  proposalId */\n      0x07\n      0x02\n      swap1\n      sload\n      swap1\n      0x0100\n      exp\n      swap1\n      div\n      0xffff\n      and\n        /* \"contracts/Vote/VoterContract.sol\":4314:4335  proposals[proposalId] */\n      0xffff\n      and\n      0xffff\n      and\n      dup2\n      mstore\n      0x20\n      add\n      swap1\n      dup2\n      mstore\n      0x20\n      add\n      0x00\n      keccak256\n        /* \"contracts/Vote/VoterContract.sol\":4314:4353  proposals[proposalId].blockNumberClosed */\n      0x05\n      add\n        /* \"contracts/Vote/VoterContract.sol\":4314:4357  proposals[proposalId].blockNumberClosed = 0 */\n      dup2\n      swap1\n      sstore\n      pop\n        /* \"contracts/Vote/VoterContract.sol\":4407:4420  _proposalType */\n      dup5\n        /* \"contracts/Vote/VoterContract.sol\":4370:4379  proposals */\n      0x06\n        /* \"contracts/Vote/VoterContract.sol\":4370:4391  proposals[proposalId] */\n      0x00\n        /* \"contracts/Vote/VoterContract.sol\":4380:4390  proposalId */\n      0x07\n      0x02\n      swap1\n      sload\n      swap1\n      0x0100\n      exp\n      swap1\n      div\n      0xffff\n      and\n        /* \"contracts/Vote/VoterContract.sol\":4370:4391  proposals[proposalId] */\n      0xffff\n      and\n      0xffff\n      and\n      dup2\n      mstore\n      0x20\n      add\n      swap1\n      dup2\n      mstore\n      0x20\n      add\n      0x00\n      keccak256\n        /* \"contracts/Vote/VoterContract.sol\":4370:4404  proposals[proposalId].proposalType */\n      0x06\n      add\n      0x00\n        /* \"contracts/Vote/VoterContract.sol\":4370:4420  proposals[proposalId].proposalType = _proposalType */\n      0x0100\n      exp\n      dup2\n      sload\n      dup2\n      0xff\n      mul\n      not\n      and\n      swap1\n      dup4\n      0x02\n      dup2\n      gt\n      iszero\n      tag_155\n      jumpi\n      tag_156\n      tag_122\n      jump\t// in\n    tag_156:\n    tag_155:\n      mul\n      or\n      swap1\n      sstore\n      pop\n        /* \"contracts/Vote/VoterContract.sol\":4447:4448  1 */\n      0x01\n        /* \"contracts/Vote/VoterContract.sol\":4433:4443  proposalId */\n      0x07\n      0x02\n        /* \"contracts/Vote/VoterContract.sol\":4433:4448  proposalId += 1 */\n      dup3\n      dup3\n      dup3\n      swap1\n      sload\n      swap1\n      0x0100\n      exp\n      swap1\n      div\n      0xffff\n      and\n      tag_157\n      swap2\n      swap1\n      tag_158\n      jump\t// in\n    tag_157:\n      swap3\n      pop\n      0x0100\n      exp\n      dup2\n      sload\n      dup2\n      0xffff\n      mul\n      not\n      and\n      swap1\n      dup4\n      0xffff\n      and\n      mul\n      or\n      swap1\n      sstore\n      pop\n        /* \"contracts/Vote/VoterContract.sol\":1827:1828  _ */\n      pop\n        /* \"contracts/Vote/VoterContract.sol\":3663:4456  function openProposal(VotingType _proposalType ,string calldata _topic) public noEmptyString(_topic) onlyVoters(msg.sender){\r... */\n      pop\n      pop\n      pop\n      pop\n      jump\t// out\n        /* \"contracts/Vote/VoterContract.sol\":1652:1680  uint16 public proposalId = 0 */\n    tag_42:\n      0x07\n      0x02\n      swap1\n      sload\n      swap1\n      0x0100\n      exp\n      swap1\n      div\n      0xffff\n      and\n      dup2\n      jump\t// out\n        /* \"contracts/Vote/VoterContract.sol\":8919:9557  function getProposals(uint16 skip, uint16 take) external view returns(Proposal[] memory){\r... */\n    tag_48:\n        /* \"contracts/Vote/VoterContract.sol\":8989:9006  Proposal[] memory */\n      0x60\n        /* \"contracts/Vote/VoterContract.sol\":9031:9032  0 */\n      0x00\n        /* \"contracts/Vote/VoterContract.sol\":9026:9030  take */\n      dup3\n        /* \"contracts/Vote/VoterContract.sol\":9026:9032  take>0 */\n      0xffff\n      and\n      gt\n        /* \"contracts/Vote/VoterContract.sol\":9018:9033  require(take>0) */\n      tag_160\n      jumpi\n      0x00\n      dup1\n      revert\n    tag_160:\n        /* \"contracts/Vote/VoterContract.sol\":9054:9082  Proposal[] memory _proposals */\n      0x00\n        /* \"contracts/Vote/VoterContract.sol\":9100:9104  take */\n      dup3\n        /* \"contracts/Vote/VoterContract.sol\":9085:9105  new Proposal[](take) */\n      0xffff\n      and\n      0xffffffffffffffff\n      dup2\n      gt\n      iszero\n      tag_161\n      jumpi\n      tag_162\n      tag_163\n      jump\t// in\n    tag_162:\n    tag_161:\n      mload(0x40)\n      swap1\n      dup1\n      dup3\n      mstore\n      dup1\n      0x20\n      mul\n      0x20\n      add\n      dup3\n      add\n      0x40\n      mstore\n      dup1\n      iszero\n      tag_164\n      jumpi\n      dup2\n      0x20\n      add\n    tag_165:\n      tag_166\n      tag_167\n      jump\t// in\n    tag_166:\n      dup2\n      mstore\n      0x20\n      add\n      swap1\n      0x01\n      swap1\n      sub\n      swap1\n      dup2\n      tag_165\n      jumpi\n      swap1\n      pop\n    tag_164:\n      pop\n        /* \"contracts/Vote/VoterContract.sol\":9054:9105  Proposal[] memory _proposals = new Proposal[](take) */\n      swap1\n      pop\n        /* \"contracts/Vote/VoterContract.sol\":9116:9125  uint16 pi */\n      0x00\n        /* \"contracts/Vote/VoterContract.sol\":9128:9138  proposalId */\n      0x07\n      0x02\n      swap1\n      sload\n      swap1\n      0x0100\n      exp\n      swap1\n      div\n      0xffff\n      and\n        /* \"contracts/Vote/VoterContract.sol\":9116:9138  uint16 pi = proposalId */\n      swap1\n      pop\n        /* \"contracts/Vote/VoterContract.sol\":9159:9161  pi */\n      dup1\n        /* \"contracts/Vote/VoterContract.sol\":9154:9161  skip>pi */\n      0xffff\n      and\n        /* \"contracts/Vote/VoterContract.sol\":9154:9158  skip */\n      dup6\n        /* \"contracts/Vote/VoterContract.sol\":9154:9161  skip>pi */\n      0xffff\n      and\n      gt\n        /* \"contracts/Vote/VoterContract.sol\":9151:9520  if(skip>pi){\r... */\n      iszero\n      tag_168\n      jumpi\n        /* \"contracts/Vote/VoterContract.sol\":9184:9194  _proposals */\n      dup2\n        /* \"contracts/Vote/VoterContract.sol\":9177:9194  return _proposals */\n      swap3\n      pop\n      pop\n      pop\n      jump(tag_159)\n        /* \"contracts/Vote/VoterContract.sol\":9151:9520  if(skip>pi){\r... */\n    tag_168:\n        /* \"contracts/Vote/VoterContract.sol\":9224:9226  pi */\n      dup1\n        /* \"contracts/Vote/VoterContract.sol\":9214:9226  skip+take>pi */\n      0xffff\n      and\n        /* \"contracts/Vote/VoterContract.sol\":9219:9223  take */\n      dup5\n        /* \"contracts/Vote/VoterContract.sol\":9214:9218  skip */\n      dup7\n        /* \"contracts/Vote/VoterContract.sol\":9214:9223  skip+take */\n      tag_170\n      swap2\n      swap1\n      tag_158\n      jump\t// in\n    tag_170:\n        /* \"contracts/Vote/VoterContract.sol\":9214:9226  skip+take>pi */\n      0xffff\n      and\n      gt\n        /* \"contracts/Vote/VoterContract.sol\":9211:9520  if(skip+take>pi){\r... */\n      iszero\n      tag_171\n      jumpi\n        /* \"contracts/Vote/VoterContract.sol\":9247:9255  uint16 i */\n      0x00\n        /* \"contracts/Vote/VoterContract.sol\":9258:9259  1 */\n      0x01\n        /* \"contracts/Vote/VoterContract.sol\":9247:9259  uint16 i = 1 */\n      swap1\n      pop\n        /* \"contracts/Vote/VoterContract.sol\":9242:9362  for (uint16 i = 1; i <= pi-skip; i++) \r... */\n    tag_172:\n        /* \"contracts/Vote/VoterContract.sol\":9269:9273  skip */\n      dup6\n        /* \"contracts/Vote/VoterContract.sol\":9266:9268  pi */\n      dup3\n        /* \"contracts/Vote/VoterContract.sol\":9266:9273  pi-skip */\n      tag_175\n      swap2\n      swap1\n      tag_176\n      jump\t// in\n    tag_175:\n        /* \"contracts/Vote/VoterContract.sol\":9261:9273  i <= pi-skip */\n      0xffff\n      and\n        /* \"contracts/Vote/VoterContract.sol\":9261:9262  i */\n      dup2\n        /* \"contracts/Vote/VoterContract.sol\":9261:9273  i <= pi-skip */\n      0xffff\n      and\n      gt\n        /* \"contracts/Vote/VoterContract.sol\":9242:9362  for (uint16 i = 1; i <= pi-skip; i++) \r... */\n      tag_173\n      jumpi\n        /* \"contracts/Vote/VoterContract.sol\":9331:9340  proposals */\n      0x06\n        /* \"contracts/Vote/VoterContract.sol\":9331:9346  proposals[pi-i] */\n      0x00\n        /* \"contracts/Vote/VoterContract.sol\":9344:9345  i */\n      dup3\n        /* \"contracts/Vote/VoterContract.sol\":9341:9343  pi */\n      dup5\n        /* \"contracts/Vote/VoterContract.sol\":9341:9345  pi-i */\n      tag_177\n      swap2\n      swap1\n      tag_176\n      jump\t// in\n    tag_177:\n        /* \"contracts/Vote/VoterContract.sol\":9331:9346  proposals[pi-i] */\n      0xffff\n      and\n      0xffff\n      and\n      dup2\n      mstore\n      0x20\n      add\n      swap1\n      dup2\n      mstore\n      0x20\n      add\n      0x00\n      keccak256\n        /* \"contracts/Vote/VoterContract.sol\":9313:9346  _proposals[i-1] = proposals[pi-i] */\n      mload(0x40)\n      dup1\n      0x0120\n      add\n      0x40\n      mstore\n      swap1\n      dup2\n      0x00\n      dup3\n      add\n      0x00\n      swap1\n      sload\n      swap1\n      0x0100\n      exp\n      swap1\n      div\n      0xffff\n      and\n      0xffff\n      and\n      0xffff\n      and\n      dup2\n      mstore\n      0x20\n      add\n      0x01\n      dup3\n      add\n      dup1\n      sload\n      tag_178\n      swap1\n      tag_179\n      jump\t// in\n    tag_178:\n      dup1\n      0x1f\n      add\n      0x20\n      dup1\n      swap2\n      div\n      mul\n      0x20\n      add\n      mload(0x40)\n      swap1\n      dup2\n      add\n      0x40\n      mstore\n      dup1\n      swap3\n      swap2\n      swap1\n      dup2\n      dup2\n      mstore\n      0x20\n      add\n      dup3\n      dup1\n      sload\n      tag_180\n      swap1\n      tag_179\n      jump\t// in\n    tag_180:\n      dup1\n      iszero\n      tag_181\n      jumpi\n      dup1\n      0x1f\n      lt\n      tag_182\n      jumpi\n      0x0100\n      dup1\n      dup4\n      sload\n      div\n      mul\n      dup4\n      mstore\n      swap2\n      0x20\n      add\n      swap2\n      jump(tag_181)\n    tag_182:\n      dup3\n      add\n      swap2\n      swap1\n      0x00\n      mstore\n      keccak256(0x00, 0x20)\n      swap1\n    tag_183:\n      dup2\n      sload\n      dup2\n      mstore\n      swap1\n      0x01\n      add\n      swap1\n      0x20\n      add\n      dup1\n      dup4\n      gt\n      tag_183\n      jumpi\n      dup3\n      swap1\n      sub\n      0x1f\n      and\n      dup3\n      add\n      swap2\n    tag_181:\n      pop\n      pop\n      pop\n      pop\n      pop\n      dup2\n      mstore\n      0x20\n      add\n      0x02\n      dup3\n      add\n      0x00\n      swap1\n      sload\n      swap1\n      0x0100\n      exp\n      swap1\n      div\n      0xffffffff\n      and\n      0xffffffff\n      and\n      0xffffffff\n      and\n      dup2\n      mstore\n      0x20\n      add\n      0x02\n      dup3\n      add\n      0x04\n      swap1\n      sload\n      swap1\n      0x0100\n      exp\n      swap1\n      div\n      0xffffffff\n      and\n      0xffffffff\n      and\n      0xffffffff\n      and\n      dup2\n      mstore\n      0x20\n      add\n      0x02\n      dup3\n      add\n      0x08\n      swap1\n      sload\n      swap1\n      0x0100\n      exp\n      swap1\n      div\n      0xffffffffffffffffffffffffffffffffffffffff\n      and\n      0xffffffffffffffffffffffffffffffffffffffff\n      and\n      0xffffffffffffffffffffffffffffffffffffffff\n      and\n      dup2\n      mstore\n      0x20\n      add\n      0x03\n      dup3\n      add\n      sload\n      dup2\n      mstore\n      0x20\n      add\n      0x04\n      dup3\n      add\n      sload\n      dup2\n      mstore\n      0x20\n      add\n      0x05\n      dup3\n      add\n      sload\n      dup2\n      mstore\n      0x20\n      add\n      0x06\n      dup3\n      add\n      0x00\n      swap1\n      sload\n      swap1\n      0x0100\n      exp\n      swap1\n      div\n      0xff\n      and\n      0x02\n      dup2\n      gt\n      iszero\n      tag_184\n      jumpi\n      tag_185\n      tag_122\n      jump\t// in\n    tag_185:\n    tag_184:\n      0x02\n      dup2\n      gt\n      iszero\n      tag_186\n      jumpi\n      tag_187\n      tag_122\n      jump\t// in\n    tag_187:\n    tag_186:\n      dup2\n      mstore\n      pop\n      pop\n        /* \"contracts/Vote/VoterContract.sol\":9313:9323  _proposals */\n      dup4\n        /* \"contracts/Vote/VoterContract.sol\":9326:9327  1 */\n      0x01\n        /* \"contracts/Vote/VoterContract.sol\":9324:9325  i */\n      dup4\n        /* \"contracts/Vote/VoterContract.sol\":9324:9327  i-1 */\n      tag_188\n      swap2\n      swap1\n      tag_176\n      jump\t// in\n    tag_188:\n        /* \"contracts/Vote/VoterContract.sol\":9313:9328  _proposals[i-1] */\n      0xffff\n      and\n      dup2\n      mload\n      dup2\n      lt\n      tag_189\n      jumpi\n      tag_190\n      tag_191\n      jump\t// in\n    tag_190:\n    tag_189:\n      0x20\n      mul\n      0x20\n      add\n      add\n        /* \"contracts/Vote/VoterContract.sol\":9313:9346  _proposals[i-1] = proposals[pi-i] */\n      dup2\n      swap1\n      mstore\n      pop\n        /* \"contracts/Vote/VoterContract.sol\":9275:9278  i++ */\n      dup1\n      dup1\n      tag_192\n      swap1\n      tag_193\n      jump\t// in\n    tag_192:\n      swap2\n      pop\n      pop\n        /* \"contracts/Vote/VoterContract.sol\":9242:9362  for (uint16 i = 1; i <= pi-skip; i++) \r... */\n      jump(tag_172)\n    tag_173:\n      pop\n        /* \"contracts/Vote/VoterContract.sol\":9211:9520  if(skip+take>pi){\r... */\n      jump(tag_194)\n    tag_171:\n        /* \"contracts/Vote/VoterContract.sol\":9397:9405  uint16 i */\n      0x00\n        /* \"contracts/Vote/VoterContract.sol\":9408:9409  1 */\n      0x01\n        /* \"contracts/Vote/VoterContract.sol\":9397:9409  uint16 i = 1 */\n      swap1\n      pop\n        /* \"contracts/Vote/VoterContract.sol\":9392:9509  for (uint16 i = 1; i <= take; i++) \r... */\n    tag_195:\n        /* \"contracts/Vote/VoterContract.sol\":9416:9420  take */\n      dup5\n        /* \"contracts/Vote/VoterContract.sol\":9411:9420  i <= take */\n      0xffff\n      and\n        /* \"contracts/Vote/VoterContract.sol\":9411:9412  i */\n      dup2\n        /* \"contracts/Vote/VoterContract.sol\":9411:9420  i <= take */\n      0xffff\n      and\n      gt\n        /* \"contracts/Vote/VoterContract.sol\":9392:9509  for (uint16 i = 1; i <= take; i++) \r... */\n      tag_196\n      jumpi\n        /* \"contracts/Vote/VoterContract.sol\":9478:9487  proposals */\n      0x06\n        /* \"contracts/Vote/VoterContract.sol\":9478:9493  proposals[pi-i] */\n      0x00\n        /* \"contracts/Vote/VoterContract.sol\":9491:9492  i */\n      dup3\n        /* \"contracts/Vote/VoterContract.sol\":9488:9490  pi */\n      dup5\n        /* \"contracts/Vote/VoterContract.sol\":9488:9492  pi-i */\n      tag_198\n      swap2\n      swap1\n      tag_176\n      jump\t// in\n    tag_198:\n        /* \"contracts/Vote/VoterContract.sol\":9478:9493  proposals[pi-i] */\n      0xffff\n      and\n      0xffff\n      and\n      dup2\n      mstore\n      0x20\n      add\n      swap1\n      dup2\n      mstore\n      0x20\n      add\n      0x00\n      keccak256\n        /* \"contracts/Vote/VoterContract.sol\":9460:9493  _proposals[i-1] = proposals[pi-i] */\n      mload(0x40)\n      dup1\n      0x0120\n      add\n      0x40\n      mstore\n      swap1\n      dup2\n      0x00\n      dup3\n      add\n      0x00\n      swap1\n      sload\n      swap1\n      0x0100\n      exp\n      swap1\n      div\n      0xffff\n      and\n      0xffff\n      and\n      0xffff\n      and\n      dup2\n      mstore\n      0x20\n      add\n      0x01\n      dup3\n      add\n      dup1\n      sload\n      tag_199\n      swap1\n      tag_179\n      jump\t// in\n    tag_199:\n      dup1\n      0x1f\n      add\n      0x20\n      dup1\n      swap2\n      div\n      mul\n      0x20\n      add\n      mload(0x40)\n      swap1\n      dup2\n      add\n      0x40\n      mstore\n      dup1\n      swap3\n      swap2\n      swap1\n      dup2\n      dup2\n      mstore\n      0x20\n      add\n      dup3\n      dup1\n      sload\n      tag_200\n      swap1\n      tag_179\n      jump\t// in\n    tag_200:\n      dup1\n      iszero\n      tag_201\n      jumpi\n      dup1\n      0x1f\n      lt\n      tag_202\n      jumpi\n      0x0100\n      dup1\n      dup4\n      sload\n      div\n      mul\n      dup4\n      mstore\n      swap2\n      0x20\n      add\n      swap2\n      jump(tag_201)\n    tag_202:\n      dup3\n      add\n      swap2\n      swap1\n      0x00\n      mstore\n      keccak256(0x00, 0x20)\n      swap1\n    tag_203:\n      dup2\n      sload\n      dup2\n      mstore\n      swap1\n      0x01\n      add\n      swap1\n      0x20\n      add\n      dup1\n      dup4\n      gt\n      tag_203\n      jumpi\n      dup3\n      swap1\n      sub\n      0x1f\n      and\n      dup3\n      add\n      swap2\n    tag_201:\n      pop\n      pop\n      pop\n      pop\n      pop\n      dup2\n      mstore\n      0x20\n      add\n      0x02\n      dup3\n      add\n      0x00\n      swap1\n      sload\n      swap1\n      0x0100\n      exp\n      swap1\n      div\n      0xffffffff\n      and\n      0xffffffff\n      and\n      0xffffffff\n      and\n      dup2\n      mstore\n      0x20\n      add\n      0x02\n      dup3\n      add\n      0x04\n      swap1\n      sload\n      swap1\n      0x0100\n      exp\n      swap1\n      div\n      0xffffffff\n      and\n      0xffffffff\n      and\n      0xffffffff\n      and\n      dup2\n      mstore\n      0x20\n      add\n      0x02\n      dup3\n      add\n      0x08\n      swap1\n      sload\n      swap1\n      0x0100\n      exp\n      swap1\n      div\n      0xffffffffffffffffffffffffffffffffffffffff\n      and\n      0xffffffffffffffffffffffffffffffffffffffff\n      and\n      0xffffffffffffffffffffffffffffffffffffffff\n      and\n      dup2\n      mstore\n      0x20\n      add\n      0x03\n      dup3\n      add\n      sload\n      dup2\n      mstore\n      0x20\n      add\n      0x04\n      dup3\n      add\n      sload\n      dup2\n      mstore\n      0x20\n      add\n      0x05\n      dup3\n      add\n      sload\n      dup2\n      mstore\n      0x20\n      add\n      0x06\n      dup3\n      add\n      0x00\n      swap1\n      sload\n      swap1\n      0x0100\n      exp\n      swap1\n      div\n      0xff\n      and\n      0x02\n      dup2\n      gt\n      iszero\n      tag_204\n      jumpi\n      tag_205\n      tag_122\n      jump\t// in\n    tag_205:\n    tag_204:\n      0x02\n      dup2\n      gt\n      iszero\n      tag_206\n      jumpi\n      tag_207\n      tag_122\n      jump\t// in\n    tag_207:\n    tag_206:\n      dup2\n      mstore\n      pop\n      pop\n        /* \"contracts/Vote/VoterContract.sol\":9460:9470  _proposals */\n      dup4\n        /* \"contracts/Vote/VoterContract.sol\":9473:9474  1 */\n      0x01\n        /* \"contracts/Vote/VoterContract.sol\":9471:9472  i */\n      dup4\n        /* \"contracts/Vote/VoterContract.sol\":9471:9474  i-1 */\n      tag_208\n      swap2\n      swap1\n      tag_176\n      jump\t// in\n    tag_208:\n        /* \"contracts/Vote/VoterContract.sol\":9460:9475  _proposals[i-1] */\n      0xffff\n      and\n      dup2\n      mload\n      dup2\n      lt\n      tag_209\n      jumpi\n      tag_210\n      tag_191\n      jump\t// in\n    tag_210:\n    tag_209:\n      0x20\n      mul\n      0x20\n      add\n      add\n        /* \"contracts/Vote/VoterContract.sol\":9460:9493  _proposals[i-1] = proposals[pi-i] */\n      dup2\n      swap1\n      mstore\n      pop\n        /* \"contracts/Vote/VoterContract.sol\":9422:9425  i++ */\n      dup1\n      dup1\n      tag_211\n      swap1\n      tag_193\n      jump\t// in\n    tag_211:\n      swap2\n      pop\n      pop\n        /* \"contracts/Vote/VoterContract.sol\":9392:9509  for (uint16 i = 1; i <= take; i++) \r... */\n      jump(tag_195)\n    tag_196:\n      pop\n        /* \"contracts/Vote/VoterContract.sol\":9211:9520  if(skip+take>pi){\r... */\n    tag_194:\n        /* \"contracts/Vote/VoterContract.sol\":9539:9549  _proposals */\n      dup2\n        /* \"contracts/Vote/VoterContract.sol\":9532:9549  return _proposals */\n      swap3\n      pop\n      pop\n      pop\n        /* \"contracts/Vote/VoterContract.sol\":8919:9557  function getProposals(uint16 skip, uint16 take) external view returns(Proposal[] memory){\r... */\n    tag_159:\n      swap3\n      swap2\n      pop\n      pop\n      jump\t// out\n        /* \"contracts/Vote/VoterContract.sol\":162:186  address public keyHolder */\n    tag_52:\n      0x01\n      0x00\n      swap1\n      sload\n      swap1\n      0x0100\n      exp\n      swap1\n      div\n      0xffffffffffffffffffffffffffffffffffffffff\n      and\n      dup2\n      jump\t// out\n        /* \"contracts/Vote/VoterContract.sol\":6421:6895  function useVotePowerYesNo(uint16 id,NoYes vote) external isVotingContinuing(id) onlyNotVotedVoters(id){\r... */\n    tag_58:\n        /* \"contracts/Vote/VoterContract.sol\":6498:6500  id */\n      dup2\n        /* \"contracts/Vote/VoterContract.sol\":2706:2723  VotingType.Closed */\n      0x00\n        /* \"contracts/Vote/VoterContract.sol\":2682:2723  votings[id].votingType!=VotingType.Closed */\n      0x02\n      dup2\n      gt\n      iszero\n      tag_213\n      jumpi\n      tag_214\n      tag_122\n      jump\t// in\n    tag_214:\n    tag_213:\n        /* \"contracts/Vote/VoterContract.sol\":2682:2689  votings */\n      0x04\n        /* \"contracts/Vote/VoterContract.sol\":2682:2693  votings[id] */\n      0x00\n        /* \"contracts/Vote/VoterContract.sol\":2690:2692  id */\n      dup4\n        /* \"contracts/Vote/VoterContract.sol\":2682:2693  votings[id] */\n      0xffff\n      and\n      0xffff\n      and\n      dup2\n      mstore\n      0x20\n      add\n      swap1\n      dup2\n      mstore\n      0x20\n      add\n      0x00\n      keccak256\n        /* \"contracts/Vote/VoterContract.sol\":2682:2704  votings[id].votingType */\n      0x06\n      add\n      0x00\n      swap1\n      sload\n      swap1\n      0x0100\n      exp\n      swap1\n      div\n      0xff\n      and\n        /* \"contracts/Vote/VoterContract.sol\":2682:2723  votings[id].votingType!=VotingType.Closed */\n      0x02\n      dup2\n      gt\n      iszero\n      tag_215\n      jumpi\n      tag_216\n      tag_122\n      jump\t// in\n    tag_216:\n    tag_215:\n      eq\n      iszero\n        /* \"contracts/Vote/VoterContract.sol\":2674:2745  require(votings[id].votingType!=VotingType.Closed,\"There is no voting\") */\n      tag_217\n      jumpi\n      mload(0x40)\n      0x08c379a000000000000000000000000000000000000000000000000000000000\n      dup2\n      mstore\n      0x04\n      add\n      tag_218\n      swap1\n      tag_127\n      jump\t// in\n    tag_218:\n      mload(0x40)\n      dup1\n      swap2\n      sub\n      swap1\n      revert\n    tag_217:\n        /* \"contracts/Vote/VoterContract.sol\":6521:6523  id */\n      dup3\n        /* \"contracts/Vote/VoterContract.sol\":2262:2272  __VOTERS__ */\n      0x02\n        /* \"contracts/Vote/VoterContract.sol\":2262:2284  __VOTERS__[msg.sender] */\n      0x00\n        /* \"contracts/Vote/VoterContract.sol\":2273:2283  msg.sender */\n      caller\n        /* \"contracts/Vote/VoterContract.sol\":2262:2284  __VOTERS__[msg.sender] */\n      0xffffffffffffffffffffffffffffffffffffffff\n      and\n      0xffffffffffffffffffffffffffffffffffffffff\n      and\n      dup2\n      mstore\n      0x20\n      add\n      swap1\n      dup2\n      mstore\n      0x20\n      add\n      0x00\n      keccak256\n      0x00\n      swap1\n      sload\n      swap1\n      0x0100\n      exp\n      swap1\n      div\n      0xff\n      and\n        /* \"contracts/Vote/VoterContract.sol\":2254:2307  require(__VOTERS__[msg.sender],\"You are not a voter\") */\n      tag_220\n      jumpi\n      mload(0x40)\n      0x08c379a000000000000000000000000000000000000000000000000000000000\n      dup2\n      mstore\n      0x04\n      add\n      tag_221\n      swap1\n      tag_222\n      jump\t// in\n    tag_221:\n      mload(0x40)\n      dup1\n      swap2\n      sub\n      swap1\n      revert\n    tag_220:\n        /* \"contracts/Vote/VoterContract.sol\":2353:2354  0 */\n      0x00\n        /* \"contracts/Vote/VoterContract.sol\":2326:2335  votePower */\n      0x03\n        /* \"contracts/Vote/VoterContract.sol\":2326:2339  votePower[id] */\n      0x00\n        /* \"contracts/Vote/VoterContract.sol\":2336:2338  id */\n      dup4\n        /* \"contracts/Vote/VoterContract.sol\":2326:2339  votePower[id] */\n      0xffff\n      and\n      0xffff\n      and\n      dup2\n      mstore\n      0x20\n      add\n      swap1\n      dup2\n      mstore\n      0x20\n      add\n      0x00\n      keccak256\n        /* \"contracts/Vote/VoterContract.sol\":2326:2351  votePower[id][msg.sender] */\n      0x00\n        /* \"contracts/Vote/VoterContract.sol\":2340:2350  msg.sender */\n      caller\n        /* \"contracts/Vote/VoterContract.sol\":2326:2351  votePower[id][msg.sender] */\n      0xffffffffffffffffffffffffffffffffffffffff\n      and\n      0xffffffffffffffffffffffffffffffffffffffff\n      and\n      dup2\n      mstore\n      0x20\n      add\n      swap1\n      dup2\n      mstore\n      0x20\n      add\n      0x00\n      keccak256\n      0x00\n      swap1\n      sload\n      swap1\n      0x0100\n      exp\n      swap1\n      div\n      0xff\n      and\n        /* \"contracts/Vote/VoterContract.sol\":2326:2354  votePower[id][msg.sender]==0 */\n      0xff\n      and\n      eq\n        /* \"contracts/Vote/VoterContract.sol\":2318:2379  require(votePower[id][msg.sender]==0,\"You have voted before\") */\n      tag_223\n      jumpi\n      mload(0x40)\n      0x08c379a000000000000000000000000000000000000000000000000000000000\n      dup2\n      mstore\n      0x04\n      add\n      tag_224\n      swap1\n      tag_225\n      jump\t// in\n    tag_224:\n      mload(0x40)\n      dup1\n      swap2\n      sub\n      swap1\n      revert\n    tag_223:\n        /* \"contracts/Vote/VoterContract.sol\":6567:6583  VotingType.YesNo */\n      0x01\n        /* \"contracts/Vote/VoterContract.sol\":6543:6583  votings[id].votingType==VotingType.YesNo */\n      0x02\n      dup2\n      gt\n      iszero\n      tag_227\n      jumpi\n      tag_228\n      tag_122\n      jump\t// in\n    tag_228:\n    tag_227:\n        /* \"contracts/Vote/VoterContract.sol\":6543:6550  votings */\n      0x04\n        /* \"contracts/Vote/VoterContract.sol\":6543:6554  votings[id] */\n      0x00\n        /* \"contracts/Vote/VoterContract.sol\":6551:6553  id */\n      dup7\n        /* \"contracts/Vote/VoterContract.sol\":6543:6554  votings[id] */\n      0xffff\n      and\n      0xffff\n      and\n      dup2\n      mstore\n      0x20\n      add\n      swap1\n      dup2\n      mstore\n      0x20\n      add\n      0x00\n      keccak256\n        /* \"contracts/Vote/VoterContract.sol\":6543:6565  votings[id].votingType */\n      0x06\n      add\n      0x00\n      swap1\n      sload\n      swap1\n      0x0100\n      exp\n      swap1\n      div\n      0xff\n      and\n        /* \"contracts/Vote/VoterContract.sol\":6543:6583  votings[id].votingType==VotingType.YesNo */\n      0x02\n      dup2\n      gt\n      iszero\n      tag_229\n      jumpi\n      tag_230\n      tag_122\n      jump\t// in\n    tag_230:\n    tag_229:\n      eq\n        /* \"contracts/Vote/VoterContract.sol\":6535:6632  require(votings[id].votingType==VotingType.YesNo,\"Currently we are not voting on this function.\") */\n      tag_231\n      jumpi\n      mload(0x40)\n      0x08c379a000000000000000000000000000000000000000000000000000000000\n      dup2\n      mstore\n      0x04\n      add\n      tag_232\n      swap1\n      tag_233\n      jump\t// in\n    tag_232:\n      mload(0x40)\n      dup1\n      swap2\n      sub\n      swap1\n      revert\n    tag_231:\n        /* \"contracts/Vote/VoterContract.sol\":6652:6660  NoYes.No */\n      0x00\n        /* \"contracts/Vote/VoterContract.sol\":6646:6660  vote==NoYes.No */\n      0x01\n      dup2\n      gt\n      iszero\n      tag_234\n      jumpi\n      tag_235\n      tag_122\n      jump\t// in\n    tag_235:\n    tag_234:\n        /* \"contracts/Vote/VoterContract.sol\":6646:6650  vote */\n      dup4\n        /* \"contracts/Vote/VoterContract.sol\":6646:6660  vote==NoYes.No */\n      0x01\n      dup2\n      gt\n      iszero\n      tag_236\n      jumpi\n      tag_237\n      tag_122\n      jump\t// in\n    tag_237:\n    tag_236:\n      eq\n        /* \"contracts/Vote/VoterContract.sol\":6643:6855  if(vote==NoYes.No){\r... */\n      iszero\n      tag_238\n      jumpi\n        /* \"contracts/Vote/VoterContract.sol\":6704:6705  1 */\n      0x01\n        /* \"contracts/Vote/VoterContract.sol\":6676:6685  votePower */\n      0x03\n        /* \"contracts/Vote/VoterContract.sol\":6676:6689  votePower[id] */\n      0x00\n        /* \"contracts/Vote/VoterContract.sol\":6686:6688  id */\n      dup7\n        /* \"contracts/Vote/VoterContract.sol\":6676:6689  votePower[id] */\n      0xffff\n      and\n      0xffff\n      and\n      dup2\n      mstore\n      0x20\n      add\n      swap1\n      dup2\n      mstore\n      0x20\n      add\n      0x00\n      keccak256\n        /* \"contracts/Vote/VoterContract.sol\":6676:6701  votePower[id][msg.sender] */\n      0x00\n        /* \"contracts/Vote/VoterContract.sol\":6690:6700  msg.sender */\n      caller\n        /* \"contracts/Vote/VoterContract.sol\":6676:6701  votePower[id][msg.sender] */\n      0xffffffffffffffffffffffffffffffffffffffff\n      and\n      0xffffffffffffffffffffffffffffffffffffffff\n      and\n      dup2\n      mstore\n      0x20\n      add\n      swap1\n      dup2\n      mstore\n      0x20\n      add\n      0x00\n      keccak256\n      0x00\n        /* \"contracts/Vote/VoterContract.sol\":6676:6705  votePower[id][msg.sender] = 1 */\n      0x0100\n      exp\n      dup2\n      sload\n      dup2\n      0xff\n      mul\n      not\n      and\n      swap1\n      dup4\n      0xff\n      and\n      mul\n      or\n      swap1\n      sstore\n      pop\n        /* \"contracts/Vote/VoterContract.sol\":6742:6743  1 */\n      0x01\n        /* \"contracts/Vote/VoterContract.sol\":6720:6727  votings */\n      0x04\n        /* \"contracts/Vote/VoterContract.sol\":6720:6731  votings[id] */\n      0x00\n        /* \"contracts/Vote/VoterContract.sol\":6728:6730  id */\n      dup7\n        /* \"contracts/Vote/VoterContract.sol\":6720:6731  votings[id] */\n      0xffff\n      and\n      0xffff\n      and\n      dup2\n      mstore\n      0x20\n      add\n      swap1\n      dup2\n      mstore\n      0x20\n      add\n      0x00\n      keccak256\n        /* \"contracts/Vote/VoterContract.sol\":6720:6738  votings[id].result */\n      0x02\n      add\n      0x04\n        /* \"contracts/Vote/VoterContract.sol\":6720:6743  votings[id].result += 1 */\n      dup3\n      dup3\n      dup3\n      swap1\n      sload\n      swap1\n      0x0100\n      exp\n      swap1\n      div\n      0xffffffff\n      and\n      tag_239\n      swap2\n      swap1\n      tag_240\n      jump\t// in\n    tag_239:\n      swap3\n      pop\n      0x0100\n      exp\n      dup2\n      sload\n      dup2\n      0xffffffff\n      mul\n      not\n      and\n      swap1\n      dup4\n      0xffffffff\n      and\n      mul\n      or\n      swap1\n      sstore\n      pop\n        /* \"contracts/Vote/VoterContract.sol\":6643:6855  if(vote==NoYes.No){\r... */\n      jump(tag_241)\n    tag_238:\n        /* \"contracts/Vote/VoterContract.sol\":6802:6804  10 */\n      0x0a\n        /* \"contracts/Vote/VoterContract.sol\":6774:6783  votePower */\n      0x03\n        /* \"contracts/Vote/VoterContract.sol\":6774:6787  votePower[id] */\n      0x00\n        /* \"contracts/Vote/VoterContract.sol\":6784:6786  id */\n      dup7\n        /* \"contracts/Vote/VoterContract.sol\":6774:6787  votePower[id] */\n      0xffff\n      and\n      0xffff\n      and\n      dup2\n      mstore\n      0x20\n      add\n      swap1\n      dup2\n      mstore\n      0x20\n      add\n      0x00\n      keccak256\n        /* \"contracts/Vote/VoterContract.sol\":6774:6799  votePower[id][msg.sender] */\n      0x00\n        /* \"contracts/Vote/VoterContract.sol\":6788:6798  msg.sender */\n      caller\n        /* \"contracts/Vote/VoterContract.sol\":6774:6799  votePower[id][msg.sender] */\n      0xffffffffffffffffffffffffffffffffffffffff\n      and\n      0xffffffffffffffffffffffffffffffffffffffff\n      and\n      dup2\n      mstore\n      0x20\n      add\n      swap1\n      dup2\n      mstore\n      0x20\n      add\n      0x00\n      keccak256\n      0x00\n        /* \"contracts/Vote/VoterContract.sol\":6774:6804  votePower[id][msg.sender] = 10 */\n      0x0100\n      exp\n      dup2\n      sload\n      dup2\n      0xff\n      mul\n      not\n      and\n      swap1\n      dup4\n      0xff\n      and\n      mul\n      or\n      swap1\n      sstore\n      pop\n        /* \"contracts/Vote/VoterContract.sol\":6841:6843  10 */\n      0x0a\n        /* \"contracts/Vote/VoterContract.sol\":6819:6826  votings */\n      0x04\n        /* \"contracts/Vote/VoterContract.sol\":6819:6830  votings[id] */\n      0x00\n        /* \"contracts/Vote/VoterContract.sol\":6827:6829  id */\n      dup7\n        /* \"contracts/Vote/VoterContract.sol\":6819:6830  votings[id] */\n      0xffff\n      and\n      0xffff\n      and\n      dup2\n      mstore\n      0x20\n      add\n      swap1\n      dup2\n      mstore\n      0x20\n      add\n      0x00\n      keccak256\n        /* \"contracts/Vote/VoterContract.sol\":6819:6837  votings[id].result */\n      0x02\n      add\n      0x04\n        /* \"contracts/Vote/VoterContract.sol\":6819:6843  votings[id].result += 10 */\n      dup3\n      dup3\n      dup3\n      swap1\n      sload\n      swap1\n      0x0100\n      exp\n      swap1\n      div\n      0xffffffff\n      and\n      tag_242\n      swap2\n      swap1\n      tag_240\n      jump\t// in\n    tag_242:\n      swap3\n      pop\n      0x0100\n      exp\n      dup2\n      sload\n      dup2\n      0xffffffff\n      mul\n      not\n      and\n      swap1\n      dup4\n      0xffffffff\n      and\n      mul\n      or\n      swap1\n      sstore\n      pop\n        /* \"contracts/Vote/VoterContract.sol\":6643:6855  if(vote==NoYes.No){\r... */\n    tag_241:\n        /* \"contracts/Vote/VoterContract.sol\":6886:6887  1 */\n      0x01\n        /* \"contracts/Vote/VoterContract.sol\":6865:6872  votings */\n      0x04\n        /* \"contracts/Vote/VoterContract.sol\":6865:6876  votings[id] */\n      0x00\n        /* \"contracts/Vote/VoterContract.sol\":6873:6875  id */\n      dup7\n        /* \"contracts/Vote/VoterContract.sol\":6865:6876  votings[id] */\n      0xffff\n      and\n      0xffff\n      and\n      dup2\n      mstore\n      0x20\n      add\n      swap1\n      dup2\n      mstore\n      0x20\n      add\n      0x00\n      keccak256\n        /* \"contracts/Vote/VoterContract.sol\":6865:6882  votings[id].voted */\n      0x02\n      add\n      0x00\n        /* \"contracts/Vote/VoterContract.sol\":6865:6887  votings[id].voted += 1 */\n      dup3\n      dup3\n      dup3\n      swap1\n      sload\n      swap1\n      0x0100\n      exp\n      swap1\n      div\n      0xffffffff\n      and\n      tag_243\n      swap2\n      swap1\n      tag_240\n      jump\t// in\n    tag_243:\n      swap3\n      pop\n      0x0100\n      exp\n      dup2\n      sload\n      dup2\n      0xffffffff\n      mul\n      not\n      and\n      swap1\n      dup4\n      0xffffffff\n      and\n      mul\n      or\n      swap1\n      sstore\n      pop\n        /* \"contracts/Vote/VoterContract.sol\":2756:2757  _ */\n      pop\n        /* \"contracts/Vote/VoterContract.sol\":6421:6895  function useVotePowerYesNo(uint16 id,NoYes vote) external isVotingContinuing(id) onlyNotVotedVoters(id){\r... */\n      pop\n      pop\n      pop\n      jump\t// out\n        /* \"contracts/Vote/VoterContract.sol\":6907:7312  function useVotePowerOne2Ten(uint16 id,uint8 vote) external isVotingContinuing(id) onlyNotVotedVoters(id){\r... */\n    tag_62:\n        /* \"contracts/Vote/VoterContract.sol\":6986:6988  id */\n      dup2\n        /* \"contracts/Vote/VoterContract.sol\":2706:2723  VotingType.Closed */\n      0x00\n        /* \"contracts/Vote/VoterContract.sol\":2682:2723  votings[id].votingType!=VotingType.Closed */\n      0x02\n      dup2\n      gt\n      iszero\n      tag_245\n      jumpi\n      tag_246\n      tag_122\n      jump\t// in\n    tag_246:\n    tag_245:\n        /* \"contracts/Vote/VoterContract.sol\":2682:2689  votings */\n      0x04\n        /* \"contracts/Vote/VoterContract.sol\":2682:2693  votings[id] */\n      0x00\n        /* \"contracts/Vote/VoterContract.sol\":2690:2692  id */\n      dup4\n        /* \"contracts/Vote/VoterContract.sol\":2682:2693  votings[id] */\n      0xffff\n      and\n      0xffff\n      and\n      dup2\n      mstore\n      0x20\n      add\n      swap1\n      dup2\n      mstore\n      0x20\n      add\n      0x00\n      keccak256\n        /* \"contracts/Vote/VoterContract.sol\":2682:2704  votings[id].votingType */\n      0x06\n      add\n      0x00\n      swap1\n      sload\n      swap1\n      0x0100\n      exp\n      swap1\n      div\n      0xff\n      and\n        /* \"contracts/Vote/VoterContract.sol\":2682:2723  votings[id].votingType!=VotingType.Closed */\n      0x02\n      dup2\n      gt\n      iszero\n      tag_247\n      jumpi\n      tag_248\n      tag_122\n      jump\t// in\n    tag_248:\n    tag_247:\n      eq\n      iszero\n        /* \"contracts/Vote/VoterContract.sol\":2674:2745  require(votings[id].votingType!=VotingType.Closed,\"There is no voting\") */\n      tag_249\n      jumpi\n      mload(0x40)\n      0x08c379a000000000000000000000000000000000000000000000000000000000\n      dup2\n      mstore\n      0x04\n      add\n      tag_250\n      swap1\n      tag_127\n      jump\t// in\n    tag_250:\n      mload(0x40)\n      dup1\n      swap2\n      sub\n      swap1\n      revert\n    tag_249:\n        /* \"contracts/Vote/VoterContract.sol\":7009:7011  id */\n      dup3\n        /* \"contracts/Vote/VoterContract.sol\":2262:2272  __VOTERS__ */\n      0x02\n        /* \"contracts/Vote/VoterContract.sol\":2262:2284  __VOTERS__[msg.sender] */\n      0x00\n        /* \"contracts/Vote/VoterContract.sol\":2273:2283  msg.sender */\n      caller\n        /* \"contracts/Vote/VoterContract.sol\":2262:2284  __VOTERS__[msg.sender] */\n      0xffffffffffffffffffffffffffffffffffffffff\n      and\n      0xffffffffffffffffffffffffffffffffffffffff\n      and\n      dup2\n      mstore\n      0x20\n      add\n      swap1\n      dup2\n      mstore\n      0x20\n      add\n      0x00\n      keccak256\n      0x00\n      swap1\n      sload\n      swap1\n      0x0100\n      exp\n      swap1\n      div\n      0xff\n      and\n        /* \"contracts/Vote/VoterContract.sol\":2254:2307  require(__VOTERS__[msg.sender],\"You are not a voter\") */\n      tag_252\n      jumpi\n      mload(0x40)\n      0x08c379a000000000000000000000000000000000000000000000000000000000\n      dup2\n      mstore\n      0x04\n      add\n      tag_253\n      swap1\n      tag_222\n      jump\t// in\n    tag_253:\n      mload(0x40)\n      dup1\n      swap2\n      sub\n      swap1\n      revert\n    tag_252:\n        /* \"contracts/Vote/VoterContract.sol\":2353:2354  0 */\n      0x00\n        /* \"contracts/Vote/VoterContract.sol\":2326:2335  votePower */\n      0x03\n        /* \"contracts/Vote/VoterContract.sol\":2326:2339  votePower[id] */\n      0x00\n        /* \"contracts/Vote/VoterContract.sol\":2336:2338  id */\n      dup4\n        /* \"contracts/Vote/VoterContract.sol\":2326:2339  votePower[id] */\n      0xffff\n      and\n      0xffff\n      and\n      dup2\n      mstore\n      0x20\n      add\n      swap1\n      dup2\n      mstore\n      0x20\n      add\n      0x00\n      keccak256\n        /* \"contracts/Vote/VoterContract.sol\":2326:2351  votePower[id][msg.sender] */\n      0x00\n        /* \"contracts/Vote/VoterContract.sol\":2340:2350  msg.sender */\n      caller\n        /* \"contracts/Vote/VoterContract.sol\":2326:2351  votePower[id][msg.sender] */\n      0xffffffffffffffffffffffffffffffffffffffff\n      and\n      0xffffffffffffffffffffffffffffffffffffffff\n      and\n      dup2\n      mstore\n      0x20\n      add\n      swap1\n      dup2\n      mstore\n      0x20\n      add\n      0x00\n      keccak256\n      0x00\n      swap1\n      sload\n      swap1\n      0x0100\n      exp\n      swap1\n      div\n      0xff\n      and\n        /* \"contracts/Vote/VoterContract.sol\":2326:2354  votePower[id][msg.sender]==0 */\n      0xff\n      and\n      eq\n        /* \"contracts/Vote/VoterContract.sol\":2318:2379  require(votePower[id][msg.sender]==0,\"You have voted before\") */\n      tag_254\n      jumpi\n      mload(0x40)\n      0x08c379a000000000000000000000000000000000000000000000000000000000\n      dup2\n      mstore\n      0x04\n      add\n      tag_255\n      swap1\n      tag_225\n      jump\t// in\n    tag_255:\n      mload(0x40)\n      dup1\n      swap2\n      sub\n      swap1\n      revert\n    tag_254:\n        /* \"contracts/Vote/VoterContract.sol\":7036:7037  0 */\n      0x00\n        /* \"contracts/Vote/VoterContract.sol\":7031:7035  vote */\n      dup4\n        /* \"contracts/Vote/VoterContract.sol\":7031:7037  vote>0 */\n      0xff\n      and\n      gt\n        /* \"contracts/Vote/VoterContract.sol\":7031:7046  vote>0&&vote<11 */\n      dup1\n      iszero\n      tag_257\n      jumpi\n      pop\n        /* \"contracts/Vote/VoterContract.sol\":7044:7046  11 */\n      0x0b\n        /* \"contracts/Vote/VoterContract.sol\":7039:7043  vote */\n      dup4\n        /* \"contracts/Vote/VoterContract.sol\":7039:7046  vote<11 */\n      0xff\n      and\n      lt\n        /* \"contracts/Vote/VoterContract.sol\":7031:7046  vote>0&&vote<11 */\n    tag_257:\n        /* \"contracts/Vote/VoterContract.sol\":7023:7078  require(vote>0&&vote<11,\"Please vote between 1 to 10.\") */\n      tag_258\n      jumpi\n      mload(0x40)\n      0x08c379a000000000000000000000000000000000000000000000000000000000\n      dup2\n      mstore\n      0x04\n      add\n      tag_259\n      swap1\n      tag_260\n      jump\t// in\n    tag_259:\n      mload(0x40)\n      dup1\n      swap2\n      sub\n      swap1\n      revert\n    tag_258:\n        /* \"contracts/Vote/VoterContract.sol\":7121:7140  VotingType.OneToTen */\n      0x02\n        /* \"contracts/Vote/VoterContract.sol\":7097:7140  votings[id].votingType==VotingType.OneToTen */\n      dup1\n      dup2\n      gt\n      iszero\n      tag_261\n      jumpi\n      tag_262\n      tag_122\n      jump\t// in\n    tag_262:\n    tag_261:\n        /* \"contracts/Vote/VoterContract.sol\":7097:7104  votings */\n      0x04\n        /* \"contracts/Vote/VoterContract.sol\":7097:7108  votings[id] */\n      0x00\n        /* \"contracts/Vote/VoterContract.sol\":7105:7107  id */\n      dup7\n        /* \"contracts/Vote/VoterContract.sol\":7097:7108  votings[id] */\n      0xffff\n      and\n      0xffff\n      and\n      dup2\n      mstore\n      0x20\n      add\n      swap1\n      dup2\n      mstore\n      0x20\n      add\n      0x00\n      keccak256\n        /* \"contracts/Vote/VoterContract.sol\":7097:7119  votings[id].votingType */\n      0x06\n      add\n      0x00\n      swap1\n      sload\n      swap1\n      0x0100\n      exp\n      swap1\n      div\n      0xff\n      and\n        /* \"contracts/Vote/VoterContract.sol\":7097:7140  votings[id].votingType==VotingType.OneToTen */\n      0x02\n      dup2\n      gt\n      iszero\n      tag_263\n      jumpi\n      tag_264\n      tag_122\n      jump\t// in\n    tag_264:\n    tag_263:\n      eq\n        /* \"contracts/Vote/VoterContract.sol\":7089:7189  require(votings[id].votingType==VotingType.OneToTen,\"Currently we are not voting on this function.\") */\n      tag_265\n      jumpi\n      mload(0x40)\n      0x08c379a000000000000000000000000000000000000000000000000000000000\n      dup2\n      mstore\n      0x04\n      add\n      tag_266\n      swap1\n      tag_233\n      jump\t// in\n    tag_266:\n      mload(0x40)\n      dup1\n      swap2\n      sub\n      swap1\n      revert\n    tag_265:\n        /* \"contracts/Vote/VoterContract.sol\":7230:7234  vote */\n      dup3\n        /* \"contracts/Vote/VoterContract.sol\":7202:7211  votePower */\n      0x03\n        /* \"contracts/Vote/VoterContract.sol\":7202:7215  votePower[id] */\n      0x00\n        /* \"contracts/Vote/VoterContract.sol\":7212:7214  id */\n      dup7\n        /* \"contracts/Vote/VoterContract.sol\":7202:7215  votePower[id] */\n      0xffff\n      and\n      0xffff\n      and\n      dup2\n      mstore\n      0x20\n      add\n      swap1\n      dup2\n      mstore\n      0x20\n      add\n      0x00\n      keccak256\n        /* \"contracts/Vote/VoterContract.sol\":7202:7227  votePower[id][msg.sender] */\n      0x00\n        /* \"contracts/Vote/VoterContract.sol\":7216:7226  msg.sender */\n      caller\n        /* \"contracts/Vote/VoterContract.sol\":7202:7227  votePower[id][msg.sender] */\n      0xffffffffffffffffffffffffffffffffffffffff\n      and\n      0xffffffffffffffffffffffffffffffffffffffff\n      and\n      dup2\n      mstore\n      0x20\n      add\n      swap1\n      dup2\n      mstore\n      0x20\n      add\n      0x00\n      keccak256\n      0x00\n        /* \"contracts/Vote/VoterContract.sol\":7202:7234  votePower[id][msg.sender] = vote */\n      0x0100\n      exp\n      dup2\n      sload\n      dup2\n      0xff\n      mul\n      not\n      and\n      swap1\n      dup4\n      0xff\n      and\n      mul\n      or\n      swap1\n      sstore\n      pop\n        /* \"contracts/Vote/VoterContract.sol\":7267:7271  vote */\n      dup3\n        /* \"contracts/Vote/VoterContract.sol\":7245:7271  votings[id].result += vote */\n      0xff\n      and\n        /* \"contracts/Vote/VoterContract.sol\":7245:7252  votings */\n      0x04\n        /* \"contracts/Vote/VoterContract.sol\":7245:7256  votings[id] */\n      0x00\n        /* \"contracts/Vote/VoterContract.sol\":7253:7255  id */\n      dup7\n        /* \"contracts/Vote/VoterContract.sol\":7245:7256  votings[id] */\n      0xffff\n      and\n      0xffff\n      and\n      dup2\n      mstore\n      0x20\n      add\n      swap1\n      dup2\n      mstore\n      0x20\n      add\n      0x00\n      keccak256\n        /* \"contracts/Vote/VoterContract.sol\":7245:7263  votings[id].result */\n      0x02\n      add\n      0x04\n        /* \"contracts/Vote/VoterContract.sol\":7245:7271  votings[id].result += vote */\n      dup3\n      dup3\n      dup3\n      swap1\n      sload\n      swap1\n      0x0100\n      exp\n      swap1\n      div\n      0xffffffff\n      and\n      tag_267\n      swap2\n      swap1\n      tag_240\n      jump\t// in\n    tag_267:\n      swap3\n      pop\n      0x0100\n      exp\n      dup2\n      sload\n      dup2\n      0xffffffff\n      mul\n      not\n      and\n      swap1\n      dup4\n      0xffffffff\n      and\n      mul\n      or\n      swap1\n      sstore\n      pop\n        /* \"contracts/Vote/VoterContract.sol\":7303:7304  1 */\n      0x01\n        /* \"contracts/Vote/VoterContract.sol\":7282:7289  votings */\n      0x04\n        /* \"contracts/Vote/VoterContract.sol\":7282:7293  votings[id] */\n      0x00\n        /* \"contracts/Vote/VoterContract.sol\":7290:7292  id */\n      dup7\n        /* \"contracts/Vote/VoterContract.sol\":7282:7293  votings[id] */\n      0xffff\n      and\n      0xffff\n      and\n      dup2\n      mstore\n      0x20\n      add\n      swap1\n      dup2\n      mstore\n      0x20\n      add\n      0x00\n      keccak256\n        /* \"contracts/Vote/VoterContract.sol\":7282:7299  votings[id].voted */\n      0x02\n      add\n      0x00\n        /* \"contracts/Vote/VoterContract.sol\":7282:7304  votings[id].voted += 1 */\n      dup3\n      dup3\n      dup3\n      swap1\n      sload\n      swap1\n      0x0100\n      exp\n      swap1\n      div\n      0xffffffff\n      and\n      tag_268\n      swap2\n      swap1\n      tag_240\n      jump\t// in\n    tag_268:\n      swap3\n      pop\n      0x0100\n      exp\n      dup2\n      sload\n      dup2\n      0xffffffff\n      mul\n      not\n      and\n      swap1\n      dup4\n      0xffffffff\n      and\n      mul\n      or\n      swap1\n      sstore\n      pop\n        /* \"contracts/Vote/VoterContract.sol\":2756:2757  _ */\n      pop\n        /* \"contracts/Vote/VoterContract.sol\":6907:7312  function useVotePowerOne2Ten(uint16 id,uint8 vote) external isVotingContinuing(id) onlyNotVotedVoters(id){\r... */\n      pop\n      pop\n      pop\n      jump\t// out\n        /* \"contracts/Vote/VoterContract.sol\":1689:1723  uint16 public  totalVoterCount = 0 */\n    tag_64:\n      0x07\n      0x04\n      swap1\n      sload\n      swap1\n      0x0100\n      exp\n      swap1\n      div\n      0xffff\n      and\n      dup2\n      jump\t// out\n        /* \"@openzeppelin/contracts/access/Ownable.sol\":1824:1925  function renounceOwnership() public virtual onlyOwner {... */\n    tag_67:\n        /* \"@openzeppelin/contracts/access/Ownable.sol\":1094:1107  _checkOwner() */\n      tag_270\n        /* \"@openzeppelin/contracts/access/Ownable.sol\":1094:1105  _checkOwner */\n      tag_271\n        /* \"@openzeppelin/contracts/access/Ownable.sol\":1094:1107  _checkOwner() */\n      jump\t// in\n    tag_270:\n        /* \"@openzeppelin/contracts/access/Ownable.sol\":1888:1918  _transferOwnership(address(0)) */\n      tag_273\n        /* \"@openzeppelin/contracts/access/Ownable.sol\":1915:1916  0 */\n      0x00\n        /* \"@openzeppelin/contracts/access/Ownable.sol\":1888:1906  _transferOwnership */\n      tag_274\n        /* \"@openzeppelin/contracts/access/Ownable.sol\":1888:1918  _transferOwnership(address(0)) */\n      jump\t// in\n    tag_273:\n        /* \"@openzeppelin/contracts/access/Ownable.sol\":1824:1925  function renounceOwnership() public virtual onlyOwner {... */\n      jump\t// out\n        /* \"@openzeppelin/contracts/access/Ownable.sol\":1201:1286  function owner() public view virtual returns (address) {... */\n    tag_69:\n        /* \"@openzeppelin/contracts/access/Ownable.sol\":1247:1254  address */\n      0x00\n        /* \"@openzeppelin/contracts/access/Ownable.sol\":1273:1279  _owner */\n      dup1\n      0x00\n      swap1\n      sload\n      swap1\n      0x0100\n      exp\n      swap1\n      div\n      0xffffffffffffffffffffffffffffffffffffffff\n      and\n        /* \"@openzeppelin/contracts/access/Ownable.sol\":1266:1279  return _owner */\n      swap1\n      pop\n        /* \"@openzeppelin/contracts/access/Ownable.sol\":1201:1286  function owner() public view virtual returns (address) {... */\n      swap1\n      jump\t// out\n        /* \"contracts/Vote/VoterContract.sol\":9867:10181  function whatDidIVoteForProposals(uint16[] memory idList) external view returns(uint8[] memory){\r... */\n    tag_74:\n        /* \"contracts/Vote/VoterContract.sol\":9947:9961  uint8[] memory */\n      0x60\n        /* \"contracts/Vote/VoterContract.sol\":9973:9993  uint8[] memory voted */\n      0x00\n        /* \"contracts/Vote/VoterContract.sol\":10008:10014  idList */\n      dup3\n        /* \"contracts/Vote/VoterContract.sol\":10008:10021  idList.length */\n      mload\n        /* \"contracts/Vote/VoterContract.sol\":9996:10022  new uint8[](idList.length) */\n      0xffffffffffffffff\n      dup2\n      gt\n      iszero\n      tag_277\n      jumpi\n      tag_278\n      tag_163\n      jump\t// in\n    tag_278:\n    tag_277:\n      mload(0x40)\n      swap1\n      dup1\n      dup3\n      mstore\n      dup1\n      0x20\n      mul\n      0x20\n      add\n      dup3\n      add\n      0x40\n      mstore\n      dup1\n      iszero\n      tag_279\n      jumpi\n      dup2\n      0x20\n      add\n      0x20\n      dup3\n      mul\n      dup1\n      calldatasize\n      dup4\n      calldatacopy\n      dup1\n      dup3\n      add\n      swap2\n      pop\n      pop\n      swap1\n      pop\n    tag_279:\n      pop\n        /* \"contracts/Vote/VoterContract.sol\":9973:10022  uint8[] memory voted = new uint8[](idList.length) */\n      swap1\n      pop\n        /* \"contracts/Vote/VoterContract.sol\":10039:10046  uint8 i */\n      0x00\n        /* \"contracts/Vote/VoterContract.sol\":10035:10151  for(uint8 i = 0; i < idList.length; i++){\r... */\n    tag_280:\n        /* \"contracts/Vote/VoterContract.sol\":10056:10062  idList */\n      dup4\n        /* \"contracts/Vote/VoterContract.sol\":10056:10069  idList.length */\n      mload\n        /* \"contracts/Vote/VoterContract.sol\":10052:10053  i */\n      dup2\n        /* \"contracts/Vote/VoterContract.sol\":10052:10069  i < idList.length */\n      0xff\n      and\n      lt\n        /* \"contracts/Vote/VoterContract.sol\":10035:10151  for(uint8 i = 0; i < idList.length; i++){\r... */\n      iszero\n      tag_281\n      jumpi\n        /* \"contracts/Vote/VoterContract.sol\":10099:10116  proposalVotePower */\n      0x05\n        /* \"contracts/Vote/VoterContract.sol\":10099:10127  proposalVotePower[idList[i]] */\n      0x00\n        /* \"contracts/Vote/VoterContract.sol\":10117:10123  idList */\n      dup6\n        /* \"contracts/Vote/VoterContract.sol\":10124:10125  i */\n      dup4\n        /* \"contracts/Vote/VoterContract.sol\":10117:10126  idList[i] */\n      0xff\n      and\n      dup2\n      mload\n      dup2\n      lt\n      tag_283\n      jumpi\n      tag_284\n      tag_191\n      jump\t// in\n    tag_284:\n    tag_283:\n      0x20\n      mul\n      0x20\n      add\n      add\n      mload\n        /* \"contracts/Vote/VoterContract.sol\":10099:10127  proposalVotePower[idList[i]] */\n      0xffff\n      and\n      0xffff\n      and\n      dup2\n      mstore\n      0x20\n      add\n      swap1\n      dup2\n      mstore\n      0x20\n      add\n      0x00\n      keccak256\n        /* \"contracts/Vote/VoterContract.sol\":10099:10139  proposalVotePower[idList[i]][msg.sender] */\n      0x00\n        /* \"contracts/Vote/VoterContract.sol\":10128:10138  msg.sender */\n      caller\n        /* \"contracts/Vote/VoterContract.sol\":10099:10139  proposalVotePower[idList[i]][msg.sender] */\n      0xffffffffffffffffffffffffffffffffffffffff\n      and\n      0xffffffffffffffffffffffffffffffffffffffff\n      and\n      dup2\n      mstore\n      0x20\n      add\n      swap1\n      dup2\n      mstore\n      0x20\n      add\n      0x00\n      keccak256\n      0x00\n      swap1\n      sload\n      swap1\n      0x0100\n      exp\n      swap1\n      div\n      0xff\n      and\n        /* \"contracts/Vote/VoterContract.sol\":10090:10095  voted */\n      dup3\n        /* \"contracts/Vote/VoterContract.sol\":10096:10097  i */\n      dup3\n        /* \"contracts/Vote/VoterContract.sol\":10090:10098  voted[i] */\n      0xff\n      and\n      dup2\n      mload\n      dup2\n      lt\n      tag_285\n      jumpi\n      tag_286\n      tag_191\n      jump\t// in\n    tag_286:\n    tag_285:\n      0x20\n      mul\n      0x20\n      add\n      add\n        /* \"contracts/Vote/VoterContract.sol\":10090:10139  voted[i]=proposalVotePower[idList[i]][msg.sender] */\n      swap1\n      0xff\n      and\n      swap1\n      dup2\n      0xff\n      and\n      dup2\n      mstore\n      pop\n      pop\n        /* \"contracts/Vote/VoterContract.sol\":10071:10074  i++ */\n      dup1\n      dup1\n      tag_287\n      swap1\n      tag_288\n      jump\t// in\n    tag_287:\n      swap2\n      pop\n      pop\n        /* \"contracts/Vote/VoterContract.sol\":10035:10151  for(uint8 i = 0; i < idList.length; i++){\r... */\n      jump(tag_280)\n    tag_281:\n      pop\n        /* \"contracts/Vote/VoterContract.sol\":10168:10173  voted */\n      dup1\n        /* \"contracts/Vote/VoterContract.sol\":10161:10173  return voted */\n      swap2\n      pop\n      pop\n        /* \"contracts/Vote/VoterContract.sol\":9867:10181  function whatDidIVoteForProposals(uint16[] memory idList) external view returns(uint8[] memory){\r... */\n      swap2\n      swap1\n      pop\n      jump\t// out\n        /* \"contracts/Vote/VoterContract.sol\":7851:8303  function useVotePowerProposalOne2Ten(uint16 id,uint8 vote) external isProposalContinuing(id) onlyNotVotedVotersForProposal(id){\r... */\n    tag_79:\n        /* \"contracts/Vote/VoterContract.sol\":7940:7942  id */\n      dup2\n        /* \"contracts/Vote/VoterContract.sol\":3015:3032  VotingType.Closed */\n      0x00\n        /* \"contracts/Vote/VoterContract.sol\":2987:3032  proposals[id].proposalType!=VotingType.Closed */\n      0x02\n      dup2\n      gt\n      iszero\n      tag_290\n      jumpi\n      tag_291\n      tag_122\n      jump\t// in\n    tag_291:\n    tag_290:\n        /* \"contracts/Vote/VoterContract.sol\":2987:2996  proposals */\n      0x06\n        /* \"contracts/Vote/VoterContract.sol\":2987:3000  proposals[id] */\n      0x00\n        /* \"contracts/Vote/VoterContract.sol\":2997:2999  id */\n      dup4\n        /* \"contracts/Vote/VoterContract.sol\":2987:3000  proposals[id] */\n      0xffff\n      and\n      0xffff\n      and\n      dup2\n      mstore\n      0x20\n      add\n      swap1\n      dup2\n      mstore\n      0x20\n      add\n      0x00\n      keccak256\n        /* \"contracts/Vote/VoterContract.sol\":2987:3013  proposals[id].proposalType */\n      0x06\n      add\n      0x00\n      swap1\n      sload\n      swap1\n      0x0100\n      exp\n      swap1\n      div\n      0xff\n      and\n        /* \"contracts/Vote/VoterContract.sol\":2987:3032  proposals[id].proposalType!=VotingType.Closed */\n      0x02\n      dup2\n      gt\n      iszero\n      tag_292\n      jumpi\n      tag_293\n      tag_122\n      jump\t// in\n    tag_293:\n    tag_292:\n      eq\n      iszero\n        /* \"contracts/Vote/VoterContract.sol\":2979:3054  require(proposals[id].proposalType!=VotingType.Closed,\"There is no voting\") */\n      tag_294\n      jumpi\n      mload(0x40)\n      0x08c379a000000000000000000000000000000000000000000000000000000000\n      dup2\n      mstore\n      0x04\n      add\n      tag_295\n      swap1\n      tag_127\n      jump\t// in\n    tag_295:\n      mload(0x40)\n      dup1\n      swap2\n      sub\n      swap1\n      revert\n    tag_294:\n        /* \"contracts/Vote/VoterContract.sol\":7974:7976  id */\n      dup3\n        /* \"contracts/Vote/VoterContract.sol\":2473:2483  __VOTERS__ */\n      0x02\n        /* \"contracts/Vote/VoterContract.sol\":2473:2495  __VOTERS__[msg.sender] */\n      0x00\n        /* \"contracts/Vote/VoterContract.sol\":2484:2494  msg.sender */\n      caller\n        /* \"contracts/Vote/VoterContract.sol\":2473:2495  __VOTERS__[msg.sender] */\n      0xffffffffffffffffffffffffffffffffffffffff\n      and\n      0xffffffffffffffffffffffffffffffffffffffff\n      and\n      dup2\n      mstore\n      0x20\n      add\n      swap1\n      dup2\n      mstore\n      0x20\n      add\n      0x00\n      keccak256\n      0x00\n      swap1\n      sload\n      swap1\n      0x0100\n      exp\n      swap1\n      div\n      0xff\n      and\n        /* \"contracts/Vote/VoterContract.sol\":2465:2518  require(__VOTERS__[msg.sender],\"You are not a voter\") */\n      tag_297\n      jumpi\n      mload(0x40)\n      0x08c379a000000000000000000000000000000000000000000000000000000000\n      dup2\n      mstore\n      0x04\n      add\n      tag_298\n      swap1\n      tag_222\n      jump\t// in\n    tag_298:\n      mload(0x40)\n      dup1\n      swap2\n      sub\n      swap1\n      revert\n    tag_297:\n        /* \"contracts/Vote/VoterContract.sol\":2572:2573  0 */\n      0x00\n        /* \"contracts/Vote/VoterContract.sol\":2537:2554  proposalVotePower */\n      0x05\n        /* \"contracts/Vote/VoterContract.sol\":2537:2558  proposalVotePower[id] */\n      0x00\n        /* \"contracts/Vote/VoterContract.sol\":2555:2557  id */\n      dup4\n        /* \"contracts/Vote/VoterContract.sol\":2537:2558  proposalVotePower[id] */\n      0xffff\n      and\n      0xffff\n      and\n      dup2\n      mstore\n      0x20\n      add\n      swap1\n      dup2\n      mstore\n      0x20\n      add\n      0x00\n      keccak256\n        /* \"contracts/Vote/VoterContract.sol\":2537:2570  proposalVotePower[id][msg.sender] */\n      0x00\n        /* \"contracts/Vote/VoterContract.sol\":2559:2569  msg.sender */\n      caller\n        /* \"contracts/Vote/VoterContract.sol\":2537:2570  proposalVotePower[id][msg.sender] */\n      0xffffffffffffffffffffffffffffffffffffffff\n      and\n      0xffffffffffffffffffffffffffffffffffffffff\n      and\n      dup2\n      mstore\n      0x20\n      add\n      swap1\n      dup2\n      mstore\n      0x20\n      add\n      0x00\n      keccak256\n      0x00\n      swap1\n      sload\n      swap1\n      0x0100\n      exp\n      swap1\n      div\n      0xff\n      and\n        /* \"contracts/Vote/VoterContract.sol\":2537:2573  proposalVotePower[id][msg.sender]==0 */\n      0xff\n      and\n      eq\n        /* \"contracts/Vote/VoterContract.sol\":2529:2598  require(proposalVotePower[id][msg.sender]==0,\"You have voted before\") */\n      tag_299\n      jumpi\n      mload(0x40)\n      0x08c379a000000000000000000000000000000000000000000000000000000000\n      dup2\n      mstore\n      0x04\n      add\n      tag_300\n      swap1\n      tag_225\n      jump\t// in\n    tag_300:\n      mload(0x40)\n      dup1\n      swap2\n      sub\n      swap1\n      revert\n    tag_299:\n        /* \"contracts/Vote/VoterContract.sol\":7998:8002  vote */\n      dup3\n        /* \"contracts/Vote/VoterContract.sol\":7996:8002  0<vote */\n      0xff\n      and\n        /* \"contracts/Vote/VoterContract.sol\":7996:7997  0 */\n      0x00\n        /* \"contracts/Vote/VoterContract.sol\":7996:8002  0<vote */\n      lt\n        /* \"contracts/Vote/VoterContract.sol\":7996:8011  0<vote&&vote<11 */\n      dup1\n      iszero\n      tag_302\n      jumpi\n      pop\n        /* \"contracts/Vote/VoterContract.sol\":8009:8011  11 */\n      0x0b\n        /* \"contracts/Vote/VoterContract.sol\":8004:8008  vote */\n      dup4\n        /* \"contracts/Vote/VoterContract.sol\":8004:8011  vote<11 */\n      0xff\n      and\n      lt\n        /* \"contracts/Vote/VoterContract.sol\":7996:8011  0<vote&&vote<11 */\n    tag_302:\n        /* \"contracts/Vote/VoterContract.sol\":7988:8043  require(0<vote&&vote<11,\"Please vote between 1 to 10.\") */\n      tag_303\n      jumpi\n      mload(0x40)\n      0x08c379a000000000000000000000000000000000000000000000000000000000\n      dup2\n      mstore\n      0x04\n      add\n      tag_304\n      swap1\n      tag_260\n      jump\t// in\n    tag_304:\n      mload(0x40)\n      dup1\n      swap2\n      sub\n      swap1\n      revert\n    tag_303:\n        /* \"contracts/Vote/VoterContract.sol\":8090:8109  VotingType.OneToTen */\n      0x02\n        /* \"contracts/Vote/VoterContract.sol\":8062:8109  proposals[id].proposalType==VotingType.OneToTen */\n      dup1\n      dup2\n      gt\n      iszero\n      tag_305\n      jumpi\n      tag_306\n      tag_122\n      jump\t// in\n    tag_306:\n    tag_305:\n        /* \"contracts/Vote/VoterContract.sol\":8062:8071  proposals */\n      0x06\n        /* \"contracts/Vote/VoterContract.sol\":8062:8075  proposals[id] */\n      0x00\n        /* \"contracts/Vote/VoterContract.sol\":8072:8074  id */\n      dup7\n        /* \"contracts/Vote/VoterContract.sol\":8062:8075  proposals[id] */\n      0xffff\n      and\n      0xffff\n      and\n      dup2\n      mstore\n      0x20\n      add\n      swap1\n      dup2\n      mstore\n      0x20\n      add\n      0x00\n      keccak256\n        /* \"contracts/Vote/VoterContract.sol\":8062:8088  proposals[id].proposalType */\n      0x06\n      add\n      0x00\n      swap1\n      sload\n      swap1\n      0x0100\n      exp\n      swap1\n      div\n      0xff\n      and\n        /* \"contracts/Vote/VoterContract.sol\":8062:8109  proposals[id].proposalType==VotingType.OneToTen */\n      0x02\n      dup2\n      gt\n      iszero\n      tag_307\n      jumpi\n      tag_308\n      tag_122\n      jump\t// in\n    tag_308:\n    tag_307:\n      eq\n        /* \"contracts/Vote/VoterContract.sol\":8054:8158  require(proposals[id].proposalType==VotingType.OneToTen,\"Currently we are not voting on this function.\") */\n      tag_309\n      jumpi\n      mload(0x40)\n      0x08c379a000000000000000000000000000000000000000000000000000000000\n      dup2\n      mstore\n      0x04\n      add\n      tag_310\n      swap1\n      tag_233\n      jump\t// in\n    tag_310:\n      mload(0x40)\n      dup1\n      swap2\n      sub\n      swap1\n      revert\n    tag_309:\n        /* \"contracts/Vote/VoterContract.sol\":8207:8211  vote */\n      dup3\n        /* \"contracts/Vote/VoterContract.sol\":8171:8188  proposalVotePower */\n      0x05\n        /* \"contracts/Vote/VoterContract.sol\":8171:8192  proposalVotePower[id] */\n      0x00\n        /* \"contracts/Vote/VoterContract.sol\":8189:8191  id */\n      dup7\n        /* \"contracts/Vote/VoterContract.sol\":8171:8192  proposalVotePower[id] */\n      0xffff\n      and\n      0xffff\n      and\n      dup2\n      mstore\n      0x20\n      add\n      swap1\n      dup2\n      mstore\n      0x20\n      add\n      0x00\n      keccak256\n        /* \"contracts/Vote/VoterContract.sol\":8171:8204  proposalVotePower[id][msg.sender] */\n      0x00\n        /* \"contracts/Vote/VoterContract.sol\":8193:8203  msg.sender */\n      caller\n        /* \"contracts/Vote/VoterContract.sol\":8171:8204  proposalVotePower[id][msg.sender] */\n      0xffffffffffffffffffffffffffffffffffffffff\n      and\n      0xffffffffffffffffffffffffffffffffffffffff\n      and\n      dup2\n      mstore\n      0x20\n      add\n      swap1\n      dup2\n      mstore\n      0x20\n      add\n      0x00\n      keccak256\n      0x00\n        /* \"contracts/Vote/VoterContract.sol\":8171:8211  proposalVotePower[id][msg.sender] = vote */\n      0x0100\n      exp\n      dup2\n      sload\n      dup2\n      0xff\n      mul\n      not\n      and\n      swap1\n      dup4\n      0xff\n      and\n      mul\n      or\n      swap1\n      sstore\n      pop\n        /* \"contracts/Vote/VoterContract.sol\":8256:8260  vote */\n      dup3\n        /* \"contracts/Vote/VoterContract.sol\":8232:8260  proposals[id].result += vote */\n      0xff\n      and\n        /* \"contracts/Vote/VoterContract.sol\":8232:8241  proposals */\n      0x06\n        /* \"contracts/Vote/VoterContract.sol\":8232:8245  proposals[id] */\n      0x00\n        /* \"contracts/Vote/VoterContract.sol\":8242:8244  id */\n      dup7\n        /* \"contracts/Vote/VoterContract.sol\":8232:8245  proposals[id] */\n      0xffff\n      and\n      0xffff\n      and\n      dup2\n      mstore\n      0x20\n      add\n      swap1\n      dup2\n      mstore\n      0x20\n      add\n      0x00\n      keccak256\n        /* \"contracts/Vote/VoterContract.sol\":8232:8252  proposals[id].result */\n      0x02\n      add\n      0x04\n        /* \"contracts/Vote/VoterContract.sol\":8232:8260  proposals[id].result += vote */\n      dup3\n      dup3\n      dup3\n      swap1\n      sload\n      swap1\n      0x0100\n      exp\n      swap1\n      div\n      0xffffffff\n      and\n      tag_311\n      swap2\n      swap1\n      tag_240\n      jump\t// in\n    tag_311:\n      swap3\n      pop\n      0x0100\n      exp\n      dup2\n      sload\n      dup2\n      0xffffffff\n      mul\n      not\n      and\n      swap1\n      dup4\n      0xffffffff\n      and\n      mul\n      or\n      swap1\n      sstore\n      pop\n        /* \"contracts/Vote/VoterContract.sol\":8294:8295  1 */\n      0x01\n        /* \"contracts/Vote/VoterContract.sol\":8271:8280  proposals */\n      0x06\n        /* \"contracts/Vote/VoterContract.sol\":8271:8284  proposals[id] */\n      0x00\n        /* \"contracts/Vote/VoterContract.sol\":8281:8283  id */\n      dup7\n        /* \"contracts/Vote/VoterContract.sol\":8271:8284  proposals[id] */\n      0xffff\n      and\n      0xffff\n      and\n      dup2\n      mstore\n      0x20\n      add\n      swap1\n      dup2\n      mstore\n      0x20\n      add\n      0x00\n      keccak256\n        /* \"contracts/Vote/VoterContract.sol\":8271:8290  proposals[id].voted */\n      0x02\n      add\n      0x00\n        /* \"contracts/Vote/VoterContract.sol\":8271:8295  proposals[id].voted += 1 */\n      dup3\n      dup3\n      dup3\n      swap1\n      sload\n      swap1\n      0x0100\n      exp\n      swap1\n      div\n      0xffffffff\n      and\n      tag_312\n      swap2\n      swap1\n      tag_240\n      jump\t// in\n    tag_312:\n      swap3\n      pop\n      0x0100\n      exp\n      dup2\n      sload\n      dup2\n      0xffffffff\n      mul\n      not\n      and\n      swap1\n      dup4\n      0xffffffff\n      and\n      mul\n      or\n      swap1\n      sstore\n      pop\n        /* \"contracts/Vote/VoterContract.sol\":3065:3066  _ */\n      pop\n        /* \"contracts/Vote/VoterContract.sol\":7851:8303  function useVotePowerProposalOne2Ten(uint16 id,uint8 vote) external isProposalContinuing(id) onlyNotVotedVotersForProposal(id){\r... */\n      pop\n      pop\n      pop\n      jump\t// out\n        /* \"contracts/Vote/VoterContract.sol\":3276:3370  function setKeyHolderAddress(address adr) external onlyOwner{\r... */\n    tag_83:\n        /* \"@openzeppelin/contracts/access/Ownable.sol\":1094:1107  _checkOwner() */\n      tag_314\n        /* \"@openzeppelin/contracts/access/Ownable.sol\":1094:1105  _checkOwner */\n      tag_271\n        /* \"@openzeppelin/contracts/access/Ownable.sol\":1094:1107  _checkOwner() */\n      jump\t// in\n    tag_314:\n        /* \"contracts/Vote/VoterContract.sol\":3359:3362  adr */\n      dup1\n        /* \"contracts/Vote/VoterContract.sol\":3347:3356  keyHolder */\n      0x01\n      0x00\n        /* \"contracts/Vote/VoterContract.sol\":3347:3362  keyHolder = adr */\n      0x0100\n      exp\n      dup2\n      sload\n      dup2\n      0xffffffffffffffffffffffffffffffffffffffff\n      mul\n      not\n      and\n      swap1\n      dup4\n      0xffffffffffffffffffffffffffffffffffffffff\n      and\n      mul\n      or\n      swap1\n      sstore\n      pop\n        /* \"contracts/Vote/VoterContract.sol\":3276:3370  function setKeyHolderAddress(address adr) external onlyOwner{\r... */\n      pop\n      jump\t// out\n        /* \"contracts/Vote/VoterContract.sol\":1514:1558  mapping(uint16 => Proposal) public proposals */\n    tag_86:\n      mstore(0x20, 0x06)\n      dup1\n      0x00\n      mstore\n      keccak256(0x00, 0x40)\n      0x00\n      swap2\n      pop\n      swap1\n      pop\n      dup1\n      0x00\n      add\n      0x00\n      swap1\n      sload\n      swap1\n      0x0100\n      exp\n      swap1\n      div\n      0xffff\n      and\n      swap1\n      dup1\n      0x01\n      add\n      dup1\n      sload\n      tag_316\n      swap1\n      tag_179\n      jump\t// in\n    tag_316:\n      dup1\n      0x1f\n      add\n      0x20\n      dup1\n      swap2\n      div\n      mul\n      0x20\n      add\n      mload(0x40)\n      swap1\n      dup2\n      add\n      0x40\n      mstore\n      dup1\n      swap3\n      swap2\n      swap1\n      dup2\n      dup2\n      mstore\n      0x20\n      add\n      dup3\n      dup1\n      sload\n      tag_317\n      swap1\n      tag_179\n      jump\t// in\n    tag_317:\n      dup1\n      iszero\n      tag_318\n      jumpi\n      dup1\n      0x1f\n      lt\n      tag_319\n      jumpi\n      0x0100\n      dup1\n      dup4\n      sload\n      div\n      mul\n      dup4\n      mstore\n      swap2\n      0x20\n      add\n      swap2\n      jump(tag_318)\n    tag_319:\n      dup3\n      add\n      swap2\n      swap1\n      0x00\n      mstore\n      keccak256(0x00, 0x20)\n      swap1\n    tag_320:\n      dup2\n      sload\n      dup2\n      mstore\n      swap1\n      0x01\n      add\n      swap1\n      0x20\n      add\n      dup1\n      dup4\n      gt\n      tag_320\n      jumpi\n      dup3\n      swap1\n      sub\n      0x1f\n      and\n      dup3\n      add\n      swap2\n    tag_318:\n      pop\n      pop\n      pop\n      pop\n      pop\n      swap1\n      dup1\n      0x02\n      add\n      0x00\n      swap1\n      sload\n      swap1\n      0x0100\n      exp\n      swap1\n      div\n      0xffffffff\n      and\n      swap1\n      dup1\n      0x02\n      add\n      0x04\n      swap1\n      sload\n      swap1\n      0x0100\n      exp\n      swap1\n      div\n      0xffffffff\n      and\n      swap1\n      dup1\n      0x02\n      add\n      0x08\n      swap1\n      sload\n      swap1\n      0x0100\n      exp\n      swap1\n      div\n      0xffffffffffffffffffffffffffffffffffffffff\n      and\n      swap1\n      dup1\n      0x03\n      add\n      sload\n      swap1\n      dup1\n      0x04\n      add\n      sload\n      swap1\n      dup1\n      0x05\n      add\n      sload\n      swap1\n      dup1\n      0x06\n      add\n      0x00\n      swap1\n      sload\n      swap1\n      0x0100\n      exp\n      swap1\n      div\n      0xff\n      and\n      swap1\n      pop\n      dup10\n      jump\t// out\n        /* \"contracts/Vote/VoterContract.sol\":7320:7843  function useVotePowerProposalYesNo(uint16 id,NoYes vote) external isProposalContinuing(id) onlyNotVotedVotersForProposal(id){\r... */\n    tag_91:\n        /* \"contracts/Vote/VoterContract.sol\":7407:7409  id */\n      dup2\n        /* \"contracts/Vote/VoterContract.sol\":3015:3032  VotingType.Closed */\n      0x00\n        /* \"contracts/Vote/VoterContract.sol\":2987:3032  proposals[id].proposalType!=VotingType.Closed */\n      0x02\n      dup2\n      gt\n      iszero\n      tag_322\n      jumpi\n      tag_323\n      tag_122\n      jump\t// in\n    tag_323:\n    tag_322:\n        /* \"contracts/Vote/VoterContract.sol\":2987:2996  proposals */\n      0x06\n        /* \"contracts/Vote/VoterContract.sol\":2987:3000  proposals[id] */\n      0x00\n        /* \"contracts/Vote/VoterContract.sol\":2997:2999  id */\n      dup4\n        /* \"contracts/Vote/VoterContract.sol\":2987:3000  proposals[id] */\n      0xffff\n      and\n      0xffff\n      and\n      dup2\n      mstore\n      0x20\n      add\n      swap1\n      dup2\n      mstore\n      0x20\n      add\n      0x00\n      keccak256\n        /* \"contracts/Vote/VoterContract.sol\":2987:3013  proposals[id].proposalType */\n      0x06\n      add\n      0x00\n      swap1\n      sload\n      swap1\n      0x0100\n      exp\n      swap1\n      div\n      0xff\n      and\n        /* \"contracts/Vote/VoterContract.sol\":2987:3032  proposals[id].proposalType!=VotingType.Closed */\n      0x02\n      dup2\n      gt\n      iszero\n      tag_324\n      jumpi\n      tag_325\n      tag_122\n      jump\t// in\n    tag_325:\n    tag_324:\n      eq\n      iszero\n        /* \"contracts/Vote/VoterContract.sol\":2979:3054  require(proposals[id].proposalType!=VotingType.Closed,\"There is no voting\") */\n      tag_326\n      jumpi\n      mload(0x40)\n      0x08c379a000000000000000000000000000000000000000000000000000000000\n      dup2\n      mstore\n      0x04\n      add\n      tag_327\n      swap1\n      tag_127\n      jump\t// in\n    tag_327:\n      mload(0x40)\n      dup1\n      swap2\n      sub\n      swap1\n      revert\n    tag_326:\n        /* \"contracts/Vote/VoterContract.sol\":7441:7443  id */\n      dup3\n        /* \"contracts/Vote/VoterContract.sol\":2473:2483  __VOTERS__ */\n      0x02\n        /* \"contracts/Vote/VoterContract.sol\":2473:2495  __VOTERS__[msg.sender] */\n      0x00\n        /* \"contracts/Vote/VoterContract.sol\":2484:2494  msg.sender */\n      caller\n        /* \"contracts/Vote/VoterContract.sol\":2473:2495  __VOTERS__[msg.sender] */\n      0xffffffffffffffffffffffffffffffffffffffff\n      and\n      0xffffffffffffffffffffffffffffffffffffffff\n      and\n      dup2\n      mstore\n      0x20\n      add\n      swap1\n      dup2\n      mstore\n      0x20\n      add\n      0x00\n      keccak256\n      0x00\n      swap1\n      sload\n      swap1\n      0x0100\n      exp\n      swap1\n      div\n      0xff\n      and\n        /* \"contracts/Vote/VoterContract.sol\":2465:2518  require(__VOTERS__[msg.sender],\"You are not a voter\") */\n      tag_329\n      jumpi\n      mload(0x40)\n      0x08c379a000000000000000000000000000000000000000000000000000000000\n      dup2\n      mstore\n      0x04\n      add\n      tag_330\n      swap1\n      tag_222\n      jump\t// in\n    tag_330:\n      mload(0x40)\n      dup1\n      swap2\n      sub\n      swap1\n      revert\n    tag_329:\n        /* \"contracts/Vote/VoterContract.sol\":2572:2573  0 */\n      0x00\n        /* \"contracts/Vote/VoterContract.sol\":2537:2554  proposalVotePower */\n      0x05\n        /* \"contracts/Vote/VoterContract.sol\":2537:2558  proposalVotePower[id] */\n      0x00\n        /* \"contracts/Vote/VoterContract.sol\":2555:2557  id */\n      dup4\n        /* \"contracts/Vote/VoterContract.sol\":2537:2558  proposalVotePower[id] */\n      0xffff\n      and\n      0xffff\n      and\n      dup2\n      mstore\n      0x20\n      add\n      swap1\n      dup2\n      mstore\n      0x20\n      add\n      0x00\n      keccak256\n        /* \"contracts/Vote/VoterContract.sol\":2537:2570  proposalVotePower[id][msg.sender] */\n      0x00\n        /* \"contracts/Vote/VoterContract.sol\":2559:2569  msg.sender */\n      caller\n        /* \"contracts/Vote/VoterContract.sol\":2537:2570  proposalVotePower[id][msg.sender] */\n      0xffffffffffffffffffffffffffffffffffffffff\n      and\n      0xffffffffffffffffffffffffffffffffffffffff\n      and\n      dup2\n      mstore\n      0x20\n      add\n      swap1\n      dup2\n      mstore\n      0x20\n      add\n      0x00\n      keccak256\n      0x00\n      swap1\n      sload\n      swap1\n      0x0100\n      exp\n      swap1\n      div\n      0xff\n      and\n        /* \"contracts/Vote/VoterContract.sol\":2537:2573  proposalVotePower[id][msg.sender]==0 */\n      0xff\n      and\n      eq\n        /* \"contracts/Vote/VoterContract.sol\":2529:2598  require(proposalVotePower[id][msg.sender]==0,\"You have voted before\") */\n      tag_331\n      jumpi\n      mload(0x40)\n      0x08c379a000000000000000000000000000000000000000000000000000000000\n      dup2\n      mstore\n      0x04\n      add\n      tag_332\n      swap1\n      tag_225\n      jump\t// in\n    tag_332:\n      mload(0x40)\n      dup1\n      swap2\n      sub\n      swap1\n      revert\n    tag_331:\n        /* \"contracts/Vote/VoterContract.sol\":7491:7507  VotingType.YesNo */\n      0x01\n        /* \"contracts/Vote/VoterContract.sol\":7463:7507  proposals[id].proposalType==VotingType.YesNo */\n      0x02\n      dup2\n      gt\n      iszero\n      tag_334\n      jumpi\n      tag_335\n      tag_122\n      jump\t// in\n    tag_335:\n    tag_334:\n        /* \"contracts/Vote/VoterContract.sol\":7463:7472  proposals */\n      0x06\n        /* \"contracts/Vote/VoterContract.sol\":7463:7476  proposals[id] */\n      0x00\n        /* \"contracts/Vote/VoterContract.sol\":7473:7475  id */\n      dup7\n        /* \"contracts/Vote/VoterContract.sol\":7463:7476  proposals[id] */\n      0xffff\n      and\n      0xffff\n      and\n      dup2\n      mstore\n      0x20\n      add\n      swap1\n      dup2\n      mstore\n      0x20\n      add\n      0x00\n      keccak256\n        /* \"contracts/Vote/VoterContract.sol\":7463:7489  proposals[id].proposalType */\n      0x06\n      add\n      0x00\n      swap1\n      sload\n      swap1\n      0x0100\n      exp\n      swap1\n      div\n      0xff\n      and\n        /* \"contracts/Vote/VoterContract.sol\":7463:7507  proposals[id].proposalType==VotingType.YesNo */\n      0x02\n      dup2\n      gt\n      iszero\n      tag_336\n      jumpi\n      tag_337\n      tag_122\n      jump\t// in\n    tag_337:\n    tag_336:\n      eq\n        /* \"contracts/Vote/VoterContract.sol\":7455:7556  require(proposals[id].proposalType==VotingType.YesNo,\"Currently we are not voting on this function.\") */\n      tag_338\n      jumpi\n      mload(0x40)\n      0x08c379a000000000000000000000000000000000000000000000000000000000\n      dup2\n      mstore\n      0x04\n      add\n      tag_339\n      swap1\n      tag_233\n      jump\t// in\n    tag_339:\n      mload(0x40)\n      dup1\n      swap2\n      sub\n      swap1\n      revert\n    tag_338:\n        /* \"contracts/Vote/VoterContract.sol\":7578:7586  NoYes.No */\n      0x00\n        /* \"contracts/Vote/VoterContract.sol\":7572:7586  vote==NoYes.No */\n      0x01\n      dup2\n      gt\n      iszero\n      tag_340\n      jumpi\n      tag_341\n      tag_122\n      jump\t// in\n    tag_341:\n    tag_340:\n        /* \"contracts/Vote/VoterContract.sol\":7572:7576  vote */\n      dup4\n        /* \"contracts/Vote/VoterContract.sol\":7572:7586  vote==NoYes.No */\n      0x01\n      dup2\n      gt\n      iszero\n      tag_342\n      jumpi\n      tag_343\n      tag_122\n      jump\t// in\n    tag_343:\n    tag_342:\n      eq\n        /* \"contracts/Vote/VoterContract.sol\":7569:7801  if(vote==NoYes.No){\r... */\n      iszero\n      tag_344\n      jumpi\n        /* \"contracts/Vote/VoterContract.sol\":7638:7639  1 */\n      0x01\n        /* \"contracts/Vote/VoterContract.sol\":7602:7619  proposalVotePower */\n      0x05\n        /* \"contracts/Vote/VoterContract.sol\":7602:7623  proposalVotePower[id] */\n      0x00\n        /* \"contracts/Vote/VoterContract.sol\":7620:7622  id */\n      dup7\n        /* \"contracts/Vote/VoterContract.sol\":7602:7623  proposalVotePower[id] */\n      0xffff\n      and\n      0xffff\n      and\n      dup2\n      mstore\n      0x20\n      add\n      swap1\n      dup2\n      mstore\n      0x20\n      add\n      0x00\n      keccak256\n        /* \"contracts/Vote/VoterContract.sol\":7602:7635  proposalVotePower[id][msg.sender] */\n      0x00\n        /* \"contracts/Vote/VoterContract.sol\":7624:7634  msg.sender */\n      caller\n        /* \"contracts/Vote/VoterContract.sol\":7602:7635  proposalVotePower[id][msg.sender] */\n      0xffffffffffffffffffffffffffffffffffffffff\n      and\n      0xffffffffffffffffffffffffffffffffffffffff\n      and\n      dup2\n      mstore\n      0x20\n      add\n      swap1\n      dup2\n      mstore\n      0x20\n      add\n      0x00\n      keccak256\n      0x00\n        /* \"contracts/Vote/VoterContract.sol\":7602:7639  proposalVotePower[id][msg.sender] = 1 */\n      0x0100\n      exp\n      dup2\n      sload\n      dup2\n      0xff\n      mul\n      not\n      and\n      swap1\n      dup4\n      0xff\n      and\n      mul\n      or\n      swap1\n      sstore\n      pop\n        /* \"contracts/Vote/VoterContract.sol\":7678:7679  1 */\n      0x01\n        /* \"contracts/Vote/VoterContract.sol\":7654:7663  proposals */\n      0x06\n        /* \"contracts/Vote/VoterContract.sol\":7654:7667  proposals[id] */\n      0x00\n        /* \"contracts/Vote/VoterContract.sol\":7664:7666  id */\n      dup7\n        /* \"contracts/Vote/VoterContract.sol\":7654:7667  proposals[id] */\n      0xffff\n      and\n      0xffff\n      and\n      dup2\n      mstore\n      0x20\n      add\n      swap1\n      dup2\n      mstore\n      0x20\n      add\n      0x00\n      keccak256\n        /* \"contracts/Vote/VoterContract.sol\":7654:7674  proposals[id].result */\n      0x02\n      add\n      0x04\n        /* \"contracts/Vote/VoterContract.sol\":7654:7679  proposals[id].result += 1 */\n      dup3\n      dup3\n      dup3\n      swap1\n      sload\n      swap1\n      0x0100\n      exp\n      swap1\n      div\n      0xffffffff\n      and\n      tag_345\n      swap2\n      swap1\n      tag_240\n      jump\t// in\n    tag_345:\n      swap3\n      pop\n      0x0100\n      exp\n      dup2\n      sload\n      dup2\n      0xffffffff\n      mul\n      not\n      and\n      swap1\n      dup4\n      0xffffffff\n      and\n      mul\n      or\n      swap1\n      sstore\n      pop\n        /* \"contracts/Vote/VoterContract.sol\":7569:7801  if(vote==NoYes.No){\r... */\n      jump(tag_346)\n    tag_344:\n        /* \"contracts/Vote/VoterContract.sol\":7746:7748  10 */\n      0x0a\n        /* \"contracts/Vote/VoterContract.sol\":7710:7727  proposalVotePower */\n      0x05\n        /* \"contracts/Vote/VoterContract.sol\":7710:7731  proposalVotePower[id] */\n      0x00\n        /* \"contracts/Vote/VoterContract.sol\":7728:7730  id */\n      dup7\n        /* \"contracts/Vote/VoterContract.sol\":7710:7731  proposalVotePower[id] */\n      0xffff\n      and\n      0xffff\n      and\n      dup2\n      mstore\n      0x20\n      add\n      swap1\n      dup2\n      mstore\n      0x20\n      add\n      0x00\n      keccak256\n        /* \"contracts/Vote/VoterContract.sol\":7710:7743  proposalVotePower[id][msg.sender] */\n      0x00\n        /* \"contracts/Vote/VoterContract.sol\":7732:7742  msg.sender */\n      caller\n        /* \"contracts/Vote/VoterContract.sol\":7710:7743  proposalVotePower[id][msg.sender] */\n      0xffffffffffffffffffffffffffffffffffffffff\n      and\n      0xffffffffffffffffffffffffffffffffffffffff\n      and\n      dup2\n      mstore\n      0x20\n      add\n      swap1\n      dup2\n      mstore\n      0x20\n      add\n      0x00\n      keccak256\n      0x00\n        /* \"contracts/Vote/VoterContract.sol\":7710:7748  proposalVotePower[id][msg.sender] = 10 */\n      0x0100\n      exp\n      dup2\n      sload\n      dup2\n      0xff\n      mul\n      not\n      and\n      swap1\n      dup4\n      0xff\n      and\n      mul\n      or\n      swap1\n      sstore\n      pop\n        /* \"contracts/Vote/VoterContract.sol\":7787:7789  10 */\n      0x0a\n        /* \"contracts/Vote/VoterContract.sol\":7763:7772  proposals */\n      0x06\n        /* \"contracts/Vote/VoterContract.sol\":7763:7776  proposals[id] */\n      0x00\n        /* \"contracts/Vote/VoterContract.sol\":7773:7775  id */\n      dup7\n        /* \"contracts/Vote/VoterContract.sol\":7763:7776  proposals[id] */\n      0xffff\n      and\n      0xffff\n      and\n      dup2\n      mstore\n      0x20\n      add\n      swap1\n      dup2\n      mstore\n      0x20\n      add\n      0x00\n      keccak256\n        /* \"contracts/Vote/VoterContract.sol\":7763:7783  proposals[id].result */\n      0x02\n      add\n      0x04\n        /* \"contracts/Vote/VoterContract.sol\":7763:7789  proposals[id].result += 10 */\n      dup3\n      dup3\n      dup3\n      swap1\n      sload\n      swap1\n      0x0100\n      exp\n      swap1\n      div\n      0xffffffff\n      and\n      tag_347\n      swap2\n      swap1\n      tag_240\n      jump\t// in\n    tag_347:\n      swap3\n      pop\n      0x0100\n      exp\n      dup2\n      sload\n      dup2\n      0xffffffff\n      mul\n      not\n      and\n      swap1\n      dup4\n      0xffffffff\n      and\n      mul\n      or\n      swap1\n      sstore\n      pop\n        /* \"contracts/Vote/VoterContract.sol\":7569:7801  if(vote==NoYes.No){\r... */\n    tag_346:\n        /* \"contracts/Vote/VoterContract.sol\":7834:7835  1 */\n      0x01\n        /* \"contracts/Vote/VoterContract.sol\":7811:7820  proposals */\n      0x06\n        /* \"contracts/Vote/VoterContract.sol\":7811:7824  proposals[id] */\n      0x00\n        /* \"contracts/Vote/VoterContract.sol\":7821:7823  id */\n      dup7\n        /* \"contracts/Vote/VoterContract.sol\":7811:7824  proposals[id] */\n      0xffff\n      and\n      0xffff\n      and\n      dup2\n      mstore\n      0x20\n      add\n      swap1\n      dup2\n      mstore\n      0x20\n      add\n      0x00\n      keccak256\n        /* \"contracts/Vote/VoterContract.sol\":7811:7830  proposals[id].voted */\n      0x02\n      add\n      0x00\n        /* \"contracts/Vote/VoterContract.sol\":7811:7835  proposals[id].voted += 1 */\n      dup3\n      dup3\n      dup3\n      swap1\n      sload\n      swap1\n      0x0100\n      exp\n      swap1\n      div\n      0xffffffff\n      and\n      tag_348\n      swap2\n      swap1\n      tag_240\n      jump\t// in\n    tag_348:\n      swap3\n      pop\n      0x0100\n      exp\n      dup2\n      sload\n      dup2\n      0xffffffff\n      mul\n      not\n      and\n      swap1\n      dup4\n      0xffffffff\n      and\n      mul\n      or\n      swap1\n      sstore\n      pop\n        /* \"contracts/Vote/VoterContract.sol\":3065:3066  _ */\n      pop\n        /* \"contracts/Vote/VoterContract.sol\":7320:7843  function useVotePowerProposalYesNo(uint16 id,NoYes vote) external isProposalContinuing(id) onlyNotVotedVotersForProposal(id){\r... */\n      pop\n      pop\n      pop\n      jump\t// out\n        /* \"contracts/Vote/VoterContract.sol\":1388:1428  mapping(uint16 => Voting) public votings */\n    tag_94:\n      mstore(0x20, 0x04)\n      dup1\n      0x00\n      mstore\n      keccak256(0x00, 0x40)\n      0x00\n      swap2\n      pop\n      swap1\n      pop\n      dup1\n      0x00\n      add\n      0x00\n      swap1\n      sload\n      swap1\n      0x0100\n      exp\n      swap1\n      div\n      0xffff\n      and\n      swap1\n      dup1\n      0x01\n      add\n      dup1\n      sload\n      tag_349\n      swap1\n      tag_179\n      jump\t// in\n    tag_349:\n      dup1\n      0x1f\n      add\n      0x20\n      dup1\n      swap2\n      div\n      mul\n      0x20\n      add\n      mload(0x40)\n      swap1\n      dup2\n      add\n      0x40\n      mstore\n      dup1\n      swap3\n      swap2\n      swap1\n      dup2\n      dup2\n      mstore\n      0x20\n      add\n      dup3\n      dup1\n      sload\n      tag_350\n      swap1\n      tag_179\n      jump\t// in\n    tag_350:\n      dup1\n      iszero\n      tag_351\n      jumpi\n      dup1\n      0x1f\n      lt\n      tag_352\n      jumpi\n      0x0100\n      dup1\n      dup4\n      sload\n      div\n      mul\n      dup4\n      mstore\n      swap2\n      0x20\n      add\n      swap2\n      jump(tag_351)\n    tag_352:\n      dup3\n      add\n      swap2\n      swap1\n      0x00\n      mstore\n      keccak256(0x00, 0x20)\n      swap1\n    tag_353:\n      dup2\n      sload\n      dup2\n      mstore\n      swap1\n      0x01\n      add\n      swap1\n      0x20\n      add\n      dup1\n      dup4\n      gt\n      tag_353\n      jumpi\n      dup3\n      swap1\n      sub\n      0x1f\n      and\n      dup3\n      add\n      swap2\n    tag_351:\n      pop\n      pop\n      pop\n      pop\n      pop\n      swap1\n      dup1\n      0x02\n      add\n      0x00\n      swap1\n      sload\n      swap1\n      0x0100\n      exp\n      swap1\n      div\n      0xffffffff\n      and\n      swap1\n      dup1\n      0x02\n      add\n      0x04\n      swap1\n      sload\n      swap1\n      0x0100\n      exp\n      swap1\n      div\n      0xffffffff\n      and\n      swap1\n      dup1\n      0x02\n      add\n      0x08\n      swap1\n      sload\n      swap1\n      0x0100\n      exp\n      swap1\n      div\n      0xffffffffffffffffffffffffffffffffffffffff\n      and\n      swap1\n      dup1\n      0x03\n      add\n      sload\n      swap1\n      dup1\n      0x04\n      add\n      sload\n      swap1\n      dup1\n      0x05\n      add\n      sload\n      swap1\n      dup1\n      0x06\n      add\n      0x00\n      swap1\n      sload\n      swap1\n      0x0100\n      exp\n      swap1\n      div\n      0xff\n      and\n      swap1\n      pop\n      dup10\n      jump\t// out\n        /* \"contracts/Vote/VoterContract.sol\":4464:4717  function closeProposal(uint16 id) public isProposalContinuing(id) onlyVoters(msg.sender){\r... */\n    tag_98:\n        /* \"contracts/Vote/VoterContract.sol\":4526:4528  id */\n      dup1\n        /* \"contracts/Vote/VoterContract.sol\":3015:3032  VotingType.Closed */\n      0x00\n        /* \"contracts/Vote/VoterContract.sol\":2987:3032  proposals[id].proposalType!=VotingType.Closed */\n      0x02\n      dup2\n      gt\n      iszero\n      tag_355\n      jumpi\n      tag_356\n      tag_122\n      jump\t// in\n    tag_356:\n    tag_355:\n        /* \"contracts/Vote/VoterContract.sol\":2987:2996  proposals */\n      0x06\n        /* \"contracts/Vote/VoterContract.sol\":2987:3000  proposals[id] */\n      0x00\n        /* \"contracts/Vote/VoterContract.sol\":2997:2999  id */\n      dup4\n        /* \"contracts/Vote/VoterContract.sol\":2987:3000  proposals[id] */\n      0xffff\n      and\n      0xffff\n      and\n      dup2\n      mstore\n      0x20\n      add\n      swap1\n      dup2\n      mstore\n      0x20\n      add\n      0x00\n      keccak256\n        /* \"contracts/Vote/VoterContract.sol\":2987:3013  proposals[id].proposalType */\n      0x06\n      add\n      0x00\n      swap1\n      sload\n      swap1\n      0x0100\n      exp\n      swap1\n      div\n      0xff\n      and\n        /* \"contracts/Vote/VoterContract.sol\":2987:3032  proposals[id].proposalType!=VotingType.Closed */\n      0x02\n      dup2\n      gt\n      iszero\n      tag_357\n      jumpi\n      tag_358\n      tag_122\n      jump\t// in\n    tag_358:\n    tag_357:\n      eq\n      iszero\n        /* \"contracts/Vote/VoterContract.sol\":2979:3054  require(proposals[id].proposalType!=VotingType.Closed,\"There is no voting\") */\n      tag_359\n      jumpi\n      mload(0x40)\n      0x08c379a000000000000000000000000000000000000000000000000000000000\n      dup2\n      mstore\n      0x04\n      add\n      tag_360\n      swap1\n      tag_127\n      jump\t// in\n    tag_360:\n      mload(0x40)\n      dup1\n      swap2\n      sub\n      swap1\n      revert\n    tag_359:\n        /* \"contracts/Vote/VoterContract.sol\":4541:4551  msg.sender */\n      caller\n        /* \"contracts/Vote/VoterContract.sol\":2140:2150  __VOTERS__ */\n      0x02\n        /* \"contracts/Vote/VoterContract.sol\":2140:2155  __VOTERS__[adr] */\n      0x00\n        /* \"contracts/Vote/VoterContract.sol\":2151:2154  adr */\n      dup3\n        /* \"contracts/Vote/VoterContract.sol\":2140:2155  __VOTERS__[adr] */\n      0xffffffffffffffffffffffffffffffffffffffff\n      and\n      0xffffffffffffffffffffffffffffffffffffffff\n      and\n      dup2\n      mstore\n      0x20\n      add\n      swap1\n      dup2\n      mstore\n      0x20\n      add\n      0x00\n      keccak256\n      0x00\n      swap1\n      sload\n      swap1\n      0x0100\n      exp\n      swap1\n      div\n      0xff\n      and\n        /* \"contracts/Vote/VoterContract.sol\":2132:2179  require(__VOTERS__[adr],\"You are not a voterr\") */\n      tag_362\n      jumpi\n      mload(0x40)\n      0x08c379a000000000000000000000000000000000000000000000000000000000\n      dup2\n      mstore\n      0x04\n      add\n      tag_363\n      swap1\n      tag_131\n      jump\t// in\n    tag_363:\n      mload(0x40)\n      dup1\n      swap2\n      sub\n      swap1\n      revert\n    tag_362:\n        /* \"contracts/Vote/VoterContract.sol\":4585:4594  proposals */\n      0x06\n        /* \"contracts/Vote/VoterContract.sol\":4585:4598  proposals[id] */\n      0x00\n        /* \"contracts/Vote/VoterContract.sol\":4595:4597  id */\n      dup5\n        /* \"contracts/Vote/VoterContract.sol\":4585:4598  proposals[id] */\n      0xffff\n      and\n      0xffff\n      and\n      dup2\n      mstore\n      0x20\n      add\n      swap1\n      dup2\n      mstore\n      0x20\n      add\n      0x00\n      keccak256\n        /* \"contracts/Vote/VoterContract.sol\":4585:4626  proposals[id].blockNumberWillNotEndBefore */\n      0x04\n      add\n      sload\n        /* \"contracts/Vote/VoterContract.sol\":4571:4583  block.number */\n      number\n        /* \"contracts/Vote/VoterContract.sol\":4571:4626  block.number>=proposals[id].blockNumberWillNotEndBefore */\n      lt\n      iszero\n        /* \"contracts/Vote/VoterContract.sol\":4563:4680  require(block.number>=proposals[id].blockNumberWillNotEndBefore,\"Voting cannot be closed before it's designated to.\") */\n      tag_365\n      jumpi\n      mload(0x40)\n      0x08c379a000000000000000000000000000000000000000000000000000000000\n      dup2\n      mstore\n      0x04\n      add\n      tag_366\n      swap1\n      tag_135\n      jump\t// in\n    tag_366:\n      mload(0x40)\n      dup1\n      swap2\n      sub\n      swap1\n      revert\n    tag_365:\n        /* \"contracts/Vote/VoterContract.sol\":4691:4709  _closeProposal(id) */\n      tag_367\n        /* \"contracts/Vote/VoterContract.sol\":4706:4708  id */\n      dup4\n        /* \"contracts/Vote/VoterContract.sol\":4691:4705  _closeProposal */\n      tag_368\n        /* \"contracts/Vote/VoterContract.sol\":4691:4709  _closeProposal(id) */\n      jump\t// in\n    tag_367:\n        /* \"contracts/Vote/VoterContract.sol\":3065:3066  _ */\n      pop\n        /* \"contracts/Vote/VoterContract.sol\":4464:4717  function closeProposal(uint16 id) public isProposalContinuing(id) onlyVoters(msg.sender){\r... */\n      pop\n      pop\n      jump\t// out\n        /* \"contracts/Vote/VoterContract.sol\":3378:3655  function giveVotingPower(address voterAddress) external onlyKeyHolder noZeroAddress(voterAddress) {\r... */\n    tag_101:\n        /* \"contracts/Vote/VoterContract.sol\":2017:2026  keyHolder */\n      0x01\n      0x00\n      swap1\n      sload\n      swap1\n      0x0100\n      exp\n      swap1\n      div\n      0xffffffffffffffffffffffffffffffffffffffff\n      and\n        /* \"contracts/Vote/VoterContract.sol\":2003:2026  msg.sender == keyHolder */\n      0xffffffffffffffffffffffffffffffffffffffff\n      and\n        /* \"contracts/Vote/VoterContract.sol\":2003:2013  msg.sender */\n      caller\n        /* \"contracts/Vote/VoterContract.sol\":2003:2026  msg.sender == keyHolder */\n      0xffffffffffffffffffffffffffffffffffffffff\n      and\n      eq\n        /* \"contracts/Vote/VoterContract.sol\":1995:2063  require(msg.sender == keyHolder,\"You are not the KeyHolderContract\") */\n      tag_370\n      jumpi\n      mload(0x40)\n      0x08c379a000000000000000000000000000000000000000000000000000000000\n      dup2\n      mstore\n      0x04\n      add\n      tag_371\n      swap1\n      tag_372\n      jump\t// in\n    tag_371:\n      mload(0x40)\n      dup1\n      swap2\n      sub\n      swap1\n      revert\n    tag_370:\n        /* \"contracts/Vote/VoterContract.sol\":3462:3474  voterAddress */\n      dup1\n        /* \"contracts/Vote/VoterContract.sol\":1909:1910  0 */\n      0x00\n        /* \"contracts/Vote/VoterContract.sol\":1896:1911  adr!=address(0) */\n      0xffffffffffffffffffffffffffffffffffffffff\n      and\n        /* \"contracts/Vote/VoterContract.sol\":1896:1899  adr */\n      dup2\n        /* \"contracts/Vote/VoterContract.sol\":1896:1911  adr!=address(0) */\n      0xffffffffffffffffffffffffffffffffffffffff\n      and\n      eq\n      iszero\n        /* \"contracts/Vote/VoterContract.sol\":1888:1935  require(adr!=address(0),\"Zero Address entered\") */\n      tag_374\n      jumpi\n      mload(0x40)\n      0x08c379a000000000000000000000000000000000000000000000000000000000\n      dup2\n      mstore\n      0x04\n      add\n      tag_375\n      swap1\n      tag_376\n      jump\t// in\n    tag_375:\n      mload(0x40)\n      dup1\n      swap2\n      sub\n      swap1\n      revert\n    tag_374:\n        /* \"contracts/Vote/VoterContract.sol\":3496:3506  __VOTERS__ */\n      0x02\n        /* \"contracts/Vote/VoterContract.sol\":3496:3520  __VOTERS__[voterAddress] */\n      0x00\n        /* \"contracts/Vote/VoterContract.sol\":3507:3519  voterAddress */\n      dup4\n        /* \"contracts/Vote/VoterContract.sol\":3496:3520  __VOTERS__[voterAddress] */\n      0xffffffffffffffffffffffffffffffffffffffff\n      and\n      0xffffffffffffffffffffffffffffffffffffffff\n      and\n      dup2\n      mstore\n      0x20\n      add\n      swap1\n      dup2\n      mstore\n      0x20\n      add\n      0x00\n      keccak256\n      0x00\n      swap1\n      sload\n      swap1\n      0x0100\n      exp\n      swap1\n      div\n      0xff\n      and\n        /* \"contracts/Vote/VoterContract.sol\":3495:3520  !__VOTERS__[voterAddress] */\n      iszero\n        /* \"contracts/Vote/VoterContract.sol\":3487:3557  require(!__VOTERS__[voterAddress],\"Given address is already a voter.\") */\n      tag_378\n      jumpi\n      mload(0x40)\n      0x08c379a000000000000000000000000000000000000000000000000000000000\n      dup2\n      mstore\n      0x04\n      add\n      tag_379\n      swap1\n      tag_380\n      jump\t// in\n    tag_379:\n      mload(0x40)\n      dup1\n      swap2\n      sub\n      swap1\n      revert\n    tag_378:\n        /* \"contracts/Vote/VoterContract.sol\":3604:3605  1 */\n      0x01\n        /* \"contracts/Vote/VoterContract.sol\":3586:3601  totalVoterCount */\n      0x07\n      0x04\n      swap1\n      sload\n      swap1\n      0x0100\n      exp\n      swap1\n      div\n      0xffff\n      and\n        /* \"contracts/Vote/VoterContract.sol\":3586:3605  totalVoterCount + 1 */\n      tag_381\n      swap2\n      swap1\n      tag_158\n      jump\t// in\n    tag_381:\n        /* \"contracts/Vote/VoterContract.sol\":3568:3583  totalVoterCount */\n      0x07\n      0x04\n        /* \"contracts/Vote/VoterContract.sol\":3568:3605  totalVoterCount = totalVoterCount + 1 */\n      0x0100\n      exp\n      dup2\n      sload\n      dup2\n      0xffff\n      mul\n      not\n      and\n      swap1\n      dup4\n      0xffff\n      and\n      mul\n      or\n      swap1\n      sstore\n      pop\n        /* \"contracts/Vote/VoterContract.sol\":3643:3647  true */\n      0x01\n        /* \"contracts/Vote/VoterContract.sol\":3616:3626  __VOTERS__ */\n      0x02\n        /* \"contracts/Vote/VoterContract.sol\":3616:3640  __VOTERS__[voterAddress] */\n      0x00\n        /* \"contracts/Vote/VoterContract.sol\":3627:3639  voterAddress */\n      dup5\n        /* \"contracts/Vote/VoterContract.sol\":3616:3640  __VOTERS__[voterAddress] */\n      0xffffffffffffffffffffffffffffffffffffffff\n      and\n      0xffffffffffffffffffffffffffffffffffffffff\n      and\n      dup2\n      mstore\n      0x20\n      add\n      swap1\n      dup2\n      mstore\n      0x20\n      add\n      0x00\n      keccak256\n      0x00\n        /* \"contracts/Vote/VoterContract.sol\":3616:3647  __VOTERS__[voterAddress] = true */\n      0x0100\n      exp\n      dup2\n      sload\n      dup2\n      0xff\n      mul\n      not\n      and\n      swap1\n      dup4\n      iszero\n      iszero\n      mul\n      or\n      swap1\n      sstore\n      pop\n        /* \"contracts/Vote/VoterContract.sol\":2074:2075  _ */\n      pop\n        /* \"contracts/Vote/VoterContract.sol\":3378:3655  function giveVotingPower(address voterAddress) external onlyKeyHolder noZeroAddress(voterAddress) {\r... */\n      pop\n      jump\t// out\n        /* \"@openzeppelin/contracts/access/Ownable.sol\":2074:2272  function transferOwnership(address newOwner) public virtual onlyOwner {... */\n    tag_104:\n        /* \"@openzeppelin/contracts/access/Ownable.sol\":1094:1107  _checkOwner() */\n      tag_383\n        /* \"@openzeppelin/contracts/access/Ownable.sol\":1094:1105  _checkOwner */\n      tag_271\n        /* \"@openzeppelin/contracts/access/Ownable.sol\":1094:1107  _checkOwner() */\n      jump\t// in\n    tag_383:\n        /* \"@openzeppelin/contracts/access/Ownable.sol\":2182:2183  0 */\n      0x00\n        /* \"@openzeppelin/contracts/access/Ownable.sol\":2162:2184  newOwner != address(0) */\n      0xffffffffffffffffffffffffffffffffffffffff\n      and\n        /* \"@openzeppelin/contracts/access/Ownable.sol\":2162:2170  newOwner */\n      dup2\n        /* \"@openzeppelin/contracts/access/Ownable.sol\":2162:2184  newOwner != address(0) */\n      0xffffffffffffffffffffffffffffffffffffffff\n      and\n      eq\n      iszero\n        /* \"@openzeppelin/contracts/access/Ownable.sol\":2154:2227  require(newOwner != address(0), \"Ownable: new owner is the zero address\") */\n      tag_385\n      jumpi\n      mload(0x40)\n      0x08c379a000000000000000000000000000000000000000000000000000000000\n      dup2\n      mstore\n      0x04\n      add\n      tag_386\n      swap1\n      tag_387\n      jump\t// in\n    tag_386:\n      mload(0x40)\n      dup1\n      swap2\n      sub\n      swap1\n      revert\n    tag_385:\n        /* \"@openzeppelin/contracts/access/Ownable.sol\":2237:2265  _transferOwnership(newOwner) */\n      tag_388\n        /* \"@openzeppelin/contracts/access/Ownable.sol\":2256:2264  newOwner */\n      dup2\n        /* \"@openzeppelin/contracts/access/Ownable.sol\":2237:2255  _transferOwnership */\n      tag_274\n        /* \"@openzeppelin/contracts/access/Ownable.sol\":2237:2265  _transferOwnership(newOwner) */\n      jump\t// in\n    tag_388:\n        /* \"@openzeppelin/contracts/access/Ownable.sol\":2074:2272  function transferOwnership(address newOwner) public virtual onlyOwner {... */\n      pop\n      jump\t// out\n        /* \"contracts/Vote/VoterContract.sol\":8311:8911  function getVotings(uint8 skip, uint8 take) external view returns(Voting[] memory){\r... */\n    tag_108:\n        /* \"contracts/Vote/VoterContract.sol\":8377:8392  Voting[] memory */\n      0x60\n        /* \"contracts/Vote/VoterContract.sol\":8417:8418  0 */\n      0x00\n        /* \"contracts/Vote/VoterContract.sol\":8412:8416  take */\n      dup3\n        /* \"contracts/Vote/VoterContract.sol\":8412:8418  take>0 */\n      0xff\n      and\n      gt\n        /* \"contracts/Vote/VoterContract.sol\":8404:8419  require(take>0) */\n      tag_390\n      jumpi\n      0x00\n      dup1\n      revert\n    tag_390:\n        /* \"contracts/Vote/VoterContract.sol\":8432:8456  Voting[] memory _votings */\n      0x00\n        /* \"contracts/Vote/VoterContract.sol\":8472:8476  take */\n      dup3\n        /* \"contracts/Vote/VoterContract.sol\":8459:8477  new Voting[](take) */\n      0xff\n      and\n      0xffffffffffffffff\n      dup2\n      gt\n      iszero\n      tag_391\n      jumpi\n      tag_392\n      tag_163\n      jump\t// in\n    tag_392:\n    tag_391:\n      mload(0x40)\n      swap1\n      dup1\n      dup3\n      mstore\n      dup1\n      0x20\n      mul\n      0x20\n      add\n      dup3\n      add\n      0x40\n      mstore\n      dup1\n      iszero\n      tag_393\n      jumpi\n      dup2\n      0x20\n      add\n    tag_394:\n      tag_395\n      tag_396\n      jump\t// in\n    tag_395:\n      dup2\n      mstore\n      0x20\n      add\n      swap1\n      0x01\n      swap1\n      sub\n      swap1\n      dup2\n      tag_394\n      jumpi\n      swap1\n      pop\n    tag_393:\n      pop\n        /* \"contracts/Vote/VoterContract.sol\":8432:8477  Voting[] memory _votings = new Voting[](take) */\n      swap1\n      pop\n        /* \"contracts/Vote/VoterContract.sol\":8488:8497  uint16 vi */\n      0x00\n        /* \"contracts/Vote/VoterContract.sol\":8500:8506  voteId */\n      0x07\n      0x00\n      swap1\n      sload\n      swap1\n      0x0100\n      exp\n      swap1\n      div\n      0xffff\n      and\n        /* \"contracts/Vote/VoterContract.sol\":8488:8506  uint16 vi = voteId */\n      swap1\n      pop\n        /* \"contracts/Vote/VoterContract.sol\":8527:8529  vi */\n      dup1\n        /* \"contracts/Vote/VoterContract.sol\":8522:8529  skip>vi */\n      0xffff\n      and\n        /* \"contracts/Vote/VoterContract.sol\":8522:8526  skip */\n      dup6\n        /* \"contracts/Vote/VoterContract.sol\":8522:8529  skip>vi */\n      0xff\n      and\n      gt\n        /* \"contracts/Vote/VoterContract.sol\":8519:8876  if(skip>vi){\r... */\n      iszero\n      tag_397\n      jumpi\n        /* \"contracts/Vote/VoterContract.sol\":8552:8560  _votings */\n      dup2\n        /* \"contracts/Vote/VoterContract.sol\":8545:8560  return _votings */\n      swap3\n      pop\n      pop\n      pop\n      jump(tag_389)\n        /* \"contracts/Vote/VoterContract.sol\":8519:8876  if(skip>vi){\r... */\n    tag_397:\n        /* \"contracts/Vote/VoterContract.sol\":8590:8592  vi */\n      dup1\n        /* \"contracts/Vote/VoterContract.sol\":8580:8592  skip+take>vi */\n      0xffff\n      and\n        /* \"contracts/Vote/VoterContract.sol\":8585:8589  take */\n      dup5\n        /* \"contracts/Vote/VoterContract.sol\":8580:8584  skip */\n      dup7\n        /* \"contracts/Vote/VoterContract.sol\":8580:8589  skip+take */\n      tag_399\n      swap2\n      swap1\n      tag_400\n      jump\t// in\n    tag_399:\n        /* \"contracts/Vote/VoterContract.sol\":8580:8592  skip+take>vi */\n      0xff\n      and\n      gt\n        /* \"contracts/Vote/VoterContract.sol\":8577:8876  if(skip+take>vi){\r... */\n      iszero\n      tag_401\n      jumpi\n        /* \"contracts/Vote/VoterContract.sol\":8613:8620  uint8 i */\n      0x00\n        /* \"contracts/Vote/VoterContract.sol\":8623:8624  1 */\n      0x01\n        /* \"contracts/Vote/VoterContract.sol\":8613:8624  uint8 i = 1 */\n      swap1\n      pop\n        /* \"contracts/Vote/VoterContract.sol\":8608:8723  for (uint8 i = 1; i <= vi-skip; i++) \r... */\n    tag_402:\n        /* \"contracts/Vote/VoterContract.sol\":8634:8638  skip */\n      dup6\n        /* \"contracts/Vote/VoterContract.sol\":8631:8638  vi-skip */\n      0xff\n      and\n        /* \"contracts/Vote/VoterContract.sol\":8631:8633  vi */\n      dup3\n        /* \"contracts/Vote/VoterContract.sol\":8631:8638  vi-skip */\n      tag_405\n      swap2\n      swap1\n      tag_176\n      jump\t// in\n    tag_405:\n        /* \"contracts/Vote/VoterContract.sol\":8626:8638  i <= vi-skip */\n      0xffff\n      and\n        /* \"contracts/Vote/VoterContract.sol\":8626:8627  i */\n      dup2\n        /* \"contracts/Vote/VoterContract.sol\":8626:8638  i <= vi-skip */\n      0xff\n      and\n      gt\n        /* \"contracts/Vote/VoterContract.sol\":8608:8723  for (uint8 i = 1; i <= vi-skip; i++) \r... */\n      tag_403\n      jumpi\n        /* \"contracts/Vote/VoterContract.sol\":8694:8701  votings */\n      0x04\n        /* \"contracts/Vote/VoterContract.sol\":8694:8707  votings[vi-i] */\n      0x00\n        /* \"contracts/Vote/VoterContract.sol\":8705:8706  i */\n      dup3\n        /* \"contracts/Vote/VoterContract.sol\":8702:8706  vi-i */\n      0xff\n      and\n        /* \"contracts/Vote/VoterContract.sol\":8702:8704  vi */\n      dup5\n        /* \"contracts/Vote/VoterContract.sol\":8702:8706  vi-i */\n      tag_406\n      swap2\n      swap1\n      tag_176\n      jump\t// in\n    tag_406:\n        /* \"contracts/Vote/VoterContract.sol\":8694:8707  votings[vi-i] */\n      0xffff\n      and\n      0xffff\n      and\n      dup2\n      mstore\n      0x20\n      add\n      swap1\n      dup2\n      mstore\n      0x20\n      add\n      0x00\n      keccak256\n        /* \"contracts/Vote/VoterContract.sol\":8678:8707  _votings[i-1] = votings[vi-i] */\n      mload(0x40)\n      dup1\n      0x0120\n      add\n      0x40\n      mstore\n      swap1\n      dup2\n      0x00\n      dup3\n      add\n      0x00\n      swap1\n      sload\n      swap1\n      0x0100\n      exp\n      swap1\n      div\n      0xffff\n      and\n      0xffff\n      and\n      0xffff\n      and\n      dup2\n      mstore\n      0x20\n      add\n      0x01\n      dup3\n      add\n      dup1\n      sload\n      tag_407\n      swap1\n      tag_179\n      jump\t// in\n    tag_407:\n      dup1\n      0x1f\n      add\n      0x20\n      dup1\n      swap2\n      div\n      mul\n      0x20\n      add\n      mload(0x40)\n      swap1\n      dup2\n      add\n      0x40\n      mstore\n      dup1\n      swap3\n      swap2\n      swap1\n      dup2\n      dup2\n      mstore\n      0x20\n      add\n      dup3\n      dup1\n      sload\n      tag_408\n      swap1\n      tag_179\n      jump\t// in\n    tag_408:\n      dup1\n      iszero\n      tag_409\n      jumpi\n      dup1\n      0x1f\n      lt\n      tag_410\n      jumpi\n      0x0100\n      dup1\n      dup4\n      sload\n      div\n      mul\n      dup4\n      mstore\n      swap2\n      0x20\n      add\n      swap2\n      jump(tag_409)\n    tag_410:\n      dup3\n      add\n      swap2\n      swap1\n      0x00\n      mstore\n      keccak256(0x00, 0x20)\n      swap1\n    tag_411:\n      dup2\n      sload\n      dup2\n      mstore\n      swap1\n      0x01\n      add\n      swap1\n      0x20\n      add\n      dup1\n      dup4\n      gt\n      tag_411\n      jumpi\n      dup3\n      swap1\n      sub\n      0x1f\n      and\n      dup3\n      add\n      swap2\n    tag_409:\n      pop\n      pop\n      pop\n      pop\n      pop\n      dup2\n      mstore\n      0x20\n      add\n      0x02\n      dup3\n      add\n      0x00\n      swap1\n      sload\n      swap1\n      0x0100\n      exp\n      swap1\n      div\n      0xffffffff\n      and\n      0xffffffff\n      and\n      0xffffffff\n      and\n      dup2\n      mstore\n      0x20\n      add\n      0x02\n      dup3\n      add\n      0x04\n      swap1\n      sload\n      swap1\n      0x0100\n      exp\n      swap1\n      div\n      0xffffffff\n      and\n      0xffffffff\n      and\n      0xffffffff\n      and\n      dup2\n      mstore\n      0x20\n      add\n      0x02\n      dup3\n      add\n      0x08\n      swap1\n      sload\n      swap1\n      0x0100\n      exp\n      swap1\n      div\n      0xffffffffffffffffffffffffffffffffffffffff\n      and\n      0xffffffffffffffffffffffffffffffffffffffff\n      and\n      0xffffffffffffffffffffffffffffffffffffffff\n      and\n      dup2\n      mstore\n      0x20\n      add\n      0x03\n      dup3\n      add\n      sload\n      dup2\n      mstore\n      0x20\n      add\n      0x04\n      dup3\n      add\n      sload\n      dup2\n      mstore\n      0x20\n      add\n      0x05\n      dup3\n      add\n      sload\n      dup2\n      mstore\n      0x20\n      add\n      0x06\n      dup3\n      add\n      0x00\n      swap1\n      sload\n      swap1\n      0x0100\n      exp\n      swap1\n      div\n      0xff\n      and\n      0x02\n      dup2\n      gt\n      iszero\n      tag_412\n      jumpi\n      tag_413\n      tag_122\n      jump\t// in\n    tag_413:\n    tag_412:\n      0x02\n      dup2\n      gt\n      iszero\n      tag_414\n      jumpi\n      tag_415\n      tag_122\n      jump\t// in\n    tag_415:\n    tag_414:\n      dup2\n      mstore\n      pop\n      pop\n        /* \"contracts/Vote/VoterContract.sol\":8678:8686  _votings */\n      dup4\n        /* \"contracts/Vote/VoterContract.sol\":8689:8690  1 */\n      0x01\n        /* \"contracts/Vote/VoterContract.sol\":8687:8688  i */\n      dup4\n        /* \"contracts/Vote/VoterContract.sol\":8687:8690  i-1 */\n      tag_416\n      swap2\n      swap1\n      tag_417\n      jump\t// in\n    tag_416:\n        /* \"contracts/Vote/VoterContract.sol\":8678:8691  _votings[i-1] */\n      0xff\n      and\n      dup2\n      mload\n      dup2\n      lt\n      tag_418\n      jumpi\n      tag_419\n      tag_191\n      jump\t// in\n    tag_419:\n    tag_418:\n      0x20\n      mul\n      0x20\n      add\n      add\n        /* \"contracts/Vote/VoterContract.sol\":8678:8707  _votings[i-1] = votings[vi-i] */\n      dup2\n      swap1\n      mstore\n      pop\n        /* \"contracts/Vote/VoterContract.sol\":8640:8643  i++ */\n      dup1\n      dup1\n      tag_420\n      swap1\n      tag_288\n      jump\t// in\n    tag_420:\n      swap2\n      pop\n      pop\n        /* \"contracts/Vote/VoterContract.sol\":8608:8723  for (uint8 i = 1; i <= vi-skip; i++) \r... */\n      jump(tag_402)\n    tag_403:\n      pop\n        /* \"contracts/Vote/VoterContract.sol\":8577:8876  if(skip+take>vi){\r... */\n      jump(tag_421)\n    tag_401:\n        /* \"contracts/Vote/VoterContract.sol\":8758:8765  uint8 i */\n      0x00\n        /* \"contracts/Vote/VoterContract.sol\":8768:8769  1 */\n      0x01\n        /* \"contracts/Vote/VoterContract.sol\":8758:8769  uint8 i = 1 */\n      swap1\n      pop\n        /* \"contracts/Vote/VoterContract.sol\":8753:8865  for (uint8 i = 1; i <= take; i++) \r... */\n    tag_422:\n        /* \"contracts/Vote/VoterContract.sol\":8776:8780  take */\n      dup5\n        /* \"contracts/Vote/VoterContract.sol\":8771:8780  i <= take */\n      0xff\n      and\n        /* \"contracts/Vote/VoterContract.sol\":8771:8772  i */\n      dup2\n        /* \"contracts/Vote/VoterContract.sol\":8771:8780  i <= take */\n      0xff\n      and\n      gt\n        /* \"contracts/Vote/VoterContract.sol\":8753:8865  for (uint8 i = 1; i <= take; i++) \r... */\n      tag_423\n      jumpi\n        /* \"contracts/Vote/VoterContract.sol\":8836:8843  votings */\n      0x04\n        /* \"contracts/Vote/VoterContract.sol\":8836:8849  votings[vi-i] */\n      0x00\n        /* \"contracts/Vote/VoterContract.sol\":8847:8848  i */\n      dup3\n        /* \"contracts/Vote/VoterContract.sol\":8844:8848  vi-i */\n      0xff\n      and\n        /* \"contracts/Vote/VoterContract.sol\":8844:8846  vi */\n      dup5\n        /* \"contracts/Vote/VoterContract.sol\":8844:8848  vi-i */\n      tag_425\n      swap2\n      swap1\n      tag_176\n      jump\t// in\n    tag_425:\n        /* \"contracts/Vote/VoterContract.sol\":8836:8849  votings[vi-i] */\n      0xffff\n      and\n      0xffff\n      and\n      dup2\n      mstore\n      0x20\n      add\n      swap1\n      dup2\n      mstore\n      0x20\n      add\n      0x00\n      keccak256\n        /* \"contracts/Vote/VoterContract.sol\":8820:8849  _votings[i-1] = votings[vi-i] */\n      mload(0x40)\n      dup1\n      0x0120\n      add\n      0x40\n      mstore\n      swap1\n      dup2\n      0x00\n      dup3\n      add\n      0x00\n      swap1\n      sload\n      swap1\n      0x0100\n      exp\n      swap1\n      div\n      0xffff\n      and\n      0xffff\n      and\n      0xffff\n      and\n      dup2\n      mstore\n      0x20\n      add\n      0x01\n      dup3\n      add\n      dup1\n      sload\n      tag_426\n      swap1\n      tag_179\n      jump\t// in\n    tag_426:\n      dup1\n      0x1f\n      add\n      0x20\n      dup1\n      swap2\n      div\n      mul\n      0x20\n      add\n      mload(0x40)\n      swap1\n      dup2\n      add\n      0x40\n      mstore\n      dup1\n      swap3\n      swap2\n      swap1\n      dup2\n      dup2\n      mstore\n      0x20\n      add\n      dup3\n      dup1\n      sload\n      tag_427\n      swap1\n      tag_179\n      jump\t// in\n    tag_427:\n      dup1\n      iszero\n      tag_428\n      jumpi\n      dup1\n      0x1f\n      lt\n      tag_429\n      jumpi\n      0x0100\n      dup1\n      dup4\n      sload\n      div\n      mul\n      dup4\n      mstore\n      swap2\n      0x20\n      add\n      swap2\n      jump(tag_428)\n    tag_429:\n      dup3\n      add\n      swap2\n      swap1\n      0x00\n      mstore\n      keccak256(0x00, 0x20)\n      swap1\n    tag_430:\n      dup2\n      sload\n      dup2\n      mstore\n      swap1\n      0x01\n      add\n      swap1\n      0x20\n      add\n      dup1\n      dup4\n      gt\n      tag_430\n      jumpi\n      dup3\n      swap1\n      sub\n      0x1f\n      and\n      dup3\n      add\n      swap2\n    tag_428:\n      pop\n      pop\n      pop\n      pop\n      pop\n      dup2\n      mstore\n      0x20\n      add\n      0x02\n      dup3\n      add\n      0x00\n      swap1\n      sload\n      swap1\n      0x0100\n      exp\n      swap1\n      div\n      0xffffffff\n      and\n      0xffffffff\n      and\n      0xffffffff\n      and\n      dup2\n      mstore\n      0x20\n      add\n      0x02\n      dup3\n      add\n      0x04\n      swap1\n      sload\n      swap1\n      0x0100\n      exp\n      swap1\n      div\n      0xffffffff\n      and\n      0xffffffff\n      and\n      0xffffffff\n      and\n      dup2\n      mstore\n      0x20\n      add\n      0x02\n      dup3\n      add\n      0x08\n      swap1\n      sload\n      swap1\n      0x0100\n      exp\n      swap1\n      div\n      0xffffffffffffffffffffffffffffffffffffffff\n      and\n      0xffffffffffffffffffffffffffffffffffffffff\n      and\n      0xffffffffffffffffffffffffffffffffffffffff\n      and\n      dup2\n      mstore\n      0x20\n      add\n      0x03\n      dup3\n      add\n      sload\n      dup2\n      mstore\n      0x20\n      add\n      0x04\n      dup3\n      add\n      sload\n      dup2\n      mstore\n      0x20\n      add\n      0x05\n      dup3\n      add\n      sload\n      dup2\n      mstore\n      0x20\n      add\n      0x06\n      dup3\n      add\n      0x00\n      swap1\n      sload\n      swap1\n      0x0100\n      exp\n      swap1\n      div\n      0xff\n      and\n      0x02\n      dup2\n      gt\n      iszero\n      tag_431\n      jumpi\n      tag_432\n      tag_122\n      jump\t// in\n    tag_432:\n    tag_431:\n      0x02\n      dup2\n      gt\n      iszero\n      tag_433\n      jumpi\n      tag_434\n      tag_122\n      jump\t// in\n    tag_434:\n    tag_433:\n      dup2\n      mstore\n      pop\n      pop\n        /* \"contracts/Vote/VoterContract.sol\":8820:8828  _votings */\n      dup4\n        /* \"contracts/Vote/VoterContract.sol\":8831:8832  1 */\n      0x01\n        /* \"contracts/Vote/VoterContract.sol\":8829:8830  i */\n      dup4\n        /* \"contracts/Vote/VoterContract.sol\":8829:8832  i-1 */\n      tag_435\n      swap2\n      swap1\n      tag_417\n      jump\t// in\n    tag_435:\n        /* \"contracts/Vote/VoterContract.sol\":8820:8833  _votings[i-1] */\n      0xff\n      and\n      dup2\n      mload\n      dup2\n      lt\n      tag_436\n      jumpi\n      tag_437\n      tag_191\n      jump\t// in\n    tag_437:\n    tag_436:\n      0x20\n      mul\n      0x20\n      add\n      add\n        /* \"contracts/Vote/VoterContract.sol\":8820:8849  _votings[i-1] = votings[vi-i] */\n      dup2\n      swap1\n      mstore\n      pop\n        /* \"contracts/Vote/VoterContract.sol\":8782:8785  i++ */\n      dup1\n      dup1\n      tag_438\n      swap1\n      tag_288\n      jump\t// in\n    tag_438:\n      swap2\n      pop\n      pop\n        /* \"contracts/Vote/VoterContract.sol\":8753:8865  for (uint8 i = 1; i <= take; i++) \r... */\n      jump(tag_422)\n    tag_423:\n      pop\n        /* \"contracts/Vote/VoterContract.sol\":8577:8876  if(skip+take>vi){\r... */\n    tag_421:\n        /* \"contracts/Vote/VoterContract.sol\":8895:8903  _votings */\n      dup2\n        /* \"contracts/Vote/VoterContract.sol\":8888:8903  return _votings */\n      swap3\n      pop\n      pop\n      pop\n        /* \"contracts/Vote/VoterContract.sol\":8311:8911  function getVotings(uint8 skip, uint8 take) external view returns(Voting[] memory){\r... */\n    tag_389:\n      swap3\n      swap2\n      pop\n      pop\n      jump\t// out\n        /* \"contracts/Vote/VoterContract.sol\":1621:1645  uint16 public voteId = 0 */\n    tag_112:\n      0x07\n      0x00\n      swap1\n      sload\n      swap1\n      0x0100\n      exp\n      swap1\n      div\n      0xffff\n      and\n      dup2\n      jump\t// out\n        /* \"contracts/Vote/VoterContract.sol\":9565:9859  function whatDidIVote(uint16[] memory idList) external view returns(uint8[] memory){\r... */\n    tag_116:\n        /* \"contracts/Vote/VoterContract.sol\":9633:9647  uint8[] memory */\n      0x60\n        /* \"contracts/Vote/VoterContract.sol\":9659:9679  uint8[] memory voted */\n      0x00\n        /* \"contracts/Vote/VoterContract.sol\":9694:9700  idList */\n      dup3\n        /* \"contracts/Vote/VoterContract.sol\":9694:9707  idList.length */\n      mload\n        /* \"contracts/Vote/VoterContract.sol\":9682:9708  new uint8[](idList.length) */\n      0xffffffffffffffff\n      dup2\n      gt\n      iszero\n      tag_440\n      jumpi\n      tag_441\n      tag_163\n      jump\t// in\n    tag_441:\n    tag_440:\n      mload(0x40)\n      swap1\n      dup1\n      dup3\n      mstore\n      dup1\n      0x20\n      mul\n      0x20\n      add\n      dup3\n      add\n      0x40\n      mstore\n      dup1\n      iszero\n      tag_442\n      jumpi\n      dup2\n      0x20\n      add\n      0x20\n      dup3\n      mul\n      dup1\n      calldatasize\n      dup4\n      calldatacopy\n      dup1\n      dup3\n      add\n      swap2\n      pop\n      pop\n      swap1\n      pop\n    tag_442:\n      pop\n        /* \"contracts/Vote/VoterContract.sol\":9659:9708  uint8[] memory voted = new uint8[](idList.length) */\n      swap1\n      pop\n        /* \"contracts/Vote/VoterContract.sol\":9725:9732  uint8 i */\n      0x00\n        /* \"contracts/Vote/VoterContract.sol\":9721:9829  for(uint8 i = 0; i < idList.length; i++){\r... */\n    tag_443:\n        /* \"contracts/Vote/VoterContract.sol\":9742:9748  idList */\n      dup4\n        /* \"contracts/Vote/VoterContract.sol\":9742:9755  idList.length */\n      mload\n        /* \"contracts/Vote/VoterContract.sol\":9738:9739  i */\n      dup2\n        /* \"contracts/Vote/VoterContract.sol\":9738:9755  i < idList.length */\n      0xff\n      and\n      lt\n        /* \"contracts/Vote/VoterContract.sol\":9721:9829  for(uint8 i = 0; i < idList.length; i++){\r... */\n      iszero\n      tag_444\n      jumpi\n        /* \"contracts/Vote/VoterContract.sol\":9785:9794  votePower */\n      0x03\n        /* \"contracts/Vote/VoterContract.sol\":9785:9805  votePower[idList[i]] */\n      0x00\n        /* \"contracts/Vote/VoterContract.sol\":9795:9801  idList */\n      dup6\n        /* \"contracts/Vote/VoterContract.sol\":9802:9803  i */\n      dup4\n        /* \"contracts/Vote/VoterContract.sol\":9795:9804  idList[i] */\n      0xff\n      and\n      dup2\n      mload\n      dup2\n      lt\n      tag_446\n      jumpi\n      tag_447\n      tag_191\n      jump\t// in\n    tag_447:\n    tag_446:\n      0x20\n      mul\n      0x20\n      add\n      add\n      mload\n        /* \"contracts/Vote/VoterContract.sol\":9785:9805  votePower[idList[i]] */\n      0xffff\n      and\n      0xffff\n      and\n      dup2\n      mstore\n      0x20\n      add\n      swap1\n      dup2\n      mstore\n      0x20\n      add\n      0x00\n      keccak256\n        /* \"contracts/Vote/VoterContract.sol\":9785:9817  votePower[idList[i]][msg.sender] */\n      0x00\n        /* \"contracts/Vote/VoterContract.sol\":9806:9816  msg.sender */\n      caller\n        /* \"contracts/Vote/VoterContract.sol\":9785:9817  votePower[idList[i]][msg.sender] */\n      0xffffffffffffffffffffffffffffffffffffffff\n      and\n      0xffffffffffffffffffffffffffffffffffffffff\n      and\n      dup2\n      mstore\n      0x20\n      add\n      swap1\n      dup2\n      mstore\n      0x20\n      add\n      0x00\n      keccak256\n      0x00\n      swap1\n      sload\n      swap1\n      0x0100\n      exp\n      swap1\n      div\n      0xff\n      and\n        /* \"contracts/Vote/VoterContract.sol\":9776:9781  voted */\n      dup3\n        /* \"contracts/Vote/VoterContract.sol\":9782:9783  i */\n      dup3\n        /* \"contracts/Vote/VoterContract.sol\":9776:9784  voted[i] */\n      0xff\n      and\n      dup2\n      mload\n      dup2\n      lt\n      tag_448\n      jumpi\n      tag_449\n      tag_191\n      jump\t// in\n    tag_449:\n    tag_448:\n      0x20\n      mul\n      0x20\n      add\n      add\n        /* \"contracts/Vote/VoterContract.sol\":9776:9817  voted[i]=votePower[idList[i]][msg.sender] */\n      swap1\n      0xff\n      and\n      swap1\n      dup2\n      0xff\n      and\n      dup2\n      mstore\n      pop\n      pop\n        /* \"contracts/Vote/VoterContract.sol\":9757:9760  i++ */\n      dup1\n      dup1\n      tag_450\n      swap1\n      tag_288\n      jump\t// in\n    tag_450:\n      swap2\n      pop\n      pop\n        /* \"contracts/Vote/VoterContract.sol\":9721:9829  for(uint8 i = 0; i < idList.length; i++){\r... */\n      jump(tag_443)\n    tag_444:\n      pop\n        /* \"contracts/Vote/VoterContract.sol\":9846:9851  voted */\n      dup1\n        /* \"contracts/Vote/VoterContract.sol\":9839:9851  return voted */\n      swap2\n      pop\n      pop\n        /* \"contracts/Vote/VoterContract.sol\":9565:9859  function whatDidIVote(uint16[] memory idList) external view returns(uint8[] memory){\r... */\n      swap2\n      swap1\n      pop\n      jump\t// out\n        /* \"contracts/Vote/VoterContract.sol\":6165:6413  function _closeVoting(uint16 id) private {\r... */\n    tag_137:\n        /* \"contracts/Vote/VoterContract.sol\":6242:6259  VotingType.Closed */\n      0x00\n        /* \"contracts/Vote/VoterContract.sol\":6217:6224  votings */\n      0x04\n        /* \"contracts/Vote/VoterContract.sol\":6217:6228  votings[id] */\n      0x00\n        /* \"contracts/Vote/VoterContract.sol\":6225:6227  id */\n      dup4\n        /* \"contracts/Vote/VoterContract.sol\":6217:6228  votings[id] */\n      0xffff\n      and\n      0xffff\n      and\n      dup2\n      mstore\n      0x20\n      add\n      swap1\n      dup2\n      mstore\n      0x20\n      add\n      0x00\n      keccak256\n        /* \"contracts/Vote/VoterContract.sol\":6217:6239  votings[id].votingType */\n      0x06\n      add\n      0x00\n        /* \"contracts/Vote/VoterContract.sol\":6217:6259  votings[id].votingType = VotingType.Closed */\n      0x0100\n      exp\n      dup2\n      sload\n      dup2\n      0xff\n      mul\n      not\n      and\n      swap1\n      dup4\n      0x02\n      dup2\n      gt\n      iszero\n      tag_452\n      jumpi\n      tag_453\n      tag_122\n      jump\t// in\n    tag_453:\n    tag_452:\n      mul\n      or\n      swap1\n      sstore\n      pop\n        /* \"contracts/Vote/VoterContract.sol\":6302:6314  block.number */\n      number\n        /* \"contracts/Vote/VoterContract.sol\":6270:6277  votings */\n      0x04\n        /* \"contracts/Vote/VoterContract.sol\":6270:6281  votings[id] */\n      0x00\n        /* \"contracts/Vote/VoterContract.sol\":6278:6280  id */\n      dup4\n        /* \"contracts/Vote/VoterContract.sol\":6270:6281  votings[id] */\n      0xffff\n      and\n      0xffff\n      and\n      dup2\n      mstore\n      0x20\n      add\n      swap1\n      dup2\n      mstore\n      0x20\n      add\n      0x00\n      keccak256\n        /* \"contracts/Vote/VoterContract.sol\":6270:6299  votings[id].blockNumberClosed */\n      0x05\n      add\n        /* \"contracts/Vote/VoterContract.sol\":6270:6314  votings[id].blockNumberClosed = block.number */\n      dup2\n      swap1\n      sstore\n      pop\n        /* \"contracts/Vote/VoterContract.sol\":6344:6346  id */\n      dup1\n        /* \"contracts/Vote/VoterContract.sol\":6332:6405  VotingEnded(id, votings[id].topic, votings[id].voted, votings[id].result) */\n      0xffff\n      and\n      0x74067fe4d5e2e892aba66fd751ee80c00aadda7333e763e9084815a0c29f6ebe\n        /* \"contracts/Vote/VoterContract.sol\":6348:6355  votings */\n      0x04\n        /* \"contracts/Vote/VoterContract.sol\":6348:6359  votings[id] */\n      0x00\n        /* \"contracts/Vote/VoterContract.sol\":6356:6358  id */\n      dup5\n        /* \"contracts/Vote/VoterContract.sol\":6348:6359  votings[id] */\n      0xffff\n      and\n      0xffff\n      and\n      dup2\n      mstore\n      0x20\n      add\n      swap1\n      dup2\n      mstore\n      0x20\n      add\n      0x00\n      keccak256\n        /* \"contracts/Vote/VoterContract.sol\":6348:6365  votings[id].topic */\n      0x01\n      add\n        /* \"contracts/Vote/VoterContract.sol\":6367:6374  votings */\n      0x04\n        /* \"contracts/Vote/VoterContract.sol\":6367:6378  votings[id] */\n      0x00\n        /* \"contracts/Vote/VoterContract.sol\":6375:6377  id */\n      dup6\n        /* \"contracts/Vote/VoterContract.sol\":6367:6378  votings[id] */\n      0xffff\n      and\n      0xffff\n      and\n      dup2\n      mstore\n      0x20\n      add\n      swap1\n      dup2\n      mstore\n      0x20\n      add\n      0x00\n      keccak256\n        /* \"contracts/Vote/VoterContract.sol\":6367:6384  votings[id].voted */\n      0x02\n      add\n      0x00\n      swap1\n      sload\n      swap1\n      0x0100\n      exp\n      swap1\n      div\n      0xffffffff\n      and\n        /* \"contracts/Vote/VoterContract.sol\":6386:6393  votings */\n      0x04\n        /* \"contracts/Vote/VoterContract.sol\":6386:6397  votings[id] */\n      0x00\n        /* \"contracts/Vote/VoterContract.sol\":6394:6396  id */\n      dup7\n        /* \"contracts/Vote/VoterContract.sol\":6386:6397  votings[id] */\n      0xffff\n      and\n      0xffff\n      and\n      dup2\n      mstore\n      0x20\n      add\n      swap1\n      dup2\n      mstore\n      0x20\n      add\n      0x00\n      keccak256\n        /* \"contracts/Vote/VoterContract.sol\":6386:6404  votings[id].result */\n      0x02\n      add\n      0x04\n      swap1\n      sload\n      swap1\n      0x0100\n      exp\n      swap1\n      div\n      0xffffffff\n      and\n        /* \"contracts/Vote/VoterContract.sol\":6332:6405  VotingEnded(id, votings[id].topic, votings[id].voted, votings[id].result) */\n      mload(0x40)\n      tag_454\n      swap4\n      swap3\n      swap2\n      swap1\n      tag_455\n      jump\t// in\n    tag_454:\n      mload(0x40)\n      dup1\n      swap2\n      sub\n      swap1\n      log2\n        /* \"contracts/Vote/VoterContract.sol\":6165:6413  function _closeVoting(uint16 id) private {\r... */\n      pop\n      jump\t// out\n        /* \"@openzeppelin/contracts/access/Ownable.sol\":1359:1489  function _checkOwner() internal view virtual {... */\n    tag_271:\n        /* \"@openzeppelin/contracts/access/Ownable.sol\":1433:1445  _msgSender() */\n      tag_457\n        /* \"@openzeppelin/contracts/access/Ownable.sol\":1433:1443  _msgSender */\n      tag_458\n        /* \"@openzeppelin/contracts/access/Ownable.sol\":1433:1445  _msgSender() */\n      jump\t// in\n    tag_457:\n        /* \"@openzeppelin/contracts/access/Ownable.sol\":1422:1445  owner() == _msgSender() */\n      0xffffffffffffffffffffffffffffffffffffffff\n      and\n        /* \"@openzeppelin/contracts/access/Ownable.sol\":1422:1429  owner() */\n      tag_459\n        /* \"@openzeppelin/contracts/access/Ownable.sol\":1422:1427  owner */\n      tag_69\n        /* \"@openzeppelin/contracts/access/Ownable.sol\":1422:1429  owner() */\n      jump\t// in\n    tag_459:\n        /* \"@openzeppelin/contracts/access/Ownable.sol\":1422:1445  owner() == _msgSender() */\n      0xffffffffffffffffffffffffffffffffffffffff\n      and\n      eq\n        /* \"@openzeppelin/contracts/access/Ownable.sol\":1414:1482  require(owner() == _msgSender(), \"Ownable: caller is not the owner\") */\n      tag_460\n      jumpi\n      mload(0x40)\n      0x08c379a000000000000000000000000000000000000000000000000000000000\n      dup2\n      mstore\n      0x04\n      add\n      tag_461\n      swap1\n      tag_462\n      jump\t// in\n    tag_461:\n      mload(0x40)\n      dup1\n      swap2\n      sub\n      swap1\n      revert\n    tag_460:\n        /* \"@openzeppelin/contracts/access/Ownable.sol\":1359:1489  function _checkOwner() internal view virtual {... */\n      jump\t// out\n        /* \"@openzeppelin/contracts/access/Ownable.sol\":2426:2613  function _transferOwnership(address newOwner) internal virtual {... */\n    tag_274:\n        /* \"@openzeppelin/contracts/access/Ownable.sol\":2499:2515  address oldOwner */\n      0x00\n        /* \"@openzeppelin/contracts/access/Ownable.sol\":2518:2524  _owner */\n      dup1\n      0x00\n      swap1\n      sload\n      swap1\n      0x0100\n      exp\n      swap1\n      div\n      0xffffffffffffffffffffffffffffffffffffffff\n      and\n        /* \"@openzeppelin/contracts/access/Ownable.sol\":2499:2524  address oldOwner = _owner */\n      swap1\n      pop\n        /* \"@openzeppelin/contracts/access/Ownable.sol\":2543:2551  newOwner */\n      dup2\n        /* \"@openzeppelin/contracts/access/Ownable.sol\":2534:2540  _owner */\n      0x00\n      dup1\n        /* \"@openzeppelin/contracts/access/Ownable.sol\":2534:2551  _owner = newOwner */\n      0x0100\n      exp\n      dup2\n      sload\n      dup2\n      0xffffffffffffffffffffffffffffffffffffffff\n      mul\n      not\n      and\n      swap1\n      dup4\n      0xffffffffffffffffffffffffffffffffffffffff\n      and\n      mul\n      or\n      swap1\n      sstore\n      pop\n        /* \"@openzeppelin/contracts/access/Ownable.sol\":2597:2605  newOwner */\n      dup2\n        /* \"@openzeppelin/contracts/access/Ownable.sol\":2566:2606  OwnershipTransferred(oldOwner, newOwner) */\n      0xffffffffffffffffffffffffffffffffffffffff\n      and\n        /* \"@openzeppelin/contracts/access/Ownable.sol\":2587:2595  oldOwner */\n      dup2\n        /* \"@openzeppelin/contracts/access/Ownable.sol\":2566:2606  OwnershipTransferred(oldOwner, newOwner) */\n      0xffffffffffffffffffffffffffffffffffffffff\n      and\n      0x8be0079c531659141344cd1fd0a4f28419497f9722a3daafe3b4186f6b6457e0\n      mload(0x40)\n      mload(0x40)\n      dup1\n      swap2\n      sub\n      swap1\n      log3\n        /* \"@openzeppelin/contracts/access/Ownable.sol\":2489:2613  {... */\n      pop\n        /* \"@openzeppelin/contracts/access/Ownable.sol\":2426:2613  function _transferOwnership(address newOwner) internal virtual {... */\n      pop\n      jump\t// out\n        /* \"contracts/Vote/VoterContract.sol\":5034:5403  function _closeProposal(uint16 id) private {\r... */\n    tag_368:\n        /* \"contracts/Vote/VoterContract.sol\":5088:5110  VotingType _votingType */\n      0x00\n        /* \"contracts/Vote/VoterContract.sol\":5113:5122  proposals */\n      0x06\n        /* \"contracts/Vote/VoterContract.sol\":5113:5126  proposals[id] */\n      0x00\n        /* \"contracts/Vote/VoterContract.sol\":5123:5125  id */\n      dup4\n        /* \"contracts/Vote/VoterContract.sol\":5113:5126  proposals[id] */\n      0xffff\n      and\n      0xffff\n      and\n      dup2\n      mstore\n      0x20\n      add\n      swap1\n      dup2\n      mstore\n      0x20\n      add\n      0x00\n      keccak256\n        /* \"contracts/Vote/VoterContract.sol\":5113:5139  proposals[id].proposalType */\n      0x06\n      add\n      0x00\n      swap1\n      sload\n      swap1\n      0x0100\n      exp\n      swap1\n      div\n      0xff\n      and\n        /* \"contracts/Vote/VoterContract.sol\":5088:5139  VotingType _votingType = proposals[id].proposalType */\n      swap1\n      pop\n        /* \"contracts/Vote/VoterContract.sol\":5181:5198  VotingType.Closed */\n      0x00\n        /* \"contracts/Vote/VoterContract.sol\":5152:5161  proposals */\n      0x06\n        /* \"contracts/Vote/VoterContract.sol\":5152:5165  proposals[id] */\n      0x00\n        /* \"contracts/Vote/VoterContract.sol\":5162:5164  id */\n      dup5\n        /* \"contracts/Vote/VoterContract.sol\":5152:5165  proposals[id] */\n      0xffff\n      and\n      0xffff\n      and\n      dup2\n      mstore\n      0x20\n      add\n      swap1\n      dup2\n      mstore\n      0x20\n      add\n      0x00\n      keccak256\n        /* \"contracts/Vote/VoterContract.sol\":5152:5178  proposals[id].proposalType */\n      0x06\n      add\n      0x00\n        /* \"contracts/Vote/VoterContract.sol\":5152:5198  proposals[id].proposalType = VotingType.Closed */\n      0x0100\n      exp\n      dup2\n      sload\n      dup2\n      0xff\n      mul\n      not\n      and\n      swap1\n      dup4\n      0x02\n      dup2\n      gt\n      iszero\n      tag_465\n      jumpi\n      tag_466\n      tag_122\n      jump\t// in\n    tag_466:\n    tag_465:\n      mul\n      or\n      swap1\n      sstore\n      pop\n        /* \"contracts/Vote/VoterContract.sol\":5243:5255  block.number */\n      number\n        /* \"contracts/Vote/VoterContract.sol\":5209:5218  proposals */\n      0x06\n        /* \"contracts/Vote/VoterContract.sol\":5209:5222  proposals[id] */\n      0x00\n        /* \"contracts/Vote/VoterContract.sol\":5219:5221  id */\n      dup5\n        /* \"contracts/Vote/VoterContract.sol\":5209:5222  proposals[id] */\n      0xffff\n      and\n      0xffff\n      and\n      dup2\n      mstore\n      0x20\n      add\n      swap1\n      dup2\n      mstore\n      0x20\n      add\n      0x00\n      keccak256\n        /* \"contracts/Vote/VoterContract.sol\":5209:5240  proposals[id].blockNumberClosed */\n      0x05\n      add\n        /* \"contracts/Vote/VoterContract.sol\":5209:5255  proposals[id].blockNumberClosed = block.number */\n      dup2\n      swap1\n      sstore\n      pop\n        /* \"contracts/Vote/VoterContract.sol\":5268:5296  _openVoting(id, _votingType) */\n      tag_467\n        /* \"contracts/Vote/VoterContract.sol\":5280:5282  id */\n      dup3\n        /* \"contracts/Vote/VoterContract.sol\":5284:5295  _votingType */\n      dup3\n        /* \"contracts/Vote/VoterContract.sol\":5268:5279  _openVoting */\n      tag_468\n        /* \"contracts/Vote/VoterContract.sol\":5268:5296  _openVoting(id, _votingType) */\n      jump\t// in\n    tag_467:\n        /* \"contracts/Vote/VoterContract.sol\":5328:5330  id */\n      dup2\n        /* \"contracts/Vote/VoterContract.sol\":5314:5395  ProposalEnded(id, proposals[id].topic, proposals[id].voted, proposals[id].result) */\n      0xffff\n      and\n      0x5b96817333b28a477ad5fc2de22e1cb6bc0709c42895ac3180b16a8f8f04956d\n        /* \"contracts/Vote/VoterContract.sol\":5332:5341  proposals */\n      0x06\n        /* \"contracts/Vote/VoterContract.sol\":5332:5345  proposals[id] */\n      0x00\n        /* \"contracts/Vote/VoterContract.sol\":5342:5344  id */\n      dup6\n        /* \"contracts/Vote/VoterContract.sol\":5332:5345  proposals[id] */\n      0xffff\n      and\n      0xffff\n      and\n      dup2\n      mstore\n      0x20\n      add\n      swap1\n      dup2\n      mstore\n      0x20\n      add\n      0x00\n      keccak256\n        /* \"contracts/Vote/VoterContract.sol\":5332:5351  proposals[id].topic */\n      0x01\n      add\n        /* \"contracts/Vote/VoterContract.sol\":5353:5362  proposals */\n      0x06\n        /* \"contracts/Vote/VoterContract.sol\":5353:5366  proposals[id] */\n      0x00\n        /* \"contracts/Vote/VoterContract.sol\":5363:5365  id */\n      dup7\n        /* \"contracts/Vote/VoterContract.sol\":5353:5366  proposals[id] */\n      0xffff\n      and\n      0xffff\n      and\n      dup2\n      mstore\n      0x20\n      add\n      swap1\n      dup2\n      mstore\n      0x20\n      add\n      0x00\n      keccak256\n        /* \"contracts/Vote/VoterContract.sol\":5353:5372  proposals[id].voted */\n      0x02\n      add\n      0x00\n      swap1\n      sload\n      swap1\n      0x0100\n      exp\n      swap1\n      div\n      0xffffffff\n      and\n        /* \"contracts/Vote/VoterContract.sol\":5374:5383  proposals */\n      0x06\n        /* \"contracts/Vote/VoterContract.sol\":5374:5387  proposals[id] */\n      0x00\n        /* \"contracts/Vote/VoterContract.sol\":5384:5386  id */\n      dup8\n        /* \"contracts/Vote/VoterContract.sol\":5374:5387  proposals[id] */\n      0xffff\n      and\n      0xffff\n      and\n      dup2\n      mstore\n      0x20\n      add\n      swap1\n      dup2\n      mstore\n      0x20\n      add\n      0x00\n      keccak256\n        /* \"contracts/Vote/VoterContract.sol\":5374:5394  proposals[id].result */\n      0x02\n      add\n      0x04\n      swap1\n      sload\n      swap1\n      0x0100\n      exp\n      swap1\n      div\n      0xffffffff\n      and\n        /* \"contracts/Vote/VoterContract.sol\":5314:5395  ProposalEnded(id, proposals[id].topic, proposals[id].voted, proposals[id].result) */\n      mload(0x40)\n      tag_469\n      swap4\n      swap3\n      swap2\n      swap1\n      tag_455\n      jump\t// in\n    tag_469:\n      mload(0x40)\n      dup1\n      swap2\n      sub\n      swap1\n      log2\n        /* \"contracts/Vote/VoterContract.sol\":5077:5403  {\r... */\n      pop\n        /* \"contracts/Vote/VoterContract.sol\":5034:5403  function _closeProposal(uint16 id) private {\r... */\n      pop\n      jump\t// out\n        /* \"@openzeppelin/contracts/utils/Context.sol\":640:736  function _msgSender() internal view virtual returns (address) {... */\n    tag_458:\n        /* \"@openzeppelin/contracts/utils/Context.sol\":693:700  address */\n      0x00\n        /* \"@openzeppelin/contracts/utils/Context.sol\":719:729  msg.sender */\n      caller\n        /* \"@openzeppelin/contracts/utils/Context.sol\":712:729  return msg.sender */\n      swap1\n      pop\n        /* \"@openzeppelin/contracts/utils/Context.sol\":640:736  function _msgSender() internal view virtual returns (address) {... */\n      swap1\n      jump\t// out\n        /* \"contracts/Vote/VoterContract.sol\":5413:6157  function _openVoting(uint16 _proposalId, VotingType _votingType) private {\r... */\n    tag_468:\n        /* \"contracts/Vote/VoterContract.sol\":5520:5537  VotingType.Closed */\n      0x00\n        /* \"contracts/Vote/VoterContract.sol\":5505:5537  _votingType != VotingType.Closed */\n      0x02\n      dup2\n      gt\n      iszero\n      tag_472\n      jumpi\n      tag_473\n      tag_122\n      jump\t// in\n    tag_473:\n    tag_472:\n        /* \"contracts/Vote/VoterContract.sol\":5505:5516  _votingType */\n      dup2\n        /* \"contracts/Vote/VoterContract.sol\":5505:5537  _votingType != VotingType.Closed */\n      0x02\n      dup2\n      gt\n      iszero\n      tag_474\n      jumpi\n      tag_475\n      tag_122\n      jump\t// in\n    tag_475:\n    tag_474:\n      eq\n      iszero\n        /* \"contracts/Vote/VoterContract.sol\":5497:5587  require(_votingType != VotingType.Closed,\"Voting Type cannot be closed at initial state.\") */\n      tag_476\n      jumpi\n      mload(0x40)\n      0x08c379a000000000000000000000000000000000000000000000000000000000\n      dup2\n      mstore\n      0x04\n      add\n      tag_477\n      swap1\n      tag_478\n      jump\t// in\n    tag_477:\n      mload(0x40)\n      dup1\n      swap2\n      sub\n      swap1\n      revert\n    tag_476:\n        /* \"contracts/Vote/VoterContract.sol\":5629:5635  voteId */\n      0x07\n      0x00\n      swap1\n      sload\n      swap1\n      0x0100\n      exp\n      swap1\n      div\n      0xffff\n      and\n        /* \"contracts/Vote/VoterContract.sol\":5608:5615  votings */\n      0x04\n        /* \"contracts/Vote/VoterContract.sol\":5608:5623  votings[voteId] */\n      0x00\n        /* \"contracts/Vote/VoterContract.sol\":5616:5622  voteId */\n      0x07\n      0x00\n      swap1\n      sload\n      swap1\n      0x0100\n      exp\n      swap1\n      div\n      0xffff\n      and\n        /* \"contracts/Vote/VoterContract.sol\":5608:5623  votings[voteId] */\n      0xffff\n      and\n      0xffff\n      and\n      dup2\n      mstore\n      0x20\n      add\n      swap1\n      dup2\n      mstore\n      0x20\n      add\n      0x00\n      keccak256\n        /* \"contracts/Vote/VoterContract.sol\":5608:5626  votings[voteId].id */\n      0x00\n      add\n      0x00\n        /* \"contracts/Vote/VoterContract.sol\":5608:5635  votings[voteId].id = voteId */\n      0x0100\n      exp\n      dup2\n      sload\n      dup2\n      0xffff\n      mul\n      not\n      and\n      swap1\n      dup4\n      0xffff\n      and\n      mul\n      or\n      swap1\n      sstore\n      pop\n        /* \"contracts/Vote/VoterContract.sol\":5673:5682  proposals */\n      0x06\n        /* \"contracts/Vote/VoterContract.sol\":5673:5695  proposals[_proposalId] */\n      0x00\n        /* \"contracts/Vote/VoterContract.sol\":5683:5694  _proposalId */\n      dup4\n        /* \"contracts/Vote/VoterContract.sol\":5673:5695  proposals[_proposalId] */\n      0xffff\n      and\n      0xffff\n      and\n      dup2\n      mstore\n      0x20\n      add\n      swap1\n      dup2\n      mstore\n      0x20\n      add\n      0x00\n      keccak256\n        /* \"contracts/Vote/VoterContract.sol\":5673:5704  proposals[_proposalId].proposer */\n      0x02\n      add\n      0x08\n      swap1\n      sload\n      swap1\n      0x0100\n      exp\n      swap1\n      div\n      0xffffffffffffffffffffffffffffffffffffffff\n      and\n        /* \"contracts/Vote/VoterContract.sol\":5646:5653  votings */\n      0x04\n        /* \"contracts/Vote/VoterContract.sol\":5646:5661  votings[voteId] */\n      0x00\n        /* \"contracts/Vote/VoterContract.sol\":5654:5660  voteId */\n      0x07\n      0x00\n      swap1\n      sload\n      swap1\n      0x0100\n      exp\n      swap1\n      div\n      0xffff\n      and\n        /* \"contracts/Vote/VoterContract.sol\":5646:5661  votings[voteId] */\n      0xffff\n      and\n      0xffff\n      and\n      dup2\n      mstore\n      0x20\n      add\n      swap1\n      dup2\n      mstore\n      0x20\n      add\n      0x00\n      keccak256\n        /* \"contracts/Vote/VoterContract.sol\":5646:5670  votings[voteId].proposer */\n      0x02\n      add\n      0x08\n        /* \"contracts/Vote/VoterContract.sol\":5646:5704  votings[voteId].proposer = proposals[_proposalId].proposer */\n      0x0100\n      exp\n      dup2\n      sload\n      dup2\n      0xffffffffffffffffffffffffffffffffffffffff\n      mul\n      not\n      and\n      swap1\n      dup4\n      0xffffffffffffffffffffffffffffffffffffffff\n      and\n      mul\n      or\n      swap1\n      sstore\n      pop\n        /* \"contracts/Vote/VoterContract.sol\":5741:5750  proposals */\n      0x06\n        /* \"contracts/Vote/VoterContract.sol\":5741:5763  proposals[_proposalId] */\n      0x00\n        /* \"contracts/Vote/VoterContract.sol\":5751:5762  _proposalId */\n      dup4\n        /* \"contracts/Vote/VoterContract.sol\":5741:5763  proposals[_proposalId] */\n      0xffff\n      and\n      0xffff\n      and\n      dup2\n      mstore\n      0x20\n      add\n      swap1\n      dup2\n      mstore\n      0x20\n      add\n      0x00\n      keccak256\n        /* \"contracts/Vote/VoterContract.sol\":5741:5769  proposals[_proposalId].topic */\n      0x01\n      add\n        /* \"contracts/Vote/VoterContract.sol\":5717:5724  votings */\n      0x04\n        /* \"contracts/Vote/VoterContract.sol\":5717:5732  votings[voteId] */\n      0x00\n        /* \"contracts/Vote/VoterContract.sol\":5725:5731  voteId */\n      0x07\n      0x00\n      swap1\n      sload\n      swap1\n      0x0100\n      exp\n      swap1\n      div\n      0xffff\n      and\n        /* \"contracts/Vote/VoterContract.sol\":5717:5732  votings[voteId] */\n      0xffff\n      and\n      0xffff\n      and\n      dup2\n      mstore\n      0x20\n      add\n      swap1\n      dup2\n      mstore\n      0x20\n      add\n      0x00\n      keccak256\n        /* \"contracts/Vote/VoterContract.sol\":5717:5738  votings[voteId].topic */\n      0x01\n      add\n        /* \"contracts/Vote/VoterContract.sol\":5717:5769  votings[voteId].topic = proposals[_proposalId].topic */\n      swap1\n      dup1\n      sload\n      tag_479\n      swap1\n      tag_179\n      jump\t// in\n    tag_479:\n      tag_480\n      swap3\n      swap2\n      swap1\n      tag_481\n      jump\t// in\n    tag_480:\n      pop\n        /* \"contracts/Vote/VoterContract.sol\":5817:5829  block.number */\n      number\n        /* \"contracts/Vote/VoterContract.sol\":5780:5787  votings */\n      0x04\n        /* \"contracts/Vote/VoterContract.sol\":5780:5795  votings[voteId] */\n      0x00\n        /* \"contracts/Vote/VoterContract.sol\":5788:5794  voteId */\n      0x07\n      0x00\n      swap1\n      sload\n      swap1\n      0x0100\n      exp\n      swap1\n      div\n      0xffff\n      and\n        /* \"contracts/Vote/VoterContract.sol\":5780:5795  votings[voteId] */\n      0xffff\n      and\n      0xffff\n      and\n      dup2\n      mstore\n      0x20\n      add\n      swap1\n      dup2\n      mstore\n      0x20\n      add\n      0x00\n      keccak256\n        /* \"contracts/Vote/VoterContract.sol\":5780:5814  votings[voteId].blockNumberStarted */\n      0x03\n      add\n        /* \"contracts/Vote/VoterContract.sol\":5780:5829  votings[voteId].blockNumberStarted = block.number */\n      dup2\n      swap1\n      sstore\n      pop\n        /* \"contracts/Vote/VoterContract.sol\":1611:1612  1 */\n      0x01\n        /* \"contracts/Vote/VoterContract.sol\":5886:5917  block.number + minBlockDuration */\n      0xff\n      and\n        /* \"contracts/Vote/VoterContract.sol\":5886:5898  block.number */\n      number\n        /* \"contracts/Vote/VoterContract.sol\":5886:5917  block.number + minBlockDuration */\n      tag_482\n      swap2\n      swap1\n      tag_154\n      jump\t// in\n    tag_482:\n        /* \"contracts/Vote/VoterContract.sol\":5840:5847  votings */\n      0x04\n        /* \"contracts/Vote/VoterContract.sol\":5840:5855  votings[voteId] */\n      0x00\n        /* \"contracts/Vote/VoterContract.sol\":5848:5854  voteId */\n      0x07\n      0x00\n      swap1\n      sload\n      swap1\n      0x0100\n      exp\n      swap1\n      div\n      0xffff\n      and\n        /* \"contracts/Vote/VoterContract.sol\":5840:5855  votings[voteId] */\n      0xffff\n      and\n      0xffff\n      and\n      dup2\n      mstore\n      0x20\n      add\n      swap1\n      dup2\n      mstore\n      0x20\n      add\n      0x00\n      keccak256\n        /* \"contracts/Vote/VoterContract.sol\":5840:5883  votings[voteId].blockNumberWillNotEndBefore */\n      0x04\n      add\n        /* \"contracts/Vote/VoterContract.sol\":5840:5917  votings[voteId].blockNumberWillNotEndBefore = block.number + minBlockDuration */\n      dup2\n      swap1\n      sstore\n      pop\n        /* \"contracts/Vote/VoterContract.sol\":5957:5958  0 */\n      0x00\n        /* \"contracts/Vote/VoterContract.sol\":5932:5939  votings */\n      0x04\n        /* \"contracts/Vote/VoterContract.sol\":5932:5947  votings[voteId] */\n      0x00\n        /* \"contracts/Vote/VoterContract.sol\":5940:5946  voteId */\n      0x07\n      0x00\n      swap1\n      sload\n      swap1\n      0x0100\n      exp\n      swap1\n      div\n      0xffff\n      and\n        /* \"contracts/Vote/VoterContract.sol\":5932:5947  votings[voteId] */\n      0xffff\n      and\n      0xffff\n      and\n      dup2\n      mstore\n      0x20\n      add\n      swap1\n      dup2\n      mstore\n      0x20\n      add\n      0x00\n      keccak256\n        /* \"contracts/Vote/VoterContract.sol\":5932:5954  votings[voteId].result */\n      0x02\n      add\n      0x04\n        /* \"contracts/Vote/VoterContract.sol\":5932:5958  votings[voteId].result = 0 */\n      0x0100\n      exp\n      dup2\n      sload\n      dup2\n      0xffffffff\n      mul\n      not\n      and\n      swap1\n      dup4\n      0xffffffff\n      and\n      mul\n      or\n      swap1\n      sstore\n      pop\n        /* \"contracts/Vote/VoterContract.sol\":5993:5994  0 */\n      0x00\n        /* \"contracts/Vote/VoterContract.sol\":5969:5976  votings */\n      0x04\n        /* \"contracts/Vote/VoterContract.sol\":5969:5984  votings[voteId] */\n      0x00\n        /* \"contracts/Vote/VoterContract.sol\":5977:5983  voteId */\n      0x07\n      0x00\n      swap1\n      sload\n      swap1\n      0x0100\n      exp\n      swap1\n      div\n      0xffff\n      and\n        /* \"contracts/Vote/VoterContract.sol\":5969:5984  votings[voteId] */\n      0xffff\n      and\n      0xffff\n      and\n      dup2\n      mstore\n      0x20\n      add\n      swap1\n      dup2\n      mstore\n      0x20\n      add\n      0x00\n      keccak256\n        /* \"contracts/Vote/VoterContract.sol\":5969:5990  votings[voteId].voted */\n      0x02\n      add\n      0x00\n        /* \"contracts/Vote/VoterContract.sol\":5969:5994  votings[voteId].voted = 0 */\n      0x0100\n      exp\n      dup2\n      sload\n      dup2\n      0xffffffff\n      mul\n      not\n      and\n      swap1\n      dup4\n      0xffffffff\n      and\n      mul\n      or\n      swap1\n      sstore\n      pop\n        /* \"contracts/Vote/VoterContract.sol\":6036:6047  _votingType */\n      dup1\n        /* \"contracts/Vote/VoterContract.sol\":6007:6014  votings */\n      0x04\n        /* \"contracts/Vote/VoterContract.sol\":6007:6022  votings[voteId] */\n      0x00\n        /* \"contracts/Vote/VoterContract.sol\":6015:6021  voteId */\n      0x07\n      0x00\n      swap1\n      sload\n      swap1\n      0x0100\n      exp\n      swap1\n      div\n      0xffff\n      and\n        /* \"contracts/Vote/VoterContract.sol\":6007:6022  votings[voteId] */\n      0xffff\n      and\n      0xffff\n      and\n      dup2\n      mstore\n      0x20\n      add\n      swap1\n      dup2\n      mstore\n      0x20\n      add\n      0x00\n      keccak256\n        /* \"contracts/Vote/VoterContract.sol\":6007:6033  votings[voteId].votingType */\n      0x06\n      add\n      0x00\n        /* \"contracts/Vote/VoterContract.sol\":6007:6047  votings[voteId].votingType = _votingType */\n      0x0100\n      exp\n      dup2\n      sload\n      dup2\n      0xff\n      mul\n      not\n      and\n      swap1\n      dup4\n      0x02\n      dup2\n      gt\n      iszero\n      tag_483\n      jumpi\n      tag_484\n      tag_122\n      jump\t// in\n    tag_484:\n    tag_483:\n      mul\n      or\n      swap1\n      sstore\n      pop\n        /* \"contracts/Vote/VoterContract.sol\":6069:6070  1 */\n      0x01\n        /* \"contracts/Vote/VoterContract.sol\":6060:6066  voteId */\n      0x07\n      0x00\n        /* \"contracts/Vote/VoterContract.sol\":6060:6070  voteId +=1 */\n      dup3\n      dup3\n      dup3\n      swap1\n      sload\n      swap1\n      0x0100\n      exp\n      swap1\n      div\n      0xffff\n      and\n      tag_485\n      swap2\n      swap1\n      tag_158\n      jump\t// in\n    tag_485:\n      swap3\n      pop\n      0x0100\n      exp\n      dup2\n      sload\n      dup2\n      0xffff\n      mul\n      not\n      and\n      swap1\n      dup4\n      0xffff\n      and\n      mul\n      or\n      swap1\n      sstore\n      pop\n        /* \"contracts/Vote/VoterContract.sol\":6117:6118  1 */\n      0x01\n        /* \"contracts/Vote/VoterContract.sol\":6110:6116  voteId */\n      0x07\n      0x00\n      swap1\n      sload\n      swap1\n      0x0100\n      exp\n      swap1\n      div\n      0xffff\n      and\n        /* \"contracts/Vote/VoterContract.sol\":6110:6118  voteId-1 */\n      tag_486\n      swap2\n      swap1\n      tag_176\n      jump\t// in\n    tag_486:\n        /* \"contracts/Vote/VoterContract.sol\":6096:6149  VotingStarted(voteId-1, proposals[_proposalId].topic) */\n      0xffff\n      and\n      0x673c7227a10fc9c3b48d83ed5a3adbaf2bec2ceff9d15cf30c98816a3a16859e\n        /* \"contracts/Vote/VoterContract.sol\":6120:6129  proposals */\n      0x06\n        /* \"contracts/Vote/VoterContract.sol\":6120:6142  proposals[_proposalId] */\n      0x00\n        /* \"contracts/Vote/VoterContract.sol\":6130:6141  _proposalId */\n      dup6\n        /* \"contracts/Vote/VoterContract.sol\":6120:6142  proposals[_proposalId] */\n      0xffff\n      and\n      0xffff\n      and\n      dup2\n      mstore\n      0x20\n      add\n      swap1\n      dup2\n      mstore\n      0x20\n      add\n      0x00\n      keccak256\n        /* \"contracts/Vote/VoterContract.sol\":6120:6148  proposals[_proposalId].topic */\n      0x01\n      add\n        /* \"contracts/Vote/VoterContract.sol\":6096:6149  VotingStarted(voteId-1, proposals[_proposalId].topic) */\n      mload(0x40)\n      tag_487\n      swap2\n      swap1\n      tag_488\n      jump\t// in\n    tag_487:\n      mload(0x40)\n      dup1\n      swap2\n      sub\n      swap1\n      log2\n        /* \"contracts/Vote/VoterContract.sol\":5413:6157  function _openVoting(uint16 _proposalId, VotingType _votingType) private {\r... */\n      pop\n      pop\n      jump\t// out\n    tag_152:\n      dup3\n      dup1\n      sload\n      tag_489\n      swap1\n      tag_179\n      jump\t// in\n    tag_489:\n      swap1\n      0x00\n      mstore\n      keccak256(0x00, 0x20)\n      swap1\n      0x1f\n      add\n      0x20\n      swap1\n      div\n      dup2\n      add\n      swap3\n      dup3\n      tag_491\n      jumpi\n      0x00\n      dup6\n      sstore\n      jump(tag_490)\n    tag_491:\n      dup3\n      0x1f\n      lt\n      tag_492\n      jumpi\n      dup1\n      calldataload\n      not(0xff)\n      and\n      dup4\n      dup1\n      add\n      or\n      dup6\n      sstore\n      jump(tag_490)\n    tag_492:\n      dup3\n      dup1\n      add\n      0x01\n      add\n      dup6\n      sstore\n      dup3\n      iszero\n      tag_490\n      jumpi\n      swap2\n      dup3\n      add\n    tag_493:\n      dup3\n      dup2\n      gt\n      iszero\n      tag_494\n      jumpi\n      dup3\n      calldataload\n      dup3\n      sstore\n      swap2\n      0x20\n      add\n      swap2\n      swap1\n      0x01\n      add\n      swap1\n      jump(tag_493)\n    tag_494:\n    tag_490:\n      pop\n      swap1\n      pop\n      tag_495\n      swap2\n      swap1\n      tag_496\n      jump\t// in\n    tag_495:\n      pop\n      swap1\n      jump\t// out\n    tag_167:\n      mload(0x40)\n      dup1\n      0x0120\n      add\n      0x40\n      mstore\n      dup1\n      and(0xffff, 0x00)\n      dup2\n      mstore\n      0x20\n      add\n      0x60\n      dup2\n      mstore\n      0x20\n      add\n      and(0xffffffff, 0x00)\n      dup2\n      mstore\n      0x20\n      add\n      and(0xffffffff, 0x00)\n      dup2\n      mstore\n      0x20\n      add\n      and(0xffffffffffffffffffffffffffffffffffffffff, 0x00)\n      dup2\n      mstore\n      0x20\n      add\n      0x00\n      dup2\n      mstore\n      0x20\n      add\n      0x00\n      dup2\n      mstore\n      0x20\n      add\n      0x00\n      dup2\n      mstore\n      0x20\n      add\n      0x00\n      0x02\n      dup2\n      gt\n      iszero\n      tag_497\n      jumpi\n      tag_498\n      tag_122\n      jump\t// in\n    tag_498:\n    tag_497:\n      dup2\n      mstore\n      pop\n      swap1\n      jump\t// out\n    tag_396:\n      mload(0x40)\n      dup1\n      0x0120\n      add\n      0x40\n      mstore\n      dup1\n      and(0xffff, 0x00)\n      dup2\n      mstore\n      0x20\n      add\n      0x60\n      dup2\n      mstore\n      0x20\n      add\n      and(0xffffffff, 0x00)\n      dup2\n      mstore\n      0x20\n      add\n      and(0xffffffff, 0x00)\n      dup2\n      mstore\n      0x20\n      add\n      and(0xffffffffffffffffffffffffffffffffffffffff, 0x00)\n      dup2\n      mstore\n      0x20\n      add\n      0x00\n      dup2\n      mstore\n      0x20\n      add\n      0x00\n      dup2\n      mstore\n      0x20\n      add\n      0x00\n      dup2\n      mstore\n      0x20\n      add\n      0x00\n      0x02\n      dup2\n      gt\n      iszero\n      tag_499\n      jumpi\n      tag_500\n      tag_122\n      jump\t// in\n    tag_500:\n    tag_499:\n      dup2\n      mstore\n      pop\n      swap1\n      jump\t// out\n    tag_481:\n      dup3\n      dup1\n      sload\n      tag_501\n      swap1\n      tag_179\n      jump\t// in\n    tag_501:\n      swap1\n      0x00\n      mstore\n      keccak256(0x00, 0x20)\n      swap1\n      0x1f\n      add\n      0x20\n      swap1\n      div\n      dup2\n      add\n      swap3\n      dup3\n      tag_503\n      jumpi\n      0x00\n      dup6\n      sstore\n      jump(tag_502)\n    tag_503:\n      dup3\n      0x1f\n      lt\n      tag_504\n      jumpi\n      dup1\n      sload\n      dup6\n      sstore\n      jump(tag_502)\n    tag_504:\n      dup3\n      dup1\n      add\n      0x01\n      add\n      dup6\n      sstore\n      dup3\n      iszero\n      tag_502\n      jumpi\n      0x00\n      mstore\n      keccak256(0x00, 0x20)\n      swap2\n      0x1f\n      add\n      0x20\n      swap1\n      div\n      dup3\n      add\n    tag_505:\n      dup3\n      dup2\n      gt\n      iszero\n      tag_506\n      jumpi\n      dup3\n      sload\n      dup3\n      sstore\n      swap2\n      0x01\n      add\n      swap2\n      swap1\n      0x01\n      add\n      swap1\n      jump(tag_505)\n    tag_506:\n    tag_502:\n      pop\n      swap1\n      pop\n      tag_507\n      swap2\n      swap1\n      tag_496\n      jump\t// in\n    tag_507:\n      pop\n      swap1\n      jump\t// out\n    tag_496:\n    tag_508:\n      dup1\n      dup3\n      gt\n      iszero\n      tag_509\n      jumpi\n      0x00\n      dup2\n      0x00\n      swap1\n      sstore\n      pop\n      0x01\n      add\n      jump(tag_508)\n    tag_509:\n      pop\n      swap1\n      jump\t// out\n        /* \"#utility.yul\":23:742   */\n    tag_511:\n        /* \"#utility.yul\":118:123   */\n      0x00\n        /* \"#utility.yul\":143:223   */\n      tag_513\n        /* \"#utility.yul\":159:222   */\n      tag_514\n        /* \"#utility.yul\":215:221   */\n      dup5\n        /* \"#utility.yul\":159:222   */\n      tag_515\n      jump\t// in\n    tag_514:\n        /* \"#utility.yul\":143:223   */\n      tag_516\n      jump\t// in\n    tag_513:\n        /* \"#utility.yul\":134:223   */\n      swap1\n      pop\n        /* \"#utility.yul\":243:248   */\n      dup1\n        /* \"#utility.yul\":272:278   */\n      dup4\n        /* \"#utility.yul\":265:270   */\n      dup3\n        /* \"#utility.yul\":258:279   */\n      mstore\n        /* \"#utility.yul\":306:310   */\n      0x20\n        /* \"#utility.yul\":299:304   */\n      dup3\n        /* \"#utility.yul\":295:311   */\n      add\n        /* \"#utility.yul\":288:311   */\n      swap1\n      pop\n        /* \"#utility.yul\":332:338   */\n      dup3\n        /* \"#utility.yul\":382:385   */\n      dup6\n        /* \"#utility.yul\":374:378   */\n      0x20\n        /* \"#utility.yul\":366:372   */\n      dup7\n        /* \"#utility.yul\":362:379   */\n      mul\n        /* \"#utility.yul\":357:360   */\n      dup3\n        /* \"#utility.yul\":353:380   */\n      add\n        /* \"#utility.yul\":350:386   */\n      gt\n        /* \"#utility.yul\":347:490   */\n      iszero\n      tag_517\n      jumpi\n        /* \"#utility.yul\":401:480   */\n      tag_518\n      tag_519\n      jump\t// in\n    tag_518:\n        /* \"#utility.yul\":347:490   */\n    tag_517:\n        /* \"#utility.yul\":514:515   */\n      0x00\n        /* \"#utility.yul\":499:736   */\n    tag_520:\n        /* \"#utility.yul\":524:530   */\n      dup6\n        /* \"#utility.yul\":521:522   */\n      dup2\n        /* \"#utility.yul\":518:531   */\n      lt\n        /* \"#utility.yul\":499:736   */\n      iszero\n      tag_522\n      jumpi\n        /* \"#utility.yul\":592:595   */\n      dup2\n        /* \"#utility.yul\":621:657   */\n      tag_523\n        /* \"#utility.yul\":653:656   */\n      dup9\n        /* \"#utility.yul\":641:651   */\n      dup3\n        /* \"#utility.yul\":621:657   */\n      tag_524\n      jump\t// in\n    tag_523:\n        /* \"#utility.yul\":616:619   */\n      dup5\n        /* \"#utility.yul\":609:658   */\n      mstore\n        /* \"#utility.yul\":687:691   */\n      0x20\n        /* \"#utility.yul\":682:685   */\n      dup5\n        /* \"#utility.yul\":678:692   */\n      add\n        /* \"#utility.yul\":671:692   */\n      swap4\n      pop\n        /* \"#utility.yul\":721:725   */\n      0x20\n        /* \"#utility.yul\":716:719   */\n      dup4\n        /* \"#utility.yul\":712:726   */\n      add\n        /* \"#utility.yul\":705:726   */\n      swap3\n      pop\n        /* \"#utility.yul\":559:736   */\n      pop\n        /* \"#utility.yul\":546:547   */\n      0x01\n        /* \"#utility.yul\":543:544   */\n      dup2\n        /* \"#utility.yul\":539:548   */\n      add\n        /* \"#utility.yul\":534:548   */\n      swap1\n      pop\n        /* \"#utility.yul\":499:736   */\n      jump(tag_520)\n    tag_522:\n        /* \"#utility.yul\":503:517   */\n      pop\n        /* \"#utility.yul\":124:742   */\n      pop\n      pop\n        /* \"#utility.yul\":23:742   */\n      swap4\n      swap3\n      pop\n      pop\n      pop\n      jump\t// out\n        /* \"#utility.yul\":748:887   */\n    tag_525:\n        /* \"#utility.yul\":794:799   */\n      0x00\n        /* \"#utility.yul\":832:838   */\n      dup2\n        /* \"#utility.yul\":819:839   */\n      calldataload\n        /* \"#utility.yul\":810:839   */\n      swap1\n      pop\n        /* \"#utility.yul\":848:881   */\n      tag_527\n        /* \"#utility.yul\":875:880   */\n      dup2\n        /* \"#utility.yul\":848:881   */\n      tag_528\n      jump\t// in\n    tag_527:\n        /* \"#utility.yul\":748:887   */\n      swap3\n      swap2\n      pop\n      pop\n      jump\t// out\n        /* \"#utility.yul\":909:1277   */\n    tag_529:\n        /* \"#utility.yul\":979:984   */\n      0x00\n        /* \"#utility.yul\":1028:1031   */\n      dup3\n        /* \"#utility.yul\":1021:1025   */\n      0x1f\n        /* \"#utility.yul\":1013:1019   */\n      dup4\n        /* \"#utility.yul\":1009:1026   */\n      add\n        /* \"#utility.yul\":1005:1032   */\n      slt\n        /* \"#utility.yul\":995:1117   */\n      tag_531\n      jumpi\n        /* \"#utility.yul\":1036:1115   */\n      tag_532\n      tag_533\n      jump\t// in\n    tag_532:\n        /* \"#utility.yul\":995:1117   */\n    tag_531:\n        /* \"#utility.yul\":1153:1159   */\n      dup2\n        /* \"#utility.yul\":1140:1160   */\n      calldataload\n        /* \"#utility.yul\":1178:1271   */\n      tag_534\n        /* \"#utility.yul\":1267:1270   */\n      dup5\n        /* \"#utility.yul\":1259:1265   */\n      dup3\n        /* \"#utility.yul\":1252:1256   */\n      0x20\n        /* \"#utility.yul\":1244:1250   */\n      dup7\n        /* \"#utility.yul\":1240:1257   */\n      add\n        /* \"#utility.yul\":1178:1271   */\n      tag_511\n      jump\t// in\n    tag_534:\n        /* \"#utility.yul\":1169:1271   */\n      swap2\n      pop\n        /* \"#utility.yul\":985:1277   */\n      pop\n        /* \"#utility.yul\":909:1277   */\n      swap3\n      swap2\n      pop\n      pop\n      jump\t// out\n        /* \"#utility.yul\":1283:1440   */\n    tag_535:\n        /* \"#utility.yul\":1338:1343   */\n      0x00\n        /* \"#utility.yul\":1376:1382   */\n      dup2\n        /* \"#utility.yul\":1363:1383   */\n      calldataload\n        /* \"#utility.yul\":1354:1383   */\n      swap1\n      pop\n        /* \"#utility.yul\":1392:1434   */\n      tag_537\n        /* \"#utility.yul\":1428:1433   */\n      dup2\n        /* \"#utility.yul\":1392:1434   */\n      tag_538\n      jump\t// in\n    tag_537:\n        /* \"#utility.yul\":1283:1440   */\n      swap3\n      swap2\n      pop\n      pop\n      jump\t// out\n        /* \"#utility.yul\":1446:1613   */\n    tag_539:\n        /* \"#utility.yul\":1506:1511   */\n      0x00\n        /* \"#utility.yul\":1544:1550   */\n      dup2\n        /* \"#utility.yul\":1531:1551   */\n      calldataload\n        /* \"#utility.yul\":1522:1551   */\n      swap1\n      pop\n        /* \"#utility.yul\":1560:1607   */\n      tag_541\n        /* \"#utility.yul\":1601:1606   */\n      dup2\n        /* \"#utility.yul\":1560:1607   */\n      tag_542\n      jump\t// in\n    tag_541:\n        /* \"#utility.yul\":1446:1613   */\n      swap3\n      swap2\n      pop\n      pop\n      jump\t// out\n        /* \"#utility.yul\":1633:2186   */\n    tag_543:\n        /* \"#utility.yul\":1691:1699   */\n      0x00\n        /* \"#utility.yul\":1701:1707   */\n      dup1\n        /* \"#utility.yul\":1751:1754   */\n      dup4\n        /* \"#utility.yul\":1744:1748   */\n      0x1f\n        /* \"#utility.yul\":1736:1742   */\n      dup5\n        /* \"#utility.yul\":1732:1749   */\n      add\n        /* \"#utility.yul\":1728:1755   */\n      slt\n        /* \"#utility.yul\":1718:1840   */\n      tag_545\n      jumpi\n        /* \"#utility.yul\":1759:1838   */\n      tag_546\n      tag_533\n      jump\t// in\n    tag_546:\n        /* \"#utility.yul\":1718:1840   */\n    tag_545:\n        /* \"#utility.yul\":1872:1878   */\n      dup3\n        /* \"#utility.yul\":1859:1879   */\n      calldataload\n        /* \"#utility.yul\":1849:1879   */\n      swap1\n      pop\n        /* \"#utility.yul\":1902:1920   */\n      0xffffffffffffffff\n        /* \"#utility.yul\":1894:1900   */\n      dup2\n        /* \"#utility.yul\":1891:1921   */\n      gt\n        /* \"#utility.yul\":1888:2005   */\n      iszero\n      tag_547\n      jumpi\n        /* \"#utility.yul\":1924:2003   */\n      tag_548\n      tag_549\n      jump\t// in\n    tag_548:\n        /* \"#utility.yul\":1888:2005   */\n    tag_547:\n        /* \"#utility.yul\":2038:2042   */\n      0x20\n        /* \"#utility.yul\":2030:2036   */\n      dup4\n        /* \"#utility.yul\":2026:2043   */\n      add\n        /* \"#utility.yul\":2014:2043   */\n      swap2\n      pop\n        /* \"#utility.yul\":2092:2095   */\n      dup4\n        /* \"#utility.yul\":2084:2088   */\n      0x01\n        /* \"#utility.yul\":2076:2082   */\n      dup3\n        /* \"#utility.yul\":2072:2089   */\n      mul\n        /* \"#utility.yul\":2062:2070   */\n      dup4\n        /* \"#utility.yul\":2058:2090   */\n      add\n        /* \"#utility.yul\":2055:2096   */\n      gt\n        /* \"#utility.yul\":2052:2180   */\n      iszero\n      tag_550\n      jumpi\n        /* \"#utility.yul\":2099:2178   */\n      tag_551\n      tag_519\n      jump\t// in\n    tag_551:\n        /* \"#utility.yul\":2052:2180   */\n    tag_550:\n        /* \"#utility.yul\":1633:2186   */\n      swap3\n      pop\n      swap3\n      swap1\n      pop\n      jump\t// out\n        /* \"#utility.yul\":2192:2329   */\n    tag_524:\n        /* \"#utility.yul\":2237:2242   */\n      0x00\n        /* \"#utility.yul\":2275:2281   */\n      dup2\n        /* \"#utility.yul\":2262:2282   */\n      calldataload\n        /* \"#utility.yul\":2253:2282   */\n      swap1\n      pop\n        /* \"#utility.yul\":2291:2323   */\n      tag_553\n        /* \"#utility.yul\":2317:2322   */\n      dup2\n        /* \"#utility.yul\":2291:2323   */\n      tag_554\n      jump\t// in\n    tag_553:\n        /* \"#utility.yul\":2192:2329   */\n      swap3\n      swap2\n      pop\n      pop\n      jump\t// out\n        /* \"#utility.yul\":2335:2470   */\n    tag_555:\n        /* \"#utility.yul\":2379:2384   */\n      0x00\n        /* \"#utility.yul\":2417:2423   */\n      dup2\n        /* \"#utility.yul\":2404:2424   */\n      calldataload\n        /* \"#utility.yul\":2395:2424   */\n      swap1\n      pop\n        /* \"#utility.yul\":2433:2464   */\n      tag_557\n        /* \"#utility.yul\":2458:2463   */\n      dup2\n        /* \"#utility.yul\":2433:2464   */\n      tag_558\n      jump\t// in\n    tag_557:\n        /* \"#utility.yul\":2335:2470   */\n      swap3\n      swap2\n      pop\n      pop\n      jump\t// out\n        /* \"#utility.yul\":2476:2805   */\n    tag_82:\n        /* \"#utility.yul\":2535:2541   */\n      0x00\n        /* \"#utility.yul\":2584:2586   */\n      0x20\n        /* \"#utility.yul\":2572:2581   */\n      dup3\n        /* \"#utility.yul\":2563:2570   */\n      dup5\n        /* \"#utility.yul\":2559:2582   */\n      sub\n        /* \"#utility.yul\":2555:2587   */\n      slt\n        /* \"#utility.yul\":2552:2671   */\n      iszero\n      tag_560\n      jumpi\n        /* \"#utility.yul\":2590:2669   */\n      tag_561\n      tag_562\n      jump\t// in\n    tag_561:\n        /* \"#utility.yul\":2552:2671   */\n    tag_560:\n        /* \"#utility.yul\":2710:2711   */\n      0x00\n        /* \"#utility.yul\":2735:2788   */\n      tag_563\n        /* \"#utility.yul\":2780:2787   */\n      dup5\n        /* \"#utility.yul\":2771:2777   */\n      dup3\n        /* \"#utility.yul\":2760:2769   */\n      dup6\n        /* \"#utility.yul\":2756:2778   */\n      add\n        /* \"#utility.yul\":2735:2788   */\n      tag_525\n      jump\t// in\n    tag_563:\n        /* \"#utility.yul\":2725:2788   */\n      swap2\n      pop\n        /* \"#utility.yul\":2681:2798   */\n      pop\n        /* \"#utility.yul\":2476:2805   */\n      swap3\n      swap2\n      pop\n      pop\n      jump\t// out\n        /* \"#utility.yul\":2811:3348   */\n    tag_73:\n        /* \"#utility.yul\":2894:2900   */\n      0x00\n        /* \"#utility.yul\":2943:2945   */\n      0x20\n        /* \"#utility.yul\":2931:2940   */\n      dup3\n        /* \"#utility.yul\":2922:2929   */\n      dup5\n        /* \"#utility.yul\":2918:2941   */\n      sub\n        /* \"#utility.yul\":2914:2946   */\n      slt\n        /* \"#utility.yul\":2911:3030   */\n      iszero\n      tag_565\n      jumpi\n        /* \"#utility.yul\":2949:3028   */\n      tag_566\n      tag_562\n      jump\t// in\n    tag_566:\n        /* \"#utility.yul\":2911:3030   */\n    tag_565:\n        /* \"#utility.yul\":3097:3098   */\n      0x00\n        /* \"#utility.yul\":3086:3095   */\n      dup3\n        /* \"#utility.yul\":3082:3099   */\n      add\n        /* \"#utility.yul\":3069:3100   */\n      calldataload\n        /* \"#utility.yul\":3127:3145   */\n      0xffffffffffffffff\n        /* \"#utility.yul\":3119:3125   */\n      dup2\n        /* \"#utility.yul\":3116:3146   */\n      gt\n        /* \"#utility.yul\":3113:3230   */\n      iszero\n      tag_567\n      jumpi\n        /* \"#utility.yul\":3149:3228   */\n      tag_568\n      tag_569\n      jump\t// in\n    tag_568:\n        /* \"#utility.yul\":3113:3230   */\n    tag_567:\n        /* \"#utility.yul\":3254:3331   */\n      tag_570\n        /* \"#utility.yul\":3323:3330   */\n      dup5\n        /* \"#utility.yul\":3314:3320   */\n      dup3\n        /* \"#utility.yul\":3303:3312   */\n      dup6\n        /* \"#utility.yul\":3299:3321   */\n      add\n        /* \"#utility.yul\":3254:3331   */\n      tag_529\n      jump\t// in\n    tag_570:\n        /* \"#utility.yul\":3244:3331   */\n      swap2\n      pop\n        /* \"#utility.yul\":3040:3341   */\n      pop\n        /* \"#utility.yul\":2811:3348   */\n      swap3\n      swap2\n      pop\n      pop\n      jump\t// out\n        /* \"#utility.yul\":3354:4056   */\n    tag_39:\n        /* \"#utility.yul\":3448:3454   */\n      0x00\n        /* \"#utility.yul\":3456:3462   */\n      dup1\n        /* \"#utility.yul\":3464:3470   */\n      0x00\n        /* \"#utility.yul\":3513:3515   */\n      0x40\n        /* \"#utility.yul\":3501:3510   */\n      dup5\n        /* \"#utility.yul\":3492:3499   */\n      dup7\n        /* \"#utility.yul\":3488:3511   */\n      sub\n        /* \"#utility.yul\":3484:3516   */\n      slt\n        /* \"#utility.yul\":3481:3600   */\n      iszero\n      tag_572\n      jumpi\n        /* \"#utility.yul\":3519:3598   */\n      tag_573\n      tag_562\n      jump\t// in\n    tag_573:\n        /* \"#utility.yul\":3481:3600   */\n    tag_572:\n        /* \"#utility.yul\":3639:3640   */\n      0x00\n        /* \"#utility.yul\":3664:3731   */\n      tag_574\n        /* \"#utility.yul\":3723:3730   */\n      dup7\n        /* \"#utility.yul\":3714:3720   */\n      dup3\n        /* \"#utility.yul\":3703:3712   */\n      dup8\n        /* \"#utility.yul\":3699:3721   */\n      add\n        /* \"#utility.yul\":3664:3731   */\n      tag_539\n      jump\t// in\n    tag_574:\n        /* \"#utility.yul\":3654:3731   */\n      swap4\n      pop\n        /* \"#utility.yul\":3610:3741   */\n      pop\n        /* \"#utility.yul\":3808:3810   */\n      0x20\n        /* \"#utility.yul\":3797:3806   */\n      dup5\n        /* \"#utility.yul\":3793:3811   */\n      add\n        /* \"#utility.yul\":3780:3812   */\n      calldataload\n        /* \"#utility.yul\":3839:3857   */\n      0xffffffffffffffff\n        /* \"#utility.yul\":3831:3837   */\n      dup2\n        /* \"#utility.yul\":3828:3858   */\n      gt\n        /* \"#utility.yul\":3825:3942   */\n      iszero\n      tag_575\n      jumpi\n        /* \"#utility.yul\":3861:3940   */\n      tag_576\n      tag_569\n      jump\t// in\n    tag_576:\n        /* \"#utility.yul\":3825:3942   */\n    tag_575:\n        /* \"#utility.yul\":3974:4039   */\n      tag_577\n        /* \"#utility.yul\":4031:4038   */\n      dup7\n        /* \"#utility.yul\":4022:4028   */\n      dup3\n        /* \"#utility.yul\":4011:4020   */\n      dup8\n        /* \"#utility.yul\":4007:4029   */\n      add\n        /* \"#utility.yul\":3974:4039   */\n      tag_543\n      jump\t// in\n    tag_577:\n        /* \"#utility.yul\":3956:4039   */\n      swap3\n      pop\n      swap3\n      pop\n        /* \"#utility.yul\":3751:4049   */\n      pop\n        /* \"#utility.yul\":3354:4056   */\n      swap3\n      pop\n      swap3\n      pop\n      swap3\n      jump\t// out\n        /* \"#utility.yul\":4062:4389   */\n    tag_35:\n        /* \"#utility.yul\":4120:4126   */\n      0x00\n        /* \"#utility.yul\":4169:4171   */\n      0x20\n        /* \"#utility.yul\":4157:4166   */\n      dup3\n        /* \"#utility.yul\":4148:4155   */\n      dup5\n        /* \"#utility.yul\":4144:4167   */\n      sub\n        /* \"#utility.yul\":4140:4172   */\n      slt\n        /* \"#utility.yul\":4137:4256   */\n      iszero\n      tag_579\n      jumpi\n        /* \"#utility.yul\":4175:4254   */\n      tag_580\n      tag_562\n      jump\t// in\n    tag_580:\n        /* \"#utility.yul\":4137:4256   */\n    tag_579:\n        /* \"#utility.yul\":4295:4296   */\n      0x00\n        /* \"#utility.yul\":4320:4372   */\n      tag_581\n        /* \"#utility.yul\":4364:4371   */\n      dup5\n        /* \"#utility.yul\":4355:4361   */\n      dup3\n        /* \"#utility.yul\":4344:4353   */\n      dup6\n        /* \"#utility.yul\":4340:4362   */\n      add\n        /* \"#utility.yul\":4320:4372   */\n      tag_524\n      jump\t// in\n    tag_581:\n        /* \"#utility.yul\":4310:4372   */\n      swap2\n      pop\n        /* \"#utility.yul\":4266:4382   */\n      pop\n        /* \"#utility.yul\":4062:4389   */\n      swap3\n      swap2\n      pop\n      pop\n      jump\t// out\n        /* \"#utility.yul\":4395:4885   */\n    tag_57:\n        /* \"#utility.yul\":4471:4477   */\n      0x00\n        /* \"#utility.yul\":4479:4485   */\n      dup1\n        /* \"#utility.yul\":4528:4530   */\n      0x40\n        /* \"#utility.yul\":4516:4525   */\n      dup4\n        /* \"#utility.yul\":4507:4514   */\n      dup6\n        /* \"#utility.yul\":4503:4526   */\n      sub\n        /* \"#utility.yul\":4499:4531   */\n      slt\n        /* \"#utility.yul\":4496:4615   */\n      iszero\n      tag_583\n      jumpi\n        /* \"#utility.yul\":4534:4613   */\n      tag_584\n      tag_562\n      jump\t// in\n    tag_584:\n        /* \"#utility.yul\":4496:4615   */\n    tag_583:\n        /* \"#utility.yul\":4654:4655   */\n      0x00\n        /* \"#utility.yul\":4679:4731   */\n      tag_585\n        /* \"#utility.yul\":4723:4730   */\n      dup6\n        /* \"#utility.yul\":4714:4720   */\n      dup3\n        /* \"#utility.yul\":4703:4712   */\n      dup7\n        /* \"#utility.yul\":4699:4721   */\n      add\n        /* \"#utility.yul\":4679:4731   */\n      tag_524\n      jump\t// in\n    tag_585:\n        /* \"#utility.yul\":4669:4731   */\n      swap3\n      pop\n        /* \"#utility.yul\":4625:4741   */\n      pop\n        /* \"#utility.yul\":4780:4782   */\n      0x20\n        /* \"#utility.yul\":4806:4868   */\n      tag_586\n        /* \"#utility.yul\":4860:4867   */\n      dup6\n        /* \"#utility.yul\":4851:4857   */\n      dup3\n        /* \"#utility.yul\":4840:4849   */\n      dup7\n        /* \"#utility.yul\":4836:4858   */\n      add\n        /* \"#utility.yul\":4806:4868   */\n      tag_535\n      jump\t// in\n    tag_586:\n        /* \"#utility.yul\":4796:4868   */\n      swap2\n      pop\n        /* \"#utility.yul\":4751:4878   */\n      pop\n        /* \"#utility.yul\":4395:4885   */\n      swap3\n      pop\n      swap3\n      swap1\n      pop\n      jump\t// out\n        /* \"#utility.yul\":4891:5361   */\n    tag_47:\n        /* \"#utility.yul\":4957:4963   */\n      0x00\n        /* \"#utility.yul\":4965:4971   */\n      dup1\n        /* \"#utility.yul\":5014:5016   */\n      0x40\n        /* \"#utility.yul\":5002:5011   */\n      dup4\n        /* \"#utility.yul\":4993:5000   */\n      dup6\n        /* \"#utility.yul\":4989:5012   */\n      sub\n        /* \"#utility.yul\":4985:5017   */\n      slt\n        /* \"#utility.yul\":4982:5101   */\n      iszero\n      tag_588\n      jumpi\n        /* \"#utility.yul\":5020:5099   */\n      tag_589\n      tag_562\n      jump\t// in\n    tag_589:\n        /* \"#utility.yul\":4982:5101   */\n    tag_588:\n        /* \"#utility.yul\":5140:5141   */\n      0x00\n        /* \"#utility.yul\":5165:5217   */\n      tag_590\n        /* \"#utility.yul\":5209:5216   */\n      dup6\n        /* \"#utility.yul\":5200:5206   */\n      dup3\n        /* \"#utility.yul\":5189:5198   */\n      dup7\n        /* \"#utility.yul\":5185:5207   */\n      add\n        /* \"#utility.yul\":5165:5217   */\n      tag_524\n      jump\t// in\n    tag_590:\n        /* \"#utility.yul\":5155:5217   */\n      swap3\n      pop\n        /* \"#utility.yul\":5111:5227   */\n      pop\n        /* \"#utility.yul\":5266:5268   */\n      0x20\n        /* \"#utility.yul\":5292:5344   */\n      tag_591\n        /* \"#utility.yul\":5336:5343   */\n      dup6\n        /* \"#utility.yul\":5327:5333   */\n      dup3\n        /* \"#utility.yul\":5316:5325   */\n      dup7\n        /* \"#utility.yul\":5312:5334   */\n      add\n        /* \"#utility.yul\":5292:5344   */\n      tag_524\n      jump\t// in\n    tag_591:\n        /* \"#utility.yul\":5282:5344   */\n      swap2\n      pop\n        /* \"#utility.yul\":5237:5354   */\n      pop\n        /* \"#utility.yul\":4891:5361   */\n      swap3\n      pop\n      swap3\n      swap1\n      pop\n      jump\t// out\n        /* \"#utility.yul\":5367:5835   */\n    tag_61:\n        /* \"#utility.yul\":5432:5438   */\n      0x00\n        /* \"#utility.yul\":5440:5446   */\n      dup1\n        /* \"#utility.yul\":5489:5491   */\n      0x40\n        /* \"#utility.yul\":5477:5486   */\n      dup4\n        /* \"#utility.yul\":5468:5475   */\n      dup6\n        /* \"#utility.yul\":5464:5487   */\n      sub\n        /* \"#utility.yul\":5460:5492   */\n      slt\n        /* \"#utility.yul\":5457:5576   */\n      iszero\n      tag_593\n      jumpi\n        /* \"#utility.yul\":5495:5574   */\n      tag_594\n      tag_562\n      jump\t// in\n    tag_594:\n        /* \"#utility.yul\":5457:5576   */\n    tag_593:\n        /* \"#utility.yul\":5615:5616   */\n      0x00\n        /* \"#utility.yul\":5640:5692   */\n      tag_595\n        /* \"#utility.yul\":5684:5691   */\n      dup6\n        /* \"#utility.yul\":5675:5681   */\n      dup3\n        /* \"#utility.yul\":5664:5673   */\n      dup7\n        /* \"#utility.yul\":5660:5682   */\n      add\n        /* \"#utility.yul\":5640:5692   */\n      tag_524\n      jump\t// in\n    tag_595:\n        /* \"#utility.yul\":5630:5692   */\n      swap3\n      pop\n        /* \"#utility.yul\":5586:5702   */\n      pop\n        /* \"#utility.yul\":5741:5743   */\n      0x20\n        /* \"#utility.yul\":5767:5818   */\n      tag_596\n        /* \"#utility.yul\":5810:5817   */\n      dup6\n        /* \"#utility.yul\":5801:5807   */\n      dup3\n        /* \"#utility.yul\":5790:5799   */\n      dup7\n        /* \"#utility.yul\":5786:5808   */\n      add\n        /* \"#utility.yul\":5767:5818   */\n      tag_555\n      jump\t// in\n    tag_596:\n        /* \"#utility.yul\":5757:5818   */\n      swap2\n      pop\n        /* \"#utility.yul\":5712:5828   */\n      pop\n        /* \"#utility.yul\":5367:5835   */\n      swap3\n      pop\n      swap3\n      swap1\n      pop\n      jump\t// out\n        /* \"#utility.yul\":5841:6307   */\n    tag_107:\n        /* \"#utility.yul\":5905:5911   */\n      0x00\n        /* \"#utility.yul\":5913:5919   */\n      dup1\n        /* \"#utility.yul\":5962:5964   */\n      0x40\n        /* \"#utility.yul\":5950:5959   */\n      dup4\n        /* \"#utility.yul\":5941:5948   */\n      dup6\n        /* \"#utility.yul\":5937:5960   */\n      sub\n        /* \"#utility.yul\":5933:5965   */\n      slt\n        /* \"#utility.yul\":5930:6049   */\n      iszero\n      tag_598\n      jumpi\n        /* \"#utility.yul\":5968:6047   */\n      tag_599\n      tag_562\n      jump\t// in\n    tag_599:\n        /* \"#utility.yul\":5930:6049   */\n    tag_598:\n        /* \"#utility.yul\":6088:6089   */\n      0x00\n        /* \"#utility.yul\":6113:6164   */\n      tag_600\n        /* \"#utility.yul\":6156:6163   */\n      dup6\n        /* \"#utility.yul\":6147:6153   */\n      dup3\n        /* \"#utility.yul\":6136:6145   */\n      dup7\n        /* \"#utility.yul\":6132:6154   */\n      add\n        /* \"#utility.yul\":6113:6164   */\n      tag_555\n      jump\t// in\n    tag_600:\n        /* \"#utility.yul\":6103:6164   */\n      swap3\n      pop\n        /* \"#utility.yul\":6059:6174   */\n      pop\n        /* \"#utility.yul\":6213:6215   */\n      0x20\n        /* \"#utility.yul\":6239:6290   */\n      tag_601\n        /* \"#utility.yul\":6282:6289   */\n      dup6\n        /* \"#utility.yul\":6273:6279   */\n      dup3\n        /* \"#utility.yul\":6262:6271   */\n      dup7\n        /* \"#utility.yul\":6258:6280   */\n      add\n        /* \"#utility.yul\":6239:6290   */\n      tag_555\n      jump\t// in\n    tag_601:\n        /* \"#utility.yul\":6229:6290   */\n      swap2\n      pop\n        /* \"#utility.yul\":6184:6300   */\n      pop\n        /* \"#utility.yul\":5841:6307   */\n      swap3\n      pop\n      swap3\n      swap1\n      pop\n      jump\t// out\n        /* \"#utility.yul\":6313:6569   */\n    tag_602:\n        /* \"#utility.yul\":6432:6442   */\n      0x00\n        /* \"#utility.yul\":6467:6563   */\n      tag_604\n        /* \"#utility.yul\":6559:6562   */\n      dup4\n        /* \"#utility.yul\":6551:6557   */\n      dup4\n        /* \"#utility.yul\":6467:6563   */\n      tag_605\n      jump\t// in\n    tag_604:\n        /* \"#utility.yul\":6453:6563   */\n      swap1\n      pop\n        /* \"#utility.yul\":6313:6569   */\n      swap3\n      swap2\n      pop\n      pop\n      jump\t// out\n        /* \"#utility.yul\":6575:6823   */\n    tag_606:\n        /* \"#utility.yul\":6690:6700   */\n      0x00\n        /* \"#utility.yul\":6725:6817   */\n      tag_608\n        /* \"#utility.yul\":6813:6816   */\n      dup4\n        /* \"#utility.yul\":6805:6811   */\n      dup4\n        /* \"#utility.yul\":6725:6817   */\n      tag_609\n      jump\t// in\n    tag_608:\n        /* \"#utility.yul\":6711:6817   */\n      swap1\n      pop\n        /* \"#utility.yul\":6575:6823   */\n      swap3\n      swap2\n      pop\n      pop\n      jump\t// out\n        /* \"#utility.yul\":6829:7000   */\n    tag_610:\n        /* \"#utility.yul\":6894:6904   */\n      0x00\n        /* \"#utility.yul\":6915:6957   */\n      tag_612\n        /* \"#utility.yul\":6953:6956   */\n      dup4\n        /* \"#utility.yul\":6945:6951   */\n      dup4\n        /* \"#utility.yul\":6915:6957   */\n      tag_613\n      jump\t// in\n    tag_612:\n        /* \"#utility.yul\":6989:6993   */\n      0x20\n        /* \"#utility.yul\":6984:6987   */\n      dup4\n        /* \"#utility.yul\":6980:6994   */\n      add\n        /* \"#utility.yul\":6966:6994   */\n      swap1\n      pop\n        /* \"#utility.yul\":6829:7000   */\n      swap3\n      swap2\n      pop\n      pop\n      jump\t// out\n        /* \"#utility.yul\":7006:7114   */\n    tag_614:\n        /* \"#utility.yul\":7083:7107   */\n      tag_616\n        /* \"#utility.yul\":7101:7106   */\n      dup2\n        /* \"#utility.yul\":7083:7107   */\n      tag_617\n      jump\t// in\n    tag_616:\n        /* \"#utility.yul\":7078:7081   */\n      dup3\n        /* \"#utility.yul\":7071:7108   */\n      mstore\n        /* \"#utility.yul\":7006:7114   */\n      pop\n      pop\n      jump\t// out\n        /* \"#utility.yul\":7120:7238   */\n    tag_618:\n        /* \"#utility.yul\":7207:7231   */\n      tag_620\n        /* \"#utility.yul\":7225:7230   */\n      dup2\n        /* \"#utility.yul\":7207:7231   */\n      tag_617\n      jump\t// in\n    tag_620:\n        /* \"#utility.yul\":7202:7205   */\n      dup3\n        /* \"#utility.yul\":7195:7232   */\n      mstore\n        /* \"#utility.yul\":7120:7238   */\n      pop\n      pop\n      jump\t// out\n        /* \"#utility.yul\":7318:8429   */\n    tag_621:\n        /* \"#utility.yul\":7487:7490   */\n      0x00\n        /* \"#utility.yul\":7516:7595   */\n      tag_623\n        /* \"#utility.yul\":7589:7594   */\n      dup3\n        /* \"#utility.yul\":7516:7595   */\n      tag_624\n      jump\t// in\n    tag_623:\n        /* \"#utility.yul\":7611:7722   */\n      tag_625\n        /* \"#utility.yul\":7715:7721   */\n      dup2\n        /* \"#utility.yul\":7710:7713   */\n      dup6\n        /* \"#utility.yul\":7611:7722   */\n      tag_626\n      jump\t// in\n    tag_625:\n        /* \"#utility.yul\":7604:7722   */\n      swap4\n      pop\n        /* \"#utility.yul\":7748:7751   */\n      dup4\n        /* \"#utility.yul\":7793:7797   */\n      0x20\n        /* \"#utility.yul\":7785:7791   */\n      dup3\n        /* \"#utility.yul\":7781:7798   */\n      mul\n        /* \"#utility.yul\":7776:7779   */\n      dup6\n        /* \"#utility.yul\":7772:7799   */\n      add\n        /* \"#utility.yul\":7823:7904   */\n      tag_627\n        /* \"#utility.yul\":7898:7903   */\n      dup6\n        /* \"#utility.yul\":7823:7904   */\n      tag_628\n      jump\t// in\n    tag_627:\n        /* \"#utility.yul\":7927:7934   */\n      dup1\n        /* \"#utility.yul\":7958:7959   */\n      0x00\n        /* \"#utility.yul\":7943:8384   */\n    tag_629:\n        /* \"#utility.yul\":7968:7974   */\n      dup6\n        /* \"#utility.yul\":7965:7966   */\n      dup2\n        /* \"#utility.yul\":7962:7975   */\n      lt\n        /* \"#utility.yul\":7943:8384   */\n      iszero\n      tag_631\n      jumpi\n        /* \"#utility.yul\":8039:8048   */\n      dup5\n        /* \"#utility.yul\":8033:8037   */\n      dup5\n        /* \"#utility.yul\":8029:8049   */\n      sub\n        /* \"#utility.yul\":8024:8027   */\n      dup10\n        /* \"#utility.yul\":8017:8050   */\n      mstore\n        /* \"#utility.yul\":8090:8096   */\n      dup2\n        /* \"#utility.yul\":8084:8097   */\n      mload\n        /* \"#utility.yul\":8118:8232   */\n      tag_632\n        /* \"#utility.yul\":8227:8231   */\n      dup6\n        /* \"#utility.yul\":8212:8225   */\n      dup3\n        /* \"#utility.yul\":8118:8232   */\n      tag_602\n      jump\t// in\n    tag_632:\n        /* \"#utility.yul\":8110:8232   */\n      swap5\n      pop\n        /* \"#utility.yul\":8255:8340   */\n      tag_633\n        /* \"#utility.yul\":8333:8339   */\n      dup4\n        /* \"#utility.yul\":8255:8340   */\n      tag_634\n      jump\t// in\n    tag_633:\n        /* \"#utility.yul\":8245:8340   */\n      swap3\n      pop\n        /* \"#utility.yul\":8369:8373   */\n      0x20\n        /* \"#utility.yul\":8364:8367   */\n      dup11\n        /* \"#utility.yul\":8360:8374   */\n      add\n        /* \"#utility.yul\":8353:8374   */\n      swap10\n      pop\n        /* \"#utility.yul\":8003:8384   */\n      pop\n        /* \"#utility.yul\":7990:7991   */\n      0x01\n        /* \"#utility.yul\":7987:7988   */\n      dup2\n        /* \"#utility.yul\":7983:7992   */\n      add\n        /* \"#utility.yul\":7978:7992   */\n      swap1\n      pop\n        /* \"#utility.yul\":7943:8384   */\n      jump(tag_629)\n    tag_631:\n        /* \"#utility.yul\":7947:7961   */\n      pop\n        /* \"#utility.yul\":8400:8404   */\n      dup3\n        /* \"#utility.yul\":8393:8404   */\n      swap8\n      pop\n        /* \"#utility.yul\":8420:8423   */\n      dup8\n        /* \"#utility.yul\":8413:8423   */\n      swap6\n      pop\n        /* \"#utility.yul\":7492:8429   */\n      pop\n      pop\n      pop\n      pop\n      pop\n        /* \"#utility.yul\":7318:8429   */\n      swap3\n      swap2\n      pop\n      pop\n      jump\t// out\n        /* \"#utility.yul\":8505:9600   */\n    tag_635:\n        /* \"#utility.yul\":8670:8673   */\n      0x00\n        /* \"#utility.yul\":8699:8776   */\n      tag_637\n        /* \"#utility.yul\":8770:8775   */\n      dup3\n        /* \"#utility.yul\":8699:8776   */\n      tag_638\n      jump\t// in\n    tag_637:\n        /* \"#utility.yul\":8792:8901   */\n      tag_639\n        /* \"#utility.yul\":8894:8900   */\n      dup2\n        /* \"#utility.yul\":8889:8892   */\n      dup6\n        /* \"#utility.yul\":8792:8901   */\n      tag_640\n      jump\t// in\n    tag_639:\n        /* \"#utility.yul\":8785:8901   */\n      swap4\n      pop\n        /* \"#utility.yul\":8927:8930   */\n      dup4\n        /* \"#utility.yul\":8972:8976   */\n      0x20\n        /* \"#utility.yul\":8964:8970   */\n      dup3\n        /* \"#utility.yul\":8960:8977   */\n      mul\n        /* \"#utility.yul\":8955:8958   */\n      dup6\n        /* \"#utility.yul\":8951:8978   */\n      add\n        /* \"#utility.yul\":9002:9081   */\n      tag_641\n        /* \"#utility.yul\":9075:9080   */\n      dup6\n        /* \"#utility.yul\":9002:9081   */\n      tag_642\n      jump\t// in\n    tag_641:\n        /* \"#utility.yul\":9104:9111   */\n      dup1\n        /* \"#utility.yul\":9135:9136   */\n      0x00\n        /* \"#utility.yul\":9120:9555   */\n    tag_643:\n        /* \"#utility.yul\":9145:9151   */\n      dup6\n        /* \"#utility.yul\":9142:9143   */\n      dup2\n        /* \"#utility.yul\":9139:9152   */\n      lt\n        /* \"#utility.yul\":9120:9555   */\n      iszero\n      tag_645\n      jumpi\n        /* \"#utility.yul\":9216:9225   */\n      dup5\n        /* \"#utility.yul\":9210:9214   */\n      dup5\n        /* \"#utility.yul\":9206:9226   */\n      sub\n        /* \"#utility.yul\":9201:9204   */\n      dup10\n        /* \"#utility.yul\":9194:9227   */\n      mstore\n        /* \"#utility.yul\":9267:9273   */\n      dup2\n        /* \"#utility.yul\":9261:9274   */\n      mload\n        /* \"#utility.yul\":9295:9405   */\n      tag_646\n        /* \"#utility.yul\":9400:9404   */\n      dup6\n        /* \"#utility.yul\":9385:9398   */\n      dup3\n        /* \"#utility.yul\":9295:9405   */\n      tag_606\n      jump\t// in\n    tag_646:\n        /* \"#utility.yul\":9287:9405   */\n      swap5\n      pop\n        /* \"#utility.yul\":9428:9511   */\n      tag_647\n        /* \"#utility.yul\":9504:9510   */\n      dup4\n        /* \"#utility.yul\":9428:9511   */\n      tag_648\n      jump\t// in\n    tag_647:\n        /* \"#utility.yul\":9418:9511   */\n      swap3\n      pop\n        /* \"#utility.yul\":9540:9544   */\n      0x20\n        /* \"#utility.yul\":9535:9538   */\n      dup11\n        /* \"#utility.yul\":9531:9545   */\n      add\n        /* \"#utility.yul\":9524:9545   */\n      swap10\n      pop\n        /* \"#utility.yul\":9180:9555   */\n      pop\n        /* \"#utility.yul\":9167:9168   */\n      0x01\n        /* \"#utility.yul\":9164:9165   */\n      dup2\n        /* \"#utility.yul\":9160:9169   */\n      add\n        /* \"#utility.yul\":9155:9169   */\n      swap1\n      pop\n        /* \"#utility.yul\":9120:9555   */\n      jump(tag_643)\n    tag_645:\n        /* \"#utility.yul\":9124:9138   */\n      pop\n        /* \"#utility.yul\":9571:9575   */\n      dup3\n        /* \"#utility.yul\":9564:9575   */\n      swap8\n      pop\n        /* \"#utility.yul\":9591:9594   */\n      dup8\n        /* \"#utility.yul\":9584:9594   */\n      swap6\n      pop\n        /* \"#utility.yul\":8675:9600   */\n      pop\n      pop\n      pop\n      pop\n      pop\n        /* \"#utility.yul\":8505:9600   */\n      swap3\n      swap2\n      pop\n      pop\n      jump\t// out\n        /* \"#utility.yul\":9632:10348   */\n    tag_649:\n        /* \"#utility.yul\":9747:9750   */\n      0x00\n        /* \"#utility.yul\":9776:9828   */\n      tag_651\n        /* \"#utility.yul\":9822:9827   */\n      dup3\n        /* \"#utility.yul\":9776:9828   */\n      tag_652\n      jump\t// in\n    tag_651:\n        /* \"#utility.yul\":9844:9928   */\n      tag_653\n        /* \"#utility.yul\":9921:9927   */\n      dup2\n        /* \"#utility.yul\":9916:9919   */\n      dup6\n        /* \"#utility.yul\":9844:9928   */\n      tag_654\n      jump\t// in\n    tag_653:\n        /* \"#utility.yul\":9837:9928   */\n      swap4\n      pop\n        /* \"#utility.yul\":9952:10006   */\n      tag_655\n        /* \"#utility.yul\":10000:10005   */\n      dup4\n        /* \"#utility.yul\":9952:10006   */\n      tag_656\n      jump\t// in\n    tag_655:\n        /* \"#utility.yul\":10029:10036   */\n      dup1\n        /* \"#utility.yul\":10060:10061   */\n      0x00\n        /* \"#utility.yul\":10045:10323   */\n    tag_657:\n        /* \"#utility.yul\":10070:10076   */\n      dup4\n        /* \"#utility.yul\":10067:10068   */\n      dup2\n        /* \"#utility.yul\":10064:10077   */\n      lt\n        /* \"#utility.yul\":10045:10323   */\n      iszero\n      tag_659\n      jumpi\n        /* \"#utility.yul\":10146:10152   */\n      dup2\n        /* \"#utility.yul\":10140:10153   */\n      mload\n        /* \"#utility.yul\":10173:10232   */\n      tag_660\n        /* \"#utility.yul\":10228:10231   */\n      dup9\n        /* \"#utility.yul\":10213:10226   */\n      dup3\n        /* \"#utility.yul\":10173:10232   */\n      tag_610\n      jump\t// in\n    tag_660:\n        /* \"#utility.yul\":10166:10232   */\n      swap8\n      pop\n        /* \"#utility.yul\":10255:10313   */\n      tag_661\n        /* \"#utility.yul\":10306:10312   */\n      dup4\n        /* \"#utility.yul\":10255:10313   */\n      tag_662\n      jump\t// in\n    tag_661:\n        /* \"#utility.yul\":10245:10313   */\n      swap3\n      pop\n        /* \"#utility.yul\":10105:10323   */\n      pop\n        /* \"#utility.yul\":10092:10093   */\n      0x01\n        /* \"#utility.yul\":10089:10090   */\n      dup2\n        /* \"#utility.yul\":10085:10094   */\n      add\n        /* \"#utility.yul\":10080:10094   */\n      swap1\n      pop\n        /* \"#utility.yul\":10045:10323   */\n      jump(tag_657)\n    tag_659:\n        /* \"#utility.yul\":10049:10063   */\n      pop\n        /* \"#utility.yul\":10339:10342   */\n      dup6\n        /* \"#utility.yul\":10332:10342   */\n      swap4\n      pop\n        /* \"#utility.yul\":9752:10348   */\n      pop\n      pop\n      pop\n        /* \"#utility.yul\":9632:10348   */\n      swap3\n      swap2\n      pop\n      pop\n      jump\t// out\n        /* \"#utility.yul\":10354:10463   */\n    tag_663:\n        /* \"#utility.yul\":10435:10456   */\n      tag_665\n        /* \"#utility.yul\":10450:10455   */\n      dup2\n        /* \"#utility.yul\":10435:10456   */\n      tag_666\n      jump\t// in\n    tag_665:\n        /* \"#utility.yul\":10430:10433   */\n      dup3\n        /* \"#utility.yul\":10423:10457   */\n      mstore\n        /* \"#utility.yul\":10354:10463   */\n      pop\n      pop\n      jump\t// out\n        /* \"#utility.yul\":10469:10614   */\n    tag_667:\n        /* \"#utility.yul\":10558:10607   */\n      tag_669\n        /* \"#utility.yul\":10601:10606   */\n      dup2\n        /* \"#utility.yul\":10558:10607   */\n      tag_670\n      jump\t// in\n    tag_669:\n        /* \"#utility.yul\":10553:10556   */\n      dup3\n        /* \"#utility.yul\":10546:10608   */\n      mstore\n        /* \"#utility.yul\":10469:10614   */\n      pop\n      pop\n      jump\t// out\n        /* \"#utility.yul\":10620:10775   */\n    tag_671:\n        /* \"#utility.yul\":10719:10768   */\n      tag_673\n        /* \"#utility.yul\":10762:10767   */\n      dup2\n        /* \"#utility.yul\":10719:10768   */\n      tag_670\n      jump\t// in\n    tag_673:\n        /* \"#utility.yul\":10714:10717   */\n      dup3\n        /* \"#utility.yul\":10707:10769   */\n      mstore\n        /* \"#utility.yul\":10620:10775   */\n      pop\n      pop\n      jump\t// out\n        /* \"#utility.yul\":10781:11125   */\n    tag_674:\n        /* \"#utility.yul\":10859:10862   */\n      0x00\n        /* \"#utility.yul\":10887:10926   */\n      tag_676\n        /* \"#utility.yul\":10920:10925   */\n      dup3\n        /* \"#utility.yul\":10887:10926   */\n      tag_677\n      jump\t// in\n    tag_676:\n        /* \"#utility.yul\":10942:11003   */\n      tag_678\n        /* \"#utility.yul\":10996:11002   */\n      dup2\n        /* \"#utility.yul\":10991:10994   */\n      dup6\n        /* \"#utility.yul\":10942:11003   */\n      tag_679\n      jump\t// in\n    tag_678:\n        /* \"#utility.yul\":10935:11003   */\n      swap4\n      pop\n        /* \"#utility.yul\":11012:11064   */\n      tag_680\n        /* \"#utility.yul\":11057:11063   */\n      dup2\n        /* \"#utility.yul\":11052:11055   */\n      dup6\n        /* \"#utility.yul\":11045:11049   */\n      0x20\n        /* \"#utility.yul\":11038:11043   */\n      dup7\n        /* \"#utility.yul\":11034:11050   */\n      add\n        /* \"#utility.yul\":11012:11064   */\n      tag_681\n      jump\t// in\n    tag_680:\n        /* \"#utility.yul\":11089:11118   */\n      tag_682\n        /* \"#utility.yul\":11111:11117   */\n      dup2\n        /* \"#utility.yul\":11089:11118   */\n      tag_683\n      jump\t// in\n    tag_682:\n        /* \"#utility.yul\":11084:11087   */\n      dup5\n        /* \"#utility.yul\":11080:11119   */\n      add\n        /* \"#utility.yul\":11073:11119   */\n      swap2\n      pop\n        /* \"#utility.yul\":10863:11125   */\n      pop\n        /* \"#utility.yul\":10781:11125   */\n      swap3\n      swap2\n      pop\n      pop\n      jump\t// out\n        /* \"#utility.yul\":11131:11495   */\n    tag_684:\n        /* \"#utility.yul\":11219:11222   */\n      0x00\n        /* \"#utility.yul\":11247:11286   */\n      tag_686\n        /* \"#utility.yul\":11280:11285   */\n      dup3\n        /* \"#utility.yul\":11247:11286   */\n      tag_677\n      jump\t// in\n    tag_686:\n        /* \"#utility.yul\":11302:11373   */\n      tag_687\n        /* \"#utility.yul\":11366:11372   */\n      dup2\n        /* \"#utility.yul\":11361:11364   */\n      dup6\n        /* \"#utility.yul\":11302:11373   */\n      tag_688\n      jump\t// in\n    tag_687:\n        /* \"#utility.yul\":11295:11373   */\n      swap4\n      pop\n        /* \"#utility.yul\":11382:11434   */\n      tag_689\n        /* \"#utility.yul\":11427:11433   */\n      dup2\n        /* \"#utility.yul\":11422:11425   */\n      dup6\n        /* \"#utility.yul\":11415:11419   */\n      0x20\n        /* \"#utility.yul\":11408:11413   */\n      dup7\n        /* \"#utility.yul\":11404:11420   */\n      add\n        /* \"#utility.yul\":11382:11434   */\n      tag_681\n      jump\t// in\n    tag_689:\n        /* \"#utility.yul\":11459:11488   */\n      tag_690\n        /* \"#utility.yul\":11481:11487   */\n      dup2\n        /* \"#utility.yul\":11459:11488   */\n      tag_683\n      jump\t// in\n    tag_690:\n        /* \"#utility.yul\":11454:11457   */\n      dup5\n        /* \"#utility.yul\":11450:11489   */\n      add\n        /* \"#utility.yul\":11443:11489   */\n      swap2\n      pop\n        /* \"#utility.yul\":11223:11495   */\n      pop\n        /* \"#utility.yul\":11131:11495   */\n      swap3\n      swap2\n      pop\n      pop\n      jump\t// out\n        /* \"#utility.yul\":11525:12327   */\n    tag_691:\n        /* \"#utility.yul\":11610:11613   */\n      0x00\n        /* \"#utility.yul\":11647:11652   */\n      dup2\n        /* \"#utility.yul\":11641:11653   */\n      sload\n        /* \"#utility.yul\":11676:11712   */\n      tag_693\n        /* \"#utility.yul\":11702:11711   */\n      dup2\n        /* \"#utility.yul\":11676:11712   */\n      tag_179\n      jump\t// in\n    tag_693:\n        /* \"#utility.yul\":11728:11799   */\n      tag_694\n        /* \"#utility.yul\":11792:11798   */\n      dup2\n        /* \"#utility.yul\":11787:11790   */\n      dup7\n        /* \"#utility.yul\":11728:11799   */\n      tag_688\n      jump\t// in\n    tag_694:\n        /* \"#utility.yul\":11721:11799   */\n      swap5\n      pop\n        /* \"#utility.yul\":11830:11831   */\n      0x01\n        /* \"#utility.yul\":11819:11828   */\n      dup3\n        /* \"#utility.yul\":11815:11832   */\n      and\n        /* \"#utility.yul\":11846:11847   */\n      0x00\n        /* \"#utility.yul\":11841:11976   */\n      dup2\n      eq\n      tag_696\n      jumpi\n        /* \"#utility.yul\":11990:11991   */\n      0x01\n        /* \"#utility.yul\":11985:12321   */\n      dup2\n      eq\n      tag_697\n      jumpi\n        /* \"#utility.yul\":11808:12321   */\n      jump(tag_695)\n        /* \"#utility.yul\":11841:11976   */\n    tag_696:\n        /* \"#utility.yul\":11925:11929   */\n      0xff\n        /* \"#utility.yul\":11921:11930   */\n      not\n        /* \"#utility.yul\":11910:11919   */\n      dup4\n        /* \"#utility.yul\":11906:11931   */\n      and\n        /* \"#utility.yul\":11901:11904   */\n      dup7\n        /* \"#utility.yul\":11894:11932   */\n      mstore\n        /* \"#utility.yul\":11961:11965   */\n      0x20\n        /* \"#utility.yul\":11956:11959   */\n      dup7\n        /* \"#utility.yul\":11952:11966   */\n      add\n        /* \"#utility.yul\":11945:11966   */\n      swap4\n      pop\n        /* \"#utility.yul\":11841:11976   */\n      jump(tag_695)\n        /* \"#utility.yul\":11985:12321   */\n    tag_697:\n        /* \"#utility.yul\":12052:12090   */\n      tag_698\n        /* \"#utility.yul\":12084:12089   */\n      dup6\n        /* \"#utility.yul\":12052:12090   */\n      tag_699\n      jump\t// in\n    tag_698:\n        /* \"#utility.yul\":12112:12113   */\n      0x00\n        /* \"#utility.yul\":12126:12280   */\n    tag_700:\n        /* \"#utility.yul\":12140:12146   */\n      dup4\n        /* \"#utility.yul\":12137:12138   */\n      dup2\n        /* \"#utility.yul\":12134:12147   */\n      lt\n        /* \"#utility.yul\":12126:12280   */\n      iszero\n      tag_702\n      jumpi\n        /* \"#utility.yul\":12214:12221   */\n      dup2\n        /* \"#utility.yul\":12208:12222   */\n      sload\n        /* \"#utility.yul\":12204:12205   */\n      dup2\n        /* \"#utility.yul\":12199:12202   */\n      dup10\n        /* \"#utility.yul\":12195:12206   */\n      add\n        /* \"#utility.yul\":12188:12223   */\n      mstore\n        /* \"#utility.yul\":12264:12265   */\n      0x01\n        /* \"#utility.yul\":12255:12262   */\n      dup3\n        /* \"#utility.yul\":12251:12266   */\n      add\n        /* \"#utility.yul\":12240:12266   */\n      swap2\n      pop\n        /* \"#utility.yul\":12162:12166   */\n      0x20\n        /* \"#utility.yul\":12159:12160   */\n      dup2\n        /* \"#utility.yul\":12155:12167   */\n      add\n        /* \"#utility.yul\":12150:12167   */\n      swap1\n      pop\n        /* \"#utility.yul\":12126:12280   */\n      jump(tag_700)\n    tag_702:\n        /* \"#utility.yul\":12309:12310   */\n      dup1\n        /* \"#utility.yul\":12304:12307   */\n      dup9\n        /* \"#utility.yul\":12300:12311   */\n      add\n        /* \"#utility.yul\":12293:12311   */\n      swap6\n      pop\n        /* \"#utility.yul\":11992:12321   */\n      pop\n      pop\n        /* \"#utility.yul\":11808:12321   */\n    tag_695:\n      pop\n        /* \"#utility.yul\":11614:12327   */\n      pop\n      pop\n        /* \"#utility.yul\":11525:12327   */\n      swap3\n      swap2\n      pop\n      pop\n      jump\t// out\n        /* \"#utility.yul\":12333:12699   */\n    tag_703:\n        /* \"#utility.yul\":12475:12478   */\n      0x00\n        /* \"#utility.yul\":12496:12563   */\n      tag_705\n        /* \"#utility.yul\":12560:12562   */\n      0x2e\n        /* \"#utility.yul\":12555:12558   */\n      dup4\n        /* \"#utility.yul\":12496:12563   */\n      tag_688\n      jump\t// in\n    tag_705:\n        /* \"#utility.yul\":12489:12563   */\n      swap2\n      pop\n        /* \"#utility.yul\":12572:12665   */\n      tag_706\n        /* \"#utility.yul\":12661:12664   */\n      dup3\n        /* \"#utility.yul\":12572:12665   */\n      tag_707\n      jump\t// in\n    tag_706:\n        /* \"#utility.yul\":12690:12692   */\n      0x40\n        /* \"#utility.yul\":12685:12688   */\n      dup3\n        /* \"#utility.yul\":12681:12693   */\n      add\n        /* \"#utility.yul\":12674:12693   */\n      swap1\n      pop\n        /* \"#utility.yul\":12333:12699   */\n      swap2\n      swap1\n      pop\n      jump\t// out\n        /* \"#utility.yul\":12705:13071   */\n    tag_708:\n        /* \"#utility.yul\":12847:12850   */\n      0x00\n        /* \"#utility.yul\":12868:12935   */\n      tag_710\n        /* \"#utility.yul\":12932:12934   */\n      0x13\n        /* \"#utility.yul\":12927:12930   */\n      dup4\n        /* \"#utility.yul\":12868:12935   */\n      tag_688\n      jump\t// in\n    tag_710:\n        /* \"#utility.yul\":12861:12935   */\n      swap2\n      pop\n        /* \"#utility.yul\":12944:13037   */\n      tag_711\n        /* \"#utility.yul\":13033:13036   */\n      dup3\n        /* \"#utility.yul\":12944:13037   */\n      tag_712\n      jump\t// in\n    tag_711:\n        /* \"#utility.yul\":13062:13064   */\n      0x20\n        /* \"#utility.yul\":13057:13060   */\n      dup3\n        /* \"#utility.yul\":13053:13065   */\n      add\n        /* \"#utility.yul\":13046:13065   */\n      swap1\n      pop\n        /* \"#utility.yul\":12705:13071   */\n      swap2\n      swap1\n      pop\n      jump\t// out\n        /* \"#utility.yul\":13077:13443   */\n    tag_713:\n        /* \"#utility.yul\":13219:13222   */\n      0x00\n        /* \"#utility.yul\":13240:13307   */\n      tag_715\n        /* \"#utility.yul\":13304:13306   */\n      0x2d\n        /* \"#utility.yul\":13299:13302   */\n      dup4\n        /* \"#utility.yul\":13240:13307   */\n      tag_688\n      jump\t// in\n    tag_715:\n        /* \"#utility.yul\":13233:13307   */\n      swap2\n      pop\n        /* \"#utility.yul\":13316:13409   */\n      tag_716\n        /* \"#utility.yul\":13405:13408   */\n      dup3\n        /* \"#utility.yul\":13316:13409   */\n      tag_717\n      jump\t// in\n    tag_716:\n        /* \"#utility.yul\":13434:13436   */\n      0x40\n        /* \"#utility.yul\":13429:13432   */\n      dup3\n        /* \"#utility.yul\":13425:13437   */\n      add\n        /* \"#utility.yul\":13418:13437   */\n      swap1\n      pop\n        /* \"#utility.yul\":13077:13443   */\n      swap2\n      swap1\n      pop\n      jump\t// out\n        /* \"#utility.yul\":13449:13815   */\n    tag_718:\n        /* \"#utility.yul\":13591:13594   */\n      0x00\n        /* \"#utility.yul\":13612:13679   */\n      tag_720\n        /* \"#utility.yul\":13676:13678   */\n      0x26\n        /* \"#utility.yul\":13671:13674   */\n      dup4\n        /* \"#utility.yul\":13612:13679   */\n      tag_688\n      jump\t// in\n    tag_720:\n        /* \"#utility.yul\":13605:13679   */\n      swap2\n      pop\n        /* \"#utility.yul\":13688:13781   */\n      tag_721\n        /* \"#utility.yul\":13777:13780   */\n      dup3\n        /* \"#utility.yul\":13688:13781   */\n      tag_722\n      jump\t// in\n    tag_721:\n        /* \"#utility.yul\":13806:13808   */\n      0x40\n        /* \"#utility.yul\":13801:13804   */\n      dup3\n        /* \"#utility.yul\":13797:13809   */\n      add\n        /* \"#utility.yul\":13790:13809   */\n      swap1\n      pop\n        /* \"#utility.yul\":13449:13815   */\n      swap2\n      swap1\n      pop\n      jump\t// out\n        /* \"#utility.yul\":13821:14187   */\n    tag_723:\n        /* \"#utility.yul\":13963:13966   */\n      0x00\n        /* \"#utility.yul\":13984:14051   */\n      tag_725\n        /* \"#utility.yul\":14048:14050   */\n      0x12\n        /* \"#utility.yul\":14043:14046   */\n      dup4\n        /* \"#utility.yul\":13984:14051   */\n      tag_688\n      jump\t// in\n    tag_725:\n        /* \"#utility.yul\":13977:14051   */\n      swap2\n      pop\n        /* \"#utility.yul\":14060:14153   */\n      tag_726\n        /* \"#utility.yul\":14149:14152   */\n      dup3\n        /* \"#utility.yul\":14060:14153   */\n      tag_727\n      jump\t// in\n    tag_726:\n        /* \"#utility.yul\":14178:14180   */\n      0x20\n        /* \"#utility.yul\":14173:14176   */\n      dup3\n        /* \"#utility.yul\":14169:14181   */\n      add\n        /* \"#utility.yul\":14162:14181   */\n      swap1\n      pop\n        /* \"#utility.yul\":13821:14187   */\n      swap2\n      swap1\n      pop\n      jump\t// out\n        /* \"#utility.yul\":14193:14559   */\n    tag_728:\n        /* \"#utility.yul\":14335:14338   */\n      0x00\n        /* \"#utility.yul\":14356:14423   */\n      tag_730\n        /* \"#utility.yul\":14420:14422   */\n      0x30\n        /* \"#utility.yul\":14415:14418   */\n      dup4\n        /* \"#utility.yul\":14356:14423   */\n      tag_688\n      jump\t// in\n    tag_730:\n        /* \"#utility.yul\":14349:14423   */\n      swap2\n      pop\n        /* \"#utility.yul\":14432:14525   */\n      tag_731\n        /* \"#utility.yul\":14521:14524   */\n      dup3\n        /* \"#utility.yul\":14432:14525   */\n      tag_732\n      jump\t// in\n    tag_731:\n        /* \"#utility.yul\":14550:14552   */\n      0x40\n        /* \"#utility.yul\":14545:14548   */\n      dup3\n        /* \"#utility.yul\":14541:14553   */\n      add\n        /* \"#utility.yul\":14534:14553   */\n      swap1\n      pop\n        /* \"#utility.yul\":14193:14559   */\n      swap2\n      swap1\n      pop\n      jump\t// out\n        /* \"#utility.yul\":14565:14931   */\n    tag_733:\n        /* \"#utility.yul\":14707:14710   */\n      0x00\n        /* \"#utility.yul\":14728:14795   */\n      tag_735\n        /* \"#utility.yul\":14792:14794   */\n      0x21\n        /* \"#utility.yul\":14787:14790   */\n      dup4\n        /* \"#utility.yul\":14728:14795   */\n      tag_688\n      jump\t// in\n    tag_735:\n        /* \"#utility.yul\":14721:14795   */\n      swap2\n      pop\n        /* \"#utility.yul\":14804:14897   */\n      tag_736\n        /* \"#utility.yul\":14893:14896   */\n      dup3\n        /* \"#utility.yul\":14804:14897   */\n      tag_737\n      jump\t// in\n    tag_736:\n        /* \"#utility.yul\":14922:14924   */\n      0x40\n        /* \"#utility.yul\":14917:14920   */\n      dup3\n        /* \"#utility.yul\":14913:14925   */\n      add\n        /* \"#utility.yul\":14906:14925   */\n      swap1\n      pop\n        /* \"#utility.yul\":14565:14931   */\n      swap2\n      swap1\n      pop\n      jump\t// out\n        /* \"#utility.yul\":14937:15303   */\n    tag_738:\n        /* \"#utility.yul\":15079:15082   */\n      0x00\n        /* \"#utility.yul\":15100:15167   */\n      tag_740\n        /* \"#utility.yul\":15164:15166   */\n      0x21\n        /* \"#utility.yul\":15159:15162   */\n      dup4\n        /* \"#utility.yul\":15100:15167   */\n      tag_688\n      jump\t// in\n    tag_740:\n        /* \"#utility.yul\":15093:15167   */\n      swap2\n      pop\n        /* \"#utility.yul\":15176:15269   */\n      tag_741\n        /* \"#utility.yul\":15265:15268   */\n      dup3\n        /* \"#utility.yul\":15176:15269   */\n      tag_742\n      jump\t// in\n    tag_741:\n        /* \"#utility.yul\":15294:15296   */\n      0x40\n        /* \"#utility.yul\":15289:15292   */\n      dup3\n        /* \"#utility.yul\":15285:15297   */\n      add\n        /* \"#utility.yul\":15278:15297   */\n      swap1\n      pop\n        /* \"#utility.yul\":14937:15303   */\n      swap2\n      swap1\n      pop\n      jump\t// out\n        /* \"#utility.yul\":15309:15675   */\n    tag_743:\n        /* \"#utility.yul\":15451:15454   */\n      0x00\n        /* \"#utility.yul\":15472:15539   */\n      tag_745\n        /* \"#utility.yul\":15536:15538   */\n      0x20\n        /* \"#utility.yul\":15531:15534   */\n      dup4\n        /* \"#utility.yul\":15472:15539   */\n      tag_688\n      jump\t// in\n    tag_745:\n        /* \"#utility.yul\":15465:15539   */\n      swap2\n      pop\n        /* \"#utility.yul\":15548:15641   */\n      tag_746\n        /* \"#utility.yul\":15637:15640   */\n      dup3\n        /* \"#utility.yul\":15548:15641   */\n      tag_747\n      jump\t// in\n    tag_746:\n        /* \"#utility.yul\":15666:15668   */\n      0x20\n        /* \"#utility.yul\":15661:15664   */\n      dup3\n        /* \"#utility.yul\":15657:15669   */\n      add\n        /* \"#utility.yul\":15650:15669   */\n      swap1\n      pop\n        /* \"#utility.yul\":15309:15675   */\n      swap2\n      swap1\n      pop\n      jump\t// out\n        /* \"#utility.yul\":15681:16047   */\n    tag_748:\n        /* \"#utility.yul\":15823:15826   */\n      0x00\n        /* \"#utility.yul\":15844:15911   */\n      tag_750\n        /* \"#utility.yul\":15908:15910   */\n      0x14\n        /* \"#utility.yul\":15903:15906   */\n      dup4\n        /* \"#utility.yul\":15844:15911   */\n      tag_688\n      jump\t// in\n    tag_750:\n        /* \"#utility.yul\":15837:15911   */\n      swap2\n      pop\n        /* \"#utility.yul\":15920:16013   */\n      tag_751\n        /* \"#utility.yul\":16009:16012   */\n      dup3\n        /* \"#utility.yul\":15920:16013   */\n      tag_752\n      jump\t// in\n    tag_751:\n        /* \"#utility.yul\":16038:16040   */\n      0x20\n        /* \"#utility.yul\":16033:16036   */\n      dup3\n        /* \"#utility.yul\":16029:16041   */\n      add\n        /* \"#utility.yul\":16022:16041   */\n      swap1\n      pop\n        /* \"#utility.yul\":15681:16047   */\n      swap2\n      swap1\n      pop\n      jump\t// out\n        /* \"#utility.yul\":16053:16419   */\n    tag_753:\n        /* \"#utility.yul\":16195:16198   */\n      0x00\n        /* \"#utility.yul\":16216:16283   */\n      tag_755\n        /* \"#utility.yul\":16280:16282   */\n      0x15\n        /* \"#utility.yul\":16275:16278   */\n      dup4\n        /* \"#utility.yul\":16216:16283   */\n      tag_688\n      jump\t// in\n    tag_755:\n        /* \"#utility.yul\":16209:16283   */\n      swap2\n      pop\n        /* \"#utility.yul\":16292:16385   */\n      tag_756\n        /* \"#utility.yul\":16381:16384   */\n      dup3\n        /* \"#utility.yul\":16292:16385   */\n      tag_757\n      jump\t// in\n    tag_756:\n        /* \"#utility.yul\":16410:16412   */\n      0x20\n        /* \"#utility.yul\":16405:16408   */\n      dup3\n        /* \"#utility.yul\":16401:16413   */\n      add\n        /* \"#utility.yul\":16394:16413   */\n      swap1\n      pop\n        /* \"#utility.yul\":16053:16419   */\n      swap2\n      swap1\n      pop\n      jump\t// out\n        /* \"#utility.yul\":16425:16791   */\n    tag_758:\n        /* \"#utility.yul\":16567:16570   */\n      0x00\n        /* \"#utility.yul\":16588:16655   */\n      tag_760\n        /* \"#utility.yul\":16652:16654   */\n      0x1c\n        /* \"#utility.yul\":16647:16650   */\n      dup4\n        /* \"#utility.yul\":16588:16655   */\n      tag_688\n      jump\t// in\n    tag_760:\n        /* \"#utility.yul\":16581:16655   */\n      swap2\n      pop\n        /* \"#utility.yul\":16664:16757   */\n      tag_761\n        /* \"#utility.yul\":16753:16756   */\n      dup3\n        /* \"#utility.yul\":16664:16757   */\n      tag_762\n      jump\t// in\n    tag_761:\n        /* \"#utility.yul\":16782:16784   */\n      0x20\n        /* \"#utility.yul\":16777:16780   */\n      dup3\n        /* \"#utility.yul\":16773:16785   */\n      add\n        /* \"#utility.yul\":16766:16785   */\n      swap1\n      pop\n        /* \"#utility.yul\":16425:16791   */\n      swap2\n      swap1\n      pop\n      jump\t// out\n        /* \"#utility.yul\":16797:17163   */\n    tag_763:\n        /* \"#utility.yul\":16939:16942   */\n      0x00\n        /* \"#utility.yul\":16960:17027   */\n      tag_765\n        /* \"#utility.yul\":17024:17026   */\n      0x14\n        /* \"#utility.yul\":17019:17022   */\n      dup4\n        /* \"#utility.yul\":16960:17027   */\n      tag_688\n      jump\t// in\n    tag_765:\n        /* \"#utility.yul\":16953:17027   */\n      swap2\n      pop\n        /* \"#utility.yul\":17036:17129   */\n      tag_766\n        /* \"#utility.yul\":17125:17128   */\n      dup3\n        /* \"#utility.yul\":17036:17129   */\n      tag_767\n      jump\t// in\n    tag_766:\n        /* \"#utility.yul\":17154:17156   */\n      0x20\n        /* \"#utility.yul\":17149:17152   */\n      dup3\n        /* \"#utility.yul\":17145:17157   */\n      add\n        /* \"#utility.yul\":17138:17157   */\n      swap1\n      pop\n        /* \"#utility.yul\":16797:17163   */\n      swap2\n      swap1\n      pop\n      jump\t// out\n        /* \"#utility.yul\":17169:17535   */\n    tag_768:\n        /* \"#utility.yul\":17311:17314   */\n      0x00\n        /* \"#utility.yul\":17332:17399   */\n      tag_770\n        /* \"#utility.yul\":17396:17398   */\n      0x32\n        /* \"#utility.yul\":17391:17394   */\n      dup4\n        /* \"#utility.yul\":17332:17399   */\n      tag_688\n      jump\t// in\n    tag_770:\n        /* \"#utility.yul\":17325:17399   */\n      swap2\n      pop\n        /* \"#utility.yul\":17408:17501   */\n      tag_771\n        /* \"#utility.yul\":17497:17500   */\n      dup3\n        /* \"#utility.yul\":17408:17501   */\n      tag_772\n      jump\t// in\n    tag_771:\n        /* \"#utility.yul\":17526:17528   */\n      0x40\n        /* \"#utility.yul\":17521:17524   */\n      dup3\n        /* \"#utility.yul\":17517:17529   */\n      add\n        /* \"#utility.yul\":17510:17529   */\n      swap1\n      pop\n        /* \"#utility.yul\":17169:17535   */\n      swap2\n      swap1\n      pop\n      jump\t// out\n        /* \"#utility.yul\":17611:19501   */\n    tag_605:\n        /* \"#utility.yul\":17720:17723   */\n      0x00\n        /* \"#utility.yul\":17756:17762   */\n      0x0120\n        /* \"#utility.yul\":17751:17754   */\n      dup4\n        /* \"#utility.yul\":17747:17763   */\n      add\n        /* \"#utility.yul\":17843:17847   */\n      0x00\n        /* \"#utility.yul\":17836:17841   */\n      dup4\n        /* \"#utility.yul\":17832:17848   */\n      add\n        /* \"#utility.yul\":17826:17849   */\n      mload\n        /* \"#utility.yul\":17862:17923   */\n      tag_774\n        /* \"#utility.yul\":17917:17921   */\n      0x00\n        /* \"#utility.yul\":17912:17915   */\n      dup7\n        /* \"#utility.yul\":17908:17922   */\n      add\n        /* \"#utility.yul\":17894:17906   */\n      dup3\n        /* \"#utility.yul\":17862:17923   */\n      tag_775\n      jump\t// in\n    tag_774:\n        /* \"#utility.yul\":17773:17933   */\n      pop\n        /* \"#utility.yul\":18016:18020   */\n      0x20\n        /* \"#utility.yul\":18009:18014   */\n      dup4\n        /* \"#utility.yul\":18005:18021   */\n      add\n        /* \"#utility.yul\":17999:18022   */\n      mload\n        /* \"#utility.yul\":18069:18072   */\n      dup5\n        /* \"#utility.yul\":18063:18067   */\n      dup3\n        /* \"#utility.yul\":18059:18073   */\n      sub\n        /* \"#utility.yul\":18052:18056   */\n      0x20\n        /* \"#utility.yul\":18047:18050   */\n      dup7\n        /* \"#utility.yul\":18043:18057   */\n      add\n        /* \"#utility.yul\":18036:18074   */\n      mstore\n        /* \"#utility.yul\":18095:18168   */\n      tag_776\n        /* \"#utility.yul\":18163:18167   */\n      dup3\n        /* \"#utility.yul\":18149:18161   */\n      dup3\n        /* \"#utility.yul\":18095:18168   */\n      tag_674\n      jump\t// in\n    tag_776:\n        /* \"#utility.yul\":18087:18168   */\n      swap2\n      pop\n        /* \"#utility.yul\":17943:18179   */\n      pop\n        /* \"#utility.yul\":18262:18266   */\n      0x40\n        /* \"#utility.yul\":18255:18260   */\n      dup4\n        /* \"#utility.yul\":18251:18267   */\n      add\n        /* \"#utility.yul\":18245:18268   */\n      mload\n        /* \"#utility.yul\":18281:18342   */\n      tag_777\n        /* \"#utility.yul\":18336:18340   */\n      0x40\n        /* \"#utility.yul\":18331:18334   */\n      dup7\n        /* \"#utility.yul\":18327:18341   */\n      add\n        /* \"#utility.yul\":18313:18325   */\n      dup3\n        /* \"#utility.yul\":18281:18342   */\n      tag_778\n      jump\t// in\n    tag_777:\n        /* \"#utility.yul\":18189:18352   */\n      pop\n        /* \"#utility.yul\":18436:18440   */\n      0x60\n        /* \"#utility.yul\":18429:18434   */\n      dup4\n        /* \"#utility.yul\":18425:18441   */\n      add\n        /* \"#utility.yul\":18419:18442   */\n      mload\n        /* \"#utility.yul\":18455:18516   */\n      tag_779\n        /* \"#utility.yul\":18510:18514   */\n      0x60\n        /* \"#utility.yul\":18505:18508   */\n      dup7\n        /* \"#utility.yul\":18501:18515   */\n      add\n        /* \"#utility.yul\":18487:18499   */\n      dup3\n        /* \"#utility.yul\":18455:18516   */\n      tag_778\n      jump\t// in\n    tag_779:\n        /* \"#utility.yul\":18362:18526   */\n      pop\n        /* \"#utility.yul\":18612:18616   */\n      0x80\n        /* \"#utility.yul\":18605:18610   */\n      dup4\n        /* \"#utility.yul\":18601:18617   */\n      add\n        /* \"#utility.yul\":18595:18618   */\n      mload\n        /* \"#utility.yul\":18631:18694   */\n      tag_780\n        /* \"#utility.yul\":18688:18692   */\n      0x80\n        /* \"#utility.yul\":18683:18686   */\n      dup7\n        /* \"#utility.yul\":18679:18693   */\n      add\n        /* \"#utility.yul\":18665:18677   */\n      dup3\n        /* \"#utility.yul\":18631:18694   */\n      tag_614\n      jump\t// in\n    tag_780:\n        /* \"#utility.yul\":18536:18704   */\n      pop\n        /* \"#utility.yul\":18800:18804   */\n      0xa0\n        /* \"#utility.yul\":18793:18798   */\n      dup4\n        /* \"#utility.yul\":18789:18805   */\n      add\n        /* \"#utility.yul\":18783:18806   */\n      mload\n        /* \"#utility.yul\":18819:18882   */\n      tag_781\n        /* \"#utility.yul\":18876:18880   */\n      0xa0\n        /* \"#utility.yul\":18871:18874   */\n      dup7\n        /* \"#utility.yul\":18867:18881   */\n      add\n        /* \"#utility.yul\":18853:18865   */\n      dup3\n        /* \"#utility.yul\":18819:18882   */\n      tag_782\n      jump\t// in\n    tag_781:\n        /* \"#utility.yul\":18714:18892   */\n      pop\n        /* \"#utility.yul\":18997:19001   */\n      0xc0\n        /* \"#utility.yul\":18990:18995   */\n      dup4\n        /* \"#utility.yul\":18986:19002   */\n      add\n        /* \"#utility.yul\":18980:19003   */\n      mload\n        /* \"#utility.yul\":19016:19079   */\n      tag_783\n        /* \"#utility.yul\":19073:19077   */\n      0xc0\n        /* \"#utility.yul\":19068:19071   */\n      dup7\n        /* \"#utility.yul\":19064:19078   */\n      add\n        /* \"#utility.yul\":19050:19062   */\n      dup3\n        /* \"#utility.yul\":19016:19079   */\n      tag_782\n      jump\t// in\n    tag_783:\n        /* \"#utility.yul\":18902:19089   */\n      pop\n        /* \"#utility.yul\":19184:19188   */\n      0xe0\n        /* \"#utility.yul\":19177:19182   */\n      dup4\n        /* \"#utility.yul\":19173:19189   */\n      add\n        /* \"#utility.yul\":19167:19190   */\n      mload\n        /* \"#utility.yul\":19203:19266   */\n      tag_784\n        /* \"#utility.yul\":19260:19264   */\n      0xe0\n        /* \"#utility.yul\":19255:19258   */\n      dup7\n        /* \"#utility.yul\":19251:19265   */\n      add\n        /* \"#utility.yul\":19237:19249   */\n      dup3\n        /* \"#utility.yul\":19203:19266   */\n      tag_782\n      jump\t// in\n    tag_784:\n        /* \"#utility.yul\":19099:19276   */\n      pop\n        /* \"#utility.yul\":19366:19372   */\n      0x0100\n        /* \"#utility.yul\":19359:19364   */\n      dup4\n        /* \"#utility.yul\":19355:19373   */\n      add\n        /* \"#utility.yul\":19349:19374   */\n      mload\n        /* \"#utility.yul\":19387:19464   */\n      tag_785\n        /* \"#utility.yul\":19456:19462   */\n      0x0100\n        /* \"#utility.yul\":19451:19454   */\n      dup7\n        /* \"#utility.yul\":19447:19463   */\n      add\n        /* \"#utility.yul\":19433:19445   */\n      dup3\n        /* \"#utility.yul\":19387:19464   */\n      tag_667\n      jump\t// in\n    tag_785:\n        /* \"#utility.yul\":19286:19474   */\n      pop\n        /* \"#utility.yul\":19491:19495   */\n      dup1\n        /* \"#utility.yul\":19484:19495   */\n      swap2\n      pop\n        /* \"#utility.yul\":17725:19501   */\n      pop\n        /* \"#utility.yul\":17611:19501   */\n      swap3\n      swap2\n      pop\n      pop\n      jump\t// out\n        /* \"#utility.yul\":19573:21457   */\n    tag_609:\n        /* \"#utility.yul\":19678:19681   */\n      0x00\n        /* \"#utility.yul\":19714:19720   */\n      0x0120\n        /* \"#utility.yul\":19709:19712   */\n      dup4\n        /* \"#utility.yul\":19705:19721   */\n      add\n        /* \"#utility.yul\":19801:19805   */\n      0x00\n        /* \"#utility.yul\":19794:19799   */\n      dup4\n        /* \"#utility.yul\":19790:19806   */\n      add\n        /* \"#utility.yul\":19784:19807   */\n      mload\n        /* \"#utility.yul\":19820:19881   */\n      tag_787\n        /* \"#utility.yul\":19875:19879   */\n      0x00\n        /* \"#utility.yul\":19870:19873   */\n      dup7\n        /* \"#utility.yul\":19866:19880   */\n      add\n        /* \"#utility.yul\":19852:19864   */\n      dup3\n        /* \"#utility.yul\":19820:19881   */\n      tag_775\n      jump\t// in\n    tag_787:\n        /* \"#utility.yul\":19731:19891   */\n      pop\n        /* \"#utility.yul\":19974:19978   */\n      0x20\n        /* \"#utility.yul\":19967:19972   */\n      dup4\n        /* \"#utility.yul\":19963:19979   */\n      add\n        /* \"#utility.yul\":19957:19980   */\n      mload\n        /* \"#utility.yul\":20027:20030   */\n      dup5\n        /* \"#utility.yul\":20021:20025   */\n      dup3\n        /* \"#utility.yul\":20017:20031   */\n      sub\n        /* \"#utility.yul\":20010:20014   */\n      0x20\n        /* \"#utility.yul\":20005:20008   */\n      dup7\n        /* \"#utility.yul\":20001:20015   */\n      add\n        /* \"#utility.yul\":19994:20032   */\n      mstore\n        /* \"#utility.yul\":20053:20126   */\n      tag_788\n        /* \"#utility.yul\":20121:20125   */\n      dup3\n        /* \"#utility.yul\":20107:20119   */\n      dup3\n        /* \"#utility.yul\":20053:20126   */\n      tag_674\n      jump\t// in\n    tag_788:\n        /* \"#utility.yul\":20045:20126   */\n      swap2\n      pop\n        /* \"#utility.yul\":19901:20137   */\n      pop\n        /* \"#utility.yul\":20220:20224   */\n      0x40\n        /* \"#utility.yul\":20213:20218   */\n      dup4\n        /* \"#utility.yul\":20209:20225   */\n      add\n        /* \"#utility.yul\":20203:20226   */\n      mload\n        /* \"#utility.yul\":20239:20300   */\n      tag_789\n        /* \"#utility.yul\":20294:20298   */\n      0x40\n        /* \"#utility.yul\":20289:20292   */\n      dup7\n        /* \"#utility.yul\":20285:20299   */\n      add\n        /* \"#utility.yul\":20271:20283   */\n      dup3\n        /* \"#utility.yul\":20239:20300   */\n      tag_778\n      jump\t// in\n    tag_789:\n        /* \"#utility.yul\":20147:20310   */\n      pop\n        /* \"#utility.yul\":20394:20398   */\n      0x60\n        /* \"#utility.yul\":20387:20392   */\n      dup4\n        /* \"#utility.yul\":20383:20399   */\n      add\n        /* \"#utility.yul\":20377:20400   */\n      mload\n        /* \"#utility.yul\":20413:20474   */\n      tag_790\n        /* \"#utility.yul\":20468:20472   */\n      0x60\n        /* \"#utility.yul\":20463:20466   */\n      dup7\n        /* \"#utility.yul\":20459:20473   */\n      add\n        /* \"#utility.yul\":20445:20457   */\n      dup3\n        /* \"#utility.yul\":20413:20474   */\n      tag_778\n      jump\t// in\n    tag_790:\n        /* \"#utility.yul\":20320:20484   */\n      pop\n        /* \"#utility.yul\":20570:20574   */\n      0x80\n        /* \"#utility.yul\":20563:20568   */\n      dup4\n        /* \"#utility.yul\":20559:20575   */\n      add\n        /* \"#utility.yul\":20553:20576   */\n      mload\n        /* \"#utility.yul\":20589:20652   */\n      tag_791\n        /* \"#utility.yul\":20646:20650   */\n      0x80\n        /* \"#utility.yul\":20641:20644   */\n      dup7\n        /* \"#utility.yul\":20637:20651   */\n      add\n        /* \"#utility.yul\":20623:20635   */\n      dup3\n        /* \"#utility.yul\":20589:20652   */\n      tag_614\n      jump\t// in\n    tag_791:\n        /* \"#utility.yul\":20494:20662   */\n      pop\n        /* \"#utility.yul\":20758:20762   */\n      0xa0\n        /* \"#utility.yul\":20751:20756   */\n      dup4\n        /* \"#utility.yul\":20747:20763   */\n      add\n        /* \"#utility.yul\":20741:20764   */\n      mload\n        /* \"#utility.yul\":20777:20840   */\n      tag_792\n        /* \"#utility.yul\":20834:20838   */\n      0xa0\n        /* \"#utility.yul\":20829:20832   */\n      dup7\n        /* \"#utility.yul\":20825:20839   */\n      add\n        /* \"#utility.yul\":20811:20823   */\n      dup3\n        /* \"#utility.yul\":20777:20840   */\n      tag_782\n      jump\t// in\n    tag_792:\n        /* \"#utility.yul\":20672:20850   */\n      pop\n        /* \"#utility.yul\":20955:20959   */\n      0xc0\n        /* \"#utility.yul\":20948:20953   */\n      dup4\n        /* \"#utility.yul\":20944:20960   */\n      add\n        /* \"#utility.yul\":20938:20961   */\n      mload\n        /* \"#utility.yul\":20974:21037   */\n      tag_793\n        /* \"#utility.yul\":21031:21035   */\n      0xc0\n        /* \"#utility.yul\":21026:21029   */\n      dup7\n        /* \"#utility.yul\":21022:21036   */\n      add\n        /* \"#utility.yul\":21008:21020   */\n      dup3\n        /* \"#utility.yul\":20974:21037   */\n      tag_782\n      jump\t// in\n    tag_793:\n        /* \"#utility.yul\":20860:21047   */\n      pop\n        /* \"#utility.yul\":21142:21146   */\n      0xe0\n        /* \"#utility.yul\":21135:21140   */\n      dup4\n        /* \"#utility.yul\":21131:21147   */\n      add\n        /* \"#utility.yul\":21125:21148   */\n      mload\n        /* \"#utility.yul\":21161:21224   */\n      tag_794\n        /* \"#utility.yul\":21218:21222   */\n      0xe0\n        /* \"#utility.yul\":21213:21216   */\n      dup7\n        /* \"#utility.yul\":21209:21223   */\n      add\n        /* \"#utility.yul\":21195:21207   */\n      dup3\n        /* \"#utility.yul\":21161:21224   */\n      tag_782\n      jump\t// in\n    tag_794:\n        /* \"#utility.yul\":21057:21234   */\n      pop\n        /* \"#utility.yul\":21322:21328   */\n      0x0100\n        /* \"#utility.yul\":21315:21320   */\n      dup4\n        /* \"#utility.yul\":21311:21329   */\n      add\n        /* \"#utility.yul\":21305:21330   */\n      mload\n        /* \"#utility.yul\":21343:21420   */\n      tag_795\n        /* \"#utility.yul\":21412:21418   */\n      0x0100\n        /* \"#utility.yul\":21407:21410   */\n      dup7\n        /* \"#utility.yul\":21403:21419   */\n      add\n        /* \"#utility.yul\":21389:21401   */\n      dup3\n        /* \"#utility.yul\":21343:21420   */\n      tag_667\n      jump\t// in\n    tag_795:\n        /* \"#utility.yul\":21244:21430   */\n      pop\n        /* \"#utility.yul\":21447:21451   */\n      dup1\n        /* \"#utility.yul\":21440:21451   */\n      swap2\n      pop\n        /* \"#utility.yul\":19683:21457   */\n      pop\n        /* \"#utility.yul\":19573:21457   */\n      swap3\n      swap2\n      pop\n      pop\n      jump\t// out\n        /* \"#utility.yul\":21463:21568   */\n    tag_775:\n        /* \"#utility.yul\":21538:21561   */\n      tag_797\n        /* \"#utility.yul\":21555:21560   */\n      dup2\n        /* \"#utility.yul\":21538:21561   */\n      tag_798\n      jump\t// in\n    tag_797:\n        /* \"#utility.yul\":21533:21536   */\n      dup3\n        /* \"#utility.yul\":21526:21562   */\n      mstore\n        /* \"#utility.yul\":21463:21568   */\n      pop\n      pop\n      jump\t// out\n        /* \"#utility.yul\":21574:21689   */\n    tag_799:\n        /* \"#utility.yul\":21659:21682   */\n      tag_801\n        /* \"#utility.yul\":21676:21681   */\n      dup2\n        /* \"#utility.yul\":21659:21682   */\n      tag_798\n      jump\t// in\n    tag_801:\n        /* \"#utility.yul\":21654:21657   */\n      dup3\n        /* \"#utility.yul\":21647:21683   */\n      mstore\n        /* \"#utility.yul\":21574:21689   */\n      pop\n      pop\n      jump\t// out\n        /* \"#utility.yul\":21695:21803   */\n    tag_782:\n        /* \"#utility.yul\":21772:21796   */\n      tag_803\n        /* \"#utility.yul\":21790:21795   */\n      dup2\n        /* \"#utility.yul\":21772:21796   */\n      tag_804\n      jump\t// in\n    tag_803:\n        /* \"#utility.yul\":21767:21770   */\n      dup3\n        /* \"#utility.yul\":21760:21797   */\n      mstore\n        /* \"#utility.yul\":21695:21803   */\n      pop\n      pop\n      jump\t// out\n        /* \"#utility.yul\":21809:21927   */\n    tag_805:\n        /* \"#utility.yul\":21896:21920   */\n      tag_807\n        /* \"#utility.yul\":21914:21919   */\n      dup2\n        /* \"#utility.yul\":21896:21920   */\n      tag_804\n      jump\t// in\n    tag_807:\n        /* \"#utility.yul\":21891:21894   */\n      dup3\n        /* \"#utility.yul\":21884:21921   */\n      mstore\n        /* \"#utility.yul\":21809:21927   */\n      pop\n      pop\n      jump\t// out\n        /* \"#utility.yul\":21933:22038   */\n    tag_778:\n        /* \"#utility.yul\":22008:22031   */\n      tag_809\n        /* \"#utility.yul\":22025:22030   */\n      dup2\n        /* \"#utility.yul\":22008:22031   */\n      tag_810\n      jump\t// in\n    tag_809:\n        /* \"#utility.yul\":22003:22006   */\n      dup3\n        /* \"#utility.yul\":21996:22032   */\n      mstore\n        /* \"#utility.yul\":21933:22038   */\n      pop\n      pop\n      jump\t// out\n        /* \"#utility.yul\":22044:22159   */\n    tag_811:\n        /* \"#utility.yul\":22129:22152   */\n      tag_813\n        /* \"#utility.yul\":22146:22151   */\n      dup2\n        /* \"#utility.yul\":22129:22152   */\n      tag_810\n      jump\t// in\n    tag_813:\n        /* \"#utility.yul\":22124:22127   */\n      dup3\n        /* \"#utility.yul\":22117:22153   */\n      mstore\n        /* \"#utility.yul\":22044:22159   */\n      pop\n      pop\n      jump\t// out\n        /* \"#utility.yul\":22165:22267   */\n    tag_613:\n        /* \"#utility.yul\":22238:22260   */\n      tag_815\n        /* \"#utility.yul\":22254:22259   */\n      dup2\n        /* \"#utility.yul\":22238:22260   */\n      tag_816\n      jump\t// in\n    tag_815:\n        /* \"#utility.yul\":22233:22236   */\n      dup3\n        /* \"#utility.yul\":22226:22261   */\n      mstore\n        /* \"#utility.yul\":22165:22267   */\n      pop\n      pop\n      jump\t// out\n        /* \"#utility.yul\":22273:22495   */\n    tag_54:\n        /* \"#utility.yul\":22366:22370   */\n      0x00\n        /* \"#utility.yul\":22404:22406   */\n      0x20\n        /* \"#utility.yul\":22393:22402   */\n      dup3\n        /* \"#utility.yul\":22389:22407   */\n      add\n        /* \"#utility.yul\":22381:22407   */\n      swap1\n      pop\n        /* \"#utility.yul\":22417:22488   */\n      tag_818\n        /* \"#utility.yul\":22485:22486   */\n      0x00\n        /* \"#utility.yul\":22474:22483   */\n      dup4\n        /* \"#utility.yul\":22470:22487   */\n      add\n        /* \"#utility.yul\":22461:22467   */\n      dup5\n        /* \"#utility.yul\":22417:22488   */\n      tag_618\n      jump\t// in\n    tag_818:\n        /* \"#utility.yul\":22273:22495   */\n      swap3\n      swap2\n      pop\n      pop\n      jump\t// out\n        /* \"#utility.yul\":22501:22974   */\n    tag_50:\n        /* \"#utility.yul\":22694:22698   */\n      0x00\n        /* \"#utility.yul\":22732:22734   */\n      0x20\n        /* \"#utility.yul\":22721:22730   */\n      dup3\n        /* \"#utility.yul\":22717:22735   */\n      add\n        /* \"#utility.yul\":22709:22735   */\n      swap1\n      pop\n        /* \"#utility.yul\":22781:22790   */\n      dup2\n        /* \"#utility.yul\":22775:22779   */\n      dup2\n        /* \"#utility.yul\":22771:22791   */\n      sub\n        /* \"#utility.yul\":22767:22768   */\n      0x00\n        /* \"#utility.yul\":22756:22765   */\n      dup4\n        /* \"#utility.yul\":22752:22769   */\n      add\n        /* \"#utility.yul\":22745:22792   */\n      mstore\n        /* \"#utility.yul\":22809:22967   */\n      tag_820\n        /* \"#utility.yul\":22962:22966   */\n      dup2\n        /* \"#utility.yul\":22953:22959   */\n      dup5\n        /* \"#utility.yul\":22809:22967   */\n      tag_621\n      jump\t// in\n    tag_820:\n        /* \"#utility.yul\":22801:22967   */\n      swap1\n      pop\n        /* \"#utility.yul\":22501:22974   */\n      swap3\n      swap2\n      pop\n      pop\n      jump\t// out\n        /* \"#utility.yul\":22980:23445   */\n    tag_110:\n        /* \"#utility.yul\":23169:23173   */\n      0x00\n        /* \"#utility.yul\":23207:23209   */\n      0x20\n        /* \"#utility.yul\":23196:23205   */\n      dup3\n        /* \"#utility.yul\":23192:23210   */\n      add\n        /* \"#utility.yul\":23184:23210   */\n      swap1\n      pop\n        /* \"#utility.yul\":23256:23265   */\n      dup2\n        /* \"#utility.yul\":23250:23254   */\n      dup2\n        /* \"#utility.yul\":23246:23266   */\n      sub\n        /* \"#utility.yul\":23242:23243   */\n      0x00\n        /* \"#utility.yul\":23231:23240   */\n      dup4\n        /* \"#utility.yul\":23227:23244   */\n      add\n        /* \"#utility.yul\":23220:23267   */\n      mstore\n        /* \"#utility.yul\":23284:23438   */\n      tag_822\n        /* \"#utility.yul\":23433:23437   */\n      dup2\n        /* \"#utility.yul\":23424:23430   */\n      dup5\n        /* \"#utility.yul\":23284:23438   */\n      tag_635\n      jump\t// in\n    tag_822:\n        /* \"#utility.yul\":23276:23438   */\n      swap1\n      pop\n        /* \"#utility.yul\":22980:23445   */\n      swap3\n      swap2\n      pop\n      pop\n      jump\t// out\n        /* \"#utility.yul\":23451:23816   */\n    tag_76:\n        /* \"#utility.yul\":23590:23594   */\n      0x00\n        /* \"#utility.yul\":23628:23630   */\n      0x20\n        /* \"#utility.yul\":23617:23626   */\n      dup3\n        /* \"#utility.yul\":23613:23631   */\n      add\n        /* \"#utility.yul\":23605:23631   */\n      swap1\n      pop\n        /* \"#utility.yul\":23677:23686   */\n      dup2\n        /* \"#utility.yul\":23671:23675   */\n      dup2\n        /* \"#utility.yul\":23667:23687   */\n      sub\n        /* \"#utility.yul\":23663:23664   */\n      0x00\n        /* \"#utility.yul\":23652:23661   */\n      dup4\n        /* \"#utility.yul\":23648:23665   */\n      add\n        /* \"#utility.yul\":23641:23688   */\n      mstore\n        /* \"#utility.yul\":23705:23809   */\n      tag_824\n        /* \"#utility.yul\":23804:23808   */\n      dup2\n        /* \"#utility.yul\":23795:23801   */\n      dup5\n        /* \"#utility.yul\":23705:23809   */\n      tag_649\n      jump\t// in\n    tag_824:\n        /* \"#utility.yul\":23697:23809   */\n      swap1\n      pop\n        /* \"#utility.yul\":23451:23816   */\n      swap3\n      swap2\n      pop\n      pop\n      jump\t// out\n        /* \"#utility.yul\":23822:24032   */\n    tag_32:\n        /* \"#utility.yul\":23909:23913   */\n      0x00\n        /* \"#utility.yul\":23947:23949   */\n      0x20\n        /* \"#utility.yul\":23936:23945   */\n      dup3\n        /* \"#utility.yul\":23932:23950   */\n      add\n        /* \"#utility.yul\":23924:23950   */\n      swap1\n      pop\n        /* \"#utility.yul\":23960:24025   */\n      tag_826\n        /* \"#utility.yul\":24022:24023   */\n      0x00\n        /* \"#utility.yul\":24011:24020   */\n      dup4\n        /* \"#utility.yul\":24007:24024   */\n      add\n        /* \"#utility.yul\":23998:24004   */\n      dup5\n        /* \"#utility.yul\":23960:24025   */\n      tag_663\n      jump\t// in\n    tag_826:\n        /* \"#utility.yul\":23822:24032   */\n      swap3\n      swap2\n      pop\n      pop\n      jump\t// out\n        /* \"#utility.yul\":24038:24345   */\n    tag_488:\n        /* \"#utility.yul\":24148:24152   */\n      0x00\n        /* \"#utility.yul\":24186:24188   */\n      0x20\n        /* \"#utility.yul\":24175:24184   */\n      dup3\n        /* \"#utility.yul\":24171:24189   */\n      add\n        /* \"#utility.yul\":24163:24189   */\n      swap1\n      pop\n        /* \"#utility.yul\":24235:24244   */\n      dup2\n        /* \"#utility.yul\":24229:24233   */\n      dup2\n        /* \"#utility.yul\":24225:24245   */\n      sub\n        /* \"#utility.yul\":24221:24222   */\n      0x00\n        /* \"#utility.yul\":24210:24219   */\n      dup4\n        /* \"#utility.yul\":24206:24223   */\n      add\n        /* \"#utility.yul\":24199:24246   */\n      mstore\n        /* \"#utility.yul\":24263:24338   */\n      tag_828\n        /* \"#utility.yul\":24333:24337   */\n      dup2\n        /* \"#utility.yul\":24324:24330   */\n      dup5\n        /* \"#utility.yul\":24263:24338   */\n      tag_691\n      jump\t// in\n    tag_828:\n        /* \"#utility.yul\":24255:24338   */\n      swap1\n      pop\n        /* \"#utility.yul\":24038:24345   */\n      swap3\n      swap2\n      pop\n      pop\n      jump\t// out\n        /* \"#utility.yul\":24351:24870   */\n    tag_455:\n        /* \"#utility.yul\":24513:24517   */\n      0x00\n        /* \"#utility.yul\":24551:24553   */\n      0x60\n        /* \"#utility.yul\":24540:24549   */\n      dup3\n        /* \"#utility.yul\":24536:24554   */\n      add\n        /* \"#utility.yul\":24528:24554   */\n      swap1\n      pop\n        /* \"#utility.yul\":24600:24609   */\n      dup2\n        /* \"#utility.yul\":24594:24598   */\n      dup2\n        /* \"#utility.yul\":24590:24610   */\n      sub\n        /* \"#utility.yul\":24586:24587   */\n      0x00\n        /* \"#utility.yul\":24575:24584   */\n      dup4\n        /* \"#utility.yul\":24571:24588   */\n      add\n        /* \"#utility.yul\":24564:24611   */\n      mstore\n        /* \"#utility.yul\":24628:24703   */\n      tag_830\n        /* \"#utility.yul\":24698:24702   */\n      dup2\n        /* \"#utility.yul\":24689:24695   */\n      dup7\n        /* \"#utility.yul\":24628:24703   */\n      tag_691\n      jump\t// in\n    tag_830:\n        /* \"#utility.yul\":24620:24703   */\n      swap1\n      pop\n        /* \"#utility.yul\":24713:24783   */\n      tag_831\n        /* \"#utility.yul\":24779:24781   */\n      0x20\n        /* \"#utility.yul\":24768:24777   */\n      dup4\n        /* \"#utility.yul\":24764:24782   */\n      add\n        /* \"#utility.yul\":24755:24761   */\n      dup6\n        /* \"#utility.yul\":24713:24783   */\n      tag_811\n      jump\t// in\n    tag_831:\n        /* \"#utility.yul\":24793:24863   */\n      tag_832\n        /* \"#utility.yul\":24859:24861   */\n      0x40\n        /* \"#utility.yul\":24848:24857   */\n      dup4\n        /* \"#utility.yul\":24844:24862   */\n      add\n        /* \"#utility.yul\":24835:24841   */\n      dup5\n        /* \"#utility.yul\":24793:24863   */\n      tag_811\n      jump\t// in\n    tag_832:\n        /* \"#utility.yul\":24351:24870   */\n      swap5\n      swap4\n      pop\n      pop\n      pop\n      pop\n      jump\t// out\n        /* \"#utility.yul\":24876:25295   */\n    tag_478:\n        /* \"#utility.yul\":25042:25046   */\n      0x00\n        /* \"#utility.yul\":25080:25082   */\n      0x20\n        /* \"#utility.yul\":25069:25078   */\n      dup3\n        /* \"#utility.yul\":25065:25083   */\n      add\n        /* \"#utility.yul\":25057:25083   */\n      swap1\n      pop\n        /* \"#utility.yul\":25129:25138   */\n      dup2\n        /* \"#utility.yul\":25123:25127   */\n      dup2\n        /* \"#utility.yul\":25119:25139   */\n      sub\n        /* \"#utility.yul\":25115:25116   */\n      0x00\n        /* \"#utility.yul\":25104:25113   */\n      dup4\n        /* \"#utility.yul\":25100:25117   */\n      add\n        /* \"#utility.yul\":25093:25140   */\n      mstore\n        /* \"#utility.yul\":25157:25288   */\n      tag_834\n        /* \"#utility.yul\":25283:25287   */\n      dup2\n        /* \"#utility.yul\":25157:25288   */\n      tag_703\n      jump\t// in\n    tag_834:\n        /* \"#utility.yul\":25149:25288   */\n      swap1\n      pop\n        /* \"#utility.yul\":24876:25295   */\n      swap2\n      swap1\n      pop\n      jump\t// out\n        /* \"#utility.yul\":25301:25720   */\n    tag_222:\n        /* \"#utility.yul\":25467:25471   */\n      0x00\n        /* \"#utility.yul\":25505:25507   */\n      0x20\n        /* \"#utility.yul\":25494:25503   */\n      dup3\n        /* \"#utility.yul\":25490:25508   */\n      add\n        /* \"#utility.yul\":25482:25508   */\n      swap1\n      pop\n        /* \"#utility.yul\":25554:25563   */\n      dup2\n        /* \"#utility.yul\":25548:25552   */\n      dup2\n        /* \"#utility.yul\":25544:25564   */\n      sub\n        /* \"#utility.yul\":25540:25541   */\n      0x00\n        /* \"#utility.yul\":25529:25538   */\n      dup4\n        /* \"#utility.yul\":25525:25542   */\n      add\n        /* \"#utility.yul\":25518:25565   */\n      mstore\n        /* \"#utility.yul\":25582:25713   */\n      tag_836\n        /* \"#utility.yul\":25708:25712   */\n      dup2\n        /* \"#utility.yul\":25582:25713   */\n      tag_708\n      jump\t// in\n    tag_836:\n        /* \"#utility.yul\":25574:25713   */\n      swap1\n      pop\n        /* \"#utility.yul\":25301:25720   */\n      swap2\n      swap1\n      pop\n      jump\t// out\n        /* \"#utility.yul\":25726:26145   */\n    tag_233:\n        /* \"#utility.yul\":25892:25896   */\n      0x00\n        /* \"#utility.yul\":25930:25932   */\n      0x20\n        /* \"#utility.yul\":25919:25928   */\n      dup3\n        /* \"#utility.yul\":25915:25933   */\n      add\n        /* \"#utility.yul\":25907:25933   */\n      swap1\n      pop\n        /* \"#utility.yul\":25979:25988   */\n      dup2\n        /* \"#utility.yul\":25973:25977   */\n      dup2\n        /* \"#utility.yul\":25969:25989   */\n      sub\n        /* \"#utility.yul\":25965:25966   */\n      0x00\n        /* \"#utility.yul\":25954:25963   */\n      dup4\n        /* \"#utility.yul\":25950:25967   */\n      add\n        /* \"#utility.yul\":25943:25990   */\n      mstore\n        /* \"#utility.yul\":26007:26138   */\n      tag_838\n        /* \"#utility.yul\":26133:26137   */\n      dup2\n        /* \"#utility.yul\":26007:26138   */\n      tag_713\n      jump\t// in\n    tag_838:\n        /* \"#utility.yul\":25999:26138   */\n      swap1\n      pop\n        /* \"#utility.yul\":25726:26145   */\n      swap2\n      swap1\n      pop\n      jump\t// out\n        /* \"#utility.yul\":26151:26570   */\n    tag_387:\n        /* \"#utility.yul\":26317:26321   */\n      0x00\n        /* \"#utility.yul\":26355:26357   */\n      0x20\n        /* \"#utility.yul\":26344:26353   */\n      dup3\n        /* \"#utility.yul\":26340:26358   */\n      add\n        /* \"#utility.yul\":26332:26358   */\n      swap1\n      pop\n        /* \"#utility.yul\":26404:26413   */\n      dup2\n        /* \"#utility.yul\":26398:26402   */\n      dup2\n        /* \"#utility.yul\":26394:26414   */\n      sub\n        /* \"#utility.yul\":26390:26391   */\n      0x00\n        /* \"#utility.yul\":26379:26388   */\n      dup4\n        /* \"#utility.yul\":26375:26392   */\n      add\n        /* \"#utility.yul\":26368:26415   */\n      mstore\n        /* \"#utility.yul\":26432:26563   */\n      tag_840\n        /* \"#utility.yul\":26558:26562   */\n      dup2\n        /* \"#utility.yul\":26432:26563   */\n      tag_718\n      jump\t// in\n    tag_840:\n        /* \"#utility.yul\":26424:26563   */\n      swap1\n      pop\n        /* \"#utility.yul\":26151:26570   */\n      swap2\n      swap1\n      pop\n      jump\t// out\n        /* \"#utility.yul\":26576:26995   */\n    tag_127:\n        /* \"#utility.yul\":26742:26746   */\n      0x00\n        /* \"#utility.yul\":26780:26782   */\n      0x20\n        /* \"#utility.yul\":26769:26778   */\n      dup3\n        /* \"#utility.yul\":26765:26783   */\n      add\n        /* \"#utility.yul\":26757:26783   */\n      swap1\n      pop\n        /* \"#utility.yul\":26829:26838   */\n      dup2\n        /* \"#utility.yul\":26823:26827   */\n      dup2\n        /* \"#utility.yul\":26819:26839   */\n      sub\n        /* \"#utility.yul\":26815:26816   */\n      0x00\n        /* \"#utility.yul\":26804:26813   */\n      dup4\n        /* \"#utility.yul\":26800:26817   */\n      add\n        /* \"#utility.yul\":26793:26840   */\n      mstore\n        /* \"#utility.yul\":26857:26988   */\n      tag_842\n        /* \"#utility.yul\":26983:26987   */\n      dup2\n        /* \"#utility.yul\":26857:26988   */\n      tag_723\n      jump\t// in\n    tag_842:\n        /* \"#utility.yul\":26849:26988   */\n      swap1\n      pop\n        /* \"#utility.yul\":26576:26995   */\n      swap2\n      swap1\n      pop\n      jump\t// out\n        /* \"#utility.yul\":27001:27420   */\n    tag_150:\n        /* \"#utility.yul\":27167:27171   */\n      0x00\n        /* \"#utility.yul\":27205:27207   */\n      0x20\n        /* \"#utility.yul\":27194:27203   */\n      dup3\n        /* \"#utility.yul\":27190:27208   */\n      add\n        /* \"#utility.yul\":27182:27208   */\n      swap1\n      pop\n        /* \"#utility.yul\":27254:27263   */\n      dup2\n        /* \"#utility.yul\":27248:27252   */\n      dup2\n        /* \"#utility.yul\":27244:27264   */\n      sub\n        /* \"#utility.yul\":27240:27241   */\n      0x00\n        /* \"#utility.yul\":27229:27238   */\n      dup4\n        /* \"#utility.yul\":27225:27242   */\n      add\n        /* \"#utility.yul\":27218:27265   */\n      mstore\n        /* \"#utility.yul\":27282:27413   */\n      tag_844\n        /* \"#utility.yul\":27408:27412   */\n      dup2\n        /* \"#utility.yul\":27282:27413   */\n      tag_728\n      jump\t// in\n    tag_844:\n        /* \"#utility.yul\":27274:27413   */\n      swap1\n      pop\n        /* \"#utility.yul\":27001:27420   */\n      swap2\n      swap1\n      pop\n      jump\t// out\n        /* \"#utility.yul\":27426:27845   */\n    tag_372:\n        /* \"#utility.yul\":27592:27596   */\n      0x00\n        /* \"#utility.yul\":27630:27632   */\n      0x20\n        /* \"#utility.yul\":27619:27628   */\n      dup3\n        /* \"#utility.yul\":27615:27633   */\n      add\n        /* \"#utility.yul\":27607:27633   */\n      swap1\n      pop\n        /* \"#utility.yul\":27679:27688   */\n      dup2\n        /* \"#utility.yul\":27673:27677   */\n      dup2\n        /* \"#utility.yul\":27669:27689   */\n      sub\n        /* \"#utility.yul\":27665:27666   */\n      0x00\n        /* \"#utility.yul\":27654:27663   */\n      dup4\n        /* \"#utility.yul\":27650:27667   */\n      add\n        /* \"#utility.yul\":27643:27690   */\n      mstore\n        /* \"#utility.yul\":27707:27838   */\n      tag_846\n        /* \"#utility.yul\":27833:27837   */\n      dup2\n        /* \"#utility.yul\":27707:27838   */\n      tag_733\n      jump\t// in\n    tag_846:\n        /* \"#utility.yul\":27699:27838   */\n      swap1\n      pop\n        /* \"#utility.yul\":27426:27845   */\n      swap2\n      swap1\n      pop\n      jump\t// out\n        /* \"#utility.yul\":27851:28270   */\n    tag_380:\n        /* \"#utility.yul\":28017:28021   */\n      0x00\n        /* \"#utility.yul\":28055:28057   */\n      0x20\n        /* \"#utility.yul\":28044:28053   */\n      dup3\n        /* \"#utility.yul\":28040:28058   */\n      add\n        /* \"#utility.yul\":28032:28058   */\n      swap1\n      pop\n        /* \"#utility.yul\":28104:28113   */\n      dup2\n        /* \"#utility.yul\":28098:28102   */\n      dup2\n        /* \"#utility.yul\":28094:28114   */\n      sub\n        /* \"#utility.yul\":28090:28091   */\n      0x00\n        /* \"#utility.yul\":28079:28088   */\n      dup4\n        /* \"#utility.yul\":28075:28092   */\n      add\n        /* \"#utility.yul\":28068:28115   */\n      mstore\n        /* \"#utility.yul\":28132:28263   */\n      tag_848\n        /* \"#utility.yul\":28258:28262   */\n      dup2\n        /* \"#utility.yul\":28132:28263   */\n      tag_738\n      jump\t// in\n    tag_848:\n        /* \"#utility.yul\":28124:28263   */\n      swap1\n      pop\n        /* \"#utility.yul\":27851:28270   */\n      swap2\n      swap1\n      pop\n      jump\t// out\n        /* \"#utility.yul\":28276:28695   */\n    tag_462:\n        /* \"#utility.yul\":28442:28446   */\n      0x00\n        /* \"#utility.yul\":28480:28482   */\n      0x20\n        /* \"#utility.yul\":28469:28478   */\n      dup3\n        /* \"#utility.yul\":28465:28483   */\n      add\n        /* \"#utility.yul\":28457:28483   */\n      swap1\n      pop\n        /* \"#utility.yul\":28529:28538   */\n      dup2\n        /* \"#utility.yul\":28523:28527   */\n      dup2\n        /* \"#utility.yul\":28519:28539   */\n      sub\n        /* \"#utility.yul\":28515:28516   */\n      0x00\n        /* \"#utility.yul\":28504:28513   */\n      dup4\n        /* \"#utility.yul\":28500:28517   */\n      add\n        /* \"#utility.yul\":28493:28540   */\n      mstore\n        /* \"#utility.yul\":28557:28688   */\n      tag_850\n        /* \"#utility.yul\":28683:28687   */\n      dup2\n        /* \"#utility.yul\":28557:28688   */\n      tag_743\n      jump\t// in\n    tag_850:\n        /* \"#utility.yul\":28549:28688   */\n      swap1\n      pop\n        /* \"#utility.yul\":28276:28695   */\n      swap2\n      swap1\n      pop\n      jump\t// out\n        /* \"#utility.yul\":28701:29120   */\n    tag_376:\n        /* \"#utility.yul\":28867:28871   */\n      0x00\n        /* \"#utility.yul\":28905:28907   */\n      0x20\n        /* \"#utility.yul\":28894:28903   */\n      dup3\n        /* \"#utility.yul\":28890:28908   */\n      add\n        /* \"#utility.yul\":28882:28908   */\n      swap1\n      pop\n        /* \"#utility.yul\":28954:28963   */\n      dup2\n        /* \"#utility.yul\":28948:28952   */\n      dup2\n        /* \"#utility.yul\":28944:28964   */\n      sub\n        /* \"#utility.yul\":28940:28941   */\n      0x00\n        /* \"#utility.yul\":28929:28938   */\n      dup4\n        /* \"#utility.yul\":28925:28942   */\n      add\n        /* \"#utility.yul\":28918:28965   */\n      mstore\n        /* \"#utility.yul\":28982:29113   */\n      tag_852\n        /* \"#utility.yul\":29108:29112   */\n      dup2\n        /* \"#utility.yul\":28982:29113   */\n      tag_748\n      jump\t// in\n    tag_852:\n        /* \"#utility.yul\":28974:29113   */\n      swap1\n      pop\n        /* \"#utility.yul\":28701:29120   */\n      swap2\n      swap1\n      pop\n      jump\t// out\n        /* \"#utility.yul\":29126:29545   */\n    tag_225:\n        /* \"#utility.yul\":29292:29296   */\n      0x00\n        /* \"#utility.yul\":29330:29332   */\n      0x20\n        /* \"#utility.yul\":29319:29328   */\n      dup3\n        /* \"#utility.yul\":29315:29333   */\n      add\n        /* \"#utility.yul\":29307:29333   */\n      swap1\n      pop\n        /* \"#utility.yul\":29379:29388   */\n      dup2\n        /* \"#utility.yul\":29373:29377   */\n      dup2\n        /* \"#utility.yul\":29369:29389   */\n      sub\n        /* \"#utility.yul\":29365:29366   */\n      0x00\n        /* \"#utility.yul\":29354:29363   */\n      dup4\n        /* \"#utility.yul\":29350:29367   */\n      add\n        /* \"#utility.yul\":29343:29390   */\n      mstore\n        /* \"#utility.yul\":29407:29538   */\n      tag_854\n        /* \"#utility.yul\":29533:29537   */\n      dup2\n        /* \"#utility.yul\":29407:29538   */\n      tag_753\n      jump\t// in\n    tag_854:\n        /* \"#utility.yul\":29399:29538   */\n      swap1\n      pop\n        /* \"#utility.yul\":29126:29545   */\n      swap2\n      swap1\n      pop\n      jump\t// out\n        /* \"#utility.yul\":29551:29970   */\n    tag_260:\n        /* \"#utility.yul\":29717:29721   */\n      0x00\n        /* \"#utility.yul\":29755:29757   */\n      0x20\n        /* \"#utility.yul\":29744:29753   */\n      dup3\n        /* \"#utility.yul\":29740:29758   */\n      add\n        /* \"#utility.yul\":29732:29758   */\n      swap1\n      pop\n        /* \"#utility.yul\":29804:29813   */\n      dup2\n        /* \"#utility.yul\":29798:29802   */\n      dup2\n        /* \"#utility.yul\":29794:29814   */\n      sub\n        /* \"#utility.yul\":29790:29791   */\n      0x00\n        /* \"#utility.yul\":29779:29788   */\n      dup4\n        /* \"#utility.yul\":29775:29792   */\n      add\n        /* \"#utility.yul\":29768:29815   */\n      mstore\n        /* \"#utility.yul\":29832:29963   */\n      tag_856\n        /* \"#utility.yul\":29958:29962   */\n      dup2\n        /* \"#utility.yul\":29832:29963   */\n      tag_758\n      jump\t// in\n    tag_856:\n        /* \"#utility.yul\":29824:29963   */\n      swap1\n      pop\n        /* \"#utility.yul\":29551:29970   */\n      swap2\n      swap1\n      pop\n      jump\t// out\n        /* \"#utility.yul\":29976:30395   */\n    tag_131:\n        /* \"#utility.yul\":30142:30146   */\n      0x00\n        /* \"#utility.yul\":30180:30182   */\n      0x20\n        /* \"#utility.yul\":30169:30178   */\n      dup3\n        /* \"#utility.yul\":30165:30183   */\n      add\n        /* \"#utility.yul\":30157:30183   */\n      swap1\n      pop\n        /* \"#utility.yul\":30229:30238   */\n      dup2\n        /* \"#utility.yul\":30223:30227   */\n      dup2\n        /* \"#utility.yul\":30219:30239   */\n      sub\n        /* \"#utility.yul\":30215:30216   */\n      0x00\n        /* \"#utility.yul\":30204:30213   */\n      dup4\n        /* \"#utility.yul\":30200:30217   */\n      add\n        /* \"#utility.yul\":30193:30240   */\n      mstore\n        /* \"#utility.yul\":30257:30388   */\n      tag_858\n        /* \"#utility.yul\":30383:30387   */\n      dup2\n        /* \"#utility.yul\":30257:30388   */\n      tag_763\n      jump\t// in\n    tag_858:\n        /* \"#utility.yul\":30249:30388   */\n      swap1\n      pop\n        /* \"#utility.yul\":29976:30395   */\n      swap2\n      swap1\n      pop\n      jump\t// out\n        /* \"#utility.yul\":30401:30820   */\n    tag_135:\n        /* \"#utility.yul\":30567:30571   */\n      0x00\n        /* \"#utility.yul\":30605:30607   */\n      0x20\n        /* \"#utility.yul\":30594:30603   */\n      dup3\n        /* \"#utility.yul\":30590:30608   */\n      add\n        /* \"#utility.yul\":30582:30608   */\n      swap1\n      pop\n        /* \"#utility.yul\":30654:30663   */\n      dup2\n        /* \"#utility.yul\":30648:30652   */\n      dup2\n        /* \"#utility.yul\":30644:30664   */\n      sub\n        /* \"#utility.yul\":30640:30641   */\n      0x00\n        /* \"#utility.yul\":30629:30638   */\n      dup4\n        /* \"#utility.yul\":30625:30642   */\n      add\n        /* \"#utility.yul\":30618:30665   */\n      mstore\n        /* \"#utility.yul\":30682:30813   */\n      tag_860\n        /* \"#utility.yul\":30808:30812   */\n      dup2\n        /* \"#utility.yul\":30682:30813   */\n      tag_768\n      jump\t// in\n    tag_860:\n        /* \"#utility.yul\":30674:30813   */\n      swap1\n      pop\n        /* \"#utility.yul\":30401:30820   */\n      swap2\n      swap1\n      pop\n      jump\t// out\n        /* \"#utility.yul\":30826:31044   */\n    tag_44:\n        /* \"#utility.yul\":30917:30921   */\n      0x00\n        /* \"#utility.yul\":30955:30957   */\n      0x20\n        /* \"#utility.yul\":30944:30953   */\n      dup3\n        /* \"#utility.yul\":30940:30958   */\n      add\n        /* \"#utility.yul\":30932:30958   */\n      swap1\n      pop\n        /* \"#utility.yul\":30968:31037   */\n      tag_862\n        /* \"#utility.yul\":31034:31035   */\n      0x00\n        /* \"#utility.yul\":31023:31032   */\n      dup4\n        /* \"#utility.yul\":31019:31036   */\n      add\n        /* \"#utility.yul\":31010:31016   */\n      dup5\n        /* \"#utility.yul\":30968:31037   */\n      tag_799\n      jump\t// in\n    tag_862:\n        /* \"#utility.yul\":30826:31044   */\n      swap3\n      swap2\n      pop\n      pop\n      jump\t// out\n        /* \"#utility.yul\":31050:32261   */\n    tag_88:\n        /* \"#utility.yul\":31393:31397   */\n      0x00\n        /* \"#utility.yul\":31431:31434   */\n      0x0120\n        /* \"#utility.yul\":31420:31429   */\n      dup3\n        /* \"#utility.yul\":31416:31435   */\n      add\n        /* \"#utility.yul\":31408:31435   */\n      swap1\n      pop\n        /* \"#utility.yul\":31445:31514   */\n      tag_864\n        /* \"#utility.yul\":31511:31512   */\n      0x00\n        /* \"#utility.yul\":31500:31509   */\n      dup4\n        /* \"#utility.yul\":31496:31513   */\n      add\n        /* \"#utility.yul\":31487:31493   */\n      dup13\n        /* \"#utility.yul\":31445:31514   */\n      tag_799\n      jump\t// in\n    tag_864:\n        /* \"#utility.yul\":31561:31570   */\n      dup2\n        /* \"#utility.yul\":31555:31559   */\n      dup2\n        /* \"#utility.yul\":31551:31571   */\n      sub\n        /* \"#utility.yul\":31546:31548   */\n      0x20\n        /* \"#utility.yul\":31535:31544   */\n      dup4\n        /* \"#utility.yul\":31531:31549   */\n      add\n        /* \"#utility.yul\":31524:31572   */\n      mstore\n        /* \"#utility.yul\":31589:31667   */\n      tag_865\n        /* \"#utility.yul\":31662:31666   */\n      dup2\n        /* \"#utility.yul\":31653:31659   */\n      dup12\n        /* \"#utility.yul\":31589:31667   */\n      tag_684\n      jump\t// in\n    tag_865:\n        /* \"#utility.yul\":31581:31667   */\n      swap1\n      pop\n        /* \"#utility.yul\":31677:31747   */\n      tag_866\n        /* \"#utility.yul\":31743:31745   */\n      0x40\n        /* \"#utility.yul\":31732:31741   */\n      dup4\n        /* \"#utility.yul\":31728:31746   */\n      add\n        /* \"#utility.yul\":31719:31725   */\n      dup11\n        /* \"#utility.yul\":31677:31747   */\n      tag_811\n      jump\t// in\n    tag_866:\n        /* \"#utility.yul\":31757:31827   */\n      tag_867\n        /* \"#utility.yul\":31823:31825   */\n      0x60\n        /* \"#utility.yul\":31812:31821   */\n      dup4\n        /* \"#utility.yul\":31808:31826   */\n      add\n        /* \"#utility.yul\":31799:31805   */\n      dup10\n        /* \"#utility.yul\":31757:31827   */\n      tag_811\n      jump\t// in\n    tag_867:\n        /* \"#utility.yul\":31837:31910   */\n      tag_868\n        /* \"#utility.yul\":31905:31908   */\n      0x80\n        /* \"#utility.yul\":31894:31903   */\n      dup4\n        /* \"#utility.yul\":31890:31909   */\n      add\n        /* \"#utility.yul\":31881:31887   */\n      dup9\n        /* \"#utility.yul\":31837:31910   */\n      tag_618\n      jump\t// in\n    tag_868:\n        /* \"#utility.yul\":31920:31993   */\n      tag_869\n        /* \"#utility.yul\":31988:31991   */\n      0xa0\n        /* \"#utility.yul\":31977:31986   */\n      dup4\n        /* \"#utility.yul\":31973:31992   */\n      add\n        /* \"#utility.yul\":31964:31970   */\n      dup8\n        /* \"#utility.yul\":31920:31993   */\n      tag_805\n      jump\t// in\n    tag_869:\n        /* \"#utility.yul\":32003:32076   */\n      tag_870\n        /* \"#utility.yul\":32071:32074   */\n      0xc0\n        /* \"#utility.yul\":32060:32069   */\n      dup4\n        /* \"#utility.yul\":32056:32075   */\n      add\n        /* \"#utility.yul\":32047:32053   */\n      dup7\n        /* \"#utility.yul\":32003:32076   */\n      tag_805\n      jump\t// in\n    tag_870:\n        /* \"#utility.yul\":32086:32159   */\n      tag_871\n        /* \"#utility.yul\":32154:32157   */\n      0xe0\n        /* \"#utility.yul\":32143:32152   */\n      dup4\n        /* \"#utility.yul\":32139:32158   */\n      add\n        /* \"#utility.yul\":32130:32136   */\n      dup6\n        /* \"#utility.yul\":32086:32159   */\n      tag_805\n      jump\t// in\n    tag_871:\n        /* \"#utility.yul\":32169:32254   */\n      tag_872\n        /* \"#utility.yul\":32249:32252   */\n      0x0100\n        /* \"#utility.yul\":32238:32247   */\n      dup4\n        /* \"#utility.yul\":32234:32253   */\n      add\n        /* \"#utility.yul\":32225:32231   */\n      dup5\n        /* \"#utility.yul\":32169:32254   */\n      tag_671\n      jump\t// in\n    tag_872:\n        /* \"#utility.yul\":31050:32261   */\n      swap11\n      swap10\n      pop\n      pop\n      pop\n      pop\n      pop\n      pop\n      pop\n      pop\n      pop\n      pop\n      jump\t// out\n        /* \"#utility.yul\":32267:32396   */\n    tag_516:\n        /* \"#utility.yul\":32301:32307   */\n      0x00\n        /* \"#utility.yul\":32328:32348   */\n      tag_874\n      tag_875\n      jump\t// in\n    tag_874:\n        /* \"#utility.yul\":32318:32348   */\n      swap1\n      pop\n        /* \"#utility.yul\":32357:32390   */\n      tag_876\n        /* \"#utility.yul\":32385:32389   */\n      dup3\n        /* \"#utility.yul\":32377:32383   */\n      dup3\n        /* \"#utility.yul\":32357:32390   */\n      tag_877\n      jump\t// in\n    tag_876:\n        /* \"#utility.yul\":32267:32396   */\n      swap2\n      swap1\n      pop\n      jump\t// out\n        /* \"#utility.yul\":32402:32477   */\n    tag_875:\n        /* \"#utility.yul\":32435:32441   */\n      0x00\n        /* \"#utility.yul\":32468:32470   */\n      0x40\n        /* \"#utility.yul\":32462:32471   */\n      mload\n        /* \"#utility.yul\":32452:32471   */\n      swap1\n      pop\n        /* \"#utility.yul\":32402:32477   */\n      swap1\n      jump\t// out\n        /* \"#utility.yul\":32483:32793   */\n    tag_515:\n        /* \"#utility.yul\":32559:32563   */\n      0x00\n        /* \"#utility.yul\":32649:32667   */\n      0xffffffffffffffff\n        /* \"#utility.yul\":32641:32647   */\n      dup3\n        /* \"#utility.yul\":32638:32668   */\n      gt\n        /* \"#utility.yul\":32635:32691   */\n      iszero\n      tag_880\n      jumpi\n        /* \"#utility.yul\":32671:32689   */\n      tag_881\n      tag_163\n      jump\t// in\n    tag_881:\n        /* \"#utility.yul\":32635:32691   */\n    tag_880:\n        /* \"#utility.yul\":32721:32725   */\n      0x20\n        /* \"#utility.yul\":32713:32719   */\n      dup3\n        /* \"#utility.yul\":32709:32726   */\n      mul\n        /* \"#utility.yul\":32701:32726   */\n      swap1\n      pop\n        /* \"#utility.yul\":32781:32785   */\n      0x20\n        /* \"#utility.yul\":32775:32779   */\n      dup2\n        /* \"#utility.yul\":32771:32786   */\n      add\n        /* \"#utility.yul\":32763:32786   */\n      swap1\n      pop\n        /* \"#utility.yul\":32483:32793   */\n      swap2\n      swap1\n      pop\n      jump\t// out\n        /* \"#utility.yul\":32799:32956   */\n    tag_628:\n        /* \"#utility.yul\":32891:32895   */\n      0x00\n        /* \"#utility.yul\":32914:32917   */\n      dup2\n        /* \"#utility.yul\":32906:32917   */\n      swap1\n      pop\n        /* \"#utility.yul\":32944:32948   */\n      0x20\n        /* \"#utility.yul\":32939:32942   */\n      dup3\n        /* \"#utility.yul\":32935:32949   */\n      add\n        /* \"#utility.yul\":32927:32949   */\n      swap1\n      pop\n        /* \"#utility.yul\":32799:32956   */\n      swap2\n      swap1\n      pop\n      jump\t// out\n        /* \"#utility.yul\":32962:33117   */\n    tag_642:\n        /* \"#utility.yul\":33052:33056   */\n      0x00\n        /* \"#utility.yul\":33075:33078   */\n      dup2\n        /* \"#utility.yul\":33067:33078   */\n      swap1\n      pop\n        /* \"#utility.yul\":33105:33109   */\n      0x20\n        /* \"#utility.yul\":33100:33103   */\n      dup3\n        /* \"#utility.yul\":33096:33110   */\n      add\n        /* \"#utility.yul\":33088:33110   */\n      swap1\n      pop\n        /* \"#utility.yul\":32962:33117   */\n      swap2\n      swap1\n      pop\n      jump\t// out\n        /* \"#utility.yul\":33123:33253   */\n    tag_656:\n        /* \"#utility.yul\":33188:33192   */\n      0x00\n        /* \"#utility.yul\":33211:33214   */\n      dup2\n        /* \"#utility.yul\":33203:33214   */\n      swap1\n      pop\n        /* \"#utility.yul\":33241:33245   */\n      0x20\n        /* \"#utility.yul\":33236:33239   */\n      dup3\n        /* \"#utility.yul\":33232:33246   */\n      add\n        /* \"#utility.yul\":33224:33246   */\n      swap1\n      pop\n        /* \"#utility.yul\":33123:33253   */\n      swap2\n      swap1\n      pop\n      jump\t// out\n        /* \"#utility.yul\":33259:33400   */\n    tag_699:\n        /* \"#utility.yul\":33308:33312   */\n      0x00\n        /* \"#utility.yul\":33331:33334   */\n      dup2\n        /* \"#utility.yul\":33323:33334   */\n      swap1\n      pop\n        /* \"#utility.yul\":33354:33357   */\n      dup2\n        /* \"#utility.yul\":33351:33352   */\n      0x00\n        /* \"#utility.yul\":33344:33358   */\n      mstore\n        /* \"#utility.yul\":33388:33392   */\n      0x20\n        /* \"#utility.yul\":33385:33386   */\n      0x00\n        /* \"#utility.yul\":33375:33393   */\n      keccak256\n        /* \"#utility.yul\":33367:33393   */\n      swap1\n      pop\n        /* \"#utility.yul\":33259:33400   */\n      swap2\n      swap1\n      pop\n      jump\t// out\n        /* \"#utility.yul\":33406:33545   */\n    tag_624:\n        /* \"#utility.yul\":33498:33504   */\n      0x00\n        /* \"#utility.yul\":33532:33537   */\n      dup2\n        /* \"#utility.yul\":33526:33538   */\n      mload\n        /* \"#utility.yul\":33516:33538   */\n      swap1\n      pop\n        /* \"#utility.yul\":33406:33545   */\n      swap2\n      swap1\n      pop\n      jump\t// out\n        /* \"#utility.yul\":33551:33688   */\n    tag_638:\n        /* \"#utility.yul\":33641:33647   */\n      0x00\n        /* \"#utility.yul\":33675:33680   */\n      dup2\n        /* \"#utility.yul\":33669:33681   */\n      mload\n        /* \"#utility.yul\":33659:33681   */\n      swap1\n      pop\n        /* \"#utility.yul\":33551:33688   */\n      swap2\n      swap1\n      pop\n      jump\t// out\n        /* \"#utility.yul\":33694:33806   */\n    tag_652:\n        /* \"#utility.yul\":33759:33765   */\n      0x00\n        /* \"#utility.yul\":33793:33798   */\n      dup2\n        /* \"#utility.yul\":33787:33799   */\n      mload\n        /* \"#utility.yul\":33777:33799   */\n      swap1\n      pop\n        /* \"#utility.yul\":33694:33806   */\n      swap2\n      swap1\n      pop\n      jump\t// out\n        /* \"#utility.yul\":33812:33911   */\n    tag_677:\n        /* \"#utility.yul\":33864:33870   */\n      0x00\n        /* \"#utility.yul\":33898:33903   */\n      dup2\n        /* \"#utility.yul\":33892:33904   */\n      mload\n        /* \"#utility.yul\":33882:33904   */\n      swap1\n      pop\n        /* \"#utility.yul\":33812:33911   */\n      swap2\n      swap1\n      pop\n      jump\t// out\n        /* \"#utility.yul\":33917:34055   */\n    tag_634:\n        /* \"#utility.yul\":34012:34016   */\n      0x00\n        /* \"#utility.yul\":34044:34048   */\n      0x20\n        /* \"#utility.yul\":34039:34042   */\n      dup3\n        /* \"#utility.yul\":34035:34049   */\n      add\n        /* \"#utility.yul\":34027:34049   */\n      swap1\n      pop\n        /* \"#utility.yul\":33917:34055   */\n      swap2\n      swap1\n      pop\n      jump\t// out\n        /* \"#utility.yul\":34061:34197   */\n    tag_648:\n        /* \"#utility.yul\":34154:34158   */\n      0x00\n        /* \"#utility.yul\":34186:34190   */\n      0x20\n        /* \"#utility.yul\":34181:34184   */\n      dup3\n        /* \"#utility.yul\":34177:34191   */\n      add\n        /* \"#utility.yul\":34169:34191   */\n      swap1\n      pop\n        /* \"#utility.yul\":34061:34197   */\n      swap2\n      swap1\n      pop\n      jump\t// out\n        /* \"#utility.yul\":34203:34314   */\n    tag_662:\n        /* \"#utility.yul\":34271:34275   */\n      0x00\n        /* \"#utility.yul\":34303:34307   */\n      0x20\n        /* \"#utility.yul\":34298:34301   */\n      dup3\n        /* \"#utility.yul\":34294:34308   */\n      add\n        /* \"#utility.yul\":34286:34308   */\n      swap1\n      pop\n        /* \"#utility.yul\":34203:34314   */\n      swap2\n      swap1\n      pop\n      jump\t// out\n        /* \"#utility.yul\":34320:34529   */\n    tag_626:\n        /* \"#utility.yul\":34444:34455   */\n      0x00\n        /* \"#utility.yul\":34478:34484   */\n      dup3\n        /* \"#utility.yul\":34473:34476   */\n      dup3\n        /* \"#utility.yul\":34466:34485   */\n      mstore\n        /* \"#utility.yul\":34518:34522   */\n      0x20\n        /* \"#utility.yul\":34513:34516   */\n      dup3\n        /* \"#utility.yul\":34509:34523   */\n      add\n        /* \"#utility.yul\":34494:34523   */\n      swap1\n      pop\n        /* \"#utility.yul\":34320:34529   */\n      swap3\n      swap2\n      pop\n      pop\n      jump\t// out\n        /* \"#utility.yul\":34535:34742   */\n    tag_640:\n        /* \"#utility.yul\":34657:34668   */\n      0x00\n        /* \"#utility.yul\":34691:34697   */\n      dup3\n        /* \"#utility.yul\":34686:34689   */\n      dup3\n        /* \"#utility.yul\":34679:34698   */\n      mstore\n        /* \"#utility.yul\":34731:34735   */\n      0x20\n        /* \"#utility.yul\":34726:34729   */\n      dup3\n        /* \"#utility.yul\":34722:34736   */\n      add\n        /* \"#utility.yul\":34707:34736   */\n      swap1\n      pop\n        /* \"#utility.yul\":34535:34742   */\n      swap3\n      swap2\n      pop\n      pop\n      jump\t// out\n        /* \"#utility.yul\":34748:34930   */\n    tag_654:\n        /* \"#utility.yul\":34845:34856   */\n      0x00\n        /* \"#utility.yul\":34879:34885   */\n      dup3\n        /* \"#utility.yul\":34874:34877   */\n      dup3\n        /* \"#utility.yul\":34867:34886   */\n      mstore\n        /* \"#utility.yul\":34919:34923   */\n      0x20\n        /* \"#utility.yul\":34914:34917   */\n      dup3\n        /* \"#utility.yul\":34910:34924   */\n      add\n        /* \"#utility.yul\":34895:34924   */\n      swap1\n      pop\n        /* \"#utility.yul\":34748:34930   */\n      swap3\n      swap2\n      pop\n      pop\n      jump\t// out\n        /* \"#utility.yul\":34936:35095   */\n    tag_679:\n        /* \"#utility.yul\":35010:35021   */\n      0x00\n        /* \"#utility.yul\":35044:35050   */\n      dup3\n        /* \"#utility.yul\":35039:35042   */\n      dup3\n        /* \"#utility.yul\":35032:35051   */\n      mstore\n        /* \"#utility.yul\":35084:35088   */\n      0x20\n        /* \"#utility.yul\":35079:35082   */\n      dup3\n        /* \"#utility.yul\":35075:35089   */\n      add\n        /* \"#utility.yul\":35060:35089   */\n      swap1\n      pop\n        /* \"#utility.yul\":34936:35095   */\n      swap3\n      swap2\n      pop\n      pop\n      jump\t// out\n        /* \"#utility.yul\":35101:35270   */\n    tag_688:\n        /* \"#utility.yul\":35185:35196   */\n      0x00\n        /* \"#utility.yul\":35219:35225   */\n      dup3\n        /* \"#utility.yul\":35214:35217   */\n      dup3\n        /* \"#utility.yul\":35207:35226   */\n      mstore\n        /* \"#utility.yul\":35259:35263   */\n      0x20\n        /* \"#utility.yul\":35254:35257   */\n      dup3\n        /* \"#utility.yul\":35250:35264   */\n      add\n        /* \"#utility.yul\":35235:35264   */\n      swap1\n      pop\n        /* \"#utility.yul\":35101:35270   */\n      swap3\n      swap2\n      pop\n      pop\n      jump\t// out\n        /* \"#utility.yul\":35276:35518   */\n    tag_158:\n        /* \"#utility.yul\":35315:35318   */\n      0x00\n        /* \"#utility.yul\":35334:35353   */\n      tag_899\n        /* \"#utility.yul\":35351:35352   */\n      dup3\n        /* \"#utility.yul\":35334:35353   */\n      tag_798\n      jump\t// in\n    tag_899:\n        /* \"#utility.yul\":35329:35353   */\n      swap2\n      pop\n        /* \"#utility.yul\":35367:35386   */\n      tag_900\n        /* \"#utility.yul\":35384:35385   */\n      dup4\n        /* \"#utility.yul\":35367:35386   */\n      tag_798\n      jump\t// in\n    tag_900:\n        /* \"#utility.yul\":35362:35386   */\n      swap3\n      pop\n        /* \"#utility.yul\":35460:35461   */\n      dup3\n        /* \"#utility.yul\":35452:35458   */\n      0xffff\n        /* \"#utility.yul\":35448:35462   */\n      sub\n        /* \"#utility.yul\":35445:35446   */\n      dup3\n        /* \"#utility.yul\":35442:35463   */\n      gt\n        /* \"#utility.yul\":35439:35486   */\n      iszero\n      tag_901\n      jumpi\n        /* \"#utility.yul\":35466:35484   */\n      tag_902\n      tag_903\n      jump\t// in\n    tag_902:\n        /* \"#utility.yul\":35439:35486   */\n    tag_901:\n        /* \"#utility.yul\":35510:35511   */\n      dup3\n        /* \"#utility.yul\":35507:35508   */\n      dup3\n        /* \"#utility.yul\":35503:35512   */\n      add\n        /* \"#utility.yul\":35496:35512   */\n      swap1\n      pop\n        /* \"#utility.yul\":35276:35518   */\n      swap3\n      swap2\n      pop\n      pop\n      jump\t// out\n        /* \"#utility.yul\":35524:35829   */\n    tag_154:\n        /* \"#utility.yul\":35564:35567   */\n      0x00\n        /* \"#utility.yul\":35583:35603   */\n      tag_905\n        /* \"#utility.yul\":35601:35602   */\n      dup3\n        /* \"#utility.yul\":35583:35603   */\n      tag_804\n      jump\t// in\n    tag_905:\n        /* \"#utility.yul\":35578:35603   */\n      swap2\n      pop\n        /* \"#utility.yul\":35617:35637   */\n      tag_906\n        /* \"#utility.yul\":35635:35636   */\n      dup4\n        /* \"#utility.yul\":35617:35637   */\n      tag_804\n      jump\t// in\n    tag_906:\n        /* \"#utility.yul\":35612:35637   */\n      swap3\n      pop\n        /* \"#utility.yul\":35771:35772   */\n      dup3\n        /* \"#utility.yul\":35703:35769   */\n      0xffffffffffffffffffffffffffffffffffffffffffffffffffffffffffffffff\n        /* \"#utility.yul\":35699:35773   */\n      sub\n        /* \"#utility.yul\":35696:35697   */\n      dup3\n        /* \"#utility.yul\":35693:35774   */\n      gt\n        /* \"#utility.yul\":35690:35797   */\n      iszero\n      tag_907\n      jumpi\n        /* \"#utility.yul\":35777:35795   */\n      tag_908\n      tag_903\n      jump\t// in\n    tag_908:\n        /* \"#utility.yul\":35690:35797   */\n    tag_907:\n        /* \"#utility.yul\":35821:35822   */\n      dup3\n        /* \"#utility.yul\":35818:35819   */\n      dup3\n        /* \"#utility.yul\":35814:35823   */\n      add\n        /* \"#utility.yul\":35807:35823   */\n      swap1\n      pop\n        /* \"#utility.yul\":35524:35829   */\n      swap3\n      swap2\n      pop\n      pop\n      jump\t// out\n        /* \"#utility.yul\":35835:36081   */\n    tag_240:\n        /* \"#utility.yul\":35874:35877   */\n      0x00\n        /* \"#utility.yul\":35893:35912   */\n      tag_910\n        /* \"#utility.yul\":35910:35911   */\n      dup3\n        /* \"#utility.yul\":35893:35912   */\n      tag_810\n      jump\t// in\n    tag_910:\n        /* \"#utility.yul\":35888:35912   */\n      swap2\n      pop\n        /* \"#utility.yul\":35926:35945   */\n      tag_911\n        /* \"#utility.yul\":35943:35944   */\n      dup4\n        /* \"#utility.yul\":35926:35945   */\n      tag_810\n      jump\t// in\n    tag_911:\n        /* \"#utility.yul\":35921:35945   */\n      swap3\n      pop\n        /* \"#utility.yul\":36023:36024   */\n      dup3\n        /* \"#utility.yul\":36011:36021   */\n      0xffffffff\n        /* \"#utility.yul\":36007:36025   */\n      sub\n        /* \"#utility.yul\":36004:36005   */\n      dup3\n        /* \"#utility.yul\":36001:36026   */\n      gt\n        /* \"#utility.yul\":35998:36049   */\n      iszero\n      tag_912\n      jumpi\n        /* \"#utility.yul\":36029:36047   */\n      tag_913\n      tag_903\n      jump\t// in\n    tag_913:\n        /* \"#utility.yul\":35998:36049   */\n    tag_912:\n        /* \"#utility.yul\":36073:36074   */\n      dup3\n        /* \"#utility.yul\":36070:36071   */\n      dup3\n        /* \"#utility.yul\":36066:36075   */\n      add\n        /* \"#utility.yul\":36059:36075   */\n      swap1\n      pop\n        /* \"#utility.yul\":35835:36081   */\n      swap3\n      swap2\n      pop\n      pop\n      jump\t// out\n        /* \"#utility.yul\":36087:36324   */\n    tag_400:\n        /* \"#utility.yul\":36125:36128   */\n      0x00\n        /* \"#utility.yul\":36144:36162   */\n      tag_915\n        /* \"#utility.yul\":36160:36161   */\n      dup3\n        /* \"#utility.yul\":36144:36162   */\n      tag_816\n      jump\t// in\n    tag_915:\n        /* \"#utility.yul\":36139:36162   */\n      swap2\n      pop\n        /* \"#utility.yul\":36176:36194   */\n      tag_916\n        /* \"#utility.yul\":36192:36193   */\n      dup4\n        /* \"#utility.yul\":36176:36194   */\n      tag_816\n      jump\t// in\n    tag_916:\n        /* \"#utility.yul\":36171:36194   */\n      swap3\n      pop\n        /* \"#utility.yul\":36266:36267   */\n      dup3\n        /* \"#utility.yul\":36260:36264   */\n      0xff\n        /* \"#utility.yul\":36256:36268   */\n      sub\n        /* \"#utility.yul\":36253:36254   */\n      dup3\n        /* \"#utility.yul\":36250:36269   */\n      gt\n        /* \"#utility.yul\":36247:36292   */\n      iszero\n      tag_917\n      jumpi\n        /* \"#utility.yul\":36272:36290   */\n      tag_918\n      tag_903\n      jump\t// in\n    tag_918:\n        /* \"#utility.yul\":36247:36292   */\n    tag_917:\n        /* \"#utility.yul\":36316:36317   */\n      dup3\n        /* \"#utility.yul\":36313:36314   */\n      dup3\n        /* \"#utility.yul\":36309:36318   */\n      add\n        /* \"#utility.yul\":36302:36318   */\n      swap1\n      pop\n        /* \"#utility.yul\":36087:36324   */\n      swap3\n      swap2\n      pop\n      pop\n      jump\t// out\n        /* \"#utility.yul\":36330:36518   */\n    tag_176:\n        /* \"#utility.yul\":36369:36373   */\n      0x00\n        /* \"#utility.yul\":36389:36408   */\n      tag_920\n        /* \"#utility.yul\":36406:36407   */\n      dup3\n        /* \"#utility.yul\":36389:36408   */\n      tag_798\n      jump\t// in\n    tag_920:\n        /* \"#utility.yul\":36384:36408   */\n      swap2\n      pop\n        /* \"#utility.yul\":36422:36441   */\n      tag_921\n        /* \"#utility.yul\":36439:36440   */\n      dup4\n        /* \"#utility.yul\":36422:36441   */\n      tag_798\n      jump\t// in\n    tag_921:\n        /* \"#utility.yul\":36417:36441   */\n      swap3\n      pop\n        /* \"#utility.yul\":36460:36461   */\n      dup3\n        /* \"#utility.yul\":36457:36458   */\n      dup3\n        /* \"#utility.yul\":36454:36462   */\n      lt\n        /* \"#utility.yul\":36451:36485   */\n      iszero\n      tag_922\n      jumpi\n        /* \"#utility.yul\":36465:36483   */\n      tag_923\n      tag_903\n      jump\t// in\n    tag_923:\n        /* \"#utility.yul\":36451:36485   */\n    tag_922:\n        /* \"#utility.yul\":36510:36511   */\n      dup3\n        /* \"#utility.yul\":36507:36508   */\n      dup3\n        /* \"#utility.yul\":36503:36512   */\n      sub\n        /* \"#utility.yul\":36495:36512   */\n      swap1\n      pop\n        /* \"#utility.yul\":36330:36518   */\n      swap3\n      swap2\n      pop\n      pop\n      jump\t// out\n        /* \"#utility.yul\":36524:36709   */\n    tag_417:\n        /* \"#utility.yul\":36562:36566   */\n      0x00\n        /* \"#utility.yul\":36582:36600   */\n      tag_925\n        /* \"#utility.yul\":36598:36599   */\n      dup3\n        /* \"#utility.yul\":36582:36600   */\n      tag_816\n      jump\t// in\n    tag_925:\n        /* \"#utility.yul\":36577:36600   */\n      swap2\n      pop\n        /* \"#utility.yul\":36614:36632   */\n      tag_926\n        /* \"#utility.yul\":36630:36631   */\n      dup4\n        /* \"#utility.yul\":36614:36632   */\n      tag_816\n      jump\t// in\n    tag_926:\n        /* \"#utility.yul\":36609:36632   */\n      swap3\n      pop\n        /* \"#utility.yul\":36651:36652   */\n      dup3\n        /* \"#utility.yul\":36648:36649   */\n      dup3\n        /* \"#utility.yul\":36645:36653   */\n      lt\n        /* \"#utility.yul\":36642:36676   */\n      iszero\n      tag_927\n      jumpi\n        /* \"#utility.yul\":36656:36674   */\n      tag_928\n      tag_903\n      jump\t// in\n    tag_928:\n        /* \"#utility.yul\":36642:36676   */\n    tag_927:\n        /* \"#utility.yul\":36701:36702   */\n      dup3\n        /* \"#utility.yul\":36698:36699   */\n      dup3\n        /* \"#utility.yul\":36694:36703   */\n      sub\n        /* \"#utility.yul\":36686:36703   */\n      swap1\n      pop\n        /* \"#utility.yul\":36524:36709   */\n      swap3\n      swap2\n      pop\n      pop\n      jump\t// out\n        /* \"#utility.yul\":36715:36811   */\n    tag_617:\n        /* \"#utility.yul\":36752:36759   */\n      0x00\n        /* \"#utility.yul\":36781:36805   */\n      tag_930\n        /* \"#utility.yul\":36799:36804   */\n      dup3\n        /* \"#utility.yul\":36781:36805   */\n      tag_931\n      jump\t// in\n    tag_930:\n        /* \"#utility.yul\":36770:36805   */\n      swap1\n      pop\n        /* \"#utility.yul\":36715:36811   */\n      swap2\n      swap1\n      pop\n      jump\t// out\n        /* \"#utility.yul\":36817:36907   */\n    tag_666:\n        /* \"#utility.yul\":36851:36858   */\n      0x00\n        /* \"#utility.yul\":36894:36899   */\n      dup2\n        /* \"#utility.yul\":36887:36900   */\n      iszero\n        /* \"#utility.yul\":36880:36901   */\n      iszero\n        /* \"#utility.yul\":36869:36901   */\n      swap1\n      pop\n        /* \"#utility.yul\":36817:36907   */\n      swap2\n      swap1\n      pop\n      jump\t// out\n        /* \"#utility.yul\":36913:37052   */\n    tag_933:\n        /* \"#utility.yul\":36964:36971   */\n      0x00\n        /* \"#utility.yul\":36993:36998   */\n      dup2\n        /* \"#utility.yul\":36982:36998   */\n      swap1\n      pop\n        /* \"#utility.yul\":36999:37046   */\n      tag_935\n        /* \"#utility.yul\":37040:37045   */\n      dup3\n        /* \"#utility.yul\":36999:37046   */\n      tag_936\n      jump\t// in\n    tag_935:\n        /* \"#utility.yul\":36913:37052   */\n      swap2\n      swap1\n      pop\n      jump\t// out\n        /* \"#utility.yul\":37058:37147   */\n    tag_798:\n        /* \"#utility.yul\":37094:37101   */\n      0x00\n        /* \"#utility.yul\":37134:37140   */\n      0xffff\n        /* \"#utility.yul\":37127:37132   */\n      dup3\n        /* \"#utility.yul\":37123:37141   */\n      and\n        /* \"#utility.yul\":37112:37141   */\n      swap1\n      pop\n        /* \"#utility.yul\":37058:37147   */\n      swap2\n      swap1\n      pop\n      jump\t// out\n        /* \"#utility.yul\":37153:37279   */\n    tag_931:\n        /* \"#utility.yul\":37190:37197   */\n      0x00\n        /* \"#utility.yul\":37230:37272   */\n      0xffffffffffffffffffffffffffffffffffffffff\n        /* \"#utility.yul\":37223:37228   */\n      dup3\n        /* \"#utility.yul\":37219:37273   */\n      and\n        /* \"#utility.yul\":37208:37273   */\n      swap1\n      pop\n        /* \"#utility.yul\":37153:37279   */\n      swap2\n      swap1\n      pop\n      jump\t// out\n        /* \"#utility.yul\":37285:37362   */\n    tag_804:\n        /* \"#utility.yul\":37322:37329   */\n      0x00\n        /* \"#utility.yul\":37351:37356   */\n      dup2\n        /* \"#utility.yul\":37340:37356   */\n      swap1\n      pop\n        /* \"#utility.yul\":37285:37362   */\n      swap2\n      swap1\n      pop\n      jump\t// out\n        /* \"#utility.yul\":37368:37461   */\n    tag_810:\n        /* \"#utility.yul\":37404:37411   */\n      0x00\n        /* \"#utility.yul\":37444:37454   */\n      0xffffffff\n        /* \"#utility.yul\":37437:37442   */\n      dup3\n        /* \"#utility.yul\":37433:37455   */\n      and\n        /* \"#utility.yul\":37422:37455   */\n      swap1\n      pop\n        /* \"#utility.yul\":37368:37461   */\n      swap2\n      swap1\n      pop\n      jump\t// out\n        /* \"#utility.yul\":37467:37553   */\n    tag_816:\n        /* \"#utility.yul\":37502:37509   */\n      0x00\n        /* \"#utility.yul\":37542:37546   */\n      0xff\n        /* \"#utility.yul\":37535:37540   */\n      dup3\n        /* \"#utility.yul\":37531:37547   */\n      and\n        /* \"#utility.yul\":37520:37547   */\n      swap1\n      pop\n        /* \"#utility.yul\":37467:37553   */\n      swap2\n      swap1\n      pop\n      jump\t// out\n        /* \"#utility.yul\":37559:37698   */\n    tag_670:\n        /* \"#utility.yul\":37621:37630   */\n      0x00\n        /* \"#utility.yul\":37654:37692   */\n      tag_943\n        /* \"#utility.yul\":37686:37691   */\n      dup3\n        /* \"#utility.yul\":37654:37692   */\n      tag_933\n      jump\t// in\n    tag_943:\n        /* \"#utility.yul\":37641:37692   */\n      swap1\n      pop\n        /* \"#utility.yul\":37559:37698   */\n      swap2\n      swap1\n      pop\n      jump\t// out\n        /* \"#utility.yul\":37704:38011   */\n    tag_681:\n        /* \"#utility.yul\":37772:37773   */\n      0x00\n        /* \"#utility.yul\":37782:37895   */\n    tag_945:\n        /* \"#utility.yul\":37796:37802   */\n      dup4\n        /* \"#utility.yul\":37793:37794   */\n      dup2\n        /* \"#utility.yul\":37790:37803   */\n      lt\n        /* \"#utility.yul\":37782:37895   */\n      iszero\n      tag_947\n      jumpi\n        /* \"#utility.yul\":37881:37882   */\n      dup1\n        /* \"#utility.yul\":37876:37879   */\n      dup3\n        /* \"#utility.yul\":37872:37883   */\n      add\n        /* \"#utility.yul\":37866:37884   */\n      mload\n        /* \"#utility.yul\":37862:37863   */\n      dup2\n        /* \"#utility.yul\":37857:37860   */\n      dup5\n        /* \"#utility.yul\":37853:37864   */\n      add\n        /* \"#utility.yul\":37846:37885   */\n      mstore\n        /* \"#utility.yul\":37818:37820   */\n      0x20\n        /* \"#utility.yul\":37815:37816   */\n      dup2\n        /* \"#utility.yul\":37811:37821   */\n      add\n        /* \"#utility.yul\":37806:37821   */\n      swap1\n      pop\n        /* \"#utility.yul\":37782:37895   */\n      jump(tag_945)\n    tag_947:\n        /* \"#utility.yul\":37913:37919   */\n      dup4\n        /* \"#utility.yul\":37910:37911   */\n      dup2\n        /* \"#utility.yul\":37907:37920   */\n      gt\n        /* \"#utility.yul\":37904:38005   */\n      iszero\n      tag_948\n      jumpi\n        /* \"#utility.yul\":37993:37994   */\n      0x00\n        /* \"#utility.yul\":37984:37990   */\n      dup5\n        /* \"#utility.yul\":37979:37982   */\n      dup5\n        /* \"#utility.yul\":37975:37991   */\n      add\n        /* \"#utility.yul\":37968:37995   */\n      mstore\n        /* \"#utility.yul\":37904:38005   */\n    tag_948:\n        /* \"#utility.yul\":37753:38011   */\n      pop\n        /* \"#utility.yul\":37704:38011   */\n      pop\n      pop\n      pop\n      jump\t// out\n        /* \"#utility.yul\":38017:38337   */\n    tag_179:\n        /* \"#utility.yul\":38061:38067   */\n      0x00\n        /* \"#utility.yul\":38098:38099   */\n      0x02\n        /* \"#utility.yul\":38092:38096   */\n      dup3\n        /* \"#utility.yul\":38088:38100   */\n      div\n        /* \"#utility.yul\":38078:38100   */\n      swap1\n      pop\n        /* \"#utility.yul\":38145:38146   */\n      0x01\n        /* \"#utility.yul\":38139:38143   */\n      dup3\n        /* \"#utility.yul\":38135:38147   */\n      and\n        /* \"#utility.yul\":38166:38184   */\n      dup1\n        /* \"#utility.yul\":38156:38237   */\n      tag_950\n      jumpi\n        /* \"#utility.yul\":38222:38226   */\n      0x7f\n        /* \"#utility.yul\":38214:38220   */\n      dup3\n        /* \"#utility.yul\":38210:38227   */\n      and\n        /* \"#utility.yul\":38200:38227   */\n      swap2\n      pop\n        /* \"#utility.yul\":38156:38237   */\n    tag_950:\n        /* \"#utility.yul\":38284:38286   */\n      0x20\n        /* \"#utility.yul\":38276:38282   */\n      dup3\n        /* \"#utility.yul\":38273:38287   */\n      lt\n        /* \"#utility.yul\":38253:38271   */\n      dup2\n        /* \"#utility.yul\":38250:38288   */\n      eq\n        /* \"#utility.yul\":38247:38331   */\n      iszero\n      tag_951\n      jumpi\n        /* \"#utility.yul\":38303:38321   */\n      tag_952\n      tag_953\n      jump\t// in\n    tag_952:\n        /* \"#utility.yul\":38247:38331   */\n    tag_951:\n        /* \"#utility.yul\":38068:38337   */\n      pop\n        /* \"#utility.yul\":38017:38337   */\n      swap2\n      swap1\n      pop\n      jump\t// out\n        /* \"#utility.yul\":38343:38624   */\n    tag_877:\n        /* \"#utility.yul\":38426:38453   */\n      tag_955\n        /* \"#utility.yul\":38448:38452   */\n      dup3\n        /* \"#utility.yul\":38426:38453   */\n      tag_683\n      jump\t// in\n    tag_955:\n        /* \"#utility.yul\":38418:38424   */\n      dup2\n        /* \"#utility.yul\":38414:38454   */\n      add\n        /* \"#utility.yul\":38556:38562   */\n      dup2\n        /* \"#utility.yul\":38544:38554   */\n      dup2\n        /* \"#utility.yul\":38541:38563   */\n      lt\n        /* \"#utility.yul\":38520:38538   */\n      0xffffffffffffffff\n        /* \"#utility.yul\":38508:38518   */\n      dup3\n        /* \"#utility.yul\":38505:38539   */\n      gt\n        /* \"#utility.yul\":38502:38564   */\n      or\n        /* \"#utility.yul\":38499:38587   */\n      iszero\n      tag_956\n      jumpi\n        /* \"#utility.yul\":38567:38585   */\n      tag_957\n      tag_163\n      jump\t// in\n    tag_957:\n        /* \"#utility.yul\":38499:38587   */\n    tag_956:\n        /* \"#utility.yul\":38607:38617   */\n      dup1\n        /* \"#utility.yul\":38603:38605   */\n      0x40\n        /* \"#utility.yul\":38596:38618   */\n      mstore\n        /* \"#utility.yul\":38386:38624   */\n      pop\n        /* \"#utility.yul\":38343:38624   */\n      pop\n      pop\n      jump\t// out\n        /* \"#utility.yul\":38630:38801   */\n    tag_193:\n        /* \"#utility.yul\":38668:38671   */\n      0x00\n        /* \"#utility.yul\":38691:38714   */\n      tag_959\n        /* \"#utility.yul\":38708:38713   */\n      dup3\n        /* \"#utility.yul\":38691:38714   */\n      tag_798\n      jump\t// in\n    tag_959:\n        /* \"#utility.yul\":38682:38714   */\n      swap2\n      pop\n        /* \"#utility.yul\":38736:38742   */\n      0xffff\n        /* \"#utility.yul\":38729:38734   */\n      dup3\n        /* \"#utility.yul\":38726:38743   */\n      eq\n        /* \"#utility.yul\":38723:38766   */\n      iszero\n      tag_960\n      jumpi\n        /* \"#utility.yul\":38746:38764   */\n      tag_961\n      tag_903\n      jump\t// in\n    tag_961:\n        /* \"#utility.yul\":38723:38766   */\n    tag_960:\n        /* \"#utility.yul\":38793:38794   */\n      0x01\n        /* \"#utility.yul\":38786:38791   */\n      dup3\n        /* \"#utility.yul\":38782:38795   */\n      add\n        /* \"#utility.yul\":38775:38795   */\n      swap1\n      pop\n        /* \"#utility.yul\":38630:38801   */\n      swap2\n      swap1\n      pop\n      jump\t// out\n        /* \"#utility.yul\":38807:38974   */\n    tag_288:\n        /* \"#utility.yul\":38844:38847   */\n      0x00\n        /* \"#utility.yul\":38867:38889   */\n      tag_963\n        /* \"#utility.yul\":38883:38888   */\n      dup3\n        /* \"#utility.yul\":38867:38889   */\n      tag_816\n      jump\t// in\n    tag_963:\n        /* \"#utility.yul\":38858:38889   */\n      swap2\n      pop\n        /* \"#utility.yul\":38911:38915   */\n      0xff\n        /* \"#utility.yul\":38904:38909   */\n      dup3\n        /* \"#utility.yul\":38901:38916   */\n      eq\n        /* \"#utility.yul\":38898:38939   */\n      iszero\n      tag_964\n      jumpi\n        /* \"#utility.yul\":38919:38937   */\n      tag_965\n      tag_903\n      jump\t// in\n    tag_965:\n        /* \"#utility.yul\":38898:38939   */\n    tag_964:\n        /* \"#utility.yul\":38966:38967   */\n      0x01\n        /* \"#utility.yul\":38959:38964   */\n      dup3\n        /* \"#utility.yul\":38955:38968   */\n      add\n        /* \"#utility.yul\":38948:38968   */\n      swap1\n      pop\n        /* \"#utility.yul\":38807:38974   */\n      swap2\n      swap1\n      pop\n      jump\t// out\n        /* \"#utility.yul\":38980:39160   */\n    tag_903:\n        /* \"#utility.yul\":39028:39105   */\n      0x4e487b7100000000000000000000000000000000000000000000000000000000\n        /* \"#utility.yul\":39025:39026   */\n      0x00\n        /* \"#utility.yul\":39018:39106   */\n      mstore\n        /* \"#utility.yul\":39125:39129   */\n      0x11\n        /* \"#utility.yul\":39122:39123   */\n      0x04\n        /* \"#utility.yul\":39115:39130   */\n      mstore\n        /* \"#utility.yul\":39149:39153   */\n      0x24\n        /* \"#utility.yul\":39146:39147   */\n      0x00\n        /* \"#utility.yul\":39139:39154   */\n      revert\n        /* \"#utility.yul\":39166:39346   */\n    tag_122:\n        /* \"#utility.yul\":39214:39291   */\n      0x4e487b7100000000000000000000000000000000000000000000000000000000\n        /* \"#utility.yul\":39211:39212   */\n      0x00\n        /* \"#utility.yul\":39204:39292   */\n      mstore\n        /* \"#utility.yul\":39311:39315   */\n      0x21\n        /* \"#utility.yul\":39308:39309   */\n      0x04\n        /* \"#utility.yul\":39301:39316   */\n      mstore\n        /* \"#utility.yul\":39335:39339   */\n      0x24\n        /* \"#utility.yul\":39332:39333   */\n      0x00\n        /* \"#utility.yul\":39325:39340   */\n      revert\n        /* \"#utility.yul\":39352:39532   */\n    tag_953:\n        /* \"#utility.yul\":39400:39477   */\n      0x4e487b7100000000000000000000000000000000000000000000000000000000\n        /* \"#utility.yul\":39397:39398   */\n      0x00\n        /* \"#utility.yul\":39390:39478   */\n      mstore\n        /* \"#utility.yul\":39497:39501   */\n      0x22\n        /* \"#utility.yul\":39494:39495   */\n      0x04\n        /* \"#utility.yul\":39487:39502   */\n      mstore\n        /* \"#utility.yul\":39521:39525   */\n      0x24\n        /* \"#utility.yul\":39518:39519   */\n      0x00\n        /* \"#utility.yul\":39511:39526   */\n      revert\n        /* \"#utility.yul\":39538:39718   */\n    tag_191:\n        /* \"#utility.yul\":39586:39663   */\n      0x4e487b7100000000000000000000000000000000000000000000000000000000\n        /* \"#utility.yul\":39583:39584   */\n      0x00\n        /* \"#utility.yul\":39576:39664   */\n      mstore\n        /* \"#utility.yul\":39683:39687   */\n      0x32\n        /* \"#utility.yul\":39680:39681   */\n      0x04\n        /* \"#utility.yul\":39673:39688   */\n      mstore\n        /* \"#utility.yul\":39707:39711   */\n      0x24\n        /* \"#utility.yul\":39704:39705   */\n      0x00\n        /* \"#utility.yul\":39697:39712   */\n      revert\n        /* \"#utility.yul\":39724:39904   */\n    tag_163:\n        /* \"#utility.yul\":39772:39849   */\n      0x4e487b7100000000000000000000000000000000000000000000000000000000\n        /* \"#utility.yul\":39769:39770   */\n      0x00\n        /* \"#utility.yul\":39762:39850   */\n      mstore\n        /* \"#utility.yul\":39869:39873   */\n      0x41\n        /* \"#utility.yul\":39866:39867   */\n      0x04\n        /* \"#utility.yul\":39859:39874   */\n      mstore\n        /* \"#utility.yul\":39893:39897   */\n      0x24\n        /* \"#utility.yul\":39890:39891   */\n      0x00\n        /* \"#utility.yul\":39883:39898   */\n      revert\n        /* \"#utility.yul\":39910:40027   */\n    tag_549:\n        /* \"#utility.yul\":40019:40020   */\n      0x00\n        /* \"#utility.yul\":40016:40017   */\n      dup1\n        /* \"#utility.yul\":40009:40021   */\n      revert\n        /* \"#utility.yul\":40033:40150   */\n    tag_533:\n        /* \"#utility.yul\":40142:40143   */\n      0x00\n        /* \"#utility.yul\":40139:40140   */\n      dup1\n        /* \"#utility.yul\":40132:40144   */\n      revert\n        /* \"#utility.yul\":40156:40273   */\n    tag_519:\n        /* \"#utility.yul\":40265:40266   */\n      0x00\n        /* \"#utility.yul\":40262:40263   */\n      dup1\n        /* \"#utility.yul\":40255:40267   */\n      revert\n        /* \"#utility.yul\":40279:40396   */\n    tag_569:\n        /* \"#utility.yul\":40388:40389   */\n      0x00\n        /* \"#utility.yul\":40385:40386   */\n      dup1\n        /* \"#utility.yul\":40378:40390   */\n      revert\n        /* \"#utility.yul\":40402:40519   */\n    tag_562:\n        /* \"#utility.yul\":40511:40512   */\n      0x00\n        /* \"#utility.yul\":40508:40509   */\n      dup1\n        /* \"#utility.yul\":40501:40513   */\n      revert\n        /* \"#utility.yul\":40525:40627   */\n    tag_683:\n        /* \"#utility.yul\":40566:40572   */\n      0x00\n        /* \"#utility.yul\":40617:40619   */\n      0x1f\n        /* \"#utility.yul\":40613:40620   */\n      not\n        /* \"#utility.yul\":40608:40610   */\n      0x1f\n        /* \"#utility.yul\":40601:40606   */\n      dup4\n        /* \"#utility.yul\":40597:40611   */\n      add\n        /* \"#utility.yul\":40593:40621   */\n      and\n        /* \"#utility.yul\":40583:40621   */\n      swap1\n      pop\n        /* \"#utility.yul\":40525:40627   */\n      swap2\n      swap1\n      pop\n      jump\t// out\n        /* \"#utility.yul\":40633:40866   */\n    tag_707:\n        /* \"#utility.yul\":40773:40807   */\n      0x566f74696e6720547970652063616e6e6f7420626520636c6f73656420617420\n        /* \"#utility.yul\":40769:40770   */\n      0x00\n        /* \"#utility.yul\":40761:40767   */\n      dup3\n        /* \"#utility.yul\":40757:40771   */\n      add\n        /* \"#utility.yul\":40750:40808   */\n      mstore\n        /* \"#utility.yul\":40842:40858   */\n      0x696e697469616c2073746174652e000000000000000000000000000000000000\n        /* \"#utility.yul\":40837:40839   */\n      0x20\n        /* \"#utility.yul\":40829:40835   */\n      dup3\n        /* \"#utility.yul\":40825:40840   */\n      add\n        /* \"#utility.yul\":40818:40859   */\n      mstore\n        /* \"#utility.yul\":40633:40866   */\n      pop\n      jump\t// out\n        /* \"#utility.yul\":40872:41041   */\n    tag_712:\n        /* \"#utility.yul\":41012:41033   */\n      0x596f7520617265206e6f74206120766f74657200000000000000000000000000\n        /* \"#utility.yul\":41008:41009   */\n      0x00\n        /* \"#utility.yul\":41000:41006   */\n      dup3\n        /* \"#utility.yul\":40996:41010   */\n      add\n        /* \"#utility.yul\":40989:41034   */\n      mstore\n        /* \"#utility.yul\":40872:41041   */\n      pop\n      jump\t// out\n        /* \"#utility.yul\":41047:41279   */\n    tag_717:\n        /* \"#utility.yul\":41187:41221   */\n      0x43757272656e746c7920776520617265206e6f7420766f74696e67206f6e2074\n        /* \"#utility.yul\":41183:41184   */\n      0x00\n        /* \"#utility.yul\":41175:41181   */\n      dup3\n        /* \"#utility.yul\":41171:41185   */\n      add\n        /* \"#utility.yul\":41164:41222   */\n      mstore\n        /* \"#utility.yul\":41256:41271   */\n      0x6869732066756e6374696f6e2e00000000000000000000000000000000000000\n        /* \"#utility.yul\":41251:41253   */\n      0x20\n        /* \"#utility.yul\":41243:41249   */\n      dup3\n        /* \"#utility.yul\":41239:41254   */\n      add\n        /* \"#utility.yul\":41232:41272   */\n      mstore\n        /* \"#utility.yul\":41047:41279   */\n      pop\n      jump\t// out\n        /* \"#utility.yul\":41285:41510   */\n    tag_722:\n        /* \"#utility.yul\":41425:41459   */\n      0x4f776e61626c653a206e6577206f776e657220697320746865207a65726f2061\n        /* \"#utility.yul\":41421:41422   */\n      0x00\n        /* \"#utility.yul\":41413:41419   */\n      dup3\n        /* \"#utility.yul\":41409:41423   */\n      add\n        /* \"#utility.yul\":41402:41460   */\n      mstore\n        /* \"#utility.yul\":41494:41502   */\n      0x6464726573730000000000000000000000000000000000000000000000000000\n        /* \"#utility.yul\":41489:41491   */\n      0x20\n        /* \"#utility.yul\":41481:41487   */\n      dup3\n        /* \"#utility.yul\":41477:41492   */\n      add\n        /* \"#utility.yul\":41470:41503   */\n      mstore\n        /* \"#utility.yul\":41285:41510   */\n      pop\n      jump\t// out\n        /* \"#utility.yul\":41516:41684   */\n    tag_727:\n        /* \"#utility.yul\":41656:41676   */\n      0x5468657265206973206e6f20766f74696e670000000000000000000000000000\n        /* \"#utility.yul\":41652:41653   */\n      0x00\n        /* \"#utility.yul\":41644:41650   */\n      dup3\n        /* \"#utility.yul\":41640:41654   */\n      add\n        /* \"#utility.yul\":41633:41677   */\n      mstore\n        /* \"#utility.yul\":41516:41684   */\n      pop\n      jump\t// out\n        /* \"#utility.yul\":41690:41925   */\n    tag_732:\n        /* \"#utility.yul\":41830:41864   */\n      0x50726f706f73616c20547970652063616e6e6f7420626520636c6f7365642061\n        /* \"#utility.yul\":41826:41827   */\n      0x00\n        /* \"#utility.yul\":41818:41824   */\n      dup3\n        /* \"#utility.yul\":41814:41828   */\n      add\n        /* \"#utility.yul\":41807:41865   */\n      mstore\n        /* \"#utility.yul\":41899:41917   */\n      0x7420696e697469616c2073746174652e00000000000000000000000000000000\n        /* \"#utility.yul\":41894:41896   */\n      0x20\n        /* \"#utility.yul\":41886:41892   */\n      dup3\n        /* \"#utility.yul\":41882:41897   */\n      add\n        /* \"#utility.yul\":41875:41918   */\n      mstore\n        /* \"#utility.yul\":41690:41925   */\n      pop\n      jump\t// out\n        /* \"#utility.yul\":41931:42151   */\n    tag_737:\n        /* \"#utility.yul\":42071:42105   */\n      0x596f7520617265206e6f7420746865204b6579486f6c646572436f6e74726163\n        /* \"#utility.yul\":42067:42068   */\n      0x00\n        /* \"#utility.yul\":42059:42065   */\n      dup3\n        /* \"#utility.yul\":42055:42069   */\n      add\n        /* \"#utility.yul\":42048:42106   */\n      mstore\n        /* \"#utility.yul\":42140:42143   */\n      0x7400000000000000000000000000000000000000000000000000000000000000\n        /* \"#utility.yul\":42135:42137   */\n      0x20\n        /* \"#utility.yul\":42127:42133   */\n      dup3\n        /* \"#utility.yul\":42123:42138   */\n      add\n        /* \"#utility.yul\":42116:42144   */\n      mstore\n        /* \"#utility.yul\":41931:42151   */\n      pop\n      jump\t// out\n        /* \"#utility.yul\":42157:42377   */\n    tag_742:\n        /* \"#utility.yul\":42297:42331   */\n      0x476976656e206164647265737320697320616c7265616479206120766f746572\n        /* \"#utility.yul\":42293:42294   */\n      0x00\n        /* \"#utility.yul\":42285:42291   */\n      dup3\n        /* \"#utility.yul\":42281:42295   */\n      add\n        /* \"#utility.yul\":42274:42332   */\n      mstore\n        /* \"#utility.yul\":42366:42369   */\n      0x2e00000000000000000000000000000000000000000000000000000000000000\n        /* \"#utility.yul\":42361:42363   */\n      0x20\n        /* \"#utility.yul\":42353:42359   */\n      dup3\n        /* \"#utility.yul\":42349:42364   */\n      add\n        /* \"#utility.yul\":42342:42370   */\n      mstore\n        /* \"#utility.yul\":42157:42377   */\n      pop\n      jump\t// out\n        /* \"#utility.yul\":42383:42565   */\n    tag_747:\n        /* \"#utility.yul\":42523:42557   */\n      0x4f776e61626c653a2063616c6c6572206973206e6f7420746865206f776e6572\n        /* \"#utility.yul\":42519:42520   */\n      0x00\n        /* \"#utility.yul\":42511:42517   */\n      dup3\n        /* \"#utility.yul\":42507:42521   */\n      add\n        /* \"#utility.yul\":42500:42558   */\n      mstore\n        /* \"#utility.yul\":42383:42565   */\n      pop\n      jump\t// out\n        /* \"#utility.yul\":42571:42741   */\n    tag_752:\n        /* \"#utility.yul\":42711:42733   */\n      0x5a65726f204164647265737320656e7465726564000000000000000000000000\n        /* \"#utility.yul\":42707:42708   */\n      0x00\n        /* \"#utility.yul\":42699:42705   */\n      dup3\n        /* \"#utility.yul\":42695:42709   */\n      add\n        /* \"#utility.yul\":42688:42734   */\n      mstore\n        /* \"#utility.yul\":42571:42741   */\n      pop\n      jump\t// out\n        /* \"#utility.yul\":42747:42918   */\n    tag_757:\n        /* \"#utility.yul\":42887:42910   */\n      0x596f75206861766520766f746564206265666f72650000000000000000000000\n        /* \"#utility.yul\":42883:42884   */\n      0x00\n        /* \"#utility.yul\":42875:42881   */\n      dup3\n        /* \"#utility.yul\":42871:42885   */\n      add\n        /* \"#utility.yul\":42864:42911   */\n      mstore\n        /* \"#utility.yul\":42747:42918   */\n      pop\n      jump\t// out\n        /* \"#utility.yul\":42924:43102   */\n    tag_762:\n        /* \"#utility.yul\":43064:43094   */\n      0x506c6561736520766f7465206265747765656e203120746f2031302e00000000\n        /* \"#utility.yul\":43060:43061   */\n      0x00\n        /* \"#utility.yul\":43052:43058   */\n      dup3\n        /* \"#utility.yul\":43048:43062   */\n      add\n        /* \"#utility.yul\":43041:43095   */\n      mstore\n        /* \"#utility.yul\":42924:43102   */\n      pop\n      jump\t// out\n        /* \"#utility.yul\":43108:43278   */\n    tag_767:\n        /* \"#utility.yul\":43248:43270   */\n      0x596f7520617265206e6f74206120766f74657272000000000000000000000000\n        /* \"#utility.yul\":43244:43245   */\n      0x00\n        /* \"#utility.yul\":43236:43242   */\n      dup3\n        /* \"#utility.yul\":43232:43246   */\n      add\n        /* \"#utility.yul\":43225:43271   */\n      mstore\n        /* \"#utility.yul\":43108:43278   */\n      pop\n      jump\t// out\n        /* \"#utility.yul\":43284:43521   */\n    tag_772:\n        /* \"#utility.yul\":43424:43458   */\n      0x566f74696e672063616e6e6f7420626520636c6f736564206265666f72652069\n        /* \"#utility.yul\":43420:43421   */\n      0x00\n        /* \"#utility.yul\":43412:43418   */\n      dup3\n        /* \"#utility.yul\":43408:43422   */\n      add\n        /* \"#utility.yul\":43401:43459   */\n      mstore\n        /* \"#utility.yul\":43493:43513   */\n      0x7427732064657369676e6174656420746f2e0000000000000000000000000000\n        /* \"#utility.yul\":43488:43490   */\n      0x20\n        /* \"#utility.yul\":43480:43486   */\n      dup3\n        /* \"#utility.yul\":43476:43491   */\n      add\n        /* \"#utility.yul\":43469:43514   */\n      mstore\n        /* \"#utility.yul\":43284:43521   */\n      pop\n      jump\t// out\n        /* \"#utility.yul\":43527:43646   */\n    tag_936:\n        /* \"#utility.yul\":43614:43615   */\n      0x03\n        /* \"#utility.yul\":43607:43612   */\n      dup2\n        /* \"#utility.yul\":43604:43616   */\n      lt\n        /* \"#utility.yul\":43594:43640   */\n      tag_992\n      jumpi\n        /* \"#utility.yul\":43620:43638   */\n      tag_993\n      tag_122\n      jump\t// in\n    tag_993:\n        /* \"#utility.yul\":43594:43640   */\n    tag_992:\n        /* \"#utility.yul\":43527:43646   */\n      pop\n      jump\t// out\n        /* \"#utility.yul\":43652:43774   */\n    tag_528:\n        /* \"#utility.yul\":43725:43749   */\n      tag_995\n        /* \"#utility.yul\":43743:43748   */\n      dup2\n        /* \"#utility.yul\":43725:43749   */\n      tag_617\n      jump\t// in\n    tag_995:\n        /* \"#utility.yul\":43718:43723   */\n      dup2\n        /* \"#utility.yul\":43715:43750   */\n      eq\n        /* \"#utility.yul\":43705:43768   */\n      tag_996\n      jumpi\n        /* \"#utility.yul\":43764:43765   */\n      0x00\n        /* \"#utility.yul\":43761:43762   */\n      dup1\n        /* \"#utility.yul\":43754:43766   */\n      revert\n        /* \"#utility.yul\":43705:43768   */\n    tag_996:\n        /* \"#utility.yul\":43652:43774   */\n      pop\n      jump\t// out\n        /* \"#utility.yul\":43780:43888   */\n    tag_538:\n        /* \"#utility.yul\":43862:43863   */\n      0x02\n        /* \"#utility.yul\":43855:43860   */\n      dup2\n        /* \"#utility.yul\":43852:43864   */\n      lt\n        /* \"#utility.yul\":43842:43882   */\n      tag_998\n      jumpi\n        /* \"#utility.yul\":43878:43879   */\n      0x00\n        /* \"#utility.yul\":43875:43876   */\n      dup1\n        /* \"#utility.yul\":43868:43880   */\n      revert\n        /* \"#utility.yul\":43842:43882   */\n    tag_998:\n        /* \"#utility.yul\":43780:43888   */\n      pop\n      jump\t// out\n        /* \"#utility.yul\":43894:44007   */\n    tag_542:\n        /* \"#utility.yul\":43981:43982   */\n      0x03\n        /* \"#utility.yul\":43974:43979   */\n      dup2\n        /* \"#utility.yul\":43971:43983   */\n      lt\n        /* \"#utility.yul\":43961:44001   */\n      tag_1000\n      jumpi\n        /* \"#utility.yul\":43997:43998   */\n      0x00\n        /* \"#utility.yul\":43994:43995   */\n      dup1\n        /* \"#utility.yul\":43987:43999   */\n      revert\n        /* \"#utility.yul\":43961:44001   */\n    tag_1000:\n        /* \"#utility.yul\":43894:44007   */\n      pop\n      jump\t// out\n        /* \"#utility.yul\":44013:44133   */\n    tag_554:\n        /* \"#utility.yul\":44085:44108   */\n      tag_1002\n        /* \"#utility.yul\":44102:44107   */\n      dup2\n        /* \"#utility.yul\":44085:44108   */\n      tag_798\n      jump\t// in\n    tag_1002:\n        /* \"#utility.yul\":44078:44083   */\n      dup2\n        /* \"#utility.yul\":44075:44109   */\n      eq\n        /* \"#utility.yul\":44065:44127   */\n      tag_1003\n      jumpi\n        /* \"#utility.yul\":44123:44124   */\n      0x00\n        /* \"#utility.yul\":44120:44121   */\n      dup1\n        /* \"#utility.yul\":44113:44125   */\n      revert\n        /* \"#utility.yul\":44065:44127   */\n    tag_1003:\n        /* \"#utility.yul\":44013:44133   */\n      pop\n      jump\t// out\n        /* \"#utility.yul\":44139:44257   */\n    tag_558:\n        /* \"#utility.yul\":44210:44232   */\n      tag_1005\n        /* \"#utility.yul\":44226:44231   */\n      dup2\n        /* \"#utility.yul\":44210:44232   */\n      tag_816\n      jump\t// in\n    tag_1005:\n        /* \"#utility.yul\":44203:44208   */\n      dup2\n        /* \"#utility.yul\":44200:44233   */\n      eq\n        /* \"#utility.yul\":44190:44251   */\n      tag_1006\n      jumpi\n        /* \"#utility.yul\":44247:44248   */\n      0x00\n        /* \"#utility.yul\":44244:44245   */\n      dup1\n        /* \"#utility.yul\":44237:44249   */\n      revert\n        /* \"#utility.yul\":44190:44251   */\n    tag_1006:\n        /* \"#utility.yul\":44139:44257   */\n      pop\n      jump\t// out\n\n    auxdata: 0xa264697066735822122034d5af64da92a253887f3f72885e7d5790853e3afd2c456db3e693357bf4023064736f6c63430008070033\n}\n",
				"bytecode": {
					"linkReferences": {},
					"object": "60806040526000600760006101000a81548161ffff021916908361ffff1602179055506000600760026101000a81548161ffff021916908361ffff1602179055506000600760046101000a81548161ffff021916908361ffff1602179055503480156200006b57600080fd5b506200008c620000806200009260201b60201c565b6200009a60201b60201c565b6200015e565b600033905090565b60008060009054906101000a900473ffffffffffffffffffffffffffffffffffffffff169050816000806101000a81548173ffffffffffffffffffffffffffffffffffffffff021916908373ffffffffffffffffffffffffffffffffffffffff1602179055508173ffffffffffffffffffffffffffffffffffffffff168173ffffffffffffffffffffffffffffffffffffffff167f8be0079c531659141344cd1fd0a4f28419497f9722a3daafe3b4186f6b6457e060405160405180910390a35050565b61503a806200016e6000396000f3fe608060405234801561001057600080fd5b506004361061014d5760003560e01c8063985224d6116100c3578063de513e3d1161007c578063de513e3d14610386578063ea31a64c146103a2578063f2fde38b146103be578063fae04215146103da578063fbb396511461040a578063fce96911146104285761014d565b8063985224d6146102925780639ea061c9146102c2578063bf2aba79146102de578063c497efa3146102fa578063cf5ebb3814610332578063ddd2d1fd1461034e5761014d565b806345e641d01161011557806345e641d0146101f6578063481aa215146102145780634d313bb8146102305780636f71e0651461024c578063715018a61461026a5780638da5cb5b146102745761014d565b806304f397cf14610152578063156c2da6146101705780631ffc50421461018c5780632dfca445146101a8578063393a97ef146101c6575b600080fd5b61015a610458565b604051610167919061441c565b60405180910390f35b61018a60048036038101906101859190613bcc565b6104ac565b005b6101a660048036038101906101a19190613b6c565b61063c565b005b6101b0610a64565b6040516101bd9190614657565b60405180910390f35b6101e060048036038101906101db9190613c39565b610a78565b6040516101ed91906143b6565b60405180910390f35b6101fe610fbc565b60405161020b919061439b565b60405180910390f35b61022e60048036038101906102299190613bf9565b610fe2565b005b61024a60048036038101906102459190613c79565b611471565b005b610254611854565b6040516102619190614657565b60405180910390f35b610272611868565b005b61027c61187c565b604051610289919061439b565b60405180910390f35b6102ac60048036038101906102a79190613b23565b6118a5565b6040516102b991906143fa565b60405180910390f35b6102dc60048036038101906102d79190613c79565b6119ce565b005b6102f860048036038101906102f39190613af6565b611db1565b005b610314600480360381019061030f9190613bcc565b611dfd565b60405161032999989796959493929190614672565b60405180910390f35b61034c60048036038101906103479190613bf9565b611f2e565b005b61036860048036038101906103639190613bcc565b6123bd565b60405161037d99989796959493929190614672565b60405180910390f35b6103a0600480360381019061039b9190613bcc565b6124ee565b005b6103bc60048036038101906103b79190613af6565b61267e565b005b6103d860048036038101906103d39190613af6565b6128a1565b005b6103f460048036038101906103ef9190613cb9565b612925565b60405161040191906143d8565b60405180910390f35b610412612e69565b60405161041f9190614657565b60405180910390f35b610442600480360381019061043d9190613b23565b612e7d565b60405161044f91906143fa565b60405180910390f35b6000600260003373ffffffffffffffffffffffffffffffffffffffff1673ffffffffffffffffffffffffffffffffffffffff16815260200190815260200160002060009054906101000a900460ff16905090565b80600060028111156104c1576104c0614b5d565b5b600460008361ffff1661ffff16815260200190815260200160002060060160009054906101000a900460ff1660028111156104ff576104fe614b5d565b5b1415610540576040517f08c379a000000000000000000000000000000000000000000000000000000000815260040161053790614517565b60405180910390fd5b33600260008273ffffffffffffffffffffffffffffffffffffffff1673ffffffffffffffffffffffffffffffffffffffff16815260200190815260200160002060009054906101000a900460ff166105cd576040517f08c379a00000000000000000000000000000000000000000000000000000000081526004016105c490614617565b60405180910390fd5b600460008461ffff1661ffff1681526020019081526020016000206004015443101561062e576040517f08c379a000000000000000000000000000000000000000000000000000000000815260040161062590614637565b60405180910390fd5b61063783612fa6565b505050565b81818080601f016020809104026020016040519081016040528093929190818152602001838380828437600081840152601f19601f82011690508083019250505050505050600081511161068f57600080fd5b33600260008273ffffffffffffffffffffffffffffffffffffffff1673ffffffffffffffffffffffffffffffffffffffff16815260200190815260200160002060009054906101000a900460ff1661071c576040517f08c379a000000000000000000000000000000000000000000000000000000000815260040161071390614617565b60405180910390fd5b600060028111156107305761072f614b5d565b5b85600281111561074357610742614b5d565b5b1415610784576040517f08c379a000000000000000000000000000000000000000000000000000000000815260040161077b90614537565b60405180910390fd5b600760029054906101000a900461ffff1660066000600760029054906101000a900461ffff1661ffff1661ffff16815260200190815260200160002060000160006101000a81548161ffff021916908361ffff160217905550838360066000600760029054906101000a900461ffff1661ffff1661ffff168152602001908152602001600020600101919061081a929190613761565b50600060066000600760029054906101000a900461ffff1661ffff1661ffff16815260200190815260200160002060020160006101000a81548163ffffffff021916908363ffffffff160217905550600060066000600760029054906101000a900461ffff1661ffff1661ffff16815260200190815260200160002060020160046101000a81548163ffffffff021916908363ffffffff1602179055503360066000600760029054906101000a900461ffff1661ffff1661ffff16815260200190815260200160002060020160086101000a81548173ffffffffffffffffffffffffffffffffffffffff021916908373ffffffffffffffffffffffffffffffffffffffff1602179055504360066000600760029054906101000a900461ffff1661ffff1661ffff16815260200190815260200160002060030181905550600160ff1643610967919061487c565b60066000600760029054906101000a900461ffff1661ffff1661ffff16815260200190815260200160002060040181905550600060066000600760029054906101000a900461ffff1661ffff1661ffff168152602001908152602001600020600501819055508460066000600760029054906101000a900461ffff1661ffff1661ffff16815260200190815260200160002060060160006101000a81548160ff02191690836002811115610a1e57610a1d614b5d565b5b02179055506001600760028282829054906101000a900461ffff16610a439190614844565b92506101000a81548161ffff021916908361ffff1602179055505050505050565b600760029054906101000a900461ffff1681565b606060008261ffff1611610a8b57600080fd5b60008261ffff1667ffffffffffffffff811115610aab57610aaa614bea565b5b604051908082528060200260200182016040528015610ae457816020015b610ad16137e7565b815260200190600190039081610ac95790505b5090506000600760029054906101000a900461ffff1690508061ffff168561ffff161115610b16578192505050610fb6565b8061ffff168486610b279190614844565b61ffff161115610d78576000600190505b8582610b449190614943565b61ffff168161ffff1611610d7257600660008284610b629190614943565b61ffff1661ffff168152602001908152602001600020604051806101200160405290816000820160009054906101000a900461ffff1661ffff1661ffff168152602001600182018054610bb490614a76565b80601f0160208091040260200160405190810160405280929190818152602001828054610be090614a76565b8015610c2d5780601f10610c0257610100808354040283529160200191610c2d565b820191906000526020600020905b815481529060010190602001808311610c1057829003601f168201915b505050505081526020016002820160009054906101000a900463ffffffff1663ffffffff1663ffffffff1681526020016002820160049054906101000a900463ffffffff1663ffffffff1663ffffffff1681526020016002820160089054906101000a900473ffffffffffffffffffffffffffffffffffffffff1673ffffffffffffffffffffffffffffffffffffffff1673ffffffffffffffffffffffffffffffffffffffff1681526020016003820154815260200160048201548152602001600582015481526020016006820160009054906101000a900460ff166002811115610d1b57610d1a614b5d565b5b6002811115610d2d57610d2c614b5d565b5b8152505083600183610d3f9190614943565b61ffff1681518110610d5457610d53614bbb565b5b60200260200101819052508080610d6a90614ad9565b915050610b38565b50610fb0565b6000600190505b8461ffff168161ffff1611610fae57600660008284610d9e9190614943565b61ffff1661ffff168152602001908152602001600020604051806101200160405290816000820160009054906101000a900461ffff1661ffff1661ffff168152602001600182018054610df090614a76565b80601f0160208091040260200160405190810160405280929190818152602001828054610e1c90614a76565b8015610e695780601f10610e3e57610100808354040283529160200191610e69565b820191906000526020600020905b815481529060010190602001808311610e4c57829003601f168201915b505050505081526020016002820160009054906101000a900463ffffffff1663ffffffff1663ffffffff1681526020016002820160049054906101000a900463ffffffff1663ffffffff1663ffffffff1681526020016002820160089054906101000a900473ffffffffffffffffffffffffffffffffffffffff1673ffffffffffffffffffffffffffffffffffffffff1673ffffffffffffffffffffffffffffffffffffffff1681526020016003820154815260200160048201548152602001600582015481526020016006820160009054906101000a900460ff166002811115610f5757610f56614b5d565b5b6002811115610f6957610f68614b5d565b5b8152505083600183610f7b9190614943565b61ffff1681518110610f9057610f8f614bbb565b5b60200260200101819052508080610fa690614ad9565b915050610d7f565b505b81925050505b92915050565b600160009054906101000a900473ffffffffffffffffffffffffffffffffffffffff1681565b8160006002811115610ff757610ff6614b5d565b5b600460008361ffff1661ffff16815260200190815260200160002060060160009054906101000a900460ff16600281111561103557611034614b5d565b5b1415611076576040517f08c379a000000000000000000000000000000000000000000000000000000000815260040161106d90614517565b60405180910390fd5b82600260003373ffffffffffffffffffffffffffffffffffffffff1673ffffffffffffffffffffffffffffffffffffffff16815260200190815260200160002060009054906101000a900460ff16611103576040517f08c379a00000000000000000000000000000000000000000000000000000000081526004016110fa906144b7565b60405180910390fd5b6000600360008361ffff1661ffff16815260200190815260200160002060003373ffffffffffffffffffffffffffffffffffffffff1673ffffffffffffffffffffffffffffffffffffffff16815260200190815260200160002060009054906101000a900460ff1660ff16146111ae576040517f08c379a00000000000000000000000000000000000000000000000000000000081526004016111a5906145d7565b60405180910390fd5b600160028111156111c2576111c1614b5d565b5b600460008661ffff1661ffff16815260200190815260200160002060060160009054906101000a900460ff166002811115611200576111ff614b5d565b5b14611240576040517f08c379a0000000000000000000000000000000000000000000000000000000008152600401611237906144d7565b60405180910390fd5b6000600181111561125457611253614b5d565b5b83600181111561126757611266614b5d565b5b1415611340576001600360008661ffff1661ffff16815260200190815260200160002060003373ffffffffffffffffffffffffffffffffffffffff1673ffffffffffffffffffffffffffffffffffffffff16815260200190815260200160002060006101000a81548160ff021916908360ff1602179055506001600460008661ffff1661ffff16815260200190815260200160002060020160048282829054906101000a900463ffffffff1661131d91906148d2565b92506101000a81548163ffffffff021916908363ffffffff16021790555061140f565b600a600360008661ffff1661ffff16815260200190815260200160002060003373ffffffffffffffffffffffffffffffffffffffff1673ffffffffffffffffffffffffffffffffffffffff16815260200190815260200160002060006101000a81548160ff021916908360ff160217905550600a600460008661ffff1661ffff16815260200190815260200160002060020160048282829054906101000a900463ffffffff166113f091906148d2565b92506101000a81548163ffffffff021916908363ffffffff1602179055505b6001600460008661ffff1661ffff16815260200190815260200160002060020160008282829054906101000a900463ffffffff1661144d91906148d2565b92506101000a81548163ffffffff021916908363ffffffff16021790555050505050565b816000600281111561148657611485614b5d565b5b600460008361ffff1661ffff16815260200190815260200160002060060160009054906101000a900460ff1660028111156114c4576114c3614b5d565b5b1415611505576040517f08c379a00000000000000000000000000000000000000000000000000000000081526004016114fc90614517565b60405180910390fd5b82600260003373ffffffffffffffffffffffffffffffffffffffff1673ffffffffffffffffffffffffffffffffffffffff16815260200190815260200160002060009054906101000a900460ff16611592576040517f08c379a0000000000000000000000000000000000000000000000000000000008152600401611589906144b7565b60405180910390fd5b6000600360008361ffff1661ffff16815260200190815260200160002060003373ffffffffffffffffffffffffffffffffffffffff1673ffffffffffffffffffffffffffffffffffffffff16815260200190815260200160002060009054906101000a900460ff1660ff161461163d576040517f08c379a0000000000000000000000000000000000000000000000000000000008152600401611634906145d7565b60405180910390fd5b60008360ff161180156116535750600b8360ff16105b611692576040517f08c379a0000000000000000000000000000000000000000000000000000000008152600401611689906145f7565b60405180910390fd5b6002808111156116a5576116a4614b5d565b5b600460008661ffff1661ffff16815260200190815260200160002060060160009054906101000a900460ff1660028111156116e3576116e2614b5d565b5b14611723576040517f08c379a000000000000000000000000000000000000000000000000000000000815260040161171a906144d7565b60405180910390fd5b82600360008661ffff1661ffff16815260200190815260200160002060003373ffffffffffffffffffffffffffffffffffffffff1673ffffffffffffffffffffffffffffffffffffffff16815260200190815260200160002060006101000a81548160ff021916908360ff1602179055508260ff16600460008661ffff1661ffff16815260200190815260200160002060020160048282829054906101000a900463ffffffff166117d491906148d2565b92506101000a81548163ffffffff021916908363ffffffff1602179055506001600460008661ffff1661ffff16815260200190815260200160002060020160008282829054906101000a900463ffffffff1661183091906148d2565b92506101000a81548163ffffffff021916908363ffffffff16021790555050505050565b600760049054906101000a900461ffff1681565b6118706130cc565b61187a600061314a565b565b60008060009054906101000a900473ffffffffffffffffffffffffffffffffffffffff16905090565b60606000825167ffffffffffffffff8111156118c4576118c3614bea565b5b6040519080825280602002602001820160405280156118f25781602001602082028036833780820191505090505b50905060005b83518160ff1610156119c45760056000858360ff168151811061191e5761191d614bbb565b5b602002602001015161ffff1661ffff16815260200190815260200160002060003373ffffffffffffffffffffffffffffffffffffffff1673ffffffffffffffffffffffffffffffffffffffff16815260200190815260200160002060009054906101000a900460ff16828260ff168151811061199d5761199c614bbb565b5b602002602001019060ff16908160ff168152505080806119bc90614b04565b9150506118f8565b5080915050919050565b81600060028111156119e3576119e2614b5d565b5b600660008361ffff1661ffff16815260200190815260200160002060060160009054906101000a900460ff166002811115611a2157611a20614b5d565b5b1415611a62576040517f08c379a0000000000000000000000000000000000000000000000000000000008152600401611a5990614517565b60405180910390fd5b82600260003373ffffffffffffffffffffffffffffffffffffffff1673ffffffffffffffffffffffffffffffffffffffff16815260200190815260200160002060009054906101000a900460ff16611aef576040517f08c379a0000000000000000000000000000000000000000000000000000000008152600401611ae6906144b7565b60405180910390fd5b6000600560008361ffff1661ffff16815260200190815260200160002060003373ffffffffffffffffffffffffffffffffffffffff1673ffffffffffffffffffffffffffffffffffffffff16815260200190815260200160002060009054906101000a900460ff1660ff1614611b9a576040517f08c379a0000000000000000000000000000000000000000000000000000000008152600401611b91906145d7565b60405180910390fd5b8260ff166000108015611bb05750600b8360ff16105b611bef576040517f08c379a0000000000000000000000000000000000000000000000000000000008152600401611be6906145f7565b60405180910390fd5b600280811115611c0257611c01614b5d565b5b600660008661ffff1661ffff16815260200190815260200160002060060160009054906101000a900460ff166002811115611c4057611c3f614b5d565b5b14611c80576040517f08c379a0000000000000000000000000000000000000000000000000000000008152600401611c77906144d7565b60405180910390fd5b82600560008661ffff1661ffff16815260200190815260200160002060003373ffffffffffffffffffffffffffffffffffffffff1673ffffffffffffffffffffffffffffffffffffffff16815260200190815260200160002060006101000a81548160ff021916908360ff1602179055508260ff16600660008661ffff1661ffff16815260200190815260200160002060020160048282829054906101000a900463ffffffff16611d3191906148d2565b92506101000a81548163ffffffff021916908363ffffffff1602179055506001600660008661ffff1661ffff16815260200190815260200160002060020160008282829054906101000a900463ffffffff16611d8d91906148d2565b92506101000a81548163ffffffff021916908363ffffffff16021790555050505050565b611db96130cc565b80600160006101000a81548173ffffffffffffffffffffffffffffffffffffffff021916908373ffffffffffffffffffffffffffffffffffffffff16021790555050565b60066020528060005260406000206000915090508060000160009054906101000a900461ffff1690806001018054611e3490614a76565b80601f0160208091040260200160405190810160405280929190818152602001828054611e6090614a76565b8015611ead5780601f10611e8257610100808354040283529160200191611ead565b820191906000526020600020905b815481529060010190602001808311611e9057829003601f168201915b5050505050908060020160009054906101000a900463ffffffff16908060020160049054906101000a900463ffffffff16908060020160089054906101000a900473ffffffffffffffffffffffffffffffffffffffff16908060030154908060040154908060050154908060060160009054906101000a900460ff16905089565b8160006002811115611f4357611f42614b5d565b5b600660008361ffff1661ffff16815260200190815260200160002060060160009054906101000a900460ff166002811115611f8157611f80614b5d565b5b1415611fc2576040517f08c379a0000000000000000000000000000000000000000000000000000000008152600401611fb990614517565b60405180910390fd5b82600260003373ffffffffffffffffffffffffffffffffffffffff1673ffffffffffffffffffffffffffffffffffffffff16815260200190815260200160002060009054906101000a900460ff1661204f576040517f08c379a0000000000000000000000000000000000000000000000000000000008152600401612046906144b7565b60405180910390fd5b6000600560008361ffff1661ffff16815260200190815260200160002060003373ffffffffffffffffffffffffffffffffffffffff1673ffffffffffffffffffffffffffffffffffffffff16815260200190815260200160002060009054906101000a900460ff1660ff16146120fa576040517f08c379a00000000000000000000000000000000000000000000000000000000081526004016120f1906145d7565b60405180910390fd5b6001600281111561210e5761210d614b5d565b5b600660008661ffff1661ffff16815260200190815260200160002060060160009054906101000a900460ff16600281111561214c5761214b614b5d565b5b1461218c576040517f08c379a0000000000000000000000000000000000000000000000000000000008152600401612183906144d7565b60405180910390fd5b600060018111156121a05761219f614b5d565b5b8360018111156121b3576121b2614b5d565b5b141561228c576001600560008661ffff1661ffff16815260200190815260200160002060003373ffffffffffffffffffffffffffffffffffffffff1673ffffffffffffffffffffffffffffffffffffffff16815260200190815260200160002060006101000a81548160ff021916908360ff1602179055506001600660008661ffff1661ffff16815260200190815260200160002060020160048282829054906101000a900463ffffffff1661226991906148d2565b92506101000a81548163ffffffff021916908363ffffffff16021790555061235b565b600a600560008661ffff1661ffff16815260200190815260200160002060003373ffffffffffffffffffffffffffffffffffffffff1673ffffffffffffffffffffffffffffffffffffffff16815260200190815260200160002060006101000a81548160ff021916908360ff160217905550600a600660008661ffff1661ffff16815260200190815260200160002060020160048282829054906101000a900463ffffffff1661233c91906148d2565b92506101000a81548163ffffffff021916908363ffffffff1602179055505b6001600660008661ffff1661ffff16815260200190815260200160002060020160008282829054906101000a900463ffffffff1661239991906148d2565b92506101000a81548163ffffffff021916908363ffffffff16021790555050505050565b60046020528060005260406000206000915090508060000160009054906101000a900461ffff16908060010180546123f490614a76565b80601f016020809104026020016040519081016040528092919081815260200182805461242090614a76565b801561246d5780601f106124425761010080835404028352916020019161246d565b820191906000526020600020905b81548152906001019060200180831161245057829003601f168201915b5050505050908060020160009054906101000a900463ffffffff16908060020160049054906101000a900463ffffffff16908060020160089054906101000a900473ffffffffffffffffffffffffffffffffffffffff16908060030154908060040154908060050154908060060160009054906101000a900460ff16905089565b806000600281111561250357612502614b5d565b5b600660008361ffff1661ffff16815260200190815260200160002060060160009054906101000a900460ff16600281111561254157612540614b5d565b5b1415612582576040517f08c379a000000000000000000000000000000000000000000000000000000000815260040161257990614517565b60405180910390fd5b33600260008273ffffffffffffffffffffffffffffffffffffffff1673ffffffffffffffffffffffffffffffffffffffff16815260200190815260200160002060009054906101000a900460ff1661260f576040517f08c379a000000000000000000000000000000000000000000000000000000000815260040161260690614617565b60405180910390fd5b600660008461ffff1661ffff16815260200190815260200160002060040154431015612670576040517f08c379a000000000000000000000000000000000000000000000000000000000815260040161266790614637565b60405180910390fd5b6126798361320e565b505050565b600160009054906101000a900473ffffffffffffffffffffffffffffffffffffffff1673ffffffffffffffffffffffffffffffffffffffff163373ffffffffffffffffffffffffffffffffffffffff161461270e576040517f08c379a000000000000000000000000000000000000000000000000000000000815260040161270590614557565b60405180910390fd5b80600073ffffffffffffffffffffffffffffffffffffffff168173ffffffffffffffffffffffffffffffffffffffff16141561277f576040517f08c379a0000000000000000000000000000000000000000000000000000000008152600401612776906145b7565b60405180910390fd5b600260008373ffffffffffffffffffffffffffffffffffffffff1673ffffffffffffffffffffffffffffffffffffffff16815260200190815260200160002060009054906101000a900460ff161561280c576040517f08c379a000000000000000000000000000000000000000000000000000000000815260040161280390614577565b60405180910390fd5b6001600760049054906101000a900461ffff166128299190614844565b600760046101000a81548161ffff021916908361ffff1602179055506001600260008473ffffffffffffffffffffffffffffffffffffffff1673ffffffffffffffffffffffffffffffffffffffff16815260200190815260200160002060006101000a81548160ff0219169083151502179055505050565b6128a96130cc565b600073ffffffffffffffffffffffffffffffffffffffff168173ffffffffffffffffffffffffffffffffffffffff161415612919576040517f08c379a0000000000000000000000000000000000000000000000000000000008152600401612910906144f7565b60405180910390fd5b6129228161314a565b50565b606060008260ff161161293757600080fd5b60008260ff1667ffffffffffffffff81111561295657612955614bea565b5b60405190808252806020026020018201604052801561298f57816020015b61297c61386b565b8152602001906001900390816129745790505b5090506000600760009054906101000a900461ffff1690508061ffff168560ff1611156129c0578192505050612e63565b8061ffff1684866129d1919061490c565b60ff161115612c25576000600190505b8560ff16826129f09190614943565b61ffff168160ff1611612c1f57600460008260ff1684612a109190614943565b61ffff1661ffff168152602001908152602001600020604051806101200160405290816000820160009054906101000a900461ffff1661ffff1661ffff168152602001600182018054612a6290614a76565b80601f0160208091040260200160405190810160405280929190818152602001828054612a8e90614a76565b8015612adb5780601f10612ab057610100808354040283529160200191612adb565b820191906000526020600020905b815481529060010190602001808311612abe57829003601f168201915b505050505081526020016002820160009054906101000a900463ffffffff1663ffffffff1663ffffffff1681526020016002820160049054906101000a900463ffffffff1663ffffffff1663ffffffff1681526020016002820160089054906101000a900473ffffffffffffffffffffffffffffffffffffffff1673ffffffffffffffffffffffffffffffffffffffff1673ffffffffffffffffffffffffffffffffffffffff1681526020016003820154815260200160048201548152602001600582015481526020016006820160009054906101000a900460ff166002811115612bc957612bc8614b5d565b5b6002811115612bdb57612bda614b5d565b5b8152505083600183612bed9190614977565b60ff1681518110612c0157612c00614bbb565b5b60200260200101819052508080612c1790614b04565b9150506129e1565b50612e5d565b6000600190505b8460ff168160ff1611612e5b57600460008260ff1684612c4c9190614943565b61ffff1661ffff168152602001908152602001600020604051806101200160405290816000820160009054906101000a900461ffff1661ffff1661ffff168152602001600182018054612c9e90614a76565b80601f0160208091040260200160405190810160405280929190818152602001828054612cca90614a76565b8015612d175780601f10612cec57610100808354040283529160200191612d17565b820191906000526020600020905b815481529060010190602001808311612cfa57829003601f168201915b505050505081526020016002820160009054906101000a900463ffffffff1663ffffffff1663ffffffff1681526020016002820160049054906101000a900463ffffffff1663ffffffff1663ffffffff1681526020016002820160089054906101000a900473ffffffffffffffffffffffffffffffffffffffff1673ffffffffffffffffffffffffffffffffffffffff1673ffffffffffffffffffffffffffffffffffffffff1681526020016003820154815260200160048201548152602001600582015481526020016006820160009054906101000a900460ff166002811115612e0557612e04614b5d565b5b6002811115612e1757612e16614b5d565b5b8152505083600183612e299190614977565b60ff1681518110612e3d57612e3c614bbb565b5b60200260200101819052508080612e5390614b04565b915050612c2c565b505b81925050505b92915050565b600760009054906101000a900461ffff1681565b60606000825167ffffffffffffffff811115612e9c57612e9b614bea565b5b604051908082528060200260200182016040528015612eca5781602001602082028036833780820191505090505b50905060005b83518160ff161015612f9c5760036000858360ff1681518110612ef657612ef5614bbb565b5b602002602001015161ffff1661ffff16815260200190815260200160002060003373ffffffffffffffffffffffffffffffffffffffff1673ffffffffffffffffffffffffffffffffffffffff16815260200190815260200160002060009054906101000a900460ff16828260ff1681518110612f7557612f74614bbb565b5b602002602001019060ff16908160ff16815250508080612f9490614b04565b915050612ed0565b5080915050919050565b6000600460008361ffff1661ffff16815260200190815260200160002060060160006101000a81548160ff02191690836002811115612fe857612fe7614b5d565b5b021790555043600460008361ffff1661ffff168152602001908152602001600020600501819055508061ffff167f74067fe4d5e2e892aba66fd751ee80c00aadda7333e763e9084815a0c29f6ebe600460008461ffff1661ffff168152602001908152602001600020600101600460008561ffff1661ffff16815260200190815260200160002060020160009054906101000a900463ffffffff16600460008661ffff1661ffff16815260200190815260200160002060020160049054906101000a900463ffffffff166040516130c193929190614459565b60405180910390a250565b6130d461336f565b73ffffffffffffffffffffffffffffffffffffffff166130f261187c565b73ffffffffffffffffffffffffffffffffffffffff1614613148576040517f08c379a000000000000000000000000000000000000000000000000000000000815260040161313f90614597565b60405180910390fd5b565b60008060009054906101000a900473ffffffffffffffffffffffffffffffffffffffff169050816000806101000a81548173ffffffffffffffffffffffffffffffffffffffff021916908373ffffffffffffffffffffffffffffffffffffffff1602179055508173ffffffffffffffffffffffffffffffffffffffff168173ffffffffffffffffffffffffffffffffffffffff167f8be0079c531659141344cd1fd0a4f28419497f9722a3daafe3b4186f6b6457e060405160405180910390a35050565b6000600660008361ffff1661ffff16815260200190815260200160002060060160009054906101000a900460ff1690506000600660008461ffff1661ffff16815260200190815260200160002060060160006101000a81548160ff021916908360028111156132805761327f614b5d565b5b021790555043600660008461ffff1661ffff168152602001908152602001600020600501819055506132b28282613377565b8161ffff167f5b96817333b28a477ad5fc2de22e1cb6bc0709c42895ac3180b16a8f8f04956d600660008561ffff1661ffff168152602001908152602001600020600101600660008661ffff1661ffff16815260200190815260200160002060020160009054906101000a900463ffffffff16600660008761ffff1661ffff16815260200190815260200160002060020160049054906101000a900463ffffffff1660405161336393929190614459565b60405180910390a25050565b600033905090565b6000600281111561338b5761338a614b5d565b5b81600281111561339e5761339d614b5d565b5b14156133df576040517f08c379a00000000000000000000000000000000000000000000000000000000081526004016133d690614497565b60405180910390fd5b600760009054906101000a900461ffff1660046000600760009054906101000a900461ffff1661ffff1661ffff16815260200190815260200160002060000160006101000a81548161ffff021916908361ffff160217905550600660008361ffff1661ffff16815260200190815260200160002060020160089054906101000a900473ffffffffffffffffffffffffffffffffffffffff1660046000600760009054906101000a900461ffff1661ffff1661ffff16815260200190815260200160002060020160086101000a81548173ffffffffffffffffffffffffffffffffffffffff021916908373ffffffffffffffffffffffffffffffffffffffff160217905550600660008361ffff1661ffff16815260200190815260200160002060010160046000600760009054906101000a900461ffff1661ffff1661ffff16815260200190815260200160002060010190805461353b90614a76565b6135469291906138ef565b504360046000600760009054906101000a900461ffff1661ffff1661ffff16815260200190815260200160002060030181905550600160ff164361358a919061487c565b60046000600760009054906101000a900461ffff1661ffff1661ffff16815260200190815260200160002060040181905550600060046000600760009054906101000a900461ffff1661ffff1661ffff16815260200190815260200160002060020160046101000a81548163ffffffff021916908363ffffffff160217905550600060046000600760009054906101000a900461ffff1661ffff1661ffff16815260200190815260200160002060020160006101000a81548163ffffffff021916908363ffffffff1602179055508060046000600760009054906101000a900461ffff1661ffff1661ffff16815260200190815260200160002060060160006101000a81548160ff021916908360028111156136a9576136a8614b5d565b5b02179055506001600760008282829054906101000a900461ffff166136ce9190614844565b92506101000a81548161ffff021916908361ffff1602179055506001600760009054906101000a900461ffff166137059190614943565b61ffff167f673c7227a10fc9c3b48d83ed5a3adbaf2bec2ceff9d15cf30c98816a3a16859e600660008561ffff1661ffff1681526020019081526020016000206001016040516137559190614437565b60405180910390a25050565b82805461376d90614a76565b90600052602060002090601f01602090048101928261378f57600085556137d6565b82601f106137a857803560ff19168380011785556137d6565b828001600101855582156137d6579182015b828111156137d55782358255916020019190600101906137ba565b5b5090506137e3919061397c565b5090565b604051806101200160405280600061ffff16815260200160608152602001600063ffffffff168152602001600063ffffffff168152602001600073ffffffffffffffffffffffffffffffffffffffff1681526020016000815260200160008152602001600081526020016000600281111561386557613864614b5d565b5b81525090565b604051806101200160405280600061ffff16815260200160608152602001600063ffffffff168152602001600063ffffffff168152602001600073ffffffffffffffffffffffffffffffffffffffff168152602001600081526020016000815260200160008152602001600060028111156138e9576138e8614b5d565b5b81525090565b8280546138fb90614a76565b90600052602060002090601f01602090048101928261391d576000855561396b565b82601f1061392e578054855561396b565b8280016001018555821561396b57600052602060002091601f016020900482015b8281111561396a57825482559160010191906001019061394f565b5b509050613978919061397c565b5090565b5b8082111561399557600081600090555060010161397d565b5090565b60006139ac6139a78461472b565b614706565b905080838252602082019050828560208602820111156139cf576139ce614c23565b5b60005b858110156139ff57816139e58882613acc565b8452602084019350602083019250506001810190506139d2565b5050509392505050565b600081359050613a1881614f9f565b92915050565b600082601f830112613a3357613a32614c1e565b5b8135613a43848260208601613999565b91505092915050565b600081359050613a5b81614fb6565b92915050565b600081359050613a7081614fc6565b92915050565b60008083601f840112613a8c57613a8b614c1e565b5b8235905067ffffffffffffffff811115613aa957613aa8614c19565b5b602083019150836001820283011115613ac557613ac4614c23565b5b9250929050565b600081359050613adb81614fd6565b92915050565b600081359050613af081614fed565b92915050565b600060208284031215613b0c57613b0b614c2d565b5b6000613b1a84828501613a09565b91505092915050565b600060208284031215613b3957613b38614c2d565b5b600082013567ffffffffffffffff811115613b5757613b56614c28565b5b613b6384828501613a1e565b91505092915050565b600080600060408486031215613b8557613b84614c2d565b5b6000613b9386828701613a61565b935050602084013567ffffffffffffffff811115613bb457613bb3614c28565b5b613bc086828701613a76565b92509250509250925092565b600060208284031215613be257613be1614c2d565b5b6000613bf084828501613acc565b91505092915050565b60008060408385031215613c1057613c0f614c2d565b5b6000613c1e85828601613acc565b9250506020613c2f85828601613a4c565b9150509250929050565b60008060408385031215613c5057613c4f614c2d565b5b6000613c5e85828601613acc565b9250506020613c6f85828601613acc565b9150509250929050565b60008060408385031215613c9057613c8f614c2d565b5b6000613c9e85828601613acc565b9250506020613caf85828601613ae1565b9150509250929050565b60008060408385031215613cd057613ccf614c2d565b5b6000613cde85828601613ae1565b9250506020613cef85828601613ae1565b9150509250929050565b6000613d0583836141a8565b905092915050565b6000613d19838361426d565b905092915050565b6000613d2d838361438c565b60208301905092915050565b613d42816149ab565b82525050565b613d51816149ab565b82525050565b6000613d628261479c565b613d6c81856147ef565b935083602082028501613d7e85614757565b8060005b85811015613dba5784840389528151613d9b8582613cf9565b9450613da6836147c8565b925060208a01995050600181019050613d82565b50829750879550505050505092915050565b6000613dd7826147a7565b613de18185614800565b935083602082028501613df385614767565b8060005b85811015613e2f5784840389528151613e108582613d0d565b9450613e1b836147d5565b925060208a01995050600181019050613df7565b50829750879550505050505092915050565b6000613e4c826147b2565b613e568185614811565b9350613e6183614777565b8060005b83811015613e92578151613e798882613d21565b9750613e84836147e2565b925050600181019050613e65565b5085935050505092915050565b613ea8816149bd565b82525050565b613eb781614a31565b82525050565b613ec681614a31565b82525050565b6000613ed7826147bd565b613ee18185614822565b9350613ef1818560208601614a43565b613efa81614c32565b840191505092915050565b6000613f10826147bd565b613f1a8185614833565b9350613f2a818560208601614a43565b613f3381614c32565b840191505092915050565b60008154613f4b81614a76565b613f558186614833565b94506001821660008114613f705760018114613f8257613fb5565b60ff1983168652602086019350613fb5565b613f8b85614787565b60005b83811015613fad57815481890152600182019150602081019050613f8e565b808801955050505b50505092915050565b6000613fcb602e83614833565b9150613fd682614c43565b604082019050919050565b6000613fee601383614833565b9150613ff982614c92565b602082019050919050565b6000614011602d83614833565b915061401c82614cbb565b604082019050919050565b6000614034602683614833565b915061403f82614d0a565b604082019050919050565b6000614057601283614833565b915061406282614d59565b602082019050919050565b600061407a603083614833565b915061408582614d82565b604082019050919050565b600061409d602183614833565b91506140a882614dd1565b604082019050919050565b60006140c0602183614833565b91506140cb82614e20565b604082019050919050565b60006140e3602083614833565b91506140ee82614e6f565b602082019050919050565b6000614106601483614833565b915061411182614e98565b602082019050919050565b6000614129601583614833565b915061413482614ec1565b602082019050919050565b600061414c601c83614833565b915061415782614eea565b602082019050919050565b600061416f601483614833565b915061417a82614f13565b602082019050919050565b6000614192603283614833565b915061419d82614f3c565b604082019050919050565b6000610120830160008301516141c16000860182614332565b50602083015184820360208601526141d98282613ecc565b91505060408301516141ee604086018261436e565b506060830151614201606086018261436e565b5060808301516142146080860182613d39565b5060a083015161422760a0860182614350565b5060c083015161423a60c0860182614350565b5060e083015161424d60e0860182614350565b50610100830151614262610100860182613eae565b508091505092915050565b6000610120830160008301516142866000860182614332565b506020830151848203602086015261429e8282613ecc565b91505060408301516142b3604086018261436e565b5060608301516142c6606086018261436e565b5060808301516142d96080860182613d39565b5060a08301516142ec60a0860182614350565b5060c08301516142ff60c0860182614350565b5060e083015161431260e0860182614350565b50610100830151614327610100860182613eae565b508091505092915050565b61433b816149dc565b82525050565b61434a816149dc565b82525050565b61435981614a0a565b82525050565b61436881614a0a565b82525050565b61437781614a14565b82525050565b61438681614a14565b82525050565b61439581614a24565b82525050565b60006020820190506143b06000830184613d48565b92915050565b600060208201905081810360008301526143d08184613d57565b905092915050565b600060208201905081810360008301526143f28184613dcc565b905092915050565b600060208201905081810360008301526144148184613e41565b905092915050565b60006020820190506144316000830184613e9f565b92915050565b600060208201905081810360008301526144518184613f3e565b905092915050565b600060608201905081810360008301526144738186613f3e565b9050614482602083018561437d565b61448f604083018461437d565b949350505050565b600060208201905081810360008301526144b081613fbe565b9050919050565b600060208201905081810360008301526144d081613fe1565b9050919050565b600060208201905081810360008301526144f081614004565b9050919050565b6000602082019050818103600083015261451081614027565b9050919050565b600060208201905081810360008301526145308161404a565b9050919050565b600060208201905081810360008301526145508161406d565b9050919050565b6000602082019050818103600083015261457081614090565b9050919050565b60006020820190508181036000830152614590816140b3565b9050919050565b600060208201905081810360008301526145b0816140d6565b9050919050565b600060208201905081810360008301526145d0816140f9565b9050919050565b600060208201905081810360008301526145f08161411c565b9050919050565b600060208201905081810360008301526146108161413f565b9050919050565b6000602082019050818103600083015261463081614162565b9050919050565b6000602082019050818103600083015261465081614185565b9050919050565b600060208201905061466c6000830184614341565b92915050565b600061012082019050614688600083018c614341565b818103602083015261469a818b613f05565b90506146a9604083018a61437d565b6146b6606083018961437d565b6146c36080830188613d48565b6146d060a083018761435f565b6146dd60c083018661435f565b6146ea60e083018561435f565b6146f8610100830184613ebd565b9a9950505050505050505050565b6000614710614721565b905061471c8282614aa8565b919050565b6000604051905090565b600067ffffffffffffffff82111561474657614745614bea565b5b602082029050602081019050919050565b6000819050602082019050919050565b6000819050602082019050919050565b6000819050602082019050919050565b60008190508160005260206000209050919050565b600081519050919050565b600081519050919050565b600081519050919050565b600081519050919050565b6000602082019050919050565b6000602082019050919050565b6000602082019050919050565b600082825260208201905092915050565b600082825260208201905092915050565b600082825260208201905092915050565b600082825260208201905092915050565b600082825260208201905092915050565b600061484f826149dc565b915061485a836149dc565b92508261ffff0382111561487157614870614b2e565b5b828201905092915050565b600061488782614a0a565b915061489283614a0a565b9250827fffffffffffffffffffffffffffffffffffffffffffffffffffffffffffffffff038211156148c7576148c6614b2e565b5b828201905092915050565b60006148dd82614a14565b91506148e883614a14565b92508263ffffffff0382111561490157614900614b2e565b5b828201905092915050565b600061491782614a24565b915061492283614a24565b92508260ff0382111561493857614937614b2e565b5b828201905092915050565b600061494e826149dc565b9150614959836149dc565b92508282101561496c5761496b614b2e565b5b828203905092915050565b600061498282614a24565b915061498d83614a24565b9250828210156149a05761499f614b2e565b5b828203905092915050565b60006149b6826149ea565b9050919050565b60008115159050919050565b60008190506149d782614f8b565b919050565b600061ffff82169050919050565b600073ffffffffffffffffffffffffffffffffffffffff82169050919050565b6000819050919050565b600063ffffffff82169050919050565b600060ff82169050919050565b6000614a3c826149c9565b9050919050565b60005b83811015614a61578082015181840152602081019050614a46565b83811115614a70576000848401525b50505050565b60006002820490506001821680614a8e57607f821691505b60208210811415614aa257614aa1614b8c565b5b50919050565b614ab182614c32565b810181811067ffffffffffffffff82111715614ad057614acf614bea565b5b80604052505050565b6000614ae4826149dc565b915061ffff821415614af957614af8614b2e565b5b600182019050919050565b6000614b0f82614a24565b915060ff821415614b2357614b22614b2e565b5b600182019050919050565b7f4e487b7100000000000000000000000000000000000000000000000000000000600052601160045260246000fd5b7f4e487b7100000000000000000000000000000000000000000000000000000000600052602160045260246000fd5b7f4e487b7100000000000000000000000000000000000000000000000000000000600052602260045260246000fd5b7f4e487b7100000000000000000000000000000000000000000000000000000000600052603260045260246000fd5b7f4e487b7100000000000000000000000000000000000000000000000000000000600052604160045260246000fd5b600080fd5b600080fd5b600080fd5b600080fd5b600080fd5b6000601f19601f8301169050919050565b7f566f74696e6720547970652063616e6e6f7420626520636c6f7365642061742060008201527f696e697469616c2073746174652e000000000000000000000000000000000000602082015250565b7f596f7520617265206e6f74206120766f74657200000000000000000000000000600082015250565b7f43757272656e746c7920776520617265206e6f7420766f74696e67206f6e207460008201527f6869732066756e6374696f6e2e00000000000000000000000000000000000000602082015250565b7f4f776e61626c653a206e6577206f776e657220697320746865207a65726f206160008201527f6464726573730000000000000000000000000000000000000000000000000000602082015250565b7f5468657265206973206e6f20766f74696e670000000000000000000000000000600082015250565b7f50726f706f73616c20547970652063616e6e6f7420626520636c6f736564206160008201527f7420696e697469616c2073746174652e00000000000000000000000000000000602082015250565b7f596f7520617265206e6f7420746865204b6579486f6c646572436f6e7472616360008201527f7400000000000000000000000000000000000000000000000000000000000000602082015250565b7f476976656e206164647265737320697320616c7265616479206120766f74657260008201527f2e00000000000000000000000000000000000000000000000000000000000000602082015250565b7f4f776e61626c653a2063616c6c6572206973206e6f7420746865206f776e6572600082015250565b7f5a65726f204164647265737320656e7465726564000000000000000000000000600082015250565b7f596f75206861766520766f746564206265666f72650000000000000000000000600082015250565b7f506c6561736520766f7465206265747765656e203120746f2031302e00000000600082015250565b7f596f7520617265206e6f74206120766f74657272000000000000000000000000600082015250565b7f566f74696e672063616e6e6f7420626520636c6f736564206265666f7265206960008201527f7427732064657369676e6174656420746f2e0000000000000000000000000000602082015250565b60038110614f9c57614f9b614b5d565b5b50565b614fa8816149ab565b8114614fb357600080fd5b50565b60028110614fc357600080fd5b50565b60038110614fd357600080fd5b50565b614fdf816149dc565b8114614fea57600080fd5b50565b614ff681614a24565b811461500157600080fd5b5056fea264697066735822122034d5af64da92a253887f3f72885e7d5790853e3afd2c456db3e693357bf4023064736f6c63430008070033",
					"opcodes": "PUSH1 0x80 PUSH1 0x40 MSTORE PUSH1 0x0 PUSH1 0x7 PUSH1 0x0 PUSH2 0x100 EXP DUP2 SLOAD DUP2 PUSH2 0xFFFF MUL NOT AND SWAP1 DUP4 PUSH2 0xFFFF AND MUL OR SWAP1 SSTORE POP PUSH1 0x0 PUSH1 0x7 PUSH1 0x2 PUSH2 0x100 EXP DUP2 SLOAD DUP2 PUSH2 0xFFFF MUL NOT AND SWAP1 DUP4 PUSH2 0xFFFF AND MUL OR SWAP1 SSTORE POP PUSH1 0x0 PUSH1 0x7 PUSH1 0x4 PUSH2 0x100 EXP DUP2 SLOAD DUP2 PUSH2 0xFFFF MUL NOT AND SWAP1 DUP4 PUSH2 0xFFFF AND MUL OR SWAP1 SSTORE POP CALLVALUE DUP1 ISZERO PUSH3 0x6B JUMPI PUSH1 0x0 DUP1 REVERT JUMPDEST POP PUSH3 0x8C PUSH3 0x80 PUSH3 0x92 PUSH1 0x20 SHL PUSH1 0x20 SHR JUMP JUMPDEST PUSH3 0x9A PUSH1 0x20 SHL PUSH1 0x20 SHR JUMP JUMPDEST PUSH3 0x15E JUMP JUMPDEST PUSH1 0x0 CALLER SWAP1 POP SWAP1 JUMP JUMPDEST PUSH1 0x0 DUP1 PUSH1 0x0 SWAP1 SLOAD SWAP1 PUSH2 0x100 EXP SWAP1 DIV PUSH20 0xFFFFFFFFFFFFFFFFFFFFFFFFFFFFFFFFFFFFFFFF AND SWAP1 POP DUP2 PUSH1 0x0 DUP1 PUSH2 0x100 EXP DUP2 SLOAD DUP2 PUSH20 0xFFFFFFFFFFFFFFFFFFFFFFFFFFFFFFFFFFFFFFFF MUL NOT AND SWAP1 DUP4 PUSH20 0xFFFFFFFFFFFFFFFFFFFFFFFFFFFFFFFFFFFFFFFF AND MUL OR SWAP1 SSTORE POP DUP2 PUSH20 0xFFFFFFFFFFFFFFFFFFFFFFFFFFFFFFFFFFFFFFFF AND DUP2 PUSH20 0xFFFFFFFFFFFFFFFFFFFFFFFFFFFFFFFFFFFFFFFF AND PUSH32 0x8BE0079C531659141344CD1FD0A4F28419497F9722A3DAAFE3B4186F6B6457E0 PUSH1 0x40 MLOAD PUSH1 0x40 MLOAD DUP1 SWAP2 SUB SWAP1 LOG3 POP POP JUMP JUMPDEST PUSH2 0x503A DUP1 PUSH3 0x16E PUSH1 0x0 CODECOPY PUSH1 0x0 RETURN INVALID PUSH1 0x80 PUSH1 0x40 MSTORE CALLVALUE DUP1 ISZERO PUSH2 0x10 JUMPI PUSH1 0x0 DUP1 REVERT JUMPDEST POP PUSH1 0x4 CALLDATASIZE LT PUSH2 0x14D JUMPI PUSH1 0x0 CALLDATALOAD PUSH1 0xE0 SHR DUP1 PUSH4 0x985224D6 GT PUSH2 0xC3 JUMPI DUP1 PUSH4 0xDE513E3D GT PUSH2 0x7C JUMPI DUP1 PUSH4 0xDE513E3D EQ PUSH2 0x386 JUMPI DUP1 PUSH4 0xEA31A64C EQ PUSH2 0x3A2 JUMPI DUP1 PUSH4 0xF2FDE38B EQ PUSH2 0x3BE JUMPI DUP1 PUSH4 0xFAE04215 EQ PUSH2 0x3DA JUMPI DUP1 PUSH4 0xFBB39651 EQ PUSH2 0x40A JUMPI DUP1 PUSH4 0xFCE96911 EQ PUSH2 0x428 JUMPI PUSH2 0x14D JUMP JUMPDEST DUP1 PUSH4 0x985224D6 EQ PUSH2 0x292 JUMPI DUP1 PUSH4 0x9EA061C9 EQ PUSH2 0x2C2 JUMPI DUP1 PUSH4 0xBF2ABA79 EQ PUSH2 0x2DE JUMPI DUP1 PUSH4 0xC497EFA3 EQ PUSH2 0x2FA JUMPI DUP1 PUSH4 0xCF5EBB38 EQ PUSH2 0x332 JUMPI DUP1 PUSH4 0xDDD2D1FD EQ PUSH2 0x34E JUMPI PUSH2 0x14D JUMP JUMPDEST DUP1 PUSH4 0x45E641D0 GT PUSH2 0x115 JUMPI DUP1 PUSH4 0x45E641D0 EQ PUSH2 0x1F6 JUMPI DUP1 PUSH4 0x481AA215 EQ PUSH2 0x214 JUMPI DUP1 PUSH4 0x4D313BB8 EQ PUSH2 0x230 JUMPI DUP1 PUSH4 0x6F71E065 EQ PUSH2 0x24C JUMPI DUP1 PUSH4 0x715018A6 EQ PUSH2 0x26A JUMPI DUP1 PUSH4 0x8DA5CB5B EQ PUSH2 0x274 JUMPI PUSH2 0x14D JUMP JUMPDEST DUP1 PUSH4 0x4F397CF EQ PUSH2 0x152 JUMPI DUP1 PUSH4 0x156C2DA6 EQ PUSH2 0x170 JUMPI DUP1 PUSH4 0x1FFC5042 EQ PUSH2 0x18C JUMPI DUP1 PUSH4 0x2DFCA445 EQ PUSH2 0x1A8 JUMPI DUP1 PUSH4 0x393A97EF EQ PUSH2 0x1C6 JUMPI JUMPDEST PUSH1 0x0 DUP1 REVERT JUMPDEST PUSH2 0x15A PUSH2 0x458 JUMP JUMPDEST PUSH1 0x40 MLOAD PUSH2 0x167 SWAP2 SWAP1 PUSH2 0x441C JUMP JUMPDEST PUSH1 0x40 MLOAD DUP1 SWAP2 SUB SWAP1 RETURN JUMPDEST PUSH2 0x18A PUSH1 0x4 DUP1 CALLDATASIZE SUB DUP2 ADD SWAP1 PUSH2 0x185 SWAP2 SWAP1 PUSH2 0x3BCC JUMP JUMPDEST PUSH2 0x4AC JUMP JUMPDEST STOP JUMPDEST PUSH2 0x1A6 PUSH1 0x4 DUP1 CALLDATASIZE SUB DUP2 ADD SWAP1 PUSH2 0x1A1 SWAP2 SWAP1 PUSH2 0x3B6C JUMP JUMPDEST PUSH2 0x63C JUMP JUMPDEST STOP JUMPDEST PUSH2 0x1B0 PUSH2 0xA64 JUMP JUMPDEST PUSH1 0x40 MLOAD PUSH2 0x1BD SWAP2 SWAP1 PUSH2 0x4657 JUMP JUMPDEST PUSH1 0x40 MLOAD DUP1 SWAP2 SUB SWAP1 RETURN JUMPDEST PUSH2 0x1E0 PUSH1 0x4 DUP1 CALLDATASIZE SUB DUP2 ADD SWAP1 PUSH2 0x1DB SWAP2 SWAP1 PUSH2 0x3C39 JUMP JUMPDEST PUSH2 0xA78 JUMP JUMPDEST PUSH1 0x40 MLOAD PUSH2 0x1ED SWAP2 SWAP1 PUSH2 0x43B6 JUMP JUMPDEST PUSH1 0x40 MLOAD DUP1 SWAP2 SUB SWAP1 RETURN JUMPDEST PUSH2 0x1FE PUSH2 0xFBC JUMP JUMPDEST PUSH1 0x40 MLOAD PUSH2 0x20B SWAP2 SWAP1 PUSH2 0x439B JUMP JUMPDEST PUSH1 0x40 MLOAD DUP1 SWAP2 SUB SWAP1 RETURN JUMPDEST PUSH2 0x22E PUSH1 0x4 DUP1 CALLDATASIZE SUB DUP2 ADD SWAP1 PUSH2 0x229 SWAP2 SWAP1 PUSH2 0x3BF9 JUMP JUMPDEST PUSH2 0xFE2 JUMP JUMPDEST STOP JUMPDEST PUSH2 0x24A PUSH1 0x4 DUP1 CALLDATASIZE SUB DUP2 ADD SWAP1 PUSH2 0x245 SWAP2 SWAP1 PUSH2 0x3C79 JUMP JUMPDEST PUSH2 0x1471 JUMP JUMPDEST STOP JUMPDEST PUSH2 0x254 PUSH2 0x1854 JUMP JUMPDEST PUSH1 0x40 MLOAD PUSH2 0x261 SWAP2 SWAP1 PUSH2 0x4657 JUMP JUMPDEST PUSH1 0x40 MLOAD DUP1 SWAP2 SUB SWAP1 RETURN JUMPDEST PUSH2 0x272 PUSH2 0x1868 JUMP JUMPDEST STOP JUMPDEST PUSH2 0x27C PUSH2 0x187C JUMP JUMPDEST PUSH1 0x40 MLOAD PUSH2 0x289 SWAP2 SWAP1 PUSH2 0x439B JUMP JUMPDEST PUSH1 0x40 MLOAD DUP1 SWAP2 SUB SWAP1 RETURN JUMPDEST PUSH2 0x2AC PUSH1 0x4 DUP1 CALLDATASIZE SUB DUP2 ADD SWAP1 PUSH2 0x2A7 SWAP2 SWAP1 PUSH2 0x3B23 JUMP JUMPDEST PUSH2 0x18A5 JUMP JUMPDEST PUSH1 0x40 MLOAD PUSH2 0x2B9 SWAP2 SWAP1 PUSH2 0x43FA JUMP JUMPDEST PUSH1 0x40 MLOAD DUP1 SWAP2 SUB SWAP1 RETURN JUMPDEST PUSH2 0x2DC PUSH1 0x4 DUP1 CALLDATASIZE SUB DUP2 ADD SWAP1 PUSH2 0x2D7 SWAP2 SWAP1 PUSH2 0x3C79 JUMP JUMPDEST PUSH2 0x19CE JUMP JUMPDEST STOP JUMPDEST PUSH2 0x2F8 PUSH1 0x4 DUP1 CALLDATASIZE SUB DUP2 ADD SWAP1 PUSH2 0x2F3 SWAP2 SWAP1 PUSH2 0x3AF6 JUMP JUMPDEST PUSH2 0x1DB1 JUMP JUMPDEST STOP JUMPDEST PUSH2 0x314 PUSH1 0x4 DUP1 CALLDATASIZE SUB DUP2 ADD SWAP1 PUSH2 0x30F SWAP2 SWAP1 PUSH2 0x3BCC JUMP JUMPDEST PUSH2 0x1DFD JUMP JUMPDEST PUSH1 0x40 MLOAD PUSH2 0x329 SWAP10 SWAP9 SWAP8 SWAP7 SWAP6 SWAP5 SWAP4 SWAP3 SWAP2 SWAP1 PUSH2 0x4672 JUMP JUMPDEST PUSH1 0x40 MLOAD DUP1 SWAP2 SUB SWAP1 RETURN JUMPDEST PUSH2 0x34C PUSH1 0x4 DUP1 CALLDATASIZE SUB DUP2 ADD SWAP1 PUSH2 0x347 SWAP2 SWAP1 PUSH2 0x3BF9 JUMP JUMPDEST PUSH2 0x1F2E JUMP JUMPDEST STOP JUMPDEST PUSH2 0x368 PUSH1 0x4 DUP1 CALLDATASIZE SUB DUP2 ADD SWAP1 PUSH2 0x363 SWAP2 SWAP1 PUSH2 0x3BCC JUMP JUMPDEST PUSH2 0x23BD JUMP JUMPDEST PUSH1 0x40 MLOAD PUSH2 0x37D SWAP10 SWAP9 SWAP8 SWAP7 SWAP6 SWAP5 SWAP4 SWAP3 SWAP2 SWAP1 PUSH2 0x4672 JUMP JUMPDEST PUSH1 0x40 MLOAD DUP1 SWAP2 SUB SWAP1 RETURN JUMPDEST PUSH2 0x3A0 PUSH1 0x4 DUP1 CALLDATASIZE SUB DUP2 ADD SWAP1 PUSH2 0x39B SWAP2 SWAP1 PUSH2 0x3BCC JUMP JUMPDEST PUSH2 0x24EE JUMP JUMPDEST STOP JUMPDEST PUSH2 0x3BC PUSH1 0x4 DUP1 CALLDATASIZE SUB DUP2 ADD SWAP1 PUSH2 0x3B7 SWAP2 SWAP1 PUSH2 0x3AF6 JUMP JUMPDEST PUSH2 0x267E JUMP JUMPDEST STOP JUMPDEST PUSH2 0x3D8 PUSH1 0x4 DUP1 CALLDATASIZE SUB DUP2 ADD SWAP1 PUSH2 0x3D3 SWAP2 SWAP1 PUSH2 0x3AF6 JUMP JUMPDEST PUSH2 0x28A1 JUMP JUMPDEST STOP JUMPDEST PUSH2 0x3F4 PUSH1 0x4 DUP1 CALLDATASIZE SUB DUP2 ADD SWAP1 PUSH2 0x3EF SWAP2 SWAP1 PUSH2 0x3CB9 JUMP JUMPDEST PUSH2 0x2925 JUMP JUMPDEST PUSH1 0x40 MLOAD PUSH2 0x401 SWAP2 SWAP1 PUSH2 0x43D8 JUMP JUMPDEST PUSH1 0x40 MLOAD DUP1 SWAP2 SUB SWAP1 RETURN JUMPDEST PUSH2 0x412 PUSH2 0x2E69 JUMP JUMPDEST PUSH1 0x40 MLOAD PUSH2 0x41F SWAP2 SWAP1 PUSH2 0x4657 JUMP JUMPDEST PUSH1 0x40 MLOAD DUP1 SWAP2 SUB SWAP1 RETURN JUMPDEST PUSH2 0x442 PUSH1 0x4 DUP1 CALLDATASIZE SUB DUP2 ADD SWAP1 PUSH2 0x43D SWAP2 SWAP1 PUSH2 0x3B23 JUMP JUMPDEST PUSH2 0x2E7D JUMP JUMPDEST PUSH1 0x40 MLOAD PUSH2 0x44F SWAP2 SWAP1 PUSH2 0x43FA JUMP JUMPDEST PUSH1 0x40 MLOAD DUP1 SWAP2 SUB SWAP1 RETURN JUMPDEST PUSH1 0x0 PUSH1 0x2 PUSH1 0x0 CALLER PUSH20 0xFFFFFFFFFFFFFFFFFFFFFFFFFFFFFFFFFFFFFFFF AND PUSH20 0xFFFFFFFFFFFFFFFFFFFFFFFFFFFFFFFFFFFFFFFF AND DUP2 MSTORE PUSH1 0x20 ADD SWAP1 DUP2 MSTORE PUSH1 0x20 ADD PUSH1 0x0 KECCAK256 PUSH1 0x0 SWAP1 SLOAD SWAP1 PUSH2 0x100 EXP SWAP1 DIV PUSH1 0xFF AND SWAP1 POP SWAP1 JUMP JUMPDEST DUP1 PUSH1 0x0 PUSH1 0x2 DUP2 GT ISZERO PUSH2 0x4C1 JUMPI PUSH2 0x4C0 PUSH2 0x4B5D JUMP JUMPDEST JUMPDEST PUSH1 0x4 PUSH1 0x0 DUP4 PUSH2 0xFFFF AND PUSH2 0xFFFF AND DUP2 MSTORE PUSH1 0x20 ADD SWAP1 DUP2 MSTORE PUSH1 0x20 ADD PUSH1 0x0 KECCAK256 PUSH1 0x6 ADD PUSH1 0x0 SWAP1 SLOAD SWAP1 PUSH2 0x100 EXP SWAP1 DIV PUSH1 0xFF AND PUSH1 0x2 DUP2 GT ISZERO PUSH2 0x4FF JUMPI PUSH2 0x4FE PUSH2 0x4B5D JUMP JUMPDEST JUMPDEST EQ ISZERO PUSH2 0x540 JUMPI PUSH1 0x40 MLOAD PUSH32 0x8C379A000000000000000000000000000000000000000000000000000000000 DUP2 MSTORE PUSH1 0x4 ADD PUSH2 0x537 SWAP1 PUSH2 0x4517 JUMP JUMPDEST PUSH1 0x40 MLOAD DUP1 SWAP2 SUB SWAP1 REVERT JUMPDEST CALLER PUSH1 0x2 PUSH1 0x0 DUP3 PUSH20 0xFFFFFFFFFFFFFFFFFFFFFFFFFFFFFFFFFFFFFFFF AND PUSH20 0xFFFFFFFFFFFFFFFFFFFFFFFFFFFFFFFFFFFFFFFF AND DUP2 MSTORE PUSH1 0x20 ADD SWAP1 DUP2 MSTORE PUSH1 0x20 ADD PUSH1 0x0 KECCAK256 PUSH1 0x0 SWAP1 SLOAD SWAP1 PUSH2 0x100 EXP SWAP1 DIV PUSH1 0xFF AND PUSH2 0x5CD JUMPI PUSH1 0x40 MLOAD PUSH32 0x8C379A000000000000000000000000000000000000000000000000000000000 DUP2 MSTORE PUSH1 0x4 ADD PUSH2 0x5C4 SWAP1 PUSH2 0x4617 JUMP JUMPDEST PUSH1 0x40 MLOAD DUP1 SWAP2 SUB SWAP1 REVERT JUMPDEST PUSH1 0x4 PUSH1 0x0 DUP5 PUSH2 0xFFFF AND PUSH2 0xFFFF AND DUP2 MSTORE PUSH1 0x20 ADD SWAP1 DUP2 MSTORE PUSH1 0x20 ADD PUSH1 0x0 KECCAK256 PUSH1 0x4 ADD SLOAD NUMBER LT ISZERO PUSH2 0x62E JUMPI PUSH1 0x40 MLOAD PUSH32 0x8C379A000000000000000000000000000000000000000000000000000000000 DUP2 MSTORE PUSH1 0x4 ADD PUSH2 0x625 SWAP1 PUSH2 0x4637 JUMP JUMPDEST PUSH1 0x40 MLOAD DUP1 SWAP2 SUB SWAP1 REVERT JUMPDEST PUSH2 0x637 DUP4 PUSH2 0x2FA6 JUMP JUMPDEST POP POP POP JUMP JUMPDEST DUP2 DUP2 DUP1 DUP1 PUSH1 0x1F ADD PUSH1 0x20 DUP1 SWAP2 DIV MUL PUSH1 0x20 ADD PUSH1 0x40 MLOAD SWAP1 DUP2 ADD PUSH1 0x40 MSTORE DUP1 SWAP4 SWAP3 SWAP2 SWAP1 DUP2 DUP2 MSTORE PUSH1 0x20 ADD DUP4 DUP4 DUP1 DUP3 DUP5 CALLDATACOPY PUSH1 0x0 DUP2 DUP5 ADD MSTORE PUSH1 0x1F NOT PUSH1 0x1F DUP3 ADD AND SWAP1 POP DUP1 DUP4 ADD SWAP3 POP POP POP POP POP POP POP PUSH1 0x0 DUP2 MLOAD GT PUSH2 0x68F JUMPI PUSH1 0x0 DUP1 REVERT JUMPDEST CALLER PUSH1 0x2 PUSH1 0x0 DUP3 PUSH20 0xFFFFFFFFFFFFFFFFFFFFFFFFFFFFFFFFFFFFFFFF AND PUSH20 0xFFFFFFFFFFFFFFFFFFFFFFFFFFFFFFFFFFFFFFFF AND DUP2 MSTORE PUSH1 0x20 ADD SWAP1 DUP2 MSTORE PUSH1 0x20 ADD PUSH1 0x0 KECCAK256 PUSH1 0x0 SWAP1 SLOAD SWAP1 PUSH2 0x100 EXP SWAP1 DIV PUSH1 0xFF AND PUSH2 0x71C JUMPI PUSH1 0x40 MLOAD PUSH32 0x8C379A000000000000000000000000000000000000000000000000000000000 DUP2 MSTORE PUSH1 0x4 ADD PUSH2 0x713 SWAP1 PUSH2 0x4617 JUMP JUMPDEST PUSH1 0x40 MLOAD DUP1 SWAP2 SUB SWAP1 REVERT JUMPDEST PUSH1 0x0 PUSH1 0x2 DUP2 GT ISZERO PUSH2 0x730 JUMPI PUSH2 0x72F PUSH2 0x4B5D JUMP JUMPDEST JUMPDEST DUP6 PUSH1 0x2 DUP2 GT ISZERO PUSH2 0x743 JUMPI PUSH2 0x742 PUSH2 0x4B5D JUMP JUMPDEST JUMPDEST EQ ISZERO PUSH2 0x784 JUMPI PUSH1 0x40 MLOAD PUSH32 0x8C379A000000000000000000000000000000000000000000000000000000000 DUP2 MSTORE PUSH1 0x4 ADD PUSH2 0x77B SWAP1 PUSH2 0x4537 JUMP JUMPDEST PUSH1 0x40 MLOAD DUP1 SWAP2 SUB SWAP1 REVERT JUMPDEST PUSH1 0x7 PUSH1 0x2 SWAP1 SLOAD SWAP1 PUSH2 0x100 EXP SWAP1 DIV PUSH2 0xFFFF AND PUSH1 0x6 PUSH1 0x0 PUSH1 0x7 PUSH1 0x2 SWAP1 SLOAD SWAP1 PUSH2 0x100 EXP SWAP1 DIV PUSH2 0xFFFF AND PUSH2 0xFFFF AND PUSH2 0xFFFF AND DUP2 MSTORE PUSH1 0x20 ADD SWAP1 DUP2 MSTORE PUSH1 0x20 ADD PUSH1 0x0 KECCAK256 PUSH1 0x0 ADD PUSH1 0x0 PUSH2 0x100 EXP DUP2 SLOAD DUP2 PUSH2 0xFFFF MUL NOT AND SWAP1 DUP4 PUSH2 0xFFFF AND MUL OR SWAP1 SSTORE POP DUP4 DUP4 PUSH1 0x6 PUSH1 0x0 PUSH1 0x7 PUSH1 0x2 SWAP1 SLOAD SWAP1 PUSH2 0x100 EXP SWAP1 DIV PUSH2 0xFFFF AND PUSH2 0xFFFF AND PUSH2 0xFFFF AND DUP2 MSTORE PUSH1 0x20 ADD SWAP1 DUP2 MSTORE PUSH1 0x20 ADD PUSH1 0x0 KECCAK256 PUSH1 0x1 ADD SWAP2 SWAP1 PUSH2 0x81A SWAP3 SWAP2 SWAP1 PUSH2 0x3761 JUMP JUMPDEST POP PUSH1 0x0 PUSH1 0x6 PUSH1 0x0 PUSH1 0x7 PUSH1 0x2 SWAP1 SLOAD SWAP1 PUSH2 0x100 EXP SWAP1 DIV PUSH2 0xFFFF AND PUSH2 0xFFFF AND PUSH2 0xFFFF AND DUP2 MSTORE PUSH1 0x20 ADD SWAP1 DUP2 MSTORE PUSH1 0x20 ADD PUSH1 0x0 KECCAK256 PUSH1 0x2 ADD PUSH1 0x0 PUSH2 0x100 EXP DUP2 SLOAD DUP2 PUSH4 0xFFFFFFFF MUL NOT AND SWAP1 DUP4 PUSH4 0xFFFFFFFF AND MUL OR SWAP1 SSTORE POP PUSH1 0x0 PUSH1 0x6 PUSH1 0x0 PUSH1 0x7 PUSH1 0x2 SWAP1 SLOAD SWAP1 PUSH2 0x100 EXP SWAP1 DIV PUSH2 0xFFFF AND PUSH2 0xFFFF AND PUSH2 0xFFFF AND DUP2 MSTORE PUSH1 0x20 ADD SWAP1 DUP2 MSTORE PUSH1 0x20 ADD PUSH1 0x0 KECCAK256 PUSH1 0x2 ADD PUSH1 0x4 PUSH2 0x100 EXP DUP2 SLOAD DUP2 PUSH4 0xFFFFFFFF MUL NOT AND SWAP1 DUP4 PUSH4 0xFFFFFFFF AND MUL OR SWAP1 SSTORE POP CALLER PUSH1 0x6 PUSH1 0x0 PUSH1 0x7 PUSH1 0x2 SWAP1 SLOAD SWAP1 PUSH2 0x100 EXP SWAP1 DIV PUSH2 0xFFFF AND PUSH2 0xFFFF AND PUSH2 0xFFFF AND DUP2 MSTORE PUSH1 0x20 ADD SWAP1 DUP2 MSTORE PUSH1 0x20 ADD PUSH1 0x0 KECCAK256 PUSH1 0x2 ADD PUSH1 0x8 PUSH2 0x100 EXP DUP2 SLOAD DUP2 PUSH20 0xFFFFFFFFFFFFFFFFFFFFFFFFFFFFFFFFFFFFFFFF MUL NOT AND SWAP1 DUP4 PUSH20 0xFFFFFFFFFFFFFFFFFFFFFFFFFFFFFFFFFFFFFFFF AND MUL OR SWAP1 SSTORE POP NUMBER PUSH1 0x6 PUSH1 0x0 PUSH1 0x7 PUSH1 0x2 SWAP1 SLOAD SWAP1 PUSH2 0x100 EXP SWAP1 DIV PUSH2 0xFFFF AND PUSH2 0xFFFF AND PUSH2 0xFFFF AND DUP2 MSTORE PUSH1 0x20 ADD SWAP1 DUP2 MSTORE PUSH1 0x20 ADD PUSH1 0x0 KECCAK256 PUSH1 0x3 ADD DUP2 SWAP1 SSTORE POP PUSH1 0x1 PUSH1 0xFF AND NUMBER PUSH2 0x967 SWAP2 SWAP1 PUSH2 0x487C JUMP JUMPDEST PUSH1 0x6 PUSH1 0x0 PUSH1 0x7 PUSH1 0x2 SWAP1 SLOAD SWAP1 PUSH2 0x100 EXP SWAP1 DIV PUSH2 0xFFFF AND PUSH2 0xFFFF AND PUSH2 0xFFFF AND DUP2 MSTORE PUSH1 0x20 ADD SWAP1 DUP2 MSTORE PUSH1 0x20 ADD PUSH1 0x0 KECCAK256 PUSH1 0x4 ADD DUP2 SWAP1 SSTORE POP PUSH1 0x0 PUSH1 0x6 PUSH1 0x0 PUSH1 0x7 PUSH1 0x2 SWAP1 SLOAD SWAP1 PUSH2 0x100 EXP SWAP1 DIV PUSH2 0xFFFF AND PUSH2 0xFFFF AND PUSH2 0xFFFF AND DUP2 MSTORE PUSH1 0x20 ADD SWAP1 DUP2 MSTORE PUSH1 0x20 ADD PUSH1 0x0 KECCAK256 PUSH1 0x5 ADD DUP2 SWAP1 SSTORE POP DUP5 PUSH1 0x6 PUSH1 0x0 PUSH1 0x7 PUSH1 0x2 SWAP1 SLOAD SWAP1 PUSH2 0x100 EXP SWAP1 DIV PUSH2 0xFFFF AND PUSH2 0xFFFF AND PUSH2 0xFFFF AND DUP2 MSTORE PUSH1 0x20 ADD SWAP1 DUP2 MSTORE PUSH1 0x20 ADD PUSH1 0x0 KECCAK256 PUSH1 0x6 ADD PUSH1 0x0 PUSH2 0x100 EXP DUP2 SLOAD DUP2 PUSH1 0xFF MUL NOT AND SWAP1 DUP4 PUSH1 0x2 DUP2 GT ISZERO PUSH2 0xA1E JUMPI PUSH2 0xA1D PUSH2 0x4B5D JUMP JUMPDEST JUMPDEST MUL OR SWAP1 SSTORE POP PUSH1 0x1 PUSH1 0x7 PUSH1 0x2 DUP3 DUP3 DUP3 SWAP1 SLOAD SWAP1 PUSH2 0x100 EXP SWAP1 DIV PUSH2 0xFFFF AND PUSH2 0xA43 SWAP2 SWAP1 PUSH2 0x4844 JUMP JUMPDEST SWAP3 POP PUSH2 0x100 EXP DUP2 SLOAD DUP2 PUSH2 0xFFFF MUL NOT AND SWAP1 DUP4 PUSH2 0xFFFF AND MUL OR SWAP1 SSTORE POP POP POP POP POP POP JUMP JUMPDEST PUSH1 0x7 PUSH1 0x2 SWAP1 SLOAD SWAP1 PUSH2 0x100 EXP SWAP1 DIV PUSH2 0xFFFF AND DUP2 JUMP JUMPDEST PUSH1 0x60 PUSH1 0x0 DUP3 PUSH2 0xFFFF AND GT PUSH2 0xA8B JUMPI PUSH1 0x0 DUP1 REVERT JUMPDEST PUSH1 0x0 DUP3 PUSH2 0xFFFF AND PUSH8 0xFFFFFFFFFFFFFFFF DUP2 GT ISZERO PUSH2 0xAAB JUMPI PUSH2 0xAAA PUSH2 0x4BEA JUMP JUMPDEST JUMPDEST PUSH1 0x40 MLOAD SWAP1 DUP1 DUP3 MSTORE DUP1 PUSH1 0x20 MUL PUSH1 0x20 ADD DUP3 ADD PUSH1 0x40 MSTORE DUP1 ISZERO PUSH2 0xAE4 JUMPI DUP2 PUSH1 0x20 ADD JUMPDEST PUSH2 0xAD1 PUSH2 0x37E7 JUMP JUMPDEST DUP2 MSTORE PUSH1 0x20 ADD SWAP1 PUSH1 0x1 SWAP1 SUB SWAP1 DUP2 PUSH2 0xAC9 JUMPI SWAP1 POP JUMPDEST POP SWAP1 POP PUSH1 0x0 PUSH1 0x7 PUSH1 0x2 SWAP1 SLOAD SWAP1 PUSH2 0x100 EXP SWAP1 DIV PUSH2 0xFFFF AND SWAP1 POP DUP1 PUSH2 0xFFFF AND DUP6 PUSH2 0xFFFF AND GT ISZERO PUSH2 0xB16 JUMPI DUP2 SWAP3 POP POP POP PUSH2 0xFB6 JUMP JUMPDEST DUP1 PUSH2 0xFFFF AND DUP5 DUP7 PUSH2 0xB27 SWAP2 SWAP1 PUSH2 0x4844 JUMP JUMPDEST PUSH2 0xFFFF AND GT ISZERO PUSH2 0xD78 JUMPI PUSH1 0x0 PUSH1 0x1 SWAP1 POP JUMPDEST DUP6 DUP3 PUSH2 0xB44 SWAP2 SWAP1 PUSH2 0x4943 JUMP JUMPDEST PUSH2 0xFFFF AND DUP2 PUSH2 0xFFFF AND GT PUSH2 0xD72 JUMPI PUSH1 0x6 PUSH1 0x0 DUP3 DUP5 PUSH2 0xB62 SWAP2 SWAP1 PUSH2 0x4943 JUMP JUMPDEST PUSH2 0xFFFF AND PUSH2 0xFFFF AND DUP2 MSTORE PUSH1 0x20 ADD SWAP1 DUP2 MSTORE PUSH1 0x20 ADD PUSH1 0x0 KECCAK256 PUSH1 0x40 MLOAD DUP1 PUSH2 0x120 ADD PUSH1 0x40 MSTORE SWAP1 DUP2 PUSH1 0x0 DUP3 ADD PUSH1 0x0 SWAP1 SLOAD SWAP1 PUSH2 0x100 EXP SWAP1 DIV PUSH2 0xFFFF AND PUSH2 0xFFFF AND PUSH2 0xFFFF AND DUP2 MSTORE PUSH1 0x20 ADD PUSH1 0x1 DUP3 ADD DUP1 SLOAD PUSH2 0xBB4 SWAP1 PUSH2 0x4A76 JUMP JUMPDEST DUP1 PUSH1 0x1F ADD PUSH1 0x20 DUP1 SWAP2 DIV MUL PUSH1 0x20 ADD PUSH1 0x40 MLOAD SWAP1 DUP2 ADD PUSH1 0x40 MSTORE DUP1 SWAP3 SWAP2 SWAP1 DUP2 DUP2 MSTORE PUSH1 0x20 ADD DUP3 DUP1 SLOAD PUSH2 0xBE0 SWAP1 PUSH2 0x4A76 JUMP JUMPDEST DUP1 ISZERO PUSH2 0xC2D JUMPI DUP1 PUSH1 0x1F LT PUSH2 0xC02 JUMPI PUSH2 0x100 DUP1 DUP4 SLOAD DIV MUL DUP4 MSTORE SWAP2 PUSH1 0x20 ADD SWAP2 PUSH2 0xC2D JUMP JUMPDEST DUP3 ADD SWAP2 SWAP1 PUSH1 0x0 MSTORE PUSH1 0x20 PUSH1 0x0 KECCAK256 SWAP1 JUMPDEST DUP2 SLOAD DUP2 MSTORE SWAP1 PUSH1 0x1 ADD SWAP1 PUSH1 0x20 ADD DUP1 DUP4 GT PUSH2 0xC10 JUMPI DUP3 SWAP1 SUB PUSH1 0x1F AND DUP3 ADD SWAP2 JUMPDEST POP POP POP POP POP DUP2 MSTORE PUSH1 0x20 ADD PUSH1 0x2 DUP3 ADD PUSH1 0x0 SWAP1 SLOAD SWAP1 PUSH2 0x100 EXP SWAP1 DIV PUSH4 0xFFFFFFFF AND PUSH4 0xFFFFFFFF AND PUSH4 0xFFFFFFFF AND DUP2 MSTORE PUSH1 0x20 ADD PUSH1 0x2 DUP3 ADD PUSH1 0x4 SWAP1 SLOAD SWAP1 PUSH2 0x100 EXP SWAP1 DIV PUSH4 0xFFFFFFFF AND PUSH4 0xFFFFFFFF AND PUSH4 0xFFFFFFFF AND DUP2 MSTORE PUSH1 0x20 ADD PUSH1 0x2 DUP3 ADD PUSH1 0x8 SWAP1 SLOAD SWAP1 PUSH2 0x100 EXP SWAP1 DIV PUSH20 0xFFFFFFFFFFFFFFFFFFFFFFFFFFFFFFFFFFFFFFFF AND PUSH20 0xFFFFFFFFFFFFFFFFFFFFFFFFFFFFFFFFFFFFFFFF AND PUSH20 0xFFFFFFFFFFFFFFFFFFFFFFFFFFFFFFFFFFFFFFFF AND DUP2 MSTORE PUSH1 0x20 ADD PUSH1 0x3 DUP3 ADD SLOAD DUP2 MSTORE PUSH1 0x20 ADD PUSH1 0x4 DUP3 ADD SLOAD DUP2 MSTORE PUSH1 0x20 ADD PUSH1 0x5 DUP3 ADD SLOAD DUP2 MSTORE PUSH1 0x20 ADD PUSH1 0x6 DUP3 ADD PUSH1 0x0 SWAP1 SLOAD SWAP1 PUSH2 0x100 EXP SWAP1 DIV PUSH1 0xFF AND PUSH1 0x2 DUP2 GT ISZERO PUSH2 0xD1B JUMPI PUSH2 0xD1A PUSH2 0x4B5D JUMP JUMPDEST JUMPDEST PUSH1 0x2 DUP2 GT ISZERO PUSH2 0xD2D JUMPI PUSH2 0xD2C PUSH2 0x4B5D JUMP JUMPDEST JUMPDEST DUP2 MSTORE POP POP DUP4 PUSH1 0x1 DUP4 PUSH2 0xD3F SWAP2 SWAP1 PUSH2 0x4943 JUMP JUMPDEST PUSH2 0xFFFF AND DUP2 MLOAD DUP2 LT PUSH2 0xD54 JUMPI PUSH2 0xD53 PUSH2 0x4BBB JUMP JUMPDEST JUMPDEST PUSH1 0x20 MUL PUSH1 0x20 ADD ADD DUP2 SWAP1 MSTORE POP DUP1 DUP1 PUSH2 0xD6A SWAP1 PUSH2 0x4AD9 JUMP JUMPDEST SWAP2 POP POP PUSH2 0xB38 JUMP JUMPDEST POP PUSH2 0xFB0 JUMP JUMPDEST PUSH1 0x0 PUSH1 0x1 SWAP1 POP JUMPDEST DUP5 PUSH2 0xFFFF AND DUP2 PUSH2 0xFFFF AND GT PUSH2 0xFAE JUMPI PUSH1 0x6 PUSH1 0x0 DUP3 DUP5 PUSH2 0xD9E SWAP2 SWAP1 PUSH2 0x4943 JUMP JUMPDEST PUSH2 0xFFFF AND PUSH2 0xFFFF AND DUP2 MSTORE PUSH1 0x20 ADD SWAP1 DUP2 MSTORE PUSH1 0x20 ADD PUSH1 0x0 KECCAK256 PUSH1 0x40 MLOAD DUP1 PUSH2 0x120 ADD PUSH1 0x40 MSTORE SWAP1 DUP2 PUSH1 0x0 DUP3 ADD PUSH1 0x0 SWAP1 SLOAD SWAP1 PUSH2 0x100 EXP SWAP1 DIV PUSH2 0xFFFF AND PUSH2 0xFFFF AND PUSH2 0xFFFF AND DUP2 MSTORE PUSH1 0x20 ADD PUSH1 0x1 DUP3 ADD DUP1 SLOAD PUSH2 0xDF0 SWAP1 PUSH2 0x4A76 JUMP JUMPDEST DUP1 PUSH1 0x1F ADD PUSH1 0x20 DUP1 SWAP2 DIV MUL PUSH1 0x20 ADD PUSH1 0x40 MLOAD SWAP1 DUP2 ADD PUSH1 0x40 MSTORE DUP1 SWAP3 SWAP2 SWAP1 DUP2 DUP2 MSTORE PUSH1 0x20 ADD DUP3 DUP1 SLOAD PUSH2 0xE1C SWAP1 PUSH2 0x4A76 JUMP JUMPDEST DUP1 ISZERO PUSH2 0xE69 JUMPI DUP1 PUSH1 0x1F LT PUSH2 0xE3E JUMPI PUSH2 0x100 DUP1 DUP4 SLOAD DIV MUL DUP4 MSTORE SWAP2 PUSH1 0x20 ADD SWAP2 PUSH2 0xE69 JUMP JUMPDEST DUP3 ADD SWAP2 SWAP1 PUSH1 0x0 MSTORE PUSH1 0x20 PUSH1 0x0 KECCAK256 SWAP1 JUMPDEST DUP2 SLOAD DUP2 MSTORE SWAP1 PUSH1 0x1 ADD SWAP1 PUSH1 0x20 ADD DUP1 DUP4 GT PUSH2 0xE4C JUMPI DUP3 SWAP1 SUB PUSH1 0x1F AND DUP3 ADD SWAP2 JUMPDEST POP POP POP POP POP DUP2 MSTORE PUSH1 0x20 ADD PUSH1 0x2 DUP3 ADD PUSH1 0x0 SWAP1 SLOAD SWAP1 PUSH2 0x100 EXP SWAP1 DIV PUSH4 0xFFFFFFFF AND PUSH4 0xFFFFFFFF AND PUSH4 0xFFFFFFFF AND DUP2 MSTORE PUSH1 0x20 ADD PUSH1 0x2 DUP3 ADD PUSH1 0x4 SWAP1 SLOAD SWAP1 PUSH2 0x100 EXP SWAP1 DIV PUSH4 0xFFFFFFFF AND PUSH4 0xFFFFFFFF AND PUSH4 0xFFFFFFFF AND DUP2 MSTORE PUSH1 0x20 ADD PUSH1 0x2 DUP3 ADD PUSH1 0x8 SWAP1 SLOAD SWAP1 PUSH2 0x100 EXP SWAP1 DIV PUSH20 0xFFFFFFFFFFFFFFFFFFFFFFFFFFFFFFFFFFFFFFFF AND PUSH20 0xFFFFFFFFFFFFFFFFFFFFFFFFFFFFFFFFFFFFFFFF AND PUSH20 0xFFFFFFFFFFFFFFFFFFFFFFFFFFFFFFFFFFFFFFFF AND DUP2 MSTORE PUSH1 0x20 ADD PUSH1 0x3 DUP3 ADD SLOAD DUP2 MSTORE PUSH1 0x20 ADD PUSH1 0x4 DUP3 ADD SLOAD DUP2 MSTORE PUSH1 0x20 ADD PUSH1 0x5 DUP3 ADD SLOAD DUP2 MSTORE PUSH1 0x20 ADD PUSH1 0x6 DUP3 ADD PUSH1 0x0 SWAP1 SLOAD SWAP1 PUSH2 0x100 EXP SWAP1 DIV PUSH1 0xFF AND PUSH1 0x2 DUP2 GT ISZERO PUSH2 0xF57 JUMPI PUSH2 0xF56 PUSH2 0x4B5D JUMP JUMPDEST JUMPDEST PUSH1 0x2 DUP2 GT ISZERO PUSH2 0xF69 JUMPI PUSH2 0xF68 PUSH2 0x4B5D JUMP JUMPDEST JUMPDEST DUP2 MSTORE POP POP DUP4 PUSH1 0x1 DUP4 PUSH2 0xF7B SWAP2 SWAP1 PUSH2 0x4943 JUMP JUMPDEST PUSH2 0xFFFF AND DUP2 MLOAD DUP2 LT PUSH2 0xF90 JUMPI PUSH2 0xF8F PUSH2 0x4BBB JUMP JUMPDEST JUMPDEST PUSH1 0x20 MUL PUSH1 0x20 ADD ADD DUP2 SWAP1 MSTORE POP DUP1 DUP1 PUSH2 0xFA6 SWAP1 PUSH2 0x4AD9 JUMP JUMPDEST SWAP2 POP POP PUSH2 0xD7F JUMP JUMPDEST POP JUMPDEST DUP2 SWAP3 POP POP POP JUMPDEST SWAP3 SWAP2 POP POP JUMP JUMPDEST PUSH1 0x1 PUSH1 0x0 SWAP1 SLOAD SWAP1 PUSH2 0x100 EXP SWAP1 DIV PUSH20 0xFFFFFFFFFFFFFFFFFFFFFFFFFFFFFFFFFFFFFFFF AND DUP2 JUMP JUMPDEST DUP2 PUSH1 0x0 PUSH1 0x2 DUP2 GT ISZERO PUSH2 0xFF7 JUMPI PUSH2 0xFF6 PUSH2 0x4B5D JUMP JUMPDEST JUMPDEST PUSH1 0x4 PUSH1 0x0 DUP4 PUSH2 0xFFFF AND PUSH2 0xFFFF AND DUP2 MSTORE PUSH1 0x20 ADD SWAP1 DUP2 MSTORE PUSH1 0x20 ADD PUSH1 0x0 KECCAK256 PUSH1 0x6 ADD PUSH1 0x0 SWAP1 SLOAD SWAP1 PUSH2 0x100 EXP SWAP1 DIV PUSH1 0xFF AND PUSH1 0x2 DUP2 GT ISZERO PUSH2 0x1035 JUMPI PUSH2 0x1034 PUSH2 0x4B5D JUMP JUMPDEST JUMPDEST EQ ISZERO PUSH2 0x1076 JUMPI PUSH1 0x40 MLOAD PUSH32 0x8C379A000000000000000000000000000000000000000000000000000000000 DUP2 MSTORE PUSH1 0x4 ADD PUSH2 0x106D SWAP1 PUSH2 0x4517 JUMP JUMPDEST PUSH1 0x40 MLOAD DUP1 SWAP2 SUB SWAP1 REVERT JUMPDEST DUP3 PUSH1 0x2 PUSH1 0x0 CALLER PUSH20 0xFFFFFFFFFFFFFFFFFFFFFFFFFFFFFFFFFFFFFFFF AND PUSH20 0xFFFFFFFFFFFFFFFFFFFFFFFFFFFFFFFFFFFFFFFF AND DUP2 MSTORE PUSH1 0x20 ADD SWAP1 DUP2 MSTORE PUSH1 0x20 ADD PUSH1 0x0 KECCAK256 PUSH1 0x0 SWAP1 SLOAD SWAP1 PUSH2 0x100 EXP SWAP1 DIV PUSH1 0xFF AND PUSH2 0x1103 JUMPI PUSH1 0x40 MLOAD PUSH32 0x8C379A000000000000000000000000000000000000000000000000000000000 DUP2 MSTORE PUSH1 0x4 ADD PUSH2 0x10FA SWAP1 PUSH2 0x44B7 JUMP JUMPDEST PUSH1 0x40 MLOAD DUP1 SWAP2 SUB SWAP1 REVERT JUMPDEST PUSH1 0x0 PUSH1 0x3 PUSH1 0x0 DUP4 PUSH2 0xFFFF AND PUSH2 0xFFFF AND DUP2 MSTORE PUSH1 0x20 ADD SWAP1 DUP2 MSTORE PUSH1 0x20 ADD PUSH1 0x0 KECCAK256 PUSH1 0x0 CALLER PUSH20 0xFFFFFFFFFFFFFFFFFFFFFFFFFFFFFFFFFFFFFFFF AND PUSH20 0xFFFFFFFFFFFFFFFFFFFFFFFFFFFFFFFFFFFFFFFF AND DUP2 MSTORE PUSH1 0x20 ADD SWAP1 DUP2 MSTORE PUSH1 0x20 ADD PUSH1 0x0 KECCAK256 PUSH1 0x0 SWAP1 SLOAD SWAP1 PUSH2 0x100 EXP SWAP1 DIV PUSH1 0xFF AND PUSH1 0xFF AND EQ PUSH2 0x11AE JUMPI PUSH1 0x40 MLOAD PUSH32 0x8C379A000000000000000000000000000000000000000000000000000000000 DUP2 MSTORE PUSH1 0x4 ADD PUSH2 0x11A5 SWAP1 PUSH2 0x45D7 JUMP JUMPDEST PUSH1 0x40 MLOAD DUP1 SWAP2 SUB SWAP1 REVERT JUMPDEST PUSH1 0x1 PUSH1 0x2 DUP2 GT ISZERO PUSH2 0x11C2 JUMPI PUSH2 0x11C1 PUSH2 0x4B5D JUMP JUMPDEST JUMPDEST PUSH1 0x4 PUSH1 0x0 DUP7 PUSH2 0xFFFF AND PUSH2 0xFFFF AND DUP2 MSTORE PUSH1 0x20 ADD SWAP1 DUP2 MSTORE PUSH1 0x20 ADD PUSH1 0x0 KECCAK256 PUSH1 0x6 ADD PUSH1 0x0 SWAP1 SLOAD SWAP1 PUSH2 0x100 EXP SWAP1 DIV PUSH1 0xFF AND PUSH1 0x2 DUP2 GT ISZERO PUSH2 0x1200 JUMPI PUSH2 0x11FF PUSH2 0x4B5D JUMP JUMPDEST JUMPDEST EQ PUSH2 0x1240 JUMPI PUSH1 0x40 MLOAD PUSH32 0x8C379A000000000000000000000000000000000000000000000000000000000 DUP2 MSTORE PUSH1 0x4 ADD PUSH2 0x1237 SWAP1 PUSH2 0x44D7 JUMP JUMPDEST PUSH1 0x40 MLOAD DUP1 SWAP2 SUB SWAP1 REVERT JUMPDEST PUSH1 0x0 PUSH1 0x1 DUP2 GT ISZERO PUSH2 0x1254 JUMPI PUSH2 0x1253 PUSH2 0x4B5D JUMP JUMPDEST JUMPDEST DUP4 PUSH1 0x1 DUP2 GT ISZERO PUSH2 0x1267 JUMPI PUSH2 0x1266 PUSH2 0x4B5D JUMP JUMPDEST JUMPDEST EQ ISZERO PUSH2 0x1340 JUMPI PUSH1 0x1 PUSH1 0x3 PUSH1 0x0 DUP7 PUSH2 0xFFFF AND PUSH2 0xFFFF AND DUP2 MSTORE PUSH1 0x20 ADD SWAP1 DUP2 MSTORE PUSH1 0x20 ADD PUSH1 0x0 KECCAK256 PUSH1 0x0 CALLER PUSH20 0xFFFFFFFFFFFFFFFFFFFFFFFFFFFFFFFFFFFFFFFF AND PUSH20 0xFFFFFFFFFFFFFFFFFFFFFFFFFFFFFFFFFFFFFFFF AND DUP2 MSTORE PUSH1 0x20 ADD SWAP1 DUP2 MSTORE PUSH1 0x20 ADD PUSH1 0x0 KECCAK256 PUSH1 0x0 PUSH2 0x100 EXP DUP2 SLOAD DUP2 PUSH1 0xFF MUL NOT AND SWAP1 DUP4 PUSH1 0xFF AND MUL OR SWAP1 SSTORE POP PUSH1 0x1 PUSH1 0x4 PUSH1 0x0 DUP7 PUSH2 0xFFFF AND PUSH2 0xFFFF AND DUP2 MSTORE PUSH1 0x20 ADD SWAP1 DUP2 MSTORE PUSH1 0x20 ADD PUSH1 0x0 KECCAK256 PUSH1 0x2 ADD PUSH1 0x4 DUP3 DUP3 DUP3 SWAP1 SLOAD SWAP1 PUSH2 0x100 EXP SWAP1 DIV PUSH4 0xFFFFFFFF AND PUSH2 0x131D SWAP2 SWAP1 PUSH2 0x48D2 JUMP JUMPDEST SWAP3 POP PUSH2 0x100 EXP DUP2 SLOAD DUP2 PUSH4 0xFFFFFFFF MUL NOT AND SWAP1 DUP4 PUSH4 0xFFFFFFFF AND MUL OR SWAP1 SSTORE POP PUSH2 0x140F JUMP JUMPDEST PUSH1 0xA PUSH1 0x3 PUSH1 0x0 DUP7 PUSH2 0xFFFF AND PUSH2 0xFFFF AND DUP2 MSTORE PUSH1 0x20 ADD SWAP1 DUP2 MSTORE PUSH1 0x20 ADD PUSH1 0x0 KECCAK256 PUSH1 0x0 CALLER PUSH20 0xFFFFFFFFFFFFFFFFFFFFFFFFFFFFFFFFFFFFFFFF AND PUSH20 0xFFFFFFFFFFFFFFFFFFFFFFFFFFFFFFFFFFFFFFFF AND DUP2 MSTORE PUSH1 0x20 ADD SWAP1 DUP2 MSTORE PUSH1 0x20 ADD PUSH1 0x0 KECCAK256 PUSH1 0x0 PUSH2 0x100 EXP DUP2 SLOAD DUP2 PUSH1 0xFF MUL NOT AND SWAP1 DUP4 PUSH1 0xFF AND MUL OR SWAP1 SSTORE POP PUSH1 0xA PUSH1 0x4 PUSH1 0x0 DUP7 PUSH2 0xFFFF AND PUSH2 0xFFFF AND DUP2 MSTORE PUSH1 0x20 ADD SWAP1 DUP2 MSTORE PUSH1 0x20 ADD PUSH1 0x0 KECCAK256 PUSH1 0x2 ADD PUSH1 0x4 DUP3 DUP3 DUP3 SWAP1 SLOAD SWAP1 PUSH2 0x100 EXP SWAP1 DIV PUSH4 0xFFFFFFFF AND PUSH2 0x13F0 SWAP2 SWAP1 PUSH2 0x48D2 JUMP JUMPDEST SWAP3 POP PUSH2 0x100 EXP DUP2 SLOAD DUP2 PUSH4 0xFFFFFFFF MUL NOT AND SWAP1 DUP4 PUSH4 0xFFFFFFFF AND MUL OR SWAP1 SSTORE POP JUMPDEST PUSH1 0x1 PUSH1 0x4 PUSH1 0x0 DUP7 PUSH2 0xFFFF AND PUSH2 0xFFFF AND DUP2 MSTORE PUSH1 0x20 ADD SWAP1 DUP2 MSTORE PUSH1 0x20 ADD PUSH1 0x0 KECCAK256 PUSH1 0x2 ADD PUSH1 0x0 DUP3 DUP3 DUP3 SWAP1 SLOAD SWAP1 PUSH2 0x100 EXP SWAP1 DIV PUSH4 0xFFFFFFFF AND PUSH2 0x144D SWAP2 SWAP1 PUSH2 0x48D2 JUMP JUMPDEST SWAP3 POP PUSH2 0x100 EXP DUP2 SLOAD DUP2 PUSH4 0xFFFFFFFF MUL NOT AND SWAP1 DUP4 PUSH4 0xFFFFFFFF AND MUL OR SWAP1 SSTORE POP POP POP POP POP JUMP JUMPDEST DUP2 PUSH1 0x0 PUSH1 0x2 DUP2 GT ISZERO PUSH2 0x1486 JUMPI PUSH2 0x1485 PUSH2 0x4B5D JUMP JUMPDEST JUMPDEST PUSH1 0x4 PUSH1 0x0 DUP4 PUSH2 0xFFFF AND PUSH2 0xFFFF AND DUP2 MSTORE PUSH1 0x20 ADD SWAP1 DUP2 MSTORE PUSH1 0x20 ADD PUSH1 0x0 KECCAK256 PUSH1 0x6 ADD PUSH1 0x0 SWAP1 SLOAD SWAP1 PUSH2 0x100 EXP SWAP1 DIV PUSH1 0xFF AND PUSH1 0x2 DUP2 GT ISZERO PUSH2 0x14C4 JUMPI PUSH2 0x14C3 PUSH2 0x4B5D JUMP JUMPDEST JUMPDEST EQ ISZERO PUSH2 0x1505 JUMPI PUSH1 0x40 MLOAD PUSH32 0x8C379A000000000000000000000000000000000000000000000000000000000 DUP2 MSTORE PUSH1 0x4 ADD PUSH2 0x14FC SWAP1 PUSH2 0x4517 JUMP JUMPDEST PUSH1 0x40 MLOAD DUP1 SWAP2 SUB SWAP1 REVERT JUMPDEST DUP3 PUSH1 0x2 PUSH1 0x0 CALLER PUSH20 0xFFFFFFFFFFFFFFFFFFFFFFFFFFFFFFFFFFFFFFFF AND PUSH20 0xFFFFFFFFFFFFFFFFFFFFFFFFFFFFFFFFFFFFFFFF AND DUP2 MSTORE PUSH1 0x20 ADD SWAP1 DUP2 MSTORE PUSH1 0x20 ADD PUSH1 0x0 KECCAK256 PUSH1 0x0 SWAP1 SLOAD SWAP1 PUSH2 0x100 EXP SWAP1 DIV PUSH1 0xFF AND PUSH2 0x1592 JUMPI PUSH1 0x40 MLOAD PUSH32 0x8C379A000000000000000000000000000000000000000000000000000000000 DUP2 MSTORE PUSH1 0x4 ADD PUSH2 0x1589 SWAP1 PUSH2 0x44B7 JUMP JUMPDEST PUSH1 0x40 MLOAD DUP1 SWAP2 SUB SWAP1 REVERT JUMPDEST PUSH1 0x0 PUSH1 0x3 PUSH1 0x0 DUP4 PUSH2 0xFFFF AND PUSH2 0xFFFF AND DUP2 MSTORE PUSH1 0x20 ADD SWAP1 DUP2 MSTORE PUSH1 0x20 ADD PUSH1 0x0 KECCAK256 PUSH1 0x0 CALLER PUSH20 0xFFFFFFFFFFFFFFFFFFFFFFFFFFFFFFFFFFFFFFFF AND PUSH20 0xFFFFFFFFFFFFFFFFFFFFFFFFFFFFFFFFFFFFFFFF AND DUP2 MSTORE PUSH1 0x20 ADD SWAP1 DUP2 MSTORE PUSH1 0x20 ADD PUSH1 0x0 KECCAK256 PUSH1 0x0 SWAP1 SLOAD SWAP1 PUSH2 0x100 EXP SWAP1 DIV PUSH1 0xFF AND PUSH1 0xFF AND EQ PUSH2 0x163D JUMPI PUSH1 0x40 MLOAD PUSH32 0x8C379A000000000000000000000000000000000000000000000000000000000 DUP2 MSTORE PUSH1 0x4 ADD PUSH2 0x1634 SWAP1 PUSH2 0x45D7 JUMP JUMPDEST PUSH1 0x40 MLOAD DUP1 SWAP2 SUB SWAP1 REVERT JUMPDEST PUSH1 0x0 DUP4 PUSH1 0xFF AND GT DUP1 ISZERO PUSH2 0x1653 JUMPI POP PUSH1 0xB DUP4 PUSH1 0xFF AND LT JUMPDEST PUSH2 0x1692 JUMPI PUSH1 0x40 MLOAD PUSH32 0x8C379A000000000000000000000000000000000000000000000000000000000 DUP2 MSTORE PUSH1 0x4 ADD PUSH2 0x1689 SWAP1 PUSH2 0x45F7 JUMP JUMPDEST PUSH1 0x40 MLOAD DUP1 SWAP2 SUB SWAP1 REVERT JUMPDEST PUSH1 0x2 DUP1 DUP2 GT ISZERO PUSH2 0x16A5 JUMPI PUSH2 0x16A4 PUSH2 0x4B5D JUMP JUMPDEST JUMPDEST PUSH1 0x4 PUSH1 0x0 DUP7 PUSH2 0xFFFF AND PUSH2 0xFFFF AND DUP2 MSTORE PUSH1 0x20 ADD SWAP1 DUP2 MSTORE PUSH1 0x20 ADD PUSH1 0x0 KECCAK256 PUSH1 0x6 ADD PUSH1 0x0 SWAP1 SLOAD SWAP1 PUSH2 0x100 EXP SWAP1 DIV PUSH1 0xFF AND PUSH1 0x2 DUP2 GT ISZERO PUSH2 0x16E3 JUMPI PUSH2 0x16E2 PUSH2 0x4B5D JUMP JUMPDEST JUMPDEST EQ PUSH2 0x1723 JUMPI PUSH1 0x40 MLOAD PUSH32 0x8C379A000000000000000000000000000000000000000000000000000000000 DUP2 MSTORE PUSH1 0x4 ADD PUSH2 0x171A SWAP1 PUSH2 0x44D7 JUMP JUMPDEST PUSH1 0x40 MLOAD DUP1 SWAP2 SUB SWAP1 REVERT JUMPDEST DUP3 PUSH1 0x3 PUSH1 0x0 DUP7 PUSH2 0xFFFF AND PUSH2 0xFFFF AND DUP2 MSTORE PUSH1 0x20 ADD SWAP1 DUP2 MSTORE PUSH1 0x20 ADD PUSH1 0x0 KECCAK256 PUSH1 0x0 CALLER PUSH20 0xFFFFFFFFFFFFFFFFFFFFFFFFFFFFFFFFFFFFFFFF AND PUSH20 0xFFFFFFFFFFFFFFFFFFFFFFFFFFFFFFFFFFFFFFFF AND DUP2 MSTORE PUSH1 0x20 ADD SWAP1 DUP2 MSTORE PUSH1 0x20 ADD PUSH1 0x0 KECCAK256 PUSH1 0x0 PUSH2 0x100 EXP DUP2 SLOAD DUP2 PUSH1 0xFF MUL NOT AND SWAP1 DUP4 PUSH1 0xFF AND MUL OR SWAP1 SSTORE POP DUP3 PUSH1 0xFF AND PUSH1 0x4 PUSH1 0x0 DUP7 PUSH2 0xFFFF AND PUSH2 0xFFFF AND DUP2 MSTORE PUSH1 0x20 ADD SWAP1 DUP2 MSTORE PUSH1 0x20 ADD PUSH1 0x0 KECCAK256 PUSH1 0x2 ADD PUSH1 0x4 DUP3 DUP3 DUP3 SWAP1 SLOAD SWAP1 PUSH2 0x100 EXP SWAP1 DIV PUSH4 0xFFFFFFFF AND PUSH2 0x17D4 SWAP2 SWAP1 PUSH2 0x48D2 JUMP JUMPDEST SWAP3 POP PUSH2 0x100 EXP DUP2 SLOAD DUP2 PUSH4 0xFFFFFFFF MUL NOT AND SWAP1 DUP4 PUSH4 0xFFFFFFFF AND MUL OR SWAP1 SSTORE POP PUSH1 0x1 PUSH1 0x4 PUSH1 0x0 DUP7 PUSH2 0xFFFF AND PUSH2 0xFFFF AND DUP2 MSTORE PUSH1 0x20 ADD SWAP1 DUP2 MSTORE PUSH1 0x20 ADD PUSH1 0x0 KECCAK256 PUSH1 0x2 ADD PUSH1 0x0 DUP3 DUP3 DUP3 SWAP1 SLOAD SWAP1 PUSH2 0x100 EXP SWAP1 DIV PUSH4 0xFFFFFFFF AND PUSH2 0x1830 SWAP2 SWAP1 PUSH2 0x48D2 JUMP JUMPDEST SWAP3 POP PUSH2 0x100 EXP DUP2 SLOAD DUP2 PUSH4 0xFFFFFFFF MUL NOT AND SWAP1 DUP4 PUSH4 0xFFFFFFFF AND MUL OR SWAP1 SSTORE POP POP POP POP POP JUMP JUMPDEST PUSH1 0x7 PUSH1 0x4 SWAP1 SLOAD SWAP1 PUSH2 0x100 EXP SWAP1 DIV PUSH2 0xFFFF AND DUP2 JUMP JUMPDEST PUSH2 0x1870 PUSH2 0x30CC JUMP JUMPDEST PUSH2 0x187A PUSH1 0x0 PUSH2 0x314A JUMP JUMPDEST JUMP JUMPDEST PUSH1 0x0 DUP1 PUSH1 0x0 SWAP1 SLOAD SWAP1 PUSH2 0x100 EXP SWAP1 DIV PUSH20 0xFFFFFFFFFFFFFFFFFFFFFFFFFFFFFFFFFFFFFFFF AND SWAP1 POP SWAP1 JUMP JUMPDEST PUSH1 0x60 PUSH1 0x0 DUP3 MLOAD PUSH8 0xFFFFFFFFFFFFFFFF DUP2 GT ISZERO PUSH2 0x18C4 JUMPI PUSH2 0x18C3 PUSH2 0x4BEA JUMP JUMPDEST JUMPDEST PUSH1 0x40 MLOAD SWAP1 DUP1 DUP3 MSTORE DUP1 PUSH1 0x20 MUL PUSH1 0x20 ADD DUP3 ADD PUSH1 0x40 MSTORE DUP1 ISZERO PUSH2 0x18F2 JUMPI DUP2 PUSH1 0x20 ADD PUSH1 0x20 DUP3 MUL DUP1 CALLDATASIZE DUP4 CALLDATACOPY DUP1 DUP3 ADD SWAP2 POP POP SWAP1 POP JUMPDEST POP SWAP1 POP PUSH1 0x0 JUMPDEST DUP4 MLOAD DUP2 PUSH1 0xFF AND LT ISZERO PUSH2 0x19C4 JUMPI PUSH1 0x5 PUSH1 0x0 DUP6 DUP4 PUSH1 0xFF AND DUP2 MLOAD DUP2 LT PUSH2 0x191E JUMPI PUSH2 0x191D PUSH2 0x4BBB JUMP JUMPDEST JUMPDEST PUSH1 0x20 MUL PUSH1 0x20 ADD ADD MLOAD PUSH2 0xFFFF AND PUSH2 0xFFFF AND DUP2 MSTORE PUSH1 0x20 ADD SWAP1 DUP2 MSTORE PUSH1 0x20 ADD PUSH1 0x0 KECCAK256 PUSH1 0x0 CALLER PUSH20 0xFFFFFFFFFFFFFFFFFFFFFFFFFFFFFFFFFFFFFFFF AND PUSH20 0xFFFFFFFFFFFFFFFFFFFFFFFFFFFFFFFFFFFFFFFF AND DUP2 MSTORE PUSH1 0x20 ADD SWAP1 DUP2 MSTORE PUSH1 0x20 ADD PUSH1 0x0 KECCAK256 PUSH1 0x0 SWAP1 SLOAD SWAP1 PUSH2 0x100 EXP SWAP1 DIV PUSH1 0xFF AND DUP3 DUP3 PUSH1 0xFF AND DUP2 MLOAD DUP2 LT PUSH2 0x199D JUMPI PUSH2 0x199C PUSH2 0x4BBB JUMP JUMPDEST JUMPDEST PUSH1 0x20 MUL PUSH1 0x20 ADD ADD SWAP1 PUSH1 0xFF AND SWAP1 DUP2 PUSH1 0xFF AND DUP2 MSTORE POP POP DUP1 DUP1 PUSH2 0x19BC SWAP1 PUSH2 0x4B04 JUMP JUMPDEST SWAP2 POP POP PUSH2 0x18F8 JUMP JUMPDEST POP DUP1 SWAP2 POP POP SWAP2 SWAP1 POP JUMP JUMPDEST DUP2 PUSH1 0x0 PUSH1 0x2 DUP2 GT ISZERO PUSH2 0x19E3 JUMPI PUSH2 0x19E2 PUSH2 0x4B5D JUMP JUMPDEST JUMPDEST PUSH1 0x6 PUSH1 0x0 DUP4 PUSH2 0xFFFF AND PUSH2 0xFFFF AND DUP2 MSTORE PUSH1 0x20 ADD SWAP1 DUP2 MSTORE PUSH1 0x20 ADD PUSH1 0x0 KECCAK256 PUSH1 0x6 ADD PUSH1 0x0 SWAP1 SLOAD SWAP1 PUSH2 0x100 EXP SWAP1 DIV PUSH1 0xFF AND PUSH1 0x2 DUP2 GT ISZERO PUSH2 0x1A21 JUMPI PUSH2 0x1A20 PUSH2 0x4B5D JUMP JUMPDEST JUMPDEST EQ ISZERO PUSH2 0x1A62 JUMPI PUSH1 0x40 MLOAD PUSH32 0x8C379A000000000000000000000000000000000000000000000000000000000 DUP2 MSTORE PUSH1 0x4 ADD PUSH2 0x1A59 SWAP1 PUSH2 0x4517 JUMP JUMPDEST PUSH1 0x40 MLOAD DUP1 SWAP2 SUB SWAP1 REVERT JUMPDEST DUP3 PUSH1 0x2 PUSH1 0x0 CALLER PUSH20 0xFFFFFFFFFFFFFFFFFFFFFFFFFFFFFFFFFFFFFFFF AND PUSH20 0xFFFFFFFFFFFFFFFFFFFFFFFFFFFFFFFFFFFFFFFF AND DUP2 MSTORE PUSH1 0x20 ADD SWAP1 DUP2 MSTORE PUSH1 0x20 ADD PUSH1 0x0 KECCAK256 PUSH1 0x0 SWAP1 SLOAD SWAP1 PUSH2 0x100 EXP SWAP1 DIV PUSH1 0xFF AND PUSH2 0x1AEF JUMPI PUSH1 0x40 MLOAD PUSH32 0x8C379A000000000000000000000000000000000000000000000000000000000 DUP2 MSTORE PUSH1 0x4 ADD PUSH2 0x1AE6 SWAP1 PUSH2 0x44B7 JUMP JUMPDEST PUSH1 0x40 MLOAD DUP1 SWAP2 SUB SWAP1 REVERT JUMPDEST PUSH1 0x0 PUSH1 0x5 PUSH1 0x0 DUP4 PUSH2 0xFFFF AND PUSH2 0xFFFF AND DUP2 MSTORE PUSH1 0x20 ADD SWAP1 DUP2 MSTORE PUSH1 0x20 ADD PUSH1 0x0 KECCAK256 PUSH1 0x0 CALLER PUSH20 0xFFFFFFFFFFFFFFFFFFFFFFFFFFFFFFFFFFFFFFFF AND PUSH20 0xFFFFFFFFFFFFFFFFFFFFFFFFFFFFFFFFFFFFFFFF AND DUP2 MSTORE PUSH1 0x20 ADD SWAP1 DUP2 MSTORE PUSH1 0x20 ADD PUSH1 0x0 KECCAK256 PUSH1 0x0 SWAP1 SLOAD SWAP1 PUSH2 0x100 EXP SWAP1 DIV PUSH1 0xFF AND PUSH1 0xFF AND EQ PUSH2 0x1B9A JUMPI PUSH1 0x40 MLOAD PUSH32 0x8C379A000000000000000000000000000000000000000000000000000000000 DUP2 MSTORE PUSH1 0x4 ADD PUSH2 0x1B91 SWAP1 PUSH2 0x45D7 JUMP JUMPDEST PUSH1 0x40 MLOAD DUP1 SWAP2 SUB SWAP1 REVERT JUMPDEST DUP3 PUSH1 0xFF AND PUSH1 0x0 LT DUP1 ISZERO PUSH2 0x1BB0 JUMPI POP PUSH1 0xB DUP4 PUSH1 0xFF AND LT JUMPDEST PUSH2 0x1BEF JUMPI PUSH1 0x40 MLOAD PUSH32 0x8C379A000000000000000000000000000000000000000000000000000000000 DUP2 MSTORE PUSH1 0x4 ADD PUSH2 0x1BE6 SWAP1 PUSH2 0x45F7 JUMP JUMPDEST PUSH1 0x40 MLOAD DUP1 SWAP2 SUB SWAP1 REVERT JUMPDEST PUSH1 0x2 DUP1 DUP2 GT ISZERO PUSH2 0x1C02 JUMPI PUSH2 0x1C01 PUSH2 0x4B5D JUMP JUMPDEST JUMPDEST PUSH1 0x6 PUSH1 0x0 DUP7 PUSH2 0xFFFF AND PUSH2 0xFFFF AND DUP2 MSTORE PUSH1 0x20 ADD SWAP1 DUP2 MSTORE PUSH1 0x20 ADD PUSH1 0x0 KECCAK256 PUSH1 0x6 ADD PUSH1 0x0 SWAP1 SLOAD SWAP1 PUSH2 0x100 EXP SWAP1 DIV PUSH1 0xFF AND PUSH1 0x2 DUP2 GT ISZERO PUSH2 0x1C40 JUMPI PUSH2 0x1C3F PUSH2 0x4B5D JUMP JUMPDEST JUMPDEST EQ PUSH2 0x1C80 JUMPI PUSH1 0x40 MLOAD PUSH32 0x8C379A000000000000000000000000000000000000000000000000000000000 DUP2 MSTORE PUSH1 0x4 ADD PUSH2 0x1C77 SWAP1 PUSH2 0x44D7 JUMP JUMPDEST PUSH1 0x40 MLOAD DUP1 SWAP2 SUB SWAP1 REVERT JUMPDEST DUP3 PUSH1 0x5 PUSH1 0x0 DUP7 PUSH2 0xFFFF AND PUSH2 0xFFFF AND DUP2 MSTORE PUSH1 0x20 ADD SWAP1 DUP2 MSTORE PUSH1 0x20 ADD PUSH1 0x0 KECCAK256 PUSH1 0x0 CALLER PUSH20 0xFFFFFFFFFFFFFFFFFFFFFFFFFFFFFFFFFFFFFFFF AND PUSH20 0xFFFFFFFFFFFFFFFFFFFFFFFFFFFFFFFFFFFFFFFF AND DUP2 MSTORE PUSH1 0x20 ADD SWAP1 DUP2 MSTORE PUSH1 0x20 ADD PUSH1 0x0 KECCAK256 PUSH1 0x0 PUSH2 0x100 EXP DUP2 SLOAD DUP2 PUSH1 0xFF MUL NOT AND SWAP1 DUP4 PUSH1 0xFF AND MUL OR SWAP1 SSTORE POP DUP3 PUSH1 0xFF AND PUSH1 0x6 PUSH1 0x0 DUP7 PUSH2 0xFFFF AND PUSH2 0xFFFF AND DUP2 MSTORE PUSH1 0x20 ADD SWAP1 DUP2 MSTORE PUSH1 0x20 ADD PUSH1 0x0 KECCAK256 PUSH1 0x2 ADD PUSH1 0x4 DUP3 DUP3 DUP3 SWAP1 SLOAD SWAP1 PUSH2 0x100 EXP SWAP1 DIV PUSH4 0xFFFFFFFF AND PUSH2 0x1D31 SWAP2 SWAP1 PUSH2 0x48D2 JUMP JUMPDEST SWAP3 POP PUSH2 0x100 EXP DUP2 SLOAD DUP2 PUSH4 0xFFFFFFFF MUL NOT AND SWAP1 DUP4 PUSH4 0xFFFFFFFF AND MUL OR SWAP1 SSTORE POP PUSH1 0x1 PUSH1 0x6 PUSH1 0x0 DUP7 PUSH2 0xFFFF AND PUSH2 0xFFFF AND DUP2 MSTORE PUSH1 0x20 ADD SWAP1 DUP2 MSTORE PUSH1 0x20 ADD PUSH1 0x0 KECCAK256 PUSH1 0x2 ADD PUSH1 0x0 DUP3 DUP3 DUP3 SWAP1 SLOAD SWAP1 PUSH2 0x100 EXP SWAP1 DIV PUSH4 0xFFFFFFFF AND PUSH2 0x1D8D SWAP2 SWAP1 PUSH2 0x48D2 JUMP JUMPDEST SWAP3 POP PUSH2 0x100 EXP DUP2 SLOAD DUP2 PUSH4 0xFFFFFFFF MUL NOT AND SWAP1 DUP4 PUSH4 0xFFFFFFFF AND MUL OR SWAP1 SSTORE POP POP POP POP POP JUMP JUMPDEST PUSH2 0x1DB9 PUSH2 0x30CC JUMP JUMPDEST DUP1 PUSH1 0x1 PUSH1 0x0 PUSH2 0x100 EXP DUP2 SLOAD DUP2 PUSH20 0xFFFFFFFFFFFFFFFFFFFFFFFFFFFFFFFFFFFFFFFF MUL NOT AND SWAP1 DUP4 PUSH20 0xFFFFFFFFFFFFFFFFFFFFFFFFFFFFFFFFFFFFFFFF AND MUL OR SWAP1 SSTORE POP POP JUMP JUMPDEST PUSH1 0x6 PUSH1 0x20 MSTORE DUP1 PUSH1 0x0 MSTORE PUSH1 0x40 PUSH1 0x0 KECCAK256 PUSH1 0x0 SWAP2 POP SWAP1 POP DUP1 PUSH1 0x0 ADD PUSH1 0x0 SWAP1 SLOAD SWAP1 PUSH2 0x100 EXP SWAP1 DIV PUSH2 0xFFFF AND SWAP1 DUP1 PUSH1 0x1 ADD DUP1 SLOAD PUSH2 0x1E34 SWAP1 PUSH2 0x4A76 JUMP JUMPDEST DUP1 PUSH1 0x1F ADD PUSH1 0x20 DUP1 SWAP2 DIV MUL PUSH1 0x20 ADD PUSH1 0x40 MLOAD SWAP1 DUP2 ADD PUSH1 0x40 MSTORE DUP1 SWAP3 SWAP2 SWAP1 DUP2 DUP2 MSTORE PUSH1 0x20 ADD DUP3 DUP1 SLOAD PUSH2 0x1E60 SWAP1 PUSH2 0x4A76 JUMP JUMPDEST DUP1 ISZERO PUSH2 0x1EAD JUMPI DUP1 PUSH1 0x1F LT PUSH2 0x1E82 JUMPI PUSH2 0x100 DUP1 DUP4 SLOAD DIV MUL DUP4 MSTORE SWAP2 PUSH1 0x20 ADD SWAP2 PUSH2 0x1EAD JUMP JUMPDEST DUP3 ADD SWAP2 SWAP1 PUSH1 0x0 MSTORE PUSH1 0x20 PUSH1 0x0 KECCAK256 SWAP1 JUMPDEST DUP2 SLOAD DUP2 MSTORE SWAP1 PUSH1 0x1 ADD SWAP1 PUSH1 0x20 ADD DUP1 DUP4 GT PUSH2 0x1E90 JUMPI DUP3 SWAP1 SUB PUSH1 0x1F AND DUP3 ADD SWAP2 JUMPDEST POP POP POP POP POP SWAP1 DUP1 PUSH1 0x2 ADD PUSH1 0x0 SWAP1 SLOAD SWAP1 PUSH2 0x100 EXP SWAP1 DIV PUSH4 0xFFFFFFFF AND SWAP1 DUP1 PUSH1 0x2 ADD PUSH1 0x4 SWAP1 SLOAD SWAP1 PUSH2 0x100 EXP SWAP1 DIV PUSH4 0xFFFFFFFF AND SWAP1 DUP1 PUSH1 0x2 ADD PUSH1 0x8 SWAP1 SLOAD SWAP1 PUSH2 0x100 EXP SWAP1 DIV PUSH20 0xFFFFFFFFFFFFFFFFFFFFFFFFFFFFFFFFFFFFFFFF AND SWAP1 DUP1 PUSH1 0x3 ADD SLOAD SWAP1 DUP1 PUSH1 0x4 ADD SLOAD SWAP1 DUP1 PUSH1 0x5 ADD SLOAD SWAP1 DUP1 PUSH1 0x6 ADD PUSH1 0x0 SWAP1 SLOAD SWAP1 PUSH2 0x100 EXP SWAP1 DIV PUSH1 0xFF AND SWAP1 POP DUP10 JUMP JUMPDEST DUP2 PUSH1 0x0 PUSH1 0x2 DUP2 GT ISZERO PUSH2 0x1F43 JUMPI PUSH2 0x1F42 PUSH2 0x4B5D JUMP JUMPDEST JUMPDEST PUSH1 0x6 PUSH1 0x0 DUP4 PUSH2 0xFFFF AND PUSH2 0xFFFF AND DUP2 MSTORE PUSH1 0x20 ADD SWAP1 DUP2 MSTORE PUSH1 0x20 ADD PUSH1 0x0 KECCAK256 PUSH1 0x6 ADD PUSH1 0x0 SWAP1 SLOAD SWAP1 PUSH2 0x100 EXP SWAP1 DIV PUSH1 0xFF AND PUSH1 0x2 DUP2 GT ISZERO PUSH2 0x1F81 JUMPI PUSH2 0x1F80 PUSH2 0x4B5D JUMP JUMPDEST JUMPDEST EQ ISZERO PUSH2 0x1FC2 JUMPI PUSH1 0x40 MLOAD PUSH32 0x8C379A000000000000000000000000000000000000000000000000000000000 DUP2 MSTORE PUSH1 0x4 ADD PUSH2 0x1FB9 SWAP1 PUSH2 0x4517 JUMP JUMPDEST PUSH1 0x40 MLOAD DUP1 SWAP2 SUB SWAP1 REVERT JUMPDEST DUP3 PUSH1 0x2 PUSH1 0x0 CALLER PUSH20 0xFFFFFFFFFFFFFFFFFFFFFFFFFFFFFFFFFFFFFFFF AND PUSH20 0xFFFFFFFFFFFFFFFFFFFFFFFFFFFFFFFFFFFFFFFF AND DUP2 MSTORE PUSH1 0x20 ADD SWAP1 DUP2 MSTORE PUSH1 0x20 ADD PUSH1 0x0 KECCAK256 PUSH1 0x0 SWAP1 SLOAD SWAP1 PUSH2 0x100 EXP SWAP1 DIV PUSH1 0xFF AND PUSH2 0x204F JUMPI PUSH1 0x40 MLOAD PUSH32 0x8C379A000000000000000000000000000000000000000000000000000000000 DUP2 MSTORE PUSH1 0x4 ADD PUSH2 0x2046 SWAP1 PUSH2 0x44B7 JUMP JUMPDEST PUSH1 0x40 MLOAD DUP1 SWAP2 SUB SWAP1 REVERT JUMPDEST PUSH1 0x0 PUSH1 0x5 PUSH1 0x0 DUP4 PUSH2 0xFFFF AND PUSH2 0xFFFF AND DUP2 MSTORE PUSH1 0x20 ADD SWAP1 DUP2 MSTORE PUSH1 0x20 ADD PUSH1 0x0 KECCAK256 PUSH1 0x0 CALLER PUSH20 0xFFFFFFFFFFFFFFFFFFFFFFFFFFFFFFFFFFFFFFFF AND PUSH20 0xFFFFFFFFFFFFFFFFFFFFFFFFFFFFFFFFFFFFFFFF AND DUP2 MSTORE PUSH1 0x20 ADD SWAP1 DUP2 MSTORE PUSH1 0x20 ADD PUSH1 0x0 KECCAK256 PUSH1 0x0 SWAP1 SLOAD SWAP1 PUSH2 0x100 EXP SWAP1 DIV PUSH1 0xFF AND PUSH1 0xFF AND EQ PUSH2 0x20FA JUMPI PUSH1 0x40 MLOAD PUSH32 0x8C379A000000000000000000000000000000000000000000000000000000000 DUP2 MSTORE PUSH1 0x4 ADD PUSH2 0x20F1 SWAP1 PUSH2 0x45D7 JUMP JUMPDEST PUSH1 0x40 MLOAD DUP1 SWAP2 SUB SWAP1 REVERT JUMPDEST PUSH1 0x1 PUSH1 0x2 DUP2 GT ISZERO PUSH2 0x210E JUMPI PUSH2 0x210D PUSH2 0x4B5D JUMP JUMPDEST JUMPDEST PUSH1 0x6 PUSH1 0x0 DUP7 PUSH2 0xFFFF AND PUSH2 0xFFFF AND DUP2 MSTORE PUSH1 0x20 ADD SWAP1 DUP2 MSTORE PUSH1 0x20 ADD PUSH1 0x0 KECCAK256 PUSH1 0x6 ADD PUSH1 0x0 SWAP1 SLOAD SWAP1 PUSH2 0x100 EXP SWAP1 DIV PUSH1 0xFF AND PUSH1 0x2 DUP2 GT ISZERO PUSH2 0x214C JUMPI PUSH2 0x214B PUSH2 0x4B5D JUMP JUMPDEST JUMPDEST EQ PUSH2 0x218C JUMPI PUSH1 0x40 MLOAD PUSH32 0x8C379A000000000000000000000000000000000000000000000000000000000 DUP2 MSTORE PUSH1 0x4 ADD PUSH2 0x2183 SWAP1 PUSH2 0x44D7 JUMP JUMPDEST PUSH1 0x40 MLOAD DUP1 SWAP2 SUB SWAP1 REVERT JUMPDEST PUSH1 0x0 PUSH1 0x1 DUP2 GT ISZERO PUSH2 0x21A0 JUMPI PUSH2 0x219F PUSH2 0x4B5D JUMP JUMPDEST JUMPDEST DUP4 PUSH1 0x1 DUP2 GT ISZERO PUSH2 0x21B3 JUMPI PUSH2 0x21B2 PUSH2 0x4B5D JUMP JUMPDEST JUMPDEST EQ ISZERO PUSH2 0x228C JUMPI PUSH1 0x1 PUSH1 0x5 PUSH1 0x0 DUP7 PUSH2 0xFFFF AND PUSH2 0xFFFF AND DUP2 MSTORE PUSH1 0x20 ADD SWAP1 DUP2 MSTORE PUSH1 0x20 ADD PUSH1 0x0 KECCAK256 PUSH1 0x0 CALLER PUSH20 0xFFFFFFFFFFFFFFFFFFFFFFFFFFFFFFFFFFFFFFFF AND PUSH20 0xFFFFFFFFFFFFFFFFFFFFFFFFFFFFFFFFFFFFFFFF AND DUP2 MSTORE PUSH1 0x20 ADD SWAP1 DUP2 MSTORE PUSH1 0x20 ADD PUSH1 0x0 KECCAK256 PUSH1 0x0 PUSH2 0x100 EXP DUP2 SLOAD DUP2 PUSH1 0xFF MUL NOT AND SWAP1 DUP4 PUSH1 0xFF AND MUL OR SWAP1 SSTORE POP PUSH1 0x1 PUSH1 0x6 PUSH1 0x0 DUP7 PUSH2 0xFFFF AND PUSH2 0xFFFF AND DUP2 MSTORE PUSH1 0x20 ADD SWAP1 DUP2 MSTORE PUSH1 0x20 ADD PUSH1 0x0 KECCAK256 PUSH1 0x2 ADD PUSH1 0x4 DUP3 DUP3 DUP3 SWAP1 SLOAD SWAP1 PUSH2 0x100 EXP SWAP1 DIV PUSH4 0xFFFFFFFF AND PUSH2 0x2269 SWAP2 SWAP1 PUSH2 0x48D2 JUMP JUMPDEST SWAP3 POP PUSH2 0x100 EXP DUP2 SLOAD DUP2 PUSH4 0xFFFFFFFF MUL NOT AND SWAP1 DUP4 PUSH4 0xFFFFFFFF AND MUL OR SWAP1 SSTORE POP PUSH2 0x235B JUMP JUMPDEST PUSH1 0xA PUSH1 0x5 PUSH1 0x0 DUP7 PUSH2 0xFFFF AND PUSH2 0xFFFF AND DUP2 MSTORE PUSH1 0x20 ADD SWAP1 DUP2 MSTORE PUSH1 0x20 ADD PUSH1 0x0 KECCAK256 PUSH1 0x0 CALLER PUSH20 0xFFFFFFFFFFFFFFFFFFFFFFFFFFFFFFFFFFFFFFFF AND PUSH20 0xFFFFFFFFFFFFFFFFFFFFFFFFFFFFFFFFFFFFFFFF AND DUP2 MSTORE PUSH1 0x20 ADD SWAP1 DUP2 MSTORE PUSH1 0x20 ADD PUSH1 0x0 KECCAK256 PUSH1 0x0 PUSH2 0x100 EXP DUP2 SLOAD DUP2 PUSH1 0xFF MUL NOT AND SWAP1 DUP4 PUSH1 0xFF AND MUL OR SWAP1 SSTORE POP PUSH1 0xA PUSH1 0x6 PUSH1 0x0 DUP7 PUSH2 0xFFFF AND PUSH2 0xFFFF AND DUP2 MSTORE PUSH1 0x20 ADD SWAP1 DUP2 MSTORE PUSH1 0x20 ADD PUSH1 0x0 KECCAK256 PUSH1 0x2 ADD PUSH1 0x4 DUP3 DUP3 DUP3 SWAP1 SLOAD SWAP1 PUSH2 0x100 EXP SWAP1 DIV PUSH4 0xFFFFFFFF AND PUSH2 0x233C SWAP2 SWAP1 PUSH2 0x48D2 JUMP JUMPDEST SWAP3 POP PUSH2 0x100 EXP DUP2 SLOAD DUP2 PUSH4 0xFFFFFFFF MUL NOT AND SWAP1 DUP4 PUSH4 0xFFFFFFFF AND MUL OR SWAP1 SSTORE POP JUMPDEST PUSH1 0x1 PUSH1 0x6 PUSH1 0x0 DUP7 PUSH2 0xFFFF AND PUSH2 0xFFFF AND DUP2 MSTORE PUSH1 0x20 ADD SWAP1 DUP2 MSTORE PUSH1 0x20 ADD PUSH1 0x0 KECCAK256 PUSH1 0x2 ADD PUSH1 0x0 DUP3 DUP3 DUP3 SWAP1 SLOAD SWAP1 PUSH2 0x100 EXP SWAP1 DIV PUSH4 0xFFFFFFFF AND PUSH2 0x2399 SWAP2 SWAP1 PUSH2 0x48D2 JUMP JUMPDEST SWAP3 POP PUSH2 0x100 EXP DUP2 SLOAD DUP2 PUSH4 0xFFFFFFFF MUL NOT AND SWAP1 DUP4 PUSH4 0xFFFFFFFF AND MUL OR SWAP1 SSTORE POP POP POP POP POP JUMP JUMPDEST PUSH1 0x4 PUSH1 0x20 MSTORE DUP1 PUSH1 0x0 MSTORE PUSH1 0x40 PUSH1 0x0 KECCAK256 PUSH1 0x0 SWAP2 POP SWAP1 POP DUP1 PUSH1 0x0 ADD PUSH1 0x0 SWAP1 SLOAD SWAP1 PUSH2 0x100 EXP SWAP1 DIV PUSH2 0xFFFF AND SWAP1 DUP1 PUSH1 0x1 ADD DUP1 SLOAD PUSH2 0x23F4 SWAP1 PUSH2 0x4A76 JUMP JUMPDEST DUP1 PUSH1 0x1F ADD PUSH1 0x20 DUP1 SWAP2 DIV MUL PUSH1 0x20 ADD PUSH1 0x40 MLOAD SWAP1 DUP2 ADD PUSH1 0x40 MSTORE DUP1 SWAP3 SWAP2 SWAP1 DUP2 DUP2 MSTORE PUSH1 0x20 ADD DUP3 DUP1 SLOAD PUSH2 0x2420 SWAP1 PUSH2 0x4A76 JUMP JUMPDEST DUP1 ISZERO PUSH2 0x246D JUMPI DUP1 PUSH1 0x1F LT PUSH2 0x2442 JUMPI PUSH2 0x100 DUP1 DUP4 SLOAD DIV MUL DUP4 MSTORE SWAP2 PUSH1 0x20 ADD SWAP2 PUSH2 0x246D JUMP JUMPDEST DUP3 ADD SWAP2 SWAP1 PUSH1 0x0 MSTORE PUSH1 0x20 PUSH1 0x0 KECCAK256 SWAP1 JUMPDEST DUP2 SLOAD DUP2 MSTORE SWAP1 PUSH1 0x1 ADD SWAP1 PUSH1 0x20 ADD DUP1 DUP4 GT PUSH2 0x2450 JUMPI DUP3 SWAP1 SUB PUSH1 0x1F AND DUP3 ADD SWAP2 JUMPDEST POP POP POP POP POP SWAP1 DUP1 PUSH1 0x2 ADD PUSH1 0x0 SWAP1 SLOAD SWAP1 PUSH2 0x100 EXP SWAP1 DIV PUSH4 0xFFFFFFFF AND SWAP1 DUP1 PUSH1 0x2 ADD PUSH1 0x4 SWAP1 SLOAD SWAP1 PUSH2 0x100 EXP SWAP1 DIV PUSH4 0xFFFFFFFF AND SWAP1 DUP1 PUSH1 0x2 ADD PUSH1 0x8 SWAP1 SLOAD SWAP1 PUSH2 0x100 EXP SWAP1 DIV PUSH20 0xFFFFFFFFFFFFFFFFFFFFFFFFFFFFFFFFFFFFFFFF AND SWAP1 DUP1 PUSH1 0x3 ADD SLOAD SWAP1 DUP1 PUSH1 0x4 ADD SLOAD SWAP1 DUP1 PUSH1 0x5 ADD SLOAD SWAP1 DUP1 PUSH1 0x6 ADD PUSH1 0x0 SWAP1 SLOAD SWAP1 PUSH2 0x100 EXP SWAP1 DIV PUSH1 0xFF AND SWAP1 POP DUP10 JUMP JUMPDEST DUP1 PUSH1 0x0 PUSH1 0x2 DUP2 GT ISZERO PUSH2 0x2503 JUMPI PUSH2 0x2502 PUSH2 0x4B5D JUMP JUMPDEST JUMPDEST PUSH1 0x6 PUSH1 0x0 DUP4 PUSH2 0xFFFF AND PUSH2 0xFFFF AND DUP2 MSTORE PUSH1 0x20 ADD SWAP1 DUP2 MSTORE PUSH1 0x20 ADD PUSH1 0x0 KECCAK256 PUSH1 0x6 ADD PUSH1 0x0 SWAP1 SLOAD SWAP1 PUSH2 0x100 EXP SWAP1 DIV PUSH1 0xFF AND PUSH1 0x2 DUP2 GT ISZERO PUSH2 0x2541 JUMPI PUSH2 0x2540 PUSH2 0x4B5D JUMP JUMPDEST JUMPDEST EQ ISZERO PUSH2 0x2582 JUMPI PUSH1 0x40 MLOAD PUSH32 0x8C379A000000000000000000000000000000000000000000000000000000000 DUP2 MSTORE PUSH1 0x4 ADD PUSH2 0x2579 SWAP1 PUSH2 0x4517 JUMP JUMPDEST PUSH1 0x40 MLOAD DUP1 SWAP2 SUB SWAP1 REVERT JUMPDEST CALLER PUSH1 0x2 PUSH1 0x0 DUP3 PUSH20 0xFFFFFFFFFFFFFFFFFFFFFFFFFFFFFFFFFFFFFFFF AND PUSH20 0xFFFFFFFFFFFFFFFFFFFFFFFFFFFFFFFFFFFFFFFF AND DUP2 MSTORE PUSH1 0x20 ADD SWAP1 DUP2 MSTORE PUSH1 0x20 ADD PUSH1 0x0 KECCAK256 PUSH1 0x0 SWAP1 SLOAD SWAP1 PUSH2 0x100 EXP SWAP1 DIV PUSH1 0xFF AND PUSH2 0x260F JUMPI PUSH1 0x40 MLOAD PUSH32 0x8C379A000000000000000000000000000000000000000000000000000000000 DUP2 MSTORE PUSH1 0x4 ADD PUSH2 0x2606 SWAP1 PUSH2 0x4617 JUMP JUMPDEST PUSH1 0x40 MLOAD DUP1 SWAP2 SUB SWAP1 REVERT JUMPDEST PUSH1 0x6 PUSH1 0x0 DUP5 PUSH2 0xFFFF AND PUSH2 0xFFFF AND DUP2 MSTORE PUSH1 0x20 ADD SWAP1 DUP2 MSTORE PUSH1 0x20 ADD PUSH1 0x0 KECCAK256 PUSH1 0x4 ADD SLOAD NUMBER LT ISZERO PUSH2 0x2670 JUMPI PUSH1 0x40 MLOAD PUSH32 0x8C379A000000000000000000000000000000000000000000000000000000000 DUP2 MSTORE PUSH1 0x4 ADD PUSH2 0x2667 SWAP1 PUSH2 0x4637 JUMP JUMPDEST PUSH1 0x40 MLOAD DUP1 SWAP2 SUB SWAP1 REVERT JUMPDEST PUSH2 0x2679 DUP4 PUSH2 0x320E JUMP JUMPDEST POP POP POP JUMP JUMPDEST PUSH1 0x1 PUSH1 0x0 SWAP1 SLOAD SWAP1 PUSH2 0x100 EXP SWAP1 DIV PUSH20 0xFFFFFFFFFFFFFFFFFFFFFFFFFFFFFFFFFFFFFFFF AND PUSH20 0xFFFFFFFFFFFFFFFFFFFFFFFFFFFFFFFFFFFFFFFF AND CALLER PUSH20 0xFFFFFFFFFFFFFFFFFFFFFFFFFFFFFFFFFFFFFFFF AND EQ PUSH2 0x270E JUMPI PUSH1 0x40 MLOAD PUSH32 0x8C379A000000000000000000000000000000000000000000000000000000000 DUP2 MSTORE PUSH1 0x4 ADD PUSH2 0x2705 SWAP1 PUSH2 0x4557 JUMP JUMPDEST PUSH1 0x40 MLOAD DUP1 SWAP2 SUB SWAP1 REVERT JUMPDEST DUP1 PUSH1 0x0 PUSH20 0xFFFFFFFFFFFFFFFFFFFFFFFFFFFFFFFFFFFFFFFF AND DUP2 PUSH20 0xFFFFFFFFFFFFFFFFFFFFFFFFFFFFFFFFFFFFFFFF AND EQ ISZERO PUSH2 0x277F JUMPI PUSH1 0x40 MLOAD PUSH32 0x8C379A000000000000000000000000000000000000000000000000000000000 DUP2 MSTORE PUSH1 0x4 ADD PUSH2 0x2776 SWAP1 PUSH2 0x45B7 JUMP JUMPDEST PUSH1 0x40 MLOAD DUP1 SWAP2 SUB SWAP1 REVERT JUMPDEST PUSH1 0x2 PUSH1 0x0 DUP4 PUSH20 0xFFFFFFFFFFFFFFFFFFFFFFFFFFFFFFFFFFFFFFFF AND PUSH20 0xFFFFFFFFFFFFFFFFFFFFFFFFFFFFFFFFFFFFFFFF AND DUP2 MSTORE PUSH1 0x20 ADD SWAP1 DUP2 MSTORE PUSH1 0x20 ADD PUSH1 0x0 KECCAK256 PUSH1 0x0 SWAP1 SLOAD SWAP1 PUSH2 0x100 EXP SWAP1 DIV PUSH1 0xFF AND ISZERO PUSH2 0x280C JUMPI PUSH1 0x40 MLOAD PUSH32 0x8C379A000000000000000000000000000000000000000000000000000000000 DUP2 MSTORE PUSH1 0x4 ADD PUSH2 0x2803 SWAP1 PUSH2 0x4577 JUMP JUMPDEST PUSH1 0x40 MLOAD DUP1 SWAP2 SUB SWAP1 REVERT JUMPDEST PUSH1 0x1 PUSH1 0x7 PUSH1 0x4 SWAP1 SLOAD SWAP1 PUSH2 0x100 EXP SWAP1 DIV PUSH2 0xFFFF AND PUSH2 0x2829 SWAP2 SWAP1 PUSH2 0x4844 JUMP JUMPDEST PUSH1 0x7 PUSH1 0x4 PUSH2 0x100 EXP DUP2 SLOAD DUP2 PUSH2 0xFFFF MUL NOT AND SWAP1 DUP4 PUSH2 0xFFFF AND MUL OR SWAP1 SSTORE POP PUSH1 0x1 PUSH1 0x2 PUSH1 0x0 DUP5 PUSH20 0xFFFFFFFFFFFFFFFFFFFFFFFFFFFFFFFFFFFFFFFF AND PUSH20 0xFFFFFFFFFFFFFFFFFFFFFFFFFFFFFFFFFFFFFFFF AND DUP2 MSTORE PUSH1 0x20 ADD SWAP1 DUP2 MSTORE PUSH1 0x20 ADD PUSH1 0x0 KECCAK256 PUSH1 0x0 PUSH2 0x100 EXP DUP2 SLOAD DUP2 PUSH1 0xFF MUL NOT AND SWAP1 DUP4 ISZERO ISZERO MUL OR SWAP1 SSTORE POP POP POP JUMP JUMPDEST PUSH2 0x28A9 PUSH2 0x30CC JUMP JUMPDEST PUSH1 0x0 PUSH20 0xFFFFFFFFFFFFFFFFFFFFFFFFFFFFFFFFFFFFFFFF AND DUP2 PUSH20 0xFFFFFFFFFFFFFFFFFFFFFFFFFFFFFFFFFFFFFFFF AND EQ ISZERO PUSH2 0x2919 JUMPI PUSH1 0x40 MLOAD PUSH32 0x8C379A000000000000000000000000000000000000000000000000000000000 DUP2 MSTORE PUSH1 0x4 ADD PUSH2 0x2910 SWAP1 PUSH2 0x44F7 JUMP JUMPDEST PUSH1 0x40 MLOAD DUP1 SWAP2 SUB SWAP1 REVERT JUMPDEST PUSH2 0x2922 DUP2 PUSH2 0x314A JUMP JUMPDEST POP JUMP JUMPDEST PUSH1 0x60 PUSH1 0x0 DUP3 PUSH1 0xFF AND GT PUSH2 0x2937 JUMPI PUSH1 0x0 DUP1 REVERT JUMPDEST PUSH1 0x0 DUP3 PUSH1 0xFF AND PUSH8 0xFFFFFFFFFFFFFFFF DUP2 GT ISZERO PUSH2 0x2956 JUMPI PUSH2 0x2955 PUSH2 0x4BEA JUMP JUMPDEST JUMPDEST PUSH1 0x40 MLOAD SWAP1 DUP1 DUP3 MSTORE DUP1 PUSH1 0x20 MUL PUSH1 0x20 ADD DUP3 ADD PUSH1 0x40 MSTORE DUP1 ISZERO PUSH2 0x298F JUMPI DUP2 PUSH1 0x20 ADD JUMPDEST PUSH2 0x297C PUSH2 0x386B JUMP JUMPDEST DUP2 MSTORE PUSH1 0x20 ADD SWAP1 PUSH1 0x1 SWAP1 SUB SWAP1 DUP2 PUSH2 0x2974 JUMPI SWAP1 POP JUMPDEST POP SWAP1 POP PUSH1 0x0 PUSH1 0x7 PUSH1 0x0 SWAP1 SLOAD SWAP1 PUSH2 0x100 EXP SWAP1 DIV PUSH2 0xFFFF AND SWAP1 POP DUP1 PUSH2 0xFFFF AND DUP6 PUSH1 0xFF AND GT ISZERO PUSH2 0x29C0 JUMPI DUP2 SWAP3 POP POP POP PUSH2 0x2E63 JUMP JUMPDEST DUP1 PUSH2 0xFFFF AND DUP5 DUP7 PUSH2 0x29D1 SWAP2 SWAP1 PUSH2 0x490C JUMP JUMPDEST PUSH1 0xFF AND GT ISZERO PUSH2 0x2C25 JUMPI PUSH1 0x0 PUSH1 0x1 SWAP1 POP JUMPDEST DUP6 PUSH1 0xFF AND DUP3 PUSH2 0x29F0 SWAP2 SWAP1 PUSH2 0x4943 JUMP JUMPDEST PUSH2 0xFFFF AND DUP2 PUSH1 0xFF AND GT PUSH2 0x2C1F JUMPI PUSH1 0x4 PUSH1 0x0 DUP3 PUSH1 0xFF AND DUP5 PUSH2 0x2A10 SWAP2 SWAP1 PUSH2 0x4943 JUMP JUMPDEST PUSH2 0xFFFF AND PUSH2 0xFFFF AND DUP2 MSTORE PUSH1 0x20 ADD SWAP1 DUP2 MSTORE PUSH1 0x20 ADD PUSH1 0x0 KECCAK256 PUSH1 0x40 MLOAD DUP1 PUSH2 0x120 ADD PUSH1 0x40 MSTORE SWAP1 DUP2 PUSH1 0x0 DUP3 ADD PUSH1 0x0 SWAP1 SLOAD SWAP1 PUSH2 0x100 EXP SWAP1 DIV PUSH2 0xFFFF AND PUSH2 0xFFFF AND PUSH2 0xFFFF AND DUP2 MSTORE PUSH1 0x20 ADD PUSH1 0x1 DUP3 ADD DUP1 SLOAD PUSH2 0x2A62 SWAP1 PUSH2 0x4A76 JUMP JUMPDEST DUP1 PUSH1 0x1F ADD PUSH1 0x20 DUP1 SWAP2 DIV MUL PUSH1 0x20 ADD PUSH1 0x40 MLOAD SWAP1 DUP2 ADD PUSH1 0x40 MSTORE DUP1 SWAP3 SWAP2 SWAP1 DUP2 DUP2 MSTORE PUSH1 0x20 ADD DUP3 DUP1 SLOAD PUSH2 0x2A8E SWAP1 PUSH2 0x4A76 JUMP JUMPDEST DUP1 ISZERO PUSH2 0x2ADB JUMPI DUP1 PUSH1 0x1F LT PUSH2 0x2AB0 JUMPI PUSH2 0x100 DUP1 DUP4 SLOAD DIV MUL DUP4 MSTORE SWAP2 PUSH1 0x20 ADD SWAP2 PUSH2 0x2ADB JUMP JUMPDEST DUP3 ADD SWAP2 SWAP1 PUSH1 0x0 MSTORE PUSH1 0x20 PUSH1 0x0 KECCAK256 SWAP1 JUMPDEST DUP2 SLOAD DUP2 MSTORE SWAP1 PUSH1 0x1 ADD SWAP1 PUSH1 0x20 ADD DUP1 DUP4 GT PUSH2 0x2ABE JUMPI DUP3 SWAP1 SUB PUSH1 0x1F AND DUP3 ADD SWAP2 JUMPDEST POP POP POP POP POP DUP2 MSTORE PUSH1 0x20 ADD PUSH1 0x2 DUP3 ADD PUSH1 0x0 SWAP1 SLOAD SWAP1 PUSH2 0x100 EXP SWAP1 DIV PUSH4 0xFFFFFFFF AND PUSH4 0xFFFFFFFF AND PUSH4 0xFFFFFFFF AND DUP2 MSTORE PUSH1 0x20 ADD PUSH1 0x2 DUP3 ADD PUSH1 0x4 SWAP1 SLOAD SWAP1 PUSH2 0x100 EXP SWAP1 DIV PUSH4 0xFFFFFFFF AND PUSH4 0xFFFFFFFF AND PUSH4 0xFFFFFFFF AND DUP2 MSTORE PUSH1 0x20 ADD PUSH1 0x2 DUP3 ADD PUSH1 0x8 SWAP1 SLOAD SWAP1 PUSH2 0x100 EXP SWAP1 DIV PUSH20 0xFFFFFFFFFFFFFFFFFFFFFFFFFFFFFFFFFFFFFFFF AND PUSH20 0xFFFFFFFFFFFFFFFFFFFFFFFFFFFFFFFFFFFFFFFF AND PUSH20 0xFFFFFFFFFFFFFFFFFFFFFFFFFFFFFFFFFFFFFFFF AND DUP2 MSTORE PUSH1 0x20 ADD PUSH1 0x3 DUP3 ADD SLOAD DUP2 MSTORE PUSH1 0x20 ADD PUSH1 0x4 DUP3 ADD SLOAD DUP2 MSTORE PUSH1 0x20 ADD PUSH1 0x5 DUP3 ADD SLOAD DUP2 MSTORE PUSH1 0x20 ADD PUSH1 0x6 DUP3 ADD PUSH1 0x0 SWAP1 SLOAD SWAP1 PUSH2 0x100 EXP SWAP1 DIV PUSH1 0xFF AND PUSH1 0x2 DUP2 GT ISZERO PUSH2 0x2BC9 JUMPI PUSH2 0x2BC8 PUSH2 0x4B5D JUMP JUMPDEST JUMPDEST PUSH1 0x2 DUP2 GT ISZERO PUSH2 0x2BDB JUMPI PUSH2 0x2BDA PUSH2 0x4B5D JUMP JUMPDEST JUMPDEST DUP2 MSTORE POP POP DUP4 PUSH1 0x1 DUP4 PUSH2 0x2BED SWAP2 SWAP1 PUSH2 0x4977 JUMP JUMPDEST PUSH1 0xFF AND DUP2 MLOAD DUP2 LT PUSH2 0x2C01 JUMPI PUSH2 0x2C00 PUSH2 0x4BBB JUMP JUMPDEST JUMPDEST PUSH1 0x20 MUL PUSH1 0x20 ADD ADD DUP2 SWAP1 MSTORE POP DUP1 DUP1 PUSH2 0x2C17 SWAP1 PUSH2 0x4B04 JUMP JUMPDEST SWAP2 POP POP PUSH2 0x29E1 JUMP JUMPDEST POP PUSH2 0x2E5D JUMP JUMPDEST PUSH1 0x0 PUSH1 0x1 SWAP1 POP JUMPDEST DUP5 PUSH1 0xFF AND DUP2 PUSH1 0xFF AND GT PUSH2 0x2E5B JUMPI PUSH1 0x4 PUSH1 0x0 DUP3 PUSH1 0xFF AND DUP5 PUSH2 0x2C4C SWAP2 SWAP1 PUSH2 0x4943 JUMP JUMPDEST PUSH2 0xFFFF AND PUSH2 0xFFFF AND DUP2 MSTORE PUSH1 0x20 ADD SWAP1 DUP2 MSTORE PUSH1 0x20 ADD PUSH1 0x0 KECCAK256 PUSH1 0x40 MLOAD DUP1 PUSH2 0x120 ADD PUSH1 0x40 MSTORE SWAP1 DUP2 PUSH1 0x0 DUP3 ADD PUSH1 0x0 SWAP1 SLOAD SWAP1 PUSH2 0x100 EXP SWAP1 DIV PUSH2 0xFFFF AND PUSH2 0xFFFF AND PUSH2 0xFFFF AND DUP2 MSTORE PUSH1 0x20 ADD PUSH1 0x1 DUP3 ADD DUP1 SLOAD PUSH2 0x2C9E SWAP1 PUSH2 0x4A76 JUMP JUMPDEST DUP1 PUSH1 0x1F ADD PUSH1 0x20 DUP1 SWAP2 DIV MUL PUSH1 0x20 ADD PUSH1 0x40 MLOAD SWAP1 DUP2 ADD PUSH1 0x40 MSTORE DUP1 SWAP3 SWAP2 SWAP1 DUP2 DUP2 MSTORE PUSH1 0x20 ADD DUP3 DUP1 SLOAD PUSH2 0x2CCA SWAP1 PUSH2 0x4A76 JUMP JUMPDEST DUP1 ISZERO PUSH2 0x2D17 JUMPI DUP1 PUSH1 0x1F LT PUSH2 0x2CEC JUMPI PUSH2 0x100 DUP1 DUP4 SLOAD DIV MUL DUP4 MSTORE SWAP2 PUSH1 0x20 ADD SWAP2 PUSH2 0x2D17 JUMP JUMPDEST DUP3 ADD SWAP2 SWAP1 PUSH1 0x0 MSTORE PUSH1 0x20 PUSH1 0x0 KECCAK256 SWAP1 JUMPDEST DUP2 SLOAD DUP2 MSTORE SWAP1 PUSH1 0x1 ADD SWAP1 PUSH1 0x20 ADD DUP1 DUP4 GT PUSH2 0x2CFA JUMPI DUP3 SWAP1 SUB PUSH1 0x1F AND DUP3 ADD SWAP2 JUMPDEST POP POP POP POP POP DUP2 MSTORE PUSH1 0x20 ADD PUSH1 0x2 DUP3 ADD PUSH1 0x0 SWAP1 SLOAD SWAP1 PUSH2 0x100 EXP SWAP1 DIV PUSH4 0xFFFFFFFF AND PUSH4 0xFFFFFFFF AND PUSH4 0xFFFFFFFF AND DUP2 MSTORE PUSH1 0x20 ADD PUSH1 0x2 DUP3 ADD PUSH1 0x4 SWAP1 SLOAD SWAP1 PUSH2 0x100 EXP SWAP1 DIV PUSH4 0xFFFFFFFF AND PUSH4 0xFFFFFFFF AND PUSH4 0xFFFFFFFF AND DUP2 MSTORE PUSH1 0x20 ADD PUSH1 0x2 DUP3 ADD PUSH1 0x8 SWAP1 SLOAD SWAP1 PUSH2 0x100 EXP SWAP1 DIV PUSH20 0xFFFFFFFFFFFFFFFFFFFFFFFFFFFFFFFFFFFFFFFF AND PUSH20 0xFFFFFFFFFFFFFFFFFFFFFFFFFFFFFFFFFFFFFFFF AND PUSH20 0xFFFFFFFFFFFFFFFFFFFFFFFFFFFFFFFFFFFFFFFF AND DUP2 MSTORE PUSH1 0x20 ADD PUSH1 0x3 DUP3 ADD SLOAD DUP2 MSTORE PUSH1 0x20 ADD PUSH1 0x4 DUP3 ADD SLOAD DUP2 MSTORE PUSH1 0x20 ADD PUSH1 0x5 DUP3 ADD SLOAD DUP2 MSTORE PUSH1 0x20 ADD PUSH1 0x6 DUP3 ADD PUSH1 0x0 SWAP1 SLOAD SWAP1 PUSH2 0x100 EXP SWAP1 DIV PUSH1 0xFF AND PUSH1 0x2 DUP2 GT ISZERO PUSH2 0x2E05 JUMPI PUSH2 0x2E04 PUSH2 0x4B5D JUMP JUMPDEST JUMPDEST PUSH1 0x2 DUP2 GT ISZERO PUSH2 0x2E17 JUMPI PUSH2 0x2E16 PUSH2 0x4B5D JUMP JUMPDEST JUMPDEST DUP2 MSTORE POP POP DUP4 PUSH1 0x1 DUP4 PUSH2 0x2E29 SWAP2 SWAP1 PUSH2 0x4977 JUMP JUMPDEST PUSH1 0xFF AND DUP2 MLOAD DUP2 LT PUSH2 0x2E3D JUMPI PUSH2 0x2E3C PUSH2 0x4BBB JUMP JUMPDEST JUMPDEST PUSH1 0x20 MUL PUSH1 0x20 ADD ADD DUP2 SWAP1 MSTORE POP DUP1 DUP1 PUSH2 0x2E53 SWAP1 PUSH2 0x4B04 JUMP JUMPDEST SWAP2 POP POP PUSH2 0x2C2C JUMP JUMPDEST POP JUMPDEST DUP2 SWAP3 POP POP POP JUMPDEST SWAP3 SWAP2 POP POP JUMP JUMPDEST PUSH1 0x7 PUSH1 0x0 SWAP1 SLOAD SWAP1 PUSH2 0x100 EXP SWAP1 DIV PUSH2 0xFFFF AND DUP2 JUMP JUMPDEST PUSH1 0x60 PUSH1 0x0 DUP3 MLOAD PUSH8 0xFFFFFFFFFFFFFFFF DUP2 GT ISZERO PUSH2 0x2E9C JUMPI PUSH2 0x2E9B PUSH2 0x4BEA JUMP JUMPDEST JUMPDEST PUSH1 0x40 MLOAD SWAP1 DUP1 DUP3 MSTORE DUP1 PUSH1 0x20 MUL PUSH1 0x20 ADD DUP3 ADD PUSH1 0x40 MSTORE DUP1 ISZERO PUSH2 0x2ECA JUMPI DUP2 PUSH1 0x20 ADD PUSH1 0x20 DUP3 MUL DUP1 CALLDATASIZE DUP4 CALLDATACOPY DUP1 DUP3 ADD SWAP2 POP POP SWAP1 POP JUMPDEST POP SWAP1 POP PUSH1 0x0 JUMPDEST DUP4 MLOAD DUP2 PUSH1 0xFF AND LT ISZERO PUSH2 0x2F9C JUMPI PUSH1 0x3 PUSH1 0x0 DUP6 DUP4 PUSH1 0xFF AND DUP2 MLOAD DUP2 LT PUSH2 0x2EF6 JUMPI PUSH2 0x2EF5 PUSH2 0x4BBB JUMP JUMPDEST JUMPDEST PUSH1 0x20 MUL PUSH1 0x20 ADD ADD MLOAD PUSH2 0xFFFF AND PUSH2 0xFFFF AND DUP2 MSTORE PUSH1 0x20 ADD SWAP1 DUP2 MSTORE PUSH1 0x20 ADD PUSH1 0x0 KECCAK256 PUSH1 0x0 CALLER PUSH20 0xFFFFFFFFFFFFFFFFFFFFFFFFFFFFFFFFFFFFFFFF AND PUSH20 0xFFFFFFFFFFFFFFFFFFFFFFFFFFFFFFFFFFFFFFFF AND DUP2 MSTORE PUSH1 0x20 ADD SWAP1 DUP2 MSTORE PUSH1 0x20 ADD PUSH1 0x0 KECCAK256 PUSH1 0x0 SWAP1 SLOAD SWAP1 PUSH2 0x100 EXP SWAP1 DIV PUSH1 0xFF AND DUP3 DUP3 PUSH1 0xFF AND DUP2 MLOAD DUP2 LT PUSH2 0x2F75 JUMPI PUSH2 0x2F74 PUSH2 0x4BBB JUMP JUMPDEST JUMPDEST PUSH1 0x20 MUL PUSH1 0x20 ADD ADD SWAP1 PUSH1 0xFF AND SWAP1 DUP2 PUSH1 0xFF AND DUP2 MSTORE POP POP DUP1 DUP1 PUSH2 0x2F94 SWAP1 PUSH2 0x4B04 JUMP JUMPDEST SWAP2 POP POP PUSH2 0x2ED0 JUMP JUMPDEST POP DUP1 SWAP2 POP POP SWAP2 SWAP1 POP JUMP JUMPDEST PUSH1 0x0 PUSH1 0x4 PUSH1 0x0 DUP4 PUSH2 0xFFFF AND PUSH2 0xFFFF AND DUP2 MSTORE PUSH1 0x20 ADD SWAP1 DUP2 MSTORE PUSH1 0x20 ADD PUSH1 0x0 KECCAK256 PUSH1 0x6 ADD PUSH1 0x0 PUSH2 0x100 EXP DUP2 SLOAD DUP2 PUSH1 0xFF MUL NOT AND SWAP1 DUP4 PUSH1 0x2 DUP2 GT ISZERO PUSH2 0x2FE8 JUMPI PUSH2 0x2FE7 PUSH2 0x4B5D JUMP JUMPDEST JUMPDEST MUL OR SWAP1 SSTORE POP NUMBER PUSH1 0x4 PUSH1 0x0 DUP4 PUSH2 0xFFFF AND PUSH2 0xFFFF AND DUP2 MSTORE PUSH1 0x20 ADD SWAP1 DUP2 MSTORE PUSH1 0x20 ADD PUSH1 0x0 KECCAK256 PUSH1 0x5 ADD DUP2 SWAP1 SSTORE POP DUP1 PUSH2 0xFFFF AND PUSH32 0x74067FE4D5E2E892ABA66FD751EE80C00AADDA7333E763E9084815A0C29F6EBE PUSH1 0x4 PUSH1 0x0 DUP5 PUSH2 0xFFFF AND PUSH2 0xFFFF AND DUP2 MSTORE PUSH1 0x20 ADD SWAP1 DUP2 MSTORE PUSH1 0x20 ADD PUSH1 0x0 KECCAK256 PUSH1 0x1 ADD PUSH1 0x4 PUSH1 0x0 DUP6 PUSH2 0xFFFF AND PUSH2 0xFFFF AND DUP2 MSTORE PUSH1 0x20 ADD SWAP1 DUP2 MSTORE PUSH1 0x20 ADD PUSH1 0x0 KECCAK256 PUSH1 0x2 ADD PUSH1 0x0 SWAP1 SLOAD SWAP1 PUSH2 0x100 EXP SWAP1 DIV PUSH4 0xFFFFFFFF AND PUSH1 0x4 PUSH1 0x0 DUP7 PUSH2 0xFFFF AND PUSH2 0xFFFF AND DUP2 MSTORE PUSH1 0x20 ADD SWAP1 DUP2 MSTORE PUSH1 0x20 ADD PUSH1 0x0 KECCAK256 PUSH1 0x2 ADD PUSH1 0x4 SWAP1 SLOAD SWAP1 PUSH2 0x100 EXP SWAP1 DIV PUSH4 0xFFFFFFFF AND PUSH1 0x40 MLOAD PUSH2 0x30C1 SWAP4 SWAP3 SWAP2 SWAP1 PUSH2 0x4459 JUMP JUMPDEST PUSH1 0x40 MLOAD DUP1 SWAP2 SUB SWAP1 LOG2 POP JUMP JUMPDEST PUSH2 0x30D4 PUSH2 0x336F JUMP JUMPDEST PUSH20 0xFFFFFFFFFFFFFFFFFFFFFFFFFFFFFFFFFFFFFFFF AND PUSH2 0x30F2 PUSH2 0x187C JUMP JUMPDEST PUSH20 0xFFFFFFFFFFFFFFFFFFFFFFFFFFFFFFFFFFFFFFFF AND EQ PUSH2 0x3148 JUMPI PUSH1 0x40 MLOAD PUSH32 0x8C379A000000000000000000000000000000000000000000000000000000000 DUP2 MSTORE PUSH1 0x4 ADD PUSH2 0x313F SWAP1 PUSH2 0x4597 JUMP JUMPDEST PUSH1 0x40 MLOAD DUP1 SWAP2 SUB SWAP1 REVERT JUMPDEST JUMP JUMPDEST PUSH1 0x0 DUP1 PUSH1 0x0 SWAP1 SLOAD SWAP1 PUSH2 0x100 EXP SWAP1 DIV PUSH20 0xFFFFFFFFFFFFFFFFFFFFFFFFFFFFFFFFFFFFFFFF AND SWAP1 POP DUP2 PUSH1 0x0 DUP1 PUSH2 0x100 EXP DUP2 SLOAD DUP2 PUSH20 0xFFFFFFFFFFFFFFFFFFFFFFFFFFFFFFFFFFFFFFFF MUL NOT AND SWAP1 DUP4 PUSH20 0xFFFFFFFFFFFFFFFFFFFFFFFFFFFFFFFFFFFFFFFF AND MUL OR SWAP1 SSTORE POP DUP2 PUSH20 0xFFFFFFFFFFFFFFFFFFFFFFFFFFFFFFFFFFFFFFFF AND DUP2 PUSH20 0xFFFFFFFFFFFFFFFFFFFFFFFFFFFFFFFFFFFFFFFF AND PUSH32 0x8BE0079C531659141344CD1FD0A4F28419497F9722A3DAAFE3B4186F6B6457E0 PUSH1 0x40 MLOAD PUSH1 0x40 MLOAD DUP1 SWAP2 SUB SWAP1 LOG3 POP POP JUMP JUMPDEST PUSH1 0x0 PUSH1 0x6 PUSH1 0x0 DUP4 PUSH2 0xFFFF AND PUSH2 0xFFFF AND DUP2 MSTORE PUSH1 0x20 ADD SWAP1 DUP2 MSTORE PUSH1 0x20 ADD PUSH1 0x0 KECCAK256 PUSH1 0x6 ADD PUSH1 0x0 SWAP1 SLOAD SWAP1 PUSH2 0x100 EXP SWAP1 DIV PUSH1 0xFF AND SWAP1 POP PUSH1 0x0 PUSH1 0x6 PUSH1 0x0 DUP5 PUSH2 0xFFFF AND PUSH2 0xFFFF AND DUP2 MSTORE PUSH1 0x20 ADD SWAP1 DUP2 MSTORE PUSH1 0x20 ADD PUSH1 0x0 KECCAK256 PUSH1 0x6 ADD PUSH1 0x0 PUSH2 0x100 EXP DUP2 SLOAD DUP2 PUSH1 0xFF MUL NOT AND SWAP1 DUP4 PUSH1 0x2 DUP2 GT ISZERO PUSH2 0x3280 JUMPI PUSH2 0x327F PUSH2 0x4B5D JUMP JUMPDEST JUMPDEST MUL OR SWAP1 SSTORE POP NUMBER PUSH1 0x6 PUSH1 0x0 DUP5 PUSH2 0xFFFF AND PUSH2 0xFFFF AND DUP2 MSTORE PUSH1 0x20 ADD SWAP1 DUP2 MSTORE PUSH1 0x20 ADD PUSH1 0x0 KECCAK256 PUSH1 0x5 ADD DUP2 SWAP1 SSTORE POP PUSH2 0x32B2 DUP3 DUP3 PUSH2 0x3377 JUMP JUMPDEST DUP2 PUSH2 0xFFFF AND PUSH32 0x5B96817333B28A477AD5FC2DE22E1CB6BC0709C42895AC3180B16A8F8F04956D PUSH1 0x6 PUSH1 0x0 DUP6 PUSH2 0xFFFF AND PUSH2 0xFFFF AND DUP2 MSTORE PUSH1 0x20 ADD SWAP1 DUP2 MSTORE PUSH1 0x20 ADD PUSH1 0x0 KECCAK256 PUSH1 0x1 ADD PUSH1 0x6 PUSH1 0x0 DUP7 PUSH2 0xFFFF AND PUSH2 0xFFFF AND DUP2 MSTORE PUSH1 0x20 ADD SWAP1 DUP2 MSTORE PUSH1 0x20 ADD PUSH1 0x0 KECCAK256 PUSH1 0x2 ADD PUSH1 0x0 SWAP1 SLOAD SWAP1 PUSH2 0x100 EXP SWAP1 DIV PUSH4 0xFFFFFFFF AND PUSH1 0x6 PUSH1 0x0 DUP8 PUSH2 0xFFFF AND PUSH2 0xFFFF AND DUP2 MSTORE PUSH1 0x20 ADD SWAP1 DUP2 MSTORE PUSH1 0x20 ADD PUSH1 0x0 KECCAK256 PUSH1 0x2 ADD PUSH1 0x4 SWAP1 SLOAD SWAP1 PUSH2 0x100 EXP SWAP1 DIV PUSH4 0xFFFFFFFF AND PUSH1 0x40 MLOAD PUSH2 0x3363 SWAP4 SWAP3 SWAP2 SWAP1 PUSH2 0x4459 JUMP JUMPDEST PUSH1 0x40 MLOAD DUP1 SWAP2 SUB SWAP1 LOG2 POP POP JUMP JUMPDEST PUSH1 0x0 CALLER SWAP1 POP SWAP1 JUMP JUMPDEST PUSH1 0x0 PUSH1 0x2 DUP2 GT ISZERO PUSH2 0x338B JUMPI PUSH2 0x338A PUSH2 0x4B5D JUMP JUMPDEST JUMPDEST DUP2 PUSH1 0x2 DUP2 GT ISZERO PUSH2 0x339E JUMPI PUSH2 0x339D PUSH2 0x4B5D JUMP JUMPDEST JUMPDEST EQ ISZERO PUSH2 0x33DF JUMPI PUSH1 0x40 MLOAD PUSH32 0x8C379A000000000000000000000000000000000000000000000000000000000 DUP2 MSTORE PUSH1 0x4 ADD PUSH2 0x33D6 SWAP1 PUSH2 0x4497 JUMP JUMPDEST PUSH1 0x40 MLOAD DUP1 SWAP2 SUB SWAP1 REVERT JUMPDEST PUSH1 0x7 PUSH1 0x0 SWAP1 SLOAD SWAP1 PUSH2 0x100 EXP SWAP1 DIV PUSH2 0xFFFF AND PUSH1 0x4 PUSH1 0x0 PUSH1 0x7 PUSH1 0x0 SWAP1 SLOAD SWAP1 PUSH2 0x100 EXP SWAP1 DIV PUSH2 0xFFFF AND PUSH2 0xFFFF AND PUSH2 0xFFFF AND DUP2 MSTORE PUSH1 0x20 ADD SWAP1 DUP2 MSTORE PUSH1 0x20 ADD PUSH1 0x0 KECCAK256 PUSH1 0x0 ADD PUSH1 0x0 PUSH2 0x100 EXP DUP2 SLOAD DUP2 PUSH2 0xFFFF MUL NOT AND SWAP1 DUP4 PUSH2 0xFFFF AND MUL OR SWAP1 SSTORE POP PUSH1 0x6 PUSH1 0x0 DUP4 PUSH2 0xFFFF AND PUSH2 0xFFFF AND DUP2 MSTORE PUSH1 0x20 ADD SWAP1 DUP2 MSTORE PUSH1 0x20 ADD PUSH1 0x0 KECCAK256 PUSH1 0x2 ADD PUSH1 0x8 SWAP1 SLOAD SWAP1 PUSH2 0x100 EXP SWAP1 DIV PUSH20 0xFFFFFFFFFFFFFFFFFFFFFFFFFFFFFFFFFFFFFFFF AND PUSH1 0x4 PUSH1 0x0 PUSH1 0x7 PUSH1 0x0 SWAP1 SLOAD SWAP1 PUSH2 0x100 EXP SWAP1 DIV PUSH2 0xFFFF AND PUSH2 0xFFFF AND PUSH2 0xFFFF AND DUP2 MSTORE PUSH1 0x20 ADD SWAP1 DUP2 MSTORE PUSH1 0x20 ADD PUSH1 0x0 KECCAK256 PUSH1 0x2 ADD PUSH1 0x8 PUSH2 0x100 EXP DUP2 SLOAD DUP2 PUSH20 0xFFFFFFFFFFFFFFFFFFFFFFFFFFFFFFFFFFFFFFFF MUL NOT AND SWAP1 DUP4 PUSH20 0xFFFFFFFFFFFFFFFFFFFFFFFFFFFFFFFFFFFFFFFF AND MUL OR SWAP1 SSTORE POP PUSH1 0x6 PUSH1 0x0 DUP4 PUSH2 0xFFFF AND PUSH2 0xFFFF AND DUP2 MSTORE PUSH1 0x20 ADD SWAP1 DUP2 MSTORE PUSH1 0x20 ADD PUSH1 0x0 KECCAK256 PUSH1 0x1 ADD PUSH1 0x4 PUSH1 0x0 PUSH1 0x7 PUSH1 0x0 SWAP1 SLOAD SWAP1 PUSH2 0x100 EXP SWAP1 DIV PUSH2 0xFFFF AND PUSH2 0xFFFF AND PUSH2 0xFFFF AND DUP2 MSTORE PUSH1 0x20 ADD SWAP1 DUP2 MSTORE PUSH1 0x20 ADD PUSH1 0x0 KECCAK256 PUSH1 0x1 ADD SWAP1 DUP1 SLOAD PUSH2 0x353B SWAP1 PUSH2 0x4A76 JUMP JUMPDEST PUSH2 0x3546 SWAP3 SWAP2 SWAP1 PUSH2 0x38EF JUMP JUMPDEST POP NUMBER PUSH1 0x4 PUSH1 0x0 PUSH1 0x7 PUSH1 0x0 SWAP1 SLOAD SWAP1 PUSH2 0x100 EXP SWAP1 DIV PUSH2 0xFFFF AND PUSH2 0xFFFF AND PUSH2 0xFFFF AND DUP2 MSTORE PUSH1 0x20 ADD SWAP1 DUP2 MSTORE PUSH1 0x20 ADD PUSH1 0x0 KECCAK256 PUSH1 0x3 ADD DUP2 SWAP1 SSTORE POP PUSH1 0x1 PUSH1 0xFF AND NUMBER PUSH2 0x358A SWAP2 SWAP1 PUSH2 0x487C JUMP JUMPDEST PUSH1 0x4 PUSH1 0x0 PUSH1 0x7 PUSH1 0x0 SWAP1 SLOAD SWAP1 PUSH2 0x100 EXP SWAP1 DIV PUSH2 0xFFFF AND PUSH2 0xFFFF AND PUSH2 0xFFFF AND DUP2 MSTORE PUSH1 0x20 ADD SWAP1 DUP2 MSTORE PUSH1 0x20 ADD PUSH1 0x0 KECCAK256 PUSH1 0x4 ADD DUP2 SWAP1 SSTORE POP PUSH1 0x0 PUSH1 0x4 PUSH1 0x0 PUSH1 0x7 PUSH1 0x0 SWAP1 SLOAD SWAP1 PUSH2 0x100 EXP SWAP1 DIV PUSH2 0xFFFF AND PUSH2 0xFFFF AND PUSH2 0xFFFF AND DUP2 MSTORE PUSH1 0x20 ADD SWAP1 DUP2 MSTORE PUSH1 0x20 ADD PUSH1 0x0 KECCAK256 PUSH1 0x2 ADD PUSH1 0x4 PUSH2 0x100 EXP DUP2 SLOAD DUP2 PUSH4 0xFFFFFFFF MUL NOT AND SWAP1 DUP4 PUSH4 0xFFFFFFFF AND MUL OR SWAP1 SSTORE POP PUSH1 0x0 PUSH1 0x4 PUSH1 0x0 PUSH1 0x7 PUSH1 0x0 SWAP1 SLOAD SWAP1 PUSH2 0x100 EXP SWAP1 DIV PUSH2 0xFFFF AND PUSH2 0xFFFF AND PUSH2 0xFFFF AND DUP2 MSTORE PUSH1 0x20 ADD SWAP1 DUP2 MSTORE PUSH1 0x20 ADD PUSH1 0x0 KECCAK256 PUSH1 0x2 ADD PUSH1 0x0 PUSH2 0x100 EXP DUP2 SLOAD DUP2 PUSH4 0xFFFFFFFF MUL NOT AND SWAP1 DUP4 PUSH4 0xFFFFFFFF AND MUL OR SWAP1 SSTORE POP DUP1 PUSH1 0x4 PUSH1 0x0 PUSH1 0x7 PUSH1 0x0 SWAP1 SLOAD SWAP1 PUSH2 0x100 EXP SWAP1 DIV PUSH2 0xFFFF AND PUSH2 0xFFFF AND PUSH2 0xFFFF AND DUP2 MSTORE PUSH1 0x20 ADD SWAP1 DUP2 MSTORE PUSH1 0x20 ADD PUSH1 0x0 KECCAK256 PUSH1 0x6 ADD PUSH1 0x0 PUSH2 0x100 EXP DUP2 SLOAD DUP2 PUSH1 0xFF MUL NOT AND SWAP1 DUP4 PUSH1 0x2 DUP2 GT ISZERO PUSH2 0x36A9 JUMPI PUSH2 0x36A8 PUSH2 0x4B5D JUMP JUMPDEST JUMPDEST MUL OR SWAP1 SSTORE POP PUSH1 0x1 PUSH1 0x7 PUSH1 0x0 DUP3 DUP3 DUP3 SWAP1 SLOAD SWAP1 PUSH2 0x100 EXP SWAP1 DIV PUSH2 0xFFFF AND PUSH2 0x36CE SWAP2 SWAP1 PUSH2 0x4844 JUMP JUMPDEST SWAP3 POP PUSH2 0x100 EXP DUP2 SLOAD DUP2 PUSH2 0xFFFF MUL NOT AND SWAP1 DUP4 PUSH2 0xFFFF AND MUL OR SWAP1 SSTORE POP PUSH1 0x1 PUSH1 0x7 PUSH1 0x0 SWAP1 SLOAD SWAP1 PUSH2 0x100 EXP SWAP1 DIV PUSH2 0xFFFF AND PUSH2 0x3705 SWAP2 SWAP1 PUSH2 0x4943 JUMP JUMPDEST PUSH2 0xFFFF AND PUSH32 0x673C7227A10FC9C3B48D83ED5A3ADBAF2BEC2CEFF9D15CF30C98816A3A16859E PUSH1 0x6 PUSH1 0x0 DUP6 PUSH2 0xFFFF AND PUSH2 0xFFFF AND DUP2 MSTORE PUSH1 0x20 ADD SWAP1 DUP2 MSTORE PUSH1 0x20 ADD PUSH1 0x0 KECCAK256 PUSH1 0x1 ADD PUSH1 0x40 MLOAD PUSH2 0x3755 SWAP2 SWAP1 PUSH2 0x4437 JUMP JUMPDEST PUSH1 0x40 MLOAD DUP1 SWAP2 SUB SWAP1 LOG2 POP POP JUMP JUMPDEST DUP3 DUP1 SLOAD PUSH2 0x376D SWAP1 PUSH2 0x4A76 JUMP JUMPDEST SWAP1 PUSH1 0x0 MSTORE PUSH1 0x20 PUSH1 0x0 KECCAK256 SWAP1 PUSH1 0x1F ADD PUSH1 0x20 SWAP1 DIV DUP2 ADD SWAP3 DUP3 PUSH2 0x378F JUMPI PUSH1 0x0 DUP6 SSTORE PUSH2 0x37D6 JUMP JUMPDEST DUP3 PUSH1 0x1F LT PUSH2 0x37A8 JUMPI DUP1 CALLDATALOAD PUSH1 0xFF NOT AND DUP4 DUP1 ADD OR DUP6 SSTORE PUSH2 0x37D6 JUMP JUMPDEST DUP3 DUP1 ADD PUSH1 0x1 ADD DUP6 SSTORE DUP3 ISZERO PUSH2 0x37D6 JUMPI SWAP2 DUP3 ADD JUMPDEST DUP3 DUP2 GT ISZERO PUSH2 0x37D5 JUMPI DUP3 CALLDATALOAD DUP3 SSTORE SWAP2 PUSH1 0x20 ADD SWAP2 SWAP1 PUSH1 0x1 ADD SWAP1 PUSH2 0x37BA JUMP JUMPDEST JUMPDEST POP SWAP1 POP PUSH2 0x37E3 SWAP2 SWAP1 PUSH2 0x397C JUMP JUMPDEST POP SWAP1 JUMP JUMPDEST PUSH1 0x40 MLOAD DUP1 PUSH2 0x120 ADD PUSH1 0x40 MSTORE DUP1 PUSH1 0x0 PUSH2 0xFFFF AND DUP2 MSTORE PUSH1 0x20 ADD PUSH1 0x60 DUP2 MSTORE PUSH1 0x20 ADD PUSH1 0x0 PUSH4 0xFFFFFFFF AND DUP2 MSTORE PUSH1 0x20 ADD PUSH1 0x0 PUSH4 0xFFFFFFFF AND DUP2 MSTORE PUSH1 0x20 ADD PUSH1 0x0 PUSH20 0xFFFFFFFFFFFFFFFFFFFFFFFFFFFFFFFFFFFFFFFF AND DUP2 MSTORE PUSH1 0x20 ADD PUSH1 0x0 DUP2 MSTORE PUSH1 0x20 ADD PUSH1 0x0 DUP2 MSTORE PUSH1 0x20 ADD PUSH1 0x0 DUP2 MSTORE PUSH1 0x20 ADD PUSH1 0x0 PUSH1 0x2 DUP2 GT ISZERO PUSH2 0x3865 JUMPI PUSH2 0x3864 PUSH2 0x4B5D JUMP JUMPDEST JUMPDEST DUP2 MSTORE POP SWAP1 JUMP JUMPDEST PUSH1 0x40 MLOAD DUP1 PUSH2 0x120 ADD PUSH1 0x40 MSTORE DUP1 PUSH1 0x0 PUSH2 0xFFFF AND DUP2 MSTORE PUSH1 0x20 ADD PUSH1 0x60 DUP2 MSTORE PUSH1 0x20 ADD PUSH1 0x0 PUSH4 0xFFFFFFFF AND DUP2 MSTORE PUSH1 0x20 ADD PUSH1 0x0 PUSH4 0xFFFFFFFF AND DUP2 MSTORE PUSH1 0x20 ADD PUSH1 0x0 PUSH20 0xFFFFFFFFFFFFFFFFFFFFFFFFFFFFFFFFFFFFFFFF AND DUP2 MSTORE PUSH1 0x20 ADD PUSH1 0x0 DUP2 MSTORE PUSH1 0x20 ADD PUSH1 0x0 DUP2 MSTORE PUSH1 0x20 ADD PUSH1 0x0 DUP2 MSTORE PUSH1 0x20 ADD PUSH1 0x0 PUSH1 0x2 DUP2 GT ISZERO PUSH2 0x38E9 JUMPI PUSH2 0x38E8 PUSH2 0x4B5D JUMP JUMPDEST JUMPDEST DUP2 MSTORE POP SWAP1 JUMP JUMPDEST DUP3 DUP1 SLOAD PUSH2 0x38FB SWAP1 PUSH2 0x4A76 JUMP JUMPDEST SWAP1 PUSH1 0x0 MSTORE PUSH1 0x20 PUSH1 0x0 KECCAK256 SWAP1 PUSH1 0x1F ADD PUSH1 0x20 SWAP1 DIV DUP2 ADD SWAP3 DUP3 PUSH2 0x391D JUMPI PUSH1 0x0 DUP6 SSTORE PUSH2 0x396B JUMP JUMPDEST DUP3 PUSH1 0x1F LT PUSH2 0x392E JUMPI DUP1 SLOAD DUP6 SSTORE PUSH2 0x396B JUMP JUMPDEST DUP3 DUP1 ADD PUSH1 0x1 ADD DUP6 SSTORE DUP3 ISZERO PUSH2 0x396B JUMPI PUSH1 0x0 MSTORE PUSH1 0x20 PUSH1 0x0 KECCAK256 SWAP2 PUSH1 0x1F ADD PUSH1 0x20 SWAP1 DIV DUP3 ADD JUMPDEST DUP3 DUP2 GT ISZERO PUSH2 0x396A JUMPI DUP3 SLOAD DUP3 SSTORE SWAP2 PUSH1 0x1 ADD SWAP2 SWAP1 PUSH1 0x1 ADD SWAP1 PUSH2 0x394F JUMP JUMPDEST JUMPDEST POP SWAP1 POP PUSH2 0x3978 SWAP2 SWAP1 PUSH2 0x397C JUMP JUMPDEST POP SWAP1 JUMP JUMPDEST JUMPDEST DUP1 DUP3 GT ISZERO PUSH2 0x3995 JUMPI PUSH1 0x0 DUP2 PUSH1 0x0 SWAP1 SSTORE POP PUSH1 0x1 ADD PUSH2 0x397D JUMP JUMPDEST POP SWAP1 JUMP JUMPDEST PUSH1 0x0 PUSH2 0x39AC PUSH2 0x39A7 DUP5 PUSH2 0x472B JUMP JUMPDEST PUSH2 0x4706 JUMP JUMPDEST SWAP1 POP DUP1 DUP4 DUP3 MSTORE PUSH1 0x20 DUP3 ADD SWAP1 POP DUP3 DUP6 PUSH1 0x20 DUP7 MUL DUP3 ADD GT ISZERO PUSH2 0x39CF JUMPI PUSH2 0x39CE PUSH2 0x4C23 JUMP JUMPDEST JUMPDEST PUSH1 0x0 JUMPDEST DUP6 DUP2 LT ISZERO PUSH2 0x39FF JUMPI DUP2 PUSH2 0x39E5 DUP9 DUP3 PUSH2 0x3ACC JUMP JUMPDEST DUP5 MSTORE PUSH1 0x20 DUP5 ADD SWAP4 POP PUSH1 0x20 DUP4 ADD SWAP3 POP POP PUSH1 0x1 DUP2 ADD SWAP1 POP PUSH2 0x39D2 JUMP JUMPDEST POP POP POP SWAP4 SWAP3 POP POP POP JUMP JUMPDEST PUSH1 0x0 DUP2 CALLDATALOAD SWAP1 POP PUSH2 0x3A18 DUP2 PUSH2 0x4F9F JUMP JUMPDEST SWAP3 SWAP2 POP POP JUMP JUMPDEST PUSH1 0x0 DUP3 PUSH1 0x1F DUP4 ADD SLT PUSH2 0x3A33 JUMPI PUSH2 0x3A32 PUSH2 0x4C1E JUMP JUMPDEST JUMPDEST DUP2 CALLDATALOAD PUSH2 0x3A43 DUP5 DUP3 PUSH1 0x20 DUP7 ADD PUSH2 0x3999 JUMP JUMPDEST SWAP2 POP POP SWAP3 SWAP2 POP POP JUMP JUMPDEST PUSH1 0x0 DUP2 CALLDATALOAD SWAP1 POP PUSH2 0x3A5B DUP2 PUSH2 0x4FB6 JUMP JUMPDEST SWAP3 SWAP2 POP POP JUMP JUMPDEST PUSH1 0x0 DUP2 CALLDATALOAD SWAP1 POP PUSH2 0x3A70 DUP2 PUSH2 0x4FC6 JUMP JUMPDEST SWAP3 SWAP2 POP POP JUMP JUMPDEST PUSH1 0x0 DUP1 DUP4 PUSH1 0x1F DUP5 ADD SLT PUSH2 0x3A8C JUMPI PUSH2 0x3A8B PUSH2 0x4C1E JUMP JUMPDEST JUMPDEST DUP3 CALLDATALOAD SWAP1 POP PUSH8 0xFFFFFFFFFFFFFFFF DUP2 GT ISZERO PUSH2 0x3AA9 JUMPI PUSH2 0x3AA8 PUSH2 0x4C19 JUMP JUMPDEST JUMPDEST PUSH1 0x20 DUP4 ADD SWAP2 POP DUP4 PUSH1 0x1 DUP3 MUL DUP4 ADD GT ISZERO PUSH2 0x3AC5 JUMPI PUSH2 0x3AC4 PUSH2 0x4C23 JUMP JUMPDEST JUMPDEST SWAP3 POP SWAP3 SWAP1 POP JUMP JUMPDEST PUSH1 0x0 DUP2 CALLDATALOAD SWAP1 POP PUSH2 0x3ADB DUP2 PUSH2 0x4FD6 JUMP JUMPDEST SWAP3 SWAP2 POP POP JUMP JUMPDEST PUSH1 0x0 DUP2 CALLDATALOAD SWAP1 POP PUSH2 0x3AF0 DUP2 PUSH2 0x4FED JUMP JUMPDEST SWAP3 SWAP2 POP POP JUMP JUMPDEST PUSH1 0x0 PUSH1 0x20 DUP3 DUP5 SUB SLT ISZERO PUSH2 0x3B0C JUMPI PUSH2 0x3B0B PUSH2 0x4C2D JUMP JUMPDEST JUMPDEST PUSH1 0x0 PUSH2 0x3B1A DUP5 DUP3 DUP6 ADD PUSH2 0x3A09 JUMP JUMPDEST SWAP2 POP POP SWAP3 SWAP2 POP POP JUMP JUMPDEST PUSH1 0x0 PUSH1 0x20 DUP3 DUP5 SUB SLT ISZERO PUSH2 0x3B39 JUMPI PUSH2 0x3B38 PUSH2 0x4C2D JUMP JUMPDEST JUMPDEST PUSH1 0x0 DUP3 ADD CALLDATALOAD PUSH8 0xFFFFFFFFFFFFFFFF DUP2 GT ISZERO PUSH2 0x3B57 JUMPI PUSH2 0x3B56 PUSH2 0x4C28 JUMP JUMPDEST JUMPDEST PUSH2 0x3B63 DUP5 DUP3 DUP6 ADD PUSH2 0x3A1E JUMP JUMPDEST SWAP2 POP POP SWAP3 SWAP2 POP POP JUMP JUMPDEST PUSH1 0x0 DUP1 PUSH1 0x0 PUSH1 0x40 DUP5 DUP7 SUB SLT ISZERO PUSH2 0x3B85 JUMPI PUSH2 0x3B84 PUSH2 0x4C2D JUMP JUMPDEST JUMPDEST PUSH1 0x0 PUSH2 0x3B93 DUP7 DUP3 DUP8 ADD PUSH2 0x3A61 JUMP JUMPDEST SWAP4 POP POP PUSH1 0x20 DUP5 ADD CALLDATALOAD PUSH8 0xFFFFFFFFFFFFFFFF DUP2 GT ISZERO PUSH2 0x3BB4 JUMPI PUSH2 0x3BB3 PUSH2 0x4C28 JUMP JUMPDEST JUMPDEST PUSH2 0x3BC0 DUP7 DUP3 DUP8 ADD PUSH2 0x3A76 JUMP JUMPDEST SWAP3 POP SWAP3 POP POP SWAP3 POP SWAP3 POP SWAP3 JUMP JUMPDEST PUSH1 0x0 PUSH1 0x20 DUP3 DUP5 SUB SLT ISZERO PUSH2 0x3BE2 JUMPI PUSH2 0x3BE1 PUSH2 0x4C2D JUMP JUMPDEST JUMPDEST PUSH1 0x0 PUSH2 0x3BF0 DUP5 DUP3 DUP6 ADD PUSH2 0x3ACC JUMP JUMPDEST SWAP2 POP POP SWAP3 SWAP2 POP POP JUMP JUMPDEST PUSH1 0x0 DUP1 PUSH1 0x40 DUP4 DUP6 SUB SLT ISZERO PUSH2 0x3C10 JUMPI PUSH2 0x3C0F PUSH2 0x4C2D JUMP JUMPDEST JUMPDEST PUSH1 0x0 PUSH2 0x3C1E DUP6 DUP3 DUP7 ADD PUSH2 0x3ACC JUMP JUMPDEST SWAP3 POP POP PUSH1 0x20 PUSH2 0x3C2F DUP6 DUP3 DUP7 ADD PUSH2 0x3A4C JUMP JUMPDEST SWAP2 POP POP SWAP3 POP SWAP3 SWAP1 POP JUMP JUMPDEST PUSH1 0x0 DUP1 PUSH1 0x40 DUP4 DUP6 SUB SLT ISZERO PUSH2 0x3C50 JUMPI PUSH2 0x3C4F PUSH2 0x4C2D JUMP JUMPDEST JUMPDEST PUSH1 0x0 PUSH2 0x3C5E DUP6 DUP3 DUP7 ADD PUSH2 0x3ACC JUMP JUMPDEST SWAP3 POP POP PUSH1 0x20 PUSH2 0x3C6F DUP6 DUP3 DUP7 ADD PUSH2 0x3ACC JUMP JUMPDEST SWAP2 POP POP SWAP3 POP SWAP3 SWAP1 POP JUMP JUMPDEST PUSH1 0x0 DUP1 PUSH1 0x40 DUP4 DUP6 SUB SLT ISZERO PUSH2 0x3C90 JUMPI PUSH2 0x3C8F PUSH2 0x4C2D JUMP JUMPDEST JUMPDEST PUSH1 0x0 PUSH2 0x3C9E DUP6 DUP3 DUP7 ADD PUSH2 0x3ACC JUMP JUMPDEST SWAP3 POP POP PUSH1 0x20 PUSH2 0x3CAF DUP6 DUP3 DUP7 ADD PUSH2 0x3AE1 JUMP JUMPDEST SWAP2 POP POP SWAP3 POP SWAP3 SWAP1 POP JUMP JUMPDEST PUSH1 0x0 DUP1 PUSH1 0x40 DUP4 DUP6 SUB SLT ISZERO PUSH2 0x3CD0 JUMPI PUSH2 0x3CCF PUSH2 0x4C2D JUMP JUMPDEST JUMPDEST PUSH1 0x0 PUSH2 0x3CDE DUP6 DUP3 DUP7 ADD PUSH2 0x3AE1 JUMP JUMPDEST SWAP3 POP POP PUSH1 0x20 PUSH2 0x3CEF DUP6 DUP3 DUP7 ADD PUSH2 0x3AE1 JUMP JUMPDEST SWAP2 POP POP SWAP3 POP SWAP3 SWAP1 POP JUMP JUMPDEST PUSH1 0x0 PUSH2 0x3D05 DUP4 DUP4 PUSH2 0x41A8 JUMP JUMPDEST SWAP1 POP SWAP3 SWAP2 POP POP JUMP JUMPDEST PUSH1 0x0 PUSH2 0x3D19 DUP4 DUP4 PUSH2 0x426D JUMP JUMPDEST SWAP1 POP SWAP3 SWAP2 POP POP JUMP JUMPDEST PUSH1 0x0 PUSH2 0x3D2D DUP4 DUP4 PUSH2 0x438C JUMP JUMPDEST PUSH1 0x20 DUP4 ADD SWAP1 POP SWAP3 SWAP2 POP POP JUMP JUMPDEST PUSH2 0x3D42 DUP2 PUSH2 0x49AB JUMP JUMPDEST DUP3 MSTORE POP POP JUMP JUMPDEST PUSH2 0x3D51 DUP2 PUSH2 0x49AB JUMP JUMPDEST DUP3 MSTORE POP POP JUMP JUMPDEST PUSH1 0x0 PUSH2 0x3D62 DUP3 PUSH2 0x479C JUMP JUMPDEST PUSH2 0x3D6C DUP2 DUP6 PUSH2 0x47EF JUMP JUMPDEST SWAP4 POP DUP4 PUSH1 0x20 DUP3 MUL DUP6 ADD PUSH2 0x3D7E DUP6 PUSH2 0x4757 JUMP JUMPDEST DUP1 PUSH1 0x0 JUMPDEST DUP6 DUP2 LT ISZERO PUSH2 0x3DBA JUMPI DUP5 DUP5 SUB DUP10 MSTORE DUP2 MLOAD PUSH2 0x3D9B DUP6 DUP3 PUSH2 0x3CF9 JUMP JUMPDEST SWAP5 POP PUSH2 0x3DA6 DUP4 PUSH2 0x47C8 JUMP JUMPDEST SWAP3 POP PUSH1 0x20 DUP11 ADD SWAP10 POP POP PUSH1 0x1 DUP2 ADD SWAP1 POP PUSH2 0x3D82 JUMP JUMPDEST POP DUP3 SWAP8 POP DUP8 SWAP6 POP POP POP POP POP POP SWAP3 SWAP2 POP POP JUMP JUMPDEST PUSH1 0x0 PUSH2 0x3DD7 DUP3 PUSH2 0x47A7 JUMP JUMPDEST PUSH2 0x3DE1 DUP2 DUP6 PUSH2 0x4800 JUMP JUMPDEST SWAP4 POP DUP4 PUSH1 0x20 DUP3 MUL DUP6 ADD PUSH2 0x3DF3 DUP6 PUSH2 0x4767 JUMP JUMPDEST DUP1 PUSH1 0x0 JUMPDEST DUP6 DUP2 LT ISZERO PUSH2 0x3E2F JUMPI DUP5 DUP5 SUB DUP10 MSTORE DUP2 MLOAD PUSH2 0x3E10 DUP6 DUP3 PUSH2 0x3D0D JUMP JUMPDEST SWAP5 POP PUSH2 0x3E1B DUP4 PUSH2 0x47D5 JUMP JUMPDEST SWAP3 POP PUSH1 0x20 DUP11 ADD SWAP10 POP POP PUSH1 0x1 DUP2 ADD SWAP1 POP PUSH2 0x3DF7 JUMP JUMPDEST POP DUP3 SWAP8 POP DUP8 SWAP6 POP POP POP POP POP POP SWAP3 SWAP2 POP POP JUMP JUMPDEST PUSH1 0x0 PUSH2 0x3E4C DUP3 PUSH2 0x47B2 JUMP JUMPDEST PUSH2 0x3E56 DUP2 DUP6 PUSH2 0x4811 JUMP JUMPDEST SWAP4 POP PUSH2 0x3E61 DUP4 PUSH2 0x4777 JUMP JUMPDEST DUP1 PUSH1 0x0 JUMPDEST DUP4 DUP2 LT ISZERO PUSH2 0x3E92 JUMPI DUP2 MLOAD PUSH2 0x3E79 DUP9 DUP3 PUSH2 0x3D21 JUMP JUMPDEST SWAP8 POP PUSH2 0x3E84 DUP4 PUSH2 0x47E2 JUMP JUMPDEST SWAP3 POP POP PUSH1 0x1 DUP2 ADD SWAP1 POP PUSH2 0x3E65 JUMP JUMPDEST POP DUP6 SWAP4 POP POP POP POP SWAP3 SWAP2 POP POP JUMP JUMPDEST PUSH2 0x3EA8 DUP2 PUSH2 0x49BD JUMP JUMPDEST DUP3 MSTORE POP POP JUMP JUMPDEST PUSH2 0x3EB7 DUP2 PUSH2 0x4A31 JUMP JUMPDEST DUP3 MSTORE POP POP JUMP JUMPDEST PUSH2 0x3EC6 DUP2 PUSH2 0x4A31 JUMP JUMPDEST DUP3 MSTORE POP POP JUMP JUMPDEST PUSH1 0x0 PUSH2 0x3ED7 DUP3 PUSH2 0x47BD JUMP JUMPDEST PUSH2 0x3EE1 DUP2 DUP6 PUSH2 0x4822 JUMP JUMPDEST SWAP4 POP PUSH2 0x3EF1 DUP2 DUP6 PUSH1 0x20 DUP7 ADD PUSH2 0x4A43 JUMP JUMPDEST PUSH2 0x3EFA DUP2 PUSH2 0x4C32 JUMP JUMPDEST DUP5 ADD SWAP2 POP POP SWAP3 SWAP2 POP POP JUMP JUMPDEST PUSH1 0x0 PUSH2 0x3F10 DUP3 PUSH2 0x47BD JUMP JUMPDEST PUSH2 0x3F1A DUP2 DUP6 PUSH2 0x4833 JUMP JUMPDEST SWAP4 POP PUSH2 0x3F2A DUP2 DUP6 PUSH1 0x20 DUP7 ADD PUSH2 0x4A43 JUMP JUMPDEST PUSH2 0x3F33 DUP2 PUSH2 0x4C32 JUMP JUMPDEST DUP5 ADD SWAP2 POP POP SWAP3 SWAP2 POP POP JUMP JUMPDEST PUSH1 0x0 DUP2 SLOAD PUSH2 0x3F4B DUP2 PUSH2 0x4A76 JUMP JUMPDEST PUSH2 0x3F55 DUP2 DUP7 PUSH2 0x4833 JUMP JUMPDEST SWAP5 POP PUSH1 0x1 DUP3 AND PUSH1 0x0 DUP2 EQ PUSH2 0x3F70 JUMPI PUSH1 0x1 DUP2 EQ PUSH2 0x3F82 JUMPI PUSH2 0x3FB5 JUMP JUMPDEST PUSH1 0xFF NOT DUP4 AND DUP7 MSTORE PUSH1 0x20 DUP7 ADD SWAP4 POP PUSH2 0x3FB5 JUMP JUMPDEST PUSH2 0x3F8B DUP6 PUSH2 0x4787 JUMP JUMPDEST PUSH1 0x0 JUMPDEST DUP4 DUP2 LT ISZERO PUSH2 0x3FAD JUMPI DUP2 SLOAD DUP2 DUP10 ADD MSTORE PUSH1 0x1 DUP3 ADD SWAP2 POP PUSH1 0x20 DUP2 ADD SWAP1 POP PUSH2 0x3F8E JUMP JUMPDEST DUP1 DUP9 ADD SWAP6 POP POP POP JUMPDEST POP POP POP SWAP3 SWAP2 POP POP JUMP JUMPDEST PUSH1 0x0 PUSH2 0x3FCB PUSH1 0x2E DUP4 PUSH2 0x4833 JUMP JUMPDEST SWAP2 POP PUSH2 0x3FD6 DUP3 PUSH2 0x4C43 JUMP JUMPDEST PUSH1 0x40 DUP3 ADD SWAP1 POP SWAP2 SWAP1 POP JUMP JUMPDEST PUSH1 0x0 PUSH2 0x3FEE PUSH1 0x13 DUP4 PUSH2 0x4833 JUMP JUMPDEST SWAP2 POP PUSH2 0x3FF9 DUP3 PUSH2 0x4C92 JUMP JUMPDEST PUSH1 0x20 DUP3 ADD SWAP1 POP SWAP2 SWAP1 POP JUMP JUMPDEST PUSH1 0x0 PUSH2 0x4011 PUSH1 0x2D DUP4 PUSH2 0x4833 JUMP JUMPDEST SWAP2 POP PUSH2 0x401C DUP3 PUSH2 0x4CBB JUMP JUMPDEST PUSH1 0x40 DUP3 ADD SWAP1 POP SWAP2 SWAP1 POP JUMP JUMPDEST PUSH1 0x0 PUSH2 0x4034 PUSH1 0x26 DUP4 PUSH2 0x4833 JUMP JUMPDEST SWAP2 POP PUSH2 0x403F DUP3 PUSH2 0x4D0A JUMP JUMPDEST PUSH1 0x40 DUP3 ADD SWAP1 POP SWAP2 SWAP1 POP JUMP JUMPDEST PUSH1 0x0 PUSH2 0x4057 PUSH1 0x12 DUP4 PUSH2 0x4833 JUMP JUMPDEST SWAP2 POP PUSH2 0x4062 DUP3 PUSH2 0x4D59 JUMP JUMPDEST PUSH1 0x20 DUP3 ADD SWAP1 POP SWAP2 SWAP1 POP JUMP JUMPDEST PUSH1 0x0 PUSH2 0x407A PUSH1 0x30 DUP4 PUSH2 0x4833 JUMP JUMPDEST SWAP2 POP PUSH2 0x4085 DUP3 PUSH2 0x4D82 JUMP JUMPDEST PUSH1 0x40 DUP3 ADD SWAP1 POP SWAP2 SWAP1 POP JUMP JUMPDEST PUSH1 0x0 PUSH2 0x409D PUSH1 0x21 DUP4 PUSH2 0x4833 JUMP JUMPDEST SWAP2 POP PUSH2 0x40A8 DUP3 PUSH2 0x4DD1 JUMP JUMPDEST PUSH1 0x40 DUP3 ADD SWAP1 POP SWAP2 SWAP1 POP JUMP JUMPDEST PUSH1 0x0 PUSH2 0x40C0 PUSH1 0x21 DUP4 PUSH2 0x4833 JUMP JUMPDEST SWAP2 POP PUSH2 0x40CB DUP3 PUSH2 0x4E20 JUMP JUMPDEST PUSH1 0x40 DUP3 ADD SWAP1 POP SWAP2 SWAP1 POP JUMP JUMPDEST PUSH1 0x0 PUSH2 0x40E3 PUSH1 0x20 DUP4 PUSH2 0x4833 JUMP JUMPDEST SWAP2 POP PUSH2 0x40EE DUP3 PUSH2 0x4E6F JUMP JUMPDEST PUSH1 0x20 DUP3 ADD SWAP1 POP SWAP2 SWAP1 POP JUMP JUMPDEST PUSH1 0x0 PUSH2 0x4106 PUSH1 0x14 DUP4 PUSH2 0x4833 JUMP JUMPDEST SWAP2 POP PUSH2 0x4111 DUP3 PUSH2 0x4E98 JUMP JUMPDEST PUSH1 0x20 DUP3 ADD SWAP1 POP SWAP2 SWAP1 POP JUMP JUMPDEST PUSH1 0x0 PUSH2 0x4129 PUSH1 0x15 DUP4 PUSH2 0x4833 JUMP JUMPDEST SWAP2 POP PUSH2 0x4134 DUP3 PUSH2 0x4EC1 JUMP JUMPDEST PUSH1 0x20 DUP3 ADD SWAP1 POP SWAP2 SWAP1 POP JUMP JUMPDEST PUSH1 0x0 PUSH2 0x414C PUSH1 0x1C DUP4 PUSH2 0x4833 JUMP JUMPDEST SWAP2 POP PUSH2 0x4157 DUP3 PUSH2 0x4EEA JUMP JUMPDEST PUSH1 0x20 DUP3 ADD SWAP1 POP SWAP2 SWAP1 POP JUMP JUMPDEST PUSH1 0x0 PUSH2 0x416F PUSH1 0x14 DUP4 PUSH2 0x4833 JUMP JUMPDEST SWAP2 POP PUSH2 0x417A DUP3 PUSH2 0x4F13 JUMP JUMPDEST PUSH1 0x20 DUP3 ADD SWAP1 POP SWAP2 SWAP1 POP JUMP JUMPDEST PUSH1 0x0 PUSH2 0x4192 PUSH1 0x32 DUP4 PUSH2 0x4833 JUMP JUMPDEST SWAP2 POP PUSH2 0x419D DUP3 PUSH2 0x4F3C JUMP JUMPDEST PUSH1 0x40 DUP3 ADD SWAP1 POP SWAP2 SWAP1 POP JUMP JUMPDEST PUSH1 0x0 PUSH2 0x120 DUP4 ADD PUSH1 0x0 DUP4 ADD MLOAD PUSH2 0x41C1 PUSH1 0x0 DUP7 ADD DUP3 PUSH2 0x4332 JUMP JUMPDEST POP PUSH1 0x20 DUP4 ADD MLOAD DUP5 DUP3 SUB PUSH1 0x20 DUP7 ADD MSTORE PUSH2 0x41D9 DUP3 DUP3 PUSH2 0x3ECC JUMP JUMPDEST SWAP2 POP POP PUSH1 0x40 DUP4 ADD MLOAD PUSH2 0x41EE PUSH1 0x40 DUP7 ADD DUP3 PUSH2 0x436E JUMP JUMPDEST POP PUSH1 0x60 DUP4 ADD MLOAD PUSH2 0x4201 PUSH1 0x60 DUP7 ADD DUP3 PUSH2 0x436E JUMP JUMPDEST POP PUSH1 0x80 DUP4 ADD MLOAD PUSH2 0x4214 PUSH1 0x80 DUP7 ADD DUP3 PUSH2 0x3D39 JUMP JUMPDEST POP PUSH1 0xA0 DUP4 ADD MLOAD PUSH2 0x4227 PUSH1 0xA0 DUP7 ADD DUP3 PUSH2 0x4350 JUMP JUMPDEST POP PUSH1 0xC0 DUP4 ADD MLOAD PUSH2 0x423A PUSH1 0xC0 DUP7 ADD DUP3 PUSH2 0x4350 JUMP JUMPDEST POP PUSH1 0xE0 DUP4 ADD MLOAD PUSH2 0x424D PUSH1 0xE0 DUP7 ADD DUP3 PUSH2 0x4350 JUMP JUMPDEST POP PUSH2 0x100 DUP4 ADD MLOAD PUSH2 0x4262 PUSH2 0x100 DUP7 ADD DUP3 PUSH2 0x3EAE JUMP JUMPDEST POP DUP1 SWAP2 POP POP SWAP3 SWAP2 POP POP JUMP JUMPDEST PUSH1 0x0 PUSH2 0x120 DUP4 ADD PUSH1 0x0 DUP4 ADD MLOAD PUSH2 0x4286 PUSH1 0x0 DUP7 ADD DUP3 PUSH2 0x4332 JUMP JUMPDEST POP PUSH1 0x20 DUP4 ADD MLOAD DUP5 DUP3 SUB PUSH1 0x20 DUP7 ADD MSTORE PUSH2 0x429E DUP3 DUP3 PUSH2 0x3ECC JUMP JUMPDEST SWAP2 POP POP PUSH1 0x40 DUP4 ADD MLOAD PUSH2 0x42B3 PUSH1 0x40 DUP7 ADD DUP3 PUSH2 0x436E JUMP JUMPDEST POP PUSH1 0x60 DUP4 ADD MLOAD PUSH2 0x42C6 PUSH1 0x60 DUP7 ADD DUP3 PUSH2 0x436E JUMP JUMPDEST POP PUSH1 0x80 DUP4 ADD MLOAD PUSH2 0x42D9 PUSH1 0x80 DUP7 ADD DUP3 PUSH2 0x3D39 JUMP JUMPDEST POP PUSH1 0xA0 DUP4 ADD MLOAD PUSH2 0x42EC PUSH1 0xA0 DUP7 ADD DUP3 PUSH2 0x4350 JUMP JUMPDEST POP PUSH1 0xC0 DUP4 ADD MLOAD PUSH2 0x42FF PUSH1 0xC0 DUP7 ADD DUP3 PUSH2 0x4350 JUMP JUMPDEST POP PUSH1 0xE0 DUP4 ADD MLOAD PUSH2 0x4312 PUSH1 0xE0 DUP7 ADD DUP3 PUSH2 0x4350 JUMP JUMPDEST POP PUSH2 0x100 DUP4 ADD MLOAD PUSH2 0x4327 PUSH2 0x100 DUP7 ADD DUP3 PUSH2 0x3EAE JUMP JUMPDEST POP DUP1 SWAP2 POP POP SWAP3 SWAP2 POP POP JUMP JUMPDEST PUSH2 0x433B DUP2 PUSH2 0x49DC JUMP JUMPDEST DUP3 MSTORE POP POP JUMP JUMPDEST PUSH2 0x434A DUP2 PUSH2 0x49DC JUMP JUMPDEST DUP3 MSTORE POP POP JUMP JUMPDEST PUSH2 0x4359 DUP2 PUSH2 0x4A0A JUMP JUMPDEST DUP3 MSTORE POP POP JUMP JUMPDEST PUSH2 0x4368 DUP2 PUSH2 0x4A0A JUMP JUMPDEST DUP3 MSTORE POP POP JUMP JUMPDEST PUSH2 0x4377 DUP2 PUSH2 0x4A14 JUMP JUMPDEST DUP3 MSTORE POP POP JUMP JUMPDEST PUSH2 0x4386 DUP2 PUSH2 0x4A14 JUMP JUMPDEST DUP3 MSTORE POP POP JUMP JUMPDEST PUSH2 0x4395 DUP2 PUSH2 0x4A24 JUMP JUMPDEST DUP3 MSTORE POP POP JUMP JUMPDEST PUSH1 0x0 PUSH1 0x20 DUP3 ADD SWAP1 POP PUSH2 0x43B0 PUSH1 0x0 DUP4 ADD DUP5 PUSH2 0x3D48 JUMP JUMPDEST SWAP3 SWAP2 POP POP JUMP JUMPDEST PUSH1 0x0 PUSH1 0x20 DUP3 ADD SWAP1 POP DUP2 DUP2 SUB PUSH1 0x0 DUP4 ADD MSTORE PUSH2 0x43D0 DUP2 DUP5 PUSH2 0x3D57 JUMP JUMPDEST SWAP1 POP SWAP3 SWAP2 POP POP JUMP JUMPDEST PUSH1 0x0 PUSH1 0x20 DUP3 ADD SWAP1 POP DUP2 DUP2 SUB PUSH1 0x0 DUP4 ADD MSTORE PUSH2 0x43F2 DUP2 DUP5 PUSH2 0x3DCC JUMP JUMPDEST SWAP1 POP SWAP3 SWAP2 POP POP JUMP JUMPDEST PUSH1 0x0 PUSH1 0x20 DUP3 ADD SWAP1 POP DUP2 DUP2 SUB PUSH1 0x0 DUP4 ADD MSTORE PUSH2 0x4414 DUP2 DUP5 PUSH2 0x3E41 JUMP JUMPDEST SWAP1 POP SWAP3 SWAP2 POP POP JUMP JUMPDEST PUSH1 0x0 PUSH1 0x20 DUP3 ADD SWAP1 POP PUSH2 0x4431 PUSH1 0x0 DUP4 ADD DUP5 PUSH2 0x3E9F JUMP JUMPDEST SWAP3 SWAP2 POP POP JUMP JUMPDEST PUSH1 0x0 PUSH1 0x20 DUP3 ADD SWAP1 POP DUP2 DUP2 SUB PUSH1 0x0 DUP4 ADD MSTORE PUSH2 0x4451 DUP2 DUP5 PUSH2 0x3F3E JUMP JUMPDEST SWAP1 POP SWAP3 SWAP2 POP POP JUMP JUMPDEST PUSH1 0x0 PUSH1 0x60 DUP3 ADD SWAP1 POP DUP2 DUP2 SUB PUSH1 0x0 DUP4 ADD MSTORE PUSH2 0x4473 DUP2 DUP7 PUSH2 0x3F3E JUMP JUMPDEST SWAP1 POP PUSH2 0x4482 PUSH1 0x20 DUP4 ADD DUP6 PUSH2 0x437D JUMP JUMPDEST PUSH2 0x448F PUSH1 0x40 DUP4 ADD DUP5 PUSH2 0x437D JUMP JUMPDEST SWAP5 SWAP4 POP POP POP POP JUMP JUMPDEST PUSH1 0x0 PUSH1 0x20 DUP3 ADD SWAP1 POP DUP2 DUP2 SUB PUSH1 0x0 DUP4 ADD MSTORE PUSH2 0x44B0 DUP2 PUSH2 0x3FBE JUMP JUMPDEST SWAP1 POP SWAP2 SWAP1 POP JUMP JUMPDEST PUSH1 0x0 PUSH1 0x20 DUP3 ADD SWAP1 POP DUP2 DUP2 SUB PUSH1 0x0 DUP4 ADD MSTORE PUSH2 0x44D0 DUP2 PUSH2 0x3FE1 JUMP JUMPDEST SWAP1 POP SWAP2 SWAP1 POP JUMP JUMPDEST PUSH1 0x0 PUSH1 0x20 DUP3 ADD SWAP1 POP DUP2 DUP2 SUB PUSH1 0x0 DUP4 ADD MSTORE PUSH2 0x44F0 DUP2 PUSH2 0x4004 JUMP JUMPDEST SWAP1 POP SWAP2 SWAP1 POP JUMP JUMPDEST PUSH1 0x0 PUSH1 0x20 DUP3 ADD SWAP1 POP DUP2 DUP2 SUB PUSH1 0x0 DUP4 ADD MSTORE PUSH2 0x4510 DUP2 PUSH2 0x4027 JUMP JUMPDEST SWAP1 POP SWAP2 SWAP1 POP JUMP JUMPDEST PUSH1 0x0 PUSH1 0x20 DUP3 ADD SWAP1 POP DUP2 DUP2 SUB PUSH1 0x0 DUP4 ADD MSTORE PUSH2 0x4530 DUP2 PUSH2 0x404A JUMP JUMPDEST SWAP1 POP SWAP2 SWAP1 POP JUMP JUMPDEST PUSH1 0x0 PUSH1 0x20 DUP3 ADD SWAP1 POP DUP2 DUP2 SUB PUSH1 0x0 DUP4 ADD MSTORE PUSH2 0x4550 DUP2 PUSH2 0x406D JUMP JUMPDEST SWAP1 POP SWAP2 SWAP1 POP JUMP JUMPDEST PUSH1 0x0 PUSH1 0x20 DUP3 ADD SWAP1 POP DUP2 DUP2 SUB PUSH1 0x0 DUP4 ADD MSTORE PUSH2 0x4570 DUP2 PUSH2 0x4090 JUMP JUMPDEST SWAP1 POP SWAP2 SWAP1 POP JUMP JUMPDEST PUSH1 0x0 PUSH1 0x20 DUP3 ADD SWAP1 POP DUP2 DUP2 SUB PUSH1 0x0 DUP4 ADD MSTORE PUSH2 0x4590 DUP2 PUSH2 0x40B3 JUMP JUMPDEST SWAP1 POP SWAP2 SWAP1 POP JUMP JUMPDEST PUSH1 0x0 PUSH1 0x20 DUP3 ADD SWAP1 POP DUP2 DUP2 SUB PUSH1 0x0 DUP4 ADD MSTORE PUSH2 0x45B0 DUP2 PUSH2 0x40D6 JUMP JUMPDEST SWAP1 POP SWAP2 SWAP1 POP JUMP JUMPDEST PUSH1 0x0 PUSH1 0x20 DUP3 ADD SWAP1 POP DUP2 DUP2 SUB PUSH1 0x0 DUP4 ADD MSTORE PUSH2 0x45D0 DUP2 PUSH2 0x40F9 JUMP JUMPDEST SWAP1 POP SWAP2 SWAP1 POP JUMP JUMPDEST PUSH1 0x0 PUSH1 0x20 DUP3 ADD SWAP1 POP DUP2 DUP2 SUB PUSH1 0x0 DUP4 ADD MSTORE PUSH2 0x45F0 DUP2 PUSH2 0x411C JUMP JUMPDEST SWAP1 POP SWAP2 SWAP1 POP JUMP JUMPDEST PUSH1 0x0 PUSH1 0x20 DUP3 ADD SWAP1 POP DUP2 DUP2 SUB PUSH1 0x0 DUP4 ADD MSTORE PUSH2 0x4610 DUP2 PUSH2 0x413F JUMP JUMPDEST SWAP1 POP SWAP2 SWAP1 POP JUMP JUMPDEST PUSH1 0x0 PUSH1 0x20 DUP3 ADD SWAP1 POP DUP2 DUP2 SUB PUSH1 0x0 DUP4 ADD MSTORE PUSH2 0x4630 DUP2 PUSH2 0x4162 JUMP JUMPDEST SWAP1 POP SWAP2 SWAP1 POP JUMP JUMPDEST PUSH1 0x0 PUSH1 0x20 DUP3 ADD SWAP1 POP DUP2 DUP2 SUB PUSH1 0x0 DUP4 ADD MSTORE PUSH2 0x4650 DUP2 PUSH2 0x4185 JUMP JUMPDEST SWAP1 POP SWAP2 SWAP1 POP JUMP JUMPDEST PUSH1 0x0 PUSH1 0x20 DUP3 ADD SWAP1 POP PUSH2 0x466C PUSH1 0x0 DUP4 ADD DUP5 PUSH2 0x4341 JUMP JUMPDEST SWAP3 SWAP2 POP POP JUMP JUMPDEST PUSH1 0x0 PUSH2 0x120 DUP3 ADD SWAP1 POP PUSH2 0x4688 PUSH1 0x0 DUP4 ADD DUP13 PUSH2 0x4341 JUMP JUMPDEST DUP2 DUP2 SUB PUSH1 0x20 DUP4 ADD MSTORE PUSH2 0x469A DUP2 DUP12 PUSH2 0x3F05 JUMP JUMPDEST SWAP1 POP PUSH2 0x46A9 PUSH1 0x40 DUP4 ADD DUP11 PUSH2 0x437D JUMP JUMPDEST PUSH2 0x46B6 PUSH1 0x60 DUP4 ADD DUP10 PUSH2 0x437D JUMP JUMPDEST PUSH2 0x46C3 PUSH1 0x80 DUP4 ADD DUP9 PUSH2 0x3D48 JUMP JUMPDEST PUSH2 0x46D0 PUSH1 0xA0 DUP4 ADD DUP8 PUSH2 0x435F JUMP JUMPDEST PUSH2 0x46DD PUSH1 0xC0 DUP4 ADD DUP7 PUSH2 0x435F JUMP JUMPDEST PUSH2 0x46EA PUSH1 0xE0 DUP4 ADD DUP6 PUSH2 0x435F JUMP JUMPDEST PUSH2 0x46F8 PUSH2 0x100 DUP4 ADD DUP5 PUSH2 0x3EBD JUMP JUMPDEST SWAP11 SWAP10 POP POP POP POP POP POP POP POP POP POP JUMP JUMPDEST PUSH1 0x0 PUSH2 0x4710 PUSH2 0x4721 JUMP JUMPDEST SWAP1 POP PUSH2 0x471C DUP3 DUP3 PUSH2 0x4AA8 JUMP JUMPDEST SWAP2 SWAP1 POP JUMP JUMPDEST PUSH1 0x0 PUSH1 0x40 MLOAD SWAP1 POP SWAP1 JUMP JUMPDEST PUSH1 0x0 PUSH8 0xFFFFFFFFFFFFFFFF DUP3 GT ISZERO PUSH2 0x4746 JUMPI PUSH2 0x4745 PUSH2 0x4BEA JUMP JUMPDEST JUMPDEST PUSH1 0x20 DUP3 MUL SWAP1 POP PUSH1 0x20 DUP2 ADD SWAP1 POP SWAP2 SWAP1 POP JUMP JUMPDEST PUSH1 0x0 DUP2 SWAP1 POP PUSH1 0x20 DUP3 ADD SWAP1 POP SWAP2 SWAP1 POP JUMP JUMPDEST PUSH1 0x0 DUP2 SWAP1 POP PUSH1 0x20 DUP3 ADD SWAP1 POP SWAP2 SWAP1 POP JUMP JUMPDEST PUSH1 0x0 DUP2 SWAP1 POP PUSH1 0x20 DUP3 ADD SWAP1 POP SWAP2 SWAP1 POP JUMP JUMPDEST PUSH1 0x0 DUP2 SWAP1 POP DUP2 PUSH1 0x0 MSTORE PUSH1 0x20 PUSH1 0x0 KECCAK256 SWAP1 POP SWAP2 SWAP1 POP JUMP JUMPDEST PUSH1 0x0 DUP2 MLOAD SWAP1 POP SWAP2 SWAP1 POP JUMP JUMPDEST PUSH1 0x0 DUP2 MLOAD SWAP1 POP SWAP2 SWAP1 POP JUMP JUMPDEST PUSH1 0x0 DUP2 MLOAD SWAP1 POP SWAP2 SWAP1 POP JUMP JUMPDEST PUSH1 0x0 DUP2 MLOAD SWAP1 POP SWAP2 SWAP1 POP JUMP JUMPDEST PUSH1 0x0 PUSH1 0x20 DUP3 ADD SWAP1 POP SWAP2 SWAP1 POP JUMP JUMPDEST PUSH1 0x0 PUSH1 0x20 DUP3 ADD SWAP1 POP SWAP2 SWAP1 POP JUMP JUMPDEST PUSH1 0x0 PUSH1 0x20 DUP3 ADD SWAP1 POP SWAP2 SWAP1 POP JUMP JUMPDEST PUSH1 0x0 DUP3 DUP3 MSTORE PUSH1 0x20 DUP3 ADD SWAP1 POP SWAP3 SWAP2 POP POP JUMP JUMPDEST PUSH1 0x0 DUP3 DUP3 MSTORE PUSH1 0x20 DUP3 ADD SWAP1 POP SWAP3 SWAP2 POP POP JUMP JUMPDEST PUSH1 0x0 DUP3 DUP3 MSTORE PUSH1 0x20 DUP3 ADD SWAP1 POP SWAP3 SWAP2 POP POP JUMP JUMPDEST PUSH1 0x0 DUP3 DUP3 MSTORE PUSH1 0x20 DUP3 ADD SWAP1 POP SWAP3 SWAP2 POP POP JUMP JUMPDEST PUSH1 0x0 DUP3 DUP3 MSTORE PUSH1 0x20 DUP3 ADD SWAP1 POP SWAP3 SWAP2 POP POP JUMP JUMPDEST PUSH1 0x0 PUSH2 0x484F DUP3 PUSH2 0x49DC JUMP JUMPDEST SWAP2 POP PUSH2 0x485A DUP4 PUSH2 0x49DC JUMP JUMPDEST SWAP3 POP DUP3 PUSH2 0xFFFF SUB DUP3 GT ISZERO PUSH2 0x4871 JUMPI PUSH2 0x4870 PUSH2 0x4B2E JUMP JUMPDEST JUMPDEST DUP3 DUP3 ADD SWAP1 POP SWAP3 SWAP2 POP POP JUMP JUMPDEST PUSH1 0x0 PUSH2 0x4887 DUP3 PUSH2 0x4A0A JUMP JUMPDEST SWAP2 POP PUSH2 0x4892 DUP4 PUSH2 0x4A0A JUMP JUMPDEST SWAP3 POP DUP3 PUSH32 0xFFFFFFFFFFFFFFFFFFFFFFFFFFFFFFFFFFFFFFFFFFFFFFFFFFFFFFFFFFFFFFFF SUB DUP3 GT ISZERO PUSH2 0x48C7 JUMPI PUSH2 0x48C6 PUSH2 0x4B2E JUMP JUMPDEST JUMPDEST DUP3 DUP3 ADD SWAP1 POP SWAP3 SWAP2 POP POP JUMP JUMPDEST PUSH1 0x0 PUSH2 0x48DD DUP3 PUSH2 0x4A14 JUMP JUMPDEST SWAP2 POP PUSH2 0x48E8 DUP4 PUSH2 0x4A14 JUMP JUMPDEST SWAP3 POP DUP3 PUSH4 0xFFFFFFFF SUB DUP3 GT ISZERO PUSH2 0x4901 JUMPI PUSH2 0x4900 PUSH2 0x4B2E JUMP JUMPDEST JUMPDEST DUP3 DUP3 ADD SWAP1 POP SWAP3 SWAP2 POP POP JUMP JUMPDEST PUSH1 0x0 PUSH2 0x4917 DUP3 PUSH2 0x4A24 JUMP JUMPDEST SWAP2 POP PUSH2 0x4922 DUP4 PUSH2 0x4A24 JUMP JUMPDEST SWAP3 POP DUP3 PUSH1 0xFF SUB DUP3 GT ISZERO PUSH2 0x4938 JUMPI PUSH2 0x4937 PUSH2 0x4B2E JUMP JUMPDEST JUMPDEST DUP3 DUP3 ADD SWAP1 POP SWAP3 SWAP2 POP POP JUMP JUMPDEST PUSH1 0x0 PUSH2 0x494E DUP3 PUSH2 0x49DC JUMP JUMPDEST SWAP2 POP PUSH2 0x4959 DUP4 PUSH2 0x49DC JUMP JUMPDEST SWAP3 POP DUP3 DUP3 LT ISZERO PUSH2 0x496C JUMPI PUSH2 0x496B PUSH2 0x4B2E JUMP JUMPDEST JUMPDEST DUP3 DUP3 SUB SWAP1 POP SWAP3 SWAP2 POP POP JUMP JUMPDEST PUSH1 0x0 PUSH2 0x4982 DUP3 PUSH2 0x4A24 JUMP JUMPDEST SWAP2 POP PUSH2 0x498D DUP4 PUSH2 0x4A24 JUMP JUMPDEST SWAP3 POP DUP3 DUP3 LT ISZERO PUSH2 0x49A0 JUMPI PUSH2 0x499F PUSH2 0x4B2E JUMP JUMPDEST JUMPDEST DUP3 DUP3 SUB SWAP1 POP SWAP3 SWAP2 POP POP JUMP JUMPDEST PUSH1 0x0 PUSH2 0x49B6 DUP3 PUSH2 0x49EA JUMP JUMPDEST SWAP1 POP SWAP2 SWAP1 POP JUMP JUMPDEST PUSH1 0x0 DUP2 ISZERO ISZERO SWAP1 POP SWAP2 SWAP1 POP JUMP JUMPDEST PUSH1 0x0 DUP2 SWAP1 POP PUSH2 0x49D7 DUP3 PUSH2 0x4F8B JUMP JUMPDEST SWAP2 SWAP1 POP JUMP JUMPDEST PUSH1 0x0 PUSH2 0xFFFF DUP3 AND SWAP1 POP SWAP2 SWAP1 POP JUMP JUMPDEST PUSH1 0x0 PUSH20 0xFFFFFFFFFFFFFFFFFFFFFFFFFFFFFFFFFFFFFFFF DUP3 AND SWAP1 POP SWAP2 SWAP1 POP JUMP JUMPDEST PUSH1 0x0 DUP2 SWAP1 POP SWAP2 SWAP1 POP JUMP JUMPDEST PUSH1 0x0 PUSH4 0xFFFFFFFF DUP3 AND SWAP1 POP SWAP2 SWAP1 POP JUMP JUMPDEST PUSH1 0x0 PUSH1 0xFF DUP3 AND SWAP1 POP SWAP2 SWAP1 POP JUMP JUMPDEST PUSH1 0x0 PUSH2 0x4A3C DUP3 PUSH2 0x49C9 JUMP JUMPDEST SWAP1 POP SWAP2 SWAP1 POP JUMP JUMPDEST PUSH1 0x0 JUMPDEST DUP4 DUP2 LT ISZERO PUSH2 0x4A61 JUMPI DUP1 DUP3 ADD MLOAD DUP2 DUP5 ADD MSTORE PUSH1 0x20 DUP2 ADD SWAP1 POP PUSH2 0x4A46 JUMP JUMPDEST DUP4 DUP2 GT ISZERO PUSH2 0x4A70 JUMPI PUSH1 0x0 DUP5 DUP5 ADD MSTORE JUMPDEST POP POP POP POP JUMP JUMPDEST PUSH1 0x0 PUSH1 0x2 DUP3 DIV SWAP1 POP PUSH1 0x1 DUP3 AND DUP1 PUSH2 0x4A8E JUMPI PUSH1 0x7F DUP3 AND SWAP2 POP JUMPDEST PUSH1 0x20 DUP3 LT DUP2 EQ ISZERO PUSH2 0x4AA2 JUMPI PUSH2 0x4AA1 PUSH2 0x4B8C JUMP JUMPDEST JUMPDEST POP SWAP2 SWAP1 POP JUMP JUMPDEST PUSH2 0x4AB1 DUP3 PUSH2 0x4C32 JUMP JUMPDEST DUP2 ADD DUP2 DUP2 LT PUSH8 0xFFFFFFFFFFFFFFFF DUP3 GT OR ISZERO PUSH2 0x4AD0 JUMPI PUSH2 0x4ACF PUSH2 0x4BEA JUMP JUMPDEST JUMPDEST DUP1 PUSH1 0x40 MSTORE POP POP POP JUMP JUMPDEST PUSH1 0x0 PUSH2 0x4AE4 DUP3 PUSH2 0x49DC JUMP JUMPDEST SWAP2 POP PUSH2 0xFFFF DUP3 EQ ISZERO PUSH2 0x4AF9 JUMPI PUSH2 0x4AF8 PUSH2 0x4B2E JUMP JUMPDEST JUMPDEST PUSH1 0x1 DUP3 ADD SWAP1 POP SWAP2 SWAP1 POP JUMP JUMPDEST PUSH1 0x0 PUSH2 0x4B0F DUP3 PUSH2 0x4A24 JUMP JUMPDEST SWAP2 POP PUSH1 0xFF DUP3 EQ ISZERO PUSH2 0x4B23 JUMPI PUSH2 0x4B22 PUSH2 0x4B2E JUMP JUMPDEST JUMPDEST PUSH1 0x1 DUP3 ADD SWAP1 POP SWAP2 SWAP1 POP JUMP JUMPDEST PUSH32 0x4E487B7100000000000000000000000000000000000000000000000000000000 PUSH1 0x0 MSTORE PUSH1 0x11 PUSH1 0x4 MSTORE PUSH1 0x24 PUSH1 0x0 REVERT JUMPDEST PUSH32 0x4E487B7100000000000000000000000000000000000000000000000000000000 PUSH1 0x0 MSTORE PUSH1 0x21 PUSH1 0x4 MSTORE PUSH1 0x24 PUSH1 0x0 REVERT JUMPDEST PUSH32 0x4E487B7100000000000000000000000000000000000000000000000000000000 PUSH1 0x0 MSTORE PUSH1 0x22 PUSH1 0x4 MSTORE PUSH1 0x24 PUSH1 0x0 REVERT JUMPDEST PUSH32 0x4E487B7100000000000000000000000000000000000000000000000000000000 PUSH1 0x0 MSTORE PUSH1 0x32 PUSH1 0x4 MSTORE PUSH1 0x24 PUSH1 0x0 REVERT JUMPDEST PUSH32 0x4E487B7100000000000000000000000000000000000000000000000000000000 PUSH1 0x0 MSTORE PUSH1 0x41 PUSH1 0x4 MSTORE PUSH1 0x24 PUSH1 0x0 REVERT JUMPDEST PUSH1 0x0 DUP1 REVERT JUMPDEST PUSH1 0x0 DUP1 REVERT JUMPDEST PUSH1 0x0 DUP1 REVERT JUMPDEST PUSH1 0x0 DUP1 REVERT JUMPDEST PUSH1 0x0 DUP1 REVERT JUMPDEST PUSH1 0x0 PUSH1 0x1F NOT PUSH1 0x1F DUP4 ADD AND SWAP1 POP SWAP2 SWAP1 POP JUMP JUMPDEST PUSH32 0x566F74696E6720547970652063616E6E6F7420626520636C6F73656420617420 PUSH1 0x0 DUP3 ADD MSTORE PUSH32 0x696E697469616C2073746174652E000000000000000000000000000000000000 PUSH1 0x20 DUP3 ADD MSTORE POP JUMP JUMPDEST PUSH32 0x596F7520617265206E6F74206120766F74657200000000000000000000000000 PUSH1 0x0 DUP3 ADD MSTORE POP JUMP JUMPDEST PUSH32 0x43757272656E746C7920776520617265206E6F7420766F74696E67206F6E2074 PUSH1 0x0 DUP3 ADD MSTORE PUSH32 0x6869732066756E6374696F6E2E00000000000000000000000000000000000000 PUSH1 0x20 DUP3 ADD MSTORE POP JUMP JUMPDEST PUSH32 0x4F776E61626C653A206E6577206F776E657220697320746865207A65726F2061 PUSH1 0x0 DUP3 ADD MSTORE PUSH32 0x6464726573730000000000000000000000000000000000000000000000000000 PUSH1 0x20 DUP3 ADD MSTORE POP JUMP JUMPDEST PUSH32 0x5468657265206973206E6F20766F74696E670000000000000000000000000000 PUSH1 0x0 DUP3 ADD MSTORE POP JUMP JUMPDEST PUSH32 0x50726F706F73616C20547970652063616E6E6F7420626520636C6F7365642061 PUSH1 0x0 DUP3 ADD MSTORE PUSH32 0x7420696E697469616C2073746174652E00000000000000000000000000000000 PUSH1 0x20 DUP3 ADD MSTORE POP JUMP JUMPDEST PUSH32 0x596F7520617265206E6F7420746865204B6579486F6C646572436F6E74726163 PUSH1 0x0 DUP3 ADD MSTORE PUSH32 0x7400000000000000000000000000000000000000000000000000000000000000 PUSH1 0x20 DUP3 ADD MSTORE POP JUMP JUMPDEST PUSH32 0x476976656E206164647265737320697320616C7265616479206120766F746572 PUSH1 0x0 DUP3 ADD MSTORE PUSH32 0x2E00000000000000000000000000000000000000000000000000000000000000 PUSH1 0x20 DUP3 ADD MSTORE POP JUMP JUMPDEST PUSH32 0x4F776E61626C653A2063616C6C6572206973206E6F7420746865206F776E6572 PUSH1 0x0 DUP3 ADD MSTORE POP JUMP JUMPDEST PUSH32 0x5A65726F204164647265737320656E7465726564000000000000000000000000 PUSH1 0x0 DUP3 ADD MSTORE POP JUMP JUMPDEST PUSH32 0x596F75206861766520766F746564206265666F72650000000000000000000000 PUSH1 0x0 DUP3 ADD MSTORE POP JUMP JUMPDEST PUSH32 0x506C6561736520766F7465206265747765656E203120746F2031302E00000000 PUSH1 0x0 DUP3 ADD MSTORE POP JUMP JUMPDEST PUSH32 0x596F7520617265206E6F74206120766F74657272000000000000000000000000 PUSH1 0x0 DUP3 ADD MSTORE POP JUMP JUMPDEST PUSH32 0x566F74696E672063616E6E6F7420626520636C6F736564206265666F72652069 PUSH1 0x0 DUP3 ADD MSTORE PUSH32 0x7427732064657369676E6174656420746F2E0000000000000000000000000000 PUSH1 0x20 DUP3 ADD MSTORE POP JUMP JUMPDEST PUSH1 0x3 DUP2 LT PUSH2 0x4F9C JUMPI PUSH2 0x4F9B PUSH2 0x4B5D JUMP JUMPDEST JUMPDEST POP JUMP JUMPDEST PUSH2 0x4FA8 DUP2 PUSH2 0x49AB JUMP JUMPDEST DUP2 EQ PUSH2 0x4FB3 JUMPI PUSH1 0x0 DUP1 REVERT JUMPDEST POP JUMP JUMPDEST PUSH1 0x2 DUP2 LT PUSH2 0x4FC3 JUMPI PUSH1 0x0 DUP1 REVERT JUMPDEST POP JUMP JUMPDEST PUSH1 0x3 DUP2 LT PUSH2 0x4FD3 JUMPI PUSH1 0x0 DUP1 REVERT JUMPDEST POP JUMP JUMPDEST PUSH2 0x4FDF DUP2 PUSH2 0x49DC JUMP JUMPDEST DUP2 EQ PUSH2 0x4FEA JUMPI PUSH1 0x0 DUP1 REVERT JUMPDEST POP JUMP JUMPDEST PUSH2 0x4FF6 DUP2 PUSH2 0x4A24 JUMP JUMPDEST DUP2 EQ PUSH2 0x5001 JUMPI PUSH1 0x0 DUP1 REVERT JUMPDEST POP JUMP INVALID LOG2 PUSH5 0x6970667358 0x22 SLT KECCAK256 CALLVALUE 0xD5 0xAF PUSH5 0xDA92A25388 PUSH32 0x3F72885E7D5790853E3AFD2C456DB3E693357BF4023064736F6C634300080700 CALLER "
				},
				"gasEstimates": {
					"creation": {
						"codeDepositCost": "4107600",
						"executionCost": "infinite",
						"totalCost": "infinite"
					},
					"external": {
						"amIVOTER()": "2592",
						"closeProposal(uint16)": "infinite",
						"closeVoting(uint16)": "infinite",
						"getProposals(uint16,uint16)": "infinite",
						"getVotings(uint8,uint8)": "infinite",
						"giveVotingPower(address)": "infinite",
						"keyHolder()": "2537",
						"openProposal(uint8,string)": "infinite",
						"owner()": "2655",
						"proposalId()": "2611",
						"proposals(uint16)": "infinite",
						"renounceOwnership()": "30509",
						"setKeyHolderAddress(address)": "27053",
						"totalVoterCount()": "2610",
						"transferOwnership(address)": "30813",
						"useVotePowerOne2Ten(uint16,uint8)": "infinite",
						"useVotePowerProposalOne2Ten(uint16,uint8)": "infinite",
						"useVotePowerProposalYesNo(uint16,uint8)": "infinite",
						"useVotePowerYesNo(uint16,uint8)": "infinite",
						"voteId()": "2581",
						"votings(uint16)": "infinite",
						"whatDidIVote(uint16[])": "infinite",
						"whatDidIVoteForProposals(uint16[])": "infinite"
					},
					"internal": {
						"_closeProposal(uint16)": "infinite",
						"_closeVoting(uint16)": "infinite",
						"_openVoting(uint16,enum VoterContract.VotingType)": "infinite"
					}
				},
				"methodIdentifiers": {
					"amIVOTER()": "04f397cf",
					"closeProposal(uint16)": "de513e3d",
					"closeVoting(uint16)": "156c2da6",
					"getProposals(uint16,uint16)": "393a97ef",
					"getVotings(uint8,uint8)": "fae04215",
					"giveVotingPower(address)": "ea31a64c",
					"keyHolder()": "45e641d0",
					"openProposal(uint8,string)": "1ffc5042",
					"owner()": "8da5cb5b",
					"proposalId()": "2dfca445",
					"proposals(uint16)": "c497efa3",
					"renounceOwnership()": "715018a6",
					"setKeyHolderAddress(address)": "bf2aba79",
					"totalVoterCount()": "6f71e065",
					"transferOwnership(address)": "f2fde38b",
					"useVotePowerOne2Ten(uint16,uint8)": "4d313bb8",
					"useVotePowerProposalOne2Ten(uint16,uint8)": "9ea061c9",
					"useVotePowerProposalYesNo(uint16,uint8)": "cf5ebb38",
					"useVotePowerYesNo(uint16,uint8)": "481aa215",
					"voteId()": "fbb39651",
					"votings(uint16)": "ddd2d1fd",
					"whatDidIVote(uint16[])": "fce96911",
					"whatDidIVoteForProposals(uint16[])": "985224d6"
				}
			},
			"storageLayout": {
				"storage": [
					{
						"astId": 7,
						"contract": "contracts/Vote/VoterContract.sol:VoterContract",
						"label": "_owner",
						"offset": 0,
						"slot": "0",
						"type": "t_address"
					},
					{
						"astId": 141,
						"contract": "contracts/Vote/VoterContract.sol:VoterContract",
						"label": "keyHolder",
						"offset": 0,
						"slot": "1",
						"type": "t_address"
					},
					{
						"astId": 224,
						"contract": "contracts/Vote/VoterContract.sol:VoterContract",
						"label": "__VOTERS__",
						"offset": 0,
						"slot": "2",
						"type": "t_mapping(t_address,t_bool)"
					},
					{
						"astId": 230,
						"contract": "contracts/Vote/VoterContract.sol:VoterContract",
						"label": "votePower",
						"offset": 0,
						"slot": "3",
						"type": "t_mapping(t_uint16,t_mapping(t_address,t_uint8))"
					},
					{
						"astId": 235,
						"contract": "contracts/Vote/VoterContract.sol:VoterContract",
						"label": "votings",
						"offset": 0,
						"slot": "4",
						"type": "t_mapping(t_uint16,t_struct(Voting)200_storage)"
					},
					{
						"astId": 241,
						"contract": "contracts/Vote/VoterContract.sol:VoterContract",
						"label": "proposalVotePower",
						"offset": 0,
						"slot": "5",
						"type": "t_mapping(t_uint16,t_mapping(t_address,t_uint8))"
					},
					{
						"astId": 246,
						"contract": "contracts/Vote/VoterContract.sol:VoterContract",
						"label": "proposals",
						"offset": 0,
						"slot": "6",
						"type": "t_mapping(t_uint16,t_struct(Proposal)220_storage)"
					},
					{
						"astId": 252,
						"contract": "contracts/Vote/VoterContract.sol:VoterContract",
						"label": "voteId",
						"offset": 0,
						"slot": "7",
						"type": "t_uint16"
					},
					{
						"astId": 255,
						"contract": "contracts/Vote/VoterContract.sol:VoterContract",
						"label": "proposalId",
						"offset": 2,
						"slot": "7",
						"type": "t_uint16"
					},
					{
						"astId": 258,
						"contract": "contracts/Vote/VoterContract.sol:VoterContract",
						"label": "totalVoterCount",
						"offset": 4,
						"slot": "7",
						"type": "t_uint16"
					}
				],
				"types": {
					"t_address": {
						"encoding": "inplace",
						"label": "address",
						"numberOfBytes": "20"
					},
					"t_bool": {
						"encoding": "inplace",
						"label": "bool",
						"numberOfBytes": "1"
					},
					"t_enum(VotingType)177": {
						"encoding": "inplace",
						"label": "enum VoterContract.VotingType",
						"numberOfBytes": "1"
					},
					"t_mapping(t_address,t_bool)": {
						"encoding": "mapping",
						"key": "t_address",
						"label": "mapping(address => bool)",
						"numberOfBytes": "32",
						"value": "t_bool"
					},
					"t_mapping(t_address,t_uint8)": {
						"encoding": "mapping",
						"key": "t_address",
						"label": "mapping(address => uint8)",
						"numberOfBytes": "32",
						"value": "t_uint8"
					},
					"t_mapping(t_uint16,t_mapping(t_address,t_uint8))": {
						"encoding": "mapping",
						"key": "t_uint16",
						"label": "mapping(uint16 => mapping(address => uint8))",
						"numberOfBytes": "32",
						"value": "t_mapping(t_address,t_uint8)"
					},
					"t_mapping(t_uint16,t_struct(Proposal)220_storage)": {
						"encoding": "mapping",
						"key": "t_uint16",
						"label": "mapping(uint16 => struct VoterContract.Proposal)",
						"numberOfBytes": "32",
						"value": "t_struct(Proposal)220_storage"
					},
					"t_mapping(t_uint16,t_struct(Voting)200_storage)": {
						"encoding": "mapping",
						"key": "t_uint16",
						"label": "mapping(uint16 => struct VoterContract.Voting)",
						"numberOfBytes": "32",
						"value": "t_struct(Voting)200_storage"
					},
					"t_string_storage": {
						"encoding": "bytes",
						"label": "string",
						"numberOfBytes": "32"
					},
					"t_struct(Proposal)220_storage": {
						"encoding": "inplace",
						"label": "struct VoterContract.Proposal",
						"members": [
							{
								"astId": 202,
								"contract": "contracts/Vote/VoterContract.sol:VoterContract",
								"label": "id",
								"offset": 0,
								"slot": "0",
								"type": "t_uint16"
							},
							{
								"astId": 204,
								"contract": "contracts/Vote/VoterContract.sol:VoterContract",
								"label": "topic",
								"offset": 0,
								"slot": "1",
								"type": "t_string_storage"
							},
							{
								"astId": 206,
								"contract": "contracts/Vote/VoterContract.sol:VoterContract",
								"label": "voted",
								"offset": 0,
								"slot": "2",
								"type": "t_uint32"
							},
							{
								"astId": 208,
								"contract": "contracts/Vote/VoterContract.sol:VoterContract",
								"label": "result",
								"offset": 4,
								"slot": "2",
								"type": "t_uint32"
							},
							{
								"astId": 210,
								"contract": "contracts/Vote/VoterContract.sol:VoterContract",
								"label": "proposer",
								"offset": 8,
								"slot": "2",
								"type": "t_address"
							},
							{
								"astId": 212,
								"contract": "contracts/Vote/VoterContract.sol:VoterContract",
								"label": "blockNumberStarted",
								"offset": 0,
								"slot": "3",
								"type": "t_uint256"
							},
							{
								"astId": 214,
								"contract": "contracts/Vote/VoterContract.sol:VoterContract",
								"label": "blockNumberWillNotEndBefore",
								"offset": 0,
								"slot": "4",
								"type": "t_uint256"
							},
							{
								"astId": 216,
								"contract": "contracts/Vote/VoterContract.sol:VoterContract",
								"label": "blockNumberClosed",
								"offset": 0,
								"slot": "5",
								"type": "t_uint256"
							},
							{
								"astId": 219,
								"contract": "contracts/Vote/VoterContract.sol:VoterContract",
								"label": "proposalType",
								"offset": 0,
								"slot": "6",
								"type": "t_enum(VotingType)177"
							}
						],
						"numberOfBytes": "224"
					},
					"t_struct(Voting)200_storage": {
						"encoding": "inplace",
						"label": "struct VoterContract.Voting",
						"members": [
							{
								"astId": 182,
								"contract": "contracts/Vote/VoterContract.sol:VoterContract",
								"label": "id",
								"offset": 0,
								"slot": "0",
								"type": "t_uint16"
							},
							{
								"astId": 184,
								"contract": "contracts/Vote/VoterContract.sol:VoterContract",
								"label": "topic",
								"offset": 0,
								"slot": "1",
								"type": "t_string_storage"
							},
							{
								"astId": 186,
								"contract": "contracts/Vote/VoterContract.sol:VoterContract",
								"label": "voted",
								"offset": 0,
								"slot": "2",
								"type": "t_uint32"
							},
							{
								"astId": 188,
								"contract": "contracts/Vote/VoterContract.sol:VoterContract",
								"label": "result",
								"offset": 4,
								"slot": "2",
								"type": "t_uint32"
							},
							{
								"astId": 190,
								"contract": "contracts/Vote/VoterContract.sol:VoterContract",
								"label": "proposer",
								"offset": 8,
								"slot": "2",
								"type": "t_address"
							},
							{
								"astId": 192,
								"contract": "contracts/Vote/VoterContract.sol:VoterContract",
								"label": "blockNumberStarted",
								"offset": 0,
								"slot": "3",
								"type": "t_uint256"
							},
							{
								"astId": 194,
								"contract": "contracts/Vote/VoterContract.sol:VoterContract",
								"label": "blockNumberWillNotEndBefore",
								"offset": 0,
								"slot": "4",
								"type": "t_uint256"
							},
							{
								"astId": 196,
								"contract": "contracts/Vote/VoterContract.sol:VoterContract",
								"label": "blockNumberClosed",
								"offset": 0,
								"slot": "5",
								"type": "t_uint256"
							},
							{
								"astId": 199,
								"contract": "contracts/Vote/VoterContract.sol:VoterContract",
								"label": "votingType",
								"offset": 0,
								"slot": "6",
								"type": "t_enum(VotingType)177"
							}
						],
						"numberOfBytes": "224"
					},
					"t_uint16": {
						"encoding": "inplace",
						"label": "uint16",
						"numberOfBytes": "2"
					},
					"t_uint256": {
						"encoding": "inplace",
						"label": "uint256",
						"numberOfBytes": "32"
					},
					"t_uint32": {
						"encoding": "inplace",
						"label": "uint32",
						"numberOfBytes": "4"
					},
					"t_uint8": {
						"encoding": "inplace",
						"label": "uint8",
						"numberOfBytes": "1"
					}
				}
			},
			"userdoc": {
				"kind": "user",
				"methods": {},
				"version": 1
			}
		}
	}
}